{
  "contractName": "DefaultInterestRateModel",
  "abi": [
    {
      "inputs": [
        {
          "internalType": "uint256",
          "name": "baseRatePerYear",
          "type": "uint256"
        },
        {
          "internalType": "uint256",
          "name": "multiplierPerYear",
          "type": "uint256"
        }
      ],
      "stateMutability": "nonpayable",
      "type": "constructor"
    },
    {
      "anonymous": false,
      "inputs": [
        {
          "indexed": false,
          "internalType": "uint256",
          "name": "baseRatePerBlock",
          "type": "uint256"
        },
        {
          "indexed": false,
          "internalType": "uint256",
          "name": "multiplierPerBlock",
          "type": "uint256"
        }
      ],
      "name": "NewInterestParams",
      "type": "event"
    },
    {
      "inputs": [],
      "name": "baseRatePerBlock",
      "outputs": [
        {
          "internalType": "uint256",
          "name": "",
          "type": "uint256"
        }
      ],
      "stateMutability": "view",
      "type": "function"
    },
    {
      "inputs": [],
      "name": "blocksPerYear",
      "outputs": [
        {
          "internalType": "uint256",
          "name": "",
          "type": "uint256"
        }
      ],
      "stateMutability": "view",
      "type": "function"
    },
    {
      "inputs": [],
      "name": "isInterestRateModel",
      "outputs": [
        {
          "internalType": "bool",
          "name": "",
          "type": "bool"
        }
      ],
      "stateMutability": "view",
      "type": "function"
    },
    {
      "inputs": [],
      "name": "multiplierPerBlock",
      "outputs": [
        {
          "internalType": "uint256",
          "name": "",
          "type": "uint256"
        }
      ],
      "stateMutability": "view",
      "type": "function"
    },
    {
      "inputs": [
        {
          "internalType": "uint256",
          "name": "cash",
          "type": "uint256"
        },
        {
          "internalType": "uint256",
          "name": "borrows",
          "type": "uint256"
        },
        {
          "internalType": "uint256",
          "name": "reserves",
          "type": "uint256"
        }
      ],
      "name": "utilizationRate",
      "outputs": [
        {
          "internalType": "uint256",
          "name": "",
          "type": "uint256"
        }
      ],
      "stateMutability": "pure",
      "type": "function"
    },
    {
      "inputs": [
        {
          "internalType": "uint256",
          "name": "cash",
          "type": "uint256"
        },
        {
          "internalType": "uint256",
          "name": "borrows",
          "type": "uint256"
        },
        {
          "internalType": "uint256",
          "name": "reserves",
          "type": "uint256"
        }
      ],
      "name": "getBorrowRate",
      "outputs": [
        {
          "internalType": "uint256",
          "name": "",
          "type": "uint256"
        }
      ],
      "stateMutability": "view",
      "type": "function"
    },
    {
      "inputs": [
        {
          "internalType": "uint256",
          "name": "cash",
          "type": "uint256"
        },
        {
          "internalType": "uint256",
          "name": "borrows",
          "type": "uint256"
        },
        {
          "internalType": "uint256",
          "name": "reserves",
          "type": "uint256"
        },
        {
          "internalType": "uint256",
          "name": "reserveFactorMantissa",
          "type": "uint256"
        }
      ],
      "name": "getSupplyRate",
      "outputs": [
        {
          "internalType": "uint256",
          "name": "",
          "type": "uint256"
        }
      ],
      "stateMutability": "view",
      "type": "function"
    }
  ],
  "bytecode": "0x608060405234801561001057600080fd5b506040516106db3803806106db8339818101604052604081101561003357600080fd5b5080516020918201519091610056908390622014809061028c6100bc821b17901c565b60015561007181622014806100bc602090811b61028c17901c565b600081905560015460408051918252602082019290925281517ff35fa19c15e9ba782633a5df62a98b20217151addc68e3ff2cd623a48d37ec27929181900390910190a150506101ad565b600061010483836040518060400160405280601a81526020017f536166654d6174683a206469766973696f6e206279207a65726f00000000000081525061010b60201b60201c565b9392505050565b600081836101975760405162461bcd60e51b81526004018080602001828103825283818151815260200191508051906020019080838360005b8381101561015c578181015183820152602001610144565b50505050905090810190601f1680156101895780820380516001836020036101000a031916815260200191505b509250505060405180910390fd5b5060008385816101a357fe5b0495945050505050565b61051f806101bc6000396000f3fe608060405234801561001057600080fd5b506004361061007d5760003560e01c80638726bb891161005b5780638726bb8914610102578063a385fb961461010a578063b816881614610112578063f14039de146101415761007d565b806315f24053146100825780632191f92a146100bd5780636e71e2d8146100d9575b600080fd5b6100ab6004803603606081101561009857600080fd5b5080359060208101359060400135610149565b60408051918252519081900360200190f35b6100c56101a3565b604080519115158252519081900360200190f35b6100ab600480360360608110156100ef57600080fd5b50803590602081013590604001356101a8565b6100ab6101fa565b6100ab610200565b6100ab6004803603608081101561012857600080fd5b5080359060208101359060408101359060600135610207565b6100ab610286565b6000806101578585856101a8565b905061019860015461018c670de0b6b3a7640000610180600054866102d790919063ffffffff16565b9063ffffffff61028c16565b9063ffffffff61033016565b9150505b9392505050565b600181565b6000826101b75750600061019c565b6101f26101da836101ce878763ffffffff61033016565b9063ffffffff61038a16565b61018085670de0b6b3a764000063ffffffff6102d716565b949350505050565b60005481565b6220148081565b600080610222670de0b6b3a76400008463ffffffff61038a16565b90506000610231878787610149565b90506000610251670de0b6b3a7640000610180848663ffffffff6102d716565b905061027a670de0b6b3a76400006101808361026e8c8c8c6101a8565b9063ffffffff6102d716565b98975050505050505050565b60015481565b60006102ce83836040518060400160405280601a81526020017f536166654d6174683a206469766973696f6e206279207a65726f0000000000008152506103cc565b90505b92915050565b6000826102e6575060006102d1565b828202828482816102f357fe5b04146102ce5760405162461bcd60e51b81526004018080602001828103825260218152602001806104c96021913960400191505060405180910390fd5b6000828201838110156102ce576040805162461bcd60e51b815260206004820152601b60248201527f536166654d6174683a206164646974696f6e206f766572666c6f770000000000604482015290519081900360640190fd5b60006102ce83836040518060400160405280601e81526020017f536166654d6174683a207375627472616374696f6e206f766572666c6f77000081525061046e565b600081836104585760405162461bcd60e51b81526004018080602001828103825283818151815260200191508051906020019080838360005b8381101561041d578181015183820152602001610405565b50505050905090810190601f16801561044a5780820380516001836020036101000a031916815260200191505b509250505060405180910390fd5b50600083858161046457fe5b0495945050505050565b600081848411156104c05760405162461bcd60e51b815260206004820181815283516024840152835190928392604490910191908501908083836000831561041d578181015183820152602001610405565b50505090039056fe536166654d6174683a206d756c7469706c69636174696f6e206f766572666c6f77a2646970667358221220274d48176b45a83dab7e48c9c853283e3a7bc0a9f0c533421f53091d8224c14f64736f6c63430006090033",
  "immutableReferences": {},
  "source": "// SPDX-License-Identifier: UNLICENSED\npragma solidity ^0.6.9;\n\nimport \"./InterestRateModel.sol\";\nimport \"@openzeppelin/contracts/math/SafeMath.sol\";\n\ncontract DefaultInterestRateModel is InterestRateModel {\n    using SafeMath for uint256;\n\n    event NewInterestParams(uint256 baseRatePerBlock, uint256 multiplierPerBlock);\n\n    /**\n     * @notice 该利率模型所使用的每年区块数，按 每 15 秒出一个块，每年 365 天来计算\n     * blocksPerYear = (60/15) * 60 * 24 * 365\n     */\n    uint256 public constant blocksPerYear = 2102400;\n\n    /**\n     * @notice 资金利用率乘数因子，基于此可以得到利率曲线\n     */\n    uint256 public multiplierPerBlock;\n\n    /**\n     * @notice 基础年化利率，可看作利率函数在 y 轴的截距\n     */\n    uint256 public baseRatePerBlock;\n\n    /**\n     * @notice 构造一个利率模型\n     * @param baseRatePerYear 年化基础利率\n     * @param multiplierPerYear 加给利率\n     */\n    constructor(uint256 baseRatePerYear, uint256 multiplierPerYear) public {\n        baseRatePerBlock = baseRatePerYear.div(blocksPerYear);\n        multiplierPerBlock = multiplierPerYear.div(blocksPerYear);\n\n        emit NewInterestParams(baseRatePerBlock, multiplierPerBlock);\n    }\n\n    /**\n     * @notice 计算当前市场的资金使用率: `borrows / (cash + borrows - reserves)`\n     * @param cash 当前市场中的现金\n     * @param borrows 当前市场已借出总金额\n     * @param reserves 市场中未使用储备金\n     * @return 资金使用率，范围在 [0, 1e18]\n     */\n    function utilizationRate(uint256 cash, uint256 borrows, uint256 reserves) public pure returns (uint256) {\n        // 无借款时资金使用率为 0\n        if (borrows == 0) {\n            return 0;\n        }\n\n        return borrows.mul(1e18).div(cash.add(borrows).sub(reserves));\n    }\n\n    /**\n     * @notice 计算区块借款利率 = baseRatePerBlock + utilizationRate * multiplierPerBlock\n     * @param cash 该市场的现金量\n     * @param borrows 该市场已出借金额\n     * @param reserves 该市场备付金\n     * @return 借款利率\n     */\n    function getBorrowRate(uint256 cash, uint256 borrows, uint256 reserves) public view override returns (uint256) {\n        uint256 ur = utilizationRate(cash, borrows, reserves);\n        return ur.mul(multiplierPerBlock).div(1e18).add(baseRatePerBlock);\n    }\n\n    /**\n     * @notice 计算当前区块出借利率 = utilizationRate * BorrowRate * （1 - reserveFactor）\n     * @param cash 该市场现金量\n     * @param borrows 该市场出借量\n     * @param reserves 市场备付金\n     * @param reserveFactorMantissa 备付金比例\n     * @return 当前区块出借利率\n     */\n    function getSupplyRate(uint256 cash, uint256 borrows, uint256 reserves, uint256 reserveFactorMantissa) public view override returns (uint256) {\n        uint256 oneMinusReserveFactor = uint256(1e18).sub(reserveFactorMantissa);\n        uint256 borrowRate = getBorrowRate(cash, borrows, reserves);\n        uint256 rateToPool = borrowRate.mul(oneMinusReserveFactor).div(1e18);\n        return utilizationRate(cash, borrows, reserves).mul(rateToPool).div(1e18);\n    }\n}\n",
  "sourcePath": "/Users/ashton/repo/blockchain/eth/smartcontracts/PoolX/contracts/core/DefaultInterestRateModel.sol",
  "compiler": {
    "name": "solc",
    "version": "0.6.9+commit.3e3065ac.Emscripten.clang"
  },
  "schemaVersion": "3.2.0",
  "updatedAt": "2020-08-24T09:06:21.507Z",
  "devdoc": {
    "methods": {
      "constructor": {
        "params": {
          "baseRatePerYear": "年化基础利率",
          "multiplierPerYear": "加给利率"
        }
      },
      "getBorrowRate(uint256,uint256,uint256)": {
        "params": {
          "borrows": "该市场已出借金额",
          "cash": "该市场的现金量",
          "reserves": "该市场备付金"
        },
        "returns": {
          "_0": "借款利率"
        }
      },
      "getSupplyRate(uint256,uint256,uint256,uint256)": {
        "params": {
          "borrows": "该市场出借量",
          "cash": "该市场现金量",
          "reserveFactorMantissa": "备付金比例",
          "reserves": "市场备付金"
        },
        "returns": {
          "_0": "当前区块出借利率"
        }
      },
      "utilizationRate(uint256,uint256,uint256)": {
        "params": {
          "borrows": "当前市场已借出总金额",
          "cash": "当前市场中的现金",
          "reserves": "市场中未使用储备金"
        },
        "returns": {
          "_0": "资金使用率，范围在 [0, 1e18]"
        }
      }
    }
  },
  "userdoc": {
    "methods": {
      "baseRatePerBlock()": {
        "notice": "基础年化利率，可看作利率函数在 y 轴的截距"
      },
      "blocksPerYear()": {
        "notice": "该利率模型所使用的每年区块数，按 每 15 秒出一个块，每年 365 天来计算 blocksPerYear = (60/15) * 60 * 24 * 365"
      },
      "constructor": "构造一个利率模型",
      "getBorrowRate(uint256,uint256,uint256)": {
        "notice": "计算区块借款利率 = baseRatePerBlock + utilizationRate * multiplierPerBlock"
      },
      "getSupplyRate(uint256,uint256,uint256,uint256)": {
        "notice": "计算当前区块出借利率 = utilizationRate * BorrowRate * （1 - reserveFactor）"
      },
      "multiplierPerBlock()": {
        "notice": "资金利用率乘数因子，基于此可以得到利率曲线"
      },
      "utilizationRate(uint256,uint256,uint256)": {
        "notice": "计算当前市场的资金使用率: `borrows / (cash + borrows - reserves)`"
      }
    }
  }
}