{
  "contractName": "MockNest3OfferPrice",
  "abi": [
    {
      "inputs": [],
      "stateMutability": "nonpayable",
      "type": "constructor"
    },
    {
      "inputs": [],
      "name": "activated",
      "outputs": [
        {
          "internalType": "bool",
          "name": "",
          "type": "bool"
        }
      ],
      "stateMutability": "view",
      "type": "function"
    },
    {
      "inputs": [],
      "name": "activation",
      "outputs": [],
      "stateMutability": "nonpayable",
      "type": "function"
    },
    {
      "inputs": [
        {
          "internalType": "address",
          "name": "tokenAddress",
          "type": "address"
        }
      ],
      "name": "updateAndCheckPriceNow",
      "outputs": [
        {
          "internalType": "uint256",
          "name": "ethAmount",
          "type": "uint256"
        },
        {
          "internalType": "uint256",
          "name": "erc20Amount",
          "type": "uint256"
        },
        {
          "internalType": "uint256",
          "name": "blockNum",
          "type": "uint256"
        }
      ],
      "stateMutability": "payable",
      "type": "function"
    },
    {
      "inputs": [
        {
          "internalType": "address",
          "name": "tokenAddress",
          "type": "address"
        }
      ],
      "name": "checkPriceCostSingle",
      "outputs": [
        {
          "internalType": "uint256",
          "name": "",
          "type": "uint256"
        }
      ],
      "stateMutability": "view",
      "type": "function"
    }
  ],
  "bytecode": "0x60806040526000805460ff1916905534801561001a57600080fd5b5061017c8061002a6000396000f3fe60806040526004361061003f5760003560e01c8063186601ca146100445780633629c8de1461006d5780635714e83e14610084578063a834d32e146100c9575b600080fd5b34801561005057600080fd5b5061005961010d565b604080519115158252519081900360200190f35b34801561007957600080fd5b50610082610116565b005b34801561009057600080fd5b506100b7600480360360208110156100a757600080fd5b50356001600160a01b0316610125565b60408051918252519081900360200190f35b6100ef600480360360208110156100df57600080fd5b50356001600160a01b0316610131565b60408051938452602084019290925282820152519081900360600190f35b60005460ff1681565b6000805460ff19166001179055565b50662386f26fc1000090565b50678ac7230489e800009063ee6b280090439056fea2646970667358221220e1c0b1e2ba147be911145d8ad497fba5d08eacab849530f34281987e356c863664736f6c63430006090033",
  "immutableReferences": {},
  "source": "// SPDX-License-Identifier: UNLICENSED\npragma solidity ^0.6.9;\n\nimport \"../oracle/NestPriceOracle.sol\";\n\ncontract MockNest3OfferPrice is Nest3OfferPrice {\n    bool public activated = false;\n\n    constructor() public {\n    }\n\n    // 激活使用价格合约\n    function activation() external override {\n        activated = true;\n    }\n    // 更新并查看最新价格\n    function updateAndCheckPriceNow(address tokenAddress) external payable override returns(uint256 ethAmount, uint256 erc20Amount, uint256 blockNum) {\n        tokenAddress;\n        // 10 ETH ~ 4000 USDT\n        return (10e18, 4000 * 1e6, block.number);\n    }\n\n    // 查看价格eth单条数据费用\n    function checkPriceCostSingle(address tokenAddress) external view override returns(uint256) {\n        tokenAddress;\n        // 0.01 ETH\n        return 1e16;\n    }\n}\n",
  "sourcePath": "/Users/ashton/repo/blockchain/eth/smartcontracts/PoolX/contracts/mock/MockNest3OfferPrice.sol",
  "compiler": {
    "name": "solc",
    "version": "0.6.9+commit.3e3065ac.Emscripten.clang"
  },
  "schemaVersion": "3.2.0",
  "updatedAt": "2020-08-30T02:45:20.995Z",
  "devdoc": {
    "methods": {}
  },
  "userdoc": {
    "methods": {}
  }
}