{
  "contractName": "MockNest3VoteFactory",
  "abi": [
    {
      "inputs": [],
      "stateMutability": "nonpayable",
      "type": "constructor"
    },
    {
      "inputs": [],
      "name": "priceOracle",
      "outputs": [
        {
          "internalType": "contract Nest3OfferPrice",
          "name": "",
          "type": "address"
        }
      ],
      "stateMutability": "view",
      "type": "function",
      "constant": true
    },
    {
      "inputs": [
        {
          "internalType": "string",
          "name": "name",
          "type": "string"
        }
      ],
      "name": "checkAddress",
      "outputs": [
        {
          "internalType": "address",
          "name": "contractAddress",
          "type": "address"
        }
      ],
      "stateMutability": "view",
      "type": "function",
      "constant": true
    }
  ],
  "bytecode": "0x608060405234801561001057600080fd5b5060405161001d9061005f565b604051809103906000f080158015610039573d6000803e3d6000fd5b50600080546001600160a01b0319166001600160a01b039290921691909117905561006c565b6102dc8061019483390190565b6101198061007b6000396000f3fe6080604052348015600f57600080fd5b506004361060325760003560e01c80632630c12f1460375780638fe77e86146059575b600080fd5b603d60c3565b604080516001600160a01b039092168252519081900360200190f35b603d60048036036020811015606d57600080fd5b810190602081018135640100000000811115608757600080fd5b820183602082011115609857600080fd5b8035906020019184600183028401116401000000008311171560b957600080fd5b50909250905060d2565b6000546001600160a01b031681565b50506000546001600160a01b03169056fea2646970667358221220653d895d93a03c178b4b6cfce60366b6fd1163dccee39f9a0af2891f92f50d5864736f6c6343000609003360806040526000805534801561001457600080fd5b506102b8806100246000396000f3fe60806040526004361061003f5760003560e01c80633629c8de146100445780634f37c1621461005b578063a834d32e146100a0578063d3a2433e146100e4575b600080fd5b34801561005057600080fd5b5061005961012b565b005b34801561006757600080fd5b5061008e6004803603602081101561007e57600080fd5b50356001600160a01b0316610151565b60408051918252519081900360200190f35b6100c6600480360360208110156100b657600080fd5b50356001600160a01b031661015f565b60408051938452602084019290925282820152519081900360600190f35b3480156100f057600080fd5b506101176004803603602081101561010757600080fd5b50356001600160a01b03166101ce565b604080519115158252519081900360200190f35b60005461013f90429063ffffffff61022116565b33600090815260016020526040902055565b662386f26fc100005b919050565b600080600061016d336101ce565b6101b5576040805162461bcd60e51b815260206004820152601460248201527320b1ba34bb30ba34b7b7103932b8bab4b932b21760611b604482015290519081900360640190fd5b50678ac7230489e800009363ee6b280093504392509050565b6001600160a01b0381166000908152600160205260408120544211801561020c57506001600160a01b03821660009081526001602052604090205415155b156102195750600161015a565b50600061015a565b60008282018381101561027b576040805162461bcd60e51b815260206004820152601b60248201527f536166654d6174683a206164646974696f6e206f766572666c6f770000000000604482015290519081900360640190fd5b939250505056fea2646970667358221220fda54bb2e925feabf12d47e1bce4dfd4471048fb23edbee192e467228383315264736f6c63430006090033",
  "immutableReferences": {},
  "source": "// SPDX-License-Identifier: UNLICENSED\npragma solidity ^0.6.9;\n\nimport \"../oracle/NestPriceOracle.sol\";\nimport \"../oracle/PriceOracle.sol\";\nimport \"./MockNest3OfferPrice.sol\";\n\ncontract MockNest3VoteFactory is Nest3VoteFactory {\n    Nest3OfferPrice public priceOracle;\n\n    constructor() public {\n        priceOracle = new MockNest3OfferPrice();\n    }\n\n    function checkAddress(string calldata name) external view override returns (address contractAddress) {\n        name;\n        return address(priceOracle);\n    }\n}\n",
  "sourcePath": "/Users/ashton/repo/blockchain/eth/smartcontracts/PoolX/contracts/mock/MockNest3VoteFactory.sol",
  "compiler": {
    "name": "solc",
    "version": "0.6.9+commit.3e3065ac.Emscripten.clang"
  },
  "schemaVersion": "3.2.0",
  "updatedAt": "2020-11-06T11:40:22.773Z",
  "networkType": "ethereum",
  "devdoc": {
    "methods": {}
  },
  "userdoc": {
    "methods": {}
  }
}