{
  "contractName": "MockNest3VoteFactory",
  "abi": [
    {
      "inputs": [],
      "stateMutability": "nonpayable",
      "type": "constructor"
    },
    {
      "inputs": [],
      "name": "priceOracle",
      "outputs": [
        {
          "internalType": "contract Nest3OfferPrice",
          "name": "",
          "type": "address"
        }
      ],
      "stateMutability": "view",
      "type": "function",
      "constant": true
    },
    {
      "inputs": [
        {
          "internalType": "string",
          "name": "name",
          "type": "string"
        }
      ],
      "name": "checkAddress",
      "outputs": [
        {
          "internalType": "address",
          "name": "contractAddress",
          "type": "address"
        }
      ],
      "stateMutability": "view",
      "type": "function",
      "constant": true
    }
  ],
  "bytecode": "0x608060405234801561001057600080fd5b5060405161001d9061005f565b604051809103906000f080158015610039573d6000803e3d6000fd5b50600080546001600160a01b0319166001600160a01b039290921691909117905561006c565b6104378061019483390190565b6101198061007b6000396000f3fe6080604052348015600f57600080fd5b506004361060325760003560e01c80632630c12f1460375780638fe77e86146059575b600080fd5b603d60c3565b604080516001600160a01b039092168252519081900360200190f35b603d60048036036020811015606d57600080fd5b810190602081018135640100000000811115608757600080fd5b820183602082011115609857600080fd5b8035906020019184600183028401116401000000008311171560b957600080fd5b50909250905060d2565b6000546001600160a01b031681565b50506000546001600160a01b03169056fea2646970667358221220bf41eb2c7f4e0aa4afd6cc416a5a91602315b92a22d701479de1960e8ee2047964736f6c6343000609003360806040526000805534801561001457600080fd5b50610413806100246000396000f3fe60806040526004361061003f5760003560e01c80633629c8de146100445780634a6238d41461005b578063a834d32e14610082578063d3a2433e146100c6575b600080fd5b34801561005057600080fd5b5061005961010d565b005b34801561006757600080fd5b50610070610133565b60408051918252519081900360200190f35b6100a86004803603602081101561009857600080fd5b50356001600160a01b031661013e565b60408051938452602084019290925282820152519081900360600190f35b3480156100d257600080fd5b506100f9600480360360208110156100e957600080fd5b50356001600160a01b0316610254565b604080519115158252519081900360200190f35b60005461012190429063ffffffff6102a816565b33600090815260016020526040902055565b662386f26fc1000090565b60008060008061014c610133565b905061015733610254565b61019f576040805162461bcd60e51b815260206004820152601460248201527320b1ba34bb30ba34b7b7103932b8bab4b932b21760611b604482015290519081900360640190fd5b803410156101f4576040805162461bcd60e51b815260206004820152601b60248201527f4e6f20656e6f756768206f7261636c6520636f737420706169642e0000000000604482015290519081900360640190fd5b8034111561023a57336108fc610210348463ffffffff61030916565b6040518115909202916000818181858888f19350505050158015610238573d6000803e3d6000fd5b505b50678ac7230489e800009463ee6b28009450439350915050565b6001600160a01b0381166000908152600160205260408120544211801561029257506001600160a01b03821660009081526001602052604090205415155b1561029f575060016102a3565b5060005b919050565b600082820183811015610302576040805162461bcd60e51b815260206004820152601b60248201527f536166654d6174683a206164646974696f6e206f766572666c6f770000000000604482015290519081900360640190fd5b9392505050565b600061030283836040518060400160405280601e81526020017f536166654d6174683a207375627472616374696f6e206f766572666c6f770000815250600081848411156103d55760405162461bcd60e51b81526004018080602001828103825283818151815260200191508051906020019080838360005b8381101561039a578181015183820152602001610382565b50505050905090810190601f1680156103c75780820380516001836020036101000a031916815260200191505b509250505060405180910390fd5b50505090039056fea26469706673582212208d8fc294fabaa697197b446888339bbfd429db44a3e8b5fb2748e90cd798e54464736f6c63430006090033",
  "immutableReferences": {},
  "source": "// SPDX-License-Identifier: UNLICENSED\npragma solidity ^0.6.9;\n\nimport \"../oracle/NestPriceOracle.sol\";\nimport \"../oracle/PriceOracle.sol\";\nimport \"./MockNest3OfferPrice.sol\";\n\ncontract MockNest3VoteFactory is Nest3VoteFactory {\n    Nest3OfferPrice public priceOracle;\n\n    constructor() public {\n        priceOracle = new MockNest3OfferPrice();\n    }\n\n    function checkAddress(string calldata name) external view override returns (address contractAddress) {\n        name;\n        return address(priceOracle);\n    }\n}\n",
  "sourcePath": "/Users/ashton/repo/blockchain/eth/smartcontracts/PoolX/contracts/mock/MockNest3VoteFactory.sol",
  "compiler": {
    "name": "solc",
    "version": "0.6.9+commit.3e3065ac.Emscripten.clang"
  },
  "schemaVersion": "3.2.0",
  "updatedAt": "2020-11-09T07:50:17.365Z",
  "networkType": "ethereum",
  "devdoc": {
    "methods": {}
  },
  "userdoc": {
    "methods": {}
  }
}