{
  "contractName": "MockNest3VoteFactory",
  "abi": [
    {
      "inputs": [],
      "stateMutability": "nonpayable",
      "type": "constructor"
    },
    {
      "inputs": [],
      "name": "priceOracle",
      "outputs": [
        {
          "internalType": "contract Nest3OfferPrice",
          "name": "",
          "type": "address"
        }
      ],
      "stateMutability": "view",
      "type": "function"
    },
    {
      "inputs": [
        {
          "internalType": "string",
          "name": "name",
          "type": "string"
        }
      ],
      "name": "checkAddress",
      "outputs": [
        {
          "internalType": "address",
          "name": "contractAddress",
          "type": "address"
        }
      ],
      "stateMutability": "view",
      "type": "function"
    }
  ],
  "bytecode": "0x608060405234801561001057600080fd5b5060405161001d9061005f565b604051809103906000f080158015610039573d6000803e3d6000fd5b50600080546001600160a01b0319166001600160a01b039290921691909117905561006c565b6101a68061019483390190565b6101198061007b6000396000f3fe6080604052348015600f57600080fd5b506004361060325760003560e01c80632630c12f1460375780638fe77e86146059575b600080fd5b603d60c3565b604080516001600160a01b039092168252519081900360200190f35b603d60048036036020811015606d57600080fd5b810190602081018135640100000000811115608757600080fd5b820183602082011115609857600080fd5b8035906020019184600183028401116401000000008311171560b957600080fd5b50909250905060d2565b6000546001600160a01b031681565b50506000546001600160a01b03169056fea26469706673582212203a166a517ee6aba43bcc6ab4109756bcade37f6d098e169c03f4cf97919c226264736f6c6343000609003360806040526000805460ff1916905534801561001a57600080fd5b5061017c8061002a6000396000f3fe60806040526004361061003f5760003560e01c8063186601ca146100445780633629c8de1461006d5780635714e83e14610084578063a834d32e146100c9575b600080fd5b34801561005057600080fd5b5061005961010d565b604080519115158252519081900360200190f35b34801561007957600080fd5b50610082610116565b005b34801561009057600080fd5b506100b7600480360360208110156100a757600080fd5b50356001600160a01b0316610125565b60408051918252519081900360200190f35b6100ef600480360360208110156100df57600080fd5b50356001600160a01b0316610131565b60408051938452602084019290925282820152519081900360600190f35b60005460ff1681565b6000805460ff19166001179055565b50662386f26fc1000090565b50678ac7230489e800009063ee6b280090439056fea26469706673582212203b81cbf380e9879c8a9445a6d950582a9edd19aad1481f7489170bf10eba365864736f6c63430006090033",
  "immutableReferences": {},
  "source": "// SPDX-License-Identifier: UNLICENSED\npragma solidity ^0.6.9;\n\nimport \"../NestPriceOracle.sol\";\nimport \"../PriceOracle.sol\";\nimport \"./MockNest3OfferPrice.sol\";\n\ncontract MockNest3VoteFactory is Nest3VoteFactory {\n    Nest3OfferPrice public priceOracle;\n\n    constructor() public {\n        priceOracle = new MockNest3OfferPrice();\n    }\n\n    function checkAddress(string calldata name) external view override returns (address contractAddress) {\n        name;\n        return address(priceOracle);\n    }\n}\n",
  "sourcePath": "/Users/ashton/repo/blockchain/eth/smartcontracts/PoolX/contracts/oracle/mock/MockNest3VoteFactory.sol",
  "compiler": {
    "name": "solc",
    "version": "0.6.9+commit.3e3065ac.Emscripten.clang"
  },
  "schemaVersion": "3.2.0",
  "updatedAt": "2020-08-13T21:54:51.638Z",
  "devdoc": {
    "methods": {}
  },
  "userdoc": {
    "methods": {}
  }
}