{
  "contractName": "MockNest3OfferPrice",
  "abi": [
    {
      "inputs": [],
      "stateMutability": "nonpayable",
      "type": "constructor"
    },
    {
      "inputs": [],
      "name": "activation",
      "outputs": [],
      "stateMutability": "nonpayable",
      "type": "function"
    },
    {
      "inputs": [
        {
          "internalType": "address",
          "name": "tokenAddress",
          "type": "address"
        }
      ],
      "name": "updateAndCheckPriceNow",
      "outputs": [
        {
          "internalType": "uint256",
          "name": "ethAmount",
          "type": "uint256"
        },
        {
          "internalType": "uint256",
          "name": "erc20Amount",
          "type": "uint256"
        },
        {
          "internalType": "uint256",
          "name": "blockNum",
          "type": "uint256"
        }
      ],
      "stateMutability": "payable",
      "type": "function"
    },
    {
      "inputs": [
        {
          "internalType": "address",
          "name": "tokenAddress",
          "type": "address"
        }
      ],
      "name": "checkPriceCost",
      "outputs": [
        {
          "internalType": "uint256",
          "name": "",
          "type": "uint256"
        }
      ],
      "stateMutability": "view",
      "type": "function"
    },
    {
      "inputs": [
        {
          "internalType": "address",
          "name": "target",
          "type": "address"
        }
      ],
      "name": "checkUseNestPrice",
      "outputs": [
        {
          "internalType": "bool",
          "name": "",
          "type": "bool"
        }
      ],
      "stateMutability": "view",
      "type": "function"
    }
  ],
  "bytecode": "0x60806040526000805534801561001457600080fd5b506102b8806100246000396000f3fe60806040526004361061003f5760003560e01c80633629c8de146100445780634f37c1621461005b578063a834d32e146100a0578063d3a2433e146100e4575b600080fd5b34801561005057600080fd5b5061005961012b565b005b34801561006757600080fd5b5061008e6004803603602081101561007e57600080fd5b50356001600160a01b0316610151565b60408051918252519081900360200190f35b6100c6600480360360208110156100b657600080fd5b50356001600160a01b031661015f565b60408051938452602084019290925282820152519081900360600190f35b3480156100f057600080fd5b506101176004803603602081101561010757600080fd5b50356001600160a01b03166101ce565b604080519115158252519081900360200190f35b60005461013f90429063ffffffff61022116565b33600090815260016020526040902055565b662386f26fc100005b919050565b600080600061016d336101ce565b6101b5576040805162461bcd60e51b815260206004820152601460248201527320b1ba34bb30ba34b7b7103932b8bab4b932b21760611b604482015290519081900360640190fd5b50678ac7230489e800009363ee6b280093504392509050565b6001600160a01b0381166000908152600160205260408120544211801561020c57506001600160a01b03821660009081526001602052604090205415155b156102195750600161015a565b50600061015a565b60008282018381101561027b576040805162461bcd60e51b815260206004820152601b60248201527f536166654d6174683a206164646974696f6e206f766572666c6f770000000000604482015290519081900360640190fd5b939250505056fea2646970667358221220691b37de2e8de1db00f36dadde0065d2494a1f5a8841f76efeb79e0e966f11fb64736f6c63430006090033",
  "immutableReferences": {},
  "source": "// SPDX-License-Identifier: UNLICENSED\npragma solidity ^0.6.9;\n\nimport \"../oracle/NestPriceOracle.sol\";\nimport \"@openzeppelin/contracts/math/SafeMath.sol\";\n\ncontract MockNest3OfferPrice is Nest3OfferPrice {\n    using SafeMath for uint256;\n\n    uint256 effectTime = 0 days;\n    mapping(address => uint256) _addressEffect;\n\n    constructor() public {\n    }\n\n    // Activate the price checking function\n    function activation() external override {\n        _addressEffect[address(msg.sender)] = now.add(effectTime);\n    }\n\n    // Update and check the latest price\n    function updateAndCheckPriceNow(address tokenAddress) external payable override returns(uint256 ethAmount, uint256 erc20Amount, uint256 blockNum) {\n        tokenAddress;\n        require(checkUseNestPrice(address(msg.sender)), \"Activation required.\");\n        // 10 ETH ~ 4000 USDT\n        return (10e18, 4000 * 1e6, block.number);\n    }\n\n    // Check call price fee\n    function checkPriceCost(address tokenAddress) external view override returns(uint256) {\n        tokenAddress;\n        // 0.01 ETH\n        return 1e16;\n    }\n\n    // Check whether the price-checking functions can be called\n    function checkUseNestPrice(address target) public view override returns (bool) {\n        if (_addressEffect[target] < now && _addressEffect[target] != 0) {\n            return true;\n        } else {\n            return false;\n        }\n    }\n}\n",
  "sourcePath": "/home/plutoadmin/stamen-contracts/contracts/mock/MockNest3OfferPrice.sol",
  "compiler": {
    "name": "solc",
    "version": "0.6.9+commit.3e3065ac.Emscripten.clang"
  },
  "schemaVersion": "3.3.1",
  "updatedAt": "2020-11-06T12:03:32.367Z",
  "devdoc": {
    "methods": {}
  },
  "userdoc": {
    "methods": {}
  }
}