{
  "contractName": "MockNest3OfferPrice",
  "abi": [
    {
      "inputs": [],
      "stateMutability": "nonpayable",
      "type": "constructor"
    },
    {
      "inputs": [],
      "name": "activation",
      "outputs": [],
      "stateMutability": "nonpayable",
      "type": "function"
    },
    {
      "inputs": [
        {
          "internalType": "address",
          "name": "tokenAddress",
          "type": "address"
        }
      ],
      "name": "updateAndCheckPriceNow",
      "outputs": [
        {
          "internalType": "uint256",
          "name": "ethAmount",
          "type": "uint256"
        },
        {
          "internalType": "uint256",
          "name": "erc20Amount",
          "type": "uint256"
        },
        {
          "internalType": "uint256",
          "name": "blockNum",
          "type": "uint256"
        }
      ],
      "stateMutability": "payable",
      "type": "function"
    },
    {
      "inputs": [],
      "name": "checkPriceCost",
      "outputs": [
        {
          "internalType": "uint256",
          "name": "",
          "type": "uint256"
        }
      ],
      "stateMutability": "view",
      "type": "function"
    },
    {
      "inputs": [
        {
          "internalType": "address",
          "name": "target",
          "type": "address"
        }
      ],
      "name": "checkUseNestPrice",
      "outputs": [
        {
          "internalType": "bool",
          "name": "",
          "type": "bool"
        }
      ],
      "stateMutability": "view",
      "type": "function"
    }
  ],
  "bytecode": "0x60806040526000805534801561001457600080fd5b50610413806100246000396000f3fe60806040526004361061003f5760003560e01c80633629c8de146100445780634a6238d41461005b578063a834d32e14610082578063d3a2433e146100c6575b600080fd5b34801561005057600080fd5b5061005961010d565b005b34801561006757600080fd5b50610070610133565b60408051918252519081900360200190f35b6100a86004803603602081101561009857600080fd5b50356001600160a01b031661013e565b60408051938452602084019290925282820152519081900360600190f35b3480156100d257600080fd5b506100f9600480360360208110156100e957600080fd5b50356001600160a01b0316610254565b604080519115158252519081900360200190f35b60005461012190429063ffffffff6102a816565b33600090815260016020526040902055565b662386f26fc1000090565b60008060008061014c610133565b905061015733610254565b61019f576040805162461bcd60e51b815260206004820152601460248201527320b1ba34bb30ba34b7b7103932b8bab4b932b21760611b604482015290519081900360640190fd5b803410156101f4576040805162461bcd60e51b815260206004820152601b60248201527f4e6f20656e6f756768206f7261636c6520636f737420706169642e0000000000604482015290519081900360640190fd5b8034111561023a57336108fc610210348463ffffffff61030916565b6040518115909202916000818181858888f19350505050158015610238573d6000803e3d6000fd5b505b50678ac7230489e800009463ee6b28009450439350915050565b6001600160a01b0381166000908152600160205260408120544211801561029257506001600160a01b03821660009081526001602052604090205415155b1561029f575060016102a3565b5060005b919050565b600082820183811015610302576040805162461bcd60e51b815260206004820152601b60248201527f536166654d6174683a206164646974696f6e206f766572666c6f770000000000604482015290519081900360640190fd5b9392505050565b600061030283836040518060400160405280601e81526020017f536166654d6174683a207375627472616374696f6e206f766572666c6f770000815250600081848411156103d55760405162461bcd60e51b81526004018080602001828103825283818151815260200191508051906020019080838360005b8381101561039a578181015183820152602001610382565b50505050905090810190601f1680156103c75780820380516001836020036101000a031916815260200191505b509250505060405180910390fd5b50505090039056fea26469706673582212200096b410ef35d69f593234be9fbd6a8facc210261f3f5ff0273ea6cca031107864736f6c63430006090033",
  "immutableReferences": {},
  "source": "// SPDX-License-Identifier: UNLICENSED\npragma solidity ^0.6.9;\n\nimport \"../oracle/NestPriceOracle.sol\";\nimport \"@openzeppelin/contracts/math/SafeMath.sol\";\n\ncontract MockNest3OfferPrice is Nest3OfferPrice {\n    using SafeMath for uint256;\n\n    uint256 effectTime = 0 days;\n    mapping(address => uint256) _addressEffect;\n\n    constructor() public {\n    }\n\n    // Activate the price checking function\n    function activation() external override {\n        _addressEffect[address(msg.sender)] = now.add(effectTime);\n    }\n\n    // Update and check the latest price\n    function updateAndCheckPriceNow(address tokenAddress) external payable override returns(uint256 ethAmount, uint256 erc20Amount, uint256 blockNum) {\n        tokenAddress;\n        uint256 priceCost = checkPriceCost();\n        require(checkUseNestPrice(address(msg.sender)), \"Activation required.\");\n        require(msg.value >= priceCost, \"No enough oracle cost paid.\");\n        if (msg.value > priceCost) msg.sender.transfer(msg.value.sub(priceCost));\n        // 10 ETH ~ 4000 USDT\n        return (10e18, 4000 * 1e6, block.number);\n    }\n\n    // Check call price fee\n    function checkPriceCost() public view override returns(uint256) {\n        // 0.01 ETH\n        return 1e16;\n        //return 0;\n    }\n\n    // Check whether the price-checking functions can be called\n    function checkUseNestPrice(address target) public view override returns (bool) {\n        if (_addressEffect[target] < now && _addressEffect[target] != 0) {\n            return true;\n        } else {\n            return false;\n        }\n    }\n}\n",
  "sourcePath": "/Users/ashton/repo/blockchain/eth/smartcontracts/PoolX/contracts/mock/MockNest3OfferPrice.sol",
  "compiler": {
    "name": "solc",
    "version": "0.6.9+commit.3e3065ac.Emscripten.clang"
  },
  "schemaVersion": "3.2.0",
  "updatedAt": "2021-01-11T13:43:10.213Z",
  "devdoc": {
    "methods": {}
  },
  "userdoc": {
    "methods": {}
  }
}