{
  "contractName": "NestPriceOracle",
  "abi": [
    {
      "inputs": [
        {
          "internalType": "address",
          "name": "_voteFactory",
          "type": "address"
        },
        {
          "internalType": "address",
          "name": "_nestToken",
          "type": "address"
        }
      ],
      "stateMutability": "nonpayable",
      "type": "constructor"
    },
    {
      "inputs": [],
      "name": "DESTRUCTION_AMOUNT",
      "outputs": [
        {
          "internalType": "uint256",
          "name": "",
          "type": "uint256"
        }
      ],
      "stateMutability": "view",
      "type": "function",
      "constant": true
    },
    {
      "inputs": [],
      "name": "isPriceOracle",
      "outputs": [
        {
          "internalType": "bool",
          "name": "",
          "type": "bool"
        }
      ],
      "stateMutability": "view",
      "type": "function",
      "constant": true
    },
    {
      "inputs": [],
      "name": "nestToken",
      "outputs": [
        {
          "internalType": "address",
          "name": "",
          "type": "address"
        }
      ],
      "stateMutability": "view",
      "type": "function",
      "constant": true
    },
    {
      "inputs": [],
      "name": "voteFactory",
      "outputs": [
        {
          "internalType": "contract Nest3VoteFactory",
          "name": "",
          "type": "address"
        }
      ],
      "stateMutability": "view",
      "type": "function",
      "constant": true
    },
    {
      "stateMutability": "payable",
      "type": "receive",
      "payable": true
    },
    {
      "inputs": [
        {
          "internalType": "contract PToken",
          "name": "pToken",
          "type": "address"
        }
      ],
      "name": "updateAndGetUnderlyingPrice",
      "outputs": [
        {
          "internalType": "uint256",
          "name": "",
          "type": "uint256"
        }
      ],
      "stateMutability": "payable",
      "type": "function",
      "payable": true
    },
    {
      "inputs": [
        {
          "internalType": "contract PToken",
          "name": "pToken",
          "type": "address"
        }
      ],
      "name": "getPriceCost",
      "outputs": [
        {
          "internalType": "uint256",
          "name": "",
          "type": "uint256"
        }
      ],
      "stateMutability": "view",
      "type": "function",
      "constant": true
    },
    {
      "inputs": [
        {
          "internalType": "contract PToken",
          "name": "pToken",
          "type": "address"
        }
      ],
      "name": "getUnderlyingPrice",
      "outputs": [
        {
          "internalType": "uint256",
          "name": "",
          "type": "uint256"
        },
        {
          "internalType": "uint256",
          "name": "",
          "type": "uint256"
        }
      ],
      "stateMutability": "view",
      "type": "function",
      "constant": true
    },
    {
      "inputs": [],
      "name": "activation",
      "outputs": [],
      "stateMutability": "nonpayable",
      "type": "function"
    }
  ],
  "bytecode": "0x60c0604052600060025534801561001557600080fd5b506040516110063803806110068339818101604052604081101561003857600080fd5b5080516020909101516001600160601b0319606092831b8116608052911b1660a05260805160601c60a05160601c610f6f61009760003980610531528061057252806106005280610635525080610664528061091c5250610f6f6000f3fe60806040526004361061007f5760003560e01c806366331bba1161004e57806366331bba14610120578063a836900614610149578063ea67db221461015e578063fc57d4df1461019157610086565b8063220302dc1461008b5780633629c8de146100c357806337fc2beb146100da5780635f69bd3d1461010b57610086565b3661008657005b600080fd5b6100b1600480360360208110156100a157600080fd5b50356001600160a01b03166101dd565b60408051918252519081900360200190f35b3480156100cf57600080fd5b506100d8610459565b005b3480156100e657600080fd5b506100ef610633565b604080516001600160a01b039092168252519081900360200190f35b34801561011757600080fd5b506100b1610657565b34801561012c57600080fd5b5061013561065d565b604080519115158252519081900360200190f35b34801561015557600080fd5b506100ef610662565b34801561016a57600080fd5b506100b16004803603602081101561018157600080fd5b50356001600160a01b0316610686565b34801561019d57600080fd5b506101c4600480360360208110156101b457600080fd5b50356001600160a01b0316610775565b6040805192835260208301919091528051918290030190f35b6000806101e983610686565b90508034101561022a5760405162461bcd60e51b8152600401808060200182810382526026815260200180610e936026913960400191505060405180910390fd5b8034111561027057336108fc610246348463ffffffff61088916565b6040518115909202916000818181858888f1935050505015801561026e573d6000803e3d6000fd5b505b826001600160a01b0316639af4ee7e6040518163ffffffff1660e01b815260040160206040518083038186803b1580156102a957600080fd5b505afa1580156102bd573d6000803e3d6000fd5b505050506040513d60208110156102d357600080fd5b5051156102eb57670de0b6b3a7640000915050610454565b60004390506000846001600160a01b0316636f307dc36040518163ffffffff1660e01b815260040160206040518083038186803b15801561032b57600080fd5b505afa15801561033f573d6000803e3d6000fd5b505050506040513d602081101561035557600080fd5b5051905060006103636108d4565b9050600080826001600160a01b031663a834d32e87866040518363ffffffff1660e01b815260040180826001600160a01b03166001600160a01b031681526020019150506060604051808303818588803b1580156103c057600080fd5b505af11580156103d4573d6000803e3d6000fd5b50505050506040513d60608110156103eb57600080fd5b508051602090910151909250905060006104238261041785670de0b6b3a764000063ffffffff61098f16565b9063ffffffff6109e816565b6001600160a01b03909516600090815260208181526040808320889055600190915290209590955550919450505050505b919050565b60006104636108d4565b604080516369d1219f60e11b815230600482015290519192506001600160a01b0383169163d3a2433e91602480820192602092909190829003018186803b1580156104ad57600080fd5b505afa1580156104c1573d6000803e3d6000fd5b505050506040513d60208110156104d757600080fd5b505115610520576040805162461bcd60e51b815260206004820152601260248201527120b63932b0b23c9030b1ba34bb30ba32b21760711b604482015290519081900360640190fd5b600254610561906001600160a01b037f000000000000000000000000000000000000000000000000000000000000000016903390309063ffffffff610a2a16565b6002546105a0906001600160a01b037f00000000000000000000000000000000000000000000000000000000000000001690839063ffffffff610a8a16565b806001600160a01b0316633629c8de6040518163ffffffff1660e01b8152600401600060405180830381600087803b1580156105db57600080fd5b505af11580156105ef573d6000803e3d6000fd5b506106309250506001600160a01b037f000000000000000000000000000000000000000000000000000000000000000016905082600063ffffffff610a8a16565b50565b7f000000000000000000000000000000000000000000000000000000000000000081565b60025481565b600181565b7f000000000000000000000000000000000000000000000000000000000000000081565b6000816001600160a01b0316639af4ee7e6040518163ffffffff1660e01b815260040160206040518083038186803b1580156106c157600080fd5b505afa1580156106d5573d6000803e3d6000fd5b505050506040513d60208110156106eb57600080fd5b5051156106fa57506000610454565b60006107046108d4565b90506000816001600160a01b0316634a6238d46040518163ffffffff1660e01b815260040160206040518083038186803b15801561074157600080fd5b505afa158015610755573d6000803e3d6000fd5b505050506040513d602081101561076b57600080fd5b5051949350505050565b600080826001600160a01b0316639af4ee7e6040518163ffffffff1660e01b815260040160206040518083038186803b1580156107b157600080fd5b505afa1580156107c5573d6000803e3d6000fd5b505050506040513d60208110156107db57600080fd5b5051156107f45750670de0b6b3a7640000905043610884565b6000836001600160a01b0316636f307dc36040518163ffffffff1660e01b815260040160206040518083038186803b15801561082f57600080fd5b505afa158015610843573d6000803e3d6000fd5b505050506040513d602081101561085957600080fd5b50516001600160a01b0316600090815260208181526040808320546001909252909120549093509150505b915091565b60006108cb83836040518060400160405280601e81526020017f536166654d6174683a207375627472616374696f6e206f766572666c6f770000815250610ba2565b90505b92915050565b604080516347f3bf4360e11b815260206004820181905260126024830152716e6573742e76332e6f66666572507269636560701b604483015291516000926001600160a01b037f00000000000000000000000000000000000000000000000000000000000000001692638fe77e869260648083019392829003018186803b15801561095e57600080fd5b505afa158015610972573d6000803e3d6000fd5b505050506040513d602081101561098857600080fd5b5051905090565b60008261099e575060006108ce565b828202828482816109ab57fe5b04146108cb5760405162461bcd60e51b8152600401808060200182810382526021815260200180610eb96021913960400191505060405180910390fd5b60006108cb83836040518060400160405280601a81526020017f536166654d6174683a206469766973696f6e206279207a65726f000000000000815250610c39565b604080516001600160a01b0380861660248301528416604482015260648082018490528251808303909101815260849091019091526020810180516001600160e01b03166323b872dd60e01b179052610a84908590610c9e565b50505050565b801580610b10575060408051636eb1769f60e11b81523060048201526001600160a01b03848116602483015291519185169163dd62ed3e91604480820192602092909190829003018186803b158015610ae257600080fd5b505afa158015610af6573d6000803e3d6000fd5b505050506040513d6020811015610b0c57600080fd5b5051155b610b4b5760405162461bcd60e51b8152600401808060200182810382526036815260200180610f046036913960400191505060405180910390fd5b604080516001600160a01b038416602482015260448082018490528251808303909101815260649091019091526020810180516001600160e01b031663095ea7b360e01b179052610b9d908490610c9e565b505050565b60008184841115610c315760405162461bcd60e51b81526004018080602001828103825283818151815260200191508051906020019080838360005b83811015610bf6578181015183820152602001610bde565b50505050905090810190601f168015610c235780820380516001836020036101000a031916815260200191505b509250505060405180910390fd5b505050900390565b60008183610c885760405162461bcd60e51b8152602060048201818152835160248401528351909283926044909101919085019080838360008315610bf6578181015183820152602001610bde565b506000838581610c9457fe5b0495945050505050565b610cb0826001600160a01b0316610e56565b610d01576040805162461bcd60e51b815260206004820152601f60248201527f5361666545524332303a2063616c6c20746f206e6f6e2d636f6e747261637400604482015290519081900360640190fd5b60006060836001600160a01b0316836040518082805190602001908083835b60208310610d3f5780518252601f199092019160209182019101610d20565b6001836020036101000a0380198251168184511680821785525050505050509050019150506000604051808303816000865af19150503d8060008114610da1576040519150601f19603f3d011682016040523d82523d6000602084013e610da6565b606091505b509150915081610dfd576040805162461bcd60e51b815260206004820181905260248201527f5361666545524332303a206c6f772d6c6576656c2063616c6c206661696c6564604482015290519081900360640190fd5b805115610a8457808060200190516020811015610e1957600080fd5b5051610a845760405162461bcd60e51b815260040180806020018281038252602a815260200180610eda602a913960400191505060405180910390fd5b6000813f7fc5d2460186f7233c927e7db2dcc703c0e500b653ca82273b7bfad8045d85a470818114801590610e8a57508115155b94935050505056fe4e6f20656e6f7567682062616c616e636520746f20706179206f7261636c652070726963652e536166654d6174683a206d756c7469706c69636174696f6e206f766572666c6f775361666545524332303a204552433230206f7065726174696f6e20646964206e6f7420737563636565645361666545524332303a20617070726f76652066726f6d206e6f6e2d7a65726f20746f206e6f6e2d7a65726f20616c6c6f77616e6365a26469706673582212202fdf3b6328baa2335c9556002bb85f04ff771918703795a01440762b23f6acda64736f6c63430006090033",
  "immutableReferences": {
    "5209": [
      {
        "length": 32,
        "start": 1636
      },
      {
        "length": 32,
        "start": 2332
      }
    ],
    "5211": [
      {
        "length": 32,
        "start": 1329
      },
      {
        "length": 32,
        "start": 1394
      },
      {
        "length": 32,
        "start": 1536
      },
      {
        "length": 32,
        "start": 1589
      }
    ]
  },
  "source": "// SPDX-License-Identifier: UNLICENSED\npragma solidity ^0.6.9;\n\nimport \"../tokenization/PToken.sol\";\nimport \"../tokenization/PErc20.sol\";\nimport \"./PriceOracle.sol\";\nimport \"@openzeppelin/contracts/token/ERC20/SafeERC20.sol\";\nimport \"@openzeppelin/contracts/token/ERC20/IERC20.sol\";\nimport \"@openzeppelin/contracts/math/SafeMath.sol\";\n\ncontract NestPriceOracle is PriceOracle {\n    using SafeMath for uint256;\n    using SafeERC20 for IERC20;\n\n    mapping(address => uint256) prices;\n    mapping(address => uint256) lastUpdateBlocks;\n    Nest3VoteFactory public immutable voteFactory;\n    address public immutable nestToken;\n    uint256 public DESTRUCTION_AMOUNT = 0 ether; // from nest oracle\n\n\n    constructor (address _voteFactory, address _nestToken) public {\n        voteFactory = Nest3VoteFactory(address(_voteFactory));\n        nestToken = _nestToken;\n    }\n\n    function updateAndGetUnderlyingPrice(PToken pToken) external payable override returns (uint256) {\n        uint256 priceCost = getPriceCost(pToken);\n        require(msg.value >= priceCost, \"No enough balance to pay oracle price.\");\n\n        if (msg.value > priceCost) {\n            msg.sender.transfer(msg.value.sub(priceCost));\n        }\n\n        if (pToken.isNativeToken()) {\n            return 1e18;\n        }\n\n        uint256 currentBlock = block.number;\n        address underlyingToken = address(PErc20(address(pToken)).underlying());\n\n        Nest3OfferPrice _offerPrice = getNestOfferPrice();\n        (uint256 ethAmount, uint256 tokenAmount,) = _offerPrice.updateAndCheckPriceNow{value: priceCost}(underlyingToken);\n        uint256 ethForToken = ethAmount.mul(1e18).div(tokenAmount);\n        prices[underlyingToken] = ethForToken;\n        lastUpdateBlocks[underlyingToken] = currentBlock;\n\n        return ethForToken;\n    }\n\n    function getPriceCost(PToken pToken) public view override returns (uint256) {\n        // No need to call oracle to get ETH price\n        if (pToken.isNativeToken()) return 0;\n        Nest3OfferPrice _offerPrice = getNestOfferPrice();\n        uint256 priceCost = _offerPrice.checkPriceCost();\n        return priceCost;\n    }\n\n    function getUnderlyingPrice(PToken pToken) public view override returns (uint256, uint256) {\n        if (pToken.isNativeToken()) {\n            return (1e18, block.number);\n        }\n        address underlyingToken = address(PErc20(address(pToken)).underlying());\n        return (prices[underlyingToken], lastUpdateBlocks[underlyingToken]);\n    }\n\n    function activation() public {\n        Nest3OfferPrice _offerPrice = getNestOfferPrice();\n        require(!_offerPrice.checkUseNestPrice(address(this)), \"Already activated.\");\n        IERC20(nestToken).safeTransferFrom(msg.sender, address(this), DESTRUCTION_AMOUNT);\n        IERC20(nestToken).safeApprove(address(_offerPrice), DESTRUCTION_AMOUNT);\n        _offerPrice.activation();\n        IERC20(nestToken).safeApprove(address(_offerPrice), 0);\n    }\n\n    function getNestOfferPrice() internal view returns (Nest3OfferPrice) {\n        return Nest3OfferPrice(address(voteFactory.checkAddress(\"nest.v3.offerPrice\")));\n    }\n\n    receive() external payable {}\n}\n\n\ninterface Nest3VoteFactory {\n    function checkAddress(string calldata name) external view returns (address contractAddress);\n}\n\n// Price contract\ninterface Nest3OfferPrice {\n    // Activate the price checking function\n    function activation() external;\n    // Update and check the latest price\n    function updateAndCheckPriceNow(address tokenAddress) external payable returns(uint256 ethAmount, uint256 erc20Amount, uint256 blockNum);\n    // Check call price fee\n    function checkPriceCost() external view returns (uint256);\n    // Check whether the price-checking functions can be called\n    function checkUseNestPrice(address target) external view returns (bool);\n}",
  "sourcePath": "/Users/ashton/repo/blockchain/eth/smartcontracts/PoolX/contracts/oracle/NestPriceOracle.sol",
  "compiler": {
    "name": "solc",
    "version": "0.6.9+commit.3e3065ac.Emscripten.clang"
  },
  "schemaVersion": "3.2.0",
  "updatedAt": "2021-01-11T14:08:11.843Z",
  "networkType": "ethereum",
  "devdoc": {
    "methods": {}
  },
  "userdoc": {
    "methods": {}
  }
}