{
  "contractName": "NestPriceOracle",
  "abi": [
    {
      "inputs": [
        {
          "internalType": "address",
          "name": "voteFactory",
          "type": "address"
        }
      ],
      "stateMutability": "nonpayable",
      "type": "constructor"
    },
    {
      "inputs": [],
      "name": "isPriceOracle",
      "outputs": [
        {
          "internalType": "bool",
          "name": "",
          "type": "bool"
        }
      ],
      "stateMutability": "view",
      "type": "function"
    },
    {
      "stateMutability": "payable",
      "type": "receive"
    },
    {
      "inputs": [
        {
          "internalType": "contract PToken",
          "name": "pToken",
          "type": "address"
        }
      ],
      "name": "updateAndGetUnderlyingPrice",
      "outputs": [
        {
          "internalType": "uint256",
          "name": "",
          "type": "uint256"
        }
      ],
      "stateMutability": "payable",
      "type": "function"
    },
    {
      "inputs": [
        {
          "internalType": "contract PToken",
          "name": "pToken",
          "type": "address"
        }
      ],
      "name": "getPriceCost",
      "outputs": [
        {
          "internalType": "uint256",
          "name": "",
          "type": "uint256"
        }
      ],
      "stateMutability": "view",
      "type": "function"
    },
    {
      "inputs": [
        {
          "internalType": "contract PToken",
          "name": "pToken",
          "type": "address"
        }
      ],
      "name": "getUnderlyingPrice",
      "outputs": [
        {
          "internalType": "uint256",
          "name": "",
          "type": "uint256"
        },
        {
          "internalType": "uint256",
          "name": "",
          "type": "uint256"
        }
      ],
      "stateMutability": "view",
      "type": "function"
    },
    {
      "inputs": [
        {
          "internalType": "address",
          "name": "nestAddress",
          "type": "address"
        },
        {
          "internalType": "uint256",
          "name": "nestAmount",
          "type": "uint256"
        }
      ],
      "name": "activation",
      "outputs": [],
      "stateMutability": "nonpayable",
      "type": "function"
    }
  ],
  "bytecode": "0x608060405234801561001057600080fd5b50604051610cd2380380610cd28339818101604052602081101561003357600080fd5b5051600280546001600160a01b0319166001600160a01b03909216919091179055610c6f806100636000396000f3fe60806040526004361061004e5760003560e01c8063220302dc1461008757806325f773d2146100bf57806366331bba146100fa578063ea67db2214610123578063fc57d4df1461015657610082565b366100825760405132903480156108fc02916000818181858888f1935050505015801561007f573d6000803e3d6000fd5b50005b600080fd5b6100ad6004803603602081101561009d57600080fd5b50356001600160a01b03166101a2565b60408051918252519081900360200190f35b3480156100cb57600080fd5b506100f8600480360360408110156100e257600080fd5b506001600160a01b038135169060200135610403565b005b34801561010657600080fd5b5061010f610481565b604080519115158252519081900360200190f35b34801561012f57600080fd5b506100ad6004803603602081101561014657600080fd5b50356001600160a01b0316610486565b34801561016257600080fd5b506101896004803603602081101561017957600080fd5b50356001600160a01b0316610589565b6040805192835260208301919091528051918290030190f35b60008060006101b084610589565b909250905043670de0b6b3a76400008314806101cb57508181145b156101db578293505050506103fe565b6000856001600160a01b0316636f307dc36040518163ffffffff1660e01b815260040160206040518083038186803b15801561021657600080fd5b505afa15801561022a573d6000803e3d6000fd5b505050506040513d602081101561024057600080fd5b50519050600061024f87610486565b9050803410156102905760405162461bcd60e51b8152600401808060200182810382526026815260200180610b936026913960400191505060405180910390fd5b600061029a61069d565b9050600080826001600160a01b031663a834d32e85876040518363ffffffff1660e01b815260040180826001600160a01b03166001600160a01b031681526020019150506060604051808303818588803b1580156102f757600080fd5b505af115801561030b573d6000803e3d6000fd5b50505050506040513d606081101561032257600080fd5b5080516020918201516040805163313ce56760e01b815290519295509093506000926001600160a01b0389169263313ce567926004808201939291829003018186803b15801561037157600080fd5b505afa158015610385573d6000803e3d6000fd5b505050506040513d602081101561039b57600080fd5b505160ff169050600a81900a60006103c9846103bd878563ffffffff61073a16565b9063ffffffff61079c16565b6001600160a01b039098166000908152602081815260408083208b905560019091529020989098555094985050505050505050505b919050565b600061040d61069d565b90506104296001600160a01b038416828463ffffffff6107de16565b806001600160a01b0316633629c8de6040518163ffffffff1660e01b8152600401600060405180830381600087803b15801561046457600080fd5b505af1158015610478573d6000803e3d6000fd5b50505050505050565b600181565b600080826001600160a01b0316636f307dc36040518163ffffffff1660e01b815260040160206040518083038186803b1580156104c257600080fd5b505afa1580156104d6573d6000803e3d6000fd5b505050506040513d60208110156104ec57600080fd5b5051905060006104fa61069d565b90506000816001600160a01b0316635714e83e846040518263ffffffff1660e01b815260040180826001600160a01b03166001600160a01b0316815260200191505060206040518083038186803b15801561055457600080fd5b505afa158015610568573d6000803e3d6000fd5b505050506040513d602081101561057e57600080fd5b505195945050505050565b600080826001600160a01b031663913e60986040518163ffffffff1660e01b815260040160206040518083038186803b1580156105c557600080fd5b505afa1580156105d9573d6000803e3d6000fd5b505050506040513d60208110156105ef57600080fd5b5051156106085750670de0b6b3a7640000905043610698565b6000836001600160a01b0316636f307dc36040518163ffffffff1660e01b815260040160206040518083038186803b15801561064357600080fd5b505afa158015610657573d6000803e3d6000fd5b505050506040513d602081101561066d57600080fd5b50516001600160a01b0316600090815260208181526040808320546001909252909120549093509150505b915091565b600254604080516347f3bf4360e11b815260206004820181905260126024830152716e6573742e76332e6f66666572507269636560701b604483015291516000936001600160a01b031692638fe77e869260648082019391829003018186803b15801561070957600080fd5b505afa15801561071d573d6000803e3d6000fd5b505050506040513d602081101561073357600080fd5b5051905090565b60008261074957506000610796565b8282028284828161075657fe5b04146107935760405162461bcd60e51b8152600401808060200182810382526021815260200180610bb96021913960400191505060405180910390fd5b90505b92915050565b600061079383836040518060400160405280601a81526020017f536166654d6174683a206469766973696f6e206279207a65726f0000000000008152506108f6565b801580610864575060408051636eb1769f60e11b81523060048201526001600160a01b03848116602483015291519185169163dd62ed3e91604480820192602092909190829003018186803b15801561083657600080fd5b505afa15801561084a573d6000803e3d6000fd5b505050506040513d602081101561086057600080fd5b5051155b61089f5760405162461bcd60e51b8152600401808060200182810382526036815260200180610c046036913960400191505060405180910390fd5b604080516001600160a01b038416602482015260448082018490528251808303909101815260649091019091526020810180516001600160e01b031663095ea7b360e01b1790526108f1908490610998565b505050565b600081836109825760405162461bcd60e51b81526004018080602001828103825283818151815260200191508051906020019080838360005b8381101561094757818101518382015260200161092f565b50505050905090810190601f1680156109745780820380516001836020036101000a031916815260200191505b509250505060405180910390fd5b50600083858161098e57fe5b0495945050505050565b6109aa826001600160a01b0316610b56565b6109fb576040805162461bcd60e51b815260206004820152601f60248201527f5361666545524332303a2063616c6c20746f206e6f6e2d636f6e747261637400604482015290519081900360640190fd5b60006060836001600160a01b0316836040518082805190602001908083835b60208310610a395780518252601f199092019160209182019101610a1a565b6001836020036101000a0380198251168184511680821785525050505050509050019150506000604051808303816000865af19150503d8060008114610a9b576040519150601f19603f3d011682016040523d82523d6000602084013e610aa0565b606091505b509150915081610af7576040805162461bcd60e51b815260206004820181905260248201527f5361666545524332303a206c6f772d6c6576656c2063616c6c206661696c6564604482015290519081900360640190fd5b805115610b5057808060200190516020811015610b1357600080fd5b5051610b505760405162461bcd60e51b815260040180806020018281038252602a815260200180610bda602a913960400191505060405180910390fd5b50505050565b6000813f7fc5d2460186f7233c927e7db2dcc703c0e500b653ca82273b7bfad8045d85a470818114801590610b8a57508115155b94935050505056fe4e6f20656e6f7567682062616c616e636520746f20706179206f7261636c652070726963652e536166654d6174683a206d756c7469706c69636174696f6e206f766572666c6f775361666545524332303a204552433230206f7065726174696f6e20646964206e6f7420737563636565645361666545524332303a20617070726f76652066726f6d206e6f6e2d7a65726f20746f206e6f6e2d7a65726f20616c6c6f77616e6365a2646970667358221220dc510a502148fe7c4ea75b03dcb0bfc835c93c390d19642a9c5e8116160db92a64736f6c63430006090033",
  "immutableReferences": {},
  "source": "// SPDX-License-Identifier: UNLICENSED\npragma solidity ^0.6.9;\n\nimport \"../tokenization/PToken.sol\";\nimport \"../tokenization/PErc20.sol\";\nimport \"../tokenization/IERC20Metadata.sol\";\nimport \"./PriceOracle.sol\";\nimport \"@openzeppelin/contracts/token/ERC20/SafeERC20.sol\";\nimport \"@openzeppelin/contracts/token/ERC20/IERC20.sol\";\nimport \"@openzeppelin/contracts/math/SafeMath.sol\";\n\ncontract NestPriceOracle is PriceOracle {\n    using SafeMath for uint256;\n    using SafeERC20 for IERC20;\n\n    mapping(address => uint256) prices;\n    mapping(address => uint256) lastUpdateBlocks;\n    Nest3VoteFactory _voteFactory;\n\n    constructor (address voteFactory) public {\n        _voteFactory = Nest3VoteFactory(address(voteFactory));\n    }\n\n    function updateAndGetUnderlyingPrice(PToken pToken) external payable override returns (uint256) {\n        (uint256 tokenPrice, uint256 priceUpdateBlock) = getUnderlyingPrice(pToken);\n        uint256 currentBlock = block.number;\n        // TODO: 退款\n        if (tokenPrice == 1e18 || currentBlock == priceUpdateBlock) {\n            return tokenPrice;\n        }\n\n        address underlyingToken = address(PErc20(address(pToken)).underlying());\n        uint256 priceCost = getPriceCost(pToken);\n\n        require(msg.value >= priceCost, \"No enough balance to pay oracle price.\");\n\n        Nest3OfferPrice _offerPrice = getNestOfferPrice();\n        (uint256 ethAmount, uint256 tokenAmount,) = _offerPrice.updateAndCheckPriceNow{value: priceCost}(underlyingToken);\n        uint256 tokenDecimal = IERC20Metadata(underlyingToken).decimals();\n        uint256 oneToken = 10 ** tokenDecimal;\n        uint256 ethForToken = ethAmount.mul(oneToken).div(tokenAmount);\n        prices[underlyingToken] = ethForToken;\n        lastUpdateBlocks[underlyingToken] = currentBlock;\n\n        return ethForToken;\n    }\n\n    function getPriceCost(PToken pToken) public view override returns (uint256) {\n        address underlyingToken = address(PErc20(address(pToken)).underlying());\n        Nest3OfferPrice _offerPrice = getNestOfferPrice();\n        uint256 priceCost = _offerPrice.checkPriceCostSingle(underlyingToken);\n        return priceCost;\n    }\n\n    function getUnderlyingPrice(PToken pToken) public view override returns (uint256, uint256) {\n        if (pToken.isForETH()) {\n            return (1e18, block.number);\n        }\n        address underlyingToken = address(PErc20(address(pToken)).underlying());\n        return (prices[underlyingToken], lastUpdateBlocks[underlyingToken]);\n    }\n\n\n    function activation(address nestAddress, uint256 nestAmount) public {\n        Nest3OfferPrice _offerPrice = getNestOfferPrice();\n        // 向价格合约授权 Nest，暂定数量为10万\n        IERC20(nestAddress).safeApprove(address(_offerPrice), nestAmount);\n        // 激活\n        _offerPrice.activation();\n    }\n\n    receive() external payable {\n        tx.origin.transfer(msg.value);\n    }\n\n    function getNestOfferPrice() internal view returns (Nest3OfferPrice) {\n        return Nest3OfferPrice(address(_voteFactory.checkAddress(\"nest.v3.offerPrice\")));\n    }\n}\n\n\ninterface Nest3VoteFactory {\n    // 查询地址\n    function checkAddress(string calldata name) external view returns (address contractAddress);\n}\n\n// 价格合约\ninterface Nest3OfferPrice {\n    // 激活使用价格合约\n    function activation() external;\n    // 更新并查看最新价格\n    function updateAndCheckPriceNow(address tokenAddress) external payable returns(uint256 ethAmount, uint256 erc20Amount, uint256 blockNum);\n    // 查看价格eth单条数据费用\n    function checkPriceCostSingle(address tokenAddress) external view returns(uint256);\n}",
  "sourcePath": "/Users/ashton/repo/blockchain/eth/smartcontracts/PoolX/contracts/oracle/NestPriceOracle.sol",
  "compiler": {
    "name": "solc",
    "version": "0.6.9+commit.3e3065ac.Emscripten.clang"
  },
  "schemaVersion": "3.2.0",
  "updatedAt": "2020-08-24T09:06:21.620Z",
  "devdoc": {
    "methods": {}
  },
  "userdoc": {
    "methods": {}
  }
}