{
  "contractName": "NestPriceOracle",
  "abi": [
    {
      "inputs": [
        {
          "internalType": "address",
          "name": "voteFactory",
          "type": "address"
        }
      ],
      "stateMutability": "nonpayable",
      "type": "constructor"
    },
    {
      "inputs": [],
      "name": "isPriceOracle",
      "outputs": [
        {
          "internalType": "bool",
          "name": "",
          "type": "bool"
        }
      ],
      "stateMutability": "view",
      "type": "function"
    },
    {
      "stateMutability": "payable",
      "type": "receive"
    },
    {
      "inputs": [
        {
          "internalType": "contract PToken",
          "name": "pToken",
          "type": "address"
        }
      ],
      "name": "UpdateAndGetUnderlyingPrice",
      "outputs": [
        {
          "internalType": "uint256",
          "name": "",
          "type": "uint256"
        }
      ],
      "stateMutability": "payable",
      "type": "function"
    },
    {
      "inputs": [
        {
          "internalType": "contract PToken",
          "name": "pToken",
          "type": "address"
        }
      ],
      "name": "getPriceCost",
      "outputs": [
        {
          "internalType": "uint256",
          "name": "",
          "type": "uint256"
        }
      ],
      "stateMutability": "nonpayable",
      "type": "function"
    },
    {
      "inputs": [
        {
          "internalType": "contract PToken",
          "name": "pToken",
          "type": "address"
        }
      ],
      "name": "getUnderlyingPrice",
      "outputs": [
        {
          "internalType": "uint256",
          "name": "",
          "type": "uint256"
        },
        {
          "internalType": "uint256",
          "name": "",
          "type": "uint256"
        }
      ],
      "stateMutability": "view",
      "type": "function"
    },
    {
      "inputs": [
        {
          "internalType": "address",
          "name": "nestAddress",
          "type": "address"
        },
        {
          "internalType": "uint256",
          "name": "nestAmount",
          "type": "uint256"
        }
      ],
      "name": "activation",
      "outputs": [],
      "stateMutability": "nonpayable",
      "type": "function"
    }
  ],
  "bytecode": "0x608060405234801561001057600080fd5b50604051610c28380380610c288339818101604052602081101561003357600080fd5b5051600280546001600160a01b0319166001600160a01b03909216919091179055610bc5806100636000396000f3fe60806040526004361061004e5760003560e01c806325f773d21461005a57806366331bba1461009557806369ed5a62146100be578063ea67db22146100f6578063fc57d4df1461012957610055565b3661005557005b600080fd5b34801561006657600080fd5b506100936004803603604081101561007d57600080fd5b506001600160a01b038135169060200135610175565b005b3480156100a157600080fd5b506100aa6101f3565b604080519115158252519081900360200190f35b6100e4600480360360208110156100d457600080fd5b50356001600160a01b03166101f8565b60408051918252519081900360200190f35b34801561010257600080fd5b506100e46004803603602081101561011957600080fd5b50356001600160a01b0316610458565b34801561013557600080fd5b5061015c6004803603602081101561014c57600080fd5b50356001600160a01b031661055b565b6040805192835260208301919091528051918290030190f35b600061017f61066f565b905061019b6001600160a01b038416828463ffffffff61070c16565b806001600160a01b0316633629c8de6040518163ffffffff1660e01b8152600401600060405180830381600087803b1580156101d657600080fd5b505af11580156101ea573d6000803e3d6000fd5b50505050505050565b600181565b60008060006102068461055b565b909250905043670de0b6b3a764000083148061022157508181145b1561023157829350505050610453565b6000856001600160a01b0316636f307dc36040518163ffffffff1660e01b815260040160206040518083038186803b15801561026c57600080fd5b505afa158015610280573d6000803e3d6000fd5b505050506040513d602081101561029657600080fd5b5051905060006102a587610458565b9050803410156102e65760405162461bcd60e51b8152600401808060200182810382526026815260200180610b0a6026913960400191505060405180910390fd5b60006102f061066f565b9050600080826001600160a01b031663a834d32e85876040518363ffffffff1660e01b815260040180826001600160a01b03166001600160a01b031681526020019150506060604051808303818588803b15801561034d57600080fd5b505af1158015610361573d6000803e3d6000fd5b50505050506040513d606081101561037857600080fd5b5080516020918201516040805163313ce56760e01b815290519295509093506000926001600160a01b0389169263313ce567926004808201939291829003018186803b1580156103c757600080fd5b505afa1580156103db573d6000803e3d6000fd5b505050506040513d60208110156103f157600080fd5b505160ff169050600061040a838363ffffffff61082416565b9050600061041e858363ffffffff61082416565b6001600160a01b039098166000908152602081815260408083208b905560019091529020989098555094985050505050505050505b919050565b600080826001600160a01b0316636f307dc36040518163ffffffff1660e01b815260040160206040518083038186803b15801561049457600080fd5b505afa1580156104a8573d6000803e3d6000fd5b505050506040513d60208110156104be57600080fd5b5051905060006104cc61066f565b90506000816001600160a01b0316635714e83e846040518263ffffffff1660e01b815260040180826001600160a01b03166001600160a01b0316815260200191505060206040518083038186803b15801561052657600080fd5b505afa15801561053a573d6000803e3d6000fd5b505050506040513d602081101561055057600080fd5b505195945050505050565b600080826001600160a01b031663913e60986040518163ffffffff1660e01b815260040160206040518083038186803b15801561059757600080fd5b505afa1580156105ab573d6000803e3d6000fd5b505050506040513d60208110156105c157600080fd5b5051156105da5750670de0b6b3a764000090504361066a565b6000836001600160a01b0316636f307dc36040518163ffffffff1660e01b815260040160206040518083038186803b15801561061557600080fd5b505afa158015610629573d6000803e3d6000fd5b505050506040513d602081101561063f57600080fd5b50516001600160a01b0316600090815260208181526040808320546001909252909120549093509150505b915091565b600254604080516347f3bf4360e11b815260206004820181905260126024830152716e6573742e76332e6f66666572507269636560701b604483015291516000936001600160a01b031692638fe77e869260648082019391829003018186803b1580156106db57600080fd5b505afa1580156106ef573d6000803e3d6000fd5b505050506040513d602081101561070557600080fd5b5051905090565b801580610792575060408051636eb1769f60e11b81523060048201526001600160a01b03848116602483015291519185169163dd62ed3e91604480820192602092909190829003018186803b15801561076457600080fd5b505afa158015610778573d6000803e3d6000fd5b505050506040513d602081101561078e57600080fd5b5051155b6107cd5760405162461bcd60e51b8152600401808060200182810382526036815260200180610b5a6036913960400191505060405180910390fd5b604080516001600160a01b038416602482015260448082018490528251808303909101815260649091019091526020810180516001600160e01b031663095ea7b360e01b17905261081f90849061086d565b505050565b600061086683836040518060400160405280601a81526020017f536166654d6174683a206469766973696f6e206279207a65726f000000000000815250610a2b565b9392505050565b61087f826001600160a01b0316610acd565b6108d0576040805162461bcd60e51b815260206004820152601f60248201527f5361666545524332303a2063616c6c20746f206e6f6e2d636f6e747261637400604482015290519081900360640190fd5b60006060836001600160a01b0316836040518082805190602001908083835b6020831061090e5780518252601f1990920191602091820191016108ef565b6001836020036101000a0380198251168184511680821785525050505050509050019150506000604051808303816000865af19150503d8060008114610970576040519150601f19603f3d011682016040523d82523d6000602084013e610975565b606091505b5091509150816109cc576040805162461bcd60e51b815260206004820181905260248201527f5361666545524332303a206c6f772d6c6576656c2063616c6c206661696c6564604482015290519081900360640190fd5b805115610a25578080602001905160208110156109e857600080fd5b5051610a255760405162461bcd60e51b815260040180806020018281038252602a815260200180610b30602a913960400191505060405180910390fd5b50505050565b60008183610ab75760405162461bcd60e51b81526004018080602001828103825283818151815260200191508051906020019080838360005b83811015610a7c578181015183820152602001610a64565b50505050905090810190601f168015610aa95780820380516001836020036101000a031916815260200191505b509250505060405180910390fd5b506000838581610ac357fe5b0495945050505050565b6000813f7fc5d2460186f7233c927e7db2dcc703c0e500b653ca82273b7bfad8045d85a470818114801590610b0157508115155b94935050505056fe4e6f20656e6f7567682062616c616e636520746f20706179206f7261636c652070726963652e5361666545524332303a204552433230206f7065726174696f6e20646964206e6f7420737563636565645361666545524332303a20617070726f76652066726f6d206e6f6e2d7a65726f20746f206e6f6e2d7a65726f20616c6c6f77616e6365a2646970667358221220e58add15811feba032db34b2511b05d59ae969674eadfbdb36d965570795ecfa64736f6c63430006090033",
  "immutableReferences": {},
  "source": "// SPDX-License-Identifier: UNLICENSED\npragma solidity ^0.6.9;\n\nimport \"../tokenization/PToken.sol\";\nimport \"../tokenization/PErc20.sol\";\nimport \"../tokenization/IERC20Metadata.sol\";\nimport \"./PriceOracle.sol\";\nimport \"@openzeppelin/contracts/token/ERC20/SafeERC20.sol\";\nimport \"@openzeppelin/contracts/token/ERC20/IERC20.sol\";\nimport \"@openzeppelin/contracts/math/SafeMath.sol\";\n\ncontract NestPriceOracle is PriceOracle {\n    using SafeMath for uint256;\n    using SafeERC20 for IERC20;\n\n    mapping(address => uint256) prices;\n    mapping(address => uint256) lastUpdateBlocks;\n    Nest3VoteFactory _voteFactory;\n\n    constructor (address voteFactory) public {\n        _voteFactory = Nest3VoteFactory(address(voteFactory));\n    }\n\n    function UpdateAndGetUnderlyingPrice(PToken pToken) external payable override returns (uint256) {\n        (uint256 tokenPrice, uint256 priceUpdateBlock) = getUnderlyingPrice(pToken);\n        uint256 currentBlock = block.number;\n        // TODO: 退款\n        if (tokenPrice == 1e18 || currentBlock == priceUpdateBlock) {\n            return tokenPrice;\n        }\n\n        address underlyingToken = address(PErc20(address(pToken)).underlying());\n        uint256 priceCost = getPriceCost(pToken);\n\n        require(msg.value >= priceCost, \"No enough balance to pay oracle price.\");\n\n        Nest3OfferPrice _offerPrice = getNestOfferPrice();\n        (uint256 ethAmount, uint256 tokenAmount,) = _offerPrice.updateAndCheckPriceNow{value: priceCost}(underlyingToken);\n        uint256 tokenDecimal = IERC20Metadata(underlyingToken).decimals();\n        uint256 tokenMultiple = tokenAmount.div(tokenDecimal);\n        uint256 ethForToken = ethAmount.div(tokenMultiple);\n        prices[underlyingToken] = ethForToken;\n        lastUpdateBlocks[underlyingToken] = currentBlock;\n\n        return ethForToken;\n    }\n\n    function getPriceCost(PToken pToken) public override returns (uint256) {\n        address underlyingToken = address(PErc20(address(pToken)).underlying());\n        Nest3OfferPrice _offerPrice = getNestOfferPrice();\n        uint256 priceCost = _offerPrice.checkPriceCostSingle(underlyingToken);\n        return priceCost;\n    }\n\n    function getUnderlyingPrice(PToken pToken) public view override returns (uint256, uint256) {\n        if (pToken.isForETH()) {\n            return (1e18, block.number);\n        }\n        address underlyingToken = address(PErc20(address(pToken)).underlying());\n        return (prices[underlyingToken], lastUpdateBlocks[underlyingToken]);\n    }\n\n\n    function activation(address nestAddress, uint256 nestAmount) public {\n        Nest3OfferPrice _offerPrice = getNestOfferPrice();\n        // 向价格合约授权 Nest，暂定数量为10万\n        IERC20(nestAddress).safeApprove(address(_offerPrice), nestAmount);\n        // 激活\n        _offerPrice.activation();\n    }\n\n    receive() external payable {\n\n    }\n\n    function getNestOfferPrice() internal view returns (Nest3OfferPrice) {\n        return Nest3OfferPrice(address(_voteFactory.checkAddress(\"nest.v3.offerPrice\")));\n    }\n}\n\n\ninterface Nest3VoteFactory {\n    // 查询地址\n    function checkAddress(string calldata name) external view returns (address contractAddress);\n}\n\n// 价格合约\ninterface Nest3OfferPrice {\n    // 激活使用价格合约\n    function activation() external;\n    // 更新并查看最新价格\n    function updateAndCheckPriceNow(address tokenAddress) external payable returns(uint256 ethAmount, uint256 erc20Amount, uint256 blockNum);\n    // 查看价格eth单条数据费用\n    function checkPriceCostSingle(address tokenAddress) external view returns(uint256);\n}",
  "sourcePath": "/Users/ashton/repo/blockchain/eth/smartcontracts/PoolX/contracts/oracle/NestPriceOracle.sol",
  "compiler": {
    "name": "solc",
    "version": "0.6.9+commit.3e3065ac.Emscripten.clang"
  },
  "schemaVersion": "3.2.0",
  "updatedAt": "2020-08-13T21:54:51.629Z",
  "devdoc": {
    "methods": {}
  },
  "userdoc": {
    "methods": {}
  }
}