{
  "contractName": "PErc20",
  "abi": [
    {
      "inputs": [
        {
          "internalType": "address",
          "name": "underlying_",
          "type": "address"
        },
        {
          "internalType": "contract IRiskManager",
          "name": "riskManager_",
          "type": "address"
        },
        {
          "internalType": "contract InterestRateModel",
          "name": "interestRateModel_",
          "type": "address"
        },
        {
          "internalType": "uint256",
          "name": "initialExchangeRateMantissa_",
          "type": "uint256"
        },
        {
          "internalType": "address payable",
          "name": "admin_",
          "type": "address"
        }
      ],
      "stateMutability": "nonpayable",
      "type": "constructor"
    },
    {
      "anonymous": false,
      "inputs": [
        {
          "indexed": false,
          "internalType": "uint256",
          "name": "cashPrior",
          "type": "uint256"
        },
        {
          "indexed": false,
          "internalType": "uint256",
          "name": "interestAccumulated",
          "type": "uint256"
        },
        {
          "indexed": false,
          "internalType": "uint256",
          "name": "borrowIndex",
          "type": "uint256"
        },
        {
          "indexed": false,
          "internalType": "uint256",
          "name": "totalBorrows",
          "type": "uint256"
        }
      ],
      "name": "AccrueInterest",
      "type": "event"
    },
    {
      "anonymous": false,
      "inputs": [
        {
          "indexed": true,
          "internalType": "address",
          "name": "owner",
          "type": "address"
        },
        {
          "indexed": true,
          "internalType": "address",
          "name": "spender",
          "type": "address"
        },
        {
          "indexed": false,
          "internalType": "uint256",
          "name": "amount",
          "type": "uint256"
        }
      ],
      "name": "Approval",
      "type": "event"
    },
    {
      "anonymous": false,
      "inputs": [
        {
          "indexed": false,
          "internalType": "address",
          "name": "borrower",
          "type": "address"
        },
        {
          "indexed": false,
          "internalType": "uint256",
          "name": "borrowAmount",
          "type": "uint256"
        },
        {
          "indexed": false,
          "internalType": "uint256",
          "name": "accountBorrows",
          "type": "uint256"
        },
        {
          "indexed": false,
          "internalType": "uint256",
          "name": "totalBorrows",
          "type": "uint256"
        }
      ],
      "name": "Borrow",
      "type": "event"
    },
    {
      "anonymous": false,
      "inputs": [
        {
          "indexed": false,
          "internalType": "uint256",
          "name": "error",
          "type": "uint256"
        },
        {
          "indexed": false,
          "internalType": "uint256",
          "name": "info",
          "type": "uint256"
        },
        {
          "indexed": false,
          "internalType": "uint256",
          "name": "detail",
          "type": "uint256"
        }
      ],
      "name": "Failure",
      "type": "event"
    },
    {
      "anonymous": false,
      "inputs": [
        {
          "indexed": false,
          "internalType": "address",
          "name": "liquidator",
          "type": "address"
        },
        {
          "indexed": false,
          "internalType": "address",
          "name": "borrower",
          "type": "address"
        },
        {
          "indexed": false,
          "internalType": "uint256",
          "name": "repayAmount",
          "type": "uint256"
        },
        {
          "indexed": false,
          "internalType": "address",
          "name": "pTokenCollateral",
          "type": "address"
        },
        {
          "indexed": false,
          "internalType": "uint256",
          "name": "seizeTokens",
          "type": "uint256"
        }
      ],
      "name": "LiquidateBorrow",
      "type": "event"
    },
    {
      "anonymous": false,
      "inputs": [
        {
          "indexed": false,
          "internalType": "address",
          "name": "minter",
          "type": "address"
        },
        {
          "indexed": false,
          "internalType": "uint256",
          "name": "mintAmount",
          "type": "uint256"
        },
        {
          "indexed": false,
          "internalType": "uint256",
          "name": "mintTokens",
          "type": "uint256"
        }
      ],
      "name": "Mint",
      "type": "event"
    },
    {
      "anonymous": false,
      "inputs": [
        {
          "indexed": false,
          "internalType": "address",
          "name": "oldAdmin",
          "type": "address"
        },
        {
          "indexed": false,
          "internalType": "address",
          "name": "newAdmin",
          "type": "address"
        }
      ],
      "name": "NewAdmin",
      "type": "event"
    },
    {
      "anonymous": false,
      "inputs": [
        {
          "indexed": false,
          "internalType": "contract InterestRateModel",
          "name": "oldInterestRateModel",
          "type": "address"
        },
        {
          "indexed": false,
          "internalType": "contract InterestRateModel",
          "name": "newInterestRateModel",
          "type": "address"
        }
      ],
      "name": "NewMarketInterestRateModel",
      "type": "event"
    },
    {
      "anonymous": false,
      "inputs": [
        {
          "indexed": false,
          "internalType": "address",
          "name": "oldPendingAdmin",
          "type": "address"
        },
        {
          "indexed": false,
          "internalType": "address",
          "name": "newPendingAdmin",
          "type": "address"
        }
      ],
      "name": "NewPendingAdmin",
      "type": "event"
    },
    {
      "anonymous": false,
      "inputs": [
        {
          "indexed": false,
          "internalType": "uint256",
          "name": "oldReserveFactorMantissa",
          "type": "uint256"
        },
        {
          "indexed": false,
          "internalType": "uint256",
          "name": "newReserveFactorMantissa",
          "type": "uint256"
        }
      ],
      "name": "NewReserveFactor",
      "type": "event"
    },
    {
      "anonymous": false,
      "inputs": [
        {
          "indexed": false,
          "internalType": "contract IRiskManager",
          "name": "oldRiskManager",
          "type": "address"
        },
        {
          "indexed": false,
          "internalType": "contract IRiskManager",
          "name": "newRiskManager",
          "type": "address"
        }
      ],
      "name": "NewRiskManager",
      "type": "event"
    },
    {
      "anonymous": false,
      "inputs": [
        {
          "indexed": false,
          "internalType": "address",
          "name": "redeemer",
          "type": "address"
        },
        {
          "indexed": false,
          "internalType": "uint256",
          "name": "redeemAmount",
          "type": "uint256"
        },
        {
          "indexed": false,
          "internalType": "uint256",
          "name": "redeemTokens",
          "type": "uint256"
        }
      ],
      "name": "Redeem",
      "type": "event"
    },
    {
      "anonymous": false,
      "inputs": [
        {
          "indexed": false,
          "internalType": "address",
          "name": "payer",
          "type": "address"
        },
        {
          "indexed": false,
          "internalType": "address",
          "name": "borrower",
          "type": "address"
        },
        {
          "indexed": false,
          "internalType": "uint256",
          "name": "repayAmount",
          "type": "uint256"
        },
        {
          "indexed": false,
          "internalType": "uint256",
          "name": "accountBorrows",
          "type": "uint256"
        },
        {
          "indexed": false,
          "internalType": "uint256",
          "name": "totalBorrows",
          "type": "uint256"
        }
      ],
      "name": "RepayBorrow",
      "type": "event"
    },
    {
      "anonymous": false,
      "inputs": [
        {
          "indexed": false,
          "internalType": "address",
          "name": "benefactor",
          "type": "address"
        },
        {
          "indexed": false,
          "internalType": "uint256",
          "name": "addAmount",
          "type": "uint256"
        },
        {
          "indexed": false,
          "internalType": "uint256",
          "name": "newTotalReserves",
          "type": "uint256"
        }
      ],
      "name": "ReservesAdded",
      "type": "event"
    },
    {
      "anonymous": false,
      "inputs": [
        {
          "indexed": false,
          "internalType": "address",
          "name": "admin",
          "type": "address"
        },
        {
          "indexed": false,
          "internalType": "uint256",
          "name": "reduceAmount",
          "type": "uint256"
        },
        {
          "indexed": false,
          "internalType": "uint256",
          "name": "newTotalReserves",
          "type": "uint256"
        }
      ],
      "name": "ReservesReduced",
      "type": "event"
    },
    {
      "anonymous": false,
      "inputs": [
        {
          "indexed": true,
          "internalType": "address",
          "name": "from",
          "type": "address"
        },
        {
          "indexed": true,
          "internalType": "address",
          "name": "to",
          "type": "address"
        },
        {
          "indexed": false,
          "internalType": "uint256",
          "name": "amount",
          "type": "uint256"
        }
      ],
      "name": "Transfer",
      "type": "event"
    },
    {
      "inputs": [],
      "name": "_acceptAdmin",
      "outputs": [
        {
          "internalType": "uint256",
          "name": "",
          "type": "uint256"
        }
      ],
      "stateMutability": "nonpayable",
      "type": "function"
    },
    {
      "inputs": [
        {
          "internalType": "uint256",
          "name": "reduceAmount",
          "type": "uint256"
        }
      ],
      "name": "_reduceReserves",
      "outputs": [
        {
          "internalType": "uint256",
          "name": "",
          "type": "uint256"
        }
      ],
      "stateMutability": "nonpayable",
      "type": "function"
    },
    {
      "inputs": [
        {
          "internalType": "contract InterestRateModel",
          "name": "newInterestRateModel",
          "type": "address"
        }
      ],
      "name": "_setInterestRateModel",
      "outputs": [
        {
          "internalType": "uint256",
          "name": "",
          "type": "uint256"
        }
      ],
      "stateMutability": "nonpayable",
      "type": "function"
    },
    {
      "inputs": [
        {
          "internalType": "address payable",
          "name": "newPendingAdmin",
          "type": "address"
        }
      ],
      "name": "_setPendingAdmin",
      "outputs": [
        {
          "internalType": "uint256",
          "name": "",
          "type": "uint256"
        }
      ],
      "stateMutability": "nonpayable",
      "type": "function"
    },
    {
      "inputs": [
        {
          "internalType": "uint256",
          "name": "newReserveFactorMantissa",
          "type": "uint256"
        }
      ],
      "name": "_setReserveFactor",
      "outputs": [
        {
          "internalType": "uint256",
          "name": "",
          "type": "uint256"
        }
      ],
      "stateMutability": "nonpayable",
      "type": "function"
    },
    {
      "inputs": [
        {
          "internalType": "contract IRiskManager",
          "name": "newRiskManager",
          "type": "address"
        }
      ],
      "name": "_setRiskManager",
      "outputs": [
        {
          "internalType": "uint256",
          "name": "",
          "type": "uint256"
        }
      ],
      "stateMutability": "nonpayable",
      "type": "function"
    },
    {
      "inputs": [],
      "name": "accrualBlockNumber",
      "outputs": [
        {
          "internalType": "uint256",
          "name": "",
          "type": "uint256"
        }
      ],
      "stateMutability": "view",
      "type": "function",
      "constant": true
    },
    {
      "inputs": [],
      "name": "accrueInterest",
      "outputs": [
        {
          "internalType": "uint256",
          "name": "",
          "type": "uint256"
        }
      ],
      "stateMutability": "nonpayable",
      "type": "function"
    },
    {
      "inputs": [],
      "name": "admin",
      "outputs": [
        {
          "internalType": "address payable",
          "name": "",
          "type": "address"
        }
      ],
      "stateMutability": "view",
      "type": "function",
      "constant": true
    },
    {
      "inputs": [
        {
          "internalType": "address",
          "name": "owner",
          "type": "address"
        }
      ],
      "name": "balanceOf",
      "outputs": [
        {
          "internalType": "uint256",
          "name": "",
          "type": "uint256"
        }
      ],
      "stateMutability": "view",
      "type": "function",
      "constant": true
    },
    {
      "inputs": [
        {
          "internalType": "address",
          "name": "owner",
          "type": "address"
        }
      ],
      "name": "balanceOfUnderlying",
      "outputs": [
        {
          "internalType": "uint256",
          "name": "",
          "type": "uint256"
        }
      ],
      "stateMutability": "nonpayable",
      "type": "function"
    },
    {
      "inputs": [
        {
          "internalType": "address",
          "name": "account",
          "type": "address"
        }
      ],
      "name": "borrowBalanceCurrent",
      "outputs": [
        {
          "internalType": "uint256",
          "name": "",
          "type": "uint256"
        }
      ],
      "stateMutability": "nonpayable",
      "type": "function"
    },
    {
      "inputs": [
        {
          "internalType": "address",
          "name": "account",
          "type": "address"
        }
      ],
      "name": "borrowBalanceStored",
      "outputs": [
        {
          "internalType": "uint256",
          "name": "",
          "type": "uint256"
        }
      ],
      "stateMutability": "view",
      "type": "function",
      "constant": true
    },
    {
      "inputs": [],
      "name": "borrowIndex",
      "outputs": [
        {
          "internalType": "uint256",
          "name": "",
          "type": "uint256"
        }
      ],
      "stateMutability": "view",
      "type": "function",
      "constant": true
    },
    {
      "inputs": [],
      "name": "borrowRatePerBlock",
      "outputs": [
        {
          "internalType": "uint256",
          "name": "",
          "type": "uint256"
        }
      ],
      "stateMutability": "view",
      "type": "function",
      "constant": true
    },
    {
      "inputs": [],
      "name": "exchangeRateCurrent",
      "outputs": [
        {
          "internalType": "uint256",
          "name": "",
          "type": "uint256"
        }
      ],
      "stateMutability": "nonpayable",
      "type": "function"
    },
    {
      "inputs": [],
      "name": "exchangeRateStored",
      "outputs": [
        {
          "internalType": "uint256",
          "name": "",
          "type": "uint256"
        }
      ],
      "stateMutability": "view",
      "type": "function",
      "constant": true
    },
    {
      "inputs": [
        {
          "internalType": "address",
          "name": "account",
          "type": "address"
        }
      ],
      "name": "getAccountSnapshot",
      "outputs": [
        {
          "internalType": "uint256",
          "name": "",
          "type": "uint256"
        },
        {
          "internalType": "uint256",
          "name": "",
          "type": "uint256"
        },
        {
          "internalType": "uint256",
          "name": "",
          "type": "uint256"
        },
        {
          "internalType": "uint256",
          "name": "",
          "type": "uint256"
        }
      ],
      "stateMutability": "view",
      "type": "function",
      "constant": true
    },
    {
      "inputs": [],
      "name": "getCash",
      "outputs": [
        {
          "internalType": "uint256",
          "name": "",
          "type": "uint256"
        }
      ],
      "stateMutability": "view",
      "type": "function",
      "constant": true
    },
    {
      "inputs": [
        {
          "internalType": "contract IRiskManager",
          "name": "riskManager_",
          "type": "address"
        },
        {
          "internalType": "contract InterestRateModel",
          "name": "interestRateModel_",
          "type": "address"
        },
        {
          "internalType": "uint256",
          "name": "initialExchangeRateMantissa_",
          "type": "uint256"
        }
      ],
      "name": "initialize",
      "outputs": [],
      "stateMutability": "nonpayable",
      "type": "function"
    },
    {
      "inputs": [],
      "name": "interestRateModel",
      "outputs": [
        {
          "internalType": "contract InterestRateModel",
          "name": "",
          "type": "address"
        }
      ],
      "stateMutability": "view",
      "type": "function",
      "constant": true
    },
    {
      "inputs": [],
      "name": "isPToken",
      "outputs": [
        {
          "internalType": "bool",
          "name": "",
          "type": "bool"
        }
      ],
      "stateMutability": "view",
      "type": "function",
      "constant": true
    },
    {
      "inputs": [],
      "name": "pendingAdmin",
      "outputs": [
        {
          "internalType": "address payable",
          "name": "",
          "type": "address"
        }
      ],
      "stateMutability": "view",
      "type": "function",
      "constant": true
    },
    {
      "inputs": [],
      "name": "reserveFactorMantissa",
      "outputs": [
        {
          "internalType": "uint256",
          "name": "",
          "type": "uint256"
        }
      ],
      "stateMutability": "view",
      "type": "function",
      "constant": true
    },
    {
      "inputs": [],
      "name": "riskManager",
      "outputs": [
        {
          "internalType": "contract IRiskManager",
          "name": "",
          "type": "address"
        }
      ],
      "stateMutability": "view",
      "type": "function",
      "constant": true
    },
    {
      "inputs": [
        {
          "internalType": "address",
          "name": "liquidator",
          "type": "address"
        },
        {
          "internalType": "address",
          "name": "borrower",
          "type": "address"
        },
        {
          "internalType": "uint256",
          "name": "seizeTokens",
          "type": "uint256"
        }
      ],
      "name": "seize",
      "outputs": [
        {
          "internalType": "uint256",
          "name": "",
          "type": "uint256"
        }
      ],
      "stateMutability": "nonpayable",
      "type": "function"
    },
    {
      "inputs": [],
      "name": "supplyRatePerBlock",
      "outputs": [
        {
          "internalType": "uint256",
          "name": "",
          "type": "uint256"
        }
      ],
      "stateMutability": "view",
      "type": "function",
      "constant": true
    },
    {
      "inputs": [],
      "name": "totalBorrows",
      "outputs": [
        {
          "internalType": "uint256",
          "name": "",
          "type": "uint256"
        }
      ],
      "stateMutability": "view",
      "type": "function",
      "constant": true
    },
    {
      "inputs": [],
      "name": "totalBorrowsCurrent",
      "outputs": [
        {
          "internalType": "uint256",
          "name": "",
          "type": "uint256"
        }
      ],
      "stateMutability": "nonpayable",
      "type": "function"
    },
    {
      "inputs": [],
      "name": "totalReserves",
      "outputs": [
        {
          "internalType": "uint256",
          "name": "",
          "type": "uint256"
        }
      ],
      "stateMutability": "view",
      "type": "function",
      "constant": true
    },
    {
      "inputs": [],
      "name": "totalSupply",
      "outputs": [
        {
          "internalType": "uint256",
          "name": "",
          "type": "uint256"
        }
      ],
      "stateMutability": "view",
      "type": "function",
      "constant": true
    },
    {
      "inputs": [],
      "name": "underlying",
      "outputs": [
        {
          "internalType": "address",
          "name": "",
          "type": "address"
        }
      ],
      "stateMutability": "view",
      "type": "function",
      "constant": true
    },
    {
      "inputs": [
        {
          "internalType": "uint256",
          "name": "mintAmount",
          "type": "uint256"
        }
      ],
      "name": "mint",
      "outputs": [
        {
          "internalType": "uint256",
          "name": "",
          "type": "uint256"
        }
      ],
      "stateMutability": "nonpayable",
      "type": "function"
    },
    {
      "inputs": [
        {
          "internalType": "uint256",
          "name": "redeemTokens",
          "type": "uint256"
        }
      ],
      "name": "redeem",
      "outputs": [
        {
          "internalType": "uint256",
          "name": "",
          "type": "uint256"
        }
      ],
      "stateMutability": "payable",
      "type": "function",
      "payable": true
    },
    {
      "inputs": [
        {
          "internalType": "uint256",
          "name": "redeemAmount",
          "type": "uint256"
        }
      ],
      "name": "redeemUnderlying",
      "outputs": [
        {
          "internalType": "uint256",
          "name": "",
          "type": "uint256"
        }
      ],
      "stateMutability": "payable",
      "type": "function",
      "payable": true
    },
    {
      "inputs": [
        {
          "internalType": "uint256",
          "name": "borrowAmount",
          "type": "uint256"
        }
      ],
      "name": "borrow",
      "outputs": [
        {
          "internalType": "uint256",
          "name": "",
          "type": "uint256"
        }
      ],
      "stateMutability": "payable",
      "type": "function",
      "payable": true
    },
    {
      "inputs": [
        {
          "internalType": "uint256",
          "name": "repayAmount",
          "type": "uint256"
        }
      ],
      "name": "repayBorrow",
      "outputs": [
        {
          "internalType": "uint256",
          "name": "",
          "type": "uint256"
        }
      ],
      "stateMutability": "nonpayable",
      "type": "function"
    },
    {
      "inputs": [
        {
          "internalType": "address",
          "name": "borrower",
          "type": "address"
        },
        {
          "internalType": "uint256",
          "name": "repayAmount",
          "type": "uint256"
        }
      ],
      "name": "repayBorrowBehalf",
      "outputs": [
        {
          "internalType": "uint256",
          "name": "",
          "type": "uint256"
        }
      ],
      "stateMutability": "nonpayable",
      "type": "function"
    },
    {
      "inputs": [
        {
          "internalType": "address",
          "name": "borrower",
          "type": "address"
        },
        {
          "internalType": "uint256",
          "name": "repayAmount",
          "type": "uint256"
        },
        {
          "internalType": "contract IPToken",
          "name": "pTokenCollateral",
          "type": "address"
        }
      ],
      "name": "liquidateBorrow",
      "outputs": [
        {
          "internalType": "uint256",
          "name": "",
          "type": "uint256"
        }
      ],
      "stateMutability": "payable",
      "type": "function",
      "payable": true
    },
    {
      "inputs": [
        {
          "internalType": "uint256",
          "name": "addAmount",
          "type": "uint256"
        }
      ],
      "name": "_addReserves",
      "outputs": [
        {
          "internalType": "uint256",
          "name": "",
          "type": "uint256"
        }
      ],
      "stateMutability": "nonpayable",
      "type": "function"
    },
    {
      "inputs": [],
      "name": "isNativeToken",
      "outputs": [
        {
          "internalType": "bool",
          "name": "",
          "type": "bool"
        }
      ],
      "stateMutability": "pure",
      "type": "function",
      "constant": true
    }
  ],
  "bytecode": "0x60806040526702c68af0bb1400006005553480156200001d57600080fd5b5060405162004d0738038062004d07833981810160405260a08110156200004357600080fd5b5080516020808301516040840151606085015160809095015160008054610100600160a81b031916336101000217905593949193909262000093908590859085906200014f811b6200099517901c565b600d80546001600160a01b0319166001600160a01b038781169190911791829055604080516318160ddd60e01b8152905192909116916318160ddd91600480820192602092909190829003018186803b158015620000f057600080fd5b505afa15801562000105573d6000803e3d6000fd5b505050506040513d60208110156200011c57600080fd5b5050600080546001600160a01b0390921661010002610100600160a81b031990921691909117905550620006a692505050565b60005461010090046001600160a01b031633146200019f5760405162461bcd60e51b815260040180806020018281038252602481526020018062004c6e6024913960400191505060405180910390fd5b600654158015620001b05750600754155b620001ed5760405162461bcd60e51b815260040180806020018281038252602381526020018062004c926023913960400191505060405180910390fd5b600481905580620002305760405162461bcd60e51b815260040180806020018281038252603081526020018062004cb56030913960400191505060405180910390fd5b600062000246846001600160e01b036200032616565b905080156200029c576040805162461bcd60e51b815260206004820152601a60248201527f73657474696e67207269736b4d616e61676572206661696c6564000000000000604482015290519081900360640190fd5b620002af6001600160e01b036200048e16565b600655670de0b6b3a7640000600755620002d2836001600160e01b036200049216565b90508015620003135760405162461bcd60e51b815260040180806020018281038252602281526020018062004ce56022913960400191505060405180910390fd5b50506000805460ff191660011790555050565b6000805461010090046001600160a01b031633146200035e57620003566001603f6001600160e01b036200063616565b905062000489565b600254604080516354cb73dd60e11b815290516001600160a01b039283169285169163a996e7ba916004808301926020929190829003018186803b158015620003a657600080fd5b505afa158015620003bb573d6000803e3d6000fd5b505050506040513d6020811015620003d257600080fd5b505162000426576040805162461bcd60e51b815260206004820152601c60248201527f6d61726b6572206d6574686f642072657475726e65642066616c736500000000604482015290519081900360640190fd5b600280546001600160a01b0319166001600160a01b03858116918217909255604080519284168352602083019190915280517f91249b936729aec99d65d412fab6e6488ab0eb306623fa400ad5397449ff362b9281900390910190a160005b9150505b919050565b4390565b60008054819061010090046001600160a01b03163314620004cd57620004c4600160426001600160e01b036200063616565b91505062000489565b620004e06001600160e01b036200048e16565b600654146200050057620004c4600a60416001600160e01b036200063616565b600360009054906101000a90046001600160a01b03169050826001600160a01b0316632191f92a6040518163ffffffff1660e01b815260040160206040518083038186803b1580156200055257600080fd5b505afa15801562000567573d6000803e3d6000fd5b505050506040513d60208110156200057e57600080fd5b5051620005d2576040805162461bcd60e51b815260206004820152601c60248201527f6d61726b6572206d6574686f642072657475726e65642066616c736500000000604482015290519081900360640190fd5b600380546001600160a01b0319166001600160a01b03858116918217909255604080519284168352602083019190915280517fedffc32e068c7c95dfd4bdfd5c4d939a084d6b11c4199eac8436ed234d72f9269281900390910190a1600062000485565b60007f45b96fe442630264581b197e84bbada861235052c5a1aadfff9ea4e40a969aa08360108111156200066657fe5b8360508111156200067357fe5b604080519283526020830191909152600082820152519081900360600190a18260108111156200069f57fe5b9392505050565b6145b880620006b66000396000f3fe6080604052600436106102465760003560e01c8063852a12e311610139578063bd6d894d116100b6578063f2b3abbd1161007a578063f2b3abbd14610752578063f3fdb15a14610785578063f5e3c4621461079a578063f851a440146107d0578063f8f9da28146107e5578063fca7820b146107fa57610246565b8063bd6d894d14610695578063c37f68e2146106aa578063c5ebeaec14610703578063db006a7514610720578063e9c714f21461073d57610246565b8063a6afed95116100fd578063a6afed95146105e0578063aa5af0fd146105f5578063ae9d70b01461060a578063b2a02ff11461061f578063b71d1a0c1461066257610246565b8063852a12e31461053c5780638f840ddd1461055957806395dd91931461056e5780639af4ee7e146105a1578063a0712d68146105b657610246565b80633b1d21a2116101c7578063601a0bf11161018b578063601a0bf1146104a05780636c540baf146104ca5780636f307dc3146104df57806370a08231146104f457806373acee981461052757610246565b80633b1d21a21461040e5780633e94101014610423578063478426631461044d57806347bd3718146104625780635a890c0e1461047757610246565b806318160ddd1161020e57806318160ddd14610347578063182df0f51461035c5780632608f8181461037157806326782247146103aa5780633af9e669146103db57610246565b80630dd16bed1461024b5780630e75270214610290578063173b9904146102ba5780631794bb3c146102cf57806317bfdfbc14610314575b600080fd5b34801561025757600080fd5b5061027e6004803603602081101561026e57600080fd5b50356001600160a01b0316610824565b60408051918252519081900360200190f35b34801561029c57600080fd5b5061027e600480360360208110156102b357600080fd5b503561097b565b3480156102c657600080fd5b5061027e61098f565b3480156102db57600080fd5b50610312600480360360608110156102f257600080fd5b506001600160a01b03813581169160208101359091169060400135610995565b005b34801561032057600080fd5b5061027e6004803603602081101561033757600080fd5b50356001600160a01b0316610b41565b34801561035357600080fd5b5061027e610c01565b34801561036857600080fd5b5061027e610c07565b34801561037d57600080fd5b5061027e6004803603604081101561039457600080fd5b506001600160a01b038135169060200135610c6a565b3480156103b657600080fd5b506103bf610c82565b604080516001600160a01b039092168252519081900360200190f35b3480156103e757600080fd5b5061027e600480360360208110156103fe57600080fd5b50356001600160a01b0316610c91565b34801561041a57600080fd5b5061027e610d47565b34801561042f57600080fd5b5061027e6004803603602081101561044657600080fd5b5035610d56565b34801561045957600080fd5b506103bf610d61565b34801561046e57600080fd5b5061027e610d70565b34801561048357600080fd5b5061048c610d76565b604080519115158252519081900360200190f35b3480156104ac57600080fd5b5061027e600480360360208110156104c357600080fd5b5035610d7b565b3480156104d657600080fd5b5061027e610e16565b3480156104eb57600080fd5b506103bf610e1c565b34801561050057600080fd5b5061027e6004803603602081101561051757600080fd5b50356001600160a01b0316610e2b565b34801561053357600080fd5b5061027e610e46565b61027e6004803603602081101561055257600080fd5b5035610efc565b34801561056557600080fd5b5061027e610f0f565b34801561057a57600080fd5b5061027e6004803603602081101561059157600080fd5b50356001600160a01b0316610f15565b3480156105ad57600080fd5b5061048c610f72565b3480156105c257600080fd5b5061027e600480360360208110156105d957600080fd5b5035610f77565b3480156105ec57600080fd5b5061027e610f83565b34801561060157600080fd5b5061027e6112db565b34801561061657600080fd5b5061027e6112e1565b34801561062b57600080fd5b5061027e6004803603606081101561064257600080fd5b506001600160a01b03813581169160208101359091169060400135611380565b34801561066e57600080fd5b5061027e6004803603602081101561068557600080fd5b50356001600160a01b03166113f1565b3480156106a157600080fd5b5061027e61147b565b3480156106b657600080fd5b506106dd600480360360208110156106cd57600080fd5b50356001600160a01b0316611537565b604080519485526020850193909352838301919091526060830152519081900360800190f35b61027e6004803603602081101561071957600080fd5b50356115cc565b61027e6004803603602081101561073657600080fd5b50356115df565b34801561074957600080fd5b5061027e6115f2565b34801561075e57600080fd5b5061027e6004803603602081101561077557600080fd5b50356001600160a01b03166116f5565b34801561079157600080fd5b506103bf61172f565b61027e600480360360608110156107b057600080fd5b506001600160a01b0381358116916020810135916040909101351661173e565b3480156107dc57600080fd5b506103bf611761565b3480156107f157600080fd5b5061027e611775565b34801561080657600080fd5b5061027e6004803603602081101561081d57600080fd5b50356117d9565b6000805461010090046001600160a01b0316331461084f576108486001603f611857565b9050610976565b600254604080516354cb73dd60e11b815290516001600160a01b039283169285169163a996e7ba916004808301926020929190829003018186803b15801561089657600080fd5b505afa1580156108aa573d6000803e3d6000fd5b505050506040513d60208110156108c057600080fd5b5051610913576040805162461bcd60e51b815260206004820152601c60248201527f6d61726b6572206d6574686f642072657475726e65642066616c736500000000604482015290519081900360640190fd5b600280546001600160a01b0319166001600160a01b03858116918217909255604080519284168352602083019190915280517f91249b936729aec99d65d412fab6e6488ab0eb306623fa400ad5397449ff362b9281900390910190a160005b9150505b919050565b600080610987836118bd565b509392505050565b60055481565b60005461010090046001600160a01b031633146109e35760405162461bcd60e51b81526004018080602001828103825260248152602001806142e76024913960400191505060405180910390fd5b6006541580156109f35750600754155b610a2e5760405162461bcd60e51b815260040180806020018281038252602381526020018061430b6023913960400191505060405180910390fd5b600481905580610a6f5760405162461bcd60e51b81526004018080602001828103825260308152602001806143526030913960400191505060405180910390fd5b6000610a7a84610824565b90508015610acf576040805162461bcd60e51b815260206004820152601a60248201527f73657474696e67207269736b4d616e61676572206661696c6564000000000000604482015290519081900360640190fd5b610ad7611966565b600655670de0b6b3a7640000600755610aef8361196a565b90508015610b2e5760405162461bcd60e51b81526004018080602001828103825260228152602001806143826022913960400191505060405180910390fd5b50506000805460ff191660011790555050565b6000805460ff16610b86576040805162461bcd60e51b815260206004820152600a6024820152691c994b595b9d195c995960b21b604482015290519081900360640190fd5b6000805460ff19168155610b98610f83565b14610be3576040805162461bcd60e51b81526020600482015260166024820152751858d8dc9d59481a5b9d195c995cdd0819985a5b195960521b604482015290519081900360640190fd5b610bec82610f15565b90505b6000805460ff19166001179055919050565b600a5481565b6000806000610c14611add565b90925090506000826003811115610c2757fe5b14610c635760405162461bcd60e51b81526004018080602001828103825260358152602001806144a46035913960400191505060405180910390fd5b9150505b90565b600080610c778484611b8c565b509150505b92915050565b6001546001600160a01b031681565b6000610c9b614226565b6040518060200160405280610cae61147b565b90526001600160a01b0384166000908152600b6020526040812054919250908190610cda908490611c37565b90925090506000826003811115610ced57fe5b14610d3f576040805162461bcd60e51b815260206004820152601f60248201527f62616c616e636520636f756c64206e6f742062652063616c63756c6174656400604482015290519081900360640190fd5b949350505050565b6000610d51611c8b565b905090565b6000610c7c82611d0b565b6002546001600160a01b031681565b60085481565b600181565b6000805460ff16610dc0576040805162461bcd60e51b815260206004820152600a6024820152691c994b595b9d195c995960b21b604482015290519081900360640190fd5b6000805460ff19168155610dd2610f83565b90508015610df857610df0816010811115610de957fe5b6030611857565b915050610bef565b610e0183611d9f565b9150506000805460ff19166001179055919050565b60065481565b600d546001600160a01b031681565b6001600160a01b03166000908152600b602052604090205490565b6000805460ff16610e8b576040805162461bcd60e51b815260206004820152600a6024820152691c994b595b9d195c995960b21b604482015290519081900360640190fd5b6000805460ff19168155610e9d610f83565b14610ee8576040805162461bcd60e51b81526020600482015260166024820152751858d8dc9d59481a5b9d195c995cdd0819985a5b195960521b604482015290519081900360640190fd5b506008546000805460ff1916600117905590565b6000610f06611ed0565b610c7c82612039565b60095481565b6000806000610f23846120ba565b90925090506000826003811115610f3657fe5b146109725760405162461bcd60e51b81526004018080602001828103825260378152602001806144026037913960400191505060405180910390fd5b600090565b6000806109878361216e565b600080610f8e611966565b60065490915080821415610fa757600092505050610c67565b6000610fb1611c8b565b600854600954600754600354604080516315f2405360e01b815260048101879052602481018690526044810185905290519596509394929391926000926001600160a01b03909216916315f24053916064808301926020929190829003018186803b15801561101f57600080fd5b505afa158015611033573d6000803e3d6000fd5b505050506040513d602081101561104957600080fd5b5051905065048c273950008111156110a8576040805162461bcd60e51b815260206004820152601c60248201527f626f72726f772072617465206973206162737572646c79206869676800000000604482015290519081900360640190fd5b6000806110b589896121ef565b909250905060008260038111156110c857fe5b1461111a576040805162461bcd60e51b815260206004820152601f60248201527f636f756c64206e6f742063616c63756c61746520626c6f636b2064656c746100604482015290519081900360640190fd5b611122614226565b60008060008061114060405180602001604052808a81525087612212565b9097509450600087600381111561115357fe5b14611185576111706009600689600381111561116b57fe5b61227a565b9e505050505050505050505050505050610c67565b61118f858c611c37565b909750935060008760038111156111a257fe5b146111ba576111706009600189600381111561116b57fe5b6111c4848c6122e0565b909750925060008760038111156111d757fe5b146111ef576111706009600489600381111561116b57fe5b61120a6040518060200160405280600554815250858c612306565b9097509150600087600381111561121d57fe5b14611235576111706009600589600381111561116b57fe5b611240858a8b612306565b9097509050600087600381111561125357fe5b1461126b576111706009600389600381111561116b57fe5b60068e9055600781905560088390556009829055604080518d8152602081018690528082018390526060810185905290517f4dec04e750ca11537cabcd8a9eab06494de08da3735bc8871cd41250e190bc049181900360800190a160009e50505050505050505050505050505090565b60075481565b6003546000906001600160a01b031663b81688166112fd611c8b565b6008546009546005546040518563ffffffff1660e01b81526004018085815260200184815260200183815260200182815260200194505050505060206040518083038186803b15801561134f57600080fd5b505afa158015611363573d6000803e3d6000fd5b505050506040513d602081101561137957600080fd5b5051905090565b6000805460ff166113c5576040805162461bcd60e51b815260206004820152600a6024820152691c994b595b9d195c995960b21b604482015290519081900360640190fd5b6000805460ff191690556113db33858585612362565b90506000805460ff191660011790559392505050565b6000805461010090046001600160a01b031633146114155761084860016045611857565b600180546001600160a01b038481166001600160a01b0319831681179093556040805191909216808252602082019390935281517fca4f2f25d0898edd99413412fb94012f9e54ec8142f9b093e7720646a95b16a9929181900390910190a16000610972565b6000805460ff166114c0576040805162461bcd60e51b815260206004820152600a6024820152691c994b595b9d195c995960b21b604482015290519081900360640190fd5b6000805460ff191681556114d2610f83565b1461151d576040805162461bcd60e51b81526020600482015260166024820152751858d8dc9d59481a5b9d195c995cdd0819985a5b195960521b604482015290519081900360640190fd5b611525610c07565b90506000805460ff1916600117905590565b6001600160a01b0381166000908152600b6020526040812054819081908190818080611562896120ba565b93509050600081600381111561157457fe5b146115925760095b9750600096508695508594506115c59350505050565b61159a611add565b9250905060008160038111156115ac57fe5b146115b857600961157c565b5060009650919450925090505b9193509193565b60006115d6611ed0565b610c7c82612558565b60006115e9611ed0565b610c7c826125d7565b6001546000906001600160a01b03163314158061160d575033155b156116255761161e60016000611857565b9050610c67565b60008054600180546001600160a01b03818116610100818102610100600160a81b0319871617968790556001600160a01b031990931690935560408051948390048216808652929095041660208401528351909391927ff9ffabca9c8276e99321725bcb43fb076a6c66a54b7f21c4e8146d8519b417dc92908290030190a1600154604080516001600160a01b038085168252909216602083015280517fca4f2f25d0898edd99413412fb94012f9e54ec8142f9b093e7720646a95b16a99281900390910190a160009250505090565b600080611700610f83565b905080156117265761171e81601081111561171757fe5b6040611857565b915050610976565b6109728361196a565b6003546001600160a01b031681565b6000611748611ed0565b6000611755858585612651565b509150505b9392505050565b60005461010090046001600160a01b031681565b6003546000906001600160a01b03166315f24053611791611c8b565b6008546009546040518463ffffffff1660e01b815260040180848152602001838152602001828152602001935050505060206040518083038186803b15801561134f57600080fd5b6000805460ff1661181e576040805162461bcd60e51b815260206004820152600a6024820152691c994b595b9d195c995960b21b604482015290519081900360640190fd5b6000805460ff19168155611830610f83565b9050801561184e57610df081601081111561184757fe5b6046611857565b610e0183612783565b60007f45b96fe442630264581b197e84bbada861235052c5a1aadfff9ea4e40a969aa083601081111561188657fe5b83605081111561189257fe5b604080519283526020830191909152600082820152519081900360600190a182601081111561175a57fe5b60008054819060ff16611904576040805162461bcd60e51b815260206004820152600a6024820152691c994b595b9d195c995960b21b604482015290519081900360640190fd5b6000805460ff19168155611916610f83565b905080156119415761193481601081111561192d57fe5b6036611857565b9250600091506119529050565b61194c333386612829565b92509250505b6000805460ff191660011790559092909150565b4390565b60008054819061010090046001600160a01b031633146119905761171e60016042611857565b611998611966565b600654146119ac5761171e600a6041611857565b600360009054906101000a90046001600160a01b03169050826001600160a01b0316632191f92a6040518163ffffffff1660e01b815260040160206040518083038186803b1580156119fd57600080fd5b505afa158015611a11573d6000803e3d6000fd5b505050506040513d6020811015611a2757600080fd5b5051611a7a576040805162461bcd60e51b815260206004820152601c60248201527f6d61726b6572206d6574686f642072657475726e65642066616c736500000000604482015290519081900360640190fd5b600380546001600160a01b0319166001600160a01b03858116918217909255604080519284168352602083019190915280517fedffc32e068c7c95dfd4bdfd5c4d939a084d6b11c4199eac8436ed234d72f9269281900390910190a16000610972565b600a54600090819080611af857505060045460009150611b88565b6000611b02611c8b565b90506000611b0e614226565b6000611b1f84600854600954612b77565b935090506000816003811115611b3157fe5b14611b4657955060009450611b889350505050565b611b508386612bb5565b925090506000816003811115611b6257fe5b14611b7757955060009450611b889350505050565b5051600095509350611b8892505050565b9091565b60008054819060ff16611bd3576040805162461bcd60e51b815260206004820152600a6024820152691c994b595b9d195c995960b21b604482015290519081900360640190fd5b6000805460ff19168155611be5610f83565b90508015611c1057611c03816010811115611bfc57fe5b6035611857565b925060009150611c219050565b611c1b338686612829565b92509250505b6000805460ff1916600117905590939092509050565b6000806000611c44614226565b611c4e8686612212565b90925090506000826003811115611c6157fe5b14611c725750915060009050611c84565b6000611c7d82612c66565b9350935050505b9250929050565b600d54604080516370a0823160e01b815230600482015290516000926001600160a01b03169182916370a0823191602480820192602092909190829003018186803b158015611cd957600080fd5b505afa158015611ced573d6000803e3d6000fd5b505050506040513d6020811015611d0357600080fd5b505191505090565b6000805460ff16611d50576040805162461bcd60e51b815260206004820152600a6024820152691c994b595b9d195c995960b21b604482015290519081900360640190fd5b6000805460ff19168155611d62610f83565b90508015611d8057610df0816010811115611d7957fe5b604e611857565b611d8983612c75565b509150506000805460ff19166001179055919050565b60008054819061010090046001600160a01b03163314611dc55761171e60016031611857565b611dcd611966565b60065414611de15761171e600a6033611857565b82611dea611c8b565b1015611dfc5761171e600e6032611857565b600954831115611e125761171e60026034611857565b5060095482810390811115611e585760405162461bcd60e51b815260040180806020018281038252602481526020018061455f6024913960400191505060405180910390fd5b6009819055600054611e789061010090046001600160a01b031684612d5d565b600054604080516101009092046001600160a01b0316825260208201859052818101839052517f3bad0c59cf2f06e7314077049f48a93578cd16f5ef92329f1dab1420a99c177e916060908290030190a16000610972565b60025460408051637533ed9160e11b815233600482015290516000926001600160a01b03169163ea67db22916024808301926020929190829003018186803b158015611f1b57600080fd5b505afa158015611f2f573d6000803e3d6000fd5b505050506040513d6020811015611f4557600080fd5b5051905034811115611f885760405162461bcd60e51b815260040180806020018281038252602481526020018061432e6024913960400191505060405180910390fd5b80341115611fd0576000611f9c34836121ef565b60405190925033915082156108fc029083906000818181858888f19350505050158015611fcd573d6000803e3d6000fd5b50505b60025460408051632174661560e01b815233600482015290516001600160a01b03909216916321746615918491602480830192600092919082900301818588803b15801561201d57600080fd5b505af1158015612031573d6000803e3d6000fd5b505050505050565b6000805460ff1661207e576040805162461bcd60e51b815260206004820152600a6024820152691c994b595b9d195c995960b21b604482015290519081900360640190fd5b6000805460ff19168155612090610f83565b905080156120ae57610df08160108111156120a757fe5b6027611857565b610e0133600085612d7f565b6001600160a01b0381166000908152600c60205260408120805482918291829182916120f157506000945084935061216992505050565b61210181600001546007546131cc565b9094509250600084600381111561211457fe5b14612129575091935060009250612169915050565b61213783826001015461320b565b9094509150600084600381111561214a57fe5b1461215f575091935060009250612169915050565b5060009450925050505b915091565b60008054819060ff166121b5576040805162461bcd60e51b815260206004820152600a6024820152691c994b595b9d195c995960b21b604482015290519081900360640190fd5b6000805460ff191681556121c7610f83565b905080156121e5576119348160108111156121de57fe5b601e611857565b61194c3385613236565b600080838311612206575060009050818303611c84565b50600390506000611c84565b600061221c614226565b60008061222d8660000151866131cc565b9092509050600082600381111561224057fe5b1461225f57506040805160208101909152600081529092509050611c84565b60408051602081019091529081526000969095509350505050565b60007f45b96fe442630264581b197e84bbada861235052c5a1aadfff9ea4e40a969aa08460108111156122a957fe5b8460508111156122b557fe5b604080519283526020830191909152818101859052519081900360600190a1836010811115610d3f57fe5b6000808383018481106122f857600092509050611c84565b506002915060009050611c84565b6000806000612313614226565b61231d8787612212565b9092509050600082600381111561233057fe5b14612341575091506000905061235a565b61235361234d82612c66565b866122e0565b9350935050505b935093915050565b6002546040805163d02f735160e01b81523060048201526001600160a01b038781166024830152868116604483015285811660648301526084820185905291516000938493169163d02f73519160a480830192602092919082900301818787803b1580156123cf57600080fd5b505af11580156123e3573d6000803e3d6000fd5b505050506040513d60208110156123f957600080fd5b505190508015612418576124106003601b8361227a565b915050610d3f565b846001600160a01b0316846001600160a01b0316141561243e576124106006601c611857565b6001600160a01b0384166000908152600b60205260408120548190819061246590876121ef565b9093509150600083600381111561247857fe5b1461249b576124906009601a85600381111561116b57fe5b945050505050610d3f565b6001600160a01b0388166000908152600b60205260409020546124be90876122e0565b909350905060008360038111156124d157fe5b146124e9576124906009601985600381111561116b57fe5b6001600160a01b038088166000818152600b60209081526040808320879055938c168083529184902085905583518a8152935191937fddf252ad1be2c89b69c2b068fc378daa952ba7f163c4a11628f55a4df523b3ef929081900390910190a350600098975050505050505050565b6000805460ff1661259d576040805162461bcd60e51b815260206004820152600a6024820152691c994b595b9d195c995960b21b604482015290519081900360640190fd5b6000805460ff191681556125af610f83565b905080156125cd57610df08160108111156125c657fe5b6008611857565b610e013384613618565b6000805460ff1661261c576040805162461bcd60e51b815260206004820152600a6024820152691c994b595b9d195c995960b21b604482015290519081900360640190fd5b6000805460ff1916815561262e610f83565b9050801561264557610df08160108111156120a757fe5b610e0133846000612d7f565b60008054819060ff16612698576040805162461bcd60e51b815260206004820152600a6024820152691c994b595b9d195c995960b21b604482015290519081900360640190fd5b6000805460ff191681556126aa610f83565b905080156126d5576126c88160108111156126c157fe5b600f611857565b92506000915061276c9050565b836001600160a01b031663a6afed956040518163ffffffff1660e01b8152600401602060405180830381600087803b15801561271057600080fd5b505af1158015612724573d6000803e3d6000fd5b505050506040513d602081101561273a57600080fd5b50519050801561275a576126c881601081111561275357fe5b6010611857565b612766338787876138ac565b92509250505b6000805460ff191660011790559094909350915050565b6000805461010090046001600160a01b031633146127a75761084860016047611857565b6127af611966565b600654146127c357610848600a6048611857565b670de0b6b3a76400008211156127df5761084860026049611857565b6005805490839055604080518281526020810185905281517faaa68312e2ea9d50e16af5068410ab56e1a1fd06037b1a35664812c30f821460929181900390910190a16000610972565b60025460408051631200453160e11b81523060048201526001600160a01b0386811660248301528581166044830152606482018590529151600093849384939116916324008a629160848082019260209290919082900301818787803b15801561289257600080fd5b505af11580156128a6573d6000803e3d6000fd5b505050506040513d60208110156128bc57600080fd5b5051905080156128e0576128d3600360388361227a565b92506000915061235a9050565b6128e8611966565b600654146128fc576128d3600a6039611857565b612904614239565b6001600160a01b0386166000908152600c6020526040902060010154606082015261292e866120ba565b608083018190526020830182600381111561294557fe5b600381111561295057fe5b905250600090508160200151600381111561296757fe5b1461299157612983600960378360200151600381111561116b57fe5b93506000925061235a915050565b6000198514156129aa57608081015160408201526129b2565b604081018590525b6129c0878260400151613d9e565b60e0820181905260808201516129d5916121ef565b60a08301819052602083018260038111156129ec57fe5b60038111156129f757fe5b9052506000905081602001516003811115612a0e57fe5b14612a4a5760405162461bcd60e51b815260040180806020018281038252603a815260200180614439603a913960400191505060405180910390fd5b612a5a6008548260e001516121ef565b60c0830181905260208301826003811115612a7157fe5b6003811115612a7c57fe5b9052506000905081602001516003811115612a9357fe5b14612acf5760405162461bcd60e51b81526004018080602001828103825260318152602001806144736031913960400191505060405180910390fd5b60a080820180516001600160a01b03808a166000818152600c602090815260409182902094855560075460019095019490945560c0870151600881905560e088015195518251948f16855294840192909252828101949094526060820192909252608081019190915290517f1a2a22cb034d26d1854bdc6666a5b91fe25efbbb5dcad3b0355478d6f5c362a1929181900390910190a160e00151600097909650945050505050565b600080600080612b8787876122e0565b90925090506000826003811115612b9a57fe5b14612bab575091506000905061235a565b61235381866121ef565b6000612bbf614226565b600080612bd486670de0b6b3a76400006131cc565b90925090506000826003811115612be757fe5b14612c0657506040805160208101909152600081529092509050611c84565b600080612c13838861320b565b90925090506000826003811115612c2657fe5b14612c495781604051806020016040528060008152509550955050505050611c84565b604080516020810190915290815260009890975095505050505050565b51670de0b6b3a7640000900490565b600080600080612c83611966565b60065414612ca257612c97600a604f611857565b935091506121699050565b612cac3386613d9e565b905080600954019150600954821015612d0c576040805162461bcd60e51b815260206004820181905260248201527f61646420726573657276657320756e6578706563746564206f766572666c6f77604482015290519081900360640190fd5b6009829055604080513381526020810183905280820184905290517fa91e67c5ea634cd43a12c5a482724b03de01e85ca68702a53d0c2f45cb7c1dc59181900360600190a160009350915050915091565b600d546001600160a01b0316612d7a81848463ffffffff613f0d16565b505050565b6000821580612d8c575081155b612dc75760405162461bcd60e51b815260040180806020018281038252603481526020018061452b6034913960400191505060405180910390fd5b612dcf61427f565b612dd7611add565b6040830181905260208301826003811115612dee57fe5b6003811115612df957fe5b9052506000905081602001516003811115612e1057fe5b14612e3457612e2c6009602b8360200151600381111561116b57fe5b91505061175a565b8315612eb5576060810184905260408051602081018252908201518152612e5b9085611c37565b6080830181905260208301826003811115612e7257fe5b6003811115612e7d57fe5b9052506000905081602001516003811115612e9457fe5b14612eb057612e2c600960298360200151600381111561116b57fe5b612f2e565b612ed18360405180602001604052808460400151815250613f5f565b6060830181905260208301826003811115612ee857fe5b6003811115612ef357fe5b9052506000905081602001516003811115612f0a57fe5b14612f2657612e2c6009602a8360200151600381111561116b57fe5b608081018390525b60025460608201516040805163eabe7d9160e01b81523060048201526001600160a01b03898116602483015260448201939093529051600093929092169163eabe7d919160648082019260209290919082900301818787803b158015612f9357600080fd5b505af1158015612fa7573d6000803e3d6000fd5b505050506040513d6020811015612fbd57600080fd5b505190508015612fdd57612fd4600360288361227a565b9250505061175a565b612fe5611966565b60065414612ff957612fd4600a602c611857565b613009600a5483606001516121ef565b60a084018190526020840182600381111561302057fe5b600381111561302b57fe5b905250600090508260200151600381111561304257fe5b1461305e57612fd46009602e8460200151600381111561116b57fe5b6001600160a01b0386166000908152600b6020526040902054606083015161308691906121ef565b60c084018190526020840182600381111561309d57fe5b60038111156130a857fe5b90525060009050826020015160038111156130bf57fe5b146130db57612fd46009602d8460200151600381111561116b57fe5b81608001516130e8611c8b565b10156130fa57612fd4600e602f611857565b613108868360800151612d5d565b60a0820151600a5560c08201516001600160a01b0387166000818152600b60209081526040918290209390935560608501518151908152905130937fddf252ad1be2c89b69c2b068fc378daa952ba7f163c4a11628f55a4df523b3ef928290030190a36080820151606080840151604080516001600160a01b038b168152602081019490945283810191909152517fe5b754fb1abb7f01b499791d0b820ae3b6af3424ac1c59768edb53f4ec31a9299281900390910190a160009695505050505050565b600080836131df57506000905080611c84565b838302838582816131ec57fe5b041461320057506002915060009050611c84565b600092509050611c84565b6000808261321f5750600190506000611c84565b600083858161322a57fe5b04915091509250929050565b60025460408051634ef4c3e160e01b81523060048201526001600160a01b03858116602483015260448201859052915160009384938493911691634ef4c3e19160648082019260209290919082900301818787803b15801561329757600080fd5b505af11580156132ab573d6000803e3d6000fd5b505050506040513d60208110156132c157600080fd5b5051905080156132e5576132d86003601f8361227a565b925060009150611c849050565b6132ed611966565b60065414613301576132d8600a6022611857565b61330961427f565b613311611add565b604083018190526020830182600381111561332857fe5b600381111561333357fe5b905250600090508160200151600381111561334a57fe5b1461337457613366600960218360200151600381111561116b57fe5b935060009250611c84915050565b61337e8686613d9e565b60c082018190526040805160208101825290830151815261339f9190613f5f565b60608301819052602083018260038111156133b657fe5b60038111156133c157fe5b90525060009050816020015160038111156133d857fe5b1461342a576040805162461bcd60e51b815260206004820181905260248201527f4d494e545f45584348414e47455f43414c43554c4154494f4e5f4641494c4544604482015290519081900360640190fd5b61343a600a5482606001516122e0565b608083018190526020830182600381111561345157fe5b600381111561345c57fe5b905250600090508160200151600381111561347357fe5b146134af5760405162461bcd60e51b81526004018080602001828103825260288152602001806144d96028913960400191505060405180910390fd5b6001600160a01b0386166000908152600b602052604090205460608201516134d791906122e0565b60a08301819052602083018260038111156134ee57fe5b60038111156134f957fe5b905250600090508160200151600381111561351057fe5b1461354c5760405162461bcd60e51b815260040180806020018281038252602b8152602001806143d7602b913960400191505060405180910390fd5b6080810151600a5560a08101516001600160a01b0387166000818152600b60209081526040918290209390935560c084015160608086015183519485529484019190915282820193909352517f4c209b5fc8ad50758f13e2e1088ba56a560dff690a1c6fef26394f4c03821c4f929181900390910190a1606081015160408051918252516001600160a01b0388169130917fddf252ad1be2c89b69c2b068fc378daa952ba7f163c4a11628f55a4df523b3ef9181900360200190a360c001516000969095509350505050565b6002546040805163368f515360e21b81523060048201526001600160a01b0385811660248301526044820185905291516000938493169163da3d454c91606480830192602092919082900301818787803b15801561367557600080fd5b505af1158015613689573d6000803e3d6000fd5b505050506040513d602081101561369f57600080fd5b5051905080156136be576136b66003600e8361227a565b915050610c7c565b6136c6611966565b600654146136d9576136b6600a80611857565b826136e2611c8b565b10156136f4576136b6600e6009611857565b6136fc6142bd565b613705856120ba565b602083018190528282600381111561371957fe5b600381111561372457fe5b905250600090508151600381111561373857fe5b1461375d57613754600960078360000151600381111561116b57fe5b92505050610c7c565b61376b8160200151856122e0565b604083018190528282600381111561377f57fe5b600381111561378a57fe5b905250600090508151600381111561379e57fe5b146137ba576137546009600c8360000151600381111561116b57fe5b6137c6600854856122e0565b60608301819052828260038111156137da57fe5b60038111156137e557fe5b90525060009050815160038111156137f957fe5b14613815576137546009600b8360000151600381111561116b57fe5b61381f8585612d5d565b604080820180516001600160a01b0388166000818152600c602090815290859020928355600754600190930192909255606080860151600881905593518551928352928201899052818501929092529081019190915290517f13ed6866d4e1ee6da46f845c46d7e54120883d75c5ea9a2dacc1c4ca8984ab809181900360800190a1600095945050505050565b60025460408051632fe3f38f60e11b81523060048201526001600160a01b0384811660248301528781166044830152868116606483015260848201869052915160009384938493911691635fc7e71e9160a48082019260209290919082900301818787803b15801561391d57600080fd5b505af1158015613931573d6000803e3d6000fd5b505050506040513d602081101561394757600080fd5b50519050801561396b5761395e600360128361227a565b925060009150613d959050565b613973611966565b600654146139875761395e600a6016611857565b61398f611966565b846001600160a01b0316636c540baf6040518163ffffffff1660e01b815260040160206040518083038186803b1580156139c857600080fd5b505afa1580156139dc573d6000803e3d6000fd5b505050506040513d60208110156139f257600080fd5b505114613a055761395e600a6011611857565b866001600160a01b0316866001600160a01b03161415613a2b5761395e60066017611857565b84613a3c5761395e60076015611857565b600019851415613a525761395e60076014611857565b600080613a60898989612829565b90925090508115613a9057613a81826010811115613a7a57fe5b6018611857565b945060009350613d9592505050565b6002546040805163c488847b60e01b81523060048201526001600160a01b038981166024830152604482018590528251600094859492169263c488847b926064808301939192829003018186803b158015613aea57600080fd5b505afa158015613afe573d6000803e3d6000fd5b505050506040513d6040811015613b1457600080fd5b50805160209091015190925090508115613b5f5760405162461bcd60e51b81526004018080602001828103825260338152602001806143a46033913960400191505060405180910390fd5b80886001600160a01b03166370a082318c6040518263ffffffff1660e01b815260040180826001600160a01b03166001600160a01b0316815260200191505060206040518083038186803b158015613bb657600080fd5b505afa158015613bca573d6000803e3d6000fd5b505050506040513d6020811015613be057600080fd5b50511015613c35576040805162461bcd60e51b815260206004820152601860248201527f4c49515549444154455f5345495a455f544f4f5f4d5543480000000000000000604482015290519081900360640190fd5b60006001600160a01b038916301415613c5b57613c54308d8d85612362565b9050613ce5565b6040805163b2a02ff160e01b81526001600160a01b038e811660048301528d81166024830152604482018590529151918b169163b2a02ff1916064808201926020929091908290030181600087803b158015613cb657600080fd5b505af1158015613cca573d6000803e3d6000fd5b505050506040513d6020811015613ce057600080fd5b505190505b8015613d2f576040805162461bcd60e51b81526020600482015260146024820152731d1bdad95b881cd95a5e9d5c994819985a5b195960621b604482015290519081900360640190fd5b604080516001600160a01b03808f168252808e1660208301528183018790528b1660608201526080810184905290517f298637f684da70674f26509b10f07ec2fbc77a335ab1e7d6215a4b2484d8bb529181900360a00190a16000975092955050505050505b94509492505050565b600d54604080516370a0823160e01b815230600482015290516000926001600160a01b031691839183916370a08231916024808301926020929190829003018186803b158015613ded57600080fd5b505afa158015613e01573d6000803e3d6000fd5b505050506040513d6020811015613e1757600080fd5b50519050613e366001600160a01b03831686308763ffffffff613f7616565b600d54604080516370a0823160e01b815230600482015290516000926001600160a01b0316916370a08231916024808301926020929190829003018186803b158015613e8157600080fd5b505afa158015613e95573d6000803e3d6000fd5b505050506040513d6020811015613eab57600080fd5b5051905081811015613f04576040805162461bcd60e51b815260206004820152601a60248201527f544f4b454e5f5452414e534645525f494e5f4f564552464c4f57000000000000604482015290519081900360640190fd5b03949350505050565b604080516001600160a01b038416602482015260448082018490528251808303909101815260649091019091526020810180516001600160e01b031663a9059cbb60e01b179052612d7a908490613fd6565b6000806000613f6c614226565b611c4e868661418e565b604080516001600160a01b0380861660248301528416604482015260648082018490528251808303909101815260849091019091526020810180516001600160e01b03166323b872dd60e01b179052613fd0908590613fd6565b50505050565b613fe8826001600160a01b03166141ed565b614039576040805162461bcd60e51b815260206004820152601f60248201527f5361666545524332303a2063616c6c20746f206e6f6e2d636f6e747261637400604482015290519081900360640190fd5b60006060836001600160a01b0316836040518082805190602001908083835b602083106140775780518252601f199092019160209182019101614058565b6001836020036101000a0380198251168184511680821785525050505050509050019150506000604051808303816000865af19150503d80600081146140d9576040519150601f19603f3d011682016040523d82523d6000602084013e6140de565b606091505b509150915081614135576040805162461bcd60e51b815260206004820181905260248201527f5361666545524332303a206c6f772d6c6576656c2063616c6c206661696c6564604482015290519081900360640190fd5b805115613fd05780806020019051602081101561415157600080fd5b5051613fd05760405162461bcd60e51b815260040180806020018281038252602a815260200180614501602a913960400191505060405180910390fd5b6000614198614226565b6000806141ad670de0b6b3a7640000876131cc565b909250905060008260038111156141c057fe5b146141df57506040805160208101909152600081529092509050611c84565b611c7d818660000151612bb5565b6000813f7fc5d2460186f7233c927e7db2dcc703c0e500b653ca82273b7bfad8045d85a470818114801590610d3f575050151592915050565b6040518060200160405280600081525090565b6040805161010081019091528060008152602001600081526020016000815260200160008152602001600081526020016000815260200160008152602001600081525090565b6040805160e0810190915280600081526020016000815260200160008152602001600081526020016000815260200160008152602001600081525090565b60408051608081019091528060008152602001600081526020016000815260200160008152509056fe6f6e6c792061646d696e206d617920696e697469616c697a6520746865206d61726b65746d61726b6574206d6179206f6e6c7920626520696e697469616c697a6564206f6e63654e6f20656e6f7567682076616c756520746f20706179207072696365206f7261636c652e696e697469616c2065786368616e67652072617465206d7573742062652067726561746572207468616e207a65726f2e73657474696e6720696e7465726573742072617465206d6f64656c206661696c65644c49515549444154455f5249534b4d414e414745525f43414c43554c4154455f414d4f554e545f5345495a455f4641494c45444d494e545f4e45575f4143434f554e545f42414c414e43455f43414c43554c4154494f4e5f4641494c4544626f72726f7742616c616e636553746f7265643a20626f72726f7742616c616e636553746f726564496e7465726e616c206661696c656452455041595f424f52524f575f4e45575f4143434f554e545f424f52524f575f42414c414e43455f43414c43554c4154494f4e5f4641494c454452455041595f424f52524f575f4e45575f544f54414c5f42414c414e43455f43414c43554c4154494f4e5f4641494c454465786368616e67655261746553746f7265643a2065786368616e67655261746553746f726564496e7465726e616c206661696c65644d494e545f4e45575f544f54414c5f535550504c595f43414c43554c4154494f4e5f4641494c45445361666545524332303a204552433230206f7065726174696f6e20646964206e6f7420737563636565646f6e65206f662072656465656d546f6b656e73496e206f722072656465656d416d6f756e74496e206d757374206265207a65726f72656475636520726573657276657320756e657870656374656420756e646572666c6f77a2646970667358221220394d84b1f070513e286273b5bbeaabaf5f67b83a4d8c853d45be21013493d58f64736f6c634300060900336f6e6c792061646d696e206d617920696e697469616c697a6520746865206d61726b65746d61726b6574206d6179206f6e6c7920626520696e697469616c697a6564206f6e6365696e697469616c2065786368616e67652072617465206d7573742062652067726561746572207468616e207a65726f2e73657474696e6720696e7465726573742072617465206d6f64656c206661696c6564",
  "immutableReferences": {},
  "source": "// SPDX-License-Identifier: UNLICENSED\npragma solidity ^0.6.9;\n\nimport \"../tokenization/PToken.sol\";\nimport \"@openzeppelin/contracts/token/ERC20/SafeERC20.sol\";\nimport \"@openzeppelin/contracts/token/ERC20/IERC20.sol\";\n\ncontract PErc20 is PToken, IPErc20 {\n    using SafeERC20 for IERC20;\n    /**\n     * @notice Initialize the new money market\n     * @param underlying_ The address of the underlying asset\n     * @param riskManager_ The address of the RiskManager\n     * @param interestRateModel_ The address of the interest rate model\n     * @param initialExchangeRateMantissa_ The initial exchange rate, scaled by 1e18\n     */\n    constructor(address underlying_,\n                        IRiskManager riskManager_,\n                        InterestRateModel interestRateModel_,\n                        uint initialExchangeRateMantissa_,\n                        address payable admin_) public {\n        admin = msg.sender;\n\n        // pToken initialize does the bulk of the work\n        super.initialize(riskManager_, interestRateModel_, initialExchangeRateMantissa_);\n\n        // Set underlying and sanity check it\n        underlying = underlying_;\n        IERC20(underlying).totalSupply();\n\n        admin = admin_;\n    }\n\n    /*** User Interface ***/\n\n    /**\n     * @notice Sender supplies assets into the market and receives pTokens in exchange\n     * @dev Accrues interest whether or not the operation succeeds, unless reverted\n     * @param mintAmount The amount of the underlying asset to supply\n     * @return uint 0=success, otherwise a failure (see ErrorReporter.sol for details)\n     */\n    function mint(uint mintAmount) external override returns (uint) {\n        (uint err,) = mintInternal(mintAmount);\n        return err;\n    }\n\n    /**\n     * @notice Sender redeems pTokens in exchange for the underlying asset\n     * @dev Accrues interest whether or not the operation succeeds, unless reverted\n     * @param redeemTokens The number of pTokens to redeem into underlying\n     * @return uint 0=success, otherwise a failure (see ErrorReporter.sol for details)\n     */\n    function redeem(uint redeemTokens) external payable override returns (uint) {\n        updateTokenPrice();\n        return redeemInternal(redeemTokens);\n    }\n\n    /**\n     * @notice Sender redeems pTokens in exchange for a specified amount of underlying asset\n     * @dev Accrues interest whether or not the operation succeeds, unless reverted\n     * @param redeemAmount The amount of underlying to redeem\n     * @return uint 0=success, otherwise a failure (see ErrorReporter.sol for details)\n     */\n    function redeemUnderlying(uint redeemAmount) external payable override returns (uint) {\n        updateTokenPrice();\n        return redeemUnderlyingInternal(redeemAmount);\n    }\n\n    /**\n      * @notice Sender borrows assets from the protocol to their own address\n      * @param borrowAmount The amount of the underlying asset to borrow\n      * @return uint 0=success, otherwise a failure (see ErrorReporter.sol for details)\n      */\n    function borrow(uint borrowAmount) external payable override returns (uint) {\n        updateTokenPrice();\n        return borrowInternal(borrowAmount);\n    }\n\n    /**\n     * @notice Sender repays their own borrow\n     * @param repayAmount The amount to repay\n     * @return uint 0=success, otherwise a failure (see ErrorReporter.sol for details)\n     */\n    function repayBorrow(uint repayAmount) external override returns (uint) {\n        (uint err,) = repayBorrowInternal(repayAmount);\n        return err;\n    }\n\n    /**\n     * @notice Sender repays a borrow belonging to borrower\n     * @param borrower the account with the debt being payed off\n     * @param repayAmount The amount to repay\n     * @return uint 0=success, otherwise a failure (see ErrorReporter.sol for details)\n     */\n    function repayBorrowBehalf(address borrower, uint repayAmount) external override returns (uint) {\n        (uint err,) = repayBorrowBehalfInternal(borrower, repayAmount);\n            return err;\n        }\n\n    /**\n     * @notice The sender liquidates the borrowers collateral.\n     *  The collateral seized is transferred to the liquidator.\n     * @param borrower The borrower of this pToken to be liquidated\n     * @param repayAmount The amount of the underlying borrowed asset to repay\n     * @param pTokenCollateral The market in which to seize collateral from the borrower\n     * @return uint 0=success, otherwise a failure (see ErrorReporter.sol for details)\n     */\n    function liquidateBorrow(address borrower, uint repayAmount, IPToken pTokenCollateral) external payable override returns (uint) {\n        updateTokenPrice();\n        (uint err,) = liquidateBorrowInternal(borrower, repayAmount, pTokenCollateral);\n        return err;\n    }\n\n    /**\n     * @notice The sender adds to reserves.\n     * @param addAmount The amount fo underlying token to add as reserves\n     * @return uint 0=success, otherwise a failure (see ErrorReporter.sol for details)\n     */\n    function _addReserves(uint addAmount) external override returns (uint) {\n        return _addReservesInternal(addAmount);\n    }\n\n    function isNativeToken() public pure override returns (bool) {\n        return false;\n    }\n    /*** Safe Token ***/\n\n    /**\n     * @notice Gets balance of this contract in terms of the underlying\n     * @dev This excludes the value of the current message, if any\n     * @return The quantity of underlying tokens owned by this contract\n     */\n    function getCashPrior() internal view override returns (uint) {\n        IERC20 token = IERC20(underlying);\n        return token.balanceOf(address(this));\n    }\n\n    function doTransferIn(address from, uint amount) internal override returns (uint) {\n        IERC20 token = IERC20(underlying);\n        uint balanceBefore = IERC20(underlying).balanceOf(address(this));\n        token.safeTransferFrom(from, address(this), amount);\n\n        // Calculate the amount that was *actually* transferred\n        uint balanceAfter = IERC20(underlying).balanceOf(address(this));\n        require(balanceAfter >= balanceBefore, \"TOKEN_TRANSFER_IN_OVERFLOW\");\n        return balanceAfter - balanceBefore;   // underflow already checked above, just subtract\n    }\n\n    function doTransferOut(address payable to, uint amount) internal override {\n        IERC20 token = IERC20(underlying);\n        token.safeTransfer(to, amount);\n    }\n}\n",
  "sourcePath": "/Users/ashton/repo/blockchain/eth/smartcontracts/PoolX/contracts/tokenization/PErc20.sol",
  "compiler": {
    "name": "solc",
    "version": "0.6.9+commit.3e3065ac.Emscripten.clang"
  },
  "schemaVersion": "3.2.0",
  "updatedAt": "2021-01-11T14:08:11.890Z",
  "networkType": "ethereum",
  "devdoc": {
    "methods": {
      "_acceptAdmin()": {
        "details": "Admin function for pending admin to accept role and update admin",
        "returns": {
          "_0": "uint 0=success, otherwise a failure (see ErrorReporter.sol for details)"
        }
      },
      "_addReserves(uint256)": {
        "params": {
          "addAmount": "The amount fo underlying token to add as reserves"
        },
        "returns": {
          "_0": "uint 0=success, otherwise a failure (see ErrorReporter.sol for details)"
        }
      },
      "_reduceReserves(uint256)": {
        "params": {
          "reduceAmount": "Amount of reduction to reserves"
        },
        "returns": {
          "_0": "uint 0=success, otherwise a failure (see ErrorReporter.sol for details)"
        }
      },
      "_setInterestRateModel(address)": {
        "details": "Admin function to accrue interest and update the interest rate model",
        "params": {
          "newInterestRateModel": "the new interest rate model to use"
        },
        "returns": {
          "_0": "uint 0=success, otherwise a failure (see ErrorReporter.sol for details)"
        }
      },
      "_setPendingAdmin(address)": {
        "details": "Admin function to begin change of admin. The newPendingAdmin must call `_acceptAdmin` to finalize the transfer.",
        "params": {
          "newPendingAdmin": "New pending admin."
        },
        "returns": {
          "_0": "uint 0=success, otherwise a failure (see ErrorReporter.sol for details)"
        }
      },
      "_setReserveFactor(uint256)": {
        "details": "Admin function to accrue interest and set a new reserve factor",
        "returns": {
          "_0": "uint 0=success, otherwise a failure (see ErrorReporter.sol for details)"
        }
      },
      "_setRiskManager(address)": {
        "details": "Admin function to set a new riskManager",
        "returns": {
          "_0": "uint 0=success, otherwise a failure (see ErrorReporter.sol for details)"
        }
      },
      "accrueInterest()": {
        "details": "This calculates interest accrued from the last checkpointed block   up to the current block and writes new checkpoint to storage."
      },
      "balanceOf(address)": {
        "params": {
          "owner": "The address of the account to query"
        },
        "returns": {
          "_0": "The number of tokens owned by `owner`"
        }
      },
      "balanceOfUnderlying(address)": {
        "details": "This also accrues interest in a transaction",
        "params": {
          "owner": "The address of the account to query"
        },
        "returns": {
          "_0": "The amount of underlying owned by `owner`"
        }
      },
      "borrow(uint256)": {
        "params": {
          "borrowAmount": "The amount of the underlying asset to borrow"
        },
        "returns": {
          "_0": "uint 0=success, otherwise a failure (see ErrorReporter.sol for details)"
        }
      },
      "borrowBalanceCurrent(address)": {
        "params": {
          "account": "The address whose balance should be calculated after updating borrowIndex"
        },
        "returns": {
          "_0": "The calculated balance"
        }
      },
      "borrowBalanceStored(address)": {
        "params": {
          "account": "The address whose balance should be calculated"
        },
        "returns": {
          "_0": "The calculated balance"
        }
      },
      "borrowRatePerBlock()": {
        "returns": {
          "_0": "The borrow interest rate per block, scaled by 1e18"
        }
      },
      "constructor": {
        "params": {
          "initialExchangeRateMantissa_": "The initial exchange rate, scaled by 1e18",
          "interestRateModel_": "The address of the interest rate model",
          "riskManager_": "The address of the RiskManager",
          "underlying_": "The address of the underlying asset"
        }
      },
      "exchangeRateCurrent()": {
        "returns": {
          "_0": "Calculated exchange rate scaled by 1e18"
        }
      },
      "exchangeRateStored()": {
        "details": "This function does not accrue interest before calculating the exchange rate",
        "returns": {
          "_0": "Calculated exchange rate scaled by 1e18"
        }
      },
      "getAccountSnapshot(address)": {
        "details": "This is used by riskManager to more efficiently perform liquidity checks.",
        "params": {
          "account": "Address of the account to snapshot"
        },
        "returns": {
          "_0": "(possible error, token balance, borrow balance, exchange rate mantissa)"
        }
      },
      "getCash()": {
        "returns": {
          "_0": "The quantity of underlying asset owned by this contract"
        }
      },
      "initialize(address,address,uint256)": {
        "params": {
          "initialExchangeRateMantissa_": "The initial exchange rate, scaled by 1e18",
          "interestRateModel_": "",
          "riskManager_": "controller "
        }
      },
      "liquidateBorrow(address,uint256,address)": {
        "params": {
          "borrower": "The borrower of this pToken to be liquidated",
          "pTokenCollateral": "The market in which to seize collateral from the borrower",
          "repayAmount": "The amount of the underlying borrowed asset to repay"
        },
        "returns": {
          "_0": "uint 0=success, otherwise a failure (see ErrorReporter.sol for details)"
        }
      },
      "mint(uint256)": {
        "details": "Accrues interest whether or not the operation succeeds, unless reverted",
        "params": {
          "mintAmount": "The amount of the underlying asset to supply"
        },
        "returns": {
          "_0": "uint 0=success, otherwise a failure (see ErrorReporter.sol for details)"
        }
      },
      "redeem(uint256)": {
        "details": "Accrues interest whether or not the operation succeeds, unless reverted",
        "params": {
          "redeemTokens": "The number of pTokens to redeem into underlying"
        },
        "returns": {
          "_0": "uint 0=success, otherwise a failure (see ErrorReporter.sol for details)"
        }
      },
      "redeemUnderlying(uint256)": {
        "details": "Accrues interest whether or not the operation succeeds, unless reverted",
        "params": {
          "redeemAmount": "The amount of underlying to redeem"
        },
        "returns": {
          "_0": "uint 0=success, otherwise a failure (see ErrorReporter.sol for details)"
        }
      },
      "repayBorrow(uint256)": {
        "params": {
          "repayAmount": "The amount to repay"
        },
        "returns": {
          "_0": "uint 0=success, otherwise a failure (see ErrorReporter.sol for details)"
        }
      },
      "repayBorrowBehalf(address,uint256)": {
        "params": {
          "borrower": "the account with the debt being payed off",
          "repayAmount": "The amount to repay"
        },
        "returns": {
          "_0": "uint 0=success, otherwise a failure (see ErrorReporter.sol for details)"
        }
      },
      "seize(address,address,uint256)": {
        "details": "Will fail unless called by another pToken during the process of liquidation.  Its absolutely critical to use msg.sender as the borrowed pToken and not a parameter.",
        "params": {
          "borrower": "The account having collateral seized",
          "liquidator": "The account receiving seized collateral",
          "seizeTokens": "The number of pTokens to seize"
        },
        "returns": {
          "_0": "uint 0=success, otherwise a failure (see ErrorReporter.sol for details)"
        }
      },
      "supplyRatePerBlock()": {
        "returns": {
          "_0": "The supply interest rate per block, scaled by 1e18"
        }
      },
      "totalBorrowsCurrent()": {
        "returns": {
          "_0": "The total borrows with interest"
        }
      }
    }
  },
  "userdoc": {
    "methods": {
      "_acceptAdmin()": {
        "notice": "Accepts transfer of admin rights. msg.sender must be pendingAdmin"
      },
      "_addReserves(uint256)": {
        "notice": "The sender adds to reserves."
      },
      "_reduceReserves(uint256)": {
        "notice": "Accrues interest and reduces reserves by transferring to admin"
      },
      "_setInterestRateModel(address)": {
        "notice": "accrues interest and updates the interest rate model using _setInterestRateModelFresh"
      },
      "_setPendingAdmin(address)": {
        "notice": "Begins transfer of admin rights. The newPendingAdmin must call `_acceptAdmin` to finalize the transfer."
      },
      "_setReserveFactor(uint256)": {
        "notice": "accrues interest and sets a new reserve factor for the protocol using _setReserveFactorFresh"
      },
      "_setRiskManager(address)": {
        "notice": "Sets a new riskManager for the market"
      },
      "accrualBlockNumber()": {
        "notice": "Block number that interest was last accrued at"
      },
      "accrueInterest()": {
        "notice": "Applies accrued interest to total borrows and reserves"
      },
      "admin()": {
        "notice": "Administrator for this contract"
      },
      "balanceOf(address)": {
        "notice": "Get the token balance of the `owner`"
      },
      "balanceOfUnderlying(address)": {
        "notice": "Get the underlying balance of the `owner`"
      },
      "borrow(uint256)": {
        "notice": "Sender borrows assets from the protocol to their own address"
      },
      "borrowBalanceCurrent(address)": {
        "notice": "Accrue interest to updated borrowIndex and then calculate account's borrow balance using the updated borrowIndex"
      },
      "borrowBalanceStored(address)": {
        "notice": "Return the borrow balance of account based on stored data"
      },
      "borrowIndex()": {
        "notice": "Accumulator of the total earned interest rate since the opening of the market"
      },
      "borrowRatePerBlock()": {
        "notice": "Returns the current per-block borrow interest rate for this pToken"
      },
      "constructor": "Initialize the new money market",
      "exchangeRateCurrent()": {
        "notice": "Accrue interest then return the up-to-date exchange rate"
      },
      "exchangeRateStored()": {
        "notice": "Calculates the exchange rate from the underlying to the pToken"
      },
      "getAccountSnapshot(address)": {
        "notice": "Get a snapshot of the account's balances, and the cached exchange rate"
      },
      "getCash()": {
        "notice": "Get cash balance of this pToken in the underlying asset"
      },
      "initialize(address,address,uint256)": {
        "notice": ""
      },
      "interestRateModel()": {
        "notice": "Model which tells what the current interest rate should be"
      },
      "isPToken()": {
        "notice": "Indicator that this is a PToken contract (for inspection)"
      },
      "liquidateBorrow(address,uint256,address)": {
        "notice": "The sender liquidates the borrowers collateral.  The collateral seized is transferred to the liquidator."
      },
      "mint(uint256)": {
        "notice": "Sender supplies assets into the market and receives pTokens in exchange"
      },
      "pendingAdmin()": {
        "notice": "Pending administrator for this contract"
      },
      "redeem(uint256)": {
        "notice": "Sender redeems pTokens in exchange for the underlying asset"
      },
      "redeemUnderlying(uint256)": {
        "notice": "Sender redeems pTokens in exchange for a specified amount of underlying asset"
      },
      "repayBorrow(uint256)": {
        "notice": "Sender repays their own borrow"
      },
      "repayBorrowBehalf(address,uint256)": {
        "notice": "Sender repays a borrow belonging to borrower"
      },
      "reserveFactorMantissa()": {
        "notice": "Fraction of interest currently set aside for reserves"
      },
      "riskManager()": {
        "notice": "Contract which oversees inter-pToken operations"
      },
      "seize(address,address,uint256)": {
        "notice": "Transfers collateral tokens (this market) to the liquidator."
      },
      "supplyRatePerBlock()": {
        "notice": "Returns the current per-block supply interest rate for this pToken"
      },
      "totalBorrows()": {
        "notice": "Total amount of outstanding borrows of the underlying in this market"
      },
      "totalBorrowsCurrent()": {
        "notice": "Returns the current total borrows plus accrued interest"
      },
      "totalReserves()": {
        "notice": "Total amount of reserves of the underlying held in this market"
      },
      "totalSupply()": {
        "notice": "Total number of tokens in circulation"
      },
      "underlying()": {
        "notice": "Underlying asset for this PToken"
      }
    }
  }
}