{
  "contractName": "PErc20",
  "abi": [
    {
      "inputs": [
        {
          "internalType": "address",
          "name": "underlying_",
          "type": "address"
        },
        {
          "internalType": "contract IRiskManager",
          "name": "riskManager_",
          "type": "address"
        },
        {
          "internalType": "contract InterestRateModel",
          "name": "interestRateModel_",
          "type": "address"
        },
        {
          "internalType": "uint256",
          "name": "initialExchangeRateMantissa_",
          "type": "uint256"
        },
        {
          "internalType": "string",
          "name": "name_",
          "type": "string"
        },
        {
          "internalType": "string",
          "name": "symbol_",
          "type": "string"
        },
        {
          "internalType": "uint8",
          "name": "decimals_",
          "type": "uint8"
        },
        {
          "internalType": "address payable",
          "name": "admin_",
          "type": "address"
        }
      ],
      "stateMutability": "nonpayable",
      "type": "constructor"
    },
    {
      "anonymous": false,
      "inputs": [
        {
          "indexed": false,
          "internalType": "uint256",
          "name": "cashPrior",
          "type": "uint256"
        },
        {
          "indexed": false,
          "internalType": "uint256",
          "name": "interestAccumulated",
          "type": "uint256"
        },
        {
          "indexed": false,
          "internalType": "uint256",
          "name": "borrowIndex",
          "type": "uint256"
        },
        {
          "indexed": false,
          "internalType": "uint256",
          "name": "totalBorrows",
          "type": "uint256"
        }
      ],
      "name": "AccrueInterest",
      "type": "event"
    },
    {
      "anonymous": false,
      "inputs": [
        {
          "indexed": true,
          "internalType": "address",
          "name": "owner",
          "type": "address"
        },
        {
          "indexed": true,
          "internalType": "address",
          "name": "spender",
          "type": "address"
        },
        {
          "indexed": false,
          "internalType": "uint256",
          "name": "amount",
          "type": "uint256"
        }
      ],
      "name": "Approval",
      "type": "event"
    },
    {
      "anonymous": false,
      "inputs": [
        {
          "indexed": false,
          "internalType": "address",
          "name": "borrower",
          "type": "address"
        },
        {
          "indexed": false,
          "internalType": "uint256",
          "name": "borrowAmount",
          "type": "uint256"
        },
        {
          "indexed": false,
          "internalType": "uint256",
          "name": "accountBorrows",
          "type": "uint256"
        },
        {
          "indexed": false,
          "internalType": "uint256",
          "name": "totalBorrows",
          "type": "uint256"
        }
      ],
      "name": "Borrow",
      "type": "event"
    },
    {
      "anonymous": false,
      "inputs": [
        {
          "indexed": false,
          "internalType": "uint256",
          "name": "error",
          "type": "uint256"
        },
        {
          "indexed": false,
          "internalType": "uint256",
          "name": "info",
          "type": "uint256"
        },
        {
          "indexed": false,
          "internalType": "uint256",
          "name": "detail",
          "type": "uint256"
        }
      ],
      "name": "Failure",
      "type": "event"
    },
    {
      "anonymous": false,
      "inputs": [
        {
          "indexed": false,
          "internalType": "address",
          "name": "liquidator",
          "type": "address"
        },
        {
          "indexed": false,
          "internalType": "address",
          "name": "borrower",
          "type": "address"
        },
        {
          "indexed": false,
          "internalType": "uint256",
          "name": "repayAmount",
          "type": "uint256"
        },
        {
          "indexed": false,
          "internalType": "address",
          "name": "pTokenCollateral",
          "type": "address"
        },
        {
          "indexed": false,
          "internalType": "uint256",
          "name": "seizeTokens",
          "type": "uint256"
        }
      ],
      "name": "LiquidateBorrow",
      "type": "event"
    },
    {
      "anonymous": false,
      "inputs": [
        {
          "indexed": false,
          "internalType": "address",
          "name": "minter",
          "type": "address"
        },
        {
          "indexed": false,
          "internalType": "uint256",
          "name": "mintAmount",
          "type": "uint256"
        },
        {
          "indexed": false,
          "internalType": "uint256",
          "name": "mintTokens",
          "type": "uint256"
        }
      ],
      "name": "Mint",
      "type": "event"
    },
    {
      "anonymous": false,
      "inputs": [
        {
          "indexed": false,
          "internalType": "address",
          "name": "oldAdmin",
          "type": "address"
        },
        {
          "indexed": false,
          "internalType": "address",
          "name": "newAdmin",
          "type": "address"
        }
      ],
      "name": "NewAdmin",
      "type": "event"
    },
    {
      "anonymous": false,
      "inputs": [
        {
          "indexed": false,
          "internalType": "contract InterestRateModel",
          "name": "oldInterestRateModel",
          "type": "address"
        },
        {
          "indexed": false,
          "internalType": "contract InterestRateModel",
          "name": "newInterestRateModel",
          "type": "address"
        }
      ],
      "name": "NewMarketInterestRateModel",
      "type": "event"
    },
    {
      "anonymous": false,
      "inputs": [
        {
          "indexed": false,
          "internalType": "address",
          "name": "oldPendingAdmin",
          "type": "address"
        },
        {
          "indexed": false,
          "internalType": "address",
          "name": "newPendingAdmin",
          "type": "address"
        }
      ],
      "name": "NewPendingAdmin",
      "type": "event"
    },
    {
      "anonymous": false,
      "inputs": [
        {
          "indexed": false,
          "internalType": "uint256",
          "name": "oldReserveFactorMantissa",
          "type": "uint256"
        },
        {
          "indexed": false,
          "internalType": "uint256",
          "name": "newReserveFactorMantissa",
          "type": "uint256"
        }
      ],
      "name": "NewReserveFactor",
      "type": "event"
    },
    {
      "anonymous": false,
      "inputs": [
        {
          "indexed": false,
          "internalType": "contract IRiskManager",
          "name": "oldRiskManager",
          "type": "address"
        },
        {
          "indexed": false,
          "internalType": "contract IRiskManager",
          "name": "newRiskManager",
          "type": "address"
        }
      ],
      "name": "NewRiskManager",
      "type": "event"
    },
    {
      "anonymous": false,
      "inputs": [
        {
          "indexed": false,
          "internalType": "address",
          "name": "redeemer",
          "type": "address"
        },
        {
          "indexed": false,
          "internalType": "uint256",
          "name": "redeemAmount",
          "type": "uint256"
        },
        {
          "indexed": false,
          "internalType": "uint256",
          "name": "redeemTokens",
          "type": "uint256"
        }
      ],
      "name": "Redeem",
      "type": "event"
    },
    {
      "anonymous": false,
      "inputs": [
        {
          "indexed": false,
          "internalType": "address",
          "name": "payer",
          "type": "address"
        },
        {
          "indexed": false,
          "internalType": "address",
          "name": "borrower",
          "type": "address"
        },
        {
          "indexed": false,
          "internalType": "uint256",
          "name": "repayAmount",
          "type": "uint256"
        },
        {
          "indexed": false,
          "internalType": "uint256",
          "name": "accountBorrows",
          "type": "uint256"
        },
        {
          "indexed": false,
          "internalType": "uint256",
          "name": "totalBorrows",
          "type": "uint256"
        }
      ],
      "name": "RepayBorrow",
      "type": "event"
    },
    {
      "anonymous": false,
      "inputs": [
        {
          "indexed": false,
          "internalType": "address",
          "name": "benefactor",
          "type": "address"
        },
        {
          "indexed": false,
          "internalType": "uint256",
          "name": "addAmount",
          "type": "uint256"
        },
        {
          "indexed": false,
          "internalType": "uint256",
          "name": "newTotalReserves",
          "type": "uint256"
        }
      ],
      "name": "ReservesAdded",
      "type": "event"
    },
    {
      "anonymous": false,
      "inputs": [
        {
          "indexed": false,
          "internalType": "address",
          "name": "admin",
          "type": "address"
        },
        {
          "indexed": false,
          "internalType": "uint256",
          "name": "reduceAmount",
          "type": "uint256"
        },
        {
          "indexed": false,
          "internalType": "uint256",
          "name": "newTotalReserves",
          "type": "uint256"
        }
      ],
      "name": "ReservesReduced",
      "type": "event"
    },
    {
      "anonymous": false,
      "inputs": [
        {
          "indexed": true,
          "internalType": "address",
          "name": "from",
          "type": "address"
        },
        {
          "indexed": true,
          "internalType": "address",
          "name": "to",
          "type": "address"
        },
        {
          "indexed": false,
          "internalType": "uint256",
          "name": "amount",
          "type": "uint256"
        }
      ],
      "name": "Transfer",
      "type": "event"
    },
    {
      "inputs": [],
      "name": "_acceptAdmin",
      "outputs": [
        {
          "internalType": "uint256",
          "name": "",
          "type": "uint256"
        }
      ],
      "stateMutability": "nonpayable",
      "type": "function"
    },
    {
      "inputs": [
        {
          "internalType": "uint256",
          "name": "reduceAmount",
          "type": "uint256"
        }
      ],
      "name": "_reduceReserves",
      "outputs": [
        {
          "internalType": "uint256",
          "name": "",
          "type": "uint256"
        }
      ],
      "stateMutability": "nonpayable",
      "type": "function"
    },
    {
      "inputs": [
        {
          "internalType": "contract InterestRateModel",
          "name": "newInterestRateModel",
          "type": "address"
        }
      ],
      "name": "_setInterestRateModel",
      "outputs": [
        {
          "internalType": "uint256",
          "name": "",
          "type": "uint256"
        }
      ],
      "stateMutability": "nonpayable",
      "type": "function"
    },
    {
      "inputs": [
        {
          "internalType": "address payable",
          "name": "newPendingAdmin",
          "type": "address"
        }
      ],
      "name": "_setPendingAdmin",
      "outputs": [
        {
          "internalType": "uint256",
          "name": "",
          "type": "uint256"
        }
      ],
      "stateMutability": "nonpayable",
      "type": "function"
    },
    {
      "inputs": [
        {
          "internalType": "uint256",
          "name": "newReserveFactorMantissa",
          "type": "uint256"
        }
      ],
      "name": "_setReserveFactor",
      "outputs": [
        {
          "internalType": "uint256",
          "name": "",
          "type": "uint256"
        }
      ],
      "stateMutability": "nonpayable",
      "type": "function"
    },
    {
      "inputs": [
        {
          "internalType": "contract IRiskManager",
          "name": "newRiskManager",
          "type": "address"
        }
      ],
      "name": "_setRiskManager",
      "outputs": [
        {
          "internalType": "uint256",
          "name": "",
          "type": "uint256"
        }
      ],
      "stateMutability": "nonpayable",
      "type": "function"
    },
    {
      "inputs": [],
      "name": "accrualBlockNumber",
      "outputs": [
        {
          "internalType": "uint256",
          "name": "",
          "type": "uint256"
        }
      ],
      "stateMutability": "view",
      "type": "function"
    },
    {
      "inputs": [],
      "name": "accrueInterest",
      "outputs": [
        {
          "internalType": "uint256",
          "name": "",
          "type": "uint256"
        }
      ],
      "stateMutability": "nonpayable",
      "type": "function"
    },
    {
      "inputs": [],
      "name": "admin",
      "outputs": [
        {
          "internalType": "address payable",
          "name": "",
          "type": "address"
        }
      ],
      "stateMutability": "view",
      "type": "function"
    },
    {
      "inputs": [
        {
          "internalType": "address",
          "name": "owner",
          "type": "address"
        },
        {
          "internalType": "address",
          "name": "spender",
          "type": "address"
        }
      ],
      "name": "allowance",
      "outputs": [
        {
          "internalType": "uint256",
          "name": "",
          "type": "uint256"
        }
      ],
      "stateMutability": "view",
      "type": "function"
    },
    {
      "inputs": [
        {
          "internalType": "address",
          "name": "spender",
          "type": "address"
        },
        {
          "internalType": "uint256",
          "name": "amount",
          "type": "uint256"
        }
      ],
      "name": "approve",
      "outputs": [
        {
          "internalType": "bool",
          "name": "",
          "type": "bool"
        }
      ],
      "stateMutability": "nonpayable",
      "type": "function"
    },
    {
      "inputs": [
        {
          "internalType": "address",
          "name": "owner",
          "type": "address"
        }
      ],
      "name": "balanceOf",
      "outputs": [
        {
          "internalType": "uint256",
          "name": "",
          "type": "uint256"
        }
      ],
      "stateMutability": "view",
      "type": "function"
    },
    {
      "inputs": [
        {
          "internalType": "address",
          "name": "owner",
          "type": "address"
        }
      ],
      "name": "balanceOfUnderlying",
      "outputs": [
        {
          "internalType": "uint256",
          "name": "",
          "type": "uint256"
        }
      ],
      "stateMutability": "nonpayable",
      "type": "function"
    },
    {
      "inputs": [
        {
          "internalType": "address",
          "name": "account",
          "type": "address"
        }
      ],
      "name": "borrowBalanceCurrent",
      "outputs": [
        {
          "internalType": "uint256",
          "name": "",
          "type": "uint256"
        }
      ],
      "stateMutability": "nonpayable",
      "type": "function"
    },
    {
      "inputs": [
        {
          "internalType": "address",
          "name": "account",
          "type": "address"
        }
      ],
      "name": "borrowBalanceStored",
      "outputs": [
        {
          "internalType": "uint256",
          "name": "",
          "type": "uint256"
        }
      ],
      "stateMutability": "view",
      "type": "function"
    },
    {
      "inputs": [],
      "name": "borrowIndex",
      "outputs": [
        {
          "internalType": "uint256",
          "name": "",
          "type": "uint256"
        }
      ],
      "stateMutability": "view",
      "type": "function"
    },
    {
      "inputs": [],
      "name": "borrowRatePerBlock",
      "outputs": [
        {
          "internalType": "uint256",
          "name": "",
          "type": "uint256"
        }
      ],
      "stateMutability": "view",
      "type": "function"
    },
    {
      "inputs": [],
      "name": "decimals",
      "outputs": [
        {
          "internalType": "uint8",
          "name": "",
          "type": "uint8"
        }
      ],
      "stateMutability": "view",
      "type": "function"
    },
    {
      "inputs": [],
      "name": "exchangeRateCurrent",
      "outputs": [
        {
          "internalType": "uint256",
          "name": "",
          "type": "uint256"
        }
      ],
      "stateMutability": "nonpayable",
      "type": "function"
    },
    {
      "inputs": [],
      "name": "exchangeRateStored",
      "outputs": [
        {
          "internalType": "uint256",
          "name": "",
          "type": "uint256"
        }
      ],
      "stateMutability": "view",
      "type": "function"
    },
    {
      "inputs": [
        {
          "internalType": "address",
          "name": "account",
          "type": "address"
        }
      ],
      "name": "getAccountSnapshot",
      "outputs": [
        {
          "internalType": "uint256",
          "name": "",
          "type": "uint256"
        },
        {
          "internalType": "uint256",
          "name": "",
          "type": "uint256"
        },
        {
          "internalType": "uint256",
          "name": "",
          "type": "uint256"
        },
        {
          "internalType": "uint256",
          "name": "",
          "type": "uint256"
        }
      ],
      "stateMutability": "view",
      "type": "function"
    },
    {
      "inputs": [],
      "name": "getCash",
      "outputs": [
        {
          "internalType": "uint256",
          "name": "",
          "type": "uint256"
        }
      ],
      "stateMutability": "view",
      "type": "function"
    },
    {
      "inputs": [
        {
          "internalType": "contract IRiskManager",
          "name": "riskManager_",
          "type": "address"
        },
        {
          "internalType": "contract InterestRateModel",
          "name": "interestRateModel_",
          "type": "address"
        },
        {
          "internalType": "uint256",
          "name": "initialExchangeRateMantissa_",
          "type": "uint256"
        },
        {
          "internalType": "string",
          "name": "name_",
          "type": "string"
        },
        {
          "internalType": "string",
          "name": "symbol_",
          "type": "string"
        },
        {
          "internalType": "uint8",
          "name": "decimals_",
          "type": "uint8"
        }
      ],
      "name": "initialize",
      "outputs": [],
      "stateMutability": "nonpayable",
      "type": "function"
    },
    {
      "inputs": [],
      "name": "interestRateModel",
      "outputs": [
        {
          "internalType": "contract InterestRateModel",
          "name": "",
          "type": "address"
        }
      ],
      "stateMutability": "view",
      "type": "function"
    },
    {
      "inputs": [],
      "name": "isPToken",
      "outputs": [
        {
          "internalType": "bool",
          "name": "",
          "type": "bool"
        }
      ],
      "stateMutability": "view",
      "type": "function"
    },
    {
      "inputs": [],
      "name": "name",
      "outputs": [
        {
          "internalType": "string",
          "name": "",
          "type": "string"
        }
      ],
      "stateMutability": "view",
      "type": "function"
    },
    {
      "inputs": [],
      "name": "pendingAdmin",
      "outputs": [
        {
          "internalType": "address payable",
          "name": "",
          "type": "address"
        }
      ],
      "stateMutability": "view",
      "type": "function"
    },
    {
      "inputs": [],
      "name": "reserveFactorMantissa",
      "outputs": [
        {
          "internalType": "uint256",
          "name": "",
          "type": "uint256"
        }
      ],
      "stateMutability": "view",
      "type": "function"
    },
    {
      "inputs": [],
      "name": "riskManager",
      "outputs": [
        {
          "internalType": "contract IRiskManager",
          "name": "",
          "type": "address"
        }
      ],
      "stateMutability": "view",
      "type": "function"
    },
    {
      "inputs": [
        {
          "internalType": "address",
          "name": "liquidator",
          "type": "address"
        },
        {
          "internalType": "address",
          "name": "borrower",
          "type": "address"
        },
        {
          "internalType": "uint256",
          "name": "seizeTokens",
          "type": "uint256"
        }
      ],
      "name": "seize",
      "outputs": [
        {
          "internalType": "uint256",
          "name": "",
          "type": "uint256"
        }
      ],
      "stateMutability": "nonpayable",
      "type": "function"
    },
    {
      "inputs": [],
      "name": "supplyRatePerBlock",
      "outputs": [
        {
          "internalType": "uint256",
          "name": "",
          "type": "uint256"
        }
      ],
      "stateMutability": "view",
      "type": "function"
    },
    {
      "inputs": [],
      "name": "symbol",
      "outputs": [
        {
          "internalType": "string",
          "name": "",
          "type": "string"
        }
      ],
      "stateMutability": "view",
      "type": "function"
    },
    {
      "inputs": [],
      "name": "totalBorrows",
      "outputs": [
        {
          "internalType": "uint256",
          "name": "",
          "type": "uint256"
        }
      ],
      "stateMutability": "view",
      "type": "function"
    },
    {
      "inputs": [],
      "name": "totalBorrowsCurrent",
      "outputs": [
        {
          "internalType": "uint256",
          "name": "",
          "type": "uint256"
        }
      ],
      "stateMutability": "nonpayable",
      "type": "function"
    },
    {
      "inputs": [],
      "name": "totalReserves",
      "outputs": [
        {
          "internalType": "uint256",
          "name": "",
          "type": "uint256"
        }
      ],
      "stateMutability": "view",
      "type": "function"
    },
    {
      "inputs": [],
      "name": "totalSupply",
      "outputs": [
        {
          "internalType": "uint256",
          "name": "",
          "type": "uint256"
        }
      ],
      "stateMutability": "view",
      "type": "function"
    },
    {
      "inputs": [
        {
          "internalType": "address",
          "name": "dst",
          "type": "address"
        },
        {
          "internalType": "uint256",
          "name": "amount",
          "type": "uint256"
        }
      ],
      "name": "transfer",
      "outputs": [
        {
          "internalType": "bool",
          "name": "",
          "type": "bool"
        }
      ],
      "stateMutability": "nonpayable",
      "type": "function"
    },
    {
      "inputs": [
        {
          "internalType": "address",
          "name": "src",
          "type": "address"
        },
        {
          "internalType": "address",
          "name": "dst",
          "type": "address"
        },
        {
          "internalType": "uint256",
          "name": "amount",
          "type": "uint256"
        }
      ],
      "name": "transferFrom",
      "outputs": [
        {
          "internalType": "bool",
          "name": "",
          "type": "bool"
        }
      ],
      "stateMutability": "nonpayable",
      "type": "function"
    },
    {
      "inputs": [],
      "name": "underlying",
      "outputs": [
        {
          "internalType": "address",
          "name": "",
          "type": "address"
        }
      ],
      "stateMutability": "view",
      "type": "function"
    },
    {
      "inputs": [
        {
          "internalType": "uint256",
          "name": "mintAmount",
          "type": "uint256"
        }
      ],
      "name": "mint",
      "outputs": [
        {
          "internalType": "uint256",
          "name": "",
          "type": "uint256"
        }
      ],
      "stateMutability": "nonpayable",
      "type": "function"
    },
    {
      "inputs": [
        {
          "internalType": "uint256",
          "name": "redeemTokens",
          "type": "uint256"
        }
      ],
      "name": "redeem",
      "outputs": [
        {
          "internalType": "uint256",
          "name": "",
          "type": "uint256"
        }
      ],
      "stateMutability": "nonpayable",
      "type": "function"
    },
    {
      "inputs": [
        {
          "internalType": "uint256",
          "name": "redeemAmount",
          "type": "uint256"
        }
      ],
      "name": "redeemUnderlying",
      "outputs": [
        {
          "internalType": "uint256",
          "name": "",
          "type": "uint256"
        }
      ],
      "stateMutability": "nonpayable",
      "type": "function"
    },
    {
      "inputs": [
        {
          "internalType": "uint256",
          "name": "borrowAmount",
          "type": "uint256"
        }
      ],
      "name": "borrow",
      "outputs": [
        {
          "internalType": "uint256",
          "name": "",
          "type": "uint256"
        }
      ],
      "stateMutability": "payable",
      "type": "function"
    },
    {
      "inputs": [
        {
          "internalType": "uint256",
          "name": "repayAmount",
          "type": "uint256"
        }
      ],
      "name": "repayBorrow",
      "outputs": [
        {
          "internalType": "uint256",
          "name": "",
          "type": "uint256"
        }
      ],
      "stateMutability": "payable",
      "type": "function"
    },
    {
      "inputs": [
        {
          "internalType": "address",
          "name": "borrower",
          "type": "address"
        },
        {
          "internalType": "uint256",
          "name": "repayAmount",
          "type": "uint256"
        }
      ],
      "name": "repayBorrowBehalf",
      "outputs": [
        {
          "internalType": "uint256",
          "name": "",
          "type": "uint256"
        }
      ],
      "stateMutability": "payable",
      "type": "function"
    },
    {
      "inputs": [
        {
          "internalType": "address",
          "name": "borrower",
          "type": "address"
        },
        {
          "internalType": "uint256",
          "name": "repayAmount",
          "type": "uint256"
        },
        {
          "internalType": "contract IPToken",
          "name": "pTokenCollateral",
          "type": "address"
        }
      ],
      "name": "liquidateBorrow",
      "outputs": [
        {
          "internalType": "uint256",
          "name": "",
          "type": "uint256"
        }
      ],
      "stateMutability": "payable",
      "type": "function"
    },
    {
      "inputs": [
        {
          "internalType": "uint256",
          "name": "addAmount",
          "type": "uint256"
        }
      ],
      "name": "_addReserves",
      "outputs": [
        {
          "internalType": "uint256",
          "name": "",
          "type": "uint256"
        }
      ],
      "stateMutability": "nonpayable",
      "type": "function"
    },
    {
      "inputs": [],
      "name": "isForETH",
      "outputs": [
        {
          "internalType": "bool",
          "name": "",
          "type": "bool"
        }
      ],
      "stateMutability": "view",
      "type": "function"
    }
  ],
  "bytecode": "0x60806040523480156200001157600080fd5b50604051620058693803806200586983398181016040526101008110156200003857600080fd5b81516020830151604080850151606086015160808701805193519597949692959194919392820192846401000000008211156200007457600080fd5b9083019060208201858111156200008a57600080fd5b8251640100000000811182820188101715620000a557600080fd5b82525081516020918201929091019080838360005b83811015620000d4578181015183820152602001620000ba565b50505050905090810190601f168015620001025780820380516001836020036101000a031916815260200191505b50604052602001805160405193929190846401000000008211156200012657600080fd5b9083019060208201858111156200013c57600080fd5b82516401000000008111828201881017156200015757600080fd5b82525081516020918201929091019080838360005b83811015620001865781810151838201526020016200016c565b50505050905090810190601f168015620001b45780820380516001836020036101000a031916815260200191505b506040908152602082810151929091015160038054610100600160a81b03191633610100021790559193509091506200020290889088908890889088908890620002c1811b620013a317901c565b601180546001600160a01b0319166001600160a01b038a81169190911791829055604080516318160ddd60e01b8152905192909116916318160ddd91600480820192602092909190829003018186803b1580156200025f57600080fd5b505afa15801562000274573d6000803e3d6000fd5b505050506040513d60208110156200028b57600080fd5b5050600380546001600160a01b0390921661010002610100600160a81b031990921691909117905550620008fe95505050505050565b60035461010090046001600160a01b03163314620003115760405162461bcd60e51b8152600401808060200182810382526024815260200180620057d06024913960400191505060405180910390fd5b600954158015620003225750600a54155b6200035f5760405162461bcd60e51b8152600401808060200182810382526023815260200180620057f46023913960400191505060405180910390fd5b600784905583620003a25760405162461bcd60e51b8152600401808060200182810382526030815260200180620058176030913960400191505060405180910390fd5b6000620003b8876001600160e01b03620004d716565b905080156200040e576040805162461bcd60e51b815260206004820152601a60248201527f73657474696e67207269736b4d616e61676572206661696c6564000000000000604482015290519081900360640190fd5b620004216001600160e01b036200064116565b600955670de0b6b3a7640000600a5562000444866001600160e01b036200064616565b90508015620004855760405162461bcd60e51b8152600401808060200182810382526022815260200180620058476022913960400191505060405180910390fd5b83516200049a9060019060208701906200085c565b508251620004b09060029060208601906200085c565b50506003805460ff90921660ff199283161790556000805490911660011790555050505050565b60035460009061010090046001600160a01b031633146200051157620005096001603f6001600160e01b03620007ec16565b90506200063c565b600554604080516354cb73dd60e11b815290516001600160a01b039283169285169163a996e7ba916004808301926020929190829003018186803b1580156200055957600080fd5b505afa1580156200056e573d6000803e3d6000fd5b505050506040513d60208110156200058557600080fd5b5051620005d9576040805162461bcd60e51b815260206004820152601c60248201527f6d61726b6572206d6574686f642072657475726e65642066616c736500000000604482015290519081900360640190fd5b600580546001600160a01b0319166001600160a01b03858116918217909255604080519284168352602083019190915280517f91249b936729aec99d65d412fab6e6488ab0eb306623fa400ad5397449ff362b9281900390910190a160005b9150505b919050565b435b90565b600354600090819061010090046001600160a01b0316331462000683576200067a600160426001600160e01b03620007ec16565b9150506200063c565b620006966001600160e01b036200064116565b60095414620006b6576200067a600a60416001600160e01b03620007ec16565b600660009054906101000a90046001600160a01b03169050826001600160a01b0316632191f92a6040518163ffffffff1660e01b815260040160206040518083038186803b1580156200070857600080fd5b505afa1580156200071d573d6000803e3d6000fd5b505050506040513d60208110156200073457600080fd5b505162000788576040805162461bcd60e51b815260206004820152601c60248201527f6d61726b6572206d6574686f642072657475726e65642066616c736500000000604482015290519081900360640190fd5b600680546001600160a01b0319166001600160a01b03858116918217909255604080519284168352602083019190915280517fedffc32e068c7c95dfd4bdfd5c4d939a084d6b11c4199eac8436ed234d72f9269281900390910190a1600062000638565b60007f45b96fe442630264581b197e84bbada861235052c5a1aadfff9ea4e40a969aa08360108111156200081c57fe5b8360508111156200082957fe5b604080519283526020830191909152600082820152519081900360600190a18260108111156200085557fe5b9392505050565b828054600181600116156101000203166002900490600052602060002090601f016020900481019282601f106200089f57805160ff1916838001178555620008cf565b82800160010185558215620008cf579182015b82811115620008cf578251825591602001919060010190620008b2565b50620008dd929150620008e1565b5090565b6200064391905b80821115620008dd5760008155600101620008e8565b614ec2806200090e6000396000f3fe6080604052600436106102935760003560e01c80638f840ddd1161015a578063bd6d894d116100c1578063f2b3abbd1161007a578063f2b3abbd14610a75578063f3fdb15a14610aa8578063f5e3c46214610abd578063f851a44014610af3578063f8f9da2814610b08578063fca7820b14610b1d57610293565b8063bd6d894d14610970578063c37f68e214610985578063c5ebeaec146109de578063db006a75146109fb578063dd62ed3e14610a25578063e9c714f214610a6057610293565b8063a6afed9511610113578063a6afed9514610882578063a9059cbb14610897578063aa5af0fd146108d0578063ae9d70b0146108e5578063b2a02ff1146108fa578063b71d1a0c1461093d57610293565b80638f840ddd14610685578063913e60981461069a57806395d89b41146106af57806395dd9193146106c457806399d8c1b4146106f7578063a0712d681461085857610293565b80633af9e669116101fe578063601a0bf1116101b7578063601a0bf1146105bf5780636c540baf146105e95780636f307dc3146105fe57806370a082311461061357806373acee9814610646578063852a12e31461065b57610293565b80633af9e6691461050e5780633b1d21a2146105415780633e94101014610556578063478426631461058057806347bd3718146105955780635a890c0e146105aa57610293565b806318160ddd1161025057806318160ddd14610419578063182df0f51461042e57806323b872dd146104435780632608f8181461048657806326782247146104b2578063313ce567146104e357610293565b806306fdde0314610298578063095ea7b3146103225780630dd16bed1461036f5780630e752702146103b4578063173b9904146103d157806317bfdfbc146103e6575b600080fd5b3480156102a457600080fd5b506102ad610b47565b6040805160208082528351818301528351919283929083019185019080838360005b838110156102e75781810151838201526020016102cf565b50505050905090810190601f1680156103145780820380516001836020036101000a031916815260200191505b509250505060405180910390f35b34801561032e57600080fd5b5061035b6004803603604081101561034557600080fd5b506001600160a01b038135169060200135610bd4565b604080519115158252519081900360200190f35b34801561037b57600080fd5b506103a26004803603602081101561039257600080fd5b50356001600160a01b0316610c41565b60408051918252519081900360200190f35b6103a2600480360360208110156103ca57600080fd5b5035610d9a565b3480156103dd57600080fd5b506103a2610e26565b3480156103f257600080fd5b506103a26004803603602081101561040957600080fd5b50356001600160a01b0316610e2c565b34801561042557600080fd5b506103a2610eec565b34801561043a57600080fd5b506103a2610ef2565b34801561044f57600080fd5b5061035b6004803603606081101561046657600080fd5b506001600160a01b03813581169160208101359091169060400135610f55565b6103a26004803603604081101561049c57600080fd5b506001600160a01b038135169060200135610fc7565b3480156104be57600080fd5b506104c7611055565b604080516001600160a01b039092168252519081900360200190f35b3480156104ef57600080fd5b506104f8611064565b6040805160ff9092168252519081900360200190f35b34801561051a57600080fd5b506103a26004803603602081101561053157600080fd5b50356001600160a01b031661106d565b34801561054d57600080fd5b506103a2611123565b34801561056257600080fd5b506103a26004803603602081101561057957600080fd5b5035611132565b34801561058c57600080fd5b506104c761113d565b3480156105a157600080fd5b506103a261114c565b3480156105b657600080fd5b5061035b611152565b3480156105cb57600080fd5b506103a2600480360360208110156105e257600080fd5b5035611157565b3480156105f557600080fd5b506103a26111f2565b34801561060a57600080fd5b506104c76111f8565b34801561061f57600080fd5b506103a26004803603602081101561063657600080fd5b50356001600160a01b0316611207565b34801561065257600080fd5b506103a2611222565b34801561066757600080fd5b506103a26004803603602081101561067e57600080fd5b50356112d8565b34801561069157600080fd5b506103a26112e3565b3480156106a657600080fd5b5061035b6112e9565b3480156106bb57600080fd5b506102ad6112ee565b3480156106d057600080fd5b506103a2600480360360208110156106e757600080fd5b50356001600160a01b0316611346565b34801561070357600080fd5b50610856600480360360c081101561071a57600080fd5b6001600160a01b0382358116926020810135909116916040820135919081019060808101606082013564010000000081111561075557600080fd5b82018360208201111561076757600080fd5b8035906020019184600183028401116401000000008311171561078957600080fd5b91908080601f01602080910402602001604051908101604052809392919081815260200183838082843760009201919091525092959493602081019350359150506401000000008111156107dc57600080fd5b8201836020820111156107ee57600080fd5b8035906020019184600183028401116401000000008311171561081057600080fd5b91908080601f0160208091040260200160405190810160405280939291908181526020018383808284376000920191909152509295505050903560ff1691506113a39050565b005b34801561086457600080fd5b506103a26004803603602081101561087b57600080fd5b503561158a565b34801561088e57600080fd5b506103a2611596565b3480156108a357600080fd5b5061035b600480360360408110156108ba57600080fd5b506001600160a01b0381351690602001356118ee565b3480156108dc57600080fd5b506103a261195f565b3480156108f157600080fd5b506103a2611965565b34801561090657600080fd5b506103a26004803603606081101561091d57600080fd5b506001600160a01b03813581169160208101359091169060400135611a04565b34801561094957600080fd5b506103a26004803603602081101561096057600080fd5b50356001600160a01b0316611a75565b34801561097c57600080fd5b506103a2611b01565b34801561099157600080fd5b506109b8600480360360208110156109a857600080fd5b50356001600160a01b0316611bbd565b604080519485526020850193909352838301919091526060830152519081900360800190f35b6103a2600480360360208110156109f457600080fd5b5035611c52565b348015610a0757600080fd5b506103a260048036036020811015610a1e57600080fd5b5035611cd4565b348015610a3157600080fd5b506103a260048036036040811015610a4857600080fd5b506001600160a01b0381358116916020013516611cdf565b348015610a6c57600080fd5b506103a2611d0a565b348015610a8157600080fd5b506103a260048036036020811015610a9857600080fd5b50356001600160a01b0316611e0d565b348015610ab457600080fd5b506104c7611e47565b6103a260048036036060811015610ad357600080fd5b506001600160a01b03813581169160208101359160409091013516611e56565b348015610aff57600080fd5b506104c7611ee8565b348015610b1457600080fd5b506103a2611efc565b348015610b2957600080fd5b506103a260048036036020811015610b4057600080fd5b5035611f60565b60018054604080516020600284861615610100026000190190941693909304601f81018490048402820184019092528181529291830182828015610bcc5780601f10610ba157610100808354040283529160200191610bcc565b820191906000526020600020905b815481529060010190602001808311610baf57829003601f168201915b505050505081565b336000818152600f602090815260408083206001600160a01b03871680855290835281842086905581518681529151939493909284927f8c5be1e5ebec7d5bd14f71427d1e84f3dd0314c0f7b2291e5b200ac8c7c3b925929081900390910190a360019150505b92915050565b60035460009061010090046001600160a01b03163314610c6e57610c676001603f611fde565b9050610d95565b600554604080516354cb73dd60e11b815290516001600160a01b039283169285169163a996e7ba916004808301926020929190829003018186803b158015610cb557600080fd5b505afa158015610cc9573d6000803e3d6000fd5b505050506040513d6020811015610cdf57600080fd5b5051610d32576040805162461bcd60e51b815260206004820152601c60248201527f6d61726b6572206d6574686f642072657475726e65642066616c736500000000604482015290519081900360640190fd5b600580546001600160a01b0319166001600160a01b03858116918217909255604080519284168352602083019190915280517f91249b936729aec99d65d412fab6e6488ab0eb306623fa400ad5397449ff362b9281900390910190a160005b9150505b919050565b6005546040805163653bc4f160e11b815230600482015290516000926001600160a01b03169163ca7789e291602480830192602092919082900301818787803b158015610de657600080fd5b505af1158015610dfa573d6000803e3d6000fd5b505050506040513d6020811015610e1057600080fd5b5060009050610e1e83612044565b509392505050565b60085481565b6000805460ff16610e71576040805162461bcd60e51b815260206004820152600a6024820152691c994b595b9d195c995960b21b604482015290519081900360640190fd5b6000805460ff19168155610e83611596565b14610ece576040805162461bcd60e51b81526020600482015260166024820152751858d8dc9d59481a5b9d195c995cdd0819985a5b195960521b604482015290519081900360640190fd5b610ed782611346565b90505b6000805460ff19166001179055919050565b600d5481565b6000806000610eff6120ed565b90925090506000826003811115610f1257fe5b14610f4e5760405162461bcd60e51b8152600401808060200182810382526035815260200180614dae6035913960400191505060405180910390fd5b9150505b90565b6000805460ff16610f9a576040805162461bcd60e51b815260206004820152600a6024820152691c994b595b9d195c995960b21b604482015290519081900360640190fd5b6000805460ff19168155610fb03386868661219c565b1490506000805460ff191660011790559392505050565b6005546040805163653bc4f160e11b815230600482015290516000926001600160a01b03169163ca7789e291602480830192602092919082900301818787803b15801561101357600080fd5b505af1158015611027573d6000803e3d6000fd5b505050506040513d602081101561103d57600080fd5b506000905061104c8484612428565b50949350505050565b6004546001600160a01b031681565b60035460ff1681565b6000611077614a98565b604051806020016040528061108a611b01565b90526001600160a01b0384166000908152600e60205260408120549192509081906110b69084906124d3565b909250905060008260038111156110c957fe5b1461111b576040805162461bcd60e51b815260206004820152601f60248201527f62616c616e636520636f756c64206e6f742062652063616c63756c6174656400604482015290519081900360640190fd5b949350505050565b600061112d612527565b905090565b6000610c3b826125a7565b6005546001600160a01b031681565b600b5481565b600181565b6000805460ff1661119c576040805162461bcd60e51b815260206004820152600a6024820152691c994b595b9d195c995960b21b604482015290519081900360640190fd5b6000805460ff191681556111ae611596565b905080156111d4576111cc8160108111156111c557fe5b6030611fde565b915050610eda565b6111dd8361263b565b9150506000805460ff19166001179055919050565b60095481565b6011546001600160a01b031681565b6001600160a01b03166000908152600e602052604090205490565b6000805460ff16611267576040805162461bcd60e51b815260206004820152600a6024820152691c994b595b9d195c995960b21b604482015290519081900360640190fd5b6000805460ff19168155611279611596565b146112c4576040805162461bcd60e51b81526020600482015260166024820152751858d8dc9d59481a5b9d195c995cdd0819985a5b195960521b604482015290519081900360640190fd5b50600b546000805460ff1916600117905590565b6000610c3b8261276e565b600c5481565b600090565b6002805460408051602060018416156101000260001901909316849004601f81018490048402820184019092528181529291830182828015610bcc5780601f10610ba157610100808354040283529160200191610bcc565b6000806000611354846127ef565b9092509050600082600381111561136757fe5b14610d915760405162461bcd60e51b8152600401808060200182810382526037815260200180614cec6037913960400191505060405180910390fd5b60035461010090046001600160a01b031633146113f15760405162461bcd60e51b8152600401808060200182810382526024815260200180614bf16024913960400191505060405180910390fd5b6009541580156114015750600a54155b61143c5760405162461bcd60e51b8152600401808060200182810382526023815260200180614c4c6023913960400191505060405180910390fd5b60078490558361147d5760405162461bcd60e51b8152600401808060200182810382526030815260200180614c6f6030913960400191505060405180910390fd5b600061148887610c41565b905080156114dd576040805162461bcd60e51b815260206004820152601a60248201527f73657474696e67207269736b4d616e61676572206661696c6564000000000000604482015290519081900360640190fd5b6114e56128a3565b600955670de0b6b3a7640000600a556114fd866128a7565b9050801561153c5760405162461bcd60e51b8152600401808060200182810382526022815260200180614c9f6022913960400191505060405180910390fd5b835161154f906001906020870190614aab565b508251611563906002906020860190614aab565b50506003805460ff90921660ff199283161790556000805490911660011790555050505050565b600080610e1e83612a1c565b6000806115a16128a3565b600954909150808214156115ba57600092505050610f52565b60006115c4612527565b600b54600c54600a54600654604080516315f2405360e01b815260048101879052602481018690526044810185905290519596509394929391926000926001600160a01b03909216916315f24053916064808301926020929190829003018186803b15801561163257600080fd5b505afa158015611646573d6000803e3d6000fd5b505050506040513d602081101561165c57600080fd5b5051905065048c273950008111156116bb576040805162461bcd60e51b815260206004820152601c60248201527f626f72726f772072617465206973206162737572646c79206869676800000000604482015290519081900360640190fd5b6000806116c88989612a9d565b909250905060008260038111156116db57fe5b1461172d576040805162461bcd60e51b815260206004820152601f60248201527f636f756c64206e6f742063616c63756c61746520626c6f636b2064656c746100604482015290519081900360640190fd5b611735614a98565b60008060008061175360405180602001604052808a81525087612ac0565b9097509450600087600381111561176657fe5b14611798576117836009600689600381111561177e57fe5b612b28565b9e505050505050505050505050505050610f52565b6117a2858c6124d3565b909750935060008760038111156117b557fe5b146117cd576117836009600189600381111561177e57fe5b6117d7848c612b8e565b909750925060008760038111156117ea57fe5b14611802576117836009600489600381111561177e57fe5b61181d6040518060200160405280600854815250858c612bb4565b9097509150600087600381111561183057fe5b14611848576117836009600589600381111561177e57fe5b611853858a8b612bb4565b9097509050600087600381111561186657fe5b1461187e576117836009600389600381111561177e57fe5b60098e9055600a819055600b839055600c829055604080518d8152602081018690528082018390526060810185905290517f4dec04e750ca11537cabcd8a9eab06494de08da3735bc8871cd41250e190bc049181900360800190a160009e50505050505050505050505050505090565b6000805460ff16611933576040805162461bcd60e51b815260206004820152600a6024820152691c994b595b9d195c995960b21b604482015290519081900360640190fd5b6000805460ff191681556119493333868661219c565b1490506000805460ff1916600117905592915050565b600a5481565b6006546000906001600160a01b031663b8168816611981612527565b600b54600c546008546040518563ffffffff1660e01b81526004018085815260200184815260200183815260200182815260200194505050505060206040518083038186803b1580156119d357600080fd5b505afa1580156119e7573d6000803e3d6000fd5b505050506040513d60208110156119fd57600080fd5b5051905090565b6000805460ff16611a49576040805162461bcd60e51b815260206004820152600a6024820152691c994b595b9d195c995960b21b604482015290519081900360640190fd5b6000805460ff19169055611a5f33858585612c10565b90506000805460ff191660011790559392505050565b60035460009061010090046001600160a01b03163314611a9b57610c6760016045611fde565b600480546001600160a01b038481166001600160a01b0319831681179093556040805191909216808252602082019390935281517fca4f2f25d0898edd99413412fb94012f9e54ec8142f9b093e7720646a95b16a9929181900390910190a16000610d91565b6000805460ff16611b46576040805162461bcd60e51b815260206004820152600a6024820152691c994b595b9d195c995960b21b604482015290519081900360640190fd5b6000805460ff19168155611b58611596565b14611ba3576040805162461bcd60e51b81526020600482015260166024820152751858d8dc9d59481a5b9d195c995cdd0819985a5b195960521b604482015290519081900360640190fd5b611bab610ef2565b90506000805460ff1916600117905590565b6001600160a01b0381166000908152600e6020526040812054819081908190818080611be8896127ef565b935090506000816003811115611bfa57fe5b14611c185760095b975060009650869550859450611c4b9350505050565b611c206120ed565b925090506000816003811115611c3257fe5b14611c3e576009611c02565b5060009650919450925090505b9193509193565b6005546040805163653bc4f160e11b815230600482015290516000926001600160a01b03169163ca7789e291602480830192602092919082900301818787803b158015611c9e57600080fd5b505af1158015611cb2573d6000803e3d6000fd5b505050506040513d6020811015611cc857600080fd5b50610c3b905082612dec565b6000610c3b82612e6b565b6001600160a01b039182166000908152600f6020908152604080832093909416825291909152205490565b6004546000906001600160a01b031633141580611d25575033155b15611d3d57611d3660016000611fde565b9050610f52565b60038054600480546001600160a01b03818116610100818102610100600160a81b0319871617968790556001600160a01b031990931690935560408051948390048216808652929095041660208401528351909391927ff9ffabca9c8276e99321725bcb43fb076a6c66a54b7f21c4e8146d8519b417dc92908290030190a1600454604080516001600160a01b038085168252909216602083015280517fca4f2f25d0898edd99413412fb94012f9e54ec8142f9b093e7720646a95b16a99281900390910190a160009250505090565b600080611e18611596565b90508015611e3e57611e36816010811115611e2f57fe5b6040611fde565b915050610d95565b610d91836128a7565b6006546001600160a01b031681565b6005546040805163653bc4f160e11b815230600482015290516000926001600160a01b03169163ca7789e291602480830192602092919082900301818787803b158015611ea257600080fd5b505af1158015611eb6573d6000803e3d6000fd5b505050506040513d6020811015611ecc57600080fd5b5060009050611edc858585612ee5565b509150505b9392505050565b60035461010090046001600160a01b031681565b6006546000906001600160a01b03166315f24053611f18612527565b600b54600c546040518463ffffffff1660e01b815260040180848152602001838152602001828152602001935050505060206040518083038186803b1580156119d357600080fd5b6000805460ff16611fa5576040805162461bcd60e51b815260206004820152600a6024820152691c994b595b9d195c995960b21b604482015290519081900360640190fd5b6000805460ff19168155611fb7611596565b90508015611fd5576111cc816010811115611fce57fe5b6046611fde565b6111dd83613017565b60007f45b96fe442630264581b197e84bbada861235052c5a1aadfff9ea4e40a969aa083601081111561200d57fe5b83605081111561201957fe5b604080519283526020830191909152600082820152519081900360600190a1826010811115611ee157fe5b60008054819060ff1661208b576040805162461bcd60e51b815260206004820152600a6024820152691c994b595b9d195c995960b21b604482015290519081900360640190fd5b6000805460ff1916815561209d611596565b905080156120c8576120bb8160108111156120b457fe5b6036611fde565b9250600091506120d99050565b6120d33333866130bf565b92509250505b6000805460ff191660011790559092909150565b600d5460009081908061210857505060075460009150612198565b6000612112612527565b9050600061211e614a98565b600061212f84600b54600c5461340d565b93509050600081600381111561214157fe5b14612156579550600094506121989350505050565b612160838661344b565b92509050600081600381111561217257fe5b14612187579550600094506121989350505050565b505160009550935061219892505050565b9091565b600554604080516317b9b84b60e31b81523060048201526001600160a01b03868116602483015285811660448301526064820185905291516000938493169163bdcdc25891608480830192602092919082900301818787803b15801561220157600080fd5b505af1158015612215573d6000803e3d6000fd5b505050506040513d602081101561222b57600080fd5b50519050801561224a576122426003604a83612b28565b91505061111b565b836001600160a01b0316856001600160a01b03161415612270576122426002604b611fde565b60006001600160a01b03878116908716141561228f57506000196122b7565b506001600160a01b038086166000908152600f60209081526040808320938a16835292905220545b6000806000806122c78589612a9d565b909450925060008460038111156122da57fe5b146122f8576122eb6009604b611fde565b965050505050505061111b565b6001600160a01b038a166000908152600e602052604090205461231b9089612a9d565b9094509150600084600381111561232e57fe5b1461233f576122eb6009604c611fde565b6001600160a01b0389166000908152600e60205260409020546123629089612b8e565b9094509050600084600381111561237557fe5b14612386576122eb6009604d611fde565b6001600160a01b03808b166000908152600e6020526040808220859055918b1681522081905560001985146123de576001600160a01b03808b166000908152600f60209081526040808320938f168352929052208390555b886001600160a01b03168a6001600160a01b0316600080516020614d5d8339815191528a6040518082815260200191505060405180910390a35060009a9950505050505050505050565b60008054819060ff1661246f576040805162461bcd60e51b815260206004820152600a6024820152691c994b595b9d195c995960b21b604482015290519081900360640190fd5b6000805460ff19168155612481611596565b905080156124ac5761249f81601081111561249857fe5b6035611fde565b9250600091506124bd9050565b6124b73386866130bf565b92509250505b6000805460ff1916600117905590939092509050565b60008060006124e0614a98565b6124ea8686612ac0565b909250905060008260038111156124fd57fe5b1461250e5750915060009050612520565b6000612519826134fc565b9350935050505b9250929050565b601154604080516370a0823160e01b815230600482015290516000926001600160a01b03169182916370a0823191602480820192602092909190829003018186803b15801561257557600080fd5b505afa158015612589573d6000803e3d6000fd5b505050506040513d602081101561259f57600080fd5b505191505090565b6000805460ff166125ec576040805162461bcd60e51b815260206004820152600a6024820152691c994b595b9d195c995960b21b604482015290519081900360640190fd5b6000805460ff191681556125fe611596565b9050801561261c576111cc81601081111561261557fe5b604e611fde565b6126258361350b565b509150506000805460ff19166001179055919050565b600354600090819061010090046001600160a01b0316331461266357611e3660016031611fde565b61266b6128a3565b6009541461267f57611e36600a6033611fde565b82612688612527565b101561269a57611e36600e6032611fde565b600c548311156126b057611e3660026034611fde565b50600c54828103908111156126f65760405162461bcd60e51b8152600401808060200182810382526024815260200180614e696024913960400191505060405180910390fd5b600c8190556003546127169061010090046001600160a01b0316846135f3565b600354604080516101009092046001600160a01b0316825260208201859052818101839052517f3bad0c59cf2f06e7314077049f48a93578cd16f5ef92329f1dab1420a99c177e916060908290030190a16000610d91565b6000805460ff166127b3576040805162461bcd60e51b815260206004820152600a6024820152691c994b595b9d195c995960b21b604482015290519081900360640190fd5b6000805460ff191681556127c5611596565b905080156127e3576111cc8160108111156127dc57fe5b6027611fde565b6111dd33600085613615565b6001600160a01b03811660009081526010602052604081208054829182918291829161282657506000945084935061289e92505050565b6128368160000154600a54613a50565b9094509250600084600381111561284957fe5b1461285e57509193506000925061289e915050565b61286c838260010154613a8f565b9094509150600084600381111561287f57fe5b1461289457509193506000925061289e915050565b5060009450925050505b915091565b4390565b600354600090819061010090046001600160a01b031633146128cf57611e3660016042611fde565b6128d76128a3565b600954146128eb57611e36600a6041611fde565b600660009054906101000a90046001600160a01b03169050826001600160a01b0316632191f92a6040518163ffffffff1660e01b815260040160206040518083038186803b15801561293c57600080fd5b505afa158015612950573d6000803e3d6000fd5b505050506040513d602081101561296657600080fd5b50516129b9576040805162461bcd60e51b815260206004820152601c60248201527f6d61726b6572206d6574686f642072657475726e65642066616c736500000000604482015290519081900360640190fd5b600680546001600160a01b0319166001600160a01b03858116918217909255604080519284168352602083019190915280517fedffc32e068c7c95dfd4bdfd5c4d939a084d6b11c4199eac8436ed234d72f9269281900390910190a16000610d91565b60008054819060ff16612a63576040805162461bcd60e51b815260206004820152600a6024820152691c994b595b9d195c995960b21b604482015290519081900360640190fd5b6000805460ff19168155612a75611596565b90508015612a93576120bb816010811115612a8c57fe5b601e611fde565b6120d33385613aba565b600080838311612ab4575060009050818303612520565b50600390506000612520565b6000612aca614a98565b600080612adb866000015186613a50565b90925090506000826003811115612aee57fe5b14612b0d57506040805160208101909152600081529092509050612520565b60408051602081019091529081526000969095509350505050565b60007f45b96fe442630264581b197e84bbada861235052c5a1aadfff9ea4e40a969aa0846010811115612b5757fe5b846050811115612b6357fe5b604080519283526020830191909152818101859052519081900360600190a183601081111561111b57fe5b600080838301848110612ba657600092509050612520565b506002915060009050612520565b6000806000612bc1614a98565b612bcb8787612ac0565b90925090506000826003811115612bde57fe5b14612bef5750915060009050612c08565b612c01612bfb826134fc565b86612b8e565b9350935050505b935093915050565b6005546040805163d02f735160e01b81523060048201526001600160a01b038781166024830152868116604483015285811660648301526084820185905291516000938493169163d02f73519160a480830192602092919082900301818787803b158015612c7d57600080fd5b505af1158015612c91573d6000803e3d6000fd5b505050506040513d6020811015612ca757600080fd5b505190508015612cbe576122426003601b83612b28565b846001600160a01b0316846001600160a01b03161415612ce4576122426006601c611fde565b6001600160a01b0384166000908152600e602052604081205481908190612d0b9087612a9d565b90935091506000836003811115612d1e57fe5b14612d4157612d366009601a85600381111561177e57fe5b94505050505061111b565b6001600160a01b0388166000908152600e6020526040902054612d649087612b8e565b90935090506000836003811115612d7757fe5b14612d8f57612d366009601985600381111561177e57fe5b6001600160a01b038088166000818152600e60209081526040808320879055938c168083529184902085905583518a815293519193600080516020614d5d833981519152929081900390910190a360009998505050505050505050565b6000805460ff16612e31576040805162461bcd60e51b815260206004820152600a6024820152691c994b595b9d195c995960b21b604482015290519081900360640190fd5b6000805460ff19168155612e43611596565b90508015612e61576111cc816010811115612e5a57fe5b6008611fde565b6111dd3384613e8a565b6000805460ff16612eb0576040805162461bcd60e51b815260206004820152600a6024820152691c994b595b9d195c995960b21b604482015290519081900360640190fd5b6000805460ff19168155612ec2611596565b90508015612ed9576111cc8160108111156127dc57fe5b6111dd33846000613615565b60008054819060ff16612f2c576040805162461bcd60e51b815260206004820152600a6024820152691c994b595b9d195c995960b21b604482015290519081900360640190fd5b6000805460ff19168155612f3e611596565b90508015612f6957612f5c816010811115612f5557fe5b600f611fde565b9250600091506130009050565b836001600160a01b031663a6afed956040518163ffffffff1660e01b8152600401602060405180830381600087803b158015612fa457600080fd5b505af1158015612fb8573d6000803e3d6000fd5b505050506040513d6020811015612fce57600080fd5b505190508015612fee57612f5c816010811115612fe757fe5b6010611fde565b612ffa3387878761411e565b92509250505b6000805460ff191660011790559094909350915050565b60035460009061010090046001600160a01b0316331461303d57610c6760016047611fde565b6130456128a3565b6009541461305957610c67600a6048611fde565b670de0b6b3a764000082111561307557610c6760026049611fde565b6008805490839055604080518281526020810185905281517faaa68312e2ea9d50e16af5068410ab56e1a1fd06037b1a35664812c30f821460929181900390910190a16000610d91565b60055460408051631200453160e11b81523060048201526001600160a01b0386811660248301528581166044830152606482018590529151600093849384939116916324008a629160848082019260209290919082900301818787803b15801561312857600080fd5b505af115801561313c573d6000803e3d6000fd5b505050506040513d602081101561315257600080fd5b505190508015613176576131696003603883612b28565b925060009150612c089050565b61317e6128a3565b6009541461319257613169600a6039611fde565b61319a614b29565b6001600160a01b03861660009081526010602052604090206001015460608201526131c4866127ef565b60808301819052602083018260038111156131db57fe5b60038111156131e657fe5b90525060009050816020015160038111156131fd57fe5b1461322757613219600960378360200151600381111561177e57fe5b935060009250612c08915050565b6000198514156132405760808101516040820152613248565b604081018590525b613256878260400151614610565b60e08201819052608082015161326b91612a9d565b60a083018190526020830182600381111561328257fe5b600381111561328d57fe5b90525060009050816020015160038111156132a457fe5b146132e05760405162461bcd60e51b815260040180806020018281038252603a815260200180614d23603a913960400191505060405180910390fd5b6132f0600b548260e00151612a9d565b60c083018190526020830182600381111561330757fe5b600381111561331257fe5b905250600090508160200151600381111561332957fe5b146133655760405162461bcd60e51b8152600401808060200182810382526031815260200180614d7d6031913960400191505060405180910390fd5b60a080820180516001600160a01b03808a16600081815260106020908152604091829020948555600a5460019095019490945560c0870151600b81905560e088015195518251948f16855294840192909252828101949094526060820192909252608081019190915290517f1a2a22cb034d26d1854bdc6666a5b91fe25efbbb5dcad3b0355478d6f5c362a1929181900390910190a160e00151600097909650945050505050565b60008060008061341d8787612b8e565b9092509050600082600381111561343057fe5b146134415750915060009050612c08565b612c018186612a9d565b6000613455614a98565b60008061346a86670de0b6b3a7640000613a50565b9092509050600082600381111561347d57fe5b1461349c57506040805160208101909152600081529092509050612520565b6000806134a98388613a8f565b909250905060008260038111156134bc57fe5b146134df5781604051806020016040528060008152509550955050505050612520565b604080516020810190915290815260009890975095505050505050565b51670de0b6b3a7640000900490565b6000806000806135196128a3565b600954146135385761352d600a604f611fde565b9350915061289e9050565b6135423386614610565b905080600c54019150600c548210156135a2576040805162461bcd60e51b815260206004820181905260248201527f61646420726573657276657320756e6578706563746564206f766572666c6f77604482015290519081900360640190fd5b600c829055604080513381526020810183905280820184905290517fa91e67c5ea634cd43a12c5a482724b03de01e85ca68702a53d0c2f45cb7c1dc59181900360600190a160009350915050915091565b6011546001600160a01b031661361081848463ffffffff61477f16565b505050565b6000821580613622575081155b61365d5760405162461bcd60e51b8152600401808060200182810382526034815260200180614e356034913960400191505060405180910390fd5b613665614b6f565b61366d6120ed565b604083018190526020830182600381111561368457fe5b600381111561368f57fe5b90525060009050816020015160038111156136a657fe5b146136ca576136c26009602b8360200151600381111561177e57fe5b915050611ee1565b831561374b5760608101849052604080516020810182529082015181526136f190856124d3565b608083018190526020830182600381111561370857fe5b600381111561371357fe5b905250600090508160200151600381111561372a57fe5b14613746576136c2600960298360200151600381111561177e57fe5b6137c4565b61376783604051806020016040528084604001518152506147d1565b606083018190526020830182600381111561377e57fe5b600381111561378957fe5b90525060009050816020015160038111156137a057fe5b146137bc576136c26009602a8360200151600381111561177e57fe5b608081018390525b60055460608201516040805163eabe7d9160e01b81523060048201526001600160a01b03898116602483015260448201939093529051600093929092169163eabe7d919160648082019260209290919082900301818787803b15801561382957600080fd5b505af115801561383d573d6000803e3d6000fd5b505050506040513d602081101561385357600080fd5b5051905080156138735761386a6003602883612b28565b92505050611ee1565b61387b6128a3565b6009541461388f5761386a600a602c611fde565b61389f600d548360600151612a9d565b60a08401819052602084018260038111156138b657fe5b60038111156138c157fe5b90525060009050826020015160038111156138d857fe5b146138f45761386a6009602e8460200151600381111561177e57fe5b6001600160a01b0386166000908152600e6020526040902054606083015161391c9190612a9d565b60c084018190526020840182600381111561393357fe5b600381111561393e57fe5b905250600090508260200151600381111561395557fe5b146139715761386a6009602d8460200151600381111561177e57fe5b816080015161397e612527565b10156139905761386a600e602f611fde565b61399e8683608001516135f3565b60a0820151600d5560c08201516001600160a01b0387166000818152600e6020908152604091829020939093556060850151815190815290513093600080516020614d5d833981519152928290030190a36080820151606080840151604080516001600160a01b038b168152602081019490945283810191909152517fe5b754fb1abb7f01b499791d0b820ae3b6af3424ac1c59768edb53f4ec31a9299281900390910190a160009695505050505050565b60008083613a6357506000905080612520565b83830283858281613a7057fe5b0414613a8457506002915060009050612520565b600092509050612520565b60008082613aa35750600190506000612520565b6000838581613aae57fe5b04915091509250929050565b60055460408051634ef4c3e160e01b81523060048201526001600160a01b03858116602483015260448201859052915160009384938493911691634ef4c3e19160648082019260209290919082900301818787803b158015613b1b57600080fd5b505af1158015613b2f573d6000803e3d6000fd5b505050506040513d6020811015613b4557600080fd5b505190508015613b6957613b5c6003601f83612b28565b9250600091506125209050565b613b716128a3565b60095414613b8557613b5c600a6022611fde565b613b8d614b6f565b613b956120ed565b6040830181905260208301826003811115613bac57fe5b6003811115613bb757fe5b9052506000905081602001516003811115613bce57fe5b14613bf857613bea600960218360200151600381111561177e57fe5b935060009250612520915050565b613c028686614610565b60c0820181905260408051602081018252908301518152613c2391906147d1565b6060830181905260208301826003811115613c3a57fe5b6003811115613c4557fe5b9052506000905081602001516003811115613c5c57fe5b14613cae576040805162461bcd60e51b815260206004820181905260248201527f4d494e545f45584348414e47455f43414c43554c4154494f4e5f4641494c4544604482015290519081900360640190fd5b613cbe600d548260600151612b8e565b6080830181905260208301826003811115613cd557fe5b6003811115613ce057fe5b9052506000905081602001516003811115613cf757fe5b14613d335760405162461bcd60e51b8152600401808060200182810382526028815260200180614de36028913960400191505060405180910390fd5b6001600160a01b0386166000908152600e60205260409020546060820151613d5b9190612b8e565b60a0830181905260208301826003811115613d7257fe5b6003811115613d7d57fe5b9052506000905081602001516003811115613d9457fe5b14613dd05760405162461bcd60e51b815260040180806020018281038252602b815260200180614cc1602b913960400191505060405180910390fd5b6080810151600d5560a08101516001600160a01b0387166000818152600e60209081526040918290209390935560c084015160608086015183519485529484019190915282820193909352517f4c209b5fc8ad50758f13e2e1088ba56a560dff690a1c6fef26394f4c03821c4f929181900390910190a1606081015160408051918252516001600160a01b038816913091600080516020614d5d8339815191529181900360200190a360c001516000969095509350505050565b6005546040805163368f515360e21b81523060048201526001600160a01b0385811660248301526044820185905291516000938493169163da3d454c91606480830192602092919082900301818787803b158015613ee757600080fd5b505af1158015613efb573d6000803e3d6000fd5b505050506040513d6020811015613f1157600080fd5b505190508015613f3057613f286003600e83612b28565b915050610c3b565b613f386128a3565b60095414613f4b57613f28600a80611fde565b82613f54612527565b1015613f6657613f28600e6009611fde565b613f6e614bad565b613f77856127ef565b6020830181905282826003811115613f8b57fe5b6003811115613f9657fe5b9052506000905081516003811115613faa57fe5b14613fcf57613fc6600960078360000151600381111561177e57fe5b92505050610c3b565b613fdd816020015185612b8e565b6040830181905282826003811115613ff157fe5b6003811115613ffc57fe5b905250600090508151600381111561401057fe5b1461402c57613fc66009600c8360000151600381111561177e57fe5b614038600b5485612b8e565b606083018190528282600381111561404c57fe5b600381111561405757fe5b905250600090508151600381111561406b57fe5b1461408757613fc66009600b8360000151600381111561177e57fe5b61409185856135f3565b604080820180516001600160a01b03881660008181526010602090815290859020928355600a54600190930192909255606080860151600b81905593518551928352928201899052818501929092529081019190915290517f13ed6866d4e1ee6da46f845c46d7e54120883d75c5ea9a2dacc1c4ca8984ab809181900360800190a1600095945050505050565b60055460408051632fe3f38f60e11b81523060048201526001600160a01b0384811660248301528781166044830152868116606483015260848201869052915160009384938493911691635fc7e71e9160a48082019260209290919082900301818787803b15801561418f57600080fd5b505af11580156141a3573d6000803e3d6000fd5b505050506040513d60208110156141b957600080fd5b5051905080156141dd576141d06003601283612b28565b9250600091506146079050565b6141e56128a3565b600954146141f9576141d0600a6016611fde565b6142016128a3565b846001600160a01b0316636c540baf6040518163ffffffff1660e01b815260040160206040518083038186803b15801561423a57600080fd5b505afa15801561424e573d6000803e3d6000fd5b505050506040513d602081101561426457600080fd5b505114614277576141d0600a6011611fde565b866001600160a01b0316866001600160a01b0316141561429d576141d060066017611fde565b846142ae576141d060076015611fde565b6000198514156142c4576141d060076014611fde565b6000806142d28989896130bf565b90925090508115614302576142f38260108111156142ec57fe5b6018611fde565b94506000935061460792505050565b6005546040805163c488847b60e01b81523060048201526001600160a01b038981166024830152604482018590528251600094859492169263c488847b926064808301939192829003018186803b15801561435c57600080fd5b505afa158015614370573d6000803e3d6000fd5b505050506040513d604081101561438657600080fd5b508051602090910151909250905081156143d15760405162461bcd60e51b8152600401808060200182810382526037815260200180614c156037913960400191505060405180910390fd5b80886001600160a01b03166370a082318c6040518263ffffffff1660e01b815260040180826001600160a01b03166001600160a01b0316815260200191505060206040518083038186803b15801561442857600080fd5b505afa15801561443c573d6000803e3d6000fd5b505050506040513d602081101561445257600080fd5b505110156144a7576040805162461bcd60e51b815260206004820152601860248201527f4c49515549444154455f5345495a455f544f4f5f4d5543480000000000000000604482015290519081900360640190fd5b60006001600160a01b0389163014156144cd576144c6308d8d85612c10565b9050614557565b6040805163b2a02ff160e01b81526001600160a01b038e811660048301528d81166024830152604482018590529151918b169163b2a02ff1916064808201926020929091908290030181600087803b15801561452857600080fd5b505af115801561453c573d6000803e3d6000fd5b505050506040513d602081101561455257600080fd5b505190505b80156145a1576040805162461bcd60e51b81526020600482015260146024820152731d1bdad95b881cd95a5e9d5c994819985a5b195960621b604482015290519081900360640190fd5b604080516001600160a01b03808f168252808e1660208301528183018790528b1660608201526080810184905290517f298637f684da70674f26509b10f07ec2fbc77a335ab1e7d6215a4b2484d8bb529181900360a00190a16000975092955050505050505b94509492505050565b601154604080516370a0823160e01b815230600482015290516000926001600160a01b031691839183916370a08231916024808301926020929190829003018186803b15801561465f57600080fd5b505afa158015614673573d6000803e3d6000fd5b505050506040513d602081101561468957600080fd5b505190506146a86001600160a01b03831686308763ffffffff6147e816565b601154604080516370a0823160e01b815230600482015290516000926001600160a01b0316916370a08231916024808301926020929190829003018186803b1580156146f357600080fd5b505afa158015614707573d6000803e3d6000fd5b505050506040513d602081101561471d57600080fd5b5051905081811015614776576040805162461bcd60e51b815260206004820152601a60248201527f544f4b454e5f5452414e534645525f494e5f4f564552464c4f57000000000000604482015290519081900360640190fd5b03949350505050565b604080516001600160a01b038416602482015260448082018490528251808303909101815260649091019091526020810180516001600160e01b031663a9059cbb60e01b179052613610908490614848565b60008060006147de614a98565b6124ea8686614a00565b604080516001600160a01b0380861660248301528416604482015260648082018490528251808303909101815260849091019091526020810180516001600160e01b03166323b872dd60e01b179052614842908590614848565b50505050565b61485a826001600160a01b0316614a5f565b6148ab576040805162461bcd60e51b815260206004820152601f60248201527f5361666545524332303a2063616c6c20746f206e6f6e2d636f6e747261637400604482015290519081900360640190fd5b60006060836001600160a01b0316836040518082805190602001908083835b602083106148e95780518252601f1990920191602091820191016148ca565b6001836020036101000a0380198251168184511680821785525050505050509050019150506000604051808303816000865af19150503d806000811461494b576040519150601f19603f3d011682016040523d82523d6000602084013e614950565b606091505b5091509150816149a7576040805162461bcd60e51b815260206004820181905260248201527f5361666545524332303a206c6f772d6c6576656c2063616c6c206661696c6564604482015290519081900360640190fd5b805115614842578080602001905160208110156149c357600080fd5b50516148425760405162461bcd60e51b815260040180806020018281038252602a815260200180614e0b602a913960400191505060405180910390fd5b6000614a0a614a98565b600080614a1f670de0b6b3a764000087613a50565b90925090506000826003811115614a3257fe5b14614a5157506040805160208101909152600081529092509050612520565b61251981866000015161344b565b6000813f7fc5d2460186f7233c927e7db2dcc703c0e500b653ca82273b7bfad8045d85a47081811480159061111b575050151592915050565b6040518060200160405280600081525090565b828054600181600116156101000203166002900490600052602060002090601f016020900481019282601f10614aec57805160ff1916838001178555614b19565b82800160010185558215614b19579182015b82811115614b19578251825591602001919060010190614afe565b50614b25929150614bd6565b5090565b6040805161010081019091528060008152602001600081526020016000815260200160008152602001600081526020016000815260200160008152602001600081525090565b6040805160e0810190915280600081526020016000815260200160008152602001600081526020016000815260200160008152602001600081525090565b604080516080810190915280600081526020016000815260200160008152602001600081525090565b610f5291905b80821115614b255760008155600101614bdc56fe6f6e6c792061646d696e206d617920696e697469616c697a6520746865206d61726b65744c49515549444154455f504f4f4c58434f4e54524f4c4c45525f43414c43554c4154455f414d4f554e545f5345495a455f4641494c45446d61726b6574206d6179206f6e6c7920626520696e697469616c697a6564206f6e6365696e697469616c2065786368616e67652072617465206d7573742062652067726561746572207468616e207a65726f2e73657474696e6720696e7465726573742072617465206d6f64656c206661696c65644d494e545f4e45575f4143434f554e545f42414c414e43455f43414c43554c4154494f4e5f4641494c4544626f72726f7742616c616e636553746f7265643a20626f72726f7742616c616e636553746f726564496e7465726e616c206661696c656452455041595f424f52524f575f4e45575f4143434f554e545f424f52524f575f42414c414e43455f43414c43554c4154494f4e5f4641494c4544ddf252ad1be2c89b69c2b068fc378daa952ba7f163c4a11628f55a4df523b3ef52455041595f424f52524f575f4e45575f544f54414c5f42414c414e43455f43414c43554c4154494f4e5f4641494c454465786368616e67655261746553746f7265643a2065786368616e67655261746553746f726564496e7465726e616c206661696c65644d494e545f4e45575f544f54414c5f535550504c595f43414c43554c4154494f4e5f4641494c45445361666545524332303a204552433230206f7065726174696f6e20646964206e6f7420737563636565646f6e65206f662072656465656d546f6b656e73496e206f722072656465656d416d6f756e74496e206d757374206265207a65726f72656475636520726573657276657320756e657870656374656420756e646572666c6f77a2646970667358221220f844ab5191736d2af282850b3c2c9d166c8f020a6def3b69afd9903553f2472164736f6c634300060900336f6e6c792061646d696e206d617920696e697469616c697a6520746865206d61726b65746d61726b6574206d6179206f6e6c7920626520696e697469616c697a6564206f6e6365696e697469616c2065786368616e67652072617465206d7573742062652067726561746572207468616e207a65726f2e73657474696e6720696e7465726573742072617465206d6f64656c206661696c6564",
  "immutableReferences": {},
  "source": "// SPDX-License-Identifier: UNLICENSED\npragma solidity ^0.6.9;\n\nimport \"../tokenization/PToken.sol\";\nimport \"@openzeppelin/contracts/token/ERC20/SafeERC20.sol\";\nimport \"@openzeppelin/contracts/token/ERC20/IERC20.sol\";\n\ncontract PErc20 is PToken, IPErc20 {\n    using SafeERC20 for IERC20;\n    /**\n     * @notice Initialize the new money market\n     * @param underlying_ The address of the underlying asset\n     * @param riskManager_ The address of the RiskManager\n     * @param interestRateModel_ The address of the interest rate model\n     * @param initialExchangeRateMantissa_ The initial exchange rate, scaled by 1e18\n     * @param name_ ERC-20 name of this token\n     * @param symbol_ ERC-20 symbol of this token\n     * @param decimals_ ERC-20 decimal precision of this token\n     */\n    constructor(address underlying_,\n                        IRiskManager riskManager_,\n                        InterestRateModel interestRateModel_,\n                        uint initialExchangeRateMantissa_,\n                        string memory name_,\n                        string memory symbol_,\n                        uint8 decimals_,\n                        address payable admin_) public {\n        admin = msg.sender;\n\n        // pToken initialize does the bulk of the work\n        super.initialize(riskManager_, interestRateModel_, initialExchangeRateMantissa_, name_, symbol_, decimals_);\n\n        // Set underlying and sanity check it\n        underlying = underlying_;\n        IERC20(underlying).totalSupply();\n\n        admin = admin_;\n    }\n\n    /*** User Interface ***/\n\n    /**\n     * @notice Sender supplies assets into the market and receives pTokens in exchange\n     * @dev Accrues interest whether or not the operation succeeds, unless reverted\n     * @param mintAmount The amount of the underlying asset to supply\n     * @return uint 0=success, otherwise a failure (see ErrorReporter.sol for details)\n     */\n    function mint(uint mintAmount) external override returns (uint) {\n        (uint err,) = mintInternal(mintAmount);\n        return err;\n    }\n\n    /**\n     * @notice Sender redeems pTokens in exchange for the underlying asset\n     * @dev Accrues interest whether or not the operation succeeds, unless reverted\n     * @param redeemTokens The number of pTokens to redeem into underlying\n     * @return uint 0=success, otherwise a failure (see ErrorReporter.sol for details)\n     */\n    function redeem(uint redeemTokens) external override returns (uint) {\n        return redeemInternal(redeemTokens);\n    }\n\n    /**\n     * @notice Sender redeems pTokens in exchange for a specified amount of underlying asset\n     * @dev Accrues interest whether or not the operation succeeds, unless reverted\n     * @param redeemAmount The amount of underlying to redeem\n     * @return uint 0=success, otherwise a failure (see ErrorReporter.sol for details)\n     */\n    function redeemUnderlying(uint redeemAmount) external override returns (uint) {\n        return redeemUnderlyingInternal(redeemAmount);\n    }\n\n    /**\n      * @notice Sender borrows assets from the protocol to their own address\n      * @param borrowAmount The amount of the underlying asset to borrow\n      * @return uint 0=success, otherwise a failure (see ErrorReporter.sol for details)\n      */\n    function borrow(uint borrowAmount) external payable override returns (uint) {\n        riskManager.updateAndGetTokenPrice(address(this));\n        return borrowInternal(borrowAmount);\n    }\n\n    /**\n     * @notice Sender repays their own borrow\n     * @param repayAmount The amount to repay\n     * @return uint 0=success, otherwise a failure (see ErrorReporter.sol for details)\n     */\n    function repayBorrow(uint repayAmount) external payable override returns (uint) {\n        riskManager.updateAndGetTokenPrice(address(this));\n        (uint err,) = repayBorrowInternal(repayAmount);\n        return err;\n    }\n\n    /**\n     * @notice Sender repays a borrow belonging to borrower\n     * @param borrower the account with the debt being payed off\n     * @param repayAmount The amount to repay\n     * @return uint 0=success, otherwise a failure (see ErrorReporter.sol for details)\n     */\n    function repayBorrowBehalf(address borrower, uint repayAmount) external payable override returns (uint) {\n        riskManager.updateAndGetTokenPrice(address(this));\n        (uint err,) = repayBorrowBehalfInternal(borrower, repayAmount);\n        return err;\n    }\n\n    /**\n     * @notice The sender liquidates the borrowers collateral.\n     *  The collateral seized is transferred to the liquidator.\n     * @param borrower The borrower of this pToken to be liquidated\n     * @param repayAmount The amount of the underlying borrowed asset to repay\n     * @param pTokenCollateral The market in which to seize collateral from the borrower\n     * @return uint 0=success, otherwise a failure (see ErrorReporter.sol for details)\n     */\n    function liquidateBorrow(address borrower, uint repayAmount, IPToken pTokenCollateral) external payable override returns (uint) {\n        riskManager.updateAndGetTokenPrice(address(this));\n        (uint err,) = liquidateBorrowInternal(borrower, repayAmount, pTokenCollateral);\n        return err;\n    }\n\n    /**\n     * @notice The sender adds to reserves.\n     * @param addAmount The amount fo underlying token to add as reserves\n     * @return uint 0=success, otherwise a failure (see ErrorReporter.sol for details)\n     */\n    function _addReserves(uint addAmount) external override returns (uint) {\n        return _addReservesInternal(addAmount);\n    }\n\n    function isForETH() public view override returns (bool) {\n        return false;\n    }\n    /*** Safe Token ***/\n\n    /**\n     * @notice Gets balance of this contract in terms of the underlying\n     * @dev This excludes the value of the current message, if any\n     * @return The quantity of underlying tokens owned by this contract\n     */\n    function getCashPrior() internal view override returns (uint) {\n        IERC20 token = IERC20(underlying);\n        return token.balanceOf(address(this));\n    }\n\n    function doTransferIn(address from, uint amount) internal override returns (uint) {\n        IERC20 token = IERC20(underlying);\n        uint balanceBefore = IERC20(underlying).balanceOf(address(this));\n        token.safeTransferFrom(from, address(this), amount);\n\n        // Calculate the amount that was *actually* transferred\n        uint balanceAfter = IERC20(underlying).balanceOf(address(this));\n        require(balanceAfter >= balanceBefore, \"TOKEN_TRANSFER_IN_OVERFLOW\");\n        return balanceAfter - balanceBefore;   // underflow already checked above, just subtract\n    }\n\n    function doTransferOut(address payable to, uint amount) internal override {\n        IERC20 token = IERC20(underlying);\n        token.safeTransfer(to, amount);\n    }\n}\n",
  "sourcePath": "/Users/ashton/repo/blockchain/eth/smartcontracts/PoolX/contracts/tokenization/PErc20.sol",
  "compiler": {
    "name": "solc",
    "version": "0.6.9+commit.3e3065ac.Emscripten.clang"
  },
  "schemaVersion": "3.2.0",
  "updatedAt": "2020-08-13T21:54:51.671Z",
  "devdoc": {
    "methods": {
      "_acceptAdmin()": {
        "details": "Admin function for pending admin to accept role and update admin",
        "returns": {
          "_0": "uint 0=success, otherwise a failure (see ErrorReporter.sol for details)"
        }
      },
      "_addReserves(uint256)": {
        "params": {
          "addAmount": "The amount fo underlying token to add as reserves"
        },
        "returns": {
          "_0": "uint 0=success, otherwise a failure (see ErrorReporter.sol for details)"
        }
      },
      "_reduceReserves(uint256)": {
        "params": {
          "reduceAmount": "Amount of reduction to reserves"
        },
        "returns": {
          "_0": "uint 0=success, otherwise a failure (see ErrorReporter.sol for details)"
        }
      },
      "_setInterestRateModel(address)": {
        "details": "Admin function to accrue interest and update the interest rate model",
        "params": {
          "newInterestRateModel": "the new interest rate model to use"
        },
        "returns": {
          "_0": "uint 0=success, otherwise a failure (see ErrorReporter.sol for details)"
        }
      },
      "_setPendingAdmin(address)": {
        "details": "Admin function to begin change of admin. The newPendingAdmin must call `_acceptAdmin` to finalize the transfer.",
        "params": {
          "newPendingAdmin": "New pending admin."
        },
        "returns": {
          "_0": "uint 0=success, otherwise a failure (see ErrorReporter.sol for details)"
        }
      },
      "_setReserveFactor(uint256)": {
        "details": "Admin function to accrue interest and set a new reserve factor",
        "returns": {
          "_0": "uint 0=success, otherwise a failure (see ErrorReporter.sol for details)"
        }
      },
      "_setRiskManager(address)": {
        "details": "Admin function to set a new riskManager",
        "returns": {
          "_0": "uint 0=success, otherwise a failure (see ErrorReporter.sol for details)"
        }
      },
      "accrueInterest()": {
        "details": "This calculates interest accrued from the last checkpointed block   up to the current block and writes new checkpoint to storage."
      },
      "allowance(address,address)": {
        "params": {
          "owner": "The address of the account which owns the tokens to be spent",
          "spender": "The address of the account which may transfer tokens"
        },
        "returns": {
          "_0": "The number of tokens allowed to be spent (-1 means infinite)"
        }
      },
      "approve(address,uint256)": {
        "details": "This will overwrite the approval amount for `spender`  and is subject to issues noted [here](https://eips.ethereum.org/EIPS/eip-20#approve)",
        "params": {
          "amount": "The number of tokens that are approved (-1 means infinite)",
          "spender": "The address of the account which may transfer tokens"
        },
        "returns": {
          "_0": "Whether or not the approval succeeded"
        }
      },
      "balanceOf(address)": {
        "params": {
          "owner": "The address of the account to query"
        },
        "returns": {
          "_0": "The number of tokens owned by `owner`"
        }
      },
      "balanceOfUnderlying(address)": {
        "details": "This also accrues interest in a transaction",
        "params": {
          "owner": "The address of the account to query"
        },
        "returns": {
          "_0": "The amount of underlying owned by `owner`"
        }
      },
      "borrow(uint256)": {
        "params": {
          "borrowAmount": "The amount of the underlying asset to borrow"
        },
        "returns": {
          "_0": "uint 0=success, otherwise a failure (see ErrorReporter.sol for details)"
        }
      },
      "borrowBalanceCurrent(address)": {
        "params": {
          "account": "The address whose balance should be calculated after updating borrowIndex"
        },
        "returns": {
          "_0": "The calculated balance"
        }
      },
      "borrowBalanceStored(address)": {
        "params": {
          "account": "The address whose balance should be calculated"
        },
        "returns": {
          "_0": "The calculated balance"
        }
      },
      "borrowRatePerBlock()": {
        "returns": {
          "_0": "The borrow interest rate per block, scaled by 1e18"
        }
      },
      "constructor": {
        "params": {
          "decimals_": "ERC-20 decimal precision of this token",
          "initialExchangeRateMantissa_": "The initial exchange rate, scaled by 1e18",
          "interestRateModel_": "The address of the interest rate model",
          "name_": "ERC-20 name of this token",
          "riskManager_": "The address of the RiskManager",
          "symbol_": "ERC-20 symbol of this token",
          "underlying_": "The address of the underlying asset"
        }
      },
      "exchangeRateCurrent()": {
        "returns": {
          "_0": "Calculated exchange rate scaled by 1e18"
        }
      },
      "exchangeRateStored()": {
        "details": "This function does not accrue interest before calculating the exchange rate",
        "returns": {
          "_0": "Calculated exchange rate scaled by 1e18"
        }
      },
      "getAccountSnapshot(address)": {
        "details": "This is used by riskManager to more efficiently perform liquidity checks.",
        "params": {
          "account": "Address of the account to snapshot"
        },
        "returns": {
          "_0": "(possible error, token balance, borrow balance, exchange rate mantissa)"
        }
      },
      "getCash()": {
        "returns": {
          "_0": "The quantity of underlying asset owned by this contract"
        }
      },
      "initialize(address,address,uint256,string,string,uint8)": {
        "params": {
          "decimals_": "EIP-20 decimal precision of this token",
          "initialExchangeRateMantissa_": "The initial exchange rate, scaled by 1e18",
          "interestRateModel_": "",
          "name_": "EIP-20 name of this token",
          "riskManager_": "controller ",
          "symbol_": "EIP-20 symbol of this token"
        }
      },
      "liquidateBorrow(address,uint256,address)": {
        "params": {
          "borrower": "The borrower of this pToken to be liquidated",
          "pTokenCollateral": "The market in which to seize collateral from the borrower",
          "repayAmount": "The amount of the underlying borrowed asset to repay"
        },
        "returns": {
          "_0": "uint 0=success, otherwise a failure (see ErrorReporter.sol for details)"
        }
      },
      "mint(uint256)": {
        "details": "Accrues interest whether or not the operation succeeds, unless reverted",
        "params": {
          "mintAmount": "The amount of the underlying asset to supply"
        },
        "returns": {
          "_0": "uint 0=success, otherwise a failure (see ErrorReporter.sol for details)"
        }
      },
      "redeem(uint256)": {
        "details": "Accrues interest whether or not the operation succeeds, unless reverted",
        "params": {
          "redeemTokens": "The number of pTokens to redeem into underlying"
        },
        "returns": {
          "_0": "uint 0=success, otherwise a failure (see ErrorReporter.sol for details)"
        }
      },
      "redeemUnderlying(uint256)": {
        "details": "Accrues interest whether or not the operation succeeds, unless reverted",
        "params": {
          "redeemAmount": "The amount of underlying to redeem"
        },
        "returns": {
          "_0": "uint 0=success, otherwise a failure (see ErrorReporter.sol for details)"
        }
      },
      "repayBorrow(uint256)": {
        "params": {
          "repayAmount": "The amount to repay"
        },
        "returns": {
          "_0": "uint 0=success, otherwise a failure (see ErrorReporter.sol for details)"
        }
      },
      "repayBorrowBehalf(address,uint256)": {
        "params": {
          "borrower": "the account with the debt being payed off",
          "repayAmount": "The amount to repay"
        },
        "returns": {
          "_0": "uint 0=success, otherwise a failure (see ErrorReporter.sol for details)"
        }
      },
      "seize(address,address,uint256)": {
        "details": "Will fail unless called by another pToken during the process of liquidation.  Its absolutely critical to use msg.sender as the borrowed pToken and not a parameter.",
        "params": {
          "borrower": "The account having collateral seized",
          "liquidator": "The account receiving seized collateral",
          "seizeTokens": "The number of pTokens to seize"
        },
        "returns": {
          "_0": "uint 0=success, otherwise a failure (see ErrorReporter.sol for details)"
        }
      },
      "supplyRatePerBlock()": {
        "returns": {
          "_0": "The supply interest rate per block, scaled by 1e18"
        }
      },
      "totalBorrowsCurrent()": {
        "returns": {
          "_0": "The total borrows with interest"
        }
      },
      "transfer(address,uint256)": {
        "params": {
          "amount": "The number of tokens to transfer",
          "dst": "The address of the destination account"
        },
        "returns": {
          "_0": "Whether or not the transfer succeeded"
        }
      },
      "transferFrom(address,address,uint256)": {
        "params": {
          "amount": "The number of tokens to transfer",
          "dst": "The address of the destination account",
          "src": "The address of the source account"
        },
        "returns": {
          "_0": "Whether or not the transfer succeeded"
        }
      }
    }
  },
  "userdoc": {
    "methods": {
      "_acceptAdmin()": {
        "notice": "Accepts transfer of admin rights. msg.sender must be pendingAdmin"
      },
      "_addReserves(uint256)": {
        "notice": "The sender adds to reserves."
      },
      "_reduceReserves(uint256)": {
        "notice": "Accrues interest and reduces reserves by transferring to admin"
      },
      "_setInterestRateModel(address)": {
        "notice": "accrues interest and updates the interest rate model using _setInterestRateModelFresh"
      },
      "_setPendingAdmin(address)": {
        "notice": "Begins transfer of admin rights. The newPendingAdmin must call `_acceptAdmin` to finalize the transfer."
      },
      "_setReserveFactor(uint256)": {
        "notice": "accrues interest and sets a new reserve factor for the protocol using _setReserveFactorFresh"
      },
      "_setRiskManager(address)": {
        "notice": "Sets a new riskManager for the market"
      },
      "accrualBlockNumber()": {
        "notice": "Block number that interest was last accrued at"
      },
      "accrueInterest()": {
        "notice": "Applies accrued interest to total borrows and reserves"
      },
      "admin()": {
        "notice": "Administrator for this contract"
      },
      "allowance(address,address)": {
        "notice": "Get the current allowance from `owner` for `spender`"
      },
      "approve(address,uint256)": {
        "notice": "Approve `spender` to transfer up to `amount` from `src`"
      },
      "balanceOf(address)": {
        "notice": "Get the token balance of the `owner`"
      },
      "balanceOfUnderlying(address)": {
        "notice": "Get the underlying balance of the `owner`"
      },
      "borrow(uint256)": {
        "notice": "Sender borrows assets from the protocol to their own address"
      },
      "borrowBalanceCurrent(address)": {
        "notice": "Accrue interest to updated borrowIndex and then calculate account's borrow balance using the updated borrowIndex"
      },
      "borrowBalanceStored(address)": {
        "notice": "Return the borrow balance of account based on stored data"
      },
      "borrowIndex()": {
        "notice": "Accumulator of the total earned interest rate since the opening of the market"
      },
      "borrowRatePerBlock()": {
        "notice": "Returns the current per-block borrow interest rate for this pToken"
      },
      "constructor": "Initialize the new money market",
      "decimals()": {
        "notice": "EIP-20 token decimals for this token"
      },
      "exchangeRateCurrent()": {
        "notice": "Accrue interest then return the up-to-date exchange rate"
      },
      "exchangeRateStored()": {
        "notice": "Calculates the exchange rate from the underlying to the pToken"
      },
      "getAccountSnapshot(address)": {
        "notice": "Get a snapshot of the account's balances, and the cached exchange rate"
      },
      "getCash()": {
        "notice": "Get cash balance of this pToken in the underlying asset"
      },
      "initialize(address,address,uint256,string,string,uint8)": {
        "notice": ""
      },
      "interestRateModel()": {
        "notice": "Model which tells what the current interest rate should be"
      },
      "isPToken()": {
        "notice": "Indicator that this is a PToken contract (for inspection)"
      },
      "liquidateBorrow(address,uint256,address)": {
        "notice": "The sender liquidates the borrowers collateral.  The collateral seized is transferred to the liquidator."
      },
      "mint(uint256)": {
        "notice": "Sender supplies assets into the market and receives pTokens in exchange"
      },
      "name()": {
        "notice": "EIP-20 token name for this token"
      },
      "pendingAdmin()": {
        "notice": "Pending administrator for this contract"
      },
      "redeem(uint256)": {
        "notice": "Sender redeems pTokens in exchange for the underlying asset"
      },
      "redeemUnderlying(uint256)": {
        "notice": "Sender redeems pTokens in exchange for a specified amount of underlying asset"
      },
      "repayBorrow(uint256)": {
        "notice": "Sender repays their own borrow"
      },
      "repayBorrowBehalf(address,uint256)": {
        "notice": "Sender repays a borrow belonging to borrower"
      },
      "reserveFactorMantissa()": {
        "notice": "Fraction of interest currently set aside for reserves"
      },
      "riskManager()": {
        "notice": "Contract which oversees inter-pToken operations"
      },
      "seize(address,address,uint256)": {
        "notice": "Transfers collateral tokens (this market) to the liquidator."
      },
      "supplyRatePerBlock()": {
        "notice": "Returns the current per-block supply interest rate for this pToken"
      },
      "symbol()": {
        "notice": "EIP-20 token symbol for this token"
      },
      "totalBorrows()": {
        "notice": "Total amount of outstanding borrows of the underlying in this market"
      },
      "totalBorrowsCurrent()": {
        "notice": "Returns the current total borrows plus accrued interest"
      },
      "totalReserves()": {
        "notice": "Total amount of reserves of the underlying held in this market"
      },
      "totalSupply()": {
        "notice": "Total number of tokens in circulation"
      },
      "transfer(address,uint256)": {
        "notice": "Transfer `amount` tokens from `msg.sender` to `dst`"
      },
      "transferFrom(address,address,uint256)": {
        "notice": "Transfer `amount` tokens from `src` to `dst`"
      },
      "underlying()": {
        "notice": "Underlying asset for this PToken"
      }
    }
  }
}