{
  "contractName": "PErc20Storage",
  "abi": [
    {
      "inputs": [],
      "name": "underlying",
      "outputs": [
        {
          "internalType": "address",
          "name": "",
          "type": "address"
        }
      ],
      "stateMutability": "view",
      "type": "function"
    }
  ],
  "bytecode": "0x6080604052348015600f57600080fd5b5060948061001e6000396000f3fe6080604052348015600f57600080fd5b506004361060285760003560e01c80636f307dc314602d575b600080fd5b6033604f565b604080516001600160a01b039092168252519081900360200190f35b6000546001600160a01b03168156fea2646970667358221220f49f76029502f9468fad3f22c2319081cea8ed09ca795d644c6ecea4739287ac64736f6c63430006090033",
  "immutableReferences": {},
  "source": "// SPDX-License-Identifier: UNLICENSED\npragma solidity ^0.6.9;\n\nimport \"../core/IRiskManager.sol\";\nimport \"../core/InterestRateModel.sol\";\n\ncontract PTokenStorage {\n    /**\n     * @dev Guard variable for re-entrancy checks\n     */\n    bool internal _notEntered;\n\n    /**\n     * @notice EIP-20 token name for this token\n     */\n    string public name;\n\n    /**\n     * @notice EIP-20 token symbol for this token\n     */\n    string public symbol;\n\n    /**\n     * @notice EIP-20 token decimals for this token\n     */\n    uint8 public decimals;\n\n    /**\n     * @dev\n     * @notice Maximum borrow rate that can ever be applied (.0005% / block)\n     */\n    uint internal constant borrowRateMaxMantissa = 0.0005e16;\n\n    /**\n     * @dev\n     * @notice Maximum fraction of interest that can be set aside for reserves\n     */\n    uint internal constant reserveFactorMaxMantissa = 1e18;\n\n    /**\n     * @notice Administrator for this contract\n     */\n    address payable public admin;\n\n    /**\n     * @notice Pending administrator for this contract\n     */\n    address payable public pendingAdmin;\n\n    /**\n     * @notice Contract which oversees inter-pToken operations\n     */\n    IRiskManager public riskManager;\n\n    /**\n     * @notice Model which tells what the current interest rate should be\n     */\n    InterestRateModel public interestRateModel;\n\n    /**\n     * @dev\n     * @notice Initial exchange rate used when minting the first PTokens (used when totalSupply = 0)\n     */\n    uint internal initialExchangeRateMantissa;\n\n    /**\n     * @notice Fraction of interest currently set aside for reserves\n     */\n    uint public reserveFactorMantissa;\n\n    /**\n     * @notice Block number that interest was last accrued at\n     */\n    uint public accrualBlockNumber;\n\n    /**\n     * @notice Accumulator of the total earned interest rate since the opening of the market\n     */\n    uint public borrowIndex;\n\n    /**\n     * @notice Total amount of outstanding borrows of the underlying in this market\n     */\n    uint public totalBorrows;\n\n    /**\n     * @notice Total amount of reserves of the underlying held in this market\n     */\n    uint public totalReserves;\n\n    /**\n     * @notice Total number of tokens in circulation\n     */\n    uint public totalSupply;\n\n    /**\n     * @dev\n     * @notice Official record of token balances for each account\n     */\n    mapping (address => uint) internal accountTokens;\n\n    /**\n     * @dev\n     * @notice Approved token transfer amounts on behalf of others\n     */\n    mapping (address => mapping (address => uint)) internal transferAllowances;\n\n    /**\n     * @dev\n     * @notice Container for borrow balance information\n     * @member principal Total balance (with accrued interest), after applying the most recent balance-changing action\n     * @member interestIndex Global borrowIndex as of the most recent balance-changing action\n     */\n    struct BorrowSnapshot {\n        uint principal;\n        uint interestIndex;\n    }\n\n    /**\n     * @dev\n     * @notice Mapping of account addresses to outstanding borrow balances\n     */\n    mapping(address => BorrowSnapshot) internal accountBorrows;\n}\n\nabstract contract IPToken is PTokenStorage {\n    /**\n     * @notice Indicator that this is a PToken contract (for inspection)\n     */\n    bool public constant isPToken = true;\n\n\n    /*** Market Events ***/\n\n    /**\n     * @notice Event emitted when interest is accrued\n     */\n    event AccrueInterest(uint cashPrior, uint interestAccumulated, uint borrowIndex, uint totalBorrows);\n\n    /**\n     * @notice Event emitted when tokens are minted\n     */\n    event Mint(address minter, uint mintAmount, uint mintTokens);\n\n    /**\n     * @notice Event emitted when tokens are redeemed\n     */\n    event Redeem(address redeemer, uint redeemAmount, uint redeemTokens);\n\n    /**\n     * @notice Event emitted when underlying is borrowed\n     */\n    event Borrow(address borrower, uint borrowAmount, uint accountBorrows, uint totalBorrows);\n\n    /**\n     * @notice Event emitted when a borrow is repaid\n     */\n    event RepayBorrow(address payer, address borrower, uint repayAmount, uint accountBorrows, uint totalBorrows);\n\n    /**\n     * @notice Event emitted when a borrow is liquidated\n     */\n    event LiquidateBorrow(address liquidator, address borrower, uint repayAmount, address pTokenCollateral, uint seizeTokens);\n\n\n    /*** Admin Events ***/\n\n    /**\n     * @notice Event emitted when pendingAdmin is changed\n     */\n    event NewPendingAdmin(address oldPendingAdmin, address newPendingAdmin);\n\n    /**\n     * @notice Event emitted when pendingAdmin is accepted, which means admin is updated\n     */\n    event NewAdmin(address oldAdmin, address newAdmin);\n\n    /**\n     * @notice Event emitted when RiskManager is changed\n     */\n    event NewRiskManager(IRiskManager oldRiskManager, IRiskManager newRiskManager);\n\n    /**\n     * @notice Event emitted when interestRateModel is changed\n     */\n    event NewMarketInterestRateModel(InterestRateModel oldInterestRateModel, InterestRateModel newInterestRateModel);\n\n    /**\n     * @notice Event emitted when the reserve factor is changed\n     */\n    event NewReserveFactor(uint oldReserveFactorMantissa, uint newReserveFactorMantissa);\n\n    /**\n     * @notice Event emitted when the reserves are added\n     */\n    event ReservesAdded(address benefactor, uint addAmount, uint newTotalReserves);\n\n    /**\n     * @notice Event emitted when the reserves are reduced\n     */\n    event ReservesReduced(address admin, uint reduceAmount, uint newTotalReserves);\n\n    /**\n     * @notice EIP20 Transfer event\n     */\n    event Transfer(address indexed from, address indexed to, uint amount);\n\n    /**\n     * @notice EIP20 Approval event\n     */\n    event Approval(address indexed owner, address indexed spender, uint amount);\n\n    /**\n     * @notice Failure event\n     */\n    event Failure(uint error, uint info, uint detail);\n\n\n    /*** User Interface ***/\n\n    function transfer(address dst, uint amount) external virtual returns (bool);\n    function transferFrom(address src, address dst, uint amount) external virtual returns (bool);\n    function approve(address spender, uint amount) external virtual returns (bool);\n    function allowance(address owner, address spender) external view virtual returns (uint);\n    function balanceOf(address owner) external view virtual returns (uint);\n    function balanceOfUnderlying(address owner) external virtual returns (uint);\n    function getAccountSnapshot(address account) external view virtual returns (uint, uint, uint, uint);\n    function borrowRatePerBlock() external view virtual returns (uint);\n    function supplyRatePerBlock() external view virtual returns (uint);\n    function totalBorrowsCurrent() external virtual returns (uint);\n    function borrowBalanceCurrent(address account) external virtual returns (uint);\n    function borrowBalanceStored(address account) public view virtual returns (uint);\n    function exchangeRateCurrent() public virtual returns (uint);\n    function exchangeRateStored() public view virtual returns (uint);\n    function getCash() external view virtual returns (uint);\n    function accrueInterest() public virtual returns (uint);\n    function seize(address liquidator, address borrower, uint seizeTokens) external virtual returns (uint);\n    function isForETH() public view virtual returns (bool);\n\n    /*** Admin Functions ***/\n\n    function _setPendingAdmin(address payable newPendingAdmin) external virtual returns (uint);\n    function _acceptAdmin() external virtual returns (uint);\n    function _setRiskManager(IRiskManager newRiskManager) public virtual returns (uint);\n    function _setReserveFactor(uint newReserveFactorMantissa) external virtual returns (uint);\n    function _reduceReserves(uint reduceAmount) external virtual returns (uint);\n    function _setInterestRateModel(InterestRateModel newInterestRateModel) public virtual returns (uint);\n}\n\ncontract PErc20Storage {\n    /**\n     * @notice Underlying asset for this PToken\n     */\n    address public underlying;\n}\n\nabstract contract IPErc20 is PErc20Storage {\n\n    /*** User Interface ***/\n\n    function mint(uint mintAmount) external virtual returns (uint);\n    function redeem(uint redeemTokens) external virtual returns (uint);\n    function redeemUnderlying(uint redeemAmount) external virtual returns (uint);\n    function borrow(uint borrowAmount) external payable virtual returns (uint);\n    function repayBorrow(uint repayAmount) external payable virtual returns (uint);\n    function repayBorrowBehalf(address borrower, uint repayAmount) payable external virtual returns (uint);\n    function liquidateBorrow(address borrower, uint repayAmount, IPToken pTokenCollateral) payable external virtual returns (uint);\n\n\n    /*** Admin Functions ***/\n\n    function _addReserves(uint addAmount) external virtual returns (uint);\n}",
  "sourcePath": "/Users/ashton/repo/blockchain/eth/smartcontracts/PoolX/contracts/tokenization/IPToken.sol",
  "compiler": {
    "name": "solc",
    "version": "0.6.9+commit.3e3065ac.Emscripten.clang"
  },
  "schemaVersion": "3.2.0",
  "updatedAt": "2020-08-13T21:54:51.657Z",
  "devdoc": {
    "methods": {}
  },
  "userdoc": {
    "methods": {
      "underlying()": {
        "notice": "Underlying asset for this PToken"
      }
    }
  }
}