{
  "contractName": "PErc20Immutable",
  "abi": [
    {
      "inputs": [
        {
          "internalType": "address",
          "name": "underlying_",
          "type": "address"
        },
        {
          "internalType": "contract IRiskManager",
          "name": "riskManager_",
          "type": "address"
        },
        {
          "internalType": "contract InterestRateModel",
          "name": "interestRateModel_",
          "type": "address"
        },
        {
          "internalType": "uint256",
          "name": "initialExchangeRateMantissa_",
          "type": "uint256"
        },
        {
          "internalType": "string",
          "name": "name_",
          "type": "string"
        },
        {
          "internalType": "string",
          "name": "symbol_",
          "type": "string"
        },
        {
          "internalType": "uint8",
          "name": "decimals_",
          "type": "uint8"
        },
        {
          "internalType": "address payable",
          "name": "admin_",
          "type": "address"
        }
      ],
      "stateMutability": "nonpayable",
      "type": "constructor"
    },
    {
      "anonymous": false,
      "inputs": [
        {
          "indexed": false,
          "internalType": "uint256",
          "name": "cashPrior",
          "type": "uint256"
        },
        {
          "indexed": false,
          "internalType": "uint256",
          "name": "interestAccumulated",
          "type": "uint256"
        },
        {
          "indexed": false,
          "internalType": "uint256",
          "name": "borrowIndex",
          "type": "uint256"
        },
        {
          "indexed": false,
          "internalType": "uint256",
          "name": "totalBorrows",
          "type": "uint256"
        }
      ],
      "name": "AccrueInterest",
      "type": "event"
    },
    {
      "anonymous": false,
      "inputs": [
        {
          "indexed": true,
          "internalType": "address",
          "name": "owner",
          "type": "address"
        },
        {
          "indexed": true,
          "internalType": "address",
          "name": "spender",
          "type": "address"
        },
        {
          "indexed": false,
          "internalType": "uint256",
          "name": "amount",
          "type": "uint256"
        }
      ],
      "name": "Approval",
      "type": "event"
    },
    {
      "anonymous": false,
      "inputs": [
        {
          "indexed": false,
          "internalType": "address",
          "name": "borrower",
          "type": "address"
        },
        {
          "indexed": false,
          "internalType": "uint256",
          "name": "borrowAmount",
          "type": "uint256"
        },
        {
          "indexed": false,
          "internalType": "uint256",
          "name": "accountBorrows",
          "type": "uint256"
        },
        {
          "indexed": false,
          "internalType": "uint256",
          "name": "totalBorrows",
          "type": "uint256"
        }
      ],
      "name": "Borrow",
      "type": "event"
    },
    {
      "anonymous": false,
      "inputs": [
        {
          "indexed": false,
          "internalType": "uint256",
          "name": "error",
          "type": "uint256"
        },
        {
          "indexed": false,
          "internalType": "uint256",
          "name": "info",
          "type": "uint256"
        },
        {
          "indexed": false,
          "internalType": "uint256",
          "name": "detail",
          "type": "uint256"
        }
      ],
      "name": "Failure",
      "type": "event"
    },
    {
      "anonymous": false,
      "inputs": [
        {
          "indexed": false,
          "internalType": "address",
          "name": "liquidator",
          "type": "address"
        },
        {
          "indexed": false,
          "internalType": "address",
          "name": "borrower",
          "type": "address"
        },
        {
          "indexed": false,
          "internalType": "uint256",
          "name": "repayAmount",
          "type": "uint256"
        },
        {
          "indexed": false,
          "internalType": "address",
          "name": "pTokenCollateral",
          "type": "address"
        },
        {
          "indexed": false,
          "internalType": "uint256",
          "name": "seizeTokens",
          "type": "uint256"
        }
      ],
      "name": "LiquidateBorrow",
      "type": "event"
    },
    {
      "anonymous": false,
      "inputs": [
        {
          "indexed": false,
          "internalType": "address",
          "name": "minter",
          "type": "address"
        },
        {
          "indexed": false,
          "internalType": "uint256",
          "name": "mintAmount",
          "type": "uint256"
        },
        {
          "indexed": false,
          "internalType": "uint256",
          "name": "mintTokens",
          "type": "uint256"
        }
      ],
      "name": "Mint",
      "type": "event"
    },
    {
      "anonymous": false,
      "inputs": [
        {
          "indexed": false,
          "internalType": "address",
          "name": "oldAdmin",
          "type": "address"
        },
        {
          "indexed": false,
          "internalType": "address",
          "name": "newAdmin",
          "type": "address"
        }
      ],
      "name": "NewAdmin",
      "type": "event"
    },
    {
      "anonymous": false,
      "inputs": [
        {
          "indexed": false,
          "internalType": "contract InterestRateModel",
          "name": "oldInterestRateModel",
          "type": "address"
        },
        {
          "indexed": false,
          "internalType": "contract InterestRateModel",
          "name": "newInterestRateModel",
          "type": "address"
        }
      ],
      "name": "NewMarketInterestRateModel",
      "type": "event"
    },
    {
      "anonymous": false,
      "inputs": [
        {
          "indexed": false,
          "internalType": "address",
          "name": "oldPendingAdmin",
          "type": "address"
        },
        {
          "indexed": false,
          "internalType": "address",
          "name": "newPendingAdmin",
          "type": "address"
        }
      ],
      "name": "NewPendingAdmin",
      "type": "event"
    },
    {
      "anonymous": false,
      "inputs": [
        {
          "indexed": false,
          "internalType": "uint256",
          "name": "oldReserveFactorMantissa",
          "type": "uint256"
        },
        {
          "indexed": false,
          "internalType": "uint256",
          "name": "newReserveFactorMantissa",
          "type": "uint256"
        }
      ],
      "name": "NewReserveFactor",
      "type": "event"
    },
    {
      "anonymous": false,
      "inputs": [
        {
          "indexed": false,
          "internalType": "contract IRiskManager",
          "name": "oldRiskManager",
          "type": "address"
        },
        {
          "indexed": false,
          "internalType": "contract IRiskManager",
          "name": "newRiskManager",
          "type": "address"
        }
      ],
      "name": "NewRiskManager",
      "type": "event"
    },
    {
      "anonymous": false,
      "inputs": [
        {
          "indexed": false,
          "internalType": "address",
          "name": "redeemer",
          "type": "address"
        },
        {
          "indexed": false,
          "internalType": "uint256",
          "name": "redeemAmount",
          "type": "uint256"
        },
        {
          "indexed": false,
          "internalType": "uint256",
          "name": "redeemTokens",
          "type": "uint256"
        }
      ],
      "name": "Redeem",
      "type": "event"
    },
    {
      "anonymous": false,
      "inputs": [
        {
          "indexed": false,
          "internalType": "address",
          "name": "payer",
          "type": "address"
        },
        {
          "indexed": false,
          "internalType": "address",
          "name": "borrower",
          "type": "address"
        },
        {
          "indexed": false,
          "internalType": "uint256",
          "name": "repayAmount",
          "type": "uint256"
        },
        {
          "indexed": false,
          "internalType": "uint256",
          "name": "accountBorrows",
          "type": "uint256"
        },
        {
          "indexed": false,
          "internalType": "uint256",
          "name": "totalBorrows",
          "type": "uint256"
        }
      ],
      "name": "RepayBorrow",
      "type": "event"
    },
    {
      "anonymous": false,
      "inputs": [
        {
          "indexed": false,
          "internalType": "address",
          "name": "benefactor",
          "type": "address"
        },
        {
          "indexed": false,
          "internalType": "uint256",
          "name": "addAmount",
          "type": "uint256"
        },
        {
          "indexed": false,
          "internalType": "uint256",
          "name": "newTotalReserves",
          "type": "uint256"
        }
      ],
      "name": "ReservesAdded",
      "type": "event"
    },
    {
      "anonymous": false,
      "inputs": [
        {
          "indexed": false,
          "internalType": "address",
          "name": "admin",
          "type": "address"
        },
        {
          "indexed": false,
          "internalType": "uint256",
          "name": "reduceAmount",
          "type": "uint256"
        },
        {
          "indexed": false,
          "internalType": "uint256",
          "name": "newTotalReserves",
          "type": "uint256"
        }
      ],
      "name": "ReservesReduced",
      "type": "event"
    },
    {
      "anonymous": false,
      "inputs": [
        {
          "indexed": true,
          "internalType": "address",
          "name": "from",
          "type": "address"
        },
        {
          "indexed": true,
          "internalType": "address",
          "name": "to",
          "type": "address"
        },
        {
          "indexed": false,
          "internalType": "uint256",
          "name": "amount",
          "type": "uint256"
        }
      ],
      "name": "Transfer",
      "type": "event"
    },
    {
      "inputs": [],
      "name": "_acceptAdmin",
      "outputs": [
        {
          "internalType": "uint256",
          "name": "",
          "type": "uint256"
        }
      ],
      "stateMutability": "nonpayable",
      "type": "function"
    },
    {
      "inputs": [
        {
          "internalType": "uint256",
          "name": "addAmount",
          "type": "uint256"
        }
      ],
      "name": "_addReserves",
      "outputs": [
        {
          "internalType": "uint256",
          "name": "",
          "type": "uint256"
        }
      ],
      "stateMutability": "nonpayable",
      "type": "function"
    },
    {
      "inputs": [
        {
          "internalType": "uint256",
          "name": "reduceAmount",
          "type": "uint256"
        }
      ],
      "name": "_reduceReserves",
      "outputs": [
        {
          "internalType": "uint256",
          "name": "",
          "type": "uint256"
        }
      ],
      "stateMutability": "nonpayable",
      "type": "function"
    },
    {
      "inputs": [
        {
          "internalType": "contract InterestRateModel",
          "name": "newInterestRateModel",
          "type": "address"
        }
      ],
      "name": "_setInterestRateModel",
      "outputs": [
        {
          "internalType": "uint256",
          "name": "",
          "type": "uint256"
        }
      ],
      "stateMutability": "nonpayable",
      "type": "function"
    },
    {
      "inputs": [
        {
          "internalType": "contract IRiskManager",
          "name": "newRiskManager",
          "type": "address"
        }
      ],
      "name": "_setPController",
      "outputs": [
        {
          "internalType": "uint256",
          "name": "",
          "type": "uint256"
        }
      ],
      "stateMutability": "nonpayable",
      "type": "function"
    },
    {
      "inputs": [
        {
          "internalType": "address payable",
          "name": "newPendingAdmin",
          "type": "address"
        }
      ],
      "name": "_setPendingAdmin",
      "outputs": [
        {
          "internalType": "uint256",
          "name": "",
          "type": "uint256"
        }
      ],
      "stateMutability": "nonpayable",
      "type": "function"
    },
    {
      "inputs": [
        {
          "internalType": "uint256",
          "name": "newReserveFactorMantissa",
          "type": "uint256"
        }
      ],
      "name": "_setReserveFactor",
      "outputs": [
        {
          "internalType": "uint256",
          "name": "",
          "type": "uint256"
        }
      ],
      "stateMutability": "nonpayable",
      "type": "function"
    },
    {
      "inputs": [],
      "name": "accrualBlockNumber",
      "outputs": [
        {
          "internalType": "uint256",
          "name": "",
          "type": "uint256"
        }
      ],
      "stateMutability": "view",
      "type": "function"
    },
    {
      "inputs": [],
      "name": "accrueInterest",
      "outputs": [
        {
          "internalType": "uint256",
          "name": "",
          "type": "uint256"
        }
      ],
      "stateMutability": "nonpayable",
      "type": "function"
    },
    {
      "inputs": [],
      "name": "admin",
      "outputs": [
        {
          "internalType": "address payable",
          "name": "",
          "type": "address"
        }
      ],
      "stateMutability": "view",
      "type": "function"
    },
    {
      "inputs": [
        {
          "internalType": "address",
          "name": "owner",
          "type": "address"
        },
        {
          "internalType": "address",
          "name": "spender",
          "type": "address"
        }
      ],
      "name": "allowance",
      "outputs": [
        {
          "internalType": "uint256",
          "name": "",
          "type": "uint256"
        }
      ],
      "stateMutability": "view",
      "type": "function"
    },
    {
      "inputs": [
        {
          "internalType": "address",
          "name": "spender",
          "type": "address"
        },
        {
          "internalType": "uint256",
          "name": "amount",
          "type": "uint256"
        }
      ],
      "name": "approve",
      "outputs": [
        {
          "internalType": "bool",
          "name": "",
          "type": "bool"
        }
      ],
      "stateMutability": "nonpayable",
      "type": "function"
    },
    {
      "inputs": [
        {
          "internalType": "address",
          "name": "owner",
          "type": "address"
        }
      ],
      "name": "balanceOf",
      "outputs": [
        {
          "internalType": "uint256",
          "name": "",
          "type": "uint256"
        }
      ],
      "stateMutability": "view",
      "type": "function"
    },
    {
      "inputs": [
        {
          "internalType": "address",
          "name": "owner",
          "type": "address"
        }
      ],
      "name": "balanceOfUnderlying",
      "outputs": [
        {
          "internalType": "uint256",
          "name": "",
          "type": "uint256"
        }
      ],
      "stateMutability": "nonpayable",
      "type": "function"
    },
    {
      "inputs": [
        {
          "internalType": "uint256",
          "name": "borrowAmount",
          "type": "uint256"
        }
      ],
      "name": "borrow",
      "outputs": [
        {
          "internalType": "uint256",
          "name": "",
          "type": "uint256"
        }
      ],
      "stateMutability": "payable",
      "type": "function"
    },
    {
      "inputs": [
        {
          "internalType": "address",
          "name": "account",
          "type": "address"
        }
      ],
      "name": "borrowBalanceCurrent",
      "outputs": [
        {
          "internalType": "uint256",
          "name": "",
          "type": "uint256"
        }
      ],
      "stateMutability": "nonpayable",
      "type": "function"
    },
    {
      "inputs": [
        {
          "internalType": "address",
          "name": "account",
          "type": "address"
        }
      ],
      "name": "borrowBalanceStored",
      "outputs": [
        {
          "internalType": "uint256",
          "name": "",
          "type": "uint256"
        }
      ],
      "stateMutability": "view",
      "type": "function"
    },
    {
      "inputs": [],
      "name": "borrowIndex",
      "outputs": [
        {
          "internalType": "uint256",
          "name": "",
          "type": "uint256"
        }
      ],
      "stateMutability": "view",
      "type": "function"
    },
    {
      "inputs": [],
      "name": "borrowRatePerBlock",
      "outputs": [
        {
          "internalType": "uint256",
          "name": "",
          "type": "uint256"
        }
      ],
      "stateMutability": "view",
      "type": "function"
    },
    {
      "inputs": [],
      "name": "decimals",
      "outputs": [
        {
          "internalType": "uint8",
          "name": "",
          "type": "uint8"
        }
      ],
      "stateMutability": "view",
      "type": "function"
    },
    {
      "inputs": [],
      "name": "exchangeRateCurrent",
      "outputs": [
        {
          "internalType": "uint256",
          "name": "",
          "type": "uint256"
        }
      ],
      "stateMutability": "nonpayable",
      "type": "function"
    },
    {
      "inputs": [],
      "name": "exchangeRateStored",
      "outputs": [
        {
          "internalType": "uint256",
          "name": "",
          "type": "uint256"
        }
      ],
      "stateMutability": "view",
      "type": "function"
    },
    {
      "inputs": [
        {
          "internalType": "address",
          "name": "account",
          "type": "address"
        }
      ],
      "name": "getAccountSnapshot",
      "outputs": [
        {
          "internalType": "uint256",
          "name": "",
          "type": "uint256"
        },
        {
          "internalType": "uint256",
          "name": "",
          "type": "uint256"
        },
        {
          "internalType": "uint256",
          "name": "",
          "type": "uint256"
        },
        {
          "internalType": "uint256",
          "name": "",
          "type": "uint256"
        }
      ],
      "stateMutability": "view",
      "type": "function"
    },
    {
      "inputs": [],
      "name": "getCash",
      "outputs": [
        {
          "internalType": "uint256",
          "name": "",
          "type": "uint256"
        }
      ],
      "stateMutability": "view",
      "type": "function"
    },
    {
      "inputs": [
        {
          "internalType": "address",
          "name": "underlying_",
          "type": "address"
        },
        {
          "internalType": "contract IRiskManager",
          "name": "riskManager_",
          "type": "address"
        },
        {
          "internalType": "contract InterestRateModel",
          "name": "interestRateModel_",
          "type": "address"
        },
        {
          "internalType": "uint256",
          "name": "initialExchangeRateMantissa_",
          "type": "uint256"
        },
        {
          "internalType": "string",
          "name": "name_",
          "type": "string"
        },
        {
          "internalType": "string",
          "name": "symbol_",
          "type": "string"
        },
        {
          "internalType": "uint8",
          "name": "decimals_",
          "type": "uint8"
        }
      ],
      "name": "initialize",
      "outputs": [],
      "stateMutability": "nonpayable",
      "type": "function"
    },
    {
      "inputs": [
        {
          "internalType": "contract IRiskManager",
          "name": "riskManager_",
          "type": "address"
        },
        {
          "internalType": "contract InterestRateModel",
          "name": "interestRateModel_",
          "type": "address"
        },
        {
          "internalType": "uint256",
          "name": "initialExchangeRateMantissa_",
          "type": "uint256"
        },
        {
          "internalType": "string",
          "name": "name_",
          "type": "string"
        },
        {
          "internalType": "string",
          "name": "symbol_",
          "type": "string"
        },
        {
          "internalType": "uint8",
          "name": "decimals_",
          "type": "uint8"
        }
      ],
      "name": "initialize",
      "outputs": [],
      "stateMutability": "nonpayable",
      "type": "function"
    },
    {
      "inputs": [],
      "name": "interestRateModel",
      "outputs": [
        {
          "internalType": "contract InterestRateModel",
          "name": "",
          "type": "address"
        }
      ],
      "stateMutability": "view",
      "type": "function"
    },
    {
      "inputs": [],
      "name": "isPToken",
      "outputs": [
        {
          "internalType": "bool",
          "name": "",
          "type": "bool"
        }
      ],
      "stateMutability": "view",
      "type": "function"
    },
    {
      "inputs": [
        {
          "internalType": "address",
          "name": "borrower",
          "type": "address"
        },
        {
          "internalType": "uint256",
          "name": "repayAmount",
          "type": "uint256"
        },
        {
          "internalType": "contract IPToken",
          "name": "pTokenCollateral",
          "type": "address"
        }
      ],
      "name": "liquidateBorrow",
      "outputs": [
        {
          "internalType": "uint256",
          "name": "",
          "type": "uint256"
        }
      ],
      "stateMutability": "payable",
      "type": "function"
    },
    {
      "inputs": [
        {
          "internalType": "uint256",
          "name": "mintAmount",
          "type": "uint256"
        }
      ],
      "name": "mint",
      "outputs": [
        {
          "internalType": "uint256",
          "name": "",
          "type": "uint256"
        }
      ],
      "stateMutability": "nonpayable",
      "type": "function"
    },
    {
      "inputs": [],
      "name": "name",
      "outputs": [
        {
          "internalType": "string",
          "name": "",
          "type": "string"
        }
      ],
      "stateMutability": "view",
      "type": "function"
    },
    {
      "inputs": [],
      "name": "pendingAdmin",
      "outputs": [
        {
          "internalType": "address payable",
          "name": "",
          "type": "address"
        }
      ],
      "stateMutability": "view",
      "type": "function"
    },
    {
      "inputs": [],
      "name": "ptroller",
      "outputs": [
        {
          "internalType": "contract IRiskManager",
          "name": "",
          "type": "address"
        }
      ],
      "stateMutability": "view",
      "type": "function"
    },
    {
      "inputs": [
        {
          "internalType": "uint256",
          "name": "redeemTokens",
          "type": "uint256"
        }
      ],
      "name": "redeem",
      "outputs": [
        {
          "internalType": "uint256",
          "name": "",
          "type": "uint256"
        }
      ],
      "stateMutability": "nonpayable",
      "type": "function"
    },
    {
      "inputs": [
        {
          "internalType": "uint256",
          "name": "redeemAmount",
          "type": "uint256"
        }
      ],
      "name": "redeemUnderlying",
      "outputs": [
        {
          "internalType": "uint256",
          "name": "",
          "type": "uint256"
        }
      ],
      "stateMutability": "nonpayable",
      "type": "function"
    },
    {
      "inputs": [
        {
          "internalType": "uint256",
          "name": "repayAmount",
          "type": "uint256"
        }
      ],
      "name": "repayBorrow",
      "outputs": [
        {
          "internalType": "uint256",
          "name": "",
          "type": "uint256"
        }
      ],
      "stateMutability": "payable",
      "type": "function"
    },
    {
      "inputs": [
        {
          "internalType": "address",
          "name": "borrower",
          "type": "address"
        },
        {
          "internalType": "uint256",
          "name": "repayAmount",
          "type": "uint256"
        }
      ],
      "name": "repayBorrowBehalf",
      "outputs": [
        {
          "internalType": "uint256",
          "name": "",
          "type": "uint256"
        }
      ],
      "stateMutability": "payable",
      "type": "function"
    },
    {
      "inputs": [],
      "name": "reserveFactorMantissa",
      "outputs": [
        {
          "internalType": "uint256",
          "name": "",
          "type": "uint256"
        }
      ],
      "stateMutability": "view",
      "type": "function"
    },
    {
      "inputs": [
        {
          "internalType": "address",
          "name": "liquidator",
          "type": "address"
        },
        {
          "internalType": "address",
          "name": "borrower",
          "type": "address"
        },
        {
          "internalType": "uint256",
          "name": "seizeTokens",
          "type": "uint256"
        }
      ],
      "name": "seize",
      "outputs": [
        {
          "internalType": "uint256",
          "name": "",
          "type": "uint256"
        }
      ],
      "stateMutability": "nonpayable",
      "type": "function"
    },
    {
      "inputs": [],
      "name": "supplyRatePerBlock",
      "outputs": [
        {
          "internalType": "uint256",
          "name": "",
          "type": "uint256"
        }
      ],
      "stateMutability": "view",
      "type": "function"
    },
    {
      "inputs": [],
      "name": "symbol",
      "outputs": [
        {
          "internalType": "string",
          "name": "",
          "type": "string"
        }
      ],
      "stateMutability": "view",
      "type": "function"
    },
    {
      "inputs": [],
      "name": "totalBorrows",
      "outputs": [
        {
          "internalType": "uint256",
          "name": "",
          "type": "uint256"
        }
      ],
      "stateMutability": "view",
      "type": "function"
    },
    {
      "inputs": [],
      "name": "totalBorrowsCurrent",
      "outputs": [
        {
          "internalType": "uint256",
          "name": "",
          "type": "uint256"
        }
      ],
      "stateMutability": "nonpayable",
      "type": "function"
    },
    {
      "inputs": [],
      "name": "totalReserves",
      "outputs": [
        {
          "internalType": "uint256",
          "name": "",
          "type": "uint256"
        }
      ],
      "stateMutability": "view",
      "type": "function"
    },
    {
      "inputs": [],
      "name": "totalSupply",
      "outputs": [
        {
          "internalType": "uint256",
          "name": "",
          "type": "uint256"
        }
      ],
      "stateMutability": "view",
      "type": "function"
    },
    {
      "inputs": [
        {
          "internalType": "address",
          "name": "dst",
          "type": "address"
        },
        {
          "internalType": "uint256",
          "name": "amount",
          "type": "uint256"
        }
      ],
      "name": "transfer",
      "outputs": [
        {
          "internalType": "bool",
          "name": "",
          "type": "bool"
        }
      ],
      "stateMutability": "nonpayable",
      "type": "function"
    },
    {
      "inputs": [
        {
          "internalType": "address",
          "name": "src",
          "type": "address"
        },
        {
          "internalType": "address",
          "name": "dst",
          "type": "address"
        },
        {
          "internalType": "uint256",
          "name": "amount",
          "type": "uint256"
        }
      ],
      "name": "transferFrom",
      "outputs": [
        {
          "internalType": "bool",
          "name": "",
          "type": "bool"
        }
      ],
      "stateMutability": "nonpayable",
      "type": "function"
    },
    {
      "inputs": [],
      "name": "underlying",
      "outputs": [
        {
          "internalType": "address",
          "name": "",
          "type": "address"
        }
      ],
      "stateMutability": "view",
      "type": "function"
    }
  ],
  "bytecode": "0x60806040523480156200001157600080fd5b5060405162005a6b38038062005a6b83398181016040526101008110156200003857600080fd5b81516020830151604080850151606086015160808701805193519597949692959194919392820192846401000000008211156200007457600080fd5b9083019060208201858111156200008a57600080fd5b8251640100000000811182820188101715620000a557600080fd5b82525081516020918201929091019080838360005b83811015620000d4578181015183820152602001620000ba565b50505050905090810190601f168015620001025780820380516001836020036101000a031916815260200191505b50604052602001805160405193929190846401000000008211156200012657600080fd5b9083019060208201858111156200013c57600080fd5b82516401000000008111828201881017156200015757600080fd5b82525081516020918201929091019080838360005b83811015620001865781810151838201526020016200016c565b50505050905090810190601f168015620001b45780820380516001836020036101000a031916815260200191505b506040908152602082015191015160038054610100600160a81b03191633610100021790559092509050620001ef8888888888888862000223565b600380546001600160a01b0390921661010002610100600160a81b0319909216919091179055506200090f95505050505050565b6200023e868686868686620002d260201b620013471760201c565b601180546001600160a01b0319166001600160a01b038981169190911791829055604080516318160ddd60e01b8152905192909116916318160ddd91600480820192602092909190829003018186803b1580156200029b57600080fd5b505afa158015620002b0573d6000803e3d6000fd5b505050506040513d6020811015620002c757600080fd5b505050505050505050565b60035461010090046001600160a01b03163314620003225760405162461bcd60e51b8152600401808060200182810382526024815260200180620059d26024913960400191505060405180910390fd5b600954158015620003335750600a54155b620003705760405162461bcd60e51b8152600401808060200182810382526023815260200180620059f66023913960400191505060405180910390fd5b600784905583620003b35760405162461bcd60e51b815260040180806020018281038252603081526020018062005a196030913960400191505060405180910390fd5b6000620003c9876001600160e01b03620004e816565b905080156200041f576040805162461bcd60e51b815260206004820152601e60248201527f73657474696e6720706f6f6c78436f6e74726f6c6c6572206661696c65640000604482015290519081900360640190fd5b620004326001600160e01b036200065216565b600955670de0b6b3a7640000600a5562000455866001600160e01b036200065716565b90508015620004965760405162461bcd60e51b815260040180806020018281038252602281526020018062005a496022913960400191505060405180910390fd5b8351620004ab9060019060208701906200086d565b508251620004c19060029060208601906200086d565b50506003805460ff90921660ff199283161790556000805490911660011790555050505050565b60035460009061010090046001600160a01b0316331462000522576200051a6001603f6001600160e01b03620007fd16565b90506200064d565b6005546040805163e939955d60e01b815290516001600160a01b039283169285169163e939955d916004808301926020929190829003018186803b1580156200056a57600080fd5b505afa1580156200057f573d6000803e3d6000fd5b505050506040513d60208110156200059657600080fd5b5051620005ea576040805162461bcd60e51b815260206004820152601c60248201527f6d61726b6572206d6574686f642072657475726e65642066616c736500000000604482015290519081900360640190fd5b600580546001600160a01b0319166001600160a01b03858116918217909255604080519284168352602083019190915280517f91249b936729aec99d65d412fab6e6488ab0eb306623fa400ad5397449ff362b9281900390910190a160005b9150505b919050565b435b90565b600354600090819061010090046001600160a01b0316331462000694576200068b600160426001600160e01b03620007fd16565b9150506200064d565b620006a76001600160e01b036200065216565b60095414620006c7576200068b600a60416001600160e01b03620007fd16565b600660009054906101000a90046001600160a01b03169050826001600160a01b0316632191f92a6040518163ffffffff1660e01b815260040160206040518083038186803b1580156200071957600080fd5b505afa1580156200072e573d6000803e3d6000fd5b505050506040513d60208110156200074557600080fd5b505162000799576040805162461bcd60e51b815260206004820152601c60248201527f6d61726b6572206d6574686f642072657475726e65642066616c736500000000604482015290519081900360640190fd5b600680546001600160a01b0319166001600160a01b03858116918217909255604080519284168352602083019190915280517fedffc32e068c7c95dfd4bdfd5c4d939a084d6b11c4199eac8436ed234d72f9269281900390910190a1600062000649565b60007f45b96fe442630264581b197e84bbada861235052c5a1aadfff9ea4e40a969aa08360108111156200082d57fe5b8360508111156200083a57fe5b604080519283526020830191909152600082820152519081900360600190a18260108111156200086657fe5b9392505050565b828054600181600116156101000203166002900490600052602060002090601f016020900481019282601f10620008b057805160ff1916838001178555620008e0565b82800160010185558215620008e0579182015b82811115620008e0578251825591602001919060010190620008c3565b50620008ee929150620008f2565b5090565b6200065491905b80821115620008ee5760008155600101620008f9565b6150b3806200091f6000396000f3fe6080604052600436106102935760003560e01c80638f840ddd1161015a578063c37f68e2116100c1578063f2b3abbd1161007a578063f2b3abbd14610bbf578063f3fdb15a14610bf2578063f5e3c46214610c07578063f851a44014610c3d578063f8f9da2814610c52578063fca7820b14610c6757610293565b8063c37f68e214610a9c578063c5ebeaec14610af5578063c933701214610b12578063db006a7514610b45578063dd62ed3e14610b6f578063e9c714f214610baa57610293565b8063a9059cbb11610113578063a9059cbb146109ae578063aa5af0fd146109e7578063ae9d70b0146109fc578063b2a02ff114610a11578063b71d1a0c14610a54578063bd6d894d14610a8757610293565b80638f840ddd146107b757806395d89b41146107cc57806395dd9193146107e157806399d8c1b414610814578063a0712d681461096f578063a6afed951461099957610293565b80633af9e669116101fe578063678c1ab1116101b7578063678c1ab1146107065780636c540baf1461071b5780636f307dc31461073057806370a082311461074557806373acee9814610778578063852a12e31461078d57610293565b80633af9e669146106405780633b1d21a2146106735780633e9410101461068857806347bd3718146106b25780635a890c0e146106c7578063601a0bf1146106dc57610293565b8063182df0f511610250578063182df0f5146103fb5780631a31d4651461041057806323b872dd146105755780632608f818146105b857806326782247146105e4578063313ce5671461061557610293565b806306fdde0314610298578063095ea7b3146103225780630e7527021461036f578063173b99041461039e57806317bfdfbc146103b357806318160ddd146103e6575b600080fd5b3480156102a457600080fd5b506102ad610c91565b6040805160208082528351818301528351919283929083019185019080838360005b838110156102e75781810151838201526020016102cf565b50505050905090810190601f1680156103145780820380516001836020036101000a031916815260200191505b509250505060405180910390f35b34801561032e57600080fd5b5061035b6004803603604081101561034557600080fd5b506001600160a01b038135169060200135610d1e565b604080519115158252519081900360200190f35b61038c6004803603602081101561038557600080fd5b5035610d8b565b60408051918252519081900360200190f35b3480156103aa57600080fd5b5061038c610da1565b3480156103bf57600080fd5b5061038c600480360360208110156103d657600080fd5b50356001600160a01b0316610da7565b3480156103f257600080fd5b5061038c610e67565b34801561040757600080fd5b5061038c610e6d565b34801561041c57600080fd5b50610573600480360360e081101561043357600080fd5b6001600160a01b03823581169260208101358216926040820135909216916060820135919081019060a081016080820135600160201b81111561047557600080fd5b82018360208201111561048757600080fd5b803590602001918460018302840111600160201b831117156104a857600080fd5b91908080601f0160208091040260200160405190810160405280939291908181526020018383808284376000920191909152509295949360208101935035915050600160201b8111156104fa57600080fd5b82018360208201111561050c57600080fd5b803590602001918460018302840111600160201b8311171561052d57600080fd5b91908080601f0160208091040260200160405190810160405280939291908181526020018383808284376000920191909152509295505050903560ff169150610ed09050565b005b34801561058157600080fd5b5061035b6004803603606081101561059857600080fd5b506001600160a01b03813581169160208101359091169060400135610f6f565b61038c600480360360408110156105ce57600080fd5b506001600160a01b038135169060200135610fe1565b3480156105f057600080fd5b506105f9610ff7565b604080516001600160a01b039092168252519081900360200190f35b34801561062157600080fd5b5061062a611006565b6040805160ff9092168252519081900360200190f35b34801561064c57600080fd5b5061038c6004803603602081101561066357600080fd5b50356001600160a01b031661100f565b34801561067f57600080fd5b5061038c6110c5565b34801561069457600080fd5b5061038c600480360360208110156106ab57600080fd5b50356110d4565b3480156106be57600080fd5b5061038c6110df565b3480156106d357600080fd5b5061035b6110e5565b3480156106e857600080fd5b5061038c600480360360208110156106ff57600080fd5b50356110ea565b34801561071257600080fd5b506105f9611185565b34801561072757600080fd5b5061038c611194565b34801561073c57600080fd5b506105f961119a565b34801561075157600080fd5b5061038c6004803603602081101561076857600080fd5b50356001600160a01b03166111a9565b34801561078457600080fd5b5061038c6111c4565b34801561079957600080fd5b5061038c600480360360208110156107b057600080fd5b503561127a565b3480156107c357600080fd5b5061038c611285565b3480156107d857600080fd5b506102ad61128b565b3480156107ed57600080fd5b5061038c6004803603602081101561080457600080fd5b50356001600160a01b03166112e3565b34801561082057600080fd5b50610573600480360360c081101561083757600080fd5b6001600160a01b03823581169260208101359091169160408201359190810190608081016060820135600160201b81111561087157600080fd5b82018360208201111561088357600080fd5b803590602001918460018302840111600160201b831117156108a457600080fd5b91908080601f0160208091040260200160405190810160405280939291908181526020018383808284376000920191909152509295949360208101935035915050600160201b8111156108f657600080fd5b82018360208201111561090857600080fd5b803590602001918460018302840111600160201b8311171561092957600080fd5b91908080601f0160208091040260200160405190810160405280939291908181526020018383808284376000920191909152509295505050903560ff1691506113479050565b34801561097b57600080fd5b5061038c6004803603602081101561099257600080fd5b503561152e565b3480156109a557600080fd5b5061038c61153a565b3480156109ba57600080fd5b5061035b600480360360408110156109d157600080fd5b506001600160a01b038135169060200135611892565b3480156109f357600080fd5b5061038c611903565b348015610a0857600080fd5b5061038c611909565b348015610a1d57600080fd5b5061038c60048036036060811015610a3457600080fd5b506001600160a01b038135811691602081013590911690604001356119a8565b348015610a6057600080fd5b5061038c60048036036020811015610a7757600080fd5b50356001600160a01b0316611a19565b348015610a9357600080fd5b5061038c611aae565b348015610aa857600080fd5b50610acf60048036036020811015610abf57600080fd5b50356001600160a01b0316611b6a565b604080519485526020850193909352838301919091526060830152519081900360800190f35b61038c60048036036020811015610b0b57600080fd5b5035611bff565b348015610b1e57600080fd5b5061038c60048036036020811015610b3557600080fd5b50356001600160a01b0316611c0a565b348015610b5157600080fd5b5061038c60048036036020811015610b6857600080fd5b5035611d57565b348015610b7b57600080fd5b5061038c60048036036040811015610b9257600080fd5b506001600160a01b0381358116916020013516611d62565b348015610bb657600080fd5b5061038c611d8d565b348015610bcb57600080fd5b5061038c60048036036020811015610be257600080fd5b50356001600160a01b0316611e90565b348015610bfe57600080fd5b506105f9611eca565b61038c60048036036060811015610c1d57600080fd5b506001600160a01b03813581169160208101359160409091013516611ed9565b348015610c4957600080fd5b506105f9611ef1565b348015610c5e57600080fd5b5061038c611f05565b348015610c7357600080fd5b5061038c60048036036020811015610c8a57600080fd5b5035611f69565b60018054604080516020600284861615610100026000190190941693909304601f81018490048402820184019092528181529291830182828015610d165780601f10610ceb57610100808354040283529160200191610d16565b820191906000526020600020905b815481529060010190602001808311610cf957829003601f168201915b505050505081565b336000818152600f602090815260408083206001600160a01b03871680855290835281842086905581518681529151939493909284927f8c5be1e5ebec7d5bd14f71427d1e84f3dd0314c0f7b2291e5b200ac8c7c3b925929081900390910190a360019150505b92915050565b600080610d9783611fe7565b509150505b919050565b60085481565b6000805460ff16610dec576040805162461bcd60e51b815260206004820152600a6024820152691c994b595b9d195c995960b21b604482015290519081900360640190fd5b6000805460ff19168155610dfe61153a565b14610e49576040805162461bcd60e51b81526020600482015260166024820152751858d8dc9d59481a5b9d195c995cdd0819985a5b195960521b604482015290519081900360640190fd5b610e52826112e3565b90505b6000805460ff19166001179055919050565b600d5481565b6000806000610e7a61210a565b90925090506000826003811115610e8d57fe5b14610ec95760405162461bcd60e51b8152600401808060200182810382526035815260200180614f9f6035913960400191505060405180910390fd5b9150505b90565b610ede868686868686611347565b601180546001600160a01b0319166001600160a01b038981169190911791829055604080516318160ddd60e01b8152905192909116916318160ddd91600480820192602092909190829003018186803b158015610f3a57600080fd5b505afa158015610f4e573d6000803e3d6000fd5b505050506040513d6020811015610f6457600080fd5b505050505050505050565b6000805460ff16610fb4576040805162461bcd60e51b815260206004820152600a6024820152691c994b595b9d195c995960b21b604482015290519081900360640190fd5b6000805460ff19168155610fca338686866121b9565b1490506000805460ff191660011790559392505050565b600080610fee8484612445565b50949350505050565b6004546001600160a01b031681565b60035460ff1681565b6000611019614c89565b604051806020016040528061102c611aae565b90526001600160a01b0384166000908152600e602052604081205491925090819061105890849061256a565b9092509050600082600381111561106b57fe5b146110bd576040805162461bcd60e51b815260206004820152601f60248201527f62616c616e636520636f756c64206e6f742062652063616c63756c6174656400604482015290519081900360640190fd5b949350505050565b60006110cf6125be565b905090565b6000610d858261263e565b600b5481565b600181565b6000805460ff1661112f576040805162461bcd60e51b815260206004820152600a6024820152691c994b595b9d195c995960b21b604482015290519081900360640190fd5b6000805460ff1916815561114161153a565b905080156111675761115f81601081111561115857fe5b60306126d2565b915050610e55565b61117083612738565b9150506000805460ff19166001179055919050565b6005546001600160a01b031681565b60095481565b6011546001600160a01b031681565b6001600160a01b03166000908152600e602052604090205490565b6000805460ff16611209576040805162461bcd60e51b815260206004820152600a6024820152691c994b595b9d195c995960b21b604482015290519081900360640190fd5b6000805460ff1916815561121b61153a565b14611266576040805162461bcd60e51b81526020600482015260166024820152751858d8dc9d59481a5b9d195c995cdd0819985a5b195960521b604482015290519081900360640190fd5b50600b546000805460ff1916600117905590565b6000610d858261286b565b600c5481565b6002805460408051602060018416156101000260001901909316849004601f81018490048402820184019092528181529291830182828015610d165780601f10610ceb57610100808354040283529160200191610d16565b60008060006112f1846128ec565b9092509050600082600381111561130457fe5b146113405760405162461bcd60e51b8152600401808060200182810382526037815260200180614edd6037913960400191505060405180910390fd5b9392505050565b60035461010090046001600160a01b031633146113955760405162461bcd60e51b8152600401808060200182810382526024815260200180614de26024913960400191505060405180910390fd5b6009541580156113a55750600a54155b6113e05760405162461bcd60e51b8152600401808060200182810382526023815260200180614e3d6023913960400191505060405180910390fd5b6007849055836114215760405162461bcd60e51b8152600401808060200182810382526030815260200180614e606030913960400191505060405180910390fd5b600061142c87611c0a565b90508015611481576040805162461bcd60e51b815260206004820152601e60248201527f73657474696e6720706f6f6c78436f6e74726f6c6c6572206661696c65640000604482015290519081900360640190fd5b6114896129a0565b600955670de0b6b3a7640000600a556114a1866129a4565b905080156114e05760405162461bcd60e51b8152600401808060200182810382526022815260200180614e906022913960400191505060405180910390fd5b83516114f3906001906020870190614c9c565b508251611507906002906020860190614c9c565b50506003805460ff90921660ff199283161790556000805490911660011790555050505050565b600080610d9783612b19565b6000806115456129a0565b6009549091508082141561155e57600092505050610ecd565b60006115686125be565b600b54600c54600a54600654604080516315f2405360e01b815260048101879052602481018690526044810185905290519596509394929391926000926001600160a01b03909216916315f24053916064808301926020929190829003018186803b1580156115d657600080fd5b505afa1580156115ea573d6000803e3d6000fd5b505050506040513d602081101561160057600080fd5b5051905065048c2739500081111561165f576040805162461bcd60e51b815260206004820152601c60248201527f626f72726f772072617465206973206162737572646c79206869676800000000604482015290519081900360640190fd5b60008061166c8989612b9a565b9092509050600082600381111561167f57fe5b146116d1576040805162461bcd60e51b815260206004820152601f60248201527f636f756c64206e6f742063616c63756c61746520626c6f636b2064656c746100604482015290519081900360640190fd5b6116d9614c89565b6000806000806116f760405180602001604052808a81525087612bbd565b9097509450600087600381111561170a57fe5b1461173c576117276009600689600381111561172257fe5b612c25565b9e505050505050505050505050505050610ecd565b611746858c61256a565b9097509350600087600381111561175957fe5b14611771576117276009600189600381111561172257fe5b61177b848c612c8b565b9097509250600087600381111561178e57fe5b146117a6576117276009600489600381111561172257fe5b6117c16040518060200160405280600854815250858c612cb1565b909750915060008760038111156117d457fe5b146117ec576117276009600589600381111561172257fe5b6117f7858a8b612cb1565b9097509050600087600381111561180a57fe5b14611822576117276009600389600381111561172257fe5b60098e9055600a819055600b839055600c829055604080518d8152602081018690528082018390526060810185905290517f4dec04e750ca11537cabcd8a9eab06494de08da3735bc8871cd41250e190bc049181900360800190a160009e50505050505050505050505050505090565b6000805460ff166118d7576040805162461bcd60e51b815260206004820152600a6024820152691c994b595b9d195c995960b21b604482015290519081900360640190fd5b6000805460ff191681556118ed333386866121b9565b1490506000805460ff1916600117905592915050565b600a5481565b6006546000906001600160a01b031663b81688166119256125be565b600b54600c546008546040518563ffffffff1660e01b81526004018085815260200184815260200183815260200182815260200194505050505060206040518083038186803b15801561197757600080fd5b505afa15801561198b573d6000803e3d6000fd5b505050506040513d60208110156119a157600080fd5b5051905090565b6000805460ff166119ed576040805162461bcd60e51b815260206004820152600a6024820152691c994b595b9d195c995960b21b604482015290519081900360640190fd5b6000805460ff19169055611a0333858585612d0d565b90506000805460ff191660011790559392505050565b60035460009061010090046001600160a01b03163314611a4657611a3f600160456126d2565b9050610d9c565b600480546001600160a01b038481166001600160a01b0319831681179093556040805191909216808252602082019390935281517fca4f2f25d0898edd99413412fb94012f9e54ec8142f9b093e7720646a95b16a9929181900390910190a160009392505050565b6000805460ff16611af3576040805162461bcd60e51b815260206004820152600a6024820152691c994b595b9d195c995960b21b604482015290519081900360640190fd5b6000805460ff19168155611b0561153a565b14611b50576040805162461bcd60e51b81526020600482015260166024820152751858d8dc9d59481a5b9d195c995cdd0819985a5b195960521b604482015290519081900360640190fd5b611b58610e6d565b90506000805460ff1916600117905590565b6001600160a01b0381166000908152600e6020526040812054819081908190818080611b95896128ec565b935090506000816003811115611ba757fe5b14611bc55760095b975060009650869550859450611bf89350505050565b611bcd61210a565b925090506000816003811115611bdf57fe5b14611beb576009611baf565b5060009650919450925090505b9193509193565b6000610d8582612ee9565b60035460009061010090046001600160a01b03163314611c3057611a3f6001603f6126d2565b6005546040805163e939955d60e01b815290516001600160a01b039283169285169163e939955d916004808301926020929190829003018186803b158015611c7757600080fd5b505afa158015611c8b573d6000803e3d6000fd5b505050506040513d6020811015611ca157600080fd5b5051611cf4576040805162461bcd60e51b815260206004820152601c60248201527f6d61726b6572206d6574686f642072657475726e65642066616c736500000000604482015290519081900360640190fd5b600580546001600160a01b0319166001600160a01b03858116918217909255604080519284168352602083019190915280517f91249b936729aec99d65d412fab6e6488ab0eb306623fa400ad5397449ff362b9281900390910190a16000611340565b6000610d8582612fe2565b6001600160a01b039182166000908152600f6020908152604080832093909416825291909152205490565b6004546000906001600160a01b031633141580611da8575033155b15611dc057611db9600160006126d2565b9050610ecd565b60038054600480546001600160a01b03818116610100818102610100600160a81b0319871617968790556001600160a01b031990931690935560408051948390048216808652929095041660208401528351909391927ff9ffabca9c8276e99321725bcb43fb076a6c66a54b7f21c4e8146d8519b417dc92908290030190a1600454604080516001600160a01b038085168252909216602083015280517fca4f2f25d0898edd99413412fb94012f9e54ec8142f9b093e7720646a95b16a99281900390910190a160009250505090565b600080611e9b61153a565b90508015611ec157611eb9816010811115611eb257fe5b60406126d2565b915050610d9c565b611340836129a4565b6006546001600160a01b031681565b600080611ee785858561305c565b5095945050505050565b60035461010090046001600160a01b031681565b6006546000906001600160a01b03166315f24053611f216125be565b600b54600c546040518463ffffffff1660e01b815260040180848152602001838152602001828152602001935050505060206040518083038186803b15801561197757600080fd5b6000805460ff16611fae576040805162461bcd60e51b815260206004820152600a6024820152691c994b595b9d195c995960b21b604482015290519081900360640190fd5b6000805460ff19168155611fc061153a565b90508015611fde5761115f816010811115611fd757fe5b60466126d2565b61117083613208565b60008054819060ff1661202e576040805162461bcd60e51b815260206004820152600a6024820152691c994b595b9d195c995960b21b604482015290519081900360640190fd5b6000805460ff1916815561204061153a565b9050801561206b5761205e81601081111561205757fe5b60366126d2565b9250600091506120f69050565b6005546040805163653bc4f160e11b815230600482015290516001600160a01b039092169163ca7789e2916024808201926020929091908290030181600087803b1580156120b857600080fd5b505af11580156120cc573d6000803e3d6000fd5b505050506040513d60208110156120e257600080fd5b506120f090503380866132b0565b92509250505b6000805460ff191660011790559092909150565b600d54600090819080612125575050600754600091506121b5565b600061212f6125be565b9050600061213b614c89565b600061214c84600b54600c546135fe565b93509050600081600381111561215e57fe5b14612173579550600094506121b59350505050565b61217d838661363c565b92509050600081600381111561218f57fe5b146121a4579550600094506121b59350505050565b50516000955093506121b592505050565b9091565b600554604080516317b9b84b60e31b81523060048201526001600160a01b03868116602483015285811660448301526064820185905291516000938493169163bdcdc25891608480830192602092919082900301818787803b15801561221e57600080fd5b505af1158015612232573d6000803e3d6000fd5b505050506040513d602081101561224857600080fd5b5051905080156122675761225f6003604a83612c25565b9150506110bd565b836001600160a01b0316856001600160a01b0316141561228d5761225f6002604b6126d2565b60006001600160a01b0387811690871614156122ac57506000196122d4565b506001600160a01b038086166000908152600f60209081526040808320938a16835292905220545b6000806000806122e48589612b9a565b909450925060008460038111156122f757fe5b14612315576123086009604b6126d2565b96505050505050506110bd565b6001600160a01b038a166000908152600e60205260409020546123389089612b9a565b9094509150600084600381111561234b57fe5b1461235c576123086009604c6126d2565b6001600160a01b0389166000908152600e602052604090205461237f9089612c8b565b9094509050600084600381111561239257fe5b146123a3576123086009604d6126d2565b6001600160a01b03808b166000908152600e6020526040808220859055918b1681522081905560001985146123fb576001600160a01b03808b166000908152600f60209081526040808320938f168352929052208390555b886001600160a01b03168a6001600160a01b0316600080516020614f4e8339815191528a6040518082815260200191505060405180910390a35060009a9950505050505050505050565b60008054819060ff1661248c576040805162461bcd60e51b815260206004820152600a6024820152691c994b595b9d195c995960b21b604482015290519081900360640190fd5b6000805460ff1916815561249e61153a565b905080156124c9576124bc8160108111156124b557fe5b60356126d2565b9250600091506125549050565b6005546040805163653bc4f160e11b815230600482015290516001600160a01b039092169163ca7789e2916024808201926020929091908290030181600087803b15801561251657600080fd5b505af115801561252a573d6000803e3d6000fd5b505050506040513d602081101561254057600080fd5b5061254e90503386866132b0565b92509250505b6000805460ff1916600117905590939092509050565b6000806000612577614c89565b6125818686612bbd565b9092509050600082600381111561259457fe5b146125a557509150600090506125b7565b60006125b0826136ed565b9350935050505b9250929050565b601154604080516370a0823160e01b815230600482015290516000926001600160a01b03169182916370a0823191602480820192602092909190829003018186803b15801561260c57600080fd5b505afa158015612620573d6000803e3d6000fd5b505050506040513d602081101561263657600080fd5b505191505090565b6000805460ff16612683576040805162461bcd60e51b815260206004820152600a6024820152691c994b595b9d195c995960b21b604482015290519081900360640190fd5b6000805460ff1916815561269561153a565b905080156126b35761115f8160108111156126ac57fe5b604e6126d2565b6126bc836136fc565b509150506000805460ff19166001179055919050565b60007f45b96fe442630264581b197e84bbada861235052c5a1aadfff9ea4e40a969aa083601081111561270157fe5b83605081111561270d57fe5b604080519283526020830191909152600082820152519081900360600190a182601081111561134057fe5b600354600090819061010090046001600160a01b0316331461276057611eb9600160316126d2565b6127686129a0565b6009541461277c57611eb9600a60336126d2565b826127856125be565b101561279757611eb9600e60326126d2565b600c548311156127ad57611eb9600260346126d2565b50600c54828103908111156127f35760405162461bcd60e51b815260040180806020018281038252602481526020018061505a6024913960400191505060405180910390fd5b600c8190556003546128139061010090046001600160a01b0316846137e4565b600354604080516101009092046001600160a01b0316825260208201859052818101839052517f3bad0c59cf2f06e7314077049f48a93578cd16f5ef92329f1dab1420a99c177e916060908290030190a16000611340565b6000805460ff166128b0576040805162461bcd60e51b815260206004820152600a6024820152691c994b595b9d195c995960b21b604482015290519081900360640190fd5b6000805460ff191681556128c261153a565b905080156128e05761115f8160108111156128d957fe5b60276126d2565b61117033600085613806565b6001600160a01b03811660009081526010602052604081208054829182918291829161292357506000945084935061299b92505050565b6129338160000154600a54613c41565b9094509250600084600381111561294657fe5b1461295b57509193506000925061299b915050565b612969838260010154613c80565b9094509150600084600381111561297c57fe5b1461299157509193506000925061299b915050565b5060009450925050505b915091565b4390565b600354600090819061010090046001600160a01b031633146129cc57611eb9600160426126d2565b6129d46129a0565b600954146129e857611eb9600a60416126d2565b600660009054906101000a90046001600160a01b03169050826001600160a01b0316632191f92a6040518163ffffffff1660e01b815260040160206040518083038186803b158015612a3957600080fd5b505afa158015612a4d573d6000803e3d6000fd5b505050506040513d6020811015612a6357600080fd5b5051612ab6576040805162461bcd60e51b815260206004820152601c60248201527f6d61726b6572206d6574686f642072657475726e65642066616c736500000000604482015290519081900360640190fd5b600680546001600160a01b0319166001600160a01b03858116918217909255604080519284168352602083019190915280517fedffc32e068c7c95dfd4bdfd5c4d939a084d6b11c4199eac8436ed234d72f9269281900390910190a16000611340565b60008054819060ff16612b60576040805162461bcd60e51b815260206004820152600a6024820152691c994b595b9d195c995960b21b604482015290519081900360640190fd5b6000805460ff19168155612b7261153a565b90508015612b905761205e816010811115612b8957fe5b601e6126d2565b6120f03385613cab565b600080838311612bb15750600090508183036125b7565b506003905060006125b7565b6000612bc7614c89565b600080612bd8866000015186613c41565b90925090506000826003811115612beb57fe5b14612c0a575060408051602081019091526000815290925090506125b7565b60408051602081019091529081526000969095509350505050565b60007f45b96fe442630264581b197e84bbada861235052c5a1aadfff9ea4e40a969aa0846010811115612c5457fe5b846050811115612c6057fe5b604080519283526020830191909152818101859052519081900360600190a18360108111156110bd57fe5b600080838301848110612ca3576000925090506125b7565b5060029150600090506125b7565b6000806000612cbe614c89565b612cc88787612bbd565b90925090506000826003811115612cdb57fe5b14612cec5750915060009050612d05565b612cfe612cf8826136ed565b86612c8b565b9350935050505b935093915050565b6005546040805163d02f735160e01b81523060048201526001600160a01b038781166024830152868116604483015285811660648301526084820185905291516000938493169163d02f73519160a480830192602092919082900301818787803b158015612d7a57600080fd5b505af1158015612d8e573d6000803e3d6000fd5b505050506040513d6020811015612da457600080fd5b505190508015612dbb5761225f6003601b83612c25565b846001600160a01b0316846001600160a01b03161415612de15761225f6006601c6126d2565b6001600160a01b0384166000908152600e602052604081205481908190612e089087612b9a565b90935091506000836003811115612e1b57fe5b14612e3e57612e336009601a85600381111561172257fe5b9450505050506110bd565b6001600160a01b0388166000908152600e6020526040902054612e619087612c8b565b90935090506000836003811115612e7457fe5b14612e8c57612e336009601985600381111561172257fe5b6001600160a01b038088166000818152600e60209081526040808320879055938c168083529184902085905583518a815293519193600080516020614f4e833981519152929081900390910190a360009998505050505050505050565b6000805460ff16612f2e576040805162461bcd60e51b815260206004820152600a6024820152691c994b595b9d195c995960b21b604482015290519081900360640190fd5b6000805460ff19168155612f4061153a565b90508015612f5e5761115f816010811115612f5757fe5b60086126d2565b6005546040805163653bc4f160e11b815230600482015290516001600160a01b039092169163ca7789e2916024808201926020929091908290030181600087803b158015612fab57600080fd5b505af1158015612fbf573d6000803e3d6000fd5b505050506040513d6020811015612fd557600080fd5b506111709050338461407b565b6000805460ff16613027576040805162461bcd60e51b815260206004820152600a6024820152691c994b595b9d195c995960b21b604482015290519081900360640190fd5b6000805460ff1916815561303961153a565b905080156130505761115f8160108111156128d957fe5b61117033846000613806565b60008054819060ff166130a3576040805162461bcd60e51b815260206004820152600a6024820152691c994b595b9d195c995960b21b604482015290519081900360640190fd5b6000805460ff191681556130b561153a565b905080156130e0576130d38160108111156130cc57fe5b600f6126d2565b9250600091506131f19050565b836001600160a01b031663a6afed956040518163ffffffff1660e01b8152600401602060405180830381600087803b15801561311b57600080fd5b505af115801561312f573d6000803e3d6000fd5b505050506040513d602081101561314557600080fd5b505190508015613165576130d381601081111561315e57fe5b60106126d2565b6005546040805163653bc4f160e11b815230600482015290516001600160a01b039092169163ca7789e2916024808201926020929091908290030181600087803b1580156131b257600080fd5b505af11580156131c6573d6000803e3d6000fd5b505050506040513d60208110156131dc57600080fd5b506131eb90503387878761430f565b92509250505b6000805460ff191660011790559094909350915050565b60035460009061010090046001600160a01b0316331461322e57611a3f600160476126d2565b6132366129a0565b6009541461324a57611a3f600a60486126d2565b670de0b6b3a764000082111561326657611a3f600260496126d2565b6008805490839055604080518281526020810185905281517faaa68312e2ea9d50e16af5068410ab56e1a1fd06037b1a35664812c30f821460929181900390910190a16000611340565b60055460408051631200453160e11b81523060048201526001600160a01b0386811660248301528581166044830152606482018590529151600093849384939116916324008a629160848082019260209290919082900301818787803b15801561331957600080fd5b505af115801561332d573d6000803e3d6000fd5b505050506040513d602081101561334357600080fd5b5051905080156133675761335a6003603883612c25565b925060009150612d059050565b61336f6129a0565b600954146133835761335a600a60396126d2565b61338b614d1a565b6001600160a01b03861660009081526010602052604090206001015460608201526133b5866128ec565b60808301819052602083018260038111156133cc57fe5b60038111156133d757fe5b90525060009050816020015160038111156133ee57fe5b146134185761340a600960378360200151600381111561172257fe5b935060009250612d05915050565b6000198514156134315760808101516040820152613439565b604081018590525b613447878260400151614801565b60e08201819052608082015161345c91612b9a565b60a083018190526020830182600381111561347357fe5b600381111561347e57fe5b905250600090508160200151600381111561349557fe5b146134d15760405162461bcd60e51b815260040180806020018281038252603a815260200180614f14603a913960400191505060405180910390fd5b6134e1600b548260e00151612b9a565b60c08301819052602083018260038111156134f857fe5b600381111561350357fe5b905250600090508160200151600381111561351a57fe5b146135565760405162461bcd60e51b8152600401808060200182810382526031815260200180614f6e6031913960400191505060405180910390fd5b60a080820180516001600160a01b03808a16600081815260106020908152604091829020948555600a5460019095019490945560c0870151600b81905560e088015195518251948f16855294840192909252828101949094526060820192909252608081019190915290517f1a2a22cb034d26d1854bdc6666a5b91fe25efbbb5dcad3b0355478d6f5c362a1929181900390910190a160e00151600097909650945050505050565b60008060008061360e8787612c8b565b9092509050600082600381111561362157fe5b146136325750915060009050612d05565b612cfe8186612b9a565b6000613646614c89565b60008061365b86670de0b6b3a7640000613c41565b9092509050600082600381111561366e57fe5b1461368d575060408051602081019091526000815290925090506125b7565b60008061369a8388613c80565b909250905060008260038111156136ad57fe5b146136d057816040518060200160405280600081525095509550505050506125b7565b604080516020810190915290815260009890975095505050505050565b51670de0b6b3a7640000900490565b60008060008061370a6129a0565b600954146137295761371e600a604f6126d2565b9350915061299b9050565b6137333386614801565b905080600c54019150600c54821015613793576040805162461bcd60e51b815260206004820181905260248201527f61646420726573657276657320756e6578706563746564206f766572666c6f77604482015290519081900360640190fd5b600c829055604080513381526020810183905280820184905290517fa91e67c5ea634cd43a12c5a482724b03de01e85ca68702a53d0c2f45cb7c1dc59181900360600190a160009350915050915091565b6011546001600160a01b031661380181848463ffffffff61497016565b505050565b6000821580613813575081155b61384e5760405162461bcd60e51b81526004018080602001828103825260348152602001806150266034913960400191505060405180910390fd5b613856614d60565b61385e61210a565b604083018190526020830182600381111561387557fe5b600381111561388057fe5b905250600090508160200151600381111561389757fe5b146138bb576138b36009602b8360200151600381111561172257fe5b915050611340565b831561393c5760608101849052604080516020810182529082015181526138e2908561256a565b60808301819052602083018260038111156138f957fe5b600381111561390457fe5b905250600090508160200151600381111561391b57fe5b14613937576138b3600960298360200151600381111561172257fe5b6139b5565b61395883604051806020016040528084604001518152506149c2565b606083018190526020830182600381111561396f57fe5b600381111561397a57fe5b905250600090508160200151600381111561399157fe5b146139ad576138b36009602a8360200151600381111561172257fe5b608081018390525b60055460608201516040805163eabe7d9160e01b81523060048201526001600160a01b03898116602483015260448201939093529051600093929092169163eabe7d919160648082019260209290919082900301818787803b158015613a1a57600080fd5b505af1158015613a2e573d6000803e3d6000fd5b505050506040513d6020811015613a4457600080fd5b505190508015613a6457613a5b6003602883612c25565b92505050611340565b613a6c6129a0565b60095414613a8057613a5b600a602c6126d2565b613a90600d548360600151612b9a565b60a0840181905260208401826003811115613aa757fe5b6003811115613ab257fe5b9052506000905082602001516003811115613ac957fe5b14613ae557613a5b6009602e8460200151600381111561172257fe5b6001600160a01b0386166000908152600e60205260409020546060830151613b0d9190612b9a565b60c0840181905260208401826003811115613b2457fe5b6003811115613b2f57fe5b9052506000905082602001516003811115613b4657fe5b14613b6257613a5b6009602d8460200151600381111561172257fe5b8160800151613b6f6125be565b1015613b8157613a5b600e602f6126d2565b613b8f8683608001516137e4565b60a0820151600d5560c08201516001600160a01b0387166000818152600e6020908152604091829020939093556060850151815190815290513093600080516020614f4e833981519152928290030190a36080820151606080840151604080516001600160a01b038b168152602081019490945283810191909152517fe5b754fb1abb7f01b499791d0b820ae3b6af3424ac1c59768edb53f4ec31a9299281900390910190a160009695505050505050565b60008083613c54575060009050806125b7565b83830283858281613c6157fe5b0414613c75575060029150600090506125b7565b6000925090506125b7565b60008082613c9457506001905060006125b7565b6000838581613c9f57fe5b04915091509250929050565b60055460408051634ef4c3e160e01b81523060048201526001600160a01b03858116602483015260448201859052915160009384938493911691634ef4c3e19160648082019260209290919082900301818787803b158015613d0c57600080fd5b505af1158015613d20573d6000803e3d6000fd5b505050506040513d6020811015613d3657600080fd5b505190508015613d5a57613d4d6003601f83612c25565b9250600091506125b79050565b613d626129a0565b60095414613d7657613d4d600a60226126d2565b613d7e614d60565b613d8661210a565b6040830181905260208301826003811115613d9d57fe5b6003811115613da857fe5b9052506000905081602001516003811115613dbf57fe5b14613de957613ddb600960218360200151600381111561172257fe5b9350600092506125b7915050565b613df38686614801565b60c0820181905260408051602081018252908301518152613e1491906149c2565b6060830181905260208301826003811115613e2b57fe5b6003811115613e3657fe5b9052506000905081602001516003811115613e4d57fe5b14613e9f576040805162461bcd60e51b815260206004820181905260248201527f4d494e545f45584348414e47455f43414c43554c4154494f4e5f4641494c4544604482015290519081900360640190fd5b613eaf600d548260600151612c8b565b6080830181905260208301826003811115613ec657fe5b6003811115613ed157fe5b9052506000905081602001516003811115613ee857fe5b14613f245760405162461bcd60e51b8152600401808060200182810382526028815260200180614fd46028913960400191505060405180910390fd5b6001600160a01b0386166000908152600e60205260409020546060820151613f4c9190612c8b565b60a0830181905260208301826003811115613f6357fe5b6003811115613f6e57fe5b9052506000905081602001516003811115613f8557fe5b14613fc15760405162461bcd60e51b815260040180806020018281038252602b815260200180614eb2602b913960400191505060405180910390fd5b6080810151600d5560a08101516001600160a01b0387166000818152600e60209081526040918290209390935560c084015160608086015183519485529484019190915282820193909352517f4c209b5fc8ad50758f13e2e1088ba56a560dff690a1c6fef26394f4c03821c4f929181900390910190a1606081015160408051918252516001600160a01b038816913091600080516020614f4e8339815191529181900360200190a360c001516000969095509350505050565b6005546040805163368f515360e21b81523060048201526001600160a01b0385811660248301526044820185905291516000938493169163da3d454c91606480830192602092919082900301818787803b1580156140d857600080fd5b505af11580156140ec573d6000803e3d6000fd5b505050506040513d602081101561410257600080fd5b505190508015614121576141196003600e83612c25565b915050610d85565b6141296129a0565b6009541461413c57614119600a806126d2565b826141456125be565b101561415757614119600e60096126d2565b61415f614d9e565b614168856128ec565b602083018190528282600381111561417c57fe5b600381111561418757fe5b905250600090508151600381111561419b57fe5b146141c0576141b7600960078360000151600381111561172257fe5b92505050610d85565b6141ce816020015185612c8b565b60408301819052828260038111156141e257fe5b60038111156141ed57fe5b905250600090508151600381111561420157fe5b1461421d576141b76009600c8360000151600381111561172257fe5b614229600b5485612c8b565b606083018190528282600381111561423d57fe5b600381111561424857fe5b905250600090508151600381111561425c57fe5b14614278576141b76009600b8360000151600381111561172257fe5b61428285856137e4565b604080820180516001600160a01b03881660008181526010602090815290859020928355600a54600190930192909255606080860151600b81905593518551928352928201899052818501929092529081019190915290517f13ed6866d4e1ee6da46f845c46d7e54120883d75c5ea9a2dacc1c4ca8984ab809181900360800190a1600095945050505050565b60055460408051632fe3f38f60e11b81523060048201526001600160a01b0384811660248301528781166044830152868116606483015260848201869052915160009384938493911691635fc7e71e9160a48082019260209290919082900301818787803b15801561438057600080fd5b505af1158015614394573d6000803e3d6000fd5b505050506040513d60208110156143aa57600080fd5b5051905080156143ce576143c16003601283612c25565b9250600091506147f89050565b6143d66129a0565b600954146143ea576143c1600a60166126d2565b6143f26129a0565b846001600160a01b0316636c540baf6040518163ffffffff1660e01b815260040160206040518083038186803b15801561442b57600080fd5b505afa15801561443f573d6000803e3d6000fd5b505050506040513d602081101561445557600080fd5b505114614468576143c1600a60116126d2565b866001600160a01b0316866001600160a01b0316141561448e576143c1600660176126d2565b8461449f576143c1600760156126d2565b6000198514156144b5576143c1600760146126d2565b6000806144c38989896132b0565b909250905081156144f3576144e48260108111156144dd57fe5b60186126d2565b9450600093506147f892505050565b6005546040805163c488847b60e01b81523060048201526001600160a01b038981166024830152604482018590528251600094859492169263c488847b926064808301939192829003018186803b15801561454d57600080fd5b505afa158015614561573d6000803e3d6000fd5b505050506040513d604081101561457757600080fd5b508051602090910151909250905081156145c25760405162461bcd60e51b8152600401808060200182810382526037815260200180614e066037913960400191505060405180910390fd5b80886001600160a01b03166370a082318c6040518263ffffffff1660e01b815260040180826001600160a01b03166001600160a01b0316815260200191505060206040518083038186803b15801561461957600080fd5b505afa15801561462d573d6000803e3d6000fd5b505050506040513d602081101561464357600080fd5b50511015614698576040805162461bcd60e51b815260206004820152601860248201527f4c49515549444154455f5345495a455f544f4f5f4d5543480000000000000000604482015290519081900360640190fd5b60006001600160a01b0389163014156146be576146b7308d8d85612d0d565b9050614748565b6040805163b2a02ff160e01b81526001600160a01b038e811660048301528d81166024830152604482018590529151918b169163b2a02ff1916064808201926020929091908290030181600087803b15801561471957600080fd5b505af115801561472d573d6000803e3d6000fd5b505050506040513d602081101561474357600080fd5b505190505b8015614792576040805162461bcd60e51b81526020600482015260146024820152731d1bdad95b881cd95a5e9d5c994819985a5b195960621b604482015290519081900360640190fd5b604080516001600160a01b03808f168252808e1660208301528183018790528b1660608201526080810184905290517f298637f684da70674f26509b10f07ec2fbc77a335ab1e7d6215a4b2484d8bb529181900360a00190a16000975092955050505050505b94509492505050565b601154604080516370a0823160e01b815230600482015290516000926001600160a01b031691839183916370a08231916024808301926020929190829003018186803b15801561485057600080fd5b505afa158015614864573d6000803e3d6000fd5b505050506040513d602081101561487a57600080fd5b505190506148996001600160a01b03831686308763ffffffff6149d916565b601154604080516370a0823160e01b815230600482015290516000926001600160a01b0316916370a08231916024808301926020929190829003018186803b1580156148e457600080fd5b505afa1580156148f8573d6000803e3d6000fd5b505050506040513d602081101561490e57600080fd5b5051905081811015614967576040805162461bcd60e51b815260206004820152601a60248201527f544f4b454e5f5452414e534645525f494e5f4f564552464c4f57000000000000604482015290519081900360640190fd5b03949350505050565b604080516001600160a01b038416602482015260448082018490528251808303909101815260649091019091526020810180516001600160e01b031663a9059cbb60e01b179052613801908490614a39565b60008060006149cf614c89565b6125818686614bf1565b604080516001600160a01b0380861660248301528416604482015260648082018490528251808303909101815260849091019091526020810180516001600160e01b03166323b872dd60e01b179052614a33908590614a39565b50505050565b614a4b826001600160a01b0316614c50565b614a9c576040805162461bcd60e51b815260206004820152601f60248201527f5361666545524332303a2063616c6c20746f206e6f6e2d636f6e747261637400604482015290519081900360640190fd5b60006060836001600160a01b0316836040518082805190602001908083835b60208310614ada5780518252601f199092019160209182019101614abb565b6001836020036101000a0380198251168184511680821785525050505050509050019150506000604051808303816000865af19150503d8060008114614b3c576040519150601f19603f3d011682016040523d82523d6000602084013e614b41565b606091505b509150915081614b98576040805162461bcd60e51b815260206004820181905260248201527f5361666545524332303a206c6f772d6c6576656c2063616c6c206661696c6564604482015290519081900360640190fd5b805115614a3357808060200190516020811015614bb457600080fd5b5051614a335760405162461bcd60e51b815260040180806020018281038252602a815260200180614ffc602a913960400191505060405180910390fd5b6000614bfb614c89565b600080614c10670de0b6b3a764000087613c41565b90925090506000826003811115614c2357fe5b14614c42575060408051602081019091526000815290925090506125b7565b6125b081866000015161363c565b6000813f7fc5d2460186f7233c927e7db2dcc703c0e500b653ca82273b7bfad8045d85a4708181148015906110bd575050151592915050565b6040518060200160405280600081525090565b828054600181600116156101000203166002900490600052602060002090601f016020900481019282601f10614cdd57805160ff1916838001178555614d0a565b82800160010185558215614d0a579182015b82811115614d0a578251825591602001919060010190614cef565b50614d16929150614dc7565b5090565b6040805161010081019091528060008152602001600081526020016000815260200160008152602001600081526020016000815260200160008152602001600081525090565b6040805160e0810190915280600081526020016000815260200160008152602001600081526020016000815260200160008152602001600081525090565b604080516080810190915280600081526020016000815260200160008152602001600081525090565b610ecd91905b80821115614d165760008155600101614dcd56fe6f6e6c792061646d696e206d617920696e697469616c697a6520746865206d61726b65744c49515549444154455f504f4f4c58434f4e54524f4c4c45525f43414c43554c4154455f414d4f554e545f5345495a455f4641494c45446d61726b6574206d6179206f6e6c7920626520696e697469616c697a6564206f6e6365696e697469616c2065786368616e67652072617465206d7573742062652067726561746572207468616e207a65726f2e73657474696e6720696e7465726573742072617465206d6f64656c206661696c65644d494e545f4e45575f4143434f554e545f42414c414e43455f43414c43554c4154494f4e5f4641494c4544626f72726f7742616c616e636553746f7265643a20626f72726f7742616c616e636553746f726564496e7465726e616c206661696c656452455041595f424f52524f575f4e45575f4143434f554e545f424f52524f575f42414c414e43455f43414c43554c4154494f4e5f4641494c4544ddf252ad1be2c89b69c2b068fc378daa952ba7f163c4a11628f55a4df523b3ef52455041595f424f52524f575f4e45575f544f54414c5f42414c414e43455f43414c43554c4154494f4e5f4641494c454465786368616e67655261746553746f7265643a2065786368616e67655261746553746f726564496e7465726e616c206661696c65644d494e545f4e45575f544f54414c5f535550504c595f43414c43554c4154494f4e5f4641494c45445361666545524332303a204552433230206f7065726174696f6e20646964206e6f7420737563636565646f6e65206f662072656465656d546f6b656e73496e206f722072656465656d416d6f756e74496e206d757374206265207a65726f72656475636520726573657276657320756e657870656374656420756e646572666c6f77a2646970667358221220ff60b0e1f2dfd38957907226438986cdb03f6683aaac3bfcbfef2b7f2902e19064736f6c634300060900336f6e6c792061646d696e206d617920696e697469616c697a6520746865206d61726b65746d61726b6574206d6179206f6e6c7920626520696e697469616c697a6564206f6e6365696e697469616c2065786368616e67652072617465206d7573742062652067726561746572207468616e207a65726f2e73657474696e6720696e7465726573742072617465206d6f64656c206661696c6564",
  "immutableReferences": {},
  "source": "// SPDX-License-Identifier: UNLICENSED\npragma solidity ^0.6.9;\n\nimport \"../tokenization/PErc20.sol\";\n\n/**\n * @title Compound's CErc20Immutable Contract\n * @notice pTokens which wrap an EIP-20 underlying and are immutable\n * @author Compound\n */\ncontract PErc20Immutable is PErc20 {\n    /**\n     * @notice Construct a new money market\n     * @param underlying_ The address of the underlying asset\n     * @param riskManager_ The address of the RiskManager\n     * @param interestRateModel_ The address of the interest rate model\n     * @param initialExchangeRateMantissa_ The initial exchange rate, scaled by 1e18\n     * @param name_ ERC-20 name of this token\n     * @param symbol_ ERC-20 symbol of this token\n     * @param decimals_ ERC-20 decimal precision of this token\n     * @param admin_ Address of the administrator of this token\n     */\n    constructor(address underlying_,\n                IRiskManager riskManager_,\n                InterestRateModel interestRateModel_,\n                uint initialExchangeRateMantissa_,\n                string memory name_,\n                string memory symbol_,\n                uint8 decimals_,\n                address payable admin_) public {\n        // Creator of the contract is admin during initialization\n        admin = msg.sender;\n\n        // Initialize the market\n        initialize(underlying_, riskManager_, interestRateModel_, initialExchangeRateMantissa_, name_, symbol_, decimals_);\n\n        // Set the proper admin now that initialization is done\n        admin = admin_;\n    }\n}\n",
  "sourcePath": "/Users/ashton/repo/blockchain/eth/smartcontracts/PoolX/contracts/tokenization/PErc20Immutable.sol",
  "compiler": {
    "name": "solc",
    "version": "0.6.9+commit.3e3065ac.Emscripten.clang"
  },
  "schemaVersion": "3.2.0",
  "updatedAt": "2020-08-06T22:51:00.820Z",
  "devdoc": {
    "author": "Compound",
    "methods": {
      "_acceptAdmin()": {
        "details": "Admin function for pending admin to accept role and update admin",
        "returns": {
          "_0": "uint 0=success, otherwise a failure (see ErrorReporter.sol for details)"
        }
      },
      "_addReserves(uint256)": {
        "params": {
          "addAmount": "The amount fo underlying token to add as reserves"
        },
        "returns": {
          "_0": "uint 0=success, otherwise a failure (see ErrorReporter.sol for details)"
        }
      },
      "_reduceReserves(uint256)": {
        "params": {
          "reduceAmount": "Amount of reduction to reserves"
        },
        "returns": {
          "_0": "uint 0=success, otherwise a failure (see ErrorReporter.sol for details)"
        }
      },
      "_setInterestRateModel(address)": {
        "details": "Admin function to accrue interest and update the interest rate model",
        "params": {
          "newInterestRateModel": "the new interest rate model to use"
        },
        "returns": {
          "_0": "uint 0=success, otherwise a failure (see ErrorReporter.sol for details)"
        }
      },
      "_setPController(address)": {
        "details": "Admin function to set a new riskManager",
        "returns": {
          "_0": "uint 0=success, otherwise a failure (see ErrorReporter.sol for details)"
        }
      },
      "_setPendingAdmin(address)": {
        "details": "Admin function to begin change of admin. The newPendingAdmin must call `_acceptAdmin` to finalize the transfer.",
        "params": {
          "newPendingAdmin": "New pending admin."
        },
        "returns": {
          "_0": "uint 0=success, otherwise a failure (see ErrorReporter.sol for details)"
        }
      },
      "_setReserveFactor(uint256)": {
        "details": "Admin function to accrue interest and set a new reserve factor",
        "returns": {
          "_0": "uint 0=success, otherwise a failure (see ErrorReporter.sol for details)"
        }
      },
      "accrueInterest()": {
        "details": "This calculates interest accrued from the last checkpointed block   up to the current block and writes new checkpoint to storage."
      },
      "allowance(address,address)": {
        "params": {
          "owner": "The address of the account which owns the tokens to be spent",
          "spender": "The address of the account which may transfer tokens"
        },
        "returns": {
          "_0": "The number of tokens allowed to be spent (-1 means infinite)"
        }
      },
      "approve(address,uint256)": {
        "details": "This will overwrite the approval amount for `spender`  and is subject to issues noted [here](https://eips.ethereum.org/EIPS/eip-20#approve)",
        "params": {
          "amount": "The number of tokens that are approved (-1 means infinite)",
          "spender": "The address of the account which may transfer tokens"
        },
        "returns": {
          "_0": "Whether or not the approval succeeded"
        }
      },
      "balanceOf(address)": {
        "params": {
          "owner": "The address of the account to query"
        },
        "returns": {
          "_0": "The number of tokens owned by `owner`"
        }
      },
      "balanceOfUnderlying(address)": {
        "details": "This also accrues interest in a transaction",
        "params": {
          "owner": "The address of the account to query"
        },
        "returns": {
          "_0": "The amount of underlying owned by `owner`"
        }
      },
      "borrow(uint256)": {
        "params": {
          "borrowAmount": "The amount of the underlying asset to borrow"
        },
        "returns": {
          "_0": "uint 0=success, otherwise a failure (see ErrorReporter.sol for details)"
        }
      },
      "borrowBalanceCurrent(address)": {
        "params": {
          "account": "The address whose balance should be calculated after updating borrowIndex"
        },
        "returns": {
          "_0": "The calculated balance"
        }
      },
      "borrowBalanceStored(address)": {
        "params": {
          "account": "The address whose balance should be calculated"
        },
        "returns": {
          "_0": "The calculated balance"
        }
      },
      "borrowRatePerBlock()": {
        "returns": {
          "_0": "The borrow interest rate per block, scaled by 1e18"
        }
      },
      "constructor": {
        "params": {
          "admin_": "Address of the administrator of this token",
          "decimals_": "ERC-20 decimal precision of this token",
          "initialExchangeRateMantissa_": "The initial exchange rate, scaled by 1e18",
          "interestRateModel_": "The address of the interest rate model",
          "name_": "ERC-20 name of this token",
          "riskManager_": "The address of the RiskManager",
          "symbol_": "ERC-20 symbol of this token",
          "underlying_": "The address of the underlying asset"
        }
      },
      "exchangeRateCurrent()": {
        "returns": {
          "_0": "Calculated exchange rate scaled by 1e18"
        }
      },
      "exchangeRateStored()": {
        "details": "This function does not accrue interest before calculating the exchange rate",
        "returns": {
          "_0": "Calculated exchange rate scaled by 1e18"
        }
      },
      "getAccountSnapshot(address)": {
        "details": "This is used by riskManager to more efficiently perform liquidity checks.",
        "params": {
          "account": "Address of the account to snapshot"
        },
        "returns": {
          "_0": "(possible error, token balance, borrow balance, exchange rate mantissa)"
        }
      },
      "getCash()": {
        "returns": {
          "_0": "The quantity of underlying asset owned by this contract"
        }
      },
      "initialize(address,address,address,uint256,string,string,uint8)": {
        "params": {
          "decimals_": "ERC-20 decimal precision of this token",
          "initialExchangeRateMantissa_": "The initial exchange rate, scaled by 1e18",
          "interestRateModel_": "The address of the interest rate model",
          "name_": "ERC-20 name of this token",
          "riskManager_": "The address of the RiskManager",
          "symbol_": "ERC-20 symbol of this token",
          "underlying_": "The address of the underlying asset"
        }
      },
      "initialize(address,address,uint256,string,string,uint8)": {
        "params": {
          "decimals_": "EIP-20 decimal precision of this token",
          "initialExchangeRateMantissa_": "The initial exchange rate, scaled by 1e18",
          "interestRateModel_": "",
          "name_": "EIP-20 name of this token",
          "riskManager_": "controller ",
          "symbol_": "EIP-20 symbol of this token"
        }
      },
      "liquidateBorrow(address,uint256,address)": {
        "params": {
          "borrower": "The borrower of this pToken to be liquidated",
          "pTokenCollateral": "The market in which to seize collateral from the borrower",
          "repayAmount": "The amount of the underlying borrowed asset to repay"
        },
        "returns": {
          "_0": "uint 0=success, otherwise a failure (see ErrorReporter.sol for details)"
        }
      },
      "mint(uint256)": {
        "details": "Accrues interest whether or not the operation succeeds, unless reverted",
        "params": {
          "mintAmount": "The amount of the underlying asset to supply"
        },
        "returns": {
          "_0": "uint 0=success, otherwise a failure (see ErrorReporter.sol for details)"
        }
      },
      "redeem(uint256)": {
        "details": "Accrues interest whether or not the operation succeeds, unless reverted",
        "params": {
          "redeemTokens": "The number of pTokens to redeem into underlying"
        },
        "returns": {
          "_0": "uint 0=success, otherwise a failure (see ErrorReporter.sol for details)"
        }
      },
      "redeemUnderlying(uint256)": {
        "details": "Accrues interest whether or not the operation succeeds, unless reverted",
        "params": {
          "redeemAmount": "The amount of underlying to redeem"
        },
        "returns": {
          "_0": "uint 0=success, otherwise a failure (see ErrorReporter.sol for details)"
        }
      },
      "repayBorrow(uint256)": {
        "params": {
          "repayAmount": "The amount to repay"
        },
        "returns": {
          "_0": "uint 0=success, otherwise a failure (see ErrorReporter.sol for details)"
        }
      },
      "repayBorrowBehalf(address,uint256)": {
        "params": {
          "borrower": "the account with the debt being payed off",
          "repayAmount": "The amount to repay"
        },
        "returns": {
          "_0": "uint 0=success, otherwise a failure (see ErrorReporter.sol for details)"
        }
      },
      "seize(address,address,uint256)": {
        "details": "Will fail unless called by another pToken during the process of liquidation.  Its absolutely critical to use msg.sender as the borrowed pToken and not a parameter.",
        "params": {
          "borrower": "The account having collateral seized",
          "liquidator": "The account receiving seized collateral",
          "seizeTokens": "The number of pTokens to seize"
        },
        "returns": {
          "_0": "uint 0=success, otherwise a failure (see ErrorReporter.sol for details)"
        }
      },
      "supplyRatePerBlock()": {
        "returns": {
          "_0": "The supply interest rate per block, scaled by 1e18"
        }
      },
      "totalBorrowsCurrent()": {
        "returns": {
          "_0": "The total borrows with interest"
        }
      },
      "transfer(address,uint256)": {
        "params": {
          "amount": "The number of tokens to transfer",
          "dst": "The address of the destination account"
        },
        "returns": {
          "_0": "Whether or not the transfer succeeded"
        }
      },
      "transferFrom(address,address,uint256)": {
        "params": {
          "amount": "The number of tokens to transfer",
          "dst": "The address of the destination account",
          "src": "The address of the source account"
        },
        "returns": {
          "_0": "Whether or not the transfer succeeded"
        }
      }
    },
    "title": "Compound's CErc20Immutable Contract"
  },
  "userdoc": {
    "methods": {
      "_acceptAdmin()": {
        "notice": "Accepts transfer of admin rights. msg.sender must be pendingAdmin"
      },
      "_addReserves(uint256)": {
        "notice": "The sender adds to reserves."
      },
      "_reduceReserves(uint256)": {
        "notice": "Accrues interest and reduces reserves by transferring to admin"
      },
      "_setInterestRateModel(address)": {
        "notice": "accrues interest and updates the interest rate model using _setInterestRateModelFresh"
      },
      "_setPController(address)": {
        "notice": "Sets a new riskManager for the market"
      },
      "_setPendingAdmin(address)": {
        "notice": "Begins transfer of admin rights. The newPendingAdmin must call `_acceptAdmin` to finalize the transfer."
      },
      "_setReserveFactor(uint256)": {
        "notice": "accrues interest and sets a new reserve factor for the protocol using _setReserveFactorFresh"
      },
      "accrualBlockNumber()": {
        "notice": "Block number that interest was last accrued at"
      },
      "accrueInterest()": {
        "notice": "Applies accrued interest to total borrows and reserves"
      },
      "admin()": {
        "notice": "Administrator for this contract"
      },
      "allowance(address,address)": {
        "notice": "Get the current allowance from `owner` for `spender`"
      },
      "approve(address,uint256)": {
        "notice": "Approve `spender` to transfer up to `amount` from `src`"
      },
      "balanceOf(address)": {
        "notice": "Get the token balance of the `owner`"
      },
      "balanceOfUnderlying(address)": {
        "notice": "Get the underlying balance of the `owner`"
      },
      "borrow(uint256)": {
        "notice": "Sender borrows assets from the protocol to their own address"
      },
      "borrowBalanceCurrent(address)": {
        "notice": "Accrue interest to updated borrowIndex and then calculate account's borrow balance using the updated borrowIndex"
      },
      "borrowBalanceStored(address)": {
        "notice": "Return the borrow balance of account based on stored data"
      },
      "borrowIndex()": {
        "notice": "Accumulator of the total earned interest rate since the opening of the market"
      },
      "borrowRatePerBlock()": {
        "notice": "Returns the current per-block borrow interest rate for this pToken"
      },
      "constructor": "Construct a new money market",
      "decimals()": {
        "notice": "EIP-20 token decimals for this token"
      },
      "exchangeRateCurrent()": {
        "notice": "Accrue interest then return the up-to-date exchange rate"
      },
      "exchangeRateStored()": {
        "notice": "Calculates the exchange rate from the underlying to the pToken"
      },
      "getAccountSnapshot(address)": {
        "notice": "Get a snapshot of the account's balances, and the cached exchange rate"
      },
      "getCash()": {
        "notice": "Get cash balance of this pToken in the underlying asset"
      },
      "initialize(address,address,address,uint256,string,string,uint8)": {
        "notice": "Initialize the new money market"
      },
      "initialize(address,address,uint256,string,string,uint8)": {
        "notice": ""
      },
      "interestRateModel()": {
        "notice": "Model which tells what the current interest rate should be"
      },
      "isPToken()": {
        "notice": "Indicator that this is a PToken contract (for inspection)"
      },
      "liquidateBorrow(address,uint256,address)": {
        "notice": "The sender liquidates the borrowers collateral.  The collateral seized is transferred to the liquidator."
      },
      "mint(uint256)": {
        "notice": "Sender supplies assets into the market and receives pTokens in exchange"
      },
      "name()": {
        "notice": "EIP-20 token name for this token"
      },
      "pendingAdmin()": {
        "notice": "Pending administrator for this contract"
      },
      "ptroller()": {
        "notice": "Contract which oversees inter-pToken operations"
      },
      "redeem(uint256)": {
        "notice": "Sender redeems pTokens in exchange for the underlying asset"
      },
      "redeemUnderlying(uint256)": {
        "notice": "Sender redeems pTokens in exchange for a specified amount of underlying asset"
      },
      "repayBorrow(uint256)": {
        "notice": "Sender repays their own borrow"
      },
      "repayBorrowBehalf(address,uint256)": {
        "notice": "Sender repays a borrow belonging to borrower"
      },
      "reserveFactorMantissa()": {
        "notice": "Fraction of interest currently set aside for reserves"
      },
      "seize(address,address,uint256)": {
        "notice": "Transfers collateral tokens (this market) to the liquidator."
      },
      "supplyRatePerBlock()": {
        "notice": "Returns the current per-block supply interest rate for this pToken"
      },
      "symbol()": {
        "notice": "EIP-20 token symbol for this token"
      },
      "totalBorrows()": {
        "notice": "Total amount of outstanding borrows of the underlying in this market"
      },
      "totalBorrowsCurrent()": {
        "notice": "Returns the current total borrows plus accrued interest"
      },
      "totalReserves()": {
        "notice": "Total amount of reserves of the underlying held in this market"
      },
      "totalSupply()": {
        "notice": "Total number of tokens in circulation"
      },
      "transfer(address,uint256)": {
        "notice": "Transfer `amount` tokens from `msg.sender` to `dst`"
      },
      "transferFrom(address,address,uint256)": {
        "notice": "Transfer `amount` tokens from `src` to `dst`"
      },
      "underlying()": {
        "notice": "Underlying asset for this PToken"
      }
    },
    "notice": "pTokens which wrap an EIP-20 underlying and are immutable"
  }
}