{
  "contractName": "PErc20",
  "abi": [
    {
      "inputs": [
        {
          "internalType": "address",
          "name": "underlying_",
          "type": "address"
        },
        {
          "internalType": "contract IRiskManager",
          "name": "riskManager_",
          "type": "address"
        },
        {
          "internalType": "contract InterestRateModel",
          "name": "interestRateModel_",
          "type": "address"
        },
        {
          "internalType": "uint256",
          "name": "initialExchangeRateMantissa_",
          "type": "uint256"
        },
        {
          "internalType": "string",
          "name": "name_",
          "type": "string"
        },
        {
          "internalType": "string",
          "name": "symbol_",
          "type": "string"
        },
        {
          "internalType": "uint8",
          "name": "decimals_",
          "type": "uint8"
        },
        {
          "internalType": "address payable",
          "name": "admin_",
          "type": "address"
        }
      ],
      "stateMutability": "nonpayable",
      "type": "constructor"
    },
    {
      "anonymous": false,
      "inputs": [
        {
          "indexed": false,
          "internalType": "uint256",
          "name": "cashPrior",
          "type": "uint256"
        },
        {
          "indexed": false,
          "internalType": "uint256",
          "name": "interestAccumulated",
          "type": "uint256"
        },
        {
          "indexed": false,
          "internalType": "uint256",
          "name": "borrowIndex",
          "type": "uint256"
        },
        {
          "indexed": false,
          "internalType": "uint256",
          "name": "totalBorrows",
          "type": "uint256"
        }
      ],
      "name": "AccrueInterest",
      "type": "event"
    },
    {
      "anonymous": false,
      "inputs": [
        {
          "indexed": true,
          "internalType": "address",
          "name": "owner",
          "type": "address"
        },
        {
          "indexed": true,
          "internalType": "address",
          "name": "spender",
          "type": "address"
        },
        {
          "indexed": false,
          "internalType": "uint256",
          "name": "amount",
          "type": "uint256"
        }
      ],
      "name": "Approval",
      "type": "event"
    },
    {
      "anonymous": false,
      "inputs": [
        {
          "indexed": false,
          "internalType": "address",
          "name": "borrower",
          "type": "address"
        },
        {
          "indexed": false,
          "internalType": "uint256",
          "name": "borrowAmount",
          "type": "uint256"
        },
        {
          "indexed": false,
          "internalType": "uint256",
          "name": "accountBorrows",
          "type": "uint256"
        },
        {
          "indexed": false,
          "internalType": "uint256",
          "name": "totalBorrows",
          "type": "uint256"
        }
      ],
      "name": "Borrow",
      "type": "event"
    },
    {
      "anonymous": false,
      "inputs": [
        {
          "indexed": false,
          "internalType": "uint256",
          "name": "error",
          "type": "uint256"
        },
        {
          "indexed": false,
          "internalType": "uint256",
          "name": "info",
          "type": "uint256"
        },
        {
          "indexed": false,
          "internalType": "uint256",
          "name": "detail",
          "type": "uint256"
        }
      ],
      "name": "Failure",
      "type": "event"
    },
    {
      "anonymous": false,
      "inputs": [
        {
          "indexed": false,
          "internalType": "address",
          "name": "liquidator",
          "type": "address"
        },
        {
          "indexed": false,
          "internalType": "address",
          "name": "borrower",
          "type": "address"
        },
        {
          "indexed": false,
          "internalType": "uint256",
          "name": "repayAmount",
          "type": "uint256"
        },
        {
          "indexed": false,
          "internalType": "address",
          "name": "pTokenCollateral",
          "type": "address"
        },
        {
          "indexed": false,
          "internalType": "uint256",
          "name": "seizeTokens",
          "type": "uint256"
        }
      ],
      "name": "LiquidateBorrow",
      "type": "event"
    },
    {
      "anonymous": false,
      "inputs": [
        {
          "indexed": false,
          "internalType": "address",
          "name": "minter",
          "type": "address"
        },
        {
          "indexed": false,
          "internalType": "uint256",
          "name": "mintAmount",
          "type": "uint256"
        },
        {
          "indexed": false,
          "internalType": "uint256",
          "name": "mintTokens",
          "type": "uint256"
        }
      ],
      "name": "Mint",
      "type": "event"
    },
    {
      "anonymous": false,
      "inputs": [
        {
          "indexed": false,
          "internalType": "address",
          "name": "oldAdmin",
          "type": "address"
        },
        {
          "indexed": false,
          "internalType": "address",
          "name": "newAdmin",
          "type": "address"
        }
      ],
      "name": "NewAdmin",
      "type": "event"
    },
    {
      "anonymous": false,
      "inputs": [
        {
          "indexed": false,
          "internalType": "contract InterestRateModel",
          "name": "oldInterestRateModel",
          "type": "address"
        },
        {
          "indexed": false,
          "internalType": "contract InterestRateModel",
          "name": "newInterestRateModel",
          "type": "address"
        }
      ],
      "name": "NewMarketInterestRateModel",
      "type": "event"
    },
    {
      "anonymous": false,
      "inputs": [
        {
          "indexed": false,
          "internalType": "address",
          "name": "oldPendingAdmin",
          "type": "address"
        },
        {
          "indexed": false,
          "internalType": "address",
          "name": "newPendingAdmin",
          "type": "address"
        }
      ],
      "name": "NewPendingAdmin",
      "type": "event"
    },
    {
      "anonymous": false,
      "inputs": [
        {
          "indexed": false,
          "internalType": "uint256",
          "name": "oldReserveFactorMantissa",
          "type": "uint256"
        },
        {
          "indexed": false,
          "internalType": "uint256",
          "name": "newReserveFactorMantissa",
          "type": "uint256"
        }
      ],
      "name": "NewReserveFactor",
      "type": "event"
    },
    {
      "anonymous": false,
      "inputs": [
        {
          "indexed": false,
          "internalType": "contract IRiskManager",
          "name": "oldRiskManager",
          "type": "address"
        },
        {
          "indexed": false,
          "internalType": "contract IRiskManager",
          "name": "newRiskManager",
          "type": "address"
        }
      ],
      "name": "NewRiskManager",
      "type": "event"
    },
    {
      "anonymous": false,
      "inputs": [
        {
          "indexed": false,
          "internalType": "address",
          "name": "redeemer",
          "type": "address"
        },
        {
          "indexed": false,
          "internalType": "uint256",
          "name": "redeemAmount",
          "type": "uint256"
        },
        {
          "indexed": false,
          "internalType": "uint256",
          "name": "redeemTokens",
          "type": "uint256"
        }
      ],
      "name": "Redeem",
      "type": "event"
    },
    {
      "anonymous": false,
      "inputs": [
        {
          "indexed": false,
          "internalType": "address",
          "name": "payer",
          "type": "address"
        },
        {
          "indexed": false,
          "internalType": "address",
          "name": "borrower",
          "type": "address"
        },
        {
          "indexed": false,
          "internalType": "uint256",
          "name": "repayAmount",
          "type": "uint256"
        },
        {
          "indexed": false,
          "internalType": "uint256",
          "name": "accountBorrows",
          "type": "uint256"
        },
        {
          "indexed": false,
          "internalType": "uint256",
          "name": "totalBorrows",
          "type": "uint256"
        }
      ],
      "name": "RepayBorrow",
      "type": "event"
    },
    {
      "anonymous": false,
      "inputs": [
        {
          "indexed": false,
          "internalType": "address",
          "name": "benefactor",
          "type": "address"
        },
        {
          "indexed": false,
          "internalType": "uint256",
          "name": "addAmount",
          "type": "uint256"
        },
        {
          "indexed": false,
          "internalType": "uint256",
          "name": "newTotalReserves",
          "type": "uint256"
        }
      ],
      "name": "ReservesAdded",
      "type": "event"
    },
    {
      "anonymous": false,
      "inputs": [
        {
          "indexed": false,
          "internalType": "address",
          "name": "admin",
          "type": "address"
        },
        {
          "indexed": false,
          "internalType": "uint256",
          "name": "reduceAmount",
          "type": "uint256"
        },
        {
          "indexed": false,
          "internalType": "uint256",
          "name": "newTotalReserves",
          "type": "uint256"
        }
      ],
      "name": "ReservesReduced",
      "type": "event"
    },
    {
      "anonymous": false,
      "inputs": [
        {
          "indexed": true,
          "internalType": "address",
          "name": "from",
          "type": "address"
        },
        {
          "indexed": true,
          "internalType": "address",
          "name": "to",
          "type": "address"
        },
        {
          "indexed": false,
          "internalType": "uint256",
          "name": "amount",
          "type": "uint256"
        }
      ],
      "name": "Transfer",
      "type": "event"
    },
    {
      "inputs": [],
      "name": "_acceptAdmin",
      "outputs": [
        {
          "internalType": "uint256",
          "name": "",
          "type": "uint256"
        }
      ],
      "stateMutability": "nonpayable",
      "type": "function"
    },
    {
      "inputs": [
        {
          "internalType": "uint256",
          "name": "reduceAmount",
          "type": "uint256"
        }
      ],
      "name": "_reduceReserves",
      "outputs": [
        {
          "internalType": "uint256",
          "name": "",
          "type": "uint256"
        }
      ],
      "stateMutability": "nonpayable",
      "type": "function"
    },
    {
      "inputs": [
        {
          "internalType": "contract InterestRateModel",
          "name": "newInterestRateModel",
          "type": "address"
        }
      ],
      "name": "_setInterestRateModel",
      "outputs": [
        {
          "internalType": "uint256",
          "name": "",
          "type": "uint256"
        }
      ],
      "stateMutability": "nonpayable",
      "type": "function"
    },
    {
      "inputs": [
        {
          "internalType": "address payable",
          "name": "newPendingAdmin",
          "type": "address"
        }
      ],
      "name": "_setPendingAdmin",
      "outputs": [
        {
          "internalType": "uint256",
          "name": "",
          "type": "uint256"
        }
      ],
      "stateMutability": "nonpayable",
      "type": "function"
    },
    {
      "inputs": [
        {
          "internalType": "uint256",
          "name": "newReserveFactorMantissa",
          "type": "uint256"
        }
      ],
      "name": "_setReserveFactor",
      "outputs": [
        {
          "internalType": "uint256",
          "name": "",
          "type": "uint256"
        }
      ],
      "stateMutability": "nonpayable",
      "type": "function"
    },
    {
      "inputs": [
        {
          "internalType": "contract IRiskManager",
          "name": "newRiskManager",
          "type": "address"
        }
      ],
      "name": "_setRiskManager",
      "outputs": [
        {
          "internalType": "uint256",
          "name": "",
          "type": "uint256"
        }
      ],
      "stateMutability": "nonpayable",
      "type": "function"
    },
    {
      "inputs": [],
      "name": "accrualBlockNumber",
      "outputs": [
        {
          "internalType": "uint256",
          "name": "",
          "type": "uint256"
        }
      ],
      "stateMutability": "view",
      "type": "function"
    },
    {
      "inputs": [],
      "name": "accrueInterest",
      "outputs": [
        {
          "internalType": "uint256",
          "name": "",
          "type": "uint256"
        }
      ],
      "stateMutability": "nonpayable",
      "type": "function"
    },
    {
      "inputs": [],
      "name": "admin",
      "outputs": [
        {
          "internalType": "address payable",
          "name": "",
          "type": "address"
        }
      ],
      "stateMutability": "view",
      "type": "function"
    },
    {
      "inputs": [
        {
          "internalType": "address",
          "name": "owner",
          "type": "address"
        },
        {
          "internalType": "address",
          "name": "spender",
          "type": "address"
        }
      ],
      "name": "allowance",
      "outputs": [
        {
          "internalType": "uint256",
          "name": "",
          "type": "uint256"
        }
      ],
      "stateMutability": "view",
      "type": "function"
    },
    {
      "inputs": [
        {
          "internalType": "address",
          "name": "spender",
          "type": "address"
        },
        {
          "internalType": "uint256",
          "name": "amount",
          "type": "uint256"
        }
      ],
      "name": "approve",
      "outputs": [
        {
          "internalType": "bool",
          "name": "",
          "type": "bool"
        }
      ],
      "stateMutability": "nonpayable",
      "type": "function"
    },
    {
      "inputs": [
        {
          "internalType": "address",
          "name": "owner",
          "type": "address"
        }
      ],
      "name": "balanceOf",
      "outputs": [
        {
          "internalType": "uint256",
          "name": "",
          "type": "uint256"
        }
      ],
      "stateMutability": "view",
      "type": "function"
    },
    {
      "inputs": [
        {
          "internalType": "address",
          "name": "owner",
          "type": "address"
        }
      ],
      "name": "balanceOfUnderlying",
      "outputs": [
        {
          "internalType": "uint256",
          "name": "",
          "type": "uint256"
        }
      ],
      "stateMutability": "nonpayable",
      "type": "function"
    },
    {
      "inputs": [
        {
          "internalType": "address",
          "name": "account",
          "type": "address"
        }
      ],
      "name": "borrowBalanceCurrent",
      "outputs": [
        {
          "internalType": "uint256",
          "name": "",
          "type": "uint256"
        }
      ],
      "stateMutability": "nonpayable",
      "type": "function"
    },
    {
      "inputs": [
        {
          "internalType": "address",
          "name": "account",
          "type": "address"
        }
      ],
      "name": "borrowBalanceStored",
      "outputs": [
        {
          "internalType": "uint256",
          "name": "",
          "type": "uint256"
        }
      ],
      "stateMutability": "view",
      "type": "function"
    },
    {
      "inputs": [],
      "name": "borrowIndex",
      "outputs": [
        {
          "internalType": "uint256",
          "name": "",
          "type": "uint256"
        }
      ],
      "stateMutability": "view",
      "type": "function"
    },
    {
      "inputs": [],
      "name": "borrowRatePerBlock",
      "outputs": [
        {
          "internalType": "uint256",
          "name": "",
          "type": "uint256"
        }
      ],
      "stateMutability": "view",
      "type": "function"
    },
    {
      "inputs": [],
      "name": "decimals",
      "outputs": [
        {
          "internalType": "uint8",
          "name": "",
          "type": "uint8"
        }
      ],
      "stateMutability": "view",
      "type": "function"
    },
    {
      "inputs": [],
      "name": "exchangeRateCurrent",
      "outputs": [
        {
          "internalType": "uint256",
          "name": "",
          "type": "uint256"
        }
      ],
      "stateMutability": "nonpayable",
      "type": "function"
    },
    {
      "inputs": [],
      "name": "exchangeRateStored",
      "outputs": [
        {
          "internalType": "uint256",
          "name": "",
          "type": "uint256"
        }
      ],
      "stateMutability": "view",
      "type": "function"
    },
    {
      "inputs": [
        {
          "internalType": "address",
          "name": "account",
          "type": "address"
        }
      ],
      "name": "getAccountSnapshot",
      "outputs": [
        {
          "internalType": "uint256",
          "name": "",
          "type": "uint256"
        },
        {
          "internalType": "uint256",
          "name": "",
          "type": "uint256"
        },
        {
          "internalType": "uint256",
          "name": "",
          "type": "uint256"
        },
        {
          "internalType": "uint256",
          "name": "",
          "type": "uint256"
        }
      ],
      "stateMutability": "view",
      "type": "function"
    },
    {
      "inputs": [],
      "name": "getCash",
      "outputs": [
        {
          "internalType": "uint256",
          "name": "",
          "type": "uint256"
        }
      ],
      "stateMutability": "view",
      "type": "function"
    },
    {
      "inputs": [
        {
          "internalType": "contract IRiskManager",
          "name": "riskManager_",
          "type": "address"
        },
        {
          "internalType": "contract InterestRateModel",
          "name": "interestRateModel_",
          "type": "address"
        },
        {
          "internalType": "uint256",
          "name": "initialExchangeRateMantissa_",
          "type": "uint256"
        },
        {
          "internalType": "string",
          "name": "name_",
          "type": "string"
        },
        {
          "internalType": "string",
          "name": "symbol_",
          "type": "string"
        },
        {
          "internalType": "uint8",
          "name": "decimals_",
          "type": "uint8"
        }
      ],
      "name": "initialize",
      "outputs": [],
      "stateMutability": "nonpayable",
      "type": "function"
    },
    {
      "inputs": [],
      "name": "interestRateModel",
      "outputs": [
        {
          "internalType": "contract InterestRateModel",
          "name": "",
          "type": "address"
        }
      ],
      "stateMutability": "view",
      "type": "function"
    },
    {
      "inputs": [],
      "name": "isPToken",
      "outputs": [
        {
          "internalType": "bool",
          "name": "",
          "type": "bool"
        }
      ],
      "stateMutability": "view",
      "type": "function"
    },
    {
      "inputs": [],
      "name": "name",
      "outputs": [
        {
          "internalType": "string",
          "name": "",
          "type": "string"
        }
      ],
      "stateMutability": "view",
      "type": "function"
    },
    {
      "inputs": [],
      "name": "pendingAdmin",
      "outputs": [
        {
          "internalType": "address payable",
          "name": "",
          "type": "address"
        }
      ],
      "stateMutability": "view",
      "type": "function"
    },
    {
      "inputs": [],
      "name": "reserveFactorMantissa",
      "outputs": [
        {
          "internalType": "uint256",
          "name": "",
          "type": "uint256"
        }
      ],
      "stateMutability": "view",
      "type": "function"
    },
    {
      "inputs": [],
      "name": "riskManager",
      "outputs": [
        {
          "internalType": "contract IRiskManager",
          "name": "",
          "type": "address"
        }
      ],
      "stateMutability": "view",
      "type": "function"
    },
    {
      "inputs": [
        {
          "internalType": "address",
          "name": "liquidator",
          "type": "address"
        },
        {
          "internalType": "address",
          "name": "borrower",
          "type": "address"
        },
        {
          "internalType": "uint256",
          "name": "seizeTokens",
          "type": "uint256"
        }
      ],
      "name": "seize",
      "outputs": [
        {
          "internalType": "uint256",
          "name": "",
          "type": "uint256"
        }
      ],
      "stateMutability": "nonpayable",
      "type": "function"
    },
    {
      "inputs": [],
      "name": "supplyRatePerBlock",
      "outputs": [
        {
          "internalType": "uint256",
          "name": "",
          "type": "uint256"
        }
      ],
      "stateMutability": "view",
      "type": "function"
    },
    {
      "inputs": [],
      "name": "symbol",
      "outputs": [
        {
          "internalType": "string",
          "name": "",
          "type": "string"
        }
      ],
      "stateMutability": "view",
      "type": "function"
    },
    {
      "inputs": [],
      "name": "totalBorrows",
      "outputs": [
        {
          "internalType": "uint256",
          "name": "",
          "type": "uint256"
        }
      ],
      "stateMutability": "view",
      "type": "function"
    },
    {
      "inputs": [],
      "name": "totalBorrowsCurrent",
      "outputs": [
        {
          "internalType": "uint256",
          "name": "",
          "type": "uint256"
        }
      ],
      "stateMutability": "nonpayable",
      "type": "function"
    },
    {
      "inputs": [],
      "name": "totalReserves",
      "outputs": [
        {
          "internalType": "uint256",
          "name": "",
          "type": "uint256"
        }
      ],
      "stateMutability": "view",
      "type": "function"
    },
    {
      "inputs": [],
      "name": "totalSupply",
      "outputs": [
        {
          "internalType": "uint256",
          "name": "",
          "type": "uint256"
        }
      ],
      "stateMutability": "view",
      "type": "function"
    },
    {
      "inputs": [
        {
          "internalType": "address",
          "name": "dst",
          "type": "address"
        },
        {
          "internalType": "uint256",
          "name": "amount",
          "type": "uint256"
        }
      ],
      "name": "transfer",
      "outputs": [
        {
          "internalType": "bool",
          "name": "",
          "type": "bool"
        }
      ],
      "stateMutability": "nonpayable",
      "type": "function"
    },
    {
      "inputs": [
        {
          "internalType": "address",
          "name": "src",
          "type": "address"
        },
        {
          "internalType": "address",
          "name": "dst",
          "type": "address"
        },
        {
          "internalType": "uint256",
          "name": "amount",
          "type": "uint256"
        }
      ],
      "name": "transferFrom",
      "outputs": [
        {
          "internalType": "bool",
          "name": "",
          "type": "bool"
        }
      ],
      "stateMutability": "nonpayable",
      "type": "function"
    },
    {
      "inputs": [],
      "name": "underlying",
      "outputs": [
        {
          "internalType": "address",
          "name": "",
          "type": "address"
        }
      ],
      "stateMutability": "view",
      "type": "function"
    },
    {
      "inputs": [
        {
          "internalType": "uint256",
          "name": "mintAmount",
          "type": "uint256"
        }
      ],
      "name": "mint",
      "outputs": [
        {
          "internalType": "uint256",
          "name": "",
          "type": "uint256"
        }
      ],
      "stateMutability": "nonpayable",
      "type": "function"
    },
    {
      "inputs": [
        {
          "internalType": "uint256",
          "name": "redeemTokens",
          "type": "uint256"
        }
      ],
      "name": "redeem",
      "outputs": [
        {
          "internalType": "uint256",
          "name": "",
          "type": "uint256"
        }
      ],
      "stateMutability": "nonpayable",
      "type": "function"
    },
    {
      "inputs": [
        {
          "internalType": "uint256",
          "name": "redeemAmount",
          "type": "uint256"
        }
      ],
      "name": "redeemUnderlying",
      "outputs": [
        {
          "internalType": "uint256",
          "name": "",
          "type": "uint256"
        }
      ],
      "stateMutability": "nonpayable",
      "type": "function"
    },
    {
      "inputs": [
        {
          "internalType": "uint256",
          "name": "borrowAmount",
          "type": "uint256"
        }
      ],
      "name": "borrow",
      "outputs": [
        {
          "internalType": "uint256",
          "name": "",
          "type": "uint256"
        }
      ],
      "stateMutability": "payable",
      "type": "function"
    },
    {
      "inputs": [
        {
          "internalType": "uint256",
          "name": "repayAmount",
          "type": "uint256"
        }
      ],
      "name": "repayBorrow",
      "outputs": [
        {
          "internalType": "uint256",
          "name": "",
          "type": "uint256"
        }
      ],
      "stateMutability": "payable",
      "type": "function"
    },
    {
      "inputs": [
        {
          "internalType": "address",
          "name": "borrower",
          "type": "address"
        },
        {
          "internalType": "uint256",
          "name": "repayAmount",
          "type": "uint256"
        }
      ],
      "name": "repayBorrowBehalf",
      "outputs": [
        {
          "internalType": "uint256",
          "name": "",
          "type": "uint256"
        }
      ],
      "stateMutability": "payable",
      "type": "function"
    },
    {
      "inputs": [
        {
          "internalType": "address",
          "name": "borrower",
          "type": "address"
        },
        {
          "internalType": "uint256",
          "name": "repayAmount",
          "type": "uint256"
        },
        {
          "internalType": "contract IPToken",
          "name": "pTokenCollateral",
          "type": "address"
        }
      ],
      "name": "liquidateBorrow",
      "outputs": [
        {
          "internalType": "uint256",
          "name": "",
          "type": "uint256"
        }
      ],
      "stateMutability": "payable",
      "type": "function"
    },
    {
      "inputs": [
        {
          "internalType": "uint256",
          "name": "addAmount",
          "type": "uint256"
        }
      ],
      "name": "_addReserves",
      "outputs": [
        {
          "internalType": "uint256",
          "name": "",
          "type": "uint256"
        }
      ],
      "stateMutability": "nonpayable",
      "type": "function"
    },
    {
      "inputs": [],
      "name": "isForETH",
      "outputs": [
        {
          "internalType": "bool",
          "name": "",
          "type": "bool"
        }
      ],
      "stateMutability": "view",
      "type": "function"
    }
  ],
  "bytecode": "0x60806040523480156200001157600080fd5b5060405162005a7838038062005a7883398181016040526101008110156200003857600080fd5b81516020830151604080850151606086015160808701805193519597949692959194919392820192846401000000008211156200007457600080fd5b9083019060208201858111156200008a57600080fd5b8251640100000000811182820188101715620000a557600080fd5b82525081516020918201929091019080838360005b83811015620000d4578181015183820152602001620000ba565b50505050905090810190601f168015620001025780820380516001836020036101000a031916815260200191505b50604052602001805160405193929190846401000000008211156200012657600080fd5b9083019060208201858111156200013c57600080fd5b82516401000000008111828201881017156200015757600080fd5b82525081516020918201929091019080838360005b83811015620001865781810151838201526020016200016c565b50505050905090810190601f168015620001b45780820380516001836020036101000a031916815260200191505b506040908152602082810151929091015160038054610100600160a81b03191633610100021790559193509091506200020290889088908890889088908890620002c1811b620014a717901c565b601180546001600160a01b0319166001600160a01b038a81169190911791829055604080516318160ddd60e01b8152905192909116916318160ddd91600480820192602092909190829003018186803b1580156200025f57600080fd5b505afa15801562000274573d6000803e3d6000fd5b505050506040513d60208110156200028b57600080fd5b5050600380546001600160a01b0390921661010002610100600160a81b031990921691909117905550620008fe95505050505050565b60035461010090046001600160a01b03163314620003115760405162461bcd60e51b8152600401808060200182810382526024815260200180620059df6024913960400191505060405180910390fd5b600954158015620003225750600a54155b6200035f5760405162461bcd60e51b815260040180806020018281038252602381526020018062005a036023913960400191505060405180910390fd5b600784905583620003a25760405162461bcd60e51b815260040180806020018281038252603081526020018062005a266030913960400191505060405180910390fd5b6000620003b8876001600160e01b03620004d716565b905080156200040e576040805162461bcd60e51b815260206004820152601a60248201527f73657474696e67207269736b4d616e61676572206661696c6564000000000000604482015290519081900360640190fd5b620004216001600160e01b036200064116565b600955670de0b6b3a7640000600a5562000444866001600160e01b036200064616565b90508015620004855760405162461bcd60e51b815260040180806020018281038252602281526020018062005a566022913960400191505060405180910390fd5b83516200049a9060019060208701906200085c565b508251620004b09060029060208601906200085c565b50506003805460ff90921660ff199283161790556000805490911660011790555050505050565b60035460009061010090046001600160a01b031633146200051157620005096001603f6001600160e01b03620007ec16565b90506200063c565b600554604080516354cb73dd60e11b815290516001600160a01b039283169285169163a996e7ba916004808301926020929190829003018186803b1580156200055957600080fd5b505afa1580156200056e573d6000803e3d6000fd5b505050506040513d60208110156200058557600080fd5b5051620005d9576040805162461bcd60e51b815260206004820152601c60248201527f6d61726b6572206d6574686f642072657475726e65642066616c736500000000604482015290519081900360640190fd5b600580546001600160a01b0319166001600160a01b03858116918217909255604080519284168352602083019190915280517f91249b936729aec99d65d412fab6e6488ab0eb306623fa400ad5397449ff362b9281900390910190a160005b9150505b919050565b435b90565b600354600090819061010090046001600160a01b0316331462000683576200067a600160426001600160e01b03620007ec16565b9150506200063c565b620006966001600160e01b036200064116565b60095414620006b6576200067a600a60416001600160e01b03620007ec16565b600660009054906101000a90046001600160a01b03169050826001600160a01b0316632191f92a6040518163ffffffff1660e01b815260040160206040518083038186803b1580156200070857600080fd5b505afa1580156200071d573d6000803e3d6000fd5b505050506040513d60208110156200073457600080fd5b505162000788576040805162461bcd60e51b815260206004820152601c60248201527f6d61726b6572206d6574686f642072657475726e65642066616c736500000000604482015290519081900360640190fd5b600680546001600160a01b0319166001600160a01b03858116918217909255604080519284168352602083019190915280517fedffc32e068c7c95dfd4bdfd5c4d939a084d6b11c4199eac8436ed234d72f9269281900390910190a1600062000638565b60007f45b96fe442630264581b197e84bbada861235052c5a1aadfff9ea4e40a969aa08360108111156200081c57fe5b8360508111156200082957fe5b604080519283526020830191909152600082820152519081900360600190a18260108111156200085557fe5b9392505050565b828054600181600116156101000203166002900490600052602060002090601f016020900481019282601f106200089f57805160ff1916838001178555620008cf565b82800160010185558215620008cf579182015b82811115620008cf578251825591602001919060010190620008b2565b50620008dd929150620008e1565b5090565b6200064391905b80821115620008dd5760008155600101620008e8565b6150d1806200090e6000396000f3fe6080604052600436106102935760003560e01c80638f840ddd1161015a578063bd6d894d116100c1578063f2b3abbd1161007a578063f2b3abbd14610a75578063f3fdb15a14610aa8578063f5e3c46214610abd578063f851a44014610af3578063f8f9da2814610b08578063fca7820b14610b1d57610293565b8063bd6d894d14610970578063c37f68e214610985578063c5ebeaec146109de578063db006a75146109fb578063dd62ed3e14610a25578063e9c714f214610a6057610293565b8063a6afed9511610113578063a6afed9514610882578063a9059cbb14610897578063aa5af0fd146108d0578063ae9d70b0146108e5578063b2a02ff1146108fa578063b71d1a0c1461093d57610293565b80638f840ddd14610685578063913e60981461069a57806395d89b41146106af57806395dd9193146106c457806399d8c1b4146106f7578063a0712d681461085857610293565b80633af9e669116101fe578063601a0bf1116101b7578063601a0bf1146105bf5780636c540baf146105e95780636f307dc3146105fe57806370a082311461061357806373acee9814610646578063852a12e31461065b57610293565b80633af9e6691461050e5780633b1d21a2146105415780633e94101014610556578063478426631461058057806347bd3718146105955780635a890c0e146105aa57610293565b806318160ddd1161025057806318160ddd14610419578063182df0f51461042e57806323b872dd146104435780632608f8181461048657806326782247146104b2578063313ce567146104e357610293565b806306fdde0314610298578063095ea7b3146103225780630dd16bed1461036f5780630e752702146103b4578063173b9904146103d157806317bfdfbc146103e6575b600080fd5b3480156102a457600080fd5b506102ad610b47565b6040805160208082528351818301528351919283929083019185019080838360005b838110156102e75781810151838201526020016102cf565b50505050905090810190601f1680156103145780820380516001836020036101000a031916815260200191505b509250505060405180910390f35b34801561032e57600080fd5b5061035b6004803603604081101561034557600080fd5b506001600160a01b038135169060200135610bd4565b604080519115158252519081900360200190f35b34801561037b57600080fd5b506103a26004803603602081101561039257600080fd5b50356001600160a01b0316610c41565b60408051918252519081900360200190f35b6103a2600480360360208110156103ca57600080fd5b5035610d9a565b3480156103dd57600080fd5b506103a2610ea8565b3480156103f257600080fd5b506103a26004803603602081101561040957600080fd5b50356001600160a01b0316610eae565b34801561042557600080fd5b506103a2610f6e565b34801561043a57600080fd5b506103a2610f74565b34801561044f57600080fd5b5061035b6004803603606081101561046657600080fd5b506001600160a01b03813581169160208101359091169060400135610fd7565b6103a26004803603604081101561049c57600080fd5b506001600160a01b038135169060200135611049565b3480156104be57600080fd5b506104c7611159565b604080516001600160a01b039092168252519081900360200190f35b3480156104ef57600080fd5b506104f8611168565b6040805160ff9092168252519081900360200190f35b34801561051a57600080fd5b506103a26004803603602081101561053157600080fd5b50356001600160a01b0316611171565b34801561054d57600080fd5b506103a2611227565b34801561056257600080fd5b506103a26004803603602081101561057957600080fd5b5035611236565b34801561058c57600080fd5b506104c7611241565b3480156105a157600080fd5b506103a2611250565b3480156105b657600080fd5b5061035b611256565b3480156105cb57600080fd5b506103a2600480360360208110156105e257600080fd5b503561125b565b3480156105f557600080fd5b506103a26112f6565b34801561060a57600080fd5b506104c76112fc565b34801561061f57600080fd5b506103a26004803603602081101561063657600080fd5b50356001600160a01b031661130b565b34801561065257600080fd5b506103a2611326565b34801561066757600080fd5b506103a26004803603602081101561067e57600080fd5b50356113dc565b34801561069157600080fd5b506103a26113e7565b3480156106a657600080fd5b5061035b6113ed565b3480156106bb57600080fd5b506102ad6113f2565b3480156106d057600080fd5b506103a2600480360360208110156106e757600080fd5b50356001600160a01b031661144a565b34801561070357600080fd5b50610856600480360360c081101561071a57600080fd5b6001600160a01b0382358116926020810135909116916040820135919081019060808101606082013564010000000081111561075557600080fd5b82018360208201111561076757600080fd5b8035906020019184600183028401116401000000008311171561078957600080fd5b91908080601f01602080910402602001604051908101604052809392919081815260200183838082843760009201919091525092959493602081019350359150506401000000008111156107dc57600080fd5b8201836020820111156107ee57600080fd5b8035906020019184600183028401116401000000008311171561081057600080fd5b91908080601f0160208091040260200160405190810160405280939291908181526020018383808284376000920191909152509295505050903560ff1691506114a79050565b005b34801561086457600080fd5b506103a26004803603602081101561087b57600080fd5b503561168e565b34801561088e57600080fd5b506103a26116a2565b3480156108a357600080fd5b5061035b600480360360408110156108ba57600080fd5b506001600160a01b0381351690602001356119fa565b3480156108dc57600080fd5b506103a2611a6b565b3480156108f157600080fd5b506103a2611a71565b34801561090657600080fd5b506103a26004803603606081101561091d57600080fd5b506001600160a01b03813581169160208101359091169060400135611b10565b34801561094957600080fd5b506103a26004803603602081101561096057600080fd5b50356001600160a01b0316611b81565b34801561097c57600080fd5b506103a2611c0d565b34801561099157600080fd5b506109b8600480360360208110156109a857600080fd5b50356001600160a01b0316611cc9565b604080519485526020850193909352838301919091526060830152519081900360800190f35b6103a2600480360360208110156109f457600080fd5b5035611d5e565b348015610a0757600080fd5b506103a260048036036020811015610a1e57600080fd5b5035611e61565b348015610a3157600080fd5b506103a260048036036040811015610a4857600080fd5b506001600160a01b0381358116916020013516611e6c565b348015610a6c57600080fd5b506103a2611e97565b348015610a8157600080fd5b506103a260048036036020811015610a9857600080fd5b50356001600160a01b0316611f9a565b348015610ab457600080fd5b506104c7611fd4565b6103a260048036036060811015610ad357600080fd5b506001600160a01b03813581169160208101359160409091013516611fe3565b348015610aff57600080fd5b506104c76120f7565b348015610b1457600080fd5b506103a261210b565b348015610b2957600080fd5b506103a260048036036020811015610b4057600080fd5b503561216f565b60018054604080516020600284861615610100026000190190941693909304601f81018490048402820184019092528181529291830182828015610bcc5780601f10610ba157610100808354040283529160200191610bcc565b820191906000526020600020905b815481529060010190602001808311610baf57829003601f168201915b505050505081565b336000818152600f602090815260408083206001600160a01b03871680855290835281842086905581518681529151939493909284927f8c5be1e5ebec7d5bd14f71427d1e84f3dd0314c0f7b2291e5b200ac8c7c3b925929081900390910190a360019150505b92915050565b60035460009061010090046001600160a01b03163314610c6e57610c676001603f6121ed565b9050610d95565b600554604080516354cb73dd60e11b815290516001600160a01b039283169285169163a996e7ba916004808301926020929190829003018186803b158015610cb557600080fd5b505afa158015610cc9573d6000803e3d6000fd5b505050506040513d6020811015610cdf57600080fd5b5051610d32576040805162461bcd60e51b815260206004820152601c60248201527f6d61726b6572206d6574686f642072657475726e65642066616c736500000000604482015290519081900360640190fd5b600580546001600160a01b0319166001600160a01b03858116918217909255604080519284168352602083019190915280517f91249b936729aec99d65d412fab6e6488ab0eb306623fa400ad5397449ff362b9281900390910190a160005b9150505b919050565b60055460408051637533ed9160e11b8152306004820152905160009283926001600160a01b039091169163ea67db2291602480820192602092909190829003018186803b158015610dea57600080fd5b505afa158015610dfe573d6000803e3d6000fd5b505050506040513d6020811015610e1457600080fd5b50516005546040805163653bc4f160e11b815230600482015290519293506001600160a01b039091169163ca7789e2918491602480830192602092919082900301818588803b158015610e6657600080fd5b505af1158015610e7a573d6000803e3d6000fd5b50505050506040513d6020811015610e9157600080fd5b5060009050610e9f84612253565b50949350505050565b60085481565b6000805460ff16610ef3576040805162461bcd60e51b815260206004820152600a6024820152691c994b595b9d195c995960b21b604482015290519081900360640190fd5b6000805460ff19168155610f056116a2565b14610f50576040805162461bcd60e51b81526020600482015260166024820152751858d8dc9d59481a5b9d195c995cdd0819985a5b195960521b604482015290519081900360640190fd5b610f598261144a565b90505b6000805460ff19166001179055919050565b600d5481565b6000806000610f816122fc565b90925090506000826003811115610f9457fe5b14610fd05760405162461bcd60e51b8152600401808060200182810382526035815260200180614fbd6035913960400191505060405180910390fd5b9150505b90565b6000805460ff1661101c576040805162461bcd60e51b815260206004820152600a6024820152691c994b595b9d195c995960b21b604482015290519081900360640190fd5b6000805460ff19168155611032338686866123ab565b1490506000805460ff191660011790559392505050565b60055460408051637533ed9160e11b8152306004820152905160009283926001600160a01b039091169163ea67db2291602480820192602092909190829003018186803b15801561109957600080fd5b505afa1580156110ad573d6000803e3d6000fd5b505050506040513d60208110156110c357600080fd5b50516005546040805163653bc4f160e11b815230600482015290519293506001600160a01b039091169163ca7789e2918491602480830192602092919082900301818588803b15801561111557600080fd5b505af1158015611129573d6000803e3d6000fd5b50505050506040513d602081101561114057600080fd5b506000905061114f8585612637565b5095945050505050565b6004546001600160a01b031681565b60035460ff1681565b600061117b614ca7565b604051806020016040528061118e611c0d565b90526001600160a01b0384166000908152600e60205260408120549192509081906111ba9084906126e2565b909250905060008260038111156111cd57fe5b1461121f576040805162461bcd60e51b815260206004820152601f60248201527f62616c616e636520636f756c64206e6f742062652063616c63756c6174656400604482015290519081900360640190fd5b949350505050565b6000611231612736565b905090565b6000610c3b826127b6565b6005546001600160a01b031681565b600b5481565b600181565b6000805460ff166112a0576040805162461bcd60e51b815260206004820152600a6024820152691c994b595b9d195c995960b21b604482015290519081900360640190fd5b6000805460ff191681556112b26116a2565b905080156112d8576112d08160108111156112c957fe5b60306121ed565b915050610f5c565b6112e18361284a565b9150506000805460ff19166001179055919050565b60095481565b6011546001600160a01b031681565b6001600160a01b03166000908152600e602052604090205490565b6000805460ff1661136b576040805162461bcd60e51b815260206004820152600a6024820152691c994b595b9d195c995960b21b604482015290519081900360640190fd5b6000805460ff1916815561137d6116a2565b146113c8576040805162461bcd60e51b81526020600482015260166024820152751858d8dc9d59481a5b9d195c995cdd0819985a5b195960521b604482015290519081900360640190fd5b50600b546000805460ff1916600117905590565b6000610c3b8261297d565b600c5481565b600090565b6002805460408051602060018416156101000260001901909316849004601f81018490048402820184019092528181529291830182828015610bcc5780601f10610ba157610100808354040283529160200191610bcc565b6000806000611458846129fe565b9092509050600082600381111561146b57fe5b14610d915760405162461bcd60e51b8152600401808060200182810382526037815260200180614efb6037913960400191505060405180910390fd5b60035461010090046001600160a01b031633146114f55760405162461bcd60e51b8152600401808060200182810382526024815260200180614e006024913960400191505060405180910390fd5b6009541580156115055750600a54155b6115405760405162461bcd60e51b8152600401808060200182810382526023815260200180614e5b6023913960400191505060405180910390fd5b6007849055836115815760405162461bcd60e51b8152600401808060200182810382526030815260200180614e7e6030913960400191505060405180910390fd5b600061158c87610c41565b905080156115e1576040805162461bcd60e51b815260206004820152601a60248201527f73657474696e67207269736b4d616e61676572206661696c6564000000000000604482015290519081900360640190fd5b6115e9612ab2565b600955670de0b6b3a7640000600a5561160186612ab6565b905080156116405760405162461bcd60e51b8152600401808060200182810382526022815260200180614eae6022913960400191505060405180910390fd5b8351611653906001906020870190614cba565b508251611667906002906020860190614cba565b50506003805460ff90921660ff199283161790556000805490911660011790555050505050565b60008061169a83612c2b565b509392505050565b6000806116ad612ab2565b600954909150808214156116c657600092505050610fd4565b60006116d0612736565b600b54600c54600a54600654604080516315f2405360e01b815260048101879052602481018690526044810185905290519596509394929391926000926001600160a01b03909216916315f24053916064808301926020929190829003018186803b15801561173e57600080fd5b505afa158015611752573d6000803e3d6000fd5b505050506040513d602081101561176857600080fd5b5051905065048c273950008111156117c7576040805162461bcd60e51b815260206004820152601c60248201527f626f72726f772072617465206973206162737572646c79206869676800000000604482015290519081900360640190fd5b6000806117d48989612cac565b909250905060008260038111156117e757fe5b14611839576040805162461bcd60e51b815260206004820152601f60248201527f636f756c64206e6f742063616c63756c61746520626c6f636b2064656c746100604482015290519081900360640190fd5b611841614ca7565b60008060008061185f60405180602001604052808a81525087612ccf565b9097509450600087600381111561187257fe5b146118a45761188f6009600689600381111561188a57fe5b612d37565b9e505050505050505050505050505050610fd4565b6118ae858c6126e2565b909750935060008760038111156118c157fe5b146118d95761188f6009600189600381111561188a57fe5b6118e3848c612d9d565b909750925060008760038111156118f657fe5b1461190e5761188f6009600489600381111561188a57fe5b6119296040518060200160405280600854815250858c612dc3565b9097509150600087600381111561193c57fe5b146119545761188f6009600589600381111561188a57fe5b61195f858a8b612dc3565b9097509050600087600381111561197257fe5b1461198a5761188f6009600389600381111561188a57fe5b60098e9055600a819055600b839055600c829055604080518d8152602081018690528082018390526060810185905290517f4dec04e750ca11537cabcd8a9eab06494de08da3735bc8871cd41250e190bc049181900360800190a160009e50505050505050505050505050505090565b6000805460ff16611a3f576040805162461bcd60e51b815260206004820152600a6024820152691c994b595b9d195c995960b21b604482015290519081900360640190fd5b6000805460ff19168155611a55333386866123ab565b1490506000805460ff1916600117905592915050565b600a5481565b6006546000906001600160a01b031663b8168816611a8d612736565b600b54600c546008546040518563ffffffff1660e01b81526004018085815260200184815260200183815260200182815260200194505050505060206040518083038186803b158015611adf57600080fd5b505afa158015611af3573d6000803e3d6000fd5b505050506040513d6020811015611b0957600080fd5b5051905090565b6000805460ff16611b55576040805162461bcd60e51b815260206004820152600a6024820152691c994b595b9d195c995960b21b604482015290519081900360640190fd5b6000805460ff19169055611b6b33858585612e1f565b90506000805460ff191660011790559392505050565b60035460009061010090046001600160a01b03163314611ba757610c67600160456121ed565b600480546001600160a01b038481166001600160a01b0319831681179093556040805191909216808252602082019390935281517fca4f2f25d0898edd99413412fb94012f9e54ec8142f9b093e7720646a95b16a9929181900390910190a16000610d91565b6000805460ff16611c52576040805162461bcd60e51b815260206004820152600a6024820152691c994b595b9d195c995960b21b604482015290519081900360640190fd5b6000805460ff19168155611c646116a2565b14611caf576040805162461bcd60e51b81526020600482015260166024820152751858d8dc9d59481a5b9d195c995cdd0819985a5b195960521b604482015290519081900360640190fd5b611cb7610f74565b90506000805460ff1916600117905590565b6001600160a01b0381166000908152600e6020526040812054819081908190818080611cf4896129fe565b935090506000816003811115611d0657fe5b14611d245760095b975060009650869550859450611d579350505050565b611d2c6122fc565b925090506000816003811115611d3e57fe5b14611d4a576009611d0e565b5060009650919450925090505b9193509193565b60055460408051637533ed9160e11b8152306004820152905160009283926001600160a01b039091169163ea67db2291602480820192602092909190829003018186803b158015611dae57600080fd5b505afa158015611dc2573d6000803e3d6000fd5b505050506040513d6020811015611dd857600080fd5b50516005546040805163653bc4f160e11b815230600482015290519293506001600160a01b039091169163ca7789e2918491602480830192602092919082900301818588803b158015611e2a57600080fd5b505af1158015611e3e573d6000803e3d6000fd5b50505050506040513d6020811015611e5557600080fd5b50610d91905083612ffb565b6000610c3b8261307a565b6001600160a01b039182166000908152600f6020908152604080832093909416825291909152205490565b6004546000906001600160a01b031633141580611eb2575033155b15611eca57611ec3600160006121ed565b9050610fd4565b60038054600480546001600160a01b03818116610100818102610100600160a81b0319871617968790556001600160a01b031990931690935560408051948390048216808652929095041660208401528351909391927ff9ffabca9c8276e99321725bcb43fb076a6c66a54b7f21c4e8146d8519b417dc92908290030190a1600454604080516001600160a01b038085168252909216602083015280517fca4f2f25d0898edd99413412fb94012f9e54ec8142f9b093e7720646a95b16a99281900390910190a160009250505090565b600080611fa56116a2565b90508015611fcb57611fc3816010811115611fbc57fe5b60406121ed565b915050610d95565b610d9183612ab6565b6006546001600160a01b031681565b60055460408051637533ed9160e11b8152306004820152905160009283926001600160a01b039091169163ea67db2291602480820192602092909190829003018186803b15801561203357600080fd5b505afa158015612047573d6000803e3d6000fd5b505050506040513d602081101561205d57600080fd5b50516005546040805163653bc4f160e11b815230600482015290519293506001600160a01b039091169163ca7789e2918491602480830192602092919082900301818588803b1580156120af57600080fd5b505af11580156120c3573d6000803e3d6000fd5b50505050506040513d60208110156120da57600080fd5b50600090506120ea8686866130f4565b50925050505b9392505050565b60035461010090046001600160a01b031681565b6006546000906001600160a01b03166315f24053612127612736565b600b54600c546040518463ffffffff1660e01b815260040180848152602001838152602001828152602001935050505060206040518083038186803b158015611adf57600080fd5b6000805460ff166121b4576040805162461bcd60e51b815260206004820152600a6024820152691c994b595b9d195c995960b21b604482015290519081900360640190fd5b6000805460ff191681556121c66116a2565b905080156121e4576112d08160108111156121dd57fe5b60466121ed565b6112e183613226565b60007f45b96fe442630264581b197e84bbada861235052c5a1aadfff9ea4e40a969aa083601081111561221c57fe5b83605081111561222857fe5b604080519283526020830191909152600082820152519081900360600190a18260108111156120f057fe5b60008054819060ff1661229a576040805162461bcd60e51b815260206004820152600a6024820152691c994b595b9d195c995960b21b604482015290519081900360640190fd5b6000805460ff191681556122ac6116a2565b905080156122d7576122ca8160108111156122c357fe5b60366121ed565b9250600091506122e89050565b6122e23333866132ce565b92509250505b6000805460ff191660011790559092909150565b600d54600090819080612317575050600754600091506123a7565b6000612321612736565b9050600061232d614ca7565b600061233e84600b54600c5461361c565b93509050600081600381111561235057fe5b14612365579550600094506123a79350505050565b61236f838661365a565b92509050600081600381111561238157fe5b14612396579550600094506123a79350505050565b50516000955093506123a792505050565b9091565b600554604080516317b9b84b60e31b81523060048201526001600160a01b03868116602483015285811660448301526064820185905291516000938493169163bdcdc25891608480830192602092919082900301818787803b15801561241057600080fd5b505af1158015612424573d6000803e3d6000fd5b505050506040513d602081101561243a57600080fd5b505190508015612459576124516003604a83612d37565b91505061121f565b836001600160a01b0316856001600160a01b0316141561247f576124516002604b6121ed565b60006001600160a01b03878116908716141561249e57506000196124c6565b506001600160a01b038086166000908152600f60209081526040808320938a16835292905220545b6000806000806124d68589612cac565b909450925060008460038111156124e957fe5b14612507576124fa6009604b6121ed565b965050505050505061121f565b6001600160a01b038a166000908152600e602052604090205461252a9089612cac565b9094509150600084600381111561253d57fe5b1461254e576124fa6009604c6121ed565b6001600160a01b0389166000908152600e60205260409020546125719089612d9d565b9094509050600084600381111561258457fe5b14612595576124fa6009604d6121ed565b6001600160a01b03808b166000908152600e6020526040808220859055918b1681522081905560001985146125ed576001600160a01b03808b166000908152600f60209081526040808320938f168352929052208390555b886001600160a01b03168a6001600160a01b0316600080516020614f6c8339815191528a6040518082815260200191505060405180910390a35060009a9950505050505050505050565b60008054819060ff1661267e576040805162461bcd60e51b815260206004820152600a6024820152691c994b595b9d195c995960b21b604482015290519081900360640190fd5b6000805460ff191681556126906116a2565b905080156126bb576126ae8160108111156126a757fe5b60356121ed565b9250600091506126cc9050565b6126c63386866132ce565b92509250505b6000805460ff1916600117905590939092509050565b60008060006126ef614ca7565b6126f98686612ccf565b9092509050600082600381111561270c57fe5b1461271d575091506000905061272f565b60006127288261370b565b9350935050505b9250929050565b601154604080516370a0823160e01b815230600482015290516000926001600160a01b03169182916370a0823191602480820192602092909190829003018186803b15801561278457600080fd5b505afa158015612798573d6000803e3d6000fd5b505050506040513d60208110156127ae57600080fd5b505191505090565b6000805460ff166127fb576040805162461bcd60e51b815260206004820152600a6024820152691c994b595b9d195c995960b21b604482015290519081900360640190fd5b6000805460ff1916815561280d6116a2565b9050801561282b576112d081601081111561282457fe5b604e6121ed565b6128348361371a565b509150506000805460ff19166001179055919050565b600354600090819061010090046001600160a01b0316331461287257611fc3600160316121ed565b61287a612ab2565b6009541461288e57611fc3600a60336121ed565b82612897612736565b10156128a957611fc3600e60326121ed565b600c548311156128bf57611fc3600260346121ed565b50600c54828103908111156129055760405162461bcd60e51b81526004018080602001828103825260248152602001806150786024913960400191505060405180910390fd5b600c8190556003546129259061010090046001600160a01b031684613802565b600354604080516101009092046001600160a01b0316825260208201859052818101839052517f3bad0c59cf2f06e7314077049f48a93578cd16f5ef92329f1dab1420a99c177e916060908290030190a16000610d91565b6000805460ff166129c2576040805162461bcd60e51b815260206004820152600a6024820152691c994b595b9d195c995960b21b604482015290519081900360640190fd5b6000805460ff191681556129d46116a2565b905080156129f2576112d08160108111156129eb57fe5b60276121ed565b6112e133600085613824565b6001600160a01b038116600090815260106020526040812080548291829182918291612a35575060009450849350612aad92505050565b612a458160000154600a54613c5f565b90945092506000846003811115612a5857fe5b14612a6d575091935060009250612aad915050565b612a7b838260010154613c9e565b90945091506000846003811115612a8e57fe5b14612aa3575091935060009250612aad915050565b5060009450925050505b915091565b4390565b600354600090819061010090046001600160a01b03163314612ade57611fc3600160426121ed565b612ae6612ab2565b60095414612afa57611fc3600a60416121ed565b600660009054906101000a90046001600160a01b03169050826001600160a01b0316632191f92a6040518163ffffffff1660e01b815260040160206040518083038186803b158015612b4b57600080fd5b505afa158015612b5f573d6000803e3d6000fd5b505050506040513d6020811015612b7557600080fd5b5051612bc8576040805162461bcd60e51b815260206004820152601c60248201527f6d61726b6572206d6574686f642072657475726e65642066616c736500000000604482015290519081900360640190fd5b600680546001600160a01b0319166001600160a01b03858116918217909255604080519284168352602083019190915280517fedffc32e068c7c95dfd4bdfd5c4d939a084d6b11c4199eac8436ed234d72f9269281900390910190a16000610d91565b60008054819060ff16612c72576040805162461bcd60e51b815260206004820152600a6024820152691c994b595b9d195c995960b21b604482015290519081900360640190fd5b6000805460ff19168155612c846116a2565b90508015612ca2576122ca816010811115612c9b57fe5b601e6121ed565b6122e23385613cc9565b600080838311612cc357506000905081830361272f565b5060039050600061272f565b6000612cd9614ca7565b600080612cea866000015186613c5f565b90925090506000826003811115612cfd57fe5b14612d1c5750604080516020810190915260008152909250905061272f565b60408051602081019091529081526000969095509350505050565b60007f45b96fe442630264581b197e84bbada861235052c5a1aadfff9ea4e40a969aa0846010811115612d6657fe5b846050811115612d7257fe5b604080519283526020830191909152818101859052519081900360600190a183601081111561121f57fe5b600080838301848110612db55760009250905061272f565b50600291506000905061272f565b6000806000612dd0614ca7565b612dda8787612ccf565b90925090506000826003811115612ded57fe5b14612dfe5750915060009050612e17565b612e10612e0a8261370b565b86612d9d565b9350935050505b935093915050565b6005546040805163d02f735160e01b81523060048201526001600160a01b038781166024830152868116604483015285811660648301526084820185905291516000938493169163d02f73519160a480830192602092919082900301818787803b158015612e8c57600080fd5b505af1158015612ea0573d6000803e3d6000fd5b505050506040513d6020811015612eb657600080fd5b505190508015612ecd576124516003601b83612d37565b846001600160a01b0316846001600160a01b03161415612ef3576124516006601c6121ed565b6001600160a01b0384166000908152600e602052604081205481908190612f1a9087612cac565b90935091506000836003811115612f2d57fe5b14612f5057612f456009601a85600381111561188a57fe5b94505050505061121f565b6001600160a01b0388166000908152600e6020526040902054612f739087612d9d565b90935090506000836003811115612f8657fe5b14612f9e57612f456009601985600381111561188a57fe5b6001600160a01b038088166000818152600e60209081526040808320879055938c168083529184902085905583518a815293519193600080516020614f6c833981519152929081900390910190a360009998505050505050505050565b6000805460ff16613040576040805162461bcd60e51b815260206004820152600a6024820152691c994b595b9d195c995960b21b604482015290519081900360640190fd5b6000805460ff191681556130526116a2565b90508015613070576112d081601081111561306957fe5b60086121ed565b6112e13384614099565b6000805460ff166130bf576040805162461bcd60e51b815260206004820152600a6024820152691c994b595b9d195c995960b21b604482015290519081900360640190fd5b6000805460ff191681556130d16116a2565b905080156130e8576112d08160108111156129eb57fe5b6112e133846000613824565b60008054819060ff1661313b576040805162461bcd60e51b815260206004820152600a6024820152691c994b595b9d195c995960b21b604482015290519081900360640190fd5b6000805460ff1916815561314d6116a2565b905080156131785761316b81601081111561316457fe5b600f6121ed565b92506000915061320f9050565b836001600160a01b031663a6afed956040518163ffffffff1660e01b8152600401602060405180830381600087803b1580156131b357600080fd5b505af11580156131c7573d6000803e3d6000fd5b505050506040513d60208110156131dd57600080fd5b5051905080156131fd5761316b8160108111156131f657fe5b60106121ed565b6132093387878761432d565b92509250505b6000805460ff191660011790559094909350915050565b60035460009061010090046001600160a01b0316331461324c57610c67600160476121ed565b613254612ab2565b6009541461326857610c67600a60486121ed565b670de0b6b3a764000082111561328457610c67600260496121ed565b6008805490839055604080518281526020810185905281517faaa68312e2ea9d50e16af5068410ab56e1a1fd06037b1a35664812c30f821460929181900390910190a16000610d91565b60055460408051631200453160e11b81523060048201526001600160a01b0386811660248301528581166044830152606482018590529151600093849384939116916324008a629160848082019260209290919082900301818787803b15801561333757600080fd5b505af115801561334b573d6000803e3d6000fd5b505050506040513d602081101561336157600080fd5b505190508015613385576133786003603883612d37565b925060009150612e179050565b61338d612ab2565b600954146133a157613378600a60396121ed565b6133a9614d38565b6001600160a01b03861660009081526010602052604090206001015460608201526133d3866129fe565b60808301819052602083018260038111156133ea57fe5b60038111156133f557fe5b905250600090508160200151600381111561340c57fe5b1461343657613428600960378360200151600381111561188a57fe5b935060009250612e17915050565b60001985141561344f5760808101516040820152613457565b604081018590525b61346587826040015161481f565b60e08201819052608082015161347a91612cac565b60a083018190526020830182600381111561349157fe5b600381111561349c57fe5b90525060009050816020015160038111156134b357fe5b146134ef5760405162461bcd60e51b815260040180806020018281038252603a815260200180614f32603a913960400191505060405180910390fd5b6134ff600b548260e00151612cac565b60c083018190526020830182600381111561351657fe5b600381111561352157fe5b905250600090508160200151600381111561353857fe5b146135745760405162461bcd60e51b8152600401808060200182810382526031815260200180614f8c6031913960400191505060405180910390fd5b60a080820180516001600160a01b03808a16600081815260106020908152604091829020948555600a5460019095019490945560c0870151600b81905560e088015195518251948f16855294840192909252828101949094526060820192909252608081019190915290517f1a2a22cb034d26d1854bdc6666a5b91fe25efbbb5dcad3b0355478d6f5c362a1929181900390910190a160e00151600097909650945050505050565b60008060008061362c8787612d9d565b9092509050600082600381111561363f57fe5b146136505750915060009050612e17565b612e108186612cac565b6000613664614ca7565b60008061367986670de0b6b3a7640000613c5f565b9092509050600082600381111561368c57fe5b146136ab5750604080516020810190915260008152909250905061272f565b6000806136b88388613c9e565b909250905060008260038111156136cb57fe5b146136ee578160405180602001604052806000815250955095505050505061272f565b604080516020810190915290815260009890975095505050505050565b51670de0b6b3a7640000900490565b600080600080613728612ab2565b600954146137475761373c600a604f6121ed565b93509150612aad9050565b613751338661481f565b905080600c54019150600c548210156137b1576040805162461bcd60e51b815260206004820181905260248201527f61646420726573657276657320756e6578706563746564206f766572666c6f77604482015290519081900360640190fd5b600c829055604080513381526020810183905280820184905290517fa91e67c5ea634cd43a12c5a482724b03de01e85ca68702a53d0c2f45cb7c1dc59181900360600190a160009350915050915091565b6011546001600160a01b031661381f81848463ffffffff61498e16565b505050565b6000821580613831575081155b61386c5760405162461bcd60e51b81526004018080602001828103825260348152602001806150446034913960400191505060405180910390fd5b613874614d7e565b61387c6122fc565b604083018190526020830182600381111561389357fe5b600381111561389e57fe5b90525060009050816020015160038111156138b557fe5b146138d9576138d16009602b8360200151600381111561188a57fe5b9150506120f0565b831561395a57606081018490526040805160208101825290820151815261390090856126e2565b608083018190526020830182600381111561391757fe5b600381111561392257fe5b905250600090508160200151600381111561393957fe5b14613955576138d1600960298360200151600381111561188a57fe5b6139d3565b61397683604051806020016040528084604001518152506149e0565b606083018190526020830182600381111561398d57fe5b600381111561399857fe5b90525060009050816020015160038111156139af57fe5b146139cb576138d16009602a8360200151600381111561188a57fe5b608081018390525b60055460608201516040805163eabe7d9160e01b81523060048201526001600160a01b03898116602483015260448201939093529051600093929092169163eabe7d919160648082019260209290919082900301818787803b158015613a3857600080fd5b505af1158015613a4c573d6000803e3d6000fd5b505050506040513d6020811015613a6257600080fd5b505190508015613a8257613a796003602883612d37565b925050506120f0565b613a8a612ab2565b60095414613a9e57613a79600a602c6121ed565b613aae600d548360600151612cac565b60a0840181905260208401826003811115613ac557fe5b6003811115613ad057fe5b9052506000905082602001516003811115613ae757fe5b14613b0357613a796009602e8460200151600381111561188a57fe5b6001600160a01b0386166000908152600e60205260409020546060830151613b2b9190612cac565b60c0840181905260208401826003811115613b4257fe5b6003811115613b4d57fe5b9052506000905082602001516003811115613b6457fe5b14613b8057613a796009602d8460200151600381111561188a57fe5b8160800151613b8d612736565b1015613b9f57613a79600e602f6121ed565b613bad868360800151613802565b60a0820151600d5560c08201516001600160a01b0387166000818152600e6020908152604091829020939093556060850151815190815290513093600080516020614f6c833981519152928290030190a36080820151606080840151604080516001600160a01b038b168152602081019490945283810191909152517fe5b754fb1abb7f01b499791d0b820ae3b6af3424ac1c59768edb53f4ec31a9299281900390910190a160009695505050505050565b60008083613c725750600090508061272f565b83830283858281613c7f57fe5b0414613c935750600291506000905061272f565b60009250905061272f565b60008082613cb2575060019050600061272f565b6000838581613cbd57fe5b04915091509250929050565b60055460408051634ef4c3e160e01b81523060048201526001600160a01b03858116602483015260448201859052915160009384938493911691634ef4c3e19160648082019260209290919082900301818787803b158015613d2a57600080fd5b505af1158015613d3e573d6000803e3d6000fd5b505050506040513d6020811015613d5457600080fd5b505190508015613d7857613d6b6003601f83612d37565b92506000915061272f9050565b613d80612ab2565b60095414613d9457613d6b600a60226121ed565b613d9c614d7e565b613da46122fc565b6040830181905260208301826003811115613dbb57fe5b6003811115613dc657fe5b9052506000905081602001516003811115613ddd57fe5b14613e0757613df9600960218360200151600381111561188a57fe5b93506000925061272f915050565b613e11868661481f565b60c0820181905260408051602081018252908301518152613e3291906149e0565b6060830181905260208301826003811115613e4957fe5b6003811115613e5457fe5b9052506000905081602001516003811115613e6b57fe5b14613ebd576040805162461bcd60e51b815260206004820181905260248201527f4d494e545f45584348414e47455f43414c43554c4154494f4e5f4641494c4544604482015290519081900360640190fd5b613ecd600d548260600151612d9d565b6080830181905260208301826003811115613ee457fe5b6003811115613eef57fe5b9052506000905081602001516003811115613f0657fe5b14613f425760405162461bcd60e51b8152600401808060200182810382526028815260200180614ff26028913960400191505060405180910390fd5b6001600160a01b0386166000908152600e60205260409020546060820151613f6a9190612d9d565b60a0830181905260208301826003811115613f8157fe5b6003811115613f8c57fe5b9052506000905081602001516003811115613fa357fe5b14613fdf5760405162461bcd60e51b815260040180806020018281038252602b815260200180614ed0602b913960400191505060405180910390fd5b6080810151600d5560a08101516001600160a01b0387166000818152600e60209081526040918290209390935560c084015160608086015183519485529484019190915282820193909352517f4c209b5fc8ad50758f13e2e1088ba56a560dff690a1c6fef26394f4c03821c4f929181900390910190a1606081015160408051918252516001600160a01b038816913091600080516020614f6c8339815191529181900360200190a360c001516000969095509350505050565b6005546040805163368f515360e21b81523060048201526001600160a01b0385811660248301526044820185905291516000938493169163da3d454c91606480830192602092919082900301818787803b1580156140f657600080fd5b505af115801561410a573d6000803e3d6000fd5b505050506040513d602081101561412057600080fd5b50519050801561413f576141376003600e83612d37565b915050610c3b565b614147612ab2565b6009541461415a57614137600a806121ed565b82614163612736565b101561417557614137600e60096121ed565b61417d614dbc565b614186856129fe565b602083018190528282600381111561419a57fe5b60038111156141a557fe5b90525060009050815160038111156141b957fe5b146141de576141d5600960078360000151600381111561188a57fe5b92505050610c3b565b6141ec816020015185612d9d565b604083018190528282600381111561420057fe5b600381111561420b57fe5b905250600090508151600381111561421f57fe5b1461423b576141d56009600c8360000151600381111561188a57fe5b614247600b5485612d9d565b606083018190528282600381111561425b57fe5b600381111561426657fe5b905250600090508151600381111561427a57fe5b14614296576141d56009600b8360000151600381111561188a57fe5b6142a08585613802565b604080820180516001600160a01b03881660008181526010602090815290859020928355600a54600190930192909255606080860151600b81905593518551928352928201899052818501929092529081019190915290517f13ed6866d4e1ee6da46f845c46d7e54120883d75c5ea9a2dacc1c4ca8984ab809181900360800190a1600095945050505050565b60055460408051632fe3f38f60e11b81523060048201526001600160a01b0384811660248301528781166044830152868116606483015260848201869052915160009384938493911691635fc7e71e9160a48082019260209290919082900301818787803b15801561439e57600080fd5b505af11580156143b2573d6000803e3d6000fd5b505050506040513d60208110156143c857600080fd5b5051905080156143ec576143df6003601283612d37565b9250600091506148169050565b6143f4612ab2565b60095414614408576143df600a60166121ed565b614410612ab2565b846001600160a01b0316636c540baf6040518163ffffffff1660e01b815260040160206040518083038186803b15801561444957600080fd5b505afa15801561445d573d6000803e3d6000fd5b505050506040513d602081101561447357600080fd5b505114614486576143df600a60116121ed565b866001600160a01b0316866001600160a01b031614156144ac576143df600660176121ed565b846144bd576143df600760156121ed565b6000198514156144d3576143df600760146121ed565b6000806144e18989896132ce565b90925090508115614511576145028260108111156144fb57fe5b60186121ed565b94506000935061481692505050565b6005546040805163c488847b60e01b81523060048201526001600160a01b038981166024830152604482018590528251600094859492169263c488847b926064808301939192829003018186803b15801561456b57600080fd5b505afa15801561457f573d6000803e3d6000fd5b505050506040513d604081101561459557600080fd5b508051602090910151909250905081156145e05760405162461bcd60e51b8152600401808060200182810382526037815260200180614e246037913960400191505060405180910390fd5b80886001600160a01b03166370a082318c6040518263ffffffff1660e01b815260040180826001600160a01b03166001600160a01b0316815260200191505060206040518083038186803b15801561463757600080fd5b505afa15801561464b573d6000803e3d6000fd5b505050506040513d602081101561466157600080fd5b505110156146b6576040805162461bcd60e51b815260206004820152601860248201527f4c49515549444154455f5345495a455f544f4f5f4d5543480000000000000000604482015290519081900360640190fd5b60006001600160a01b0389163014156146dc576146d5308d8d85612e1f565b9050614766565b6040805163b2a02ff160e01b81526001600160a01b038e811660048301528d81166024830152604482018590529151918b169163b2a02ff1916064808201926020929091908290030181600087803b15801561473757600080fd5b505af115801561474b573d6000803e3d6000fd5b505050506040513d602081101561476157600080fd5b505190505b80156147b0576040805162461bcd60e51b81526020600482015260146024820152731d1bdad95b881cd95a5e9d5c994819985a5b195960621b604482015290519081900360640190fd5b604080516001600160a01b03808f168252808e1660208301528183018790528b1660608201526080810184905290517f298637f684da70674f26509b10f07ec2fbc77a335ab1e7d6215a4b2484d8bb529181900360a00190a16000975092955050505050505b94509492505050565b601154604080516370a0823160e01b815230600482015290516000926001600160a01b031691839183916370a08231916024808301926020929190829003018186803b15801561486e57600080fd5b505afa158015614882573d6000803e3d6000fd5b505050506040513d602081101561489857600080fd5b505190506148b76001600160a01b03831686308763ffffffff6149f716565b601154604080516370a0823160e01b815230600482015290516000926001600160a01b0316916370a08231916024808301926020929190829003018186803b15801561490257600080fd5b505afa158015614916573d6000803e3d6000fd5b505050506040513d602081101561492c57600080fd5b5051905081811015614985576040805162461bcd60e51b815260206004820152601a60248201527f544f4b454e5f5452414e534645525f494e5f4f564552464c4f57000000000000604482015290519081900360640190fd5b03949350505050565b604080516001600160a01b038416602482015260448082018490528251808303909101815260649091019091526020810180516001600160e01b031663a9059cbb60e01b17905261381f908490614a57565b60008060006149ed614ca7565b6126f98686614c0f565b604080516001600160a01b0380861660248301528416604482015260648082018490528251808303909101815260849091019091526020810180516001600160e01b03166323b872dd60e01b179052614a51908590614a57565b50505050565b614a69826001600160a01b0316614c6e565b614aba576040805162461bcd60e51b815260206004820152601f60248201527f5361666545524332303a2063616c6c20746f206e6f6e2d636f6e747261637400604482015290519081900360640190fd5b60006060836001600160a01b0316836040518082805190602001908083835b60208310614af85780518252601f199092019160209182019101614ad9565b6001836020036101000a0380198251168184511680821785525050505050509050019150506000604051808303816000865af19150503d8060008114614b5a576040519150601f19603f3d011682016040523d82523d6000602084013e614b5f565b606091505b509150915081614bb6576040805162461bcd60e51b815260206004820181905260248201527f5361666545524332303a206c6f772d6c6576656c2063616c6c206661696c6564604482015290519081900360640190fd5b805115614a5157808060200190516020811015614bd257600080fd5b5051614a515760405162461bcd60e51b815260040180806020018281038252602a81526020018061501a602a913960400191505060405180910390fd5b6000614c19614ca7565b600080614c2e670de0b6b3a764000087613c5f565b90925090506000826003811115614c4157fe5b14614c605750604080516020810190915260008152909250905061272f565b61272881866000015161365a565b6000813f7fc5d2460186f7233c927e7db2dcc703c0e500b653ca82273b7bfad8045d85a47081811480159061121f575050151592915050565b6040518060200160405280600081525090565b828054600181600116156101000203166002900490600052602060002090601f016020900481019282601f10614cfb57805160ff1916838001178555614d28565b82800160010185558215614d28579182015b82811115614d28578251825591602001919060010190614d0d565b50614d34929150614de5565b5090565b6040805161010081019091528060008152602001600081526020016000815260200160008152602001600081526020016000815260200160008152602001600081525090565b6040805160e0810190915280600081526020016000815260200160008152602001600081526020016000815260200160008152602001600081525090565b604080516080810190915280600081526020016000815260200160008152602001600081525090565b610fd491905b80821115614d345760008155600101614deb56fe6f6e6c792061646d696e206d617920696e697469616c697a6520746865206d61726b65744c49515549444154455f504f4f4c58434f4e54524f4c4c45525f43414c43554c4154455f414d4f554e545f5345495a455f4641494c45446d61726b6574206d6179206f6e6c7920626520696e697469616c697a6564206f6e6365696e697469616c2065786368616e67652072617465206d7573742062652067726561746572207468616e207a65726f2e73657474696e6720696e7465726573742072617465206d6f64656c206661696c65644d494e545f4e45575f4143434f554e545f42414c414e43455f43414c43554c4154494f4e5f4641494c4544626f72726f7742616c616e636553746f7265643a20626f72726f7742616c616e636553746f726564496e7465726e616c206661696c656452455041595f424f52524f575f4e45575f4143434f554e545f424f52524f575f42414c414e43455f43414c43554c4154494f4e5f4641494c4544ddf252ad1be2c89b69c2b068fc378daa952ba7f163c4a11628f55a4df523b3ef52455041595f424f52524f575f4e45575f544f54414c5f42414c414e43455f43414c43554c4154494f4e5f4641494c454465786368616e67655261746553746f7265643a2065786368616e67655261746553746f726564496e7465726e616c206661696c65644d494e545f4e45575f544f54414c5f535550504c595f43414c43554c4154494f4e5f4641494c45445361666545524332303a204552433230206f7065726174696f6e20646964206e6f7420737563636565646f6e65206f662072656465656d546f6b656e73496e206f722072656465656d416d6f756e74496e206d757374206265207a65726f72656475636520726573657276657320756e657870656374656420756e646572666c6f77a26469706673582212200c4713327e21918efc01674ed24b1d808e11d4a6067e95d10a6a2c325f946fbe64736f6c634300060900336f6e6c792061646d696e206d617920696e697469616c697a6520746865206d61726b65746d61726b6574206d6179206f6e6c7920626520696e697469616c697a6564206f6e6365696e697469616c2065786368616e67652072617465206d7573742062652067726561746572207468616e207a65726f2e73657474696e6720696e7465726573742072617465206d6f64656c206661696c6564",
  "immutableReferences": {},
  "source": "// SPDX-License-Identifier: UNLICENSED\npragma solidity ^0.6.9;\n\nimport \"../tokenization/PToken.sol\";\nimport \"@openzeppelin/contracts/token/ERC20/SafeERC20.sol\";\nimport \"@openzeppelin/contracts/token/ERC20/IERC20.sol\";\n\ncontract PErc20 is PToken, IPErc20 {\n    using SafeERC20 for IERC20;\n    /**\n     * @notice Initialize the new money market\n     * @param underlying_ The address of the underlying asset\n     * @param riskManager_ The address of the RiskManager\n     * @param interestRateModel_ The address of the interest rate model\n     * @param initialExchangeRateMantissa_ The initial exchange rate, scaled by 1e18\n     * @param name_ ERC-20 name of this token\n     * @param symbol_ ERC-20 symbol of this token\n     * @param decimals_ ERC-20 decimal precision of this token\n     */\n    constructor(address underlying_,\n                        IRiskManager riskManager_,\n                        InterestRateModel interestRateModel_,\n                        uint initialExchangeRateMantissa_,\n                        string memory name_,\n                        string memory symbol_,\n                        uint8 decimals_,\n                        address payable admin_) public {\n        admin = msg.sender;\n\n        // pToken initialize does the bulk of the work\n        super.initialize(riskManager_, interestRateModel_, initialExchangeRateMantissa_, name_, symbol_, decimals_);\n\n        // Set underlying and sanity check it\n        underlying = underlying_;\n        IERC20(underlying).totalSupply();\n\n        admin = admin_;\n    }\n\n    /*** User Interface ***/\n\n    /**\n     * @notice Sender supplies assets into the market and receives pTokens in exchange\n     * @dev Accrues interest whether or not the operation succeeds, unless reverted\n     * @param mintAmount The amount of the underlying asset to supply\n     * @return uint 0=success, otherwise a failure (see ErrorReporter.sol for details)\n     */\n    function mint(uint mintAmount) external override returns (uint) {\n        (uint err,) = mintInternal(mintAmount);\n        return err;\n    }\n\n    /**\n     * @notice Sender redeems pTokens in exchange for the underlying asset\n     * @dev Accrues interest whether or not the operation succeeds, unless reverted\n     * @param redeemTokens The number of pTokens to redeem into underlying\n     * @return uint 0=success, otherwise a failure (see ErrorReporter.sol for details)\n     */\n    function redeem(uint redeemTokens) external override returns (uint) {\n        return redeemInternal(redeemTokens);\n    }\n\n    /**\n     * @notice Sender redeems pTokens in exchange for a specified amount of underlying asset\n     * @dev Accrues interest whether or not the operation succeeds, unless reverted\n     * @param redeemAmount The amount of underlying to redeem\n     * @return uint 0=success, otherwise a failure (see ErrorReporter.sol for details)\n     */\n    function redeemUnderlying(uint redeemAmount) external override returns (uint) {\n        return redeemUnderlyingInternal(redeemAmount);\n    }\n\n    /**\n      * @notice Sender borrows assets from the protocol to their own address\n      * @param borrowAmount The amount of the underlying asset to borrow\n      * @return uint 0=success, otherwise a failure (see ErrorReporter.sol for details)\n      */\n    function borrow(uint borrowAmount) external payable override returns (uint) {\n        uint256 priceCost = riskManager.getPriceCost(address(this));\n        riskManager.updateAndGetTokenPrice{value: priceCost}(address(this));\n        return borrowInternal(borrowAmount);\n    }\n\n    /**\n     * @notice Sender repays their own borrow\n     * @param repayAmount The amount to repay\n     * @return uint 0=success, otherwise a failure (see ErrorReporter.sol for details)\n     */\n    function repayBorrow(uint repayAmount) external payable override returns (uint) {\n        uint256 priceCost = riskManager.getPriceCost(address(this));\n        riskManager.updateAndGetTokenPrice{value: priceCost}(address(this));\n        (uint err,) = repayBorrowInternal(repayAmount);\n        return err;\n    }\n\n    /**\n     * @notice Sender repays a borrow belonging to borrower\n     * @param borrower the account with the debt being payed off\n     * @param repayAmount The amount to repay\n     * @return uint 0=success, otherwise a failure (see ErrorReporter.sol for details)\n     */\n    function repayBorrowBehalf(address borrower, uint repayAmount) external payable override returns (uint) {\n        uint256 priceCost = riskManager.getPriceCost(address(this));\n        riskManager.updateAndGetTokenPrice{value: priceCost}(address(this));\n        (uint err,) = repayBorrowBehalfInternal(borrower, repayAmount);\n        return err;\n    }\n\n    /**\n     * @notice The sender liquidates the borrowers collateral.\n     *  The collateral seized is transferred to the liquidator.\n     * @param borrower The borrower of this pToken to be liquidated\n     * @param repayAmount The amount of the underlying borrowed asset to repay\n     * @param pTokenCollateral The market in which to seize collateral from the borrower\n     * @return uint 0=success, otherwise a failure (see ErrorReporter.sol for details)\n     */\n    function liquidateBorrow(address borrower, uint repayAmount, IPToken pTokenCollateral) external payable override returns (uint) {\n        uint256 priceCost = riskManager.getPriceCost(address(this));\n        riskManager.updateAndGetTokenPrice{value: priceCost}(address(this));\n        (uint err,) = liquidateBorrowInternal(borrower, repayAmount, pTokenCollateral);\n        return err;\n    }\n\n    /**\n     * @notice The sender adds to reserves.\n     * @param addAmount The amount fo underlying token to add as reserves\n     * @return uint 0=success, otherwise a failure (see ErrorReporter.sol for details)\n     */\n    function _addReserves(uint addAmount) external override returns (uint) {\n        return _addReservesInternal(addAmount);\n    }\n\n    function isForETH() public view override returns (bool) {\n        return false;\n    }\n    /*** Safe Token ***/\n\n    /**\n     * @notice Gets balance of this contract in terms of the underlying\n     * @dev This excludes the value of the current message, if any\n     * @return The quantity of underlying tokens owned by this contract\n     */\n    function getCashPrior() internal view override returns (uint) {\n        IERC20 token = IERC20(underlying);\n        return token.balanceOf(address(this));\n    }\n\n    function doTransferIn(address from, uint amount) internal override returns (uint) {\n        IERC20 token = IERC20(underlying);\n        uint balanceBefore = IERC20(underlying).balanceOf(address(this));\n        token.safeTransferFrom(from, address(this), amount);\n\n        // Calculate the amount that was *actually* transferred\n        uint balanceAfter = IERC20(underlying).balanceOf(address(this));\n        require(balanceAfter >= balanceBefore, \"TOKEN_TRANSFER_IN_OVERFLOW\");\n        return balanceAfter - balanceBefore;   // underflow already checked above, just subtract\n    }\n\n    function doTransferOut(address payable to, uint amount) internal override {\n        IERC20 token = IERC20(underlying);\n        token.safeTransfer(to, amount);\n    }\n}\n",
  "sourcePath": "/Users/ashton/repo/blockchain/eth/smartcontracts/PoolX/contracts/tokenization/PErc20.sol",
  "compiler": {
    "name": "solc",
    "version": "0.6.9+commit.3e3065ac.Emscripten.clang"
  },
  "schemaVersion": "3.2.0",
  "updatedAt": "2020-08-24T02:58:45.025Z",
  "devdoc": {
    "methods": {
      "_acceptAdmin()": {
        "details": "Admin function for pending admin to accept role and update admin",
        "returns": {
          "_0": "uint 0=success, otherwise a failure (see ErrorReporter.sol for details)"
        }
      },
      "_addReserves(uint256)": {
        "params": {
          "addAmount": "The amount fo underlying token to add as reserves"
        },
        "returns": {
          "_0": "uint 0=success, otherwise a failure (see ErrorReporter.sol for details)"
        }
      },
      "_reduceReserves(uint256)": {
        "params": {
          "reduceAmount": "Amount of reduction to reserves"
        },
        "returns": {
          "_0": "uint 0=success, otherwise a failure (see ErrorReporter.sol for details)"
        }
      },
      "_setInterestRateModel(address)": {
        "details": "Admin function to accrue interest and update the interest rate model",
        "params": {
          "newInterestRateModel": "the new interest rate model to use"
        },
        "returns": {
          "_0": "uint 0=success, otherwise a failure (see ErrorReporter.sol for details)"
        }
      },
      "_setPendingAdmin(address)": {
        "details": "Admin function to begin change of admin. The newPendingAdmin must call `_acceptAdmin` to finalize the transfer.",
        "params": {
          "newPendingAdmin": "New pending admin."
        },
        "returns": {
          "_0": "uint 0=success, otherwise a failure (see ErrorReporter.sol for details)"
        }
      },
      "_setReserveFactor(uint256)": {
        "details": "Admin function to accrue interest and set a new reserve factor",
        "returns": {
          "_0": "uint 0=success, otherwise a failure (see ErrorReporter.sol for details)"
        }
      },
      "_setRiskManager(address)": {
        "details": "Admin function to set a new riskManager",
        "returns": {
          "_0": "uint 0=success, otherwise a failure (see ErrorReporter.sol for details)"
        }
      },
      "accrueInterest()": {
        "details": "This calculates interest accrued from the last checkpointed block   up to the current block and writes new checkpoint to storage."
      },
      "allowance(address,address)": {
        "params": {
          "owner": "The address of the account which owns the tokens to be spent",
          "spender": "The address of the account which may transfer tokens"
        },
        "returns": {
          "_0": "The number of tokens allowed to be spent (-1 means infinite)"
        }
      },
      "approve(address,uint256)": {
        "details": "This will overwrite the approval amount for `spender`  and is subject to issues noted [here](https://eips.ethereum.org/EIPS/eip-20#approve)",
        "params": {
          "amount": "The number of tokens that are approved (-1 means infinite)",
          "spender": "The address of the account which may transfer tokens"
        },
        "returns": {
          "_0": "Whether or not the approval succeeded"
        }
      },
      "balanceOf(address)": {
        "params": {
          "owner": "The address of the account to query"
        },
        "returns": {
          "_0": "The number of tokens owned by `owner`"
        }
      },
      "balanceOfUnderlying(address)": {
        "details": "This also accrues interest in a transaction",
        "params": {
          "owner": "The address of the account to query"
        },
        "returns": {
          "_0": "The amount of underlying owned by `owner`"
        }
      },
      "borrow(uint256)": {
        "params": {
          "borrowAmount": "The amount of the underlying asset to borrow"
        },
        "returns": {
          "_0": "uint 0=success, otherwise a failure (see ErrorReporter.sol for details)"
        }
      },
      "borrowBalanceCurrent(address)": {
        "params": {
          "account": "The address whose balance should be calculated after updating borrowIndex"
        },
        "returns": {
          "_0": "The calculated balance"
        }
      },
      "borrowBalanceStored(address)": {
        "params": {
          "account": "The address whose balance should be calculated"
        },
        "returns": {
          "_0": "The calculated balance"
        }
      },
      "borrowRatePerBlock()": {
        "returns": {
          "_0": "The borrow interest rate per block, scaled by 1e18"
        }
      },
      "constructor": {
        "params": {
          "decimals_": "ERC-20 decimal precision of this token",
          "initialExchangeRateMantissa_": "The initial exchange rate, scaled by 1e18",
          "interestRateModel_": "The address of the interest rate model",
          "name_": "ERC-20 name of this token",
          "riskManager_": "The address of the RiskManager",
          "symbol_": "ERC-20 symbol of this token",
          "underlying_": "The address of the underlying asset"
        }
      },
      "exchangeRateCurrent()": {
        "returns": {
          "_0": "Calculated exchange rate scaled by 1e18"
        }
      },
      "exchangeRateStored()": {
        "details": "This function does not accrue interest before calculating the exchange rate",
        "returns": {
          "_0": "Calculated exchange rate scaled by 1e18"
        }
      },
      "getAccountSnapshot(address)": {
        "details": "This is used by riskManager to more efficiently perform liquidity checks.",
        "params": {
          "account": "Address of the account to snapshot"
        },
        "returns": {
          "_0": "(possible error, token balance, borrow balance, exchange rate mantissa)"
        }
      },
      "getCash()": {
        "returns": {
          "_0": "The quantity of underlying asset owned by this contract"
        }
      },
      "initialize(address,address,uint256,string,string,uint8)": {
        "params": {
          "decimals_": "EIP-20 decimal precision of this token",
          "initialExchangeRateMantissa_": "The initial exchange rate, scaled by 1e18",
          "interestRateModel_": "",
          "name_": "EIP-20 name of this token",
          "riskManager_": "controller ",
          "symbol_": "EIP-20 symbol of this token"
        }
      },
      "liquidateBorrow(address,uint256,address)": {
        "params": {
          "borrower": "The borrower of this pToken to be liquidated",
          "pTokenCollateral": "The market in which to seize collateral from the borrower",
          "repayAmount": "The amount of the underlying borrowed asset to repay"
        },
        "returns": {
          "_0": "uint 0=success, otherwise a failure (see ErrorReporter.sol for details)"
        }
      },
      "mint(uint256)": {
        "details": "Accrues interest whether or not the operation succeeds, unless reverted",
        "params": {
          "mintAmount": "The amount of the underlying asset to supply"
        },
        "returns": {
          "_0": "uint 0=success, otherwise a failure (see ErrorReporter.sol for details)"
        }
      },
      "redeem(uint256)": {
        "details": "Accrues interest whether or not the operation succeeds, unless reverted",
        "params": {
          "redeemTokens": "The number of pTokens to redeem into underlying"
        },
        "returns": {
          "_0": "uint 0=success, otherwise a failure (see ErrorReporter.sol for details)"
        }
      },
      "redeemUnderlying(uint256)": {
        "details": "Accrues interest whether or not the operation succeeds, unless reverted",
        "params": {
          "redeemAmount": "The amount of underlying to redeem"
        },
        "returns": {
          "_0": "uint 0=success, otherwise a failure (see ErrorReporter.sol for details)"
        }
      },
      "repayBorrow(uint256)": {
        "params": {
          "repayAmount": "The amount to repay"
        },
        "returns": {
          "_0": "uint 0=success, otherwise a failure (see ErrorReporter.sol for details)"
        }
      },
      "repayBorrowBehalf(address,uint256)": {
        "params": {
          "borrower": "the account with the debt being payed off",
          "repayAmount": "The amount to repay"
        },
        "returns": {
          "_0": "uint 0=success, otherwise a failure (see ErrorReporter.sol for details)"
        }
      },
      "seize(address,address,uint256)": {
        "details": "Will fail unless called by another pToken during the process of liquidation.  Its absolutely critical to use msg.sender as the borrowed pToken and not a parameter.",
        "params": {
          "borrower": "The account having collateral seized",
          "liquidator": "The account receiving seized collateral",
          "seizeTokens": "The number of pTokens to seize"
        },
        "returns": {
          "_0": "uint 0=success, otherwise a failure (see ErrorReporter.sol for details)"
        }
      },
      "supplyRatePerBlock()": {
        "returns": {
          "_0": "The supply interest rate per block, scaled by 1e18"
        }
      },
      "totalBorrowsCurrent()": {
        "returns": {
          "_0": "The total borrows with interest"
        }
      },
      "transfer(address,uint256)": {
        "params": {
          "amount": "The number of tokens to transfer",
          "dst": "The address of the destination account"
        },
        "returns": {
          "_0": "Whether or not the transfer succeeded"
        }
      },
      "transferFrom(address,address,uint256)": {
        "params": {
          "amount": "The number of tokens to transfer",
          "dst": "The address of the destination account",
          "src": "The address of the source account"
        },
        "returns": {
          "_0": "Whether or not the transfer succeeded"
        }
      }
    }
  },
  "userdoc": {
    "methods": {
      "_acceptAdmin()": {
        "notice": "Accepts transfer of admin rights. msg.sender must be pendingAdmin"
      },
      "_addReserves(uint256)": {
        "notice": "The sender adds to reserves."
      },
      "_reduceReserves(uint256)": {
        "notice": "Accrues interest and reduces reserves by transferring to admin"
      },
      "_setInterestRateModel(address)": {
        "notice": "accrues interest and updates the interest rate model using _setInterestRateModelFresh"
      },
      "_setPendingAdmin(address)": {
        "notice": "Begins transfer of admin rights. The newPendingAdmin must call `_acceptAdmin` to finalize the transfer."
      },
      "_setReserveFactor(uint256)": {
        "notice": "accrues interest and sets a new reserve factor for the protocol using _setReserveFactorFresh"
      },
      "_setRiskManager(address)": {
        "notice": "Sets a new riskManager for the market"
      },
      "accrualBlockNumber()": {
        "notice": "Block number that interest was last accrued at"
      },
      "accrueInterest()": {
        "notice": "Applies accrued interest to total borrows and reserves"
      },
      "admin()": {
        "notice": "Administrator for this contract"
      },
      "allowance(address,address)": {
        "notice": "Get the current allowance from `owner` for `spender`"
      },
      "approve(address,uint256)": {
        "notice": "Approve `spender` to transfer up to `amount` from `src`"
      },
      "balanceOf(address)": {
        "notice": "Get the token balance of the `owner`"
      },
      "balanceOfUnderlying(address)": {
        "notice": "Get the underlying balance of the `owner`"
      },
      "borrow(uint256)": {
        "notice": "Sender borrows assets from the protocol to their own address"
      },
      "borrowBalanceCurrent(address)": {
        "notice": "Accrue interest to updated borrowIndex and then calculate account's borrow balance using the updated borrowIndex"
      },
      "borrowBalanceStored(address)": {
        "notice": "Return the borrow balance of account based on stored data"
      },
      "borrowIndex()": {
        "notice": "Accumulator of the total earned interest rate since the opening of the market"
      },
      "borrowRatePerBlock()": {
        "notice": "Returns the current per-block borrow interest rate for this pToken"
      },
      "constructor": "Initialize the new money market",
      "decimals()": {
        "notice": "EIP-20 token decimals for this token"
      },
      "exchangeRateCurrent()": {
        "notice": "Accrue interest then return the up-to-date exchange rate"
      },
      "exchangeRateStored()": {
        "notice": "Calculates the exchange rate from the underlying to the pToken"
      },
      "getAccountSnapshot(address)": {
        "notice": "Get a snapshot of the account's balances, and the cached exchange rate"
      },
      "getCash()": {
        "notice": "Get cash balance of this pToken in the underlying asset"
      },
      "initialize(address,address,uint256,string,string,uint8)": {
        "notice": ""
      },
      "interestRateModel()": {
        "notice": "Model which tells what the current interest rate should be"
      },
      "isPToken()": {
        "notice": "Indicator that this is a PToken contract (for inspection)"
      },
      "liquidateBorrow(address,uint256,address)": {
        "notice": "The sender liquidates the borrowers collateral.  The collateral seized is transferred to the liquidator."
      },
      "mint(uint256)": {
        "notice": "Sender supplies assets into the market and receives pTokens in exchange"
      },
      "name()": {
        "notice": "EIP-20 token name for this token"
      },
      "pendingAdmin()": {
        "notice": "Pending administrator for this contract"
      },
      "redeem(uint256)": {
        "notice": "Sender redeems pTokens in exchange for the underlying asset"
      },
      "redeemUnderlying(uint256)": {
        "notice": "Sender redeems pTokens in exchange for a specified amount of underlying asset"
      },
      "repayBorrow(uint256)": {
        "notice": "Sender repays their own borrow"
      },
      "repayBorrowBehalf(address,uint256)": {
        "notice": "Sender repays a borrow belonging to borrower"
      },
      "reserveFactorMantissa()": {
        "notice": "Fraction of interest currently set aside for reserves"
      },
      "riskManager()": {
        "notice": "Contract which oversees inter-pToken operations"
      },
      "seize(address,address,uint256)": {
        "notice": "Transfers collateral tokens (this market) to the liquidator."
      },
      "supplyRatePerBlock()": {
        "notice": "Returns the current per-block supply interest rate for this pToken"
      },
      "symbol()": {
        "notice": "EIP-20 token symbol for this token"
      },
      "totalBorrows()": {
        "notice": "Total amount of outstanding borrows of the underlying in this market"
      },
      "totalBorrowsCurrent()": {
        "notice": "Returns the current total borrows plus accrued interest"
      },
      "totalReserves()": {
        "notice": "Total amount of reserves of the underlying held in this market"
      },
      "totalSupply()": {
        "notice": "Total number of tokens in circulation"
      },
      "transfer(address,uint256)": {
        "notice": "Transfer `amount` tokens from `msg.sender` to `dst`"
      },
      "transferFrom(address,address,uint256)": {
        "notice": "Transfer `amount` tokens from `src` to `dst`"
      },
      "underlying()": {
        "notice": "Underlying asset for this PToken"
      }
    }
  }
}