{
  "contractName": "PEther",
  "abi": [
    {
      "inputs": [
        {
          "internalType": "contract IRiskManager",
          "name": "riskManager_",
          "type": "address"
        },
        {
          "internalType": "contract InterestRateModel",
          "name": "interestRateModel_",
          "type": "address"
        },
        {
          "internalType": "uint256",
          "name": "initialExchangeRateMantissa_",
          "type": "uint256"
        },
        {
          "internalType": "address payable",
          "name": "admin_",
          "type": "address"
        }
      ],
      "stateMutability": "nonpayable",
      "type": "constructor"
    },
    {
      "anonymous": false,
      "inputs": [
        {
          "indexed": false,
          "internalType": "uint256",
          "name": "cashPrior",
          "type": "uint256"
        },
        {
          "indexed": false,
          "internalType": "uint256",
          "name": "interestAccumulated",
          "type": "uint256"
        },
        {
          "indexed": false,
          "internalType": "uint256",
          "name": "borrowIndex",
          "type": "uint256"
        },
        {
          "indexed": false,
          "internalType": "uint256",
          "name": "totalBorrows",
          "type": "uint256"
        }
      ],
      "name": "AccrueInterest",
      "type": "event"
    },
    {
      "anonymous": false,
      "inputs": [
        {
          "indexed": true,
          "internalType": "address",
          "name": "owner",
          "type": "address"
        },
        {
          "indexed": true,
          "internalType": "address",
          "name": "spender",
          "type": "address"
        },
        {
          "indexed": false,
          "internalType": "uint256",
          "name": "amount",
          "type": "uint256"
        }
      ],
      "name": "Approval",
      "type": "event"
    },
    {
      "anonymous": false,
      "inputs": [
        {
          "indexed": false,
          "internalType": "address",
          "name": "borrower",
          "type": "address"
        },
        {
          "indexed": false,
          "internalType": "uint256",
          "name": "borrowAmount",
          "type": "uint256"
        },
        {
          "indexed": false,
          "internalType": "uint256",
          "name": "accountBorrows",
          "type": "uint256"
        },
        {
          "indexed": false,
          "internalType": "uint256",
          "name": "totalBorrows",
          "type": "uint256"
        }
      ],
      "name": "Borrow",
      "type": "event"
    },
    {
      "anonymous": false,
      "inputs": [
        {
          "indexed": false,
          "internalType": "uint256",
          "name": "error",
          "type": "uint256"
        },
        {
          "indexed": false,
          "internalType": "uint256",
          "name": "info",
          "type": "uint256"
        },
        {
          "indexed": false,
          "internalType": "uint256",
          "name": "detail",
          "type": "uint256"
        }
      ],
      "name": "Failure",
      "type": "event"
    },
    {
      "anonymous": false,
      "inputs": [
        {
          "indexed": false,
          "internalType": "address",
          "name": "liquidator",
          "type": "address"
        },
        {
          "indexed": false,
          "internalType": "address",
          "name": "borrower",
          "type": "address"
        },
        {
          "indexed": false,
          "internalType": "uint256",
          "name": "repayAmount",
          "type": "uint256"
        },
        {
          "indexed": false,
          "internalType": "address",
          "name": "pTokenCollateral",
          "type": "address"
        },
        {
          "indexed": false,
          "internalType": "uint256",
          "name": "seizeTokens",
          "type": "uint256"
        }
      ],
      "name": "LiquidateBorrow",
      "type": "event"
    },
    {
      "anonymous": false,
      "inputs": [
        {
          "indexed": false,
          "internalType": "address",
          "name": "minter",
          "type": "address"
        },
        {
          "indexed": false,
          "internalType": "uint256",
          "name": "mintAmount",
          "type": "uint256"
        },
        {
          "indexed": false,
          "internalType": "uint256",
          "name": "mintTokens",
          "type": "uint256"
        }
      ],
      "name": "Mint",
      "type": "event"
    },
    {
      "anonymous": false,
      "inputs": [
        {
          "indexed": false,
          "internalType": "address",
          "name": "oldAdmin",
          "type": "address"
        },
        {
          "indexed": false,
          "internalType": "address",
          "name": "newAdmin",
          "type": "address"
        }
      ],
      "name": "NewAdmin",
      "type": "event"
    },
    {
      "anonymous": false,
      "inputs": [
        {
          "indexed": false,
          "internalType": "contract InterestRateModel",
          "name": "oldInterestRateModel",
          "type": "address"
        },
        {
          "indexed": false,
          "internalType": "contract InterestRateModel",
          "name": "newInterestRateModel",
          "type": "address"
        }
      ],
      "name": "NewMarketInterestRateModel",
      "type": "event"
    },
    {
      "anonymous": false,
      "inputs": [
        {
          "indexed": false,
          "internalType": "address",
          "name": "oldPendingAdmin",
          "type": "address"
        },
        {
          "indexed": false,
          "internalType": "address",
          "name": "newPendingAdmin",
          "type": "address"
        }
      ],
      "name": "NewPendingAdmin",
      "type": "event"
    },
    {
      "anonymous": false,
      "inputs": [
        {
          "indexed": false,
          "internalType": "uint256",
          "name": "oldReserveFactorMantissa",
          "type": "uint256"
        },
        {
          "indexed": false,
          "internalType": "uint256",
          "name": "newReserveFactorMantissa",
          "type": "uint256"
        }
      ],
      "name": "NewReserveFactor",
      "type": "event"
    },
    {
      "anonymous": false,
      "inputs": [
        {
          "indexed": false,
          "internalType": "contract IRiskManager",
          "name": "oldRiskManager",
          "type": "address"
        },
        {
          "indexed": false,
          "internalType": "contract IRiskManager",
          "name": "newRiskManager",
          "type": "address"
        }
      ],
      "name": "NewRiskManager",
      "type": "event"
    },
    {
      "anonymous": false,
      "inputs": [
        {
          "indexed": false,
          "internalType": "address",
          "name": "redeemer",
          "type": "address"
        },
        {
          "indexed": false,
          "internalType": "uint256",
          "name": "redeemAmount",
          "type": "uint256"
        },
        {
          "indexed": false,
          "internalType": "uint256",
          "name": "redeemTokens",
          "type": "uint256"
        }
      ],
      "name": "Redeem",
      "type": "event"
    },
    {
      "anonymous": false,
      "inputs": [
        {
          "indexed": false,
          "internalType": "address",
          "name": "payer",
          "type": "address"
        },
        {
          "indexed": false,
          "internalType": "address",
          "name": "borrower",
          "type": "address"
        },
        {
          "indexed": false,
          "internalType": "uint256",
          "name": "repayAmount",
          "type": "uint256"
        },
        {
          "indexed": false,
          "internalType": "uint256",
          "name": "accountBorrows",
          "type": "uint256"
        },
        {
          "indexed": false,
          "internalType": "uint256",
          "name": "totalBorrows",
          "type": "uint256"
        }
      ],
      "name": "RepayBorrow",
      "type": "event"
    },
    {
      "anonymous": false,
      "inputs": [
        {
          "indexed": false,
          "internalType": "address",
          "name": "benefactor",
          "type": "address"
        },
        {
          "indexed": false,
          "internalType": "uint256",
          "name": "addAmount",
          "type": "uint256"
        },
        {
          "indexed": false,
          "internalType": "uint256",
          "name": "newTotalReserves",
          "type": "uint256"
        }
      ],
      "name": "ReservesAdded",
      "type": "event"
    },
    {
      "anonymous": false,
      "inputs": [
        {
          "indexed": false,
          "internalType": "address",
          "name": "admin",
          "type": "address"
        },
        {
          "indexed": false,
          "internalType": "uint256",
          "name": "reduceAmount",
          "type": "uint256"
        },
        {
          "indexed": false,
          "internalType": "uint256",
          "name": "newTotalReserves",
          "type": "uint256"
        }
      ],
      "name": "ReservesReduced",
      "type": "event"
    },
    {
      "anonymous": false,
      "inputs": [
        {
          "indexed": true,
          "internalType": "address",
          "name": "from",
          "type": "address"
        },
        {
          "indexed": true,
          "internalType": "address",
          "name": "to",
          "type": "address"
        },
        {
          "indexed": false,
          "internalType": "uint256",
          "name": "amount",
          "type": "uint256"
        }
      ],
      "name": "Transfer",
      "type": "event"
    },
    {
      "inputs": [],
      "name": "_acceptAdmin",
      "outputs": [
        {
          "internalType": "uint256",
          "name": "",
          "type": "uint256"
        }
      ],
      "stateMutability": "nonpayable",
      "type": "function"
    },
    {
      "inputs": [
        {
          "internalType": "uint256",
          "name": "reduceAmount",
          "type": "uint256"
        }
      ],
      "name": "_reduceReserves",
      "outputs": [
        {
          "internalType": "uint256",
          "name": "",
          "type": "uint256"
        }
      ],
      "stateMutability": "nonpayable",
      "type": "function"
    },
    {
      "inputs": [
        {
          "internalType": "contract InterestRateModel",
          "name": "newInterestRateModel",
          "type": "address"
        }
      ],
      "name": "_setInterestRateModel",
      "outputs": [
        {
          "internalType": "uint256",
          "name": "",
          "type": "uint256"
        }
      ],
      "stateMutability": "nonpayable",
      "type": "function"
    },
    {
      "inputs": [
        {
          "internalType": "address payable",
          "name": "newPendingAdmin",
          "type": "address"
        }
      ],
      "name": "_setPendingAdmin",
      "outputs": [
        {
          "internalType": "uint256",
          "name": "",
          "type": "uint256"
        }
      ],
      "stateMutability": "nonpayable",
      "type": "function"
    },
    {
      "inputs": [
        {
          "internalType": "uint256",
          "name": "newReserveFactorMantissa",
          "type": "uint256"
        }
      ],
      "name": "_setReserveFactor",
      "outputs": [
        {
          "internalType": "uint256",
          "name": "",
          "type": "uint256"
        }
      ],
      "stateMutability": "nonpayable",
      "type": "function"
    },
    {
      "inputs": [
        {
          "internalType": "contract IRiskManager",
          "name": "newRiskManager",
          "type": "address"
        }
      ],
      "name": "_setRiskManager",
      "outputs": [
        {
          "internalType": "uint256",
          "name": "",
          "type": "uint256"
        }
      ],
      "stateMutability": "nonpayable",
      "type": "function"
    },
    {
      "inputs": [],
      "name": "accrualBlockNumber",
      "outputs": [
        {
          "internalType": "uint256",
          "name": "",
          "type": "uint256"
        }
      ],
      "stateMutability": "view",
      "type": "function",
      "constant": true
    },
    {
      "inputs": [],
      "name": "accrueInterest",
      "outputs": [
        {
          "internalType": "uint256",
          "name": "",
          "type": "uint256"
        }
      ],
      "stateMutability": "nonpayable",
      "type": "function"
    },
    {
      "inputs": [],
      "name": "admin",
      "outputs": [
        {
          "internalType": "address payable",
          "name": "",
          "type": "address"
        }
      ],
      "stateMutability": "view",
      "type": "function",
      "constant": true
    },
    {
      "inputs": [
        {
          "internalType": "address",
          "name": "owner",
          "type": "address"
        }
      ],
      "name": "balanceOf",
      "outputs": [
        {
          "internalType": "uint256",
          "name": "",
          "type": "uint256"
        }
      ],
      "stateMutability": "view",
      "type": "function",
      "constant": true
    },
    {
      "inputs": [
        {
          "internalType": "address",
          "name": "owner",
          "type": "address"
        }
      ],
      "name": "balanceOfUnderlying",
      "outputs": [
        {
          "internalType": "uint256",
          "name": "",
          "type": "uint256"
        }
      ],
      "stateMutability": "nonpayable",
      "type": "function"
    },
    {
      "inputs": [
        {
          "internalType": "address",
          "name": "account",
          "type": "address"
        }
      ],
      "name": "borrowBalanceCurrent",
      "outputs": [
        {
          "internalType": "uint256",
          "name": "",
          "type": "uint256"
        }
      ],
      "stateMutability": "nonpayable",
      "type": "function"
    },
    {
      "inputs": [
        {
          "internalType": "address",
          "name": "account",
          "type": "address"
        }
      ],
      "name": "borrowBalanceStored",
      "outputs": [
        {
          "internalType": "uint256",
          "name": "",
          "type": "uint256"
        }
      ],
      "stateMutability": "view",
      "type": "function",
      "constant": true
    },
    {
      "inputs": [],
      "name": "borrowIndex",
      "outputs": [
        {
          "internalType": "uint256",
          "name": "",
          "type": "uint256"
        }
      ],
      "stateMutability": "view",
      "type": "function",
      "constant": true
    },
    {
      "inputs": [],
      "name": "borrowRatePerBlock",
      "outputs": [
        {
          "internalType": "uint256",
          "name": "",
          "type": "uint256"
        }
      ],
      "stateMutability": "view",
      "type": "function",
      "constant": true
    },
    {
      "inputs": [],
      "name": "exchangeRateCurrent",
      "outputs": [
        {
          "internalType": "uint256",
          "name": "",
          "type": "uint256"
        }
      ],
      "stateMutability": "nonpayable",
      "type": "function"
    },
    {
      "inputs": [],
      "name": "exchangeRateStored",
      "outputs": [
        {
          "internalType": "uint256",
          "name": "",
          "type": "uint256"
        }
      ],
      "stateMutability": "view",
      "type": "function",
      "constant": true
    },
    {
      "inputs": [
        {
          "internalType": "address",
          "name": "account",
          "type": "address"
        }
      ],
      "name": "getAccountSnapshot",
      "outputs": [
        {
          "internalType": "uint256",
          "name": "",
          "type": "uint256"
        },
        {
          "internalType": "uint256",
          "name": "",
          "type": "uint256"
        },
        {
          "internalType": "uint256",
          "name": "",
          "type": "uint256"
        },
        {
          "internalType": "uint256",
          "name": "",
          "type": "uint256"
        }
      ],
      "stateMutability": "view",
      "type": "function",
      "constant": true
    },
    {
      "inputs": [],
      "name": "getCash",
      "outputs": [
        {
          "internalType": "uint256",
          "name": "",
          "type": "uint256"
        }
      ],
      "stateMutability": "view",
      "type": "function",
      "constant": true
    },
    {
      "inputs": [
        {
          "internalType": "contract IRiskManager",
          "name": "riskManager_",
          "type": "address"
        },
        {
          "internalType": "contract InterestRateModel",
          "name": "interestRateModel_",
          "type": "address"
        },
        {
          "internalType": "uint256",
          "name": "initialExchangeRateMantissa_",
          "type": "uint256"
        }
      ],
      "name": "initialize",
      "outputs": [],
      "stateMutability": "nonpayable",
      "type": "function"
    },
    {
      "inputs": [],
      "name": "interestRateModel",
      "outputs": [
        {
          "internalType": "contract InterestRateModel",
          "name": "",
          "type": "address"
        }
      ],
      "stateMutability": "view",
      "type": "function",
      "constant": true
    },
    {
      "inputs": [],
      "name": "isPToken",
      "outputs": [
        {
          "internalType": "bool",
          "name": "",
          "type": "bool"
        }
      ],
      "stateMutability": "view",
      "type": "function",
      "constant": true
    },
    {
      "inputs": [],
      "name": "pendingAdmin",
      "outputs": [
        {
          "internalType": "address payable",
          "name": "",
          "type": "address"
        }
      ],
      "stateMutability": "view",
      "type": "function",
      "constant": true
    },
    {
      "inputs": [],
      "name": "reserveFactorMantissa",
      "outputs": [
        {
          "internalType": "uint256",
          "name": "",
          "type": "uint256"
        }
      ],
      "stateMutability": "view",
      "type": "function",
      "constant": true
    },
    {
      "inputs": [],
      "name": "riskManager",
      "outputs": [
        {
          "internalType": "contract IRiskManager",
          "name": "",
          "type": "address"
        }
      ],
      "stateMutability": "view",
      "type": "function",
      "constant": true
    },
    {
      "inputs": [
        {
          "internalType": "address",
          "name": "liquidator",
          "type": "address"
        },
        {
          "internalType": "address",
          "name": "borrower",
          "type": "address"
        },
        {
          "internalType": "uint256",
          "name": "seizeTokens",
          "type": "uint256"
        }
      ],
      "name": "seize",
      "outputs": [
        {
          "internalType": "uint256",
          "name": "",
          "type": "uint256"
        }
      ],
      "stateMutability": "nonpayable",
      "type": "function"
    },
    {
      "inputs": [],
      "name": "supplyRatePerBlock",
      "outputs": [
        {
          "internalType": "uint256",
          "name": "",
          "type": "uint256"
        }
      ],
      "stateMutability": "view",
      "type": "function",
      "constant": true
    },
    {
      "inputs": [],
      "name": "totalBorrows",
      "outputs": [
        {
          "internalType": "uint256",
          "name": "",
          "type": "uint256"
        }
      ],
      "stateMutability": "view",
      "type": "function",
      "constant": true
    },
    {
      "inputs": [],
      "name": "totalBorrowsCurrent",
      "outputs": [
        {
          "internalType": "uint256",
          "name": "",
          "type": "uint256"
        }
      ],
      "stateMutability": "nonpayable",
      "type": "function"
    },
    {
      "inputs": [],
      "name": "totalReserves",
      "outputs": [
        {
          "internalType": "uint256",
          "name": "",
          "type": "uint256"
        }
      ],
      "stateMutability": "view",
      "type": "function",
      "constant": true
    },
    {
      "inputs": [],
      "name": "totalSupply",
      "outputs": [
        {
          "internalType": "uint256",
          "name": "",
          "type": "uint256"
        }
      ],
      "stateMutability": "view",
      "type": "function",
      "constant": true
    },
    {
      "stateMutability": "payable",
      "type": "receive",
      "payable": true
    },
    {
      "inputs": [],
      "name": "mint",
      "outputs": [],
      "stateMutability": "payable",
      "type": "function",
      "payable": true
    },
    {
      "inputs": [
        {
          "internalType": "uint256",
          "name": "redeemTokens",
          "type": "uint256"
        }
      ],
      "name": "redeem",
      "outputs": [
        {
          "internalType": "uint256",
          "name": "",
          "type": "uint256"
        }
      ],
      "stateMutability": "payable",
      "type": "function",
      "payable": true
    },
    {
      "inputs": [
        {
          "internalType": "uint256",
          "name": "redeemAmount",
          "type": "uint256"
        }
      ],
      "name": "redeemUnderlying",
      "outputs": [
        {
          "internalType": "uint256",
          "name": "",
          "type": "uint256"
        }
      ],
      "stateMutability": "payable",
      "type": "function",
      "payable": true
    },
    {
      "inputs": [
        {
          "internalType": "uint256",
          "name": "borrowAmount",
          "type": "uint256"
        }
      ],
      "name": "borrow",
      "outputs": [
        {
          "internalType": "uint256",
          "name": "",
          "type": "uint256"
        }
      ],
      "stateMutability": "payable",
      "type": "function",
      "payable": true
    },
    {
      "inputs": [],
      "name": "repayBorrow",
      "outputs": [],
      "stateMutability": "payable",
      "type": "function",
      "payable": true
    },
    {
      "inputs": [
        {
          "internalType": "address",
          "name": "borrower",
          "type": "address"
        }
      ],
      "name": "repayBorrowBehalf",
      "outputs": [],
      "stateMutability": "payable",
      "type": "function",
      "payable": true
    },
    {
      "inputs": [
        {
          "internalType": "address",
          "name": "borrower",
          "type": "address"
        },
        {
          "internalType": "contract PToken",
          "name": "pTokenCollateral",
          "type": "address"
        }
      ],
      "name": "liquidateBorrow",
      "outputs": [],
      "stateMutability": "payable",
      "type": "function",
      "payable": true
    },
    {
      "inputs": [
        {
          "internalType": "uint256",
          "name": "addAmount",
          "type": "uint256"
        }
      ],
      "name": "_addReserves",
      "outputs": [
        {
          "internalType": "uint256",
          "name": "",
          "type": "uint256"
        }
      ],
      "stateMutability": "payable",
      "type": "function",
      "payable": true
    },
    {
      "inputs": [],
      "name": "isNativeToken",
      "outputs": [
        {
          "internalType": "bool",
          "name": "",
          "type": "bool"
        }
      ],
      "stateMutability": "pure",
      "type": "function",
      "constant": true
    }
  ],
  "bytecode": "0x60806040526702c68af0bb1400006005553480156200001d57600080fd5b5060405162004d2638038062004d26833981810160405260808110156200004357600080fd5b5080516020820151604083015160609093015160008054610100600160a81b0319163361010002179055919290916200007e848484620000ae565b600080546001600160a01b0390921661010002610100600160a81b03199092169190911790555062000605915050565b60005461010090046001600160a01b03163314620000fe5760405162461bcd60e51b815260040180806020018281038252602481526020018062004c8d6024913960400191505060405180910390fd5b6006541580156200010f5750600754155b6200014c5760405162461bcd60e51b815260040180806020018281038252602381526020018062004cb16023913960400191505060405180910390fd5b6004819055806200018f5760405162461bcd60e51b815260040180806020018281038252603081526020018062004cd46030913960400191505060405180910390fd5b6000620001a5846001600160e01b036200028516565b90508015620001fb576040805162461bcd60e51b815260206004820152601a60248201527f73657474696e67207269736b4d616e61676572206661696c6564000000000000604482015290519081900360640190fd5b6200020e6001600160e01b03620003ed16565b600655670de0b6b3a764000060075562000231836001600160e01b03620003f116565b90508015620002725760405162461bcd60e51b815260040180806020018281038252602281526020018062004d046022913960400191505060405180910390fd5b50506000805460ff191660011790555050565b6000805461010090046001600160a01b03163314620002bd57620002b56001603f6001600160e01b036200059516565b9050620003e8565b600254604080516354cb73dd60e11b815290516001600160a01b039283169285169163a996e7ba916004808301926020929190829003018186803b1580156200030557600080fd5b505afa1580156200031a573d6000803e3d6000fd5b505050506040513d60208110156200033157600080fd5b505162000385576040805162461bcd60e51b815260206004820152601c60248201527f6d61726b6572206d6574686f642072657475726e65642066616c736500000000604482015290519081900360640190fd5b600280546001600160a01b0319166001600160a01b03858116918217909255604080519284168352602083019190915280517f91249b936729aec99d65d412fab6e6488ab0eb306623fa400ad5397449ff362b9281900390910190a160005b9150505b919050565b4390565b60008054819061010090046001600160a01b031633146200042c5762000423600160426001600160e01b036200059516565b915050620003e8565b6200043f6001600160e01b03620003ed16565b600654146200045f5762000423600a60416001600160e01b036200059516565b600360009054906101000a90046001600160a01b03169050826001600160a01b0316632191f92a6040518163ffffffff1660e01b815260040160206040518083038186803b158015620004b157600080fd5b505afa158015620004c6573d6000803e3d6000fd5b505050506040513d6020811015620004dd57600080fd5b505162000531576040805162461bcd60e51b815260206004820152601c60248201527f6d61726b6572206d6574686f642072657475726e65642066616c736500000000604482015290519081900360640190fd5b600380546001600160a01b0319166001600160a01b03858116918217909255604080519284168352602083019190915280517fedffc32e068c7c95dfd4bdfd5c4d939a084d6b11c4199eac8436ed234d72f9269281900390910190a16000620003e4565b60007f45b96fe442630264581b197e84bbada861235052c5a1aadfff9ea4e40a969aa0836010811115620005c557fe5b836050811115620005d257fe5b604080519283526020830191909152600082820152519081900360600190a1826010811115620005fe57fe5b9392505050565b61467880620006156000396000f3fe60806040526004361061023f5760003560e01c80638f840ddd1161012e578063c37f68e2116100ab578063f2b3abbd1161006f578063f2b3abbd1461074c578063f3fdb15a1461077f578063f851a44014610794578063f8f9da28146107a9578063fca7820b146107be5761028b565b8063c37f68e21461067e578063c5ebeaec146106d7578063db006a75146106f4578063e597461914610711578063e9c714f2146107375761028b565b8063aae40a2a116100f2578063aae40a2a146105b0578063ae9d70b0146105de578063b2a02ff1146105f3578063b71d1a0c14610636578063bd6d894d146106695761028b565b80638f840ddd1461052957806395dd91931461053e5780639af4ee7e14610571578063a6afed9514610586578063aa5af0fd1461059b5761028b565b80633e941010116101bc578063601a0bf111610180578063601a0bf1146104855780636c540baf146104af57806370a08231146104c457806373acee98146104f7578063852a12e31461050c5761028b565b80633e9410101461040d578063478426631461042a57806347bd37181461043f5780634e4d9fea146104545780635a890c0e1461045c5761028b565b806318160ddd1161020357806318160ddd1461036a578063182df0f51461037f57806326782247146103945780633af9e669146103c55780633b1d21a2146103f85761028b565b80630dd16bed146102905780631249c58b146102d5578063173b9904146102df5780631794bb3c146102f457806317bfdfbc146103375761028b565b3661028b5761024d346107e8565b6000610258346107ed565b509050610288816040518060400160405280600b81526020016a1b5a5b9d0819985a5b195960aa1b815250610895565b50005b600080fd5b34801561029c57600080fd5b506102c3600480360360208110156102b357600080fd5b50356001600160a01b0316610aac565b60408051918252519081900360200190f35b6102dd610c03565b005b3480156102eb57600080fd5b506102c3610c4a565b34801561030057600080fd5b506102dd6004803603606081101561031757600080fd5b506001600160a01b03813581169160208101359091169060400135610c50565b34801561034357600080fd5b506102c36004803603602081101561035a57600080fd5b50356001600160a01b0316610dfc565b34801561037657600080fd5b506102c3610ebc565b34801561038b57600080fd5b506102c3610ec2565b3480156103a057600080fd5b506103a9610f25565b604080516001600160a01b039092168252519081900360200190f35b3480156103d157600080fd5b506102c3600480360360208110156103e857600080fd5b50356001600160a01b0316610f34565b34801561040457600080fd5b506102c3610fea565b6102c36004803603602081101561042357600080fd5b5035610ff9565b34801561043657600080fd5b506103a9611013565b34801561044b57600080fd5b506102c3611022565b6102dd611028565b34801561046857600080fd5b50610471611073565b604080519115158252519081900360200190f35b34801561049157600080fd5b506102c3600480360360208110156104a857600080fd5b5035611078565b3480156104bb57600080fd5b506102c3611113565b3480156104d057600080fd5b506102c3600480360360208110156104e757600080fd5b50356001600160a01b0316611119565b34801561050357600080fd5b506102c3611134565b6102c36004803603602081101561052257600080fd5b50356111ea565b34801561053557600080fd5b506102c3611207565b34801561054a57600080fd5b506102c36004803603602081101561056157600080fd5b50356001600160a01b031661120d565b34801561057d57600080fd5b5061047161126a565b34801561059257600080fd5b506102c361126f565b3480156105a757600080fd5b506102c36115c7565b6102dd600480360360408110156105c657600080fd5b506001600160a01b03813581169160200135166115cd565b3480156105ea57600080fd5b506102c36117a0565b3480156105ff57600080fd5b506102c36004803603606081101561061657600080fd5b506001600160a01b0381358116916020810135909116906040013561183f565b34801561064257600080fd5b506102c36004803603602081101561065957600080fd5b50356001600160a01b03166118b0565b34801561067557600080fd5b506102c361193a565b34801561068a57600080fd5b506106b1600480360360208110156106a157600080fd5b50356001600160a01b03166119f6565b604080519485526020850193909352838301919091526060830152519081900360800190f35b6102c3600480360360208110156106ed57600080fd5b5035611a8b565b6102c36004803603602081101561070a57600080fd5b5035611aa8565b6102dd6004803603602081101561072757600080fd5b50356001600160a01b0316611ac5565b34801561074357600080fd5b506102c3611b1c565b34801561075857600080fd5b506102c36004803603602081101561076f57600080fd5b50356001600160a01b0316611c20565b34801561078b57600080fd5b506103a9611c5a565b3480156107a057600080fd5b506103a9611c69565b3480156107b557600080fd5b506102c3611c7d565b3480156107ca57600080fd5b506102c3600480360360208110156107e157600080fd5b5035611ce1565b600d55565b60008054819060ff16610834576040805162461bcd60e51b815260206004820152600a6024820152691c994b595b9d195c995960b21b604482015290519081900360640190fd5b6000805460ff1916815561084661126f565b905080156108715761086481601081111561085d57fe5b601e611d5f565b9250600091506108819050565b61087b3385611dcc565b92509250505b6000805460ff191660011790559092909150565b8161089f57610aa8565b6060815160050167ffffffffffffffff811180156108bc57600080fd5b506040519080825280601f01601f1916602001820160405280156108e7576020820181803683370190505b50905060005b82518110156109385782818151811061090257fe5b602001015160f81c60f81b82828151811061091957fe5b60200101906001600160f81b031916908160001a9053506001016108ed565b8151600160fd1b9083908390811061094c57fe5b60200101906001600160f81b031916908160001a905350602860f81b82826001018151811061097757fe5b60200101906001600160f81b031916908160001a905350600a840460300160f81b8282600201815181106109a757fe5b60200101906001600160f81b031916908160001a905350600a840660300160f81b8282600301815181106109d757fe5b60200101906001600160f81b031916908160001a905350602960f81b828260040181518110610a0257fe5b60200101906001600160f81b031916908160001a905350818415610aa45760405162461bcd60e51b81526004018080602001828103825283818151815260200191508051906020019080838360005b83811015610a69578181015183820152602001610a51565b50505050905090810190601f168015610a965780820380516001836020036101000a031916815260200191505b509250505060405180910390fd5b5050505b5050565b6000805461010090046001600160a01b03163314610ad757610ad06001603f611d5f565b9050610bfe565b600254604080516354cb73dd60e11b815290516001600160a01b039283169285169163a996e7ba916004808301926020929190829003018186803b158015610b1e57600080fd5b505afa158015610b32573d6000803e3d6000fd5b505050506040513d6020811015610b4857600080fd5b5051610b9b576040805162461bcd60e51b815260206004820152601c60248201527f6d61726b6572206d6574686f642072657475726e65642066616c736500000000604482015290519081900360640190fd5b600280546001600160a01b0319166001600160a01b03858116918217909255604080519284168352602083019190915280517f91249b936729aec99d65d412fab6e6488ab0eb306623fa400ad5397449ff362b9281900390910190a160005b9150505b919050565b610c0c346107e8565b6000610c17346107ed565b509050610c47816040518060400160405280600b81526020016a1b5a5b9d0819985a5b195960aa1b815250610895565b50565b60055481565b60005461010090046001600160a01b03163314610c9e5760405162461bcd60e51b81526004018080602001828103825260248152602001806143a36024913960400191505060405180910390fd5b600654158015610cae5750600754155b610ce95760405162461bcd60e51b81526004018080602001828103825260238152602001806143c76023913960400191505060405180910390fd5b600481905580610d2a5760405162461bcd60e51b815260040180806020018281038252603081526020018061440e6030913960400191505060405180910390fd5b6000610d3584610aac565b90508015610d8a576040805162461bcd60e51b815260206004820152601a60248201527f73657474696e67207269736b4d616e61676572206661696c6564000000000000604482015290519081900360640190fd5b610d926121b0565b600655670de0b6b3a7640000600755610daa836121b4565b90508015610de95760405162461bcd60e51b815260040180806020018281038252602281526020018061443e6022913960400191505060405180910390fd5b50506000805460ff191660011790555050565b6000805460ff16610e41576040805162461bcd60e51b815260206004820152600a6024820152691c994b595b9d195c995960b21b604482015290519081900360640190fd5b6000805460ff19168155610e5361126f565b14610e9e576040805162461bcd60e51b81526020600482015260166024820152751858d8dc9d59481a5b9d195c995cdd0819985a5b195960521b604482015290519081900360640190fd5b610ea78261120d565b90505b6000805460ff19166001179055919050565b600a5481565b6000806000610ecf612327565b90925090506000826003811115610ee257fe5b14610f1e5760405162461bcd60e51b81526004018080602001828103825260358152602001806145606035913960400191505060405180910390fd5b9150505b90565b6001546001600160a01b031681565b6000610f3e6142e2565b6040518060200160405280610f5161193a565b90526001600160a01b0384166000908152600b6020526040812054919250908190610f7d9084906123d6565b90925090506000826003811115610f9057fe5b14610fe2576040805162461bcd60e51b815260206004820152601f60248201527f62616c616e636520636f756c64206e6f742062652063616c63756c6174656400604482015290519081900360640190fd5b949350505050565b6000610ff4612429565b905090565b6000611004346107e8565b61100d82612461565b92915050565b6002546001600160a01b031681565b60085481565b611031346107e8565b600061103c346124f5565b509050610c4781604051806040016040528060128152602001711c995c185e509bdc9c9bddc819985a5b195960721b815250610895565b600181565b6000805460ff166110bd576040805162461bcd60e51b815260206004820152600a6024820152691c994b595b9d195c995960b21b604482015290519081900360640190fd5b6000805460ff191681556110cf61126f565b905080156110f5576110ed8160108111156110e657fe5b6030611d5f565b915050610eaa565b6110fe83612577565b9150506000805460ff19166001179055919050565b60065481565b6001600160a01b03166000908152600b602052604090205490565b6000805460ff16611179576040805162461bcd60e51b815260206004820152600a6024820152691c994b595b9d195c995960b21b604482015290519081900360640190fd5b6000805460ff1916815561118b61126f565b146111d6576040805162461bcd60e51b81526020600482015260166024820152751858d8dc9d59481a5b9d195c995cdd0819985a5b195960521b604482015290519081900360640190fd5b506008546000805460ff1916600117905590565b60006111f660006107e8565b6111fe6126a8565b61100d82612809565b60095481565b600080600061121b8461288a565b9092509050600082600381111561122e57fe5b14610bfa5760405162461bcd60e51b81526004018080602001828103825260378152602001806144be6037913960400191505060405180910390fd5b600190565b60008061127a6121b0565b6006549091508082141561129357600092505050610f22565b600061129d612429565b600854600954600754600354604080516315f2405360e01b815260048101879052602481018690526044810185905290519596509394929391926000926001600160a01b03909216916315f24053916064808301926020929190829003018186803b15801561130b57600080fd5b505afa15801561131f573d6000803e3d6000fd5b505050506040513d602081101561133557600080fd5b5051905065048c27395000811115611394576040805162461bcd60e51b815260206004820152601c60248201527f626f72726f772072617465206973206162737572646c79206869676800000000604482015290519081900360640190fd5b6000806113a1898961293e565b909250905060008260038111156113b457fe5b14611406576040805162461bcd60e51b815260206004820152601f60248201527f636f756c64206e6f742063616c63756c61746520626c6f636b2064656c746100604482015290519081900360640190fd5b61140e6142e2565b60008060008061142c60405180602001604052808a81525087612961565b9097509450600087600381111561143f57fe5b146114715761145c6009600689600381111561145757fe5b6129c9565b9e505050505050505050505050505050610f22565b61147b858c6123d6565b9097509350600087600381111561148e57fe5b146114a65761145c6009600189600381111561145757fe5b6114b0848c612a2f565b909750925060008760038111156114c357fe5b146114db5761145c6009600489600381111561145757fe5b6114f66040518060200160405280600554815250858c612a55565b9097509150600087600381111561150957fe5b146115215761145c6009600589600381111561145757fe5b61152c858a8b612a55565b9097509050600087600381111561153f57fe5b146115575761145c6009600389600381111561145757fe5b60068e9055600781905560088390556009829055604080518d8152602081018690528082018390526060810185905290517f4dec04e750ca11537cabcd8a9eab06494de08da3735bc8871cd41250e190bc049181900360800190a160009e50505050505050505050505050505090565b60075481565b60025460408051637533ed9160e11b815233600482015290516000926001600160a01b03169163ea67db22916024808301926020929190829003018186803b15801561161857600080fd5b505afa15801561162c573d6000803e3d6000fd5b505050506040513d602081101561164257600080fd5b50519050348111156116855760405162461bcd60e51b81526004018080602001828103825260248152602001806143ea6024913960400191505060405180910390fd5b600080611692348461293e565b909250905060008260038111156116a557fe5b146116e15760405162461bcd60e51b815260040180806020018281038252602e8152602001806145bd602e913960400191505060405180910390fd5b60025460408051632174661560e01b815233600482015290516001600160a01b03909216916321746615918691602480830192600092919082900301818588803b15801561172e57600080fd5b505af1158015611742573d6000803e3d6000fd5b5050505050611750816107e8565b600061175d868387612ab1565b50905061179881604051806040016040528060168152602001751b1a5c5d5a59185d19509bdc9c9bddc819985a5b195960521b815250610895565b505050505050565b6003546000906001600160a01b031663b81688166117bc612429565b6008546009546005546040518563ffffffff1660e01b81526004018085815260200184815260200183815260200182815260200194505050505060206040518083038186803b15801561180e57600080fd5b505afa158015611822573d6000803e3d6000fd5b505050506040513d602081101561183857600080fd5b5051905090565b6000805460ff16611884576040805162461bcd60e51b815260206004820152600a6024820152691c994b595b9d195c995960b21b604482015290519081900360640190fd5b6000805460ff1916905561189a33858585612be3565b90506000805460ff191660011790559392505050565b6000805461010090046001600160a01b031633146118d457610ad060016045611d5f565b600180546001600160a01b038481166001600160a01b0319831681179093556040805191909216808252602082019390935281517fca4f2f25d0898edd99413412fb94012f9e54ec8142f9b093e7720646a95b16a9929181900390910190a16000610bfa565b6000805460ff1661197f576040805162461bcd60e51b815260206004820152600a6024820152691c994b595b9d195c995960b21b604482015290519081900360640190fd5b6000805460ff1916815561199161126f565b146119dc576040805162461bcd60e51b81526020600482015260166024820152751858d8dc9d59481a5b9d195c995cdd0819985a5b195960521b604482015290519081900360640190fd5b6119e4610ec2565b90506000805460ff1916600117905590565b6001600160a01b0381166000908152600b6020526040812054819081908190818080611a218961288a565b935090506000816003811115611a3357fe5b14611a515760095b975060009650869550859450611a849350505050565b611a59612327565b925090506000816003811115611a6b57fe5b14611a77576009611a3b565b5060009650919450925090505b9193509193565b6000611a9760006107e8565b611a9f6126a8565b61100d82612dd9565b6000611ab460006107e8565b611abc6126a8565b61100d82612e58565b611ace346107e8565b6000611ada8234612ed2565b509050610aa8816040518060400160405280601881526020017f7265706179426f72726f77426568616c66206661696c65640000000000000000815250610895565b6001546000906001600160a01b031633141580611b37575033155b15611b4f57611b4860016000611d5f565b9050610f22565b60008054600180546001600160a01b03818116610100818102610100600160a81b0319871617968790556001600160a01b031990931690935560408051948390048216808652929095041660208401528351909391927ff9ffabca9c8276e99321725bcb43fb076a6c66a54b7f21c4e8146d8519b417dc92908290030190a1600154604080516001600160a01b038085168252909216602083015280517fca4f2f25d0898edd99413412fb94012f9e54ec8142f9b093e7720646a95b16a99281900390910190a160005b9250505090565b600080611c2b61126f565b90508015611c5157611c49816010811115611c4257fe5b6040611d5f565b915050610bfe565b610bfa836121b4565b6003546001600160a01b031681565b60005461010090046001600160a01b031681565b6003546000906001600160a01b03166315f24053611c99612429565b6008546009546040518463ffffffff1660e01b815260040180848152602001838152602001828152602001935050505060206040518083038186803b15801561180e57600080fd5b6000805460ff16611d26576040805162461bcd60e51b815260206004820152600a6024820152691c994b595b9d195c995960b21b604482015290519081900360640190fd5b6000805460ff19168155611d3861126f565b90508015611d56576110ed816010811115611d4f57fe5b6046611d5f565b6110fe83612f7d565b60007f45b96fe442630264581b197e84bbada861235052c5a1aadfff9ea4e40a969aa0836010811115611d8e57fe5b836050811115611d9a57fe5b604080519283526020830191909152600082820152519081900360600190a1826010811115611dc557fe5b9392505050565b60025460408051634ef4c3e160e01b81523060048201526001600160a01b03858116602483015260448201859052915160009384938493911691634ef4c3e19160648082019260209290919082900301818787803b158015611e2d57600080fd5b505af1158015611e41573d6000803e3d6000fd5b505050506040513d6020811015611e5757600080fd5b505190508015611e7b57611e6e6003601f836129c9565b9250600091506121a99050565b611e836121b0565b60065414611e9757611e6e600a6022611d5f565b611e9f6142f5565b611ea7612327565b6040830181905260208301826003811115611ebe57fe5b6003811115611ec957fe5b9052506000905081602001516003811115611ee057fe5b14611f0a57611efc600960218360200151600381111561145757fe5b9350600092506121a9915050565b611f148686613023565b60c0820181905260408051602081018252908301518152611f3591906130c0565b6060830181905260208301826003811115611f4c57fe5b6003811115611f5757fe5b9052506000905081602001516003811115611f6e57fe5b14611fc0576040805162461bcd60e51b815260206004820181905260248201527f4d494e545f45584348414e47455f43414c43554c4154494f4e5f4641494c4544604482015290519081900360640190fd5b611fd0600a548260600151612a2f565b6080830181905260208301826003811115611fe757fe5b6003811115611ff257fe5b905250600090508160200151600381111561200957fe5b146120455760405162461bcd60e51b81526004018080602001828103825260288152602001806145956028913960400191505060405180910390fd5b6001600160a01b0386166000908152600b6020526040902054606082015161206d9190612a2f565b60a083018190526020830182600381111561208457fe5b600381111561208f57fe5b90525060009050816020015160038111156120a657fe5b146120e25760405162461bcd60e51b815260040180806020018281038252602b815260200180614493602b913960400191505060405180910390fd5b6080810151600a5560a08101516001600160a01b0387166000818152600b60209081526040918290209390935560c084015160608086015183519485529484019190915282820193909352517f4c209b5fc8ad50758f13e2e1088ba56a560dff690a1c6fef26394f4c03821c4f929181900390910190a1606081015160408051918252516001600160a01b0388169130917fddf252ad1be2c89b69c2b068fc378daa952ba7f163c4a11628f55a4df523b3ef9181900360200190a360c00151600093509150505b9250929050565b4390565b60008054819061010090046001600160a01b031633146121da57611c4960016042611d5f565b6121e26121b0565b600654146121f657611c49600a6041611d5f565b600360009054906101000a90046001600160a01b03169050826001600160a01b0316632191f92a6040518163ffffffff1660e01b815260040160206040518083038186803b15801561224757600080fd5b505afa15801561225b573d6000803e3d6000fd5b505050506040513d602081101561227157600080fd5b50516122c4576040805162461bcd60e51b815260206004820152601c60248201527f6d61726b6572206d6574686f642072657475726e65642066616c736500000000604482015290519081900360640190fd5b600380546001600160a01b0319166001600160a01b03858116918217909255604080519284168352602083019190915280517fedffc32e068c7c95dfd4bdfd5c4d939a084d6b11c4199eac8436ed234d72f9269281900390910190a16000610bfa565b600a54600090819080612342575050600454600091506123d2565b600061234c612429565b905060006123586142e2565b6000612369846008546009546130d7565b93509050600081600381111561237b57fe5b14612390579550600094506123d29350505050565b61239a8386613115565b9250905060008160038111156123ac57fe5b146123c1579550600094506123d29350505050565b50516000955093506123d292505050565b9091565b60008060006123e36142e2565b6123ed8686612961565b9092509050600082600381111561240057fe5b1461241157509150600090506121a9565b600061241c826131c6565b9350935050509250929050565b60008034156124375750600d545b600080612444478461293e565b9092509050600082600381111561245757fe5b14611c1957600080fd5b6000805460ff166124a6576040805162461bcd60e51b815260206004820152600a6024820152691c994b595b9d195c995960b21b604482015290519081900360640190fd5b6000805460ff191681556124b861126f565b905080156124d6576110ed8160108111156124cf57fe5b604e611d5f565b6124df836131d5565b509150506000805460ff19166001179055919050565b60008054819060ff1661253c576040805162461bcd60e51b815260206004820152600a6024820152691c994b595b9d195c995960b21b604482015290519081900360640190fd5b6000805460ff1916815561254e61126f565b9050801561256c5761086481601081111561256557fe5b6036611d5f565b61087b3333866132bd565b60008054819061010090046001600160a01b0316331461259d57611c4960016031611d5f565b6125a56121b0565b600654146125b957611c49600a6033611d5f565b826125c2612429565b10156125d457611c49600e6032611d5f565b6009548311156125ea57611c4960026034611d5f565b50600954828103908111156126305760405162461bcd60e51b815260040180806020018281038252602481526020018061461f6024913960400191505060405180910390fd5b60098190556000546126509061010090046001600160a01b03168461360b565b600054604080516101009092046001600160a01b0316825260208201859052818101839052517f3bad0c59cf2f06e7314077049f48a93578cd16f5ef92329f1dab1420a99c177e916060908290030190a16000610bfa565b60025460408051637533ed9160e11b815233600482015290516000926001600160a01b03169163ea67db22916024808301926020929190829003018186803b1580156126f357600080fd5b505afa158015612707573d6000803e3d6000fd5b505050506040513d602081101561271d57600080fd5b50519050348111156127605760405162461bcd60e51b81526004018080602001828103825260248152602001806143ea6024913960400191505060405180910390fd5b803411156127a8576000612774348361293e565b60405190925033915082156108fc029083906000818181858888f193505050501580156127a5573d6000803e3d6000fd5b50505b60025460408051632174661560e01b815233600482015290516001600160a01b03909216916321746615918491602480830192600092919082900301818588803b1580156127f557600080fd5b505af1158015611798573d6000803e3d6000fd5b6000805460ff1661284e576040805162461bcd60e51b815260206004820152600a6024820152691c994b595b9d195c995960b21b604482015290519081900360640190fd5b6000805460ff1916815561286061126f565b9050801561287e576110ed81601081111561287757fe5b6027611d5f565b6110fe33600085613646565b6001600160a01b0381166000908152600c60205260408120805482918291829182916128c157506000945084935061293992505050565b6128d18160000154600754613a93565b909450925060008460038111156128e457fe5b146128f9575091935060009250612939915050565b612907838260010154613ad2565b9094509150600084600381111561291a57fe5b1461292f575091935060009250612939915050565b5060009450925050505b915091565b6000808383116129555750600090508183036121a9565b506003905060006121a9565b600061296b6142e2565b60008061297c866000015186613a93565b9092509050600082600381111561298f57fe5b146129ae575060408051602081019091526000815290925090506121a9565b60408051602081019091529081526000969095509350505050565b60007f45b96fe442630264581b197e84bbada861235052c5a1aadfff9ea4e40a969aa08460108111156129f857fe5b846050811115612a0457fe5b604080519283526020830191909152818101859052519081900360600190a1836010811115610fe257fe5b600080838301848110612a47576000925090506121a9565b5060029150600090506121a9565b6000806000612a626142e2565b612a6c8787612961565b90925090506000826003811115612a7f57fe5b14612a905750915060009050612aa9565b612aa2612a9c826131c6565b86612a2f565b9350935050505b935093915050565b60008054819060ff16612af8576040805162461bcd60e51b815260206004820152600a6024820152691c994b595b9d195c995960b21b604482015290519081900360640190fd5b6000805460ff19168155612b0a61126f565b90508015612b3557612b28816010811115612b2157fe5b600f611d5f565b925060009150612bcc9050565b836001600160a01b031663a6afed956040518163ffffffff1660e01b8152600401602060405180830381600087803b158015612b7057600080fd5b505af1158015612b84573d6000803e3d6000fd5b505050506040513d6020811015612b9a57600080fd5b505190508015612bba57612b28816010811115612bb357fe5b6010611d5f565b612bc633878787613afd565b92509250505b6000805460ff191660011790559094909350915050565b6002546040805163d02f735160e01b81523060048201526001600160a01b038781166024830152868116604483015285811660648301526084820185905291516000938493169163d02f73519160a480830192602092919082900301818787803b158015612c5057600080fd5b505af1158015612c64573d6000803e3d6000fd5b505050506040513d6020811015612c7a57600080fd5b505190508015612c9957612c916003601b836129c9565b915050610fe2565b846001600160a01b0316846001600160a01b03161415612cbf57612c916006601c611d5f565b6001600160a01b0384166000908152600b602052604081205481908190612ce6908761293e565b90935091506000836003811115612cf957fe5b14612d1c57612d116009601a85600381111561145757fe5b945050505050610fe2565b6001600160a01b0388166000908152600b6020526040902054612d3f9087612a2f565b90935090506000836003811115612d5257fe5b14612d6a57612d116009601985600381111561145757fe5b6001600160a01b038088166000818152600b60209081526040808320879055938c168083529184902085905583518a8152935191937fddf252ad1be2c89b69c2b068fc378daa952ba7f163c4a11628f55a4df523b3ef929081900390910190a350600098975050505050505050565b6000805460ff16612e1e576040805162461bcd60e51b815260206004820152600a6024820152691c994b595b9d195c995960b21b604482015290519081900360640190fd5b6000805460ff19168155612e3061126f565b90508015612e4e576110ed816010811115612e4757fe5b6008611d5f565b6110fe3384613fef565b6000805460ff16612e9d576040805162461bcd60e51b815260206004820152600a6024820152691c994b595b9d195c995960b21b604482015290519081900360640190fd5b6000805460ff19168155612eaf61126f565b90508015612ec6576110ed81601081111561287757fe5b6110fe33846000613646565b60008054819060ff16612f19576040805162461bcd60e51b815260206004820152600a6024820152691c994b595b9d195c995960b21b604482015290519081900360640190fd5b6000805460ff19168155612f2b61126f565b90508015612f5657612f49816010811115612f4257fe5b6035611d5f565b925060009150612f679050565b612f613386866132bd565b92509250505b6000805460ff1916600117905590939092509050565b6000805461010090046001600160a01b03163314612fa157610ad060016047611d5f565b612fa96121b0565b60065414612fbd57610ad0600a6048611d5f565b670de0b6b3a7640000821115612fd957610ad060026049611d5f565b6005805490839055604080518281526020810185905281517faaa68312e2ea9d50e16af5068410ab56e1a1fd06037b1a35664812c30f821460929181900390910190a16000610bfa565b6000336001600160a01b03841614613074576040805162461bcd60e51b815260206004820152600f60248201526e0e6cadcc8cae440dad2e6dac2e8c6d608b1b604482015290519081900360640190fd5b813410156130ba576040805162461bcd60e51b815260206004820152600e60248201526d0ecc2d8eaca40dad2e6dac2e8c6d60931b604482015290519081900360640190fd5b50919050565b60008060006130cd6142e2565b6123ed8686614283565b6000806000806130e78787612a2f565b909250905060008260038111156130fa57fe5b1461310b5750915060009050612aa9565b612aa2818661293e565b600061311f6142e2565b60008061313486670de0b6b3a7640000613a93565b9092509050600082600381111561314757fe5b14613166575060408051602081019091526000815290925090506121a9565b6000806131738388613ad2565b9092509050600082600381111561318657fe5b146131a957816040518060200160405280600081525095509550505050506121a9565b604080516020810190915290815260009890975095505050505050565b51670de0b6b3a7640000900490565b6000806000806131e36121b0565b60065414613202576131f7600a604f611d5f565b935091506129399050565b61320c3386613023565b90508060095401915060095482101561326c576040805162461bcd60e51b815260206004820181905260248201527f61646420726573657276657320756e6578706563746564206f766572666c6f77604482015290519081900360640190fd5b6009829055604080513381526020810183905280820184905290517fa91e67c5ea634cd43a12c5a482724b03de01e85ca68702a53d0c2f45cb7c1dc59181900360600190a160009350915050915091565b60025460408051631200453160e11b81523060048201526001600160a01b0386811660248301528581166044830152606482018590529151600093849384939116916324008a629160848082019260209290919082900301818787803b15801561332657600080fd5b505af115801561333a573d6000803e3d6000fd5b505050506040513d602081101561335057600080fd5b5051905080156133745761336760036038836129c9565b925060009150612aa99050565b61337c6121b0565b6006541461339057613367600a6039611d5f565b613398614333565b6001600160a01b0386166000908152600c602052604090206001015460608201526133c28661288a565b60808301819052602083018260038111156133d957fe5b60038111156133e457fe5b90525060009050816020015160038111156133fb57fe5b1461342557613417600960378360200151600381111561145757fe5b935060009250612aa9915050565b60001985141561343e5760808101516040820152613446565b604081018590525b613454878260400151613023565b60e0820181905260808201516134699161293e565b60a083018190526020830182600381111561348057fe5b600381111561348b57fe5b90525060009050816020015160038111156134a257fe5b146134de5760405162461bcd60e51b815260040180806020018281038252603a8152602001806144f5603a913960400191505060405180910390fd5b6134ee6008548260e0015161293e565b60c083018190526020830182600381111561350557fe5b600381111561351057fe5b905250600090508160200151600381111561352757fe5b146135635760405162461bcd60e51b815260040180806020018281038252603181526020018061452f6031913960400191505060405180910390fd5b60a080820180516001600160a01b03808a166000818152600c602090815260409182902094855560075460019095019490945560c0870151600881905560e088015195518251948f16855294840192909252828101949094526060820192909252608081019190915290517f1a2a22cb034d26d1854bdc6666a5b91fe25efbbb5dcad3b0355478d6f5c362a1929181900390910190a160e00151600097909650945050505050565b6040516001600160a01b0383169082156108fc029083906000818181858888f19350505050158015613641573d6000803e3d6000fd5b505050565b6000821580613653575081155b61368e5760405162461bcd60e51b81526004018080602001828103825260348152602001806145eb6034913960400191505060405180910390fd5b6136966142f5565b61369e612327565b60408301819052602083018260038111156136b557fe5b60038111156136c057fe5b90525060009050816020015160038111156136d757fe5b146136fb576136f36009602b8360200151600381111561145757fe5b915050611dc5565b831561377c57606081018490526040805160208101825290820151815261372290856123d6565b608083018190526020830182600381111561373957fe5b600381111561374457fe5b905250600090508160200151600381111561375b57fe5b14613777576136f3600960298360200151600381111561145757fe5b6137f5565b61379883604051806020016040528084604001518152506130c0565b60608301819052602083018260038111156137af57fe5b60038111156137ba57fe5b90525060009050816020015160038111156137d157fe5b146137ed576136f36009602a8360200151600381111561145757fe5b608081018390525b60025460608201516040805163eabe7d9160e01b81523060048201526001600160a01b03898116602483015260448201939093529051600093929092169163eabe7d919160648082019260209290919082900301818787803b15801561385a57600080fd5b505af115801561386e573d6000803e3d6000fd5b505050506040513d602081101561388457600080fd5b5051905080156138a45761389b60036028836129c9565b92505050611dc5565b6138ac6121b0565b600654146138c05761389b600a602c611d5f565b6138d0600a54836060015161293e565b60a08401819052602084018260038111156138e757fe5b60038111156138f257fe5b905250600090508260200151600381111561390957fe5b146139255761389b6009602e8460200151600381111561145757fe5b6001600160a01b0386166000908152600b6020526040902054606083015161394d919061293e565b60c084018190526020840182600381111561396457fe5b600381111561396f57fe5b905250600090508260200151600381111561398657fe5b146139a25761389b6009602d8460200151600381111561145757fe5b81608001516139af612429565b10156139c15761389b600e602f611d5f565b6139cf86836080015161360b565b60a0820151600a5560c08201516001600160a01b0387166000818152600b60209081526040918290209390935560608501518151908152905130937fddf252ad1be2c89b69c2b068fc378daa952ba7f163c4a11628f55a4df523b3ef928290030190a36080820151606080840151604080516001600160a01b038b168152602081019490945283810191909152517fe5b754fb1abb7f01b499791d0b820ae3b6af3424ac1c59768edb53f4ec31a9299281900390910190a160009695505050505050565b60008083613aa6575060009050806121a9565b83830283858281613ab357fe5b0414613ac7575060029150600090506121a9565b6000925090506121a9565b60008082613ae657506001905060006121a9565b6000838581613af157fe5b04915091509250929050565b60025460408051632fe3f38f60e11b81523060048201526001600160a01b0384811660248301528781166044830152868116606483015260848201869052915160009384938493911691635fc7e71e9160a48082019260209290919082900301818787803b158015613b6e57600080fd5b505af1158015613b82573d6000803e3d6000fd5b505050506040513d6020811015613b9857600080fd5b505190508015613bbc57613baf60036012836129c9565b925060009150613fe69050565b613bc46121b0565b60065414613bd857613baf600a6016611d5f565b613be06121b0565b846001600160a01b0316636c540baf6040518163ffffffff1660e01b815260040160206040518083038186803b158015613c1957600080fd5b505afa158015613c2d573d6000803e3d6000fd5b505050506040513d6020811015613c4357600080fd5b505114613c5657613baf600a6011611d5f565b866001600160a01b0316866001600160a01b03161415613c7c57613baf60066017611d5f565b84613c8d57613baf60076015611d5f565b600019851415613ca357613baf60076014611d5f565b600080613cb18989896132bd565b90925090508115613ce157613cd2826010811115613ccb57fe5b6018611d5f565b945060009350613fe692505050565b6002546040805163c488847b60e01b81523060048201526001600160a01b038981166024830152604482018590528251600094859492169263c488847b926064808301939192829003018186803b158015613d3b57600080fd5b505afa158015613d4f573d6000803e3d6000fd5b505050506040513d6040811015613d6557600080fd5b50805160209091015190925090508115613db05760405162461bcd60e51b81526004018080602001828103825260338152602001806144606033913960400191505060405180910390fd5b80886001600160a01b03166370a082318c6040518263ffffffff1660e01b815260040180826001600160a01b03166001600160a01b0316815260200191505060206040518083038186803b158015613e0757600080fd5b505afa158015613e1b573d6000803e3d6000fd5b505050506040513d6020811015613e3157600080fd5b50511015613e86576040805162461bcd60e51b815260206004820152601860248201527f4c49515549444154455f5345495a455f544f4f5f4d5543480000000000000000604482015290519081900360640190fd5b60006001600160a01b038916301415613eac57613ea5308d8d85612be3565b9050613f36565b6040805163b2a02ff160e01b81526001600160a01b038e811660048301528d81166024830152604482018590529151918b169163b2a02ff1916064808201926020929091908290030181600087803b158015613f0757600080fd5b505af1158015613f1b573d6000803e3d6000fd5b505050506040513d6020811015613f3157600080fd5b505190505b8015613f80576040805162461bcd60e51b81526020600482015260146024820152731d1bdad95b881cd95a5e9d5c994819985a5b195960621b604482015290519081900360640190fd5b604080516001600160a01b03808f168252808e1660208301528183018790528b1660608201526080810184905290517f298637f684da70674f26509b10f07ec2fbc77a335ab1e7d6215a4b2484d8bb529181900360a00190a16000975092955050505050505b94509492505050565b6002546040805163368f515360e21b81523060048201526001600160a01b0385811660248301526044820185905291516000938493169163da3d454c91606480830192602092919082900301818787803b15801561404c57600080fd5b505af1158015614060573d6000803e3d6000fd5b505050506040513d602081101561407657600080fd5b5051905080156140955761408d6003600e836129c9565b91505061100d565b61409d6121b0565b600654146140b05761408d600a80611d5f565b826140b9612429565b10156140cb5761408d600e6009611d5f565b6140d3614379565b6140dc8561288a565b60208301819052828260038111156140f057fe5b60038111156140fb57fe5b905250600090508151600381111561410f57fe5b146141345761412b600960078360000151600381111561145757fe5b9250505061100d565b614142816020015185612a2f565b604083018190528282600381111561415657fe5b600381111561416157fe5b905250600090508151600381111561417557fe5b146141915761412b6009600c8360000151600381111561145757fe5b61419d60085485612a2f565b60608301819052828260038111156141b157fe5b60038111156141bc57fe5b90525060009050815160038111156141d057fe5b146141ec5761412b6009600b8360000151600381111561145757fe5b6141f6858561360b565b604080820180516001600160a01b0388166000818152600c602090815290859020928355600754600190930192909255606080860151600881905593518551928352928201899052818501929092529081019190915290517f13ed6866d4e1ee6da46f845c46d7e54120883d75c5ea9a2dacc1c4ca8984ab809181900360800190a1600095945050505050565b600061428d6142e2565b6000806142a2670de0b6b3a764000087613a93565b909250905060008260038111156142b557fe5b146142d4575060408051602081019091526000815290925090506121a9565b61241c818660000151613115565b6040518060200160405280600081525090565b6040805160e0810190915280600081526020016000815260200160008152602001600081526020016000815260200160008152602001600081525090565b6040805161010081019091528060008152602001600081526020016000815260200160008152602001600081526020016000815260200160008152602001600081525090565b60408051608081019091528060008152602001600081526020016000815260200160008152509056fe6f6e6c792061646d696e206d617920696e697469616c697a6520746865206d61726b65746d61726b6574206d6179206f6e6c7920626520696e697469616c697a6564206f6e63654e6f20656e6f7567682076616c756520746f20706179207072696365206f7261636c652e696e697469616c2065786368616e67652072617465206d7573742062652067726561746572207468616e207a65726f2e73657474696e6720696e7465726573742072617465206d6f64656c206661696c65644c49515549444154455f5249534b4d414e414745525f43414c43554c4154455f414d4f554e545f5345495a455f4641494c45444d494e545f4e45575f4143434f554e545f42414c414e43455f43414c43554c4154494f4e5f4641494c4544626f72726f7742616c616e636553746f7265643a20626f72726f7742616c616e636553746f726564496e7465726e616c206661696c656452455041595f424f52524f575f4e45575f4143434f554e545f424f52524f575f42414c414e43455f43414c43554c4154494f4e5f4641494c454452455041595f424f52524f575f4e45575f544f54414c5f42414c414e43455f43414c43554c4154494f4e5f4641494c454465786368616e67655261746553746f7265643a2065786368616e67655261746553746f726564496e7465726e616c206661696c65644d494e545f4e45575f544f54414c5f535550504c595f43414c43554c4154494f4e5f4641494c45446c6971756964617465426f72726f77206661696c656420746f20737562747261637420707269636520636f73742e6f6e65206f662072656465656d546f6b656e73496e206f722072656465656d416d6f756e74496e206d757374206265207a65726f72656475636520726573657276657320756e657870656374656420756e646572666c6f77a2646970667358221220dee0a0ddf017ab7e3128f6c84485720a4a14d76ead4d7b43f58dbabe2f74644664736f6c634300060900336f6e6c792061646d696e206d617920696e697469616c697a6520746865206d61726b65746d61726b6574206d6179206f6e6c7920626520696e697469616c697a6564206f6e6365696e697469616c2065786368616e67652072617465206d7573742062652067726561746572207468616e207a65726f2e73657474696e6720696e7465726573742072617465206d6f64656c206661696c6564",
  "immutableReferences": {},
  "source": "// SPDX-License-Identifier: UNLICENSED\npragma solidity ^0.6.9;\n\nimport \"../tokenization/PToken.sol\";\n\ncontract PEther is PToken {\n    uint private msgValue;\n    /**\n     * @notice Construct a new PEther money market\n     * @param riskManager_ The address of the RiskManager\n     * @param interestRateModel_ The address of the interest rate model\n     * @param initialExchangeRateMantissa_ The initial exchange rate, scaled by 1e18\n     * @param admin_ Address of the administrator of this token\n     */\n    constructor(IRiskManager riskManager_,\n                InterestRateModel interestRateModel_,\n                uint initialExchangeRateMantissa_,\n                address payable admin_) public {\n        // Creator of the contract is admin during initialization\n        admin = msg.sender;\n\n        initialize(riskManager_, interestRateModel_, initialExchangeRateMantissa_);\n\n        // Set the proper admin now that initialization is done\n        admin = admin_;\n    }\n\n\n    /*** User Interface ***/\n\n    /**\n     * @notice Sender supplies assets into the market and receives PTokens in exchange\n     * @dev Reverts upon any failure\n     */\n    function mint() external payable {\n        updateMsgValue(msg.value);\n        (uint err,) = mintInternal(msg.value);\n        requireNoError(err, \"mint failed\");\n    }\n\n    /**\n     * @notice Sender redeems PTokens in exchange for the underlying asset\n     * @dev Accrues interest whether or not the operation succeeds, unless reverted\n     * @param redeemTokens The number of PTokens to redeem into underlying\n     * @return uint 0=success, otherwise a failure (see ErrorReporter.sol for details)\n     */\n    function redeem(uint redeemTokens) external payable returns (uint) {\n        updateMsgValue(0);\n        updateTokenPrice();\n        return redeemInternal(redeemTokens);\n    }\n\n    /**\n     * @notice Sender redeems PTokens in exchange for a specified amount of underlying asset\n     * @dev Accrues interest whether or not the operation succeeds, unless reverted\n     * @param redeemAmount The amount of underlying to redeem\n     * @return uint 0=success, otherwise a failure (see ErrorReporter.sol for details)\n     */\n    function redeemUnderlying(uint redeemAmount) external payable returns (uint) {\n        updateMsgValue(0);\n        updateTokenPrice();\n        return redeemUnderlyingInternal(redeemAmount);\n    }\n\n    /**\n      * @notice Sender borrows assets from the protocol to their own address\n      * @param borrowAmount The amount of the underlying asset to borrow\n      * @return uint 0=success, otherwise a failure (see ErrorReporter.sol for details)\n      */\n    function borrow(uint borrowAmount) external payable returns (uint) {\n        updateMsgValue(0);\n        updateTokenPrice();\n        return borrowInternal(borrowAmount);\n    }\n\n    /**\n     * @notice Sender repays their own borrow\n     * @dev Reverts upon any failure\n     */\n    function repayBorrow() external payable {\n        updateMsgValue(msg.value);\n        (uint err,) = repayBorrowInternal(msg.value);\n        requireNoError(err, \"repayBorrow failed\");\n    }\n\n    /**\n     * @notice Sender repays a borrow belonging to borrower\n     * @dev Reverts upon any failure\n     * @param borrower the account with the debt being payed off\n     */\n    function repayBorrowBehalf(address borrower) external payable {\n        updateMsgValue(msg.value);\n        (uint err,) = repayBorrowBehalfInternal(borrower, msg.value);\n        requireNoError(err, \"repayBorrowBehalf failed\");\n    }\n\n    /**\n     * @notice The sender liquidates the borrowers collateral.\n     *  The collateral seized is transferred to the liquidator.\n     * @dev Reverts upon any failure\n     * @param borrower The borrower of this PToken to be liquidated\n     * @param pTokenCollateral The market in which to seize collateral from the borrower\n     */\n    function liquidateBorrow(address borrower, PToken pTokenCollateral) external payable {\n        uint256 priceCost = riskManager.getPriceCost(msg.sender);\n        require(msg.value >= priceCost, \"No enough value to pay price oracle.\");\n        (MathError mathErr, uint256 repayAmount) = subUInt(msg.value, priceCost);\n        require(mathErr == MathError.NO_ERROR, \"liquidateBorrow failed to subtract price cost.\");\n        riskManager.updateTokenPrice{value: priceCost}(msg.sender);\n        updateMsgValue(repayAmount);\n        (uint err,) = liquidateBorrowInternal(borrower, repayAmount, pTokenCollateral);\n        requireNoError(err, \"liquidateBorrow failed\");\n    }\n\n    /**\n     * @notice Send Ether to PEther to mint\n     */\n    receive() external payable {\n        updateMsgValue(msg.value);\n        (uint err,) = mintInternal(msg.value);\n        requireNoError(err, \"mint failed\");\n    }\n\n    /*** Safe Token ***/\n\n    /**\n     * @notice Gets balance of this contract in terms of Ether, before this message\n     * @dev This excludes the value of the current message, if any\n     * @return The quantity of Ether owned by this contract\n     */\n    function getCashPrior() internal override view returns (uint) {\n        uint localMsgValue = 0;\n        if (msg.value > 0) localMsgValue = msgValue;\n        (MathError err, uint startingBalance) = subUInt(address(this).balance, localMsgValue);\n        require(err == MathError.NO_ERROR);\n        return startingBalance;\n    }\n\n    function _addReserves(uint addAmount) external payable returns (uint) {\n        updateMsgValue(msg.value);\n        return _addReservesInternal(addAmount);\n    }\n\n    function isNativeToken() public pure override returns (bool) {\n        return true;\n    }\n\n    /**\n     * @notice Perform the actual transfer in, which is a no-op\n     * @param from Address sending the Ether\n     * @param amount Amount of Ether being sent\n     * @return The actual amount of Ether transferred\n     */\n    function doTransferIn(address from, uint amount) internal override returns (uint) {\n        // Sanity checks\n        require(msg.sender == from, \"sender mismatch\");\n        require(msg.value >= amount, \"value mismatch\");\n        return amount;\n    }\n\n    function doTransferOut(address payable to, uint amount) internal override {\n        /* Send the Ether, with minimal gas and revert on failure */\n        to.transfer(amount);\n    }\n\n    function requireNoError(uint errCode, string memory message) internal pure {\n        if (errCode == uint(Error.NO_ERROR)) {\n            return;\n        }\n\n        bytes memory fullMessage = new bytes(bytes(message).length + 5);\n        uint i;\n\n        for (i = 0; i < bytes(message).length; i++) {\n            fullMessage[i] = bytes(message)[i];\n        }\n\n        fullMessage[i+0] = byte(uint8(32));\n        fullMessage[i+1] = byte(uint8(40));\n        fullMessage[i+2] = byte(uint8(48 + ( errCode / 10 )));\n        fullMessage[i+3] = byte(uint8(48 + ( errCode % 10 )));\n        fullMessage[i+4] = byte(uint8(41));\n\n        require(errCode == uint(Error.NO_ERROR), string(fullMessage));\n    }\n\n    function updateMsgValue(uint value) internal {\n        msgValue = value;\n    }\n}\n",
  "sourcePath": "/Users/ashton/repo/blockchain/eth/smartcontracts/PoolX/contracts/tokenization/PEther.sol",
  "compiler": {
    "name": "solc",
    "version": "0.6.9+commit.3e3065ac.Emscripten.clang"
  },
  "schemaVersion": "3.2.0",
  "updatedAt": "2021-01-11T14:08:11.861Z",
  "networkType": "ethereum",
  "devdoc": {
    "methods": {
      "_acceptAdmin()": {
        "details": "Admin function for pending admin to accept role and update admin",
        "returns": {
          "_0": "uint 0=success, otherwise a failure (see ErrorReporter.sol for details)"
        }
      },
      "_reduceReserves(uint256)": {
        "params": {
          "reduceAmount": "Amount of reduction to reserves"
        },
        "returns": {
          "_0": "uint 0=success, otherwise a failure (see ErrorReporter.sol for details)"
        }
      },
      "_setInterestRateModel(address)": {
        "details": "Admin function to accrue interest and update the interest rate model",
        "params": {
          "newInterestRateModel": "the new interest rate model to use"
        },
        "returns": {
          "_0": "uint 0=success, otherwise a failure (see ErrorReporter.sol for details)"
        }
      },
      "_setPendingAdmin(address)": {
        "details": "Admin function to begin change of admin. The newPendingAdmin must call `_acceptAdmin` to finalize the transfer.",
        "params": {
          "newPendingAdmin": "New pending admin."
        },
        "returns": {
          "_0": "uint 0=success, otherwise a failure (see ErrorReporter.sol for details)"
        }
      },
      "_setReserveFactor(uint256)": {
        "details": "Admin function to accrue interest and set a new reserve factor",
        "returns": {
          "_0": "uint 0=success, otherwise a failure (see ErrorReporter.sol for details)"
        }
      },
      "_setRiskManager(address)": {
        "details": "Admin function to set a new riskManager",
        "returns": {
          "_0": "uint 0=success, otherwise a failure (see ErrorReporter.sol for details)"
        }
      },
      "accrueInterest()": {
        "details": "This calculates interest accrued from the last checkpointed block   up to the current block and writes new checkpoint to storage."
      },
      "balanceOf(address)": {
        "params": {
          "owner": "The address of the account to query"
        },
        "returns": {
          "_0": "The number of tokens owned by `owner`"
        }
      },
      "balanceOfUnderlying(address)": {
        "details": "This also accrues interest in a transaction",
        "params": {
          "owner": "The address of the account to query"
        },
        "returns": {
          "_0": "The amount of underlying owned by `owner`"
        }
      },
      "borrow(uint256)": {
        "params": {
          "borrowAmount": "The amount of the underlying asset to borrow"
        },
        "returns": {
          "_0": "uint 0=success, otherwise a failure (see ErrorReporter.sol for details)"
        }
      },
      "borrowBalanceCurrent(address)": {
        "params": {
          "account": "The address whose balance should be calculated after updating borrowIndex"
        },
        "returns": {
          "_0": "The calculated balance"
        }
      },
      "borrowBalanceStored(address)": {
        "params": {
          "account": "The address whose balance should be calculated"
        },
        "returns": {
          "_0": "The calculated balance"
        }
      },
      "borrowRatePerBlock()": {
        "returns": {
          "_0": "The borrow interest rate per block, scaled by 1e18"
        }
      },
      "constructor": {
        "params": {
          "admin_": "Address of the administrator of this token",
          "initialExchangeRateMantissa_": "The initial exchange rate, scaled by 1e18",
          "interestRateModel_": "The address of the interest rate model",
          "riskManager_": "The address of the RiskManager"
        }
      },
      "exchangeRateCurrent()": {
        "returns": {
          "_0": "Calculated exchange rate scaled by 1e18"
        }
      },
      "exchangeRateStored()": {
        "details": "This function does not accrue interest before calculating the exchange rate",
        "returns": {
          "_0": "Calculated exchange rate scaled by 1e18"
        }
      },
      "getAccountSnapshot(address)": {
        "details": "This is used by riskManager to more efficiently perform liquidity checks.",
        "params": {
          "account": "Address of the account to snapshot"
        },
        "returns": {
          "_0": "(possible error, token balance, borrow balance, exchange rate mantissa)"
        }
      },
      "getCash()": {
        "returns": {
          "_0": "The quantity of underlying asset owned by this contract"
        }
      },
      "initialize(address,address,uint256)": {
        "params": {
          "initialExchangeRateMantissa_": "The initial exchange rate, scaled by 1e18",
          "interestRateModel_": "",
          "riskManager_": "controller "
        }
      },
      "liquidateBorrow(address,address)": {
        "details": "Reverts upon any failure",
        "params": {
          "borrower": "The borrower of this PToken to be liquidated",
          "pTokenCollateral": "The market in which to seize collateral from the borrower"
        }
      },
      "mint()": {
        "details": "Reverts upon any failure"
      },
      "redeem(uint256)": {
        "details": "Accrues interest whether or not the operation succeeds, unless reverted",
        "params": {
          "redeemTokens": "The number of PTokens to redeem into underlying"
        },
        "returns": {
          "_0": "uint 0=success, otherwise a failure (see ErrorReporter.sol for details)"
        }
      },
      "redeemUnderlying(uint256)": {
        "details": "Accrues interest whether or not the operation succeeds, unless reverted",
        "params": {
          "redeemAmount": "The amount of underlying to redeem"
        },
        "returns": {
          "_0": "uint 0=success, otherwise a failure (see ErrorReporter.sol for details)"
        }
      },
      "repayBorrow()": {
        "details": "Reverts upon any failure"
      },
      "repayBorrowBehalf(address)": {
        "details": "Reverts upon any failure",
        "params": {
          "borrower": "the account with the debt being payed off"
        }
      },
      "seize(address,address,uint256)": {
        "details": "Will fail unless called by another pToken during the process of liquidation.  Its absolutely critical to use msg.sender as the borrowed pToken and not a parameter.",
        "params": {
          "borrower": "The account having collateral seized",
          "liquidator": "The account receiving seized collateral",
          "seizeTokens": "The number of pTokens to seize"
        },
        "returns": {
          "_0": "uint 0=success, otherwise a failure (see ErrorReporter.sol for details)"
        }
      },
      "supplyRatePerBlock()": {
        "returns": {
          "_0": "The supply interest rate per block, scaled by 1e18"
        }
      },
      "totalBorrowsCurrent()": {
        "returns": {
          "_0": "The total borrows with interest"
        }
      }
    }
  },
  "userdoc": {
    "methods": {
      "_acceptAdmin()": {
        "notice": "Accepts transfer of admin rights. msg.sender must be pendingAdmin"
      },
      "_reduceReserves(uint256)": {
        "notice": "Accrues interest and reduces reserves by transferring to admin"
      },
      "_setInterestRateModel(address)": {
        "notice": "accrues interest and updates the interest rate model using _setInterestRateModelFresh"
      },
      "_setPendingAdmin(address)": {
        "notice": "Begins transfer of admin rights. The newPendingAdmin must call `_acceptAdmin` to finalize the transfer."
      },
      "_setReserveFactor(uint256)": {
        "notice": "accrues interest and sets a new reserve factor for the protocol using _setReserveFactorFresh"
      },
      "_setRiskManager(address)": {
        "notice": "Sets a new riskManager for the market"
      },
      "accrualBlockNumber()": {
        "notice": "Block number that interest was last accrued at"
      },
      "accrueInterest()": {
        "notice": "Applies accrued interest to total borrows and reserves"
      },
      "admin()": {
        "notice": "Administrator for this contract"
      },
      "balanceOf(address)": {
        "notice": "Get the token balance of the `owner`"
      },
      "balanceOfUnderlying(address)": {
        "notice": "Get the underlying balance of the `owner`"
      },
      "borrow(uint256)": {
        "notice": "Sender borrows assets from the protocol to their own address"
      },
      "borrowBalanceCurrent(address)": {
        "notice": "Accrue interest to updated borrowIndex and then calculate account's borrow balance using the updated borrowIndex"
      },
      "borrowBalanceStored(address)": {
        "notice": "Return the borrow balance of account based on stored data"
      },
      "borrowIndex()": {
        "notice": "Accumulator of the total earned interest rate since the opening of the market"
      },
      "borrowRatePerBlock()": {
        "notice": "Returns the current per-block borrow interest rate for this pToken"
      },
      "constructor": "Construct a new PEther money market",
      "exchangeRateCurrent()": {
        "notice": "Accrue interest then return the up-to-date exchange rate"
      },
      "exchangeRateStored()": {
        "notice": "Calculates the exchange rate from the underlying to the pToken"
      },
      "getAccountSnapshot(address)": {
        "notice": "Get a snapshot of the account's balances, and the cached exchange rate"
      },
      "getCash()": {
        "notice": "Get cash balance of this pToken in the underlying asset"
      },
      "initialize(address,address,uint256)": {
        "notice": ""
      },
      "interestRateModel()": {
        "notice": "Model which tells what the current interest rate should be"
      },
      "isPToken()": {
        "notice": "Indicator that this is a PToken contract (for inspection)"
      },
      "liquidateBorrow(address,address)": {
        "notice": "The sender liquidates the borrowers collateral.  The collateral seized is transferred to the liquidator."
      },
      "mint()": {
        "notice": "Sender supplies assets into the market and receives PTokens in exchange"
      },
      "pendingAdmin()": {
        "notice": "Pending administrator for this contract"
      },
      "redeem(uint256)": {
        "notice": "Sender redeems PTokens in exchange for the underlying asset"
      },
      "redeemUnderlying(uint256)": {
        "notice": "Sender redeems PTokens in exchange for a specified amount of underlying asset"
      },
      "repayBorrow()": {
        "notice": "Sender repays their own borrow"
      },
      "repayBorrowBehalf(address)": {
        "notice": "Sender repays a borrow belonging to borrower"
      },
      "reserveFactorMantissa()": {
        "notice": "Fraction of interest currently set aside for reserves"
      },
      "riskManager()": {
        "notice": "Contract which oversees inter-pToken operations"
      },
      "seize(address,address,uint256)": {
        "notice": "Transfers collateral tokens (this market) to the liquidator."
      },
      "supplyRatePerBlock()": {
        "notice": "Returns the current per-block supply interest rate for this pToken"
      },
      "totalBorrows()": {
        "notice": "Total amount of outstanding borrows of the underlying in this market"
      },
      "totalBorrowsCurrent()": {
        "notice": "Returns the current total borrows plus accrued interest"
      },
      "totalReserves()": {
        "notice": "Total amount of reserves of the underlying held in this market"
      },
      "totalSupply()": {
        "notice": "Total number of tokens in circulation"
      }
    }
  }
}