{
  "contractName": "PEther",
  "abi": [
    {
      "inputs": [
        {
          "internalType": "contract IRiskManager",
          "name": "riskManager_",
          "type": "address"
        },
        {
          "internalType": "contract InterestRateModel",
          "name": "interestRateModel_",
          "type": "address"
        },
        {
          "internalType": "uint256",
          "name": "initialExchangeRateMantissa_",
          "type": "uint256"
        },
        {
          "internalType": "string",
          "name": "name_",
          "type": "string"
        },
        {
          "internalType": "string",
          "name": "symbol_",
          "type": "string"
        },
        {
          "internalType": "uint8",
          "name": "decimals_",
          "type": "uint8"
        },
        {
          "internalType": "address payable",
          "name": "admin_",
          "type": "address"
        }
      ],
      "stateMutability": "nonpayable",
      "type": "constructor"
    },
    {
      "anonymous": false,
      "inputs": [
        {
          "indexed": false,
          "internalType": "uint256",
          "name": "cashPrior",
          "type": "uint256"
        },
        {
          "indexed": false,
          "internalType": "uint256",
          "name": "interestAccumulated",
          "type": "uint256"
        },
        {
          "indexed": false,
          "internalType": "uint256",
          "name": "borrowIndex",
          "type": "uint256"
        },
        {
          "indexed": false,
          "internalType": "uint256",
          "name": "totalBorrows",
          "type": "uint256"
        }
      ],
      "name": "AccrueInterest",
      "type": "event"
    },
    {
      "anonymous": false,
      "inputs": [
        {
          "indexed": true,
          "internalType": "address",
          "name": "owner",
          "type": "address"
        },
        {
          "indexed": true,
          "internalType": "address",
          "name": "spender",
          "type": "address"
        },
        {
          "indexed": false,
          "internalType": "uint256",
          "name": "amount",
          "type": "uint256"
        }
      ],
      "name": "Approval",
      "type": "event"
    },
    {
      "anonymous": false,
      "inputs": [
        {
          "indexed": false,
          "internalType": "address",
          "name": "borrower",
          "type": "address"
        },
        {
          "indexed": false,
          "internalType": "uint256",
          "name": "borrowAmount",
          "type": "uint256"
        },
        {
          "indexed": false,
          "internalType": "uint256",
          "name": "accountBorrows",
          "type": "uint256"
        },
        {
          "indexed": false,
          "internalType": "uint256",
          "name": "totalBorrows",
          "type": "uint256"
        }
      ],
      "name": "Borrow",
      "type": "event"
    },
    {
      "anonymous": false,
      "inputs": [
        {
          "indexed": false,
          "internalType": "uint256",
          "name": "error",
          "type": "uint256"
        },
        {
          "indexed": false,
          "internalType": "uint256",
          "name": "info",
          "type": "uint256"
        },
        {
          "indexed": false,
          "internalType": "uint256",
          "name": "detail",
          "type": "uint256"
        }
      ],
      "name": "Failure",
      "type": "event"
    },
    {
      "anonymous": false,
      "inputs": [
        {
          "indexed": false,
          "internalType": "address",
          "name": "liquidator",
          "type": "address"
        },
        {
          "indexed": false,
          "internalType": "address",
          "name": "borrower",
          "type": "address"
        },
        {
          "indexed": false,
          "internalType": "uint256",
          "name": "repayAmount",
          "type": "uint256"
        },
        {
          "indexed": false,
          "internalType": "address",
          "name": "pTokenCollateral",
          "type": "address"
        },
        {
          "indexed": false,
          "internalType": "uint256",
          "name": "seizeTokens",
          "type": "uint256"
        }
      ],
      "name": "LiquidateBorrow",
      "type": "event"
    },
    {
      "anonymous": false,
      "inputs": [
        {
          "indexed": false,
          "internalType": "address",
          "name": "minter",
          "type": "address"
        },
        {
          "indexed": false,
          "internalType": "uint256",
          "name": "mintAmount",
          "type": "uint256"
        },
        {
          "indexed": false,
          "internalType": "uint256",
          "name": "mintTokens",
          "type": "uint256"
        }
      ],
      "name": "Mint",
      "type": "event"
    },
    {
      "anonymous": false,
      "inputs": [
        {
          "indexed": false,
          "internalType": "address",
          "name": "oldAdmin",
          "type": "address"
        },
        {
          "indexed": false,
          "internalType": "address",
          "name": "newAdmin",
          "type": "address"
        }
      ],
      "name": "NewAdmin",
      "type": "event"
    },
    {
      "anonymous": false,
      "inputs": [
        {
          "indexed": false,
          "internalType": "contract InterestRateModel",
          "name": "oldInterestRateModel",
          "type": "address"
        },
        {
          "indexed": false,
          "internalType": "contract InterestRateModel",
          "name": "newInterestRateModel",
          "type": "address"
        }
      ],
      "name": "NewMarketInterestRateModel",
      "type": "event"
    },
    {
      "anonymous": false,
      "inputs": [
        {
          "indexed": false,
          "internalType": "address",
          "name": "oldPendingAdmin",
          "type": "address"
        },
        {
          "indexed": false,
          "internalType": "address",
          "name": "newPendingAdmin",
          "type": "address"
        }
      ],
      "name": "NewPendingAdmin",
      "type": "event"
    },
    {
      "anonymous": false,
      "inputs": [
        {
          "indexed": false,
          "internalType": "uint256",
          "name": "oldReserveFactorMantissa",
          "type": "uint256"
        },
        {
          "indexed": false,
          "internalType": "uint256",
          "name": "newReserveFactorMantissa",
          "type": "uint256"
        }
      ],
      "name": "NewReserveFactor",
      "type": "event"
    },
    {
      "anonymous": false,
      "inputs": [
        {
          "indexed": false,
          "internalType": "contract IRiskManager",
          "name": "oldRiskManager",
          "type": "address"
        },
        {
          "indexed": false,
          "internalType": "contract IRiskManager",
          "name": "newRiskManager",
          "type": "address"
        }
      ],
      "name": "NewRiskManager",
      "type": "event"
    },
    {
      "anonymous": false,
      "inputs": [
        {
          "indexed": false,
          "internalType": "address",
          "name": "redeemer",
          "type": "address"
        },
        {
          "indexed": false,
          "internalType": "uint256",
          "name": "redeemAmount",
          "type": "uint256"
        },
        {
          "indexed": false,
          "internalType": "uint256",
          "name": "redeemTokens",
          "type": "uint256"
        }
      ],
      "name": "Redeem",
      "type": "event"
    },
    {
      "anonymous": false,
      "inputs": [
        {
          "indexed": false,
          "internalType": "address",
          "name": "payer",
          "type": "address"
        },
        {
          "indexed": false,
          "internalType": "address",
          "name": "borrower",
          "type": "address"
        },
        {
          "indexed": false,
          "internalType": "uint256",
          "name": "repayAmount",
          "type": "uint256"
        },
        {
          "indexed": false,
          "internalType": "uint256",
          "name": "accountBorrows",
          "type": "uint256"
        },
        {
          "indexed": false,
          "internalType": "uint256",
          "name": "totalBorrows",
          "type": "uint256"
        }
      ],
      "name": "RepayBorrow",
      "type": "event"
    },
    {
      "anonymous": false,
      "inputs": [
        {
          "indexed": false,
          "internalType": "address",
          "name": "benefactor",
          "type": "address"
        },
        {
          "indexed": false,
          "internalType": "uint256",
          "name": "addAmount",
          "type": "uint256"
        },
        {
          "indexed": false,
          "internalType": "uint256",
          "name": "newTotalReserves",
          "type": "uint256"
        }
      ],
      "name": "ReservesAdded",
      "type": "event"
    },
    {
      "anonymous": false,
      "inputs": [
        {
          "indexed": false,
          "internalType": "address",
          "name": "admin",
          "type": "address"
        },
        {
          "indexed": false,
          "internalType": "uint256",
          "name": "reduceAmount",
          "type": "uint256"
        },
        {
          "indexed": false,
          "internalType": "uint256",
          "name": "newTotalReserves",
          "type": "uint256"
        }
      ],
      "name": "ReservesReduced",
      "type": "event"
    },
    {
      "anonymous": false,
      "inputs": [
        {
          "indexed": true,
          "internalType": "address",
          "name": "from",
          "type": "address"
        },
        {
          "indexed": true,
          "internalType": "address",
          "name": "to",
          "type": "address"
        },
        {
          "indexed": false,
          "internalType": "uint256",
          "name": "amount",
          "type": "uint256"
        }
      ],
      "name": "Transfer",
      "type": "event"
    },
    {
      "inputs": [],
      "name": "_acceptAdmin",
      "outputs": [
        {
          "internalType": "uint256",
          "name": "",
          "type": "uint256"
        }
      ],
      "stateMutability": "nonpayable",
      "type": "function"
    },
    {
      "inputs": [
        {
          "internalType": "uint256",
          "name": "reduceAmount",
          "type": "uint256"
        }
      ],
      "name": "_reduceReserves",
      "outputs": [
        {
          "internalType": "uint256",
          "name": "",
          "type": "uint256"
        }
      ],
      "stateMutability": "nonpayable",
      "type": "function"
    },
    {
      "inputs": [
        {
          "internalType": "contract InterestRateModel",
          "name": "newInterestRateModel",
          "type": "address"
        }
      ],
      "name": "_setInterestRateModel",
      "outputs": [
        {
          "internalType": "uint256",
          "name": "",
          "type": "uint256"
        }
      ],
      "stateMutability": "nonpayable",
      "type": "function"
    },
    {
      "inputs": [
        {
          "internalType": "address payable",
          "name": "newPendingAdmin",
          "type": "address"
        }
      ],
      "name": "_setPendingAdmin",
      "outputs": [
        {
          "internalType": "uint256",
          "name": "",
          "type": "uint256"
        }
      ],
      "stateMutability": "nonpayable",
      "type": "function"
    },
    {
      "inputs": [
        {
          "internalType": "uint256",
          "name": "newReserveFactorMantissa",
          "type": "uint256"
        }
      ],
      "name": "_setReserveFactor",
      "outputs": [
        {
          "internalType": "uint256",
          "name": "",
          "type": "uint256"
        }
      ],
      "stateMutability": "nonpayable",
      "type": "function"
    },
    {
      "inputs": [
        {
          "internalType": "contract IRiskManager",
          "name": "newRiskManager",
          "type": "address"
        }
      ],
      "name": "_setRiskManager",
      "outputs": [
        {
          "internalType": "uint256",
          "name": "",
          "type": "uint256"
        }
      ],
      "stateMutability": "nonpayable",
      "type": "function"
    },
    {
      "inputs": [],
      "name": "accrualBlockNumber",
      "outputs": [
        {
          "internalType": "uint256",
          "name": "",
          "type": "uint256"
        }
      ],
      "stateMutability": "view",
      "type": "function",
      "constant": true
    },
    {
      "inputs": [],
      "name": "accrueInterest",
      "outputs": [
        {
          "internalType": "uint256",
          "name": "",
          "type": "uint256"
        }
      ],
      "stateMutability": "nonpayable",
      "type": "function"
    },
    {
      "inputs": [],
      "name": "admin",
      "outputs": [
        {
          "internalType": "address payable",
          "name": "",
          "type": "address"
        }
      ],
      "stateMutability": "view",
      "type": "function",
      "constant": true
    },
    {
      "inputs": [
        {
          "internalType": "address",
          "name": "owner",
          "type": "address"
        },
        {
          "internalType": "address",
          "name": "spender",
          "type": "address"
        }
      ],
      "name": "allowance",
      "outputs": [
        {
          "internalType": "uint256",
          "name": "",
          "type": "uint256"
        }
      ],
      "stateMutability": "view",
      "type": "function",
      "constant": true
    },
    {
      "inputs": [
        {
          "internalType": "address",
          "name": "spender",
          "type": "address"
        },
        {
          "internalType": "uint256",
          "name": "amount",
          "type": "uint256"
        }
      ],
      "name": "approve",
      "outputs": [
        {
          "internalType": "bool",
          "name": "",
          "type": "bool"
        }
      ],
      "stateMutability": "nonpayable",
      "type": "function"
    },
    {
      "inputs": [
        {
          "internalType": "address",
          "name": "owner",
          "type": "address"
        }
      ],
      "name": "balanceOf",
      "outputs": [
        {
          "internalType": "uint256",
          "name": "",
          "type": "uint256"
        }
      ],
      "stateMutability": "view",
      "type": "function",
      "constant": true
    },
    {
      "inputs": [
        {
          "internalType": "address",
          "name": "owner",
          "type": "address"
        }
      ],
      "name": "balanceOfUnderlying",
      "outputs": [
        {
          "internalType": "uint256",
          "name": "",
          "type": "uint256"
        }
      ],
      "stateMutability": "nonpayable",
      "type": "function"
    },
    {
      "inputs": [
        {
          "internalType": "address",
          "name": "account",
          "type": "address"
        }
      ],
      "name": "borrowBalanceCurrent",
      "outputs": [
        {
          "internalType": "uint256",
          "name": "",
          "type": "uint256"
        }
      ],
      "stateMutability": "nonpayable",
      "type": "function"
    },
    {
      "inputs": [
        {
          "internalType": "address",
          "name": "account",
          "type": "address"
        }
      ],
      "name": "borrowBalanceStored",
      "outputs": [
        {
          "internalType": "uint256",
          "name": "",
          "type": "uint256"
        }
      ],
      "stateMutability": "view",
      "type": "function",
      "constant": true
    },
    {
      "inputs": [],
      "name": "borrowIndex",
      "outputs": [
        {
          "internalType": "uint256",
          "name": "",
          "type": "uint256"
        }
      ],
      "stateMutability": "view",
      "type": "function",
      "constant": true
    },
    {
      "inputs": [],
      "name": "borrowRatePerBlock",
      "outputs": [
        {
          "internalType": "uint256",
          "name": "",
          "type": "uint256"
        }
      ],
      "stateMutability": "view",
      "type": "function",
      "constant": true
    },
    {
      "inputs": [],
      "name": "decimals",
      "outputs": [
        {
          "internalType": "uint8",
          "name": "",
          "type": "uint8"
        }
      ],
      "stateMutability": "view",
      "type": "function",
      "constant": true
    },
    {
      "inputs": [],
      "name": "exchangeRateCurrent",
      "outputs": [
        {
          "internalType": "uint256",
          "name": "",
          "type": "uint256"
        }
      ],
      "stateMutability": "nonpayable",
      "type": "function"
    },
    {
      "inputs": [],
      "name": "exchangeRateStored",
      "outputs": [
        {
          "internalType": "uint256",
          "name": "",
          "type": "uint256"
        }
      ],
      "stateMutability": "view",
      "type": "function",
      "constant": true
    },
    {
      "inputs": [
        {
          "internalType": "address",
          "name": "account",
          "type": "address"
        }
      ],
      "name": "getAccountSnapshot",
      "outputs": [
        {
          "internalType": "uint256",
          "name": "",
          "type": "uint256"
        },
        {
          "internalType": "uint256",
          "name": "",
          "type": "uint256"
        },
        {
          "internalType": "uint256",
          "name": "",
          "type": "uint256"
        },
        {
          "internalType": "uint256",
          "name": "",
          "type": "uint256"
        }
      ],
      "stateMutability": "view",
      "type": "function",
      "constant": true
    },
    {
      "inputs": [],
      "name": "getCash",
      "outputs": [
        {
          "internalType": "uint256",
          "name": "",
          "type": "uint256"
        }
      ],
      "stateMutability": "view",
      "type": "function",
      "constant": true
    },
    {
      "inputs": [
        {
          "internalType": "contract IRiskManager",
          "name": "riskManager_",
          "type": "address"
        },
        {
          "internalType": "contract InterestRateModel",
          "name": "interestRateModel_",
          "type": "address"
        },
        {
          "internalType": "uint256",
          "name": "initialExchangeRateMantissa_",
          "type": "uint256"
        },
        {
          "internalType": "string",
          "name": "name_",
          "type": "string"
        },
        {
          "internalType": "string",
          "name": "symbol_",
          "type": "string"
        },
        {
          "internalType": "uint8",
          "name": "decimals_",
          "type": "uint8"
        }
      ],
      "name": "initialize",
      "outputs": [],
      "stateMutability": "nonpayable",
      "type": "function"
    },
    {
      "inputs": [],
      "name": "interestRateModel",
      "outputs": [
        {
          "internalType": "contract InterestRateModel",
          "name": "",
          "type": "address"
        }
      ],
      "stateMutability": "view",
      "type": "function",
      "constant": true
    },
    {
      "inputs": [],
      "name": "isPToken",
      "outputs": [
        {
          "internalType": "bool",
          "name": "",
          "type": "bool"
        }
      ],
      "stateMutability": "view",
      "type": "function",
      "constant": true
    },
    {
      "inputs": [],
      "name": "name",
      "outputs": [
        {
          "internalType": "string",
          "name": "",
          "type": "string"
        }
      ],
      "stateMutability": "view",
      "type": "function",
      "constant": true
    },
    {
      "inputs": [],
      "name": "pendingAdmin",
      "outputs": [
        {
          "internalType": "address payable",
          "name": "",
          "type": "address"
        }
      ],
      "stateMutability": "view",
      "type": "function",
      "constant": true
    },
    {
      "inputs": [],
      "name": "reserveFactorMantissa",
      "outputs": [
        {
          "internalType": "uint256",
          "name": "",
          "type": "uint256"
        }
      ],
      "stateMutability": "view",
      "type": "function",
      "constant": true
    },
    {
      "inputs": [],
      "name": "riskManager",
      "outputs": [
        {
          "internalType": "contract IRiskManager",
          "name": "",
          "type": "address"
        }
      ],
      "stateMutability": "view",
      "type": "function",
      "constant": true
    },
    {
      "inputs": [
        {
          "internalType": "address",
          "name": "liquidator",
          "type": "address"
        },
        {
          "internalType": "address",
          "name": "borrower",
          "type": "address"
        },
        {
          "internalType": "uint256",
          "name": "seizeTokens",
          "type": "uint256"
        }
      ],
      "name": "seize",
      "outputs": [
        {
          "internalType": "uint256",
          "name": "",
          "type": "uint256"
        }
      ],
      "stateMutability": "nonpayable",
      "type": "function"
    },
    {
      "inputs": [],
      "name": "supplyRatePerBlock",
      "outputs": [
        {
          "internalType": "uint256",
          "name": "",
          "type": "uint256"
        }
      ],
      "stateMutability": "view",
      "type": "function",
      "constant": true
    },
    {
      "inputs": [],
      "name": "symbol",
      "outputs": [
        {
          "internalType": "string",
          "name": "",
          "type": "string"
        }
      ],
      "stateMutability": "view",
      "type": "function",
      "constant": true
    },
    {
      "inputs": [],
      "name": "totalBorrows",
      "outputs": [
        {
          "internalType": "uint256",
          "name": "",
          "type": "uint256"
        }
      ],
      "stateMutability": "view",
      "type": "function",
      "constant": true
    },
    {
      "inputs": [],
      "name": "totalBorrowsCurrent",
      "outputs": [
        {
          "internalType": "uint256",
          "name": "",
          "type": "uint256"
        }
      ],
      "stateMutability": "nonpayable",
      "type": "function"
    },
    {
      "inputs": [],
      "name": "totalReserves",
      "outputs": [
        {
          "internalType": "uint256",
          "name": "",
          "type": "uint256"
        }
      ],
      "stateMutability": "view",
      "type": "function",
      "constant": true
    },
    {
      "inputs": [],
      "name": "totalSupply",
      "outputs": [
        {
          "internalType": "uint256",
          "name": "",
          "type": "uint256"
        }
      ],
      "stateMutability": "view",
      "type": "function",
      "constant": true
    },
    {
      "inputs": [
        {
          "internalType": "address",
          "name": "dst",
          "type": "address"
        },
        {
          "internalType": "uint256",
          "name": "amount",
          "type": "uint256"
        }
      ],
      "name": "transfer",
      "outputs": [
        {
          "internalType": "bool",
          "name": "",
          "type": "bool"
        }
      ],
      "stateMutability": "nonpayable",
      "type": "function"
    },
    {
      "inputs": [
        {
          "internalType": "address",
          "name": "src",
          "type": "address"
        },
        {
          "internalType": "address",
          "name": "dst",
          "type": "address"
        },
        {
          "internalType": "uint256",
          "name": "amount",
          "type": "uint256"
        }
      ],
      "name": "transferFrom",
      "outputs": [
        {
          "internalType": "bool",
          "name": "",
          "type": "bool"
        }
      ],
      "stateMutability": "nonpayable",
      "type": "function"
    },
    {
      "stateMutability": "payable",
      "type": "receive",
      "payable": true
    },
    {
      "inputs": [],
      "name": "mint",
      "outputs": [],
      "stateMutability": "payable",
      "type": "function",
      "payable": true
    },
    {
      "inputs": [
        {
          "internalType": "uint256",
          "name": "redeemTokens",
          "type": "uint256"
        }
      ],
      "name": "redeem",
      "outputs": [
        {
          "internalType": "uint256",
          "name": "",
          "type": "uint256"
        }
      ],
      "stateMutability": "payable",
      "type": "function",
      "payable": true
    },
    {
      "inputs": [
        {
          "internalType": "uint256",
          "name": "redeemAmount",
          "type": "uint256"
        }
      ],
      "name": "redeemUnderlying",
      "outputs": [
        {
          "internalType": "uint256",
          "name": "",
          "type": "uint256"
        }
      ],
      "stateMutability": "payable",
      "type": "function",
      "payable": true
    },
    {
      "inputs": [
        {
          "internalType": "uint256",
          "name": "borrowAmount",
          "type": "uint256"
        }
      ],
      "name": "borrow",
      "outputs": [
        {
          "internalType": "uint256",
          "name": "",
          "type": "uint256"
        }
      ],
      "stateMutability": "payable",
      "type": "function",
      "payable": true
    },
    {
      "inputs": [],
      "name": "repayBorrow",
      "outputs": [],
      "stateMutability": "payable",
      "type": "function",
      "payable": true
    },
    {
      "inputs": [
        {
          "internalType": "address",
          "name": "borrower",
          "type": "address"
        }
      ],
      "name": "repayBorrowBehalf",
      "outputs": [],
      "stateMutability": "payable",
      "type": "function",
      "payable": true
    },
    {
      "inputs": [
        {
          "internalType": "address",
          "name": "borrower",
          "type": "address"
        },
        {
          "internalType": "contract PToken",
          "name": "pTokenCollateral",
          "type": "address"
        }
      ],
      "name": "liquidateBorrow",
      "outputs": [],
      "stateMutability": "payable",
      "type": "function",
      "payable": true
    },
    {
      "inputs": [
        {
          "internalType": "uint256",
          "name": "addAmount",
          "type": "uint256"
        }
      ],
      "name": "_addReserves",
      "outputs": [
        {
          "internalType": "uint256",
          "name": "",
          "type": "uint256"
        }
      ],
      "stateMutability": "payable",
      "type": "function",
      "payable": true
    },
    {
      "inputs": [],
      "name": "isForETH",
      "outputs": [
        {
          "internalType": "bool",
          "name": "",
          "type": "bool"
        }
      ],
      "stateMutability": "view",
      "type": "function",
      "constant": true
    }
  ],
  "bytecode": "0x60806040526702c68af0bb1400006008553480156200001d57600080fd5b50604051620057a5380380620057a5833981810160405260e08110156200004357600080fd5b8151602083015160408085015160608601805192519496939591949391820192846401000000008211156200007757600080fd5b9083019060208201858111156200008d57600080fd5b8251640100000000811182820188101715620000a857600080fd5b82525081516020918201929091019080838360005b83811015620000d7578181015183820152602001620000bd565b50505050905090810190601f168015620001055780820380516001836020036101000a031916815260200191505b50604052602001805160405193929190846401000000008211156200012957600080fd5b9083019060208201858111156200013f57600080fd5b82516401000000008111828201881017156200015a57600080fd5b82525081516020918201929091019080838360005b83811015620001895781810151838201526020016200016f565b50505050905090810190601f168015620001b75780820380516001836020036101000a031916815260200191505b506040908152602082015191015160038054610100600160a81b03191633610100021790559092509050620001f187878787878762000224565b600380546001600160a01b0390921661010002610100600160a81b03199092169190911790555062000861945050505050565b60035461010090046001600160a01b03163314620002745760405162461bcd60e51b81526004018080602001828103825260248152602001806200570c6024913960400191505060405180910390fd5b600954158015620002855750600a54155b620002c25760405162461bcd60e51b8152600401808060200182810382526023815260200180620057306023913960400191505060405180910390fd5b600784905583620003055760405162461bcd60e51b8152600401808060200182810382526030815260200180620057536030913960400191505060405180910390fd5b60006200031b876001600160e01b036200043a16565b9050801562000371576040805162461bcd60e51b815260206004820152601a60248201527f73657474696e67207269736b4d616e61676572206661696c6564000000000000604482015290519081900360640190fd5b620003846001600160e01b03620005a416565b600955670de0b6b3a7640000600a55620003a7866001600160e01b03620005a916565b90508015620003e85760405162461bcd60e51b8152600401808060200182810382526022815260200180620057836022913960400191505060405180910390fd5b8351620003fd906001906020870190620007bf565b50825162000413906002906020860190620007bf565b50506003805460ff90921660ff199283161790556000805490911660011790555050505050565b60035460009061010090046001600160a01b0316331462000474576200046c6001603f6001600160e01b036200074f16565b90506200059f565b600554604080516354cb73dd60e11b815290516001600160a01b039283169285169163a996e7ba916004808301926020929190829003018186803b158015620004bc57600080fd5b505afa158015620004d1573d6000803e3d6000fd5b505050506040513d6020811015620004e857600080fd5b50516200053c576040805162461bcd60e51b815260206004820152601c60248201527f6d61726b6572206d6574686f642072657475726e65642066616c736500000000604482015290519081900360640190fd5b600580546001600160a01b0319166001600160a01b03858116918217909255604080519284168352602083019190915280517f91249b936729aec99d65d412fab6e6488ab0eb306623fa400ad5397449ff362b9281900390910190a160005b9150505b919050565b435b90565b600354600090819061010090046001600160a01b03163314620005e657620005dd600160426001600160e01b036200074f16565b9150506200059f565b620005f96001600160e01b03620005a416565b600954146200061957620005dd600a60416001600160e01b036200074f16565b600660009054906101000a90046001600160a01b03169050826001600160a01b0316632191f92a6040518163ffffffff1660e01b815260040160206040518083038186803b1580156200066b57600080fd5b505afa15801562000680573d6000803e3d6000fd5b505050506040513d60208110156200069757600080fd5b5051620006eb576040805162461bcd60e51b815260206004820152601c60248201527f6d61726b6572206d6574686f642072657475726e65642066616c736500000000604482015290519081900360640190fd5b600680546001600160a01b0319166001600160a01b03858116918217909255604080519284168352602083019190915280517fedffc32e068c7c95dfd4bdfd5c4d939a084d6b11c4199eac8436ed234d72f9269281900390910190a160006200059b565b60007f45b96fe442630264581b197e84bbada861235052c5a1aadfff9ea4e40a969aa08360108111156200077f57fe5b8360508111156200078c57fe5b604080519283526020830191909152600082820152519081900360600190a1826010811115620007b857fe5b9392505050565b828054600181600116156101000203166002900490600052602060002090601f016020900481019282601f106200080257805160ff191683800117855562000832565b8280016001018555821562000832579182015b828111156200083257825182559160200191906001019062000815565b506200084092915062000844565b5090565b620005a691905b808211156200084057600081556001016200084b565b614e9b80620008716000396000f3fe60806040526004361061028c5760003560e01c80638f840ddd1161015a578063bd6d894d116100c1578063e9c714f21161007a578063e9c714f214610a51578063f2b3abbd14610a66578063f3fdb15a14610a99578063f851a44014610aae578063f8f9da2814610ac3578063fca7820b14610ad8576102cf565b8063bd6d894d14610948578063c37f68e21461095d578063c5ebeaec146109b6578063db006a75146109d3578063dd62ed3e146109f0578063e597461914610a2b576102cf565b8063a9059cbb11610113578063a9059cbb14610841578063aa5af0fd1461087a578063aae40a2a1461088f578063ae9d70b0146108bd578063b2a02ff1146108d2578063b71d1a0c14610915576102cf565b80638f840ddd1461065b578063913e60981461067057806395d89b411461068557806395dd91931461069a57806399d8c1b4146106cd578063a6afed951461082c576102cf565b80633af9e669116101fe5780635a890c0e116101b75780635a890c0e146105a2578063601a0bf1146105b75780636c540baf146105e157806370a08231146105f657806373acee9814610629578063852a12e31461063e576102cf565b80633af9e6691461050b5780633b1d21a21461053e5780633e94101014610553578063478426631461057057806347bd3718146105855780634e4d9fea1461059a576102cf565b806317bfdfbc1161025057806317bfdfbc1461040f57806318160ddd14610442578063182df0f51461045757806323b872dd1461046c57806326782247146104af578063313ce567146104e0576102cf565b806306fdde03146102d4578063095ea7b31461035e5780630dd16bed146103ab5780631249c58b146103f0578063173b9904146103fa576102cf565b366102cf57600061029c34610b02565b5090506102cc816040518060400160405280600b81526020016a1b5a5b9d0819985a5b195960aa1b815250610baa565b50005b600080fd5b3480156102e057600080fd5b506102e9610dc1565b6040805160208082528351818301528351919283929083019185019080838360005b8381101561032357818101518382015260200161030b565b50505050905090810190601f1680156103505780820380516001836020036101000a031916815260200191505b509250505060405180910390f35b34801561036a57600080fd5b506103976004803603604081101561038157600080fd5b506001600160a01b038135169060200135610e4e565b604080519115158252519081900360200190f35b3480156103b757600080fd5b506103de600480360360208110156103ce57600080fd5b50356001600160a01b0316610ebb565b60408051918252519081900360200190f35b6103f8611014565b005b34801561040657600080fd5b506103de611052565b34801561041b57600080fd5b506103de6004803603602081101561043257600080fd5b50356001600160a01b0316611058565b34801561044e57600080fd5b506103de611118565b34801561046357600080fd5b506103de61111e565b34801561047857600080fd5b506103976004803603606081101561048f57600080fd5b506001600160a01b03813581169160208101359091169060400135611181565b3480156104bb57600080fd5b506104c46111f3565b604080516001600160a01b039092168252519081900360200190f35b3480156104ec57600080fd5b506104f5611202565b6040805160ff9092168252519081900360200190f35b34801561051757600080fd5b506103de6004803603602081101561052e57600080fd5b50356001600160a01b031661120b565b34801561054a57600080fd5b506103de6112c1565b6103de6004803603602081101561056957600080fd5b50356112d0565b34801561057c57600080fd5b506104c46112db565b34801561059157600080fd5b506103de6112ea565b6103f86112f0565b3480156105ae57600080fd5b50610397611332565b3480156105c357600080fd5b506103de600480360360208110156105da57600080fd5b5035611337565b3480156105ed57600080fd5b506103de6113d2565b34801561060257600080fd5b506103de6004803603602081101561061957600080fd5b50356001600160a01b03166113d8565b34801561063557600080fd5b506103de6113f3565b6103de6004803603602081101561065457600080fd5b50356114a9565b34801561066757600080fd5b506103de6114bc565b34801561067c57600080fd5b506103976114c2565b34801561069157600080fd5b506102e96114c7565b3480156106a657600080fd5b506103de600480360360208110156106bd57600080fd5b50356001600160a01b031661151f565b3480156106d957600080fd5b506103f8600480360360c08110156106f057600080fd5b6001600160a01b0382358116926020810135909116916040820135919081019060808101606082013564010000000081111561072b57600080fd5b82018360208201111561073d57600080fd5b8035906020019184600183028401116401000000008311171561075f57600080fd5b91908080601f01602080910402602001604051908101604052809392919081815260200183838082843760009201919091525092959493602081019350359150506401000000008111156107b257600080fd5b8201836020820111156107c457600080fd5b803590602001918460018302840111640100000000831117156107e657600080fd5b91908080601f0160208091040260200160405190810160405280939291908181526020018383808284376000920191909152509295505050903560ff16915061157c9050565b34801561083857600080fd5b506103de611763565b34801561084d57600080fd5b506103976004803603604081101561086457600080fd5b506001600160a01b038135169060200135611abb565b34801561088657600080fd5b506103de611b2c565b6103f8600480360360408110156108a557600080fd5b506001600160a01b0381358116916020013516611b32565b3480156108c957600080fd5b506103de611cfc565b3480156108de57600080fd5b506103de600480360360608110156108f557600080fd5b506001600160a01b03813581169160208101359091169060400135611d9b565b34801561092157600080fd5b506103de6004803603602081101561093857600080fd5b50356001600160a01b0316611e0c565b34801561095457600080fd5b506103de611e98565b34801561096957600080fd5b506109906004803603602081101561098057600080fd5b50356001600160a01b0316611f54565b604080519485526020850193909352838301919091526060830152519081900360800190f35b6103de600480360360208110156109cc57600080fd5b5035611fe9565b6103de600480360360208110156109e957600080fd5b5035611ffc565b3480156109fc57600080fd5b506103de60048036036040811015610a1357600080fd5b506001600160a01b038135811691602001351661200f565b6103f860048036036020811015610a4157600080fd5b50356001600160a01b031661203a565b348015610a5d57600080fd5b506103de612088565b348015610a7257600080fd5b506103de60048036036020811015610a8957600080fd5b50356001600160a01b031661218b565b348015610aa557600080fd5b506104c46121c5565b348015610aba57600080fd5b506104c46121d4565b348015610acf57600080fd5b506103de6121e8565b348015610ae457600080fd5b506103de60048036036020811015610afb57600080fd5b503561224c565b60008054819060ff16610b49576040805162461bcd60e51b815260206004820152600a6024820152691c994b595b9d195c995960b21b604482015290519081900360640190fd5b6000805460ff19168155610b5b611763565b90508015610b8657610b79816010811115610b7257fe5b601e6122ca565b925060009150610b969050565b610b903385612337565b92509250505b6000805460ff191660011790559092909150565b81610bb457610dbd565b6060815160050167ffffffffffffffff81118015610bd157600080fd5b506040519080825280601f01601f191660200182016040528015610bfc576020820181803683370190505b50905060005b8251811015610c4d57828181518110610c1757fe5b602001015160f81c60f81b828281518110610c2e57fe5b60200101906001600160f81b031916908160001a905350600101610c02565b8151600160fd1b90839083908110610c6157fe5b60200101906001600160f81b031916908160001a905350602860f81b828260010181518110610c8c57fe5b60200101906001600160f81b031916908160001a905350600a840460300160f81b828260020181518110610cbc57fe5b60200101906001600160f81b031916908160001a905350600a840660300160f81b828260030181518110610cec57fe5b60200101906001600160f81b031916908160001a905350602960f81b828260040181518110610d1757fe5b60200101906001600160f81b031916908160001a905350818415610db95760405162461bcd60e51b81526004018080602001828103825283818151815260200191508051906020019080838360005b83811015610d7e578181015183820152602001610d66565b50505050905090810190601f168015610dab5780820380516001836020036101000a031916815260200191505b509250505060405180910390fd5b5050505b5050565b60018054604080516020600284861615610100026000190190941693909304601f81018490048402820184019092528181529291830182828015610e465780601f10610e1b57610100808354040283529160200191610e46565b820191906000526020600020905b815481529060010190602001808311610e2957829003601f168201915b505050505081565b336000818152600f602090815260408083206001600160a01b03871680855290835281842086905581518681529151939493909284927f8c5be1e5ebec7d5bd14f71427d1e84f3dd0314c0f7b2291e5b200ac8c7c3b925929081900390910190a360019150505b92915050565b60035460009061010090046001600160a01b03163314610ee857610ee16001603f6122ca565b905061100f565b600554604080516354cb73dd60e11b815290516001600160a01b039283169285169163a996e7ba916004808301926020929190829003018186803b158015610f2f57600080fd5b505afa158015610f43573d6000803e3d6000fd5b505050506040513d6020811015610f5957600080fd5b5051610fac576040805162461bcd60e51b815260206004820152601c60248201527f6d61726b6572206d6574686f642072657475726e65642066616c736500000000604482015290519081900360640190fd5b600580546001600160a01b0319166001600160a01b03858116918217909255604080519284168352602083019190915280517f91249b936729aec99d65d412fab6e6488ab0eb306623fa400ad5397449ff362b9281900390910190a160005b9150505b919050565b600061101f34610b02565b50905061104f816040518060400160405280600b81526020016a1b5a5b9d0819985a5b195960aa1b815250610baa565b50565b60085481565b6000805460ff1661109d576040805162461bcd60e51b815260206004820152600a6024820152691c994b595b9d195c995960b21b604482015290519081900360640190fd5b6000805460ff191681556110af611763565b146110fa576040805162461bcd60e51b81526020600482015260166024820152751858d8dc9d59481a5b9d195c995cdd0819985a5b195960521b604482015290519081900360640190fd5b6111038261151f565b90505b6000805460ff19166001179055919050565b600d5481565b600080600061112b612709565b9092509050600082600381111561113e57fe5b1461117a5760405162461bcd60e51b8152600401808060200182810382526035815260200180614d836035913960400191505060405180910390fd5b9150505b90565b6000805460ff166111c6576040805162461bcd60e51b815260206004820152600a6024820152691c994b595b9d195c995960b21b604482015290519081900360640190fd5b6000805460ff191681556111dc338686866127b8565b1490506000805460ff191660011790559392505050565b6004546001600160a01b031681565b60035460ff1681565b6000611215614a4d565b6040518060200160405280611228611e98565b90526001600160a01b0384166000908152600e6020526040812054919250908190611254908490612a44565b9092509050600082600381111561126757fe5b146112b9576040805162461bcd60e51b815260206004820152601f60248201527f62616c616e636520636f756c64206e6f742062652063616c63756c6174656400604482015290519081900360640190fd5b949350505050565b60006112cb612a97565b905090565b6000610eb582612ac3565b6005546001600160a01b031681565b600b5481565b60006112fb34612b57565b50905061104f81604051806040016040528060128152602001711c995c185e509bdc9c9bddc819985a5b195960721b815250610baa565b600181565b6000805460ff1661137c576040805162461bcd60e51b815260206004820152600a6024820152691c994b595b9d195c995960b21b604482015290519081900360640190fd5b6000805460ff1916815561138e611763565b905080156113b4576113ac8160108111156113a557fe5b60306122ca565b915050611106565b6113bd83612bd9565b9150506000805460ff19166001179055919050565b60095481565b6001600160a01b03166000908152600e602052604090205490565b6000805460ff16611438576040805162461bcd60e51b815260206004820152600a6024820152691c994b595b9d195c995960b21b604482015290519081900360640190fd5b6000805460ff1916815561144a611763565b14611495576040805162461bcd60e51b81526020600482015260166024820152751858d8dc9d59481a5b9d195c995cdd0819985a5b195960521b604482015290519081900360640190fd5b50600b546000805460ff1916600117905590565b60006114b3612d0c565b610eb582612e25565b600c5481565b600190565b6002805460408051602060018416156101000260001901909316849004601f81018490048402820184019092528181529291830182828015610e465780601f10610e1b57610100808354040283529160200191610e46565b600080600061152d84612ea6565b9092509050600082600381111561154057fe5b1461100b5760405162461bcd60e51b8152600401808060200182810382526037815260200180614cc16037913960400191505060405180910390fd5b60035461010090046001600160a01b031633146115ca5760405162461bcd60e51b8152600401808060200182810382526024815260200180614ba66024913960400191505060405180910390fd5b6009541580156115da5750600a54155b6116155760405162461bcd60e51b8152600401808060200182810382526023815260200180614bca6023913960400191505060405180910390fd5b6007849055836116565760405162461bcd60e51b8152600401808060200182810382526030815260200180614c116030913960400191505060405180910390fd5b600061166187610ebb565b905080156116b6576040805162461bcd60e51b815260206004820152601a60248201527f73657474696e67207269736b4d616e61676572206661696c6564000000000000604482015290519081900360640190fd5b6116be612f5a565b600955670de0b6b3a7640000600a556116d686612f5e565b905080156117155760405162461bcd60e51b8152600401808060200182810382526022815260200180614c416022913960400191505060405180910390fd5b8351611728906001906020870190614a60565b50825161173c906002906020860190614a60565b50506003805460ff90921660ff199283161790556000805490911660011790555050505050565b60008061176e612f5a565b600954909150808214156117875760009250505061117e565b6000611791612a97565b600b54600c54600a54600654604080516315f2405360e01b815260048101879052602481018690526044810185905290519596509394929391926000926001600160a01b03909216916315f24053916064808301926020929190829003018186803b1580156117ff57600080fd5b505afa158015611813573d6000803e3d6000fd5b505050506040513d602081101561182957600080fd5b5051905065048c27395000811115611888576040805162461bcd60e51b815260206004820152601c60248201527f626f72726f772072617465206973206162737572646c79206869676800000000604482015290519081900360640190fd5b60008061189589896130d3565b909250905060008260038111156118a857fe5b146118fa576040805162461bcd60e51b815260206004820152601f60248201527f636f756c64206e6f742063616c63756c61746520626c6f636b2064656c746100604482015290519081900360640190fd5b611902614a4d565b60008060008061192060405180602001604052808a815250876130f6565b9097509450600087600381111561193357fe5b14611965576119506009600689600381111561194b57fe5b61315e565b9e50505050505050505050505050505061117e565b61196f858c612a44565b9097509350600087600381111561198257fe5b1461199a576119506009600189600381111561194b57fe5b6119a4848c6131c4565b909750925060008760038111156119b757fe5b146119cf576119506009600489600381111561194b57fe5b6119ea6040518060200160405280600854815250858c6131ea565b909750915060008760038111156119fd57fe5b14611a15576119506009600589600381111561194b57fe5b611a20858a8b6131ea565b90975090506000876003811115611a3357fe5b14611a4b576119506009600389600381111561194b57fe5b60098e9055600a819055600b839055600c829055604080518d8152602081018690528082018390526060810185905290517f4dec04e750ca11537cabcd8a9eab06494de08da3735bc8871cd41250e190bc049181900360800190a160009e50505050505050505050505050505090565b6000805460ff16611b00576040805162461bcd60e51b815260206004820152600a6024820152691c994b595b9d195c995960b21b604482015290519081900360640190fd5b6000805460ff19168155611b16333386866127b8565b1490506000805460ff1916600117905592915050565b600a5481565b60055460408051637533ed9160e11b815233600482015290516000926001600160a01b03169163ea67db22916024808301926020929190829003018186803b158015611b7d57600080fd5b505afa158015611b91573d6000803e3d6000fd5b505050506040513d6020811015611ba757600080fd5b5051905034811115611bea5760405162461bcd60e51b8152600401808060200182810382526024815260200180614bed6024913960400191505060405180910390fd5b600080611bf734846130d3565b90925090506000826003811115611c0a57fe5b14611c465760405162461bcd60e51b815260040180806020018281038252602e815260200180614de0602e913960400191505060405180910390fd5b60055460408051632174661560e01b815233600482015290516001600160a01b03909216916321746615918691602480830192600092919082900301818588803b158015611c9357600080fd5b505af1158015611ca7573d6000803e3d6000fd5b50505050506000611cb9868387613246565b509050611cf481604051806040016040528060168152602001751b1a5c5d5a59185d19509bdc9c9bddc819985a5b195960521b815250610baa565b505050505050565b6006546000906001600160a01b031663b8168816611d18612a97565b600b54600c546008546040518563ffffffff1660e01b81526004018085815260200184815260200183815260200182815260200194505050505060206040518083038186803b158015611d6a57600080fd5b505afa158015611d7e573d6000803e3d6000fd5b505050506040513d6020811015611d9457600080fd5b5051905090565b6000805460ff16611de0576040805162461bcd60e51b815260206004820152600a6024820152691c994b595b9d195c995960b21b604482015290519081900360640190fd5b6000805460ff19169055611df633858585613378565b90506000805460ff191660011790559392505050565b60035460009061010090046001600160a01b03163314611e3257610ee1600160456122ca565b600480546001600160a01b038481166001600160a01b0319831681179093556040805191909216808252602082019390935281517fca4f2f25d0898edd99413412fb94012f9e54ec8142f9b093e7720646a95b16a9929181900390910190a1600061100b565b6000805460ff16611edd576040805162461bcd60e51b815260206004820152600a6024820152691c994b595b9d195c995960b21b604482015290519081900360640190fd5b6000805460ff19168155611eef611763565b14611f3a576040805162461bcd60e51b81526020600482015260166024820152751858d8dc9d59481a5b9d195c995cdd0819985a5b195960521b604482015290519081900360640190fd5b611f4261111e565b90506000805460ff1916600117905590565b6001600160a01b0381166000908152600e6020526040812054819081908190818080611f7f89612ea6565b935090506000816003811115611f9157fe5b14611faf5760095b975060009650869550859450611fe29350505050565b611fb7612709565b925090506000816003811115611fc957fe5b14611fd5576009611f99565b5060009650919450925090505b9193509193565b6000611ff3612d0c565b610eb582613554565b6000612006612d0c565b610eb5826135d3565b6001600160a01b039182166000908152600f6020908152604080832093909416825291909152205490565b6000612046823461364d565b509050610dbd816040518060400160405280601881526020017f7265706179426f72726f77426568616c66206661696c65640000000000000000815250610baa565b6004546000906001600160a01b0316331415806120a3575033155b156120bb576120b4600160006122ca565b905061117e565b60038054600480546001600160a01b03818116610100818102610100600160a81b0319871617968790556001600160a01b031990931690935560408051948390048216808652929095041660208401528351909391927ff9ffabca9c8276e99321725bcb43fb076a6c66a54b7f21c4e8146d8519b417dc92908290030190a1600454604080516001600160a01b038085168252909216602083015280517fca4f2f25d0898edd99413412fb94012f9e54ec8142f9b093e7720646a95b16a99281900390910190a160009250505090565b600080612196611763565b905080156121bc576121b48160108111156121ad57fe5b60406122ca565b91505061100f565b61100b83612f5e565b6006546001600160a01b031681565b60035461010090046001600160a01b031681565b6006546000906001600160a01b03166315f24053612204612a97565b600b54600c546040518463ffffffff1660e01b815260040180848152602001838152602001828152602001935050505060206040518083038186803b158015611d6a57600080fd5b6000805460ff16612291576040805162461bcd60e51b815260206004820152600a6024820152691c994b595b9d195c995960b21b604482015290519081900360640190fd5b6000805460ff191681556122a3611763565b905080156122c1576113ac8160108111156122ba57fe5b60466122ca565b6113bd836136f8565b60007f45b96fe442630264581b197e84bbada861235052c5a1aadfff9ea4e40a969aa08360108111156122f957fe5b83605081111561230557fe5b604080519283526020830191909152600082820152519081900360600190a182601081111561233057fe5b9392505050565b60055460408051634ef4c3e160e01b81523060048201526001600160a01b03858116602483015260448201859052915160009384938493911691634ef4c3e19160648082019260209290919082900301818787803b15801561239857600080fd5b505af11580156123ac573d6000803e3d6000fd5b505050506040513d60208110156123c257600080fd5b5051905080156123e6576123d96003601f8361315e565b9250600091506127029050565b6123ee612f5a565b60095414612402576123d9600a60226122ca565b61240a614ade565b612412612709565b604083018190526020830182600381111561242957fe5b600381111561243457fe5b905250600090508160200151600381111561244b57fe5b1461247557612467600960218360200151600381111561194b57fe5b935060009250612702915050565b61247f86866137a0565b60c08201819052604080516020810182529083015181526124a0919061383d565b60608301819052602083018260038111156124b757fe5b60038111156124c257fe5b90525060009050816020015160038111156124d957fe5b1461252b576040805162461bcd60e51b815260206004820181905260248201527f4d494e545f45584348414e47455f43414c43554c4154494f4e5f4641494c4544604482015290519081900360640190fd5b61253b600d5482606001516131c4565b608083018190526020830182600381111561255257fe5b600381111561255d57fe5b905250600090508160200151600381111561257457fe5b146125b05760405162461bcd60e51b8152600401808060200182810382526028815260200180614db86028913960400191505060405180910390fd5b6001600160a01b0386166000908152600e602052604090205460608201516125d891906131c4565b60a08301819052602083018260038111156125ef57fe5b60038111156125fa57fe5b905250600090508160200151600381111561261157fe5b1461264d5760405162461bcd60e51b815260040180806020018281038252602b815260200180614c96602b913960400191505060405180910390fd5b6080810151600d5560a08101516001600160a01b0387166000818152600e60209081526040918290209390935560c084015160608086015183519485529484019190915282820193909352517f4c209b5fc8ad50758f13e2e1088ba56a560dff690a1c6fef26394f4c03821c4f929181900390910190a1606081015160408051918252516001600160a01b038816913091600080516020614d328339815191529181900360200190a360c00151600093509150505b9250929050565b600d54600090819080612724575050600754600091506127b4565b600061272e612a97565b9050600061273a614a4d565b600061274b84600b54600c54613854565b93509050600081600381111561275d57fe5b14612772579550600094506127b49350505050565b61277c8386613892565b92509050600081600381111561278e57fe5b146127a3579550600094506127b49350505050565b50516000955093506127b492505050565b9091565b600554604080516317b9b84b60e31b81523060048201526001600160a01b03868116602483015285811660448301526064820185905291516000938493169163bdcdc25891608480830192602092919082900301818787803b15801561281d57600080fd5b505af1158015612831573d6000803e3d6000fd5b505050506040513d602081101561284757600080fd5b5051905080156128665761285e6003604a8361315e565b9150506112b9565b836001600160a01b0316856001600160a01b0316141561288c5761285e6002604b6122ca565b60006001600160a01b0387811690871614156128ab57506000196128d3565b506001600160a01b038086166000908152600f60209081526040808320938a16835292905220545b6000806000806128e385896130d3565b909450925060008460038111156128f657fe5b14612914576129076009604b6122ca565b96505050505050506112b9565b6001600160a01b038a166000908152600e602052604090205461293790896130d3565b9094509150600084600381111561294a57fe5b1461295b576129076009604c6122ca565b6001600160a01b0389166000908152600e602052604090205461297e90896131c4565b9094509050600084600381111561299157fe5b146129a2576129076009604d6122ca565b6001600160a01b03808b166000908152600e6020526040808220859055918b1681522081905560001985146129fa576001600160a01b03808b166000908152600f60209081526040808320938f168352929052208390555b886001600160a01b03168a6001600160a01b0316600080516020614d328339815191528a6040518082815260200191505060405180910390a35060009a9950505050505050505050565b6000806000612a51614a4d565b612a5b86866130f6565b90925090506000826003811115612a6e57fe5b14612a7f5750915060009050612702565b6000612a8a82613943565b9350935050509250929050565b6000806000612aa647346130d3565b90925090506000826003811115612ab957fe5b1461117a57600080fd5b6000805460ff16612b08576040805162461bcd60e51b815260206004820152600a6024820152691c994b595b9d195c995960b21b604482015290519081900360640190fd5b6000805460ff19168155612b1a611763565b90508015612b38576113ac816010811115612b3157fe5b604e6122ca565b612b4183613952565b509150506000805460ff19166001179055919050565b60008054819060ff16612b9e576040805162461bcd60e51b815260206004820152600a6024820152691c994b595b9d195c995960b21b604482015290519081900360640190fd5b6000805460ff19168155612bb0611763565b90508015612bce57610b79816010811115612bc757fe5b60366122ca565b610b90333386613a3a565b600354600090819061010090046001600160a01b03163314612c01576121b4600160316122ca565b612c09612f5a565b60095414612c1d576121b4600a60336122ca565b82612c26612a97565b1015612c38576121b4600e60326122ca565b600c54831115612c4e576121b4600260346122ca565b50600c5482810390811115612c945760405162461bcd60e51b8152600401808060200182810382526024815260200180614e426024913960400191505060405180910390fd5b600c819055600354612cb49061010090046001600160a01b031684613d88565b600354604080516101009092046001600160a01b0316825260208201859052818101839052517f3bad0c59cf2f06e7314077049f48a93578cd16f5ef92329f1dab1420a99c177e916060908290030190a1600061100b565b60055460408051637533ed9160e11b815233600482015290516000926001600160a01b03169163ea67db22916024808301926020929190829003018186803b158015612d5757600080fd5b505afa158015612d6b573d6000803e3d6000fd5b505050506040513d6020811015612d8157600080fd5b5051905034811115612dc45760405162461bcd60e51b8152600401808060200182810382526024815260200180614bed6024913960400191505060405180910390fd5b60055460408051632174661560e01b815233600482015290516001600160a01b03909216916321746615918491602480830192600092919082900301818588803b158015612e1157600080fd5b505af1158015611cf4573d6000803e3d6000fd5b6000805460ff16612e6a576040805162461bcd60e51b815260206004820152600a6024820152691c994b595b9d195c995960b21b604482015290519081900360640190fd5b6000805460ff19168155612e7c611763565b90508015612e9a576113ac816010811115612e9357fe5b60276122ca565b6113bd33600085613dc3565b6001600160a01b038116600090815260106020526040812080548291829182918291612edd575060009450849350612f5592505050565b612eed8160000154600a546141fe565b90945092506000846003811115612f0057fe5b14612f15575091935060009250612f55915050565b612f2383826001015461423d565b90945091506000846003811115612f3657fe5b14612f4b575091935060009250612f55915050565b5060009450925050505b915091565b4390565b600354600090819061010090046001600160a01b03163314612f86576121b4600160426122ca565b612f8e612f5a565b60095414612fa2576121b4600a60416122ca565b600660009054906101000a90046001600160a01b03169050826001600160a01b0316632191f92a6040518163ffffffff1660e01b815260040160206040518083038186803b158015612ff357600080fd5b505afa158015613007573d6000803e3d6000fd5b505050506040513d602081101561301d57600080fd5b5051613070576040805162461bcd60e51b815260206004820152601c60248201527f6d61726b6572206d6574686f642072657475726e65642066616c736500000000604482015290519081900360640190fd5b600680546001600160a01b0319166001600160a01b03858116918217909255604080519284168352602083019190915280517fedffc32e068c7c95dfd4bdfd5c4d939a084d6b11c4199eac8436ed234d72f9269281900390910190a1600061100b565b6000808383116130ea575060009050818303612702565b50600390506000612702565b6000613100614a4d565b6000806131118660000151866141fe565b9092509050600082600381111561312457fe5b1461314357506040805160208101909152600081529092509050612702565b60408051602081019091529081526000969095509350505050565b60007f45b96fe442630264581b197e84bbada861235052c5a1aadfff9ea4e40a969aa084601081111561318d57fe5b84605081111561319957fe5b604080519283526020830191909152818101859052519081900360600190a18360108111156112b957fe5b6000808383018481106131dc57600092509050612702565b506002915060009050612702565b60008060006131f7614a4d565b61320187876130f6565b9092509050600082600381111561321457fe5b14613225575091506000905061323e565b61323761323182613943565b866131c4565b9350935050505b935093915050565b60008054819060ff1661328d576040805162461bcd60e51b815260206004820152600a6024820152691c994b595b9d195c995960b21b604482015290519081900360640190fd5b6000805460ff1916815561329f611763565b905080156132ca576132bd8160108111156132b657fe5b600f6122ca565b9250600091506133619050565b836001600160a01b031663a6afed956040518163ffffffff1660e01b8152600401602060405180830381600087803b15801561330557600080fd5b505af1158015613319573d6000803e3d6000fd5b505050506040513d602081101561332f57600080fd5b50519050801561334f576132bd81601081111561334857fe5b60106122ca565b61335b33878787614268565b92509250505b6000805460ff191660011790559094909350915050565b6005546040805163d02f735160e01b81523060048201526001600160a01b038781166024830152868116604483015285811660648301526084820185905291516000938493169163d02f73519160a480830192602092919082900301818787803b1580156133e557600080fd5b505af11580156133f9573d6000803e3d6000fd5b505050506040513d602081101561340f57600080fd5b5051905080156134265761285e6003601b8361315e565b846001600160a01b0316846001600160a01b0316141561344c5761285e6006601c6122ca565b6001600160a01b0384166000908152600e60205260408120548190819061347390876130d3565b9093509150600083600381111561348657fe5b146134a95761349e6009601a85600381111561194b57fe5b9450505050506112b9565b6001600160a01b0388166000908152600e60205260409020546134cc90876131c4565b909350905060008360038111156134df57fe5b146134f75761349e6009601985600381111561194b57fe5b6001600160a01b038088166000818152600e60209081526040808320879055938c168083529184902085905583518a815293519193600080516020614d32833981519152929081900390910190a360009998505050505050505050565b6000805460ff16613599576040805162461bcd60e51b815260206004820152600a6024820152691c994b595b9d195c995960b21b604482015290519081900360640190fd5b6000805460ff191681556135ab611763565b905080156135c9576113ac8160108111156135c257fe5b60086122ca565b6113bd338461475a565b6000805460ff16613618576040805162461bcd60e51b815260206004820152600a6024820152691c994b595b9d195c995960b21b604482015290519081900360640190fd5b6000805460ff1916815561362a611763565b90508015613641576113ac816010811115612e9357fe5b6113bd33846000613dc3565b60008054819060ff16613694576040805162461bcd60e51b815260206004820152600a6024820152691c994b595b9d195c995960b21b604482015290519081900360640190fd5b6000805460ff191681556136a6611763565b905080156136d1576136c48160108111156136bd57fe5b60356122ca565b9250600091506136e29050565b6136dc338686613a3a565b92509250505b6000805460ff1916600117905590939092509050565b60035460009061010090046001600160a01b0316331461371e57610ee1600160476122ca565b613726612f5a565b6009541461373a57610ee1600a60486122ca565b670de0b6b3a764000082111561375657610ee1600260496122ca565b6008805490839055604080518281526020810185905281517faaa68312e2ea9d50e16af5068410ab56e1a1fd06037b1a35664812c30f821460929181900390910190a1600061100b565b6000336001600160a01b038416146137f1576040805162461bcd60e51b815260206004820152600f60248201526e0e6cadcc8cae440dad2e6dac2e8c6d608b1b604482015290519081900360640190fd5b81341015613837576040805162461bcd60e51b815260206004820152600e60248201526d0ecc2d8eaca40dad2e6dac2e8c6d60931b604482015290519081900360640190fd5b50919050565b600080600061384a614a4d565b612a5b86866149ee565b60008060008061386487876131c4565b9092509050600082600381111561387757fe5b14613888575091506000905061323e565b61323781866130d3565b600061389c614a4d565b6000806138b186670de0b6b3a76400006141fe565b909250905060008260038111156138c457fe5b146138e357506040805160208101909152600081529092509050612702565b6000806138f0838861423d565b9092509050600082600381111561390357fe5b146139265781604051806020016040528060008152509550955050505050612702565b604080516020810190915290815260009890975095505050505050565b51670de0b6b3a7640000900490565b600080600080613960612f5a565b6009541461397f57613974600a604f6122ca565b93509150612f559050565b61398933866137a0565b905080600c54019150600c548210156139e9576040805162461bcd60e51b815260206004820181905260248201527f61646420726573657276657320756e6578706563746564206f766572666c6f77604482015290519081900360640190fd5b600c829055604080513381526020810183905280820184905290517fa91e67c5ea634cd43a12c5a482724b03de01e85ca68702a53d0c2f45cb7c1dc59181900360600190a160009350915050915091565b60055460408051631200453160e11b81523060048201526001600160a01b0386811660248301528581166044830152606482018590529151600093849384939116916324008a629160848082019260209290919082900301818787803b158015613aa357600080fd5b505af1158015613ab7573d6000803e3d6000fd5b505050506040513d6020811015613acd57600080fd5b505190508015613af157613ae4600360388361315e565b92506000915061323e9050565b613af9612f5a565b60095414613b0d57613ae4600a60396122ca565b613b15614b1c565b6001600160a01b0386166000908152601060205260409020600101546060820152613b3f86612ea6565b6080830181905260208301826003811115613b5657fe5b6003811115613b6157fe5b9052506000905081602001516003811115613b7857fe5b14613ba257613b94600960378360200151600381111561194b57fe5b93506000925061323e915050565b600019851415613bbb5760808101516040820152613bc3565b604081018590525b613bd18782604001516137a0565b60e082018190526080820151613be6916130d3565b60a0830181905260208301826003811115613bfd57fe5b6003811115613c0857fe5b9052506000905081602001516003811115613c1f57fe5b14613c5b5760405162461bcd60e51b815260040180806020018281038252603a815260200180614cf8603a913960400191505060405180910390fd5b613c6b600b548260e001516130d3565b60c0830181905260208301826003811115613c8257fe5b6003811115613c8d57fe5b9052506000905081602001516003811115613ca457fe5b14613ce05760405162461bcd60e51b8152600401808060200182810382526031815260200180614d526031913960400191505060405180910390fd5b60a080820180516001600160a01b03808a16600081815260106020908152604091829020948555600a5460019095019490945560c0870151600b81905560e088015195518251948f16855294840192909252828101949094526060820192909252608081019190915290517f1a2a22cb034d26d1854bdc6666a5b91fe25efbbb5dcad3b0355478d6f5c362a1929181900390910190a160e00151600097909650945050505050565b6040516001600160a01b0383169082156108fc029083906000818181858888f19350505050158015613dbe573d6000803e3d6000fd5b505050565b6000821580613dd0575081155b613e0b5760405162461bcd60e51b8152600401808060200182810382526034815260200180614e0e6034913960400191505060405180910390fd5b613e13614ade565b613e1b612709565b6040830181905260208301826003811115613e3257fe5b6003811115613e3d57fe5b9052506000905081602001516003811115613e5457fe5b14613e7857613e706009602b8360200151600381111561194b57fe5b915050612330565b8315613ef9576060810184905260408051602081018252908201518152613e9f9085612a44565b6080830181905260208301826003811115613eb657fe5b6003811115613ec157fe5b9052506000905081602001516003811115613ed857fe5b14613ef457613e70600960298360200151600381111561194b57fe5b613f72565b613f15836040518060200160405280846040015181525061383d565b6060830181905260208301826003811115613f2c57fe5b6003811115613f3757fe5b9052506000905081602001516003811115613f4e57fe5b14613f6a57613e706009602a8360200151600381111561194b57fe5b608081018390525b60055460608201516040805163eabe7d9160e01b81523060048201526001600160a01b03898116602483015260448201939093529051600093929092169163eabe7d919160648082019260209290919082900301818787803b158015613fd757600080fd5b505af1158015613feb573d6000803e3d6000fd5b505050506040513d602081101561400157600080fd5b50519050801561402157614018600360288361315e565b92505050612330565b614029612f5a565b6009541461403d57614018600a602c6122ca565b61404d600d5483606001516130d3565b60a084018190526020840182600381111561406457fe5b600381111561406f57fe5b905250600090508260200151600381111561408657fe5b146140a2576140186009602e8460200151600381111561194b57fe5b6001600160a01b0386166000908152600e602052604090205460608301516140ca91906130d3565b60c08401819052602084018260038111156140e157fe5b60038111156140ec57fe5b905250600090508260200151600381111561410357fe5b1461411f576140186009602d8460200151600381111561194b57fe5b816080015161412c612a97565b101561413e57614018600e602f6122ca565b61414c868360800151613d88565b60a0820151600d5560c08201516001600160a01b0387166000818152600e6020908152604091829020939093556060850151815190815290513093600080516020614d32833981519152928290030190a36080820151606080840151604080516001600160a01b038b168152602081019490945283810191909152517fe5b754fb1abb7f01b499791d0b820ae3b6af3424ac1c59768edb53f4ec31a9299281900390910190a160009695505050505050565b6000808361421157506000905080612702565b8383028385828161421e57fe5b041461423257506002915060009050612702565b600092509050612702565b600080826142515750600190506000612702565b600083858161425c57fe5b04915091509250929050565b60055460408051632fe3f38f60e11b81523060048201526001600160a01b0384811660248301528781166044830152868116606483015260848201869052915160009384938493911691635fc7e71e9160a48082019260209290919082900301818787803b1580156142d957600080fd5b505af11580156142ed573d6000803e3d6000fd5b505050506040513d602081101561430357600080fd5b5051905080156143275761431a600360128361315e565b9250600091506147519050565b61432f612f5a565b600954146143435761431a600a60166122ca565b61434b612f5a565b846001600160a01b0316636c540baf6040518163ffffffff1660e01b815260040160206040518083038186803b15801561438457600080fd5b505afa158015614398573d6000803e3d6000fd5b505050506040513d60208110156143ae57600080fd5b5051146143c15761431a600a60116122ca565b866001600160a01b0316866001600160a01b031614156143e75761431a600660176122ca565b846143f85761431a600760156122ca565b60001985141561440e5761431a600760146122ca565b60008061441c898989613a3a565b9092509050811561444c5761443d82601081111561443657fe5b60186122ca565b94506000935061475192505050565b6005546040805163c488847b60e01b81523060048201526001600160a01b038981166024830152604482018590528251600094859492169263c488847b926064808301939192829003018186803b1580156144a657600080fd5b505afa1580156144ba573d6000803e3d6000fd5b505050506040513d60408110156144d057600080fd5b5080516020909101519092509050811561451b5760405162461bcd60e51b8152600401808060200182810382526033815260200180614c636033913960400191505060405180910390fd5b80886001600160a01b03166370a082318c6040518263ffffffff1660e01b815260040180826001600160a01b03166001600160a01b0316815260200191505060206040518083038186803b15801561457257600080fd5b505afa158015614586573d6000803e3d6000fd5b505050506040513d602081101561459c57600080fd5b505110156145f1576040805162461bcd60e51b815260206004820152601860248201527f4c49515549444154455f5345495a455f544f4f5f4d5543480000000000000000604482015290519081900360640190fd5b60006001600160a01b03891630141561461757614610308d8d85613378565b90506146a1565b6040805163b2a02ff160e01b81526001600160a01b038e811660048301528d81166024830152604482018590529151918b169163b2a02ff1916064808201926020929091908290030181600087803b15801561467257600080fd5b505af1158015614686573d6000803e3d6000fd5b505050506040513d602081101561469c57600080fd5b505190505b80156146eb576040805162461bcd60e51b81526020600482015260146024820152731d1bdad95b881cd95a5e9d5c994819985a5b195960621b604482015290519081900360640190fd5b604080516001600160a01b03808f168252808e1660208301528183018790528b1660608201526080810184905290517f298637f684da70674f26509b10f07ec2fbc77a335ab1e7d6215a4b2484d8bb529181900360a00190a16000975092955050505050505b94509492505050565b6005546040805163368f515360e21b81523060048201526001600160a01b0385811660248301526044820185905291516000938493169163da3d454c91606480830192602092919082900301818787803b1580156147b757600080fd5b505af11580156147cb573d6000803e3d6000fd5b505050506040513d60208110156147e157600080fd5b505190508015614800576147f86003600e8361315e565b915050610eb5565b614808612f5a565b6009541461481b576147f8600a806122ca565b82614824612a97565b1015614836576147f8600e60096122ca565b61483e614b62565b61484785612ea6565b602083018190528282600381111561485b57fe5b600381111561486657fe5b905250600090508151600381111561487a57fe5b1461489f57614896600960078360000151600381111561194b57fe5b92505050610eb5565b6148ad8160200151856131c4565b60408301819052828260038111156148c157fe5b60038111156148cc57fe5b90525060009050815160038111156148e057fe5b146148fc576148966009600c8360000151600381111561194b57fe5b614908600b54856131c4565b606083018190528282600381111561491c57fe5b600381111561492757fe5b905250600090508151600381111561493b57fe5b14614957576148966009600b8360000151600381111561194b57fe5b6149618585613d88565b604080820180516001600160a01b03881660008181526010602090815290859020928355600a54600190930192909255606080860151600b81905593518551928352928201899052818501929092529081019190915290517f13ed6866d4e1ee6da46f845c46d7e54120883d75c5ea9a2dacc1c4ca8984ab809181900360800190a1600095945050505050565b60006149f8614a4d565b600080614a0d670de0b6b3a7640000876141fe565b90925090506000826003811115614a2057fe5b14614a3f57506040805160208101909152600081529092509050612702565b612a8a818660000151613892565b6040518060200160405280600081525090565b828054600181600116156101000203166002900490600052602060002090601f016020900481019282601f10614aa157805160ff1916838001178555614ace565b82800160010185558215614ace579182015b82811115614ace578251825591602001919060010190614ab3565b50614ada929150614b8b565b5090565b6040805160e0810190915280600081526020016000815260200160008152602001600081526020016000815260200160008152602001600081525090565b6040805161010081019091528060008152602001600081526020016000815260200160008152602001600081526020016000815260200160008152602001600081525090565b604080516080810190915280600081526020016000815260200160008152602001600081525090565b61117e91905b80821115614ada5760008155600101614b9156fe6f6e6c792061646d696e206d617920696e697469616c697a6520746865206d61726b65746d61726b6574206d6179206f6e6c7920626520696e697469616c697a6564206f6e63654e6f20656e6f7567682076616c756520746f20706179207072696365206f7261636c652e696e697469616c2065786368616e67652072617465206d7573742062652067726561746572207468616e207a65726f2e73657474696e6720696e7465726573742072617465206d6f64656c206661696c65644c49515549444154455f5249534b4d414e414745525f43414c43554c4154455f414d4f554e545f5345495a455f4641494c45444d494e545f4e45575f4143434f554e545f42414c414e43455f43414c43554c4154494f4e5f4641494c4544626f72726f7742616c616e636553746f7265643a20626f72726f7742616c616e636553746f726564496e7465726e616c206661696c656452455041595f424f52524f575f4e45575f4143434f554e545f424f52524f575f42414c414e43455f43414c43554c4154494f4e5f4641494c4544ddf252ad1be2c89b69c2b068fc378daa952ba7f163c4a11628f55a4df523b3ef52455041595f424f52524f575f4e45575f544f54414c5f42414c414e43455f43414c43554c4154494f4e5f4641494c454465786368616e67655261746553746f7265643a2065786368616e67655261746553746f726564496e7465726e616c206661696c65644d494e545f4e45575f544f54414c5f535550504c595f43414c43554c4154494f4e5f4641494c45446c6971756964617465426f72726f77206661696c656420746f20737562747261637420707269636520636f73742e6f6e65206f662072656465656d546f6b656e73496e206f722072656465656d416d6f756e74496e206d757374206265207a65726f72656475636520726573657276657320756e657870656374656420756e646572666c6f77a26469706673582212201cbdbd07879c4f4a728e7cb2c5dda5535bf779fea66ab59e8ce7a2fb6986260864736f6c634300060900336f6e6c792061646d696e206d617920696e697469616c697a6520746865206d61726b65746d61726b6574206d6179206f6e6c7920626520696e697469616c697a6564206f6e6365696e697469616c2065786368616e67652072617465206d7573742062652067726561746572207468616e207a65726f2e73657474696e6720696e7465726573742072617465206d6f64656c206661696c6564",
  "immutableReferences": {},
  "source": "// SPDX-License-Identifier: UNLICENSED\npragma solidity ^0.6.9;\n\nimport \"../tokenization/PToken.sol\";\n\ncontract PEther is PToken {\n    /**\n     * @notice Construct a new PEther money market\n     * @param riskManager_ The address of the RiskManager\n     * @param interestRateModel_ The address of the interest rate model\n     * @param initialExchangeRateMantissa_ The initial exchange rate, scaled by 1e18\n     * @param name_ ERC-20 name of this token\n     * @param symbol_ ERC-20 symbol of this token\n     * @param decimals_ ERC-20 decimal precision of this token\n     * @param admin_ Address of the administrator of this token\n     */\n    constructor(IRiskManager riskManager_,\n                InterestRateModel interestRateModel_,\n                uint initialExchangeRateMantissa_,\n                string memory name_,\n                string memory symbol_,\n                uint8 decimals_,\n                address payable admin_) public {\n        // Creator of the contract is admin during initialization\n        admin = msg.sender;\n\n        initialize(riskManager_, interestRateModel_, initialExchangeRateMantissa_, name_, symbol_, decimals_);\n\n        // Set the proper admin now that initialization is done\n        admin = admin_;\n    }\n\n\n    /*** User Interface ***/\n\n    /**\n     * @notice Sender supplies assets into the market and receives PTokens in exchange\n     * @dev Reverts upon any failure\n     */\n    function mint() external payable {\n        (uint err,) = mintInternal(msg.value);\n        requireNoError(err, \"mint failed\");\n    }\n\n    /**\n     * @notice Sender redeems PTokens in exchange for the underlying asset\n     * @dev Accrues interest whether or not the operation succeeds, unless reverted\n     * @param redeemTokens The number of PTokens to redeem into underlying\n     * @return uint 0=success, otherwise a failure (see ErrorReporter.sol for details)\n     */\n    function redeem(uint redeemTokens) external payable returns (uint) {\n        updateTokenPrice();\n        return redeemInternal(redeemTokens);\n    }\n\n    /**\n     * @notice Sender redeems PTokens in exchange for a specified amount of underlying asset\n     * @dev Accrues interest whether or not the operation succeeds, unless reverted\n     * @param redeemAmount The amount of underlying to redeem\n     * @return uint 0=success, otherwise a failure (see ErrorReporter.sol for details)\n     */\n    function redeemUnderlying(uint redeemAmount) external payable returns (uint) {\n        updateTokenPrice();\n        return redeemUnderlyingInternal(redeemAmount);\n    }\n\n    /**\n      * @notice Sender borrows assets from the protocol to their own address\n      * @param borrowAmount The amount of the underlying asset to borrow\n      * @return uint 0=success, otherwise a failure (see ErrorReporter.sol for details)\n      */\n    function borrow(uint borrowAmount) external payable returns (uint) {\n        updateTokenPrice();\n        return borrowInternal(borrowAmount);\n    }\n\n    /**\n     * @notice Sender repays their own borrow\n     * @dev Reverts upon any failure\n     */\n    function repayBorrow() external payable {\n        (uint err,) = repayBorrowInternal(msg.value);\n        requireNoError(err, \"repayBorrow failed\");\n    }\n\n    /**\n     * @notice Sender repays a borrow belonging to borrower\n     * @dev Reverts upon any failure\n     * @param borrower the account with the debt being payed off\n     */\n    function repayBorrowBehalf(address borrower) external payable {\n        (uint err,) = repayBorrowBehalfInternal(borrower, msg.value);\n        requireNoError(err, \"repayBorrowBehalf failed\");\n    }\n\n    /**\n     * @notice The sender liquidates the borrowers collateral.\n     *  The collateral seized is transferred to the liquidator.\n     * @dev Reverts upon any failure\n     * @param borrower The borrower of this PToken to be liquidated\n     * @param pTokenCollateral The market in which to seize collateral from the borrower\n     */\n    function liquidateBorrow(address borrower, PToken pTokenCollateral) external payable {\n        uint256 priceCost = riskManager.getPriceCost(msg.sender);\n        require(msg.value >= priceCost, \"No enough value to pay price oracle.\");\n        (MathError mathErr, uint256 repayAmount) = subUInt(msg.value, priceCost);\n        require(mathErr == MathError.NO_ERROR, \"liquidateBorrow failed to subtract price cost.\");\n        riskManager.updateTokenPrice{value: priceCost}(msg.sender);\n        (uint err,) = liquidateBorrowInternal(borrower, repayAmount, pTokenCollateral);\n        requireNoError(err, \"liquidateBorrow failed\");\n    }\n\n    /**\n     * @notice Send Ether to PEther to mint\n     */\n    receive() external payable {\n        (uint err,) = mintInternal(msg.value);\n        requireNoError(err, \"mint failed\");\n    }\n\n    /*** Safe Token ***/\n\n    /**\n     * @notice Gets balance of this contract in terms of Ether, before this message\n     * @dev This excludes the value of the current message, if any\n     * @return The quantity of Ether owned by this contract\n     */\n    function getCashPrior() internal override view returns (uint) {\n        (MathError err, uint startingBalance) = subUInt(address(this).balance, msg.value);\n        require(err == MathError.NO_ERROR);\n        return startingBalance;\n    }\n\n    function _addReserves(uint addAmount) external payable returns (uint) {\n        return _addReservesInternal(addAmount);\n    }\n\n    function isForETH() public view override returns (bool) {\n        return true;\n    }\n\n    /**\n     * @notice Perform the actual transfer in, which is a no-op\n     * @param from Address sending the Ether\n     * @param amount Amount of Ether being sent\n     * @return The actual amount of Ether transferred\n     */\n    function doTransferIn(address from, uint amount) internal override returns (uint) {\n        // Sanity checks\n        require(msg.sender == from, \"sender mismatch\");\n        require(msg.value >= amount, \"value mismatch\");\n        return amount;\n    }\n\n    function doTransferOut(address payable to, uint amount) internal override {\n        /* Send the Ether, with minimal gas and revert on failure */\n        to.transfer(amount);\n    }\n\n    function requireNoError(uint errCode, string memory message) internal pure {\n        if (errCode == uint(Error.NO_ERROR)) {\n            return;\n        }\n\n        bytes memory fullMessage = new bytes(bytes(message).length + 5);\n        uint i;\n\n        for (i = 0; i < bytes(message).length; i++) {\n            fullMessage[i] = bytes(message)[i];\n        }\n\n        fullMessage[i+0] = byte(uint8(32));\n        fullMessage[i+1] = byte(uint8(40));\n        fullMessage[i+2] = byte(uint8(48 + ( errCode / 10 )));\n        fullMessage[i+3] = byte(uint8(48 + ( errCode % 10 )));\n        fullMessage[i+4] = byte(uint8(41));\n\n        require(errCode == uint(Error.NO_ERROR), string(fullMessage));\n    }\n\n    function updateTokenPrice() internal {\n        uint priceCost = riskManager.getPriceCost(msg.sender);\n        require(msg.value >= priceCost, \"No enough value to pay price oracle.\");\n        riskManager.updateTokenPrice{value: priceCost}(msg.sender);\n    }\n}\n",
  "sourcePath": "/home/plutoadmin/stamen-contracts/contracts/tokenization/PEther.sol",
  "compiler": {
    "name": "solc",
    "version": "0.6.9+commit.3e3065ac.Emscripten.clang"
  },
  "schemaVersion": "3.3.1",
  "updatedAt": "2020-11-13T09:04:24.476Z",
  "networkType": "ethereum",
  "devdoc": {
    "methods": {
      "_acceptAdmin()": {
        "details": "Admin function for pending admin to accept role and update admin",
        "returns": {
          "_0": "uint 0=success, otherwise a failure (see ErrorReporter.sol for details)"
        }
      },
      "_reduceReserves(uint256)": {
        "params": {
          "reduceAmount": "Amount of reduction to reserves"
        },
        "returns": {
          "_0": "uint 0=success, otherwise a failure (see ErrorReporter.sol for details)"
        }
      },
      "_setInterestRateModel(address)": {
        "details": "Admin function to accrue interest and update the interest rate model",
        "params": {
          "newInterestRateModel": "the new interest rate model to use"
        },
        "returns": {
          "_0": "uint 0=success, otherwise a failure (see ErrorReporter.sol for details)"
        }
      },
      "_setPendingAdmin(address)": {
        "details": "Admin function to begin change of admin. The newPendingAdmin must call `_acceptAdmin` to finalize the transfer.",
        "params": {
          "newPendingAdmin": "New pending admin."
        },
        "returns": {
          "_0": "uint 0=success, otherwise a failure (see ErrorReporter.sol for details)"
        }
      },
      "_setReserveFactor(uint256)": {
        "details": "Admin function to accrue interest and set a new reserve factor",
        "returns": {
          "_0": "uint 0=success, otherwise a failure (see ErrorReporter.sol for details)"
        }
      },
      "_setRiskManager(address)": {
        "details": "Admin function to set a new riskManager",
        "returns": {
          "_0": "uint 0=success, otherwise a failure (see ErrorReporter.sol for details)"
        }
      },
      "accrueInterest()": {
        "details": "This calculates interest accrued from the last checkpointed block   up to the current block and writes new checkpoint to storage."
      },
      "allowance(address,address)": {
        "params": {
          "owner": "The address of the account which owns the tokens to be spent",
          "spender": "The address of the account which may transfer tokens"
        },
        "returns": {
          "_0": "The number of tokens allowed to be spent (-1 means infinite)"
        }
      },
      "approve(address,uint256)": {
        "details": "This will overwrite the approval amount for `spender`  and is subject to issues noted [here](https://eips.ethereum.org/EIPS/eip-20#approve)",
        "params": {
          "amount": "The number of tokens that are approved (-1 means infinite)",
          "spender": "The address of the account which may transfer tokens"
        },
        "returns": {
          "_0": "Whether or not the approval succeeded"
        }
      },
      "balanceOf(address)": {
        "params": {
          "owner": "The address of the account to query"
        },
        "returns": {
          "_0": "The number of tokens owned by `owner`"
        }
      },
      "balanceOfUnderlying(address)": {
        "details": "This also accrues interest in a transaction",
        "params": {
          "owner": "The address of the account to query"
        },
        "returns": {
          "_0": "The amount of underlying owned by `owner`"
        }
      },
      "borrow(uint256)": {
        "params": {
          "borrowAmount": "The amount of the underlying asset to borrow"
        },
        "returns": {
          "_0": "uint 0=success, otherwise a failure (see ErrorReporter.sol for details)"
        }
      },
      "borrowBalanceCurrent(address)": {
        "params": {
          "account": "The address whose balance should be calculated after updating borrowIndex"
        },
        "returns": {
          "_0": "The calculated balance"
        }
      },
      "borrowBalanceStored(address)": {
        "params": {
          "account": "The address whose balance should be calculated"
        },
        "returns": {
          "_0": "The calculated balance"
        }
      },
      "borrowRatePerBlock()": {
        "returns": {
          "_0": "The borrow interest rate per block, scaled by 1e18"
        }
      },
      "constructor": {
        "params": {
          "admin_": "Address of the administrator of this token",
          "decimals_": "ERC-20 decimal precision of this token",
          "initialExchangeRateMantissa_": "The initial exchange rate, scaled by 1e18",
          "interestRateModel_": "The address of the interest rate model",
          "name_": "ERC-20 name of this token",
          "riskManager_": "The address of the RiskManager",
          "symbol_": "ERC-20 symbol of this token"
        }
      },
      "exchangeRateCurrent()": {
        "returns": {
          "_0": "Calculated exchange rate scaled by 1e18"
        }
      },
      "exchangeRateStored()": {
        "details": "This function does not accrue interest before calculating the exchange rate",
        "returns": {
          "_0": "Calculated exchange rate scaled by 1e18"
        }
      },
      "getAccountSnapshot(address)": {
        "details": "This is used by riskManager to more efficiently perform liquidity checks.",
        "params": {
          "account": "Address of the account to snapshot"
        },
        "returns": {
          "_0": "(possible error, token balance, borrow balance, exchange rate mantissa)"
        }
      },
      "getCash()": {
        "returns": {
          "_0": "The quantity of underlying asset owned by this contract"
        }
      },
      "initialize(address,address,uint256,string,string,uint8)": {
        "params": {
          "decimals_": "EIP-20 decimal precision of this token",
          "initialExchangeRateMantissa_": "The initial exchange rate, scaled by 1e18",
          "interestRateModel_": "",
          "name_": "EIP-20 name of this token",
          "riskManager_": "controller ",
          "symbol_": "EIP-20 symbol of this token"
        }
      },
      "liquidateBorrow(address,address)": {
        "details": "Reverts upon any failure",
        "params": {
          "borrower": "The borrower of this PToken to be liquidated",
          "pTokenCollateral": "The market in which to seize collateral from the borrower"
        }
      },
      "mint()": {
        "details": "Reverts upon any failure"
      },
      "redeem(uint256)": {
        "details": "Accrues interest whether or not the operation succeeds, unless reverted",
        "params": {
          "redeemTokens": "The number of PTokens to redeem into underlying"
        },
        "returns": {
          "_0": "uint 0=success, otherwise a failure (see ErrorReporter.sol for details)"
        }
      },
      "redeemUnderlying(uint256)": {
        "details": "Accrues interest whether or not the operation succeeds, unless reverted",
        "params": {
          "redeemAmount": "The amount of underlying to redeem"
        },
        "returns": {
          "_0": "uint 0=success, otherwise a failure (see ErrorReporter.sol for details)"
        }
      },
      "repayBorrow()": {
        "details": "Reverts upon any failure"
      },
      "repayBorrowBehalf(address)": {
        "details": "Reverts upon any failure",
        "params": {
          "borrower": "the account with the debt being payed off"
        }
      },
      "seize(address,address,uint256)": {
        "details": "Will fail unless called by another pToken during the process of liquidation.  Its absolutely critical to use msg.sender as the borrowed pToken and not a parameter.",
        "params": {
          "borrower": "The account having collateral seized",
          "liquidator": "The account receiving seized collateral",
          "seizeTokens": "The number of pTokens to seize"
        },
        "returns": {
          "_0": "uint 0=success, otherwise a failure (see ErrorReporter.sol for details)"
        }
      },
      "supplyRatePerBlock()": {
        "returns": {
          "_0": "The supply interest rate per block, scaled by 1e18"
        }
      },
      "totalBorrowsCurrent()": {
        "returns": {
          "_0": "The total borrows with interest"
        }
      },
      "transfer(address,uint256)": {
        "params": {
          "amount": "The number of tokens to transfer",
          "dst": "The address of the destination account"
        },
        "returns": {
          "_0": "Whether or not the transfer succeeded"
        }
      },
      "transferFrom(address,address,uint256)": {
        "params": {
          "amount": "The number of tokens to transfer",
          "dst": "The address of the destination account",
          "src": "The address of the source account"
        },
        "returns": {
          "_0": "Whether or not the transfer succeeded"
        }
      }
    }
  },
  "userdoc": {
    "methods": {
      "_acceptAdmin()": {
        "notice": "Accepts transfer of admin rights. msg.sender must be pendingAdmin"
      },
      "_reduceReserves(uint256)": {
        "notice": "Accrues interest and reduces reserves by transferring to admin"
      },
      "_setInterestRateModel(address)": {
        "notice": "accrues interest and updates the interest rate model using _setInterestRateModelFresh"
      },
      "_setPendingAdmin(address)": {
        "notice": "Begins transfer of admin rights. The newPendingAdmin must call `_acceptAdmin` to finalize the transfer."
      },
      "_setReserveFactor(uint256)": {
        "notice": "accrues interest and sets a new reserve factor for the protocol using _setReserveFactorFresh"
      },
      "_setRiskManager(address)": {
        "notice": "Sets a new riskManager for the market"
      },
      "accrualBlockNumber()": {
        "notice": "Block number that interest was last accrued at"
      },
      "accrueInterest()": {
        "notice": "Applies accrued interest to total borrows and reserves"
      },
      "admin()": {
        "notice": "Administrator for this contract"
      },
      "allowance(address,address)": {
        "notice": "Get the current allowance from `owner` for `spender`"
      },
      "approve(address,uint256)": {
        "notice": "Approve `spender` to transfer up to `amount` from `src`"
      },
      "balanceOf(address)": {
        "notice": "Get the token balance of the `owner`"
      },
      "balanceOfUnderlying(address)": {
        "notice": "Get the underlying balance of the `owner`"
      },
      "borrow(uint256)": {
        "notice": "Sender borrows assets from the protocol to their own address"
      },
      "borrowBalanceCurrent(address)": {
        "notice": "Accrue interest to updated borrowIndex and then calculate account's borrow balance using the updated borrowIndex"
      },
      "borrowBalanceStored(address)": {
        "notice": "Return the borrow balance of account based on stored data"
      },
      "borrowIndex()": {
        "notice": "Accumulator of the total earned interest rate since the opening of the market"
      },
      "borrowRatePerBlock()": {
        "notice": "Returns the current per-block borrow interest rate for this pToken"
      },
      "constructor": "Construct a new PEther money market",
      "decimals()": {
        "notice": "EIP-20 token decimals for this token"
      },
      "exchangeRateCurrent()": {
        "notice": "Accrue interest then return the up-to-date exchange rate"
      },
      "exchangeRateStored()": {
        "notice": "Calculates the exchange rate from the underlying to the pToken"
      },
      "getAccountSnapshot(address)": {
        "notice": "Get a snapshot of the account's balances, and the cached exchange rate"
      },
      "getCash()": {
        "notice": "Get cash balance of this pToken in the underlying asset"
      },
      "initialize(address,address,uint256,string,string,uint8)": {
        "notice": ""
      },
      "interestRateModel()": {
        "notice": "Model which tells what the current interest rate should be"
      },
      "isPToken()": {
        "notice": "Indicator that this is a PToken contract (for inspection)"
      },
      "liquidateBorrow(address,address)": {
        "notice": "The sender liquidates the borrowers collateral.  The collateral seized is transferred to the liquidator."
      },
      "mint()": {
        "notice": "Sender supplies assets into the market and receives PTokens in exchange"
      },
      "name()": {
        "notice": "EIP-20 token name for this token"
      },
      "pendingAdmin()": {
        "notice": "Pending administrator for this contract"
      },
      "redeem(uint256)": {
        "notice": "Sender redeems PTokens in exchange for the underlying asset"
      },
      "redeemUnderlying(uint256)": {
        "notice": "Sender redeems PTokens in exchange for a specified amount of underlying asset"
      },
      "repayBorrow()": {
        "notice": "Sender repays their own borrow"
      },
      "repayBorrowBehalf(address)": {
        "notice": "Sender repays a borrow belonging to borrower"
      },
      "reserveFactorMantissa()": {
        "notice": "Fraction of interest currently set aside for reserves"
      },
      "riskManager()": {
        "notice": "Contract which oversees inter-pToken operations"
      },
      "seize(address,address,uint256)": {
        "notice": "Transfers collateral tokens (this market) to the liquidator."
      },
      "supplyRatePerBlock()": {
        "notice": "Returns the current per-block supply interest rate for this pToken"
      },
      "symbol()": {
        "notice": "EIP-20 token symbol for this token"
      },
      "totalBorrows()": {
        "notice": "Total amount of outstanding borrows of the underlying in this market"
      },
      "totalBorrowsCurrent()": {
        "notice": "Returns the current total borrows plus accrued interest"
      },
      "totalReserves()": {
        "notice": "Total amount of reserves of the underlying held in this market"
      },
      "totalSupply()": {
        "notice": "Total number of tokens in circulation"
      },
      "transfer(address,uint256)": {
        "notice": "Transfer `amount` tokens from `msg.sender` to `dst`"
      },
      "transferFrom(address,address,uint256)": {
        "notice": "Transfer `amount` tokens from `src` to `dst`"
      }
    }
  }
}