{
  "contractName": "PEther",
  "abi": [
    {
      "inputs": [
        {
          "internalType": "contract IRiskManager",
          "name": "riskManager_",
          "type": "address"
        },
        {
          "internalType": "contract InterestRateModel",
          "name": "interestRateModel_",
          "type": "address"
        },
        {
          "internalType": "uint256",
          "name": "initialExchangeRateMantissa_",
          "type": "uint256"
        },
        {
          "internalType": "string",
          "name": "name_",
          "type": "string"
        },
        {
          "internalType": "string",
          "name": "symbol_",
          "type": "string"
        },
        {
          "internalType": "uint8",
          "name": "decimals_",
          "type": "uint8"
        },
        {
          "internalType": "address payable",
          "name": "admin_",
          "type": "address"
        }
      ],
      "stateMutability": "nonpayable",
      "type": "constructor"
    },
    {
      "anonymous": false,
      "inputs": [
        {
          "indexed": false,
          "internalType": "uint256",
          "name": "cashPrior",
          "type": "uint256"
        },
        {
          "indexed": false,
          "internalType": "uint256",
          "name": "interestAccumulated",
          "type": "uint256"
        },
        {
          "indexed": false,
          "internalType": "uint256",
          "name": "borrowIndex",
          "type": "uint256"
        },
        {
          "indexed": false,
          "internalType": "uint256",
          "name": "totalBorrows",
          "type": "uint256"
        }
      ],
      "name": "AccrueInterest",
      "type": "event"
    },
    {
      "anonymous": false,
      "inputs": [
        {
          "indexed": true,
          "internalType": "address",
          "name": "owner",
          "type": "address"
        },
        {
          "indexed": true,
          "internalType": "address",
          "name": "spender",
          "type": "address"
        },
        {
          "indexed": false,
          "internalType": "uint256",
          "name": "amount",
          "type": "uint256"
        }
      ],
      "name": "Approval",
      "type": "event"
    },
    {
      "anonymous": false,
      "inputs": [
        {
          "indexed": false,
          "internalType": "address",
          "name": "borrower",
          "type": "address"
        },
        {
          "indexed": false,
          "internalType": "uint256",
          "name": "borrowAmount",
          "type": "uint256"
        },
        {
          "indexed": false,
          "internalType": "uint256",
          "name": "accountBorrows",
          "type": "uint256"
        },
        {
          "indexed": false,
          "internalType": "uint256",
          "name": "totalBorrows",
          "type": "uint256"
        }
      ],
      "name": "Borrow",
      "type": "event"
    },
    {
      "anonymous": false,
      "inputs": [
        {
          "indexed": false,
          "internalType": "uint256",
          "name": "error",
          "type": "uint256"
        },
        {
          "indexed": false,
          "internalType": "uint256",
          "name": "info",
          "type": "uint256"
        },
        {
          "indexed": false,
          "internalType": "uint256",
          "name": "detail",
          "type": "uint256"
        }
      ],
      "name": "Failure",
      "type": "event"
    },
    {
      "anonymous": false,
      "inputs": [
        {
          "indexed": false,
          "internalType": "address",
          "name": "liquidator",
          "type": "address"
        },
        {
          "indexed": false,
          "internalType": "address",
          "name": "borrower",
          "type": "address"
        },
        {
          "indexed": false,
          "internalType": "uint256",
          "name": "repayAmount",
          "type": "uint256"
        },
        {
          "indexed": false,
          "internalType": "address",
          "name": "pTokenCollateral",
          "type": "address"
        },
        {
          "indexed": false,
          "internalType": "uint256",
          "name": "seizeTokens",
          "type": "uint256"
        }
      ],
      "name": "LiquidateBorrow",
      "type": "event"
    },
    {
      "anonymous": false,
      "inputs": [
        {
          "indexed": false,
          "internalType": "address",
          "name": "minter",
          "type": "address"
        },
        {
          "indexed": false,
          "internalType": "uint256",
          "name": "mintAmount",
          "type": "uint256"
        },
        {
          "indexed": false,
          "internalType": "uint256",
          "name": "mintTokens",
          "type": "uint256"
        }
      ],
      "name": "Mint",
      "type": "event"
    },
    {
      "anonymous": false,
      "inputs": [
        {
          "indexed": false,
          "internalType": "address",
          "name": "oldAdmin",
          "type": "address"
        },
        {
          "indexed": false,
          "internalType": "address",
          "name": "newAdmin",
          "type": "address"
        }
      ],
      "name": "NewAdmin",
      "type": "event"
    },
    {
      "anonymous": false,
      "inputs": [
        {
          "indexed": false,
          "internalType": "contract InterestRateModel",
          "name": "oldInterestRateModel",
          "type": "address"
        },
        {
          "indexed": false,
          "internalType": "contract InterestRateModel",
          "name": "newInterestRateModel",
          "type": "address"
        }
      ],
      "name": "NewMarketInterestRateModel",
      "type": "event"
    },
    {
      "anonymous": false,
      "inputs": [
        {
          "indexed": false,
          "internalType": "address",
          "name": "oldPendingAdmin",
          "type": "address"
        },
        {
          "indexed": false,
          "internalType": "address",
          "name": "newPendingAdmin",
          "type": "address"
        }
      ],
      "name": "NewPendingAdmin",
      "type": "event"
    },
    {
      "anonymous": false,
      "inputs": [
        {
          "indexed": false,
          "internalType": "uint256",
          "name": "oldReserveFactorMantissa",
          "type": "uint256"
        },
        {
          "indexed": false,
          "internalType": "uint256",
          "name": "newReserveFactorMantissa",
          "type": "uint256"
        }
      ],
      "name": "NewReserveFactor",
      "type": "event"
    },
    {
      "anonymous": false,
      "inputs": [
        {
          "indexed": false,
          "internalType": "contract IRiskManager",
          "name": "oldRiskManager",
          "type": "address"
        },
        {
          "indexed": false,
          "internalType": "contract IRiskManager",
          "name": "newRiskManager",
          "type": "address"
        }
      ],
      "name": "NewRiskManager",
      "type": "event"
    },
    {
      "anonymous": false,
      "inputs": [
        {
          "indexed": false,
          "internalType": "address",
          "name": "redeemer",
          "type": "address"
        },
        {
          "indexed": false,
          "internalType": "uint256",
          "name": "redeemAmount",
          "type": "uint256"
        },
        {
          "indexed": false,
          "internalType": "uint256",
          "name": "redeemTokens",
          "type": "uint256"
        }
      ],
      "name": "Redeem",
      "type": "event"
    },
    {
      "anonymous": false,
      "inputs": [
        {
          "indexed": false,
          "internalType": "address",
          "name": "payer",
          "type": "address"
        },
        {
          "indexed": false,
          "internalType": "address",
          "name": "borrower",
          "type": "address"
        },
        {
          "indexed": false,
          "internalType": "uint256",
          "name": "repayAmount",
          "type": "uint256"
        },
        {
          "indexed": false,
          "internalType": "uint256",
          "name": "accountBorrows",
          "type": "uint256"
        },
        {
          "indexed": false,
          "internalType": "uint256",
          "name": "totalBorrows",
          "type": "uint256"
        }
      ],
      "name": "RepayBorrow",
      "type": "event"
    },
    {
      "anonymous": false,
      "inputs": [
        {
          "indexed": false,
          "internalType": "address",
          "name": "benefactor",
          "type": "address"
        },
        {
          "indexed": false,
          "internalType": "uint256",
          "name": "addAmount",
          "type": "uint256"
        },
        {
          "indexed": false,
          "internalType": "uint256",
          "name": "newTotalReserves",
          "type": "uint256"
        }
      ],
      "name": "ReservesAdded",
      "type": "event"
    },
    {
      "anonymous": false,
      "inputs": [
        {
          "indexed": false,
          "internalType": "address",
          "name": "admin",
          "type": "address"
        },
        {
          "indexed": false,
          "internalType": "uint256",
          "name": "reduceAmount",
          "type": "uint256"
        },
        {
          "indexed": false,
          "internalType": "uint256",
          "name": "newTotalReserves",
          "type": "uint256"
        }
      ],
      "name": "ReservesReduced",
      "type": "event"
    },
    {
      "anonymous": false,
      "inputs": [
        {
          "indexed": true,
          "internalType": "address",
          "name": "from",
          "type": "address"
        },
        {
          "indexed": true,
          "internalType": "address",
          "name": "to",
          "type": "address"
        },
        {
          "indexed": false,
          "internalType": "uint256",
          "name": "amount",
          "type": "uint256"
        }
      ],
      "name": "Transfer",
      "type": "event"
    },
    {
      "inputs": [],
      "name": "_acceptAdmin",
      "outputs": [
        {
          "internalType": "uint256",
          "name": "",
          "type": "uint256"
        }
      ],
      "stateMutability": "nonpayable",
      "type": "function"
    },
    {
      "inputs": [
        {
          "internalType": "uint256",
          "name": "reduceAmount",
          "type": "uint256"
        }
      ],
      "name": "_reduceReserves",
      "outputs": [
        {
          "internalType": "uint256",
          "name": "",
          "type": "uint256"
        }
      ],
      "stateMutability": "nonpayable",
      "type": "function"
    },
    {
      "inputs": [
        {
          "internalType": "contract InterestRateModel",
          "name": "newInterestRateModel",
          "type": "address"
        }
      ],
      "name": "_setInterestRateModel",
      "outputs": [
        {
          "internalType": "uint256",
          "name": "",
          "type": "uint256"
        }
      ],
      "stateMutability": "nonpayable",
      "type": "function"
    },
    {
      "inputs": [
        {
          "internalType": "address payable",
          "name": "newPendingAdmin",
          "type": "address"
        }
      ],
      "name": "_setPendingAdmin",
      "outputs": [
        {
          "internalType": "uint256",
          "name": "",
          "type": "uint256"
        }
      ],
      "stateMutability": "nonpayable",
      "type": "function"
    },
    {
      "inputs": [
        {
          "internalType": "uint256",
          "name": "newReserveFactorMantissa",
          "type": "uint256"
        }
      ],
      "name": "_setReserveFactor",
      "outputs": [
        {
          "internalType": "uint256",
          "name": "",
          "type": "uint256"
        }
      ],
      "stateMutability": "nonpayable",
      "type": "function"
    },
    {
      "inputs": [
        {
          "internalType": "contract IRiskManager",
          "name": "newRiskManager",
          "type": "address"
        }
      ],
      "name": "_setRiskManager",
      "outputs": [
        {
          "internalType": "uint256",
          "name": "",
          "type": "uint256"
        }
      ],
      "stateMutability": "nonpayable",
      "type": "function"
    },
    {
      "inputs": [],
      "name": "accrualBlockNumber",
      "outputs": [
        {
          "internalType": "uint256",
          "name": "",
          "type": "uint256"
        }
      ],
      "stateMutability": "view",
      "type": "function",
      "constant": true
    },
    {
      "inputs": [],
      "name": "accrueInterest",
      "outputs": [
        {
          "internalType": "uint256",
          "name": "",
          "type": "uint256"
        }
      ],
      "stateMutability": "nonpayable",
      "type": "function"
    },
    {
      "inputs": [],
      "name": "admin",
      "outputs": [
        {
          "internalType": "address payable",
          "name": "",
          "type": "address"
        }
      ],
      "stateMutability": "view",
      "type": "function",
      "constant": true
    },
    {
      "inputs": [
        {
          "internalType": "address",
          "name": "owner",
          "type": "address"
        },
        {
          "internalType": "address",
          "name": "spender",
          "type": "address"
        }
      ],
      "name": "allowance",
      "outputs": [
        {
          "internalType": "uint256",
          "name": "",
          "type": "uint256"
        }
      ],
      "stateMutability": "view",
      "type": "function",
      "constant": true
    },
    {
      "inputs": [
        {
          "internalType": "address",
          "name": "spender",
          "type": "address"
        },
        {
          "internalType": "uint256",
          "name": "amount",
          "type": "uint256"
        }
      ],
      "name": "approve",
      "outputs": [
        {
          "internalType": "bool",
          "name": "",
          "type": "bool"
        }
      ],
      "stateMutability": "nonpayable",
      "type": "function"
    },
    {
      "inputs": [
        {
          "internalType": "address",
          "name": "owner",
          "type": "address"
        }
      ],
      "name": "balanceOf",
      "outputs": [
        {
          "internalType": "uint256",
          "name": "",
          "type": "uint256"
        }
      ],
      "stateMutability": "view",
      "type": "function",
      "constant": true
    },
    {
      "inputs": [
        {
          "internalType": "address",
          "name": "owner",
          "type": "address"
        }
      ],
      "name": "balanceOfUnderlying",
      "outputs": [
        {
          "internalType": "uint256",
          "name": "",
          "type": "uint256"
        }
      ],
      "stateMutability": "nonpayable",
      "type": "function"
    },
    {
      "inputs": [
        {
          "internalType": "address",
          "name": "account",
          "type": "address"
        }
      ],
      "name": "borrowBalanceCurrent",
      "outputs": [
        {
          "internalType": "uint256",
          "name": "",
          "type": "uint256"
        }
      ],
      "stateMutability": "nonpayable",
      "type": "function"
    },
    {
      "inputs": [
        {
          "internalType": "address",
          "name": "account",
          "type": "address"
        }
      ],
      "name": "borrowBalanceStored",
      "outputs": [
        {
          "internalType": "uint256",
          "name": "",
          "type": "uint256"
        }
      ],
      "stateMutability": "view",
      "type": "function",
      "constant": true
    },
    {
      "inputs": [],
      "name": "borrowIndex",
      "outputs": [
        {
          "internalType": "uint256",
          "name": "",
          "type": "uint256"
        }
      ],
      "stateMutability": "view",
      "type": "function",
      "constant": true
    },
    {
      "inputs": [],
      "name": "borrowRatePerBlock",
      "outputs": [
        {
          "internalType": "uint256",
          "name": "",
          "type": "uint256"
        }
      ],
      "stateMutability": "view",
      "type": "function",
      "constant": true
    },
    {
      "inputs": [],
      "name": "decimals",
      "outputs": [
        {
          "internalType": "uint8",
          "name": "",
          "type": "uint8"
        }
      ],
      "stateMutability": "view",
      "type": "function",
      "constant": true
    },
    {
      "inputs": [],
      "name": "exchangeRateCurrent",
      "outputs": [
        {
          "internalType": "uint256",
          "name": "",
          "type": "uint256"
        }
      ],
      "stateMutability": "nonpayable",
      "type": "function"
    },
    {
      "inputs": [],
      "name": "exchangeRateStored",
      "outputs": [
        {
          "internalType": "uint256",
          "name": "",
          "type": "uint256"
        }
      ],
      "stateMutability": "view",
      "type": "function",
      "constant": true
    },
    {
      "inputs": [
        {
          "internalType": "address",
          "name": "account",
          "type": "address"
        }
      ],
      "name": "getAccountSnapshot",
      "outputs": [
        {
          "internalType": "uint256",
          "name": "",
          "type": "uint256"
        },
        {
          "internalType": "uint256",
          "name": "",
          "type": "uint256"
        },
        {
          "internalType": "uint256",
          "name": "",
          "type": "uint256"
        },
        {
          "internalType": "uint256",
          "name": "",
          "type": "uint256"
        }
      ],
      "stateMutability": "view",
      "type": "function",
      "constant": true
    },
    {
      "inputs": [],
      "name": "getCash",
      "outputs": [
        {
          "internalType": "uint256",
          "name": "",
          "type": "uint256"
        }
      ],
      "stateMutability": "view",
      "type": "function",
      "constant": true
    },
    {
      "inputs": [
        {
          "internalType": "contract IRiskManager",
          "name": "riskManager_",
          "type": "address"
        },
        {
          "internalType": "contract InterestRateModel",
          "name": "interestRateModel_",
          "type": "address"
        },
        {
          "internalType": "uint256",
          "name": "initialExchangeRateMantissa_",
          "type": "uint256"
        },
        {
          "internalType": "string",
          "name": "name_",
          "type": "string"
        },
        {
          "internalType": "string",
          "name": "symbol_",
          "type": "string"
        },
        {
          "internalType": "uint8",
          "name": "decimals_",
          "type": "uint8"
        }
      ],
      "name": "initialize",
      "outputs": [],
      "stateMutability": "nonpayable",
      "type": "function"
    },
    {
      "inputs": [],
      "name": "interestRateModel",
      "outputs": [
        {
          "internalType": "contract InterestRateModel",
          "name": "",
          "type": "address"
        }
      ],
      "stateMutability": "view",
      "type": "function",
      "constant": true
    },
    {
      "inputs": [],
      "name": "isPToken",
      "outputs": [
        {
          "internalType": "bool",
          "name": "",
          "type": "bool"
        }
      ],
      "stateMutability": "view",
      "type": "function",
      "constant": true
    },
    {
      "inputs": [],
      "name": "name",
      "outputs": [
        {
          "internalType": "string",
          "name": "",
          "type": "string"
        }
      ],
      "stateMutability": "view",
      "type": "function",
      "constant": true
    },
    {
      "inputs": [],
      "name": "pendingAdmin",
      "outputs": [
        {
          "internalType": "address payable",
          "name": "",
          "type": "address"
        }
      ],
      "stateMutability": "view",
      "type": "function",
      "constant": true
    },
    {
      "inputs": [],
      "name": "reserveFactorMantissa",
      "outputs": [
        {
          "internalType": "uint256",
          "name": "",
          "type": "uint256"
        }
      ],
      "stateMutability": "view",
      "type": "function",
      "constant": true
    },
    {
      "inputs": [],
      "name": "riskManager",
      "outputs": [
        {
          "internalType": "contract IRiskManager",
          "name": "",
          "type": "address"
        }
      ],
      "stateMutability": "view",
      "type": "function",
      "constant": true
    },
    {
      "inputs": [
        {
          "internalType": "address",
          "name": "liquidator",
          "type": "address"
        },
        {
          "internalType": "address",
          "name": "borrower",
          "type": "address"
        },
        {
          "internalType": "uint256",
          "name": "seizeTokens",
          "type": "uint256"
        }
      ],
      "name": "seize",
      "outputs": [
        {
          "internalType": "uint256",
          "name": "",
          "type": "uint256"
        }
      ],
      "stateMutability": "nonpayable",
      "type": "function"
    },
    {
      "inputs": [],
      "name": "supplyRatePerBlock",
      "outputs": [
        {
          "internalType": "uint256",
          "name": "",
          "type": "uint256"
        }
      ],
      "stateMutability": "view",
      "type": "function",
      "constant": true
    },
    {
      "inputs": [],
      "name": "symbol",
      "outputs": [
        {
          "internalType": "string",
          "name": "",
          "type": "string"
        }
      ],
      "stateMutability": "view",
      "type": "function",
      "constant": true
    },
    {
      "inputs": [],
      "name": "totalBorrows",
      "outputs": [
        {
          "internalType": "uint256",
          "name": "",
          "type": "uint256"
        }
      ],
      "stateMutability": "view",
      "type": "function",
      "constant": true
    },
    {
      "inputs": [],
      "name": "totalBorrowsCurrent",
      "outputs": [
        {
          "internalType": "uint256",
          "name": "",
          "type": "uint256"
        }
      ],
      "stateMutability": "nonpayable",
      "type": "function"
    },
    {
      "inputs": [],
      "name": "totalReserves",
      "outputs": [
        {
          "internalType": "uint256",
          "name": "",
          "type": "uint256"
        }
      ],
      "stateMutability": "view",
      "type": "function",
      "constant": true
    },
    {
      "inputs": [],
      "name": "totalSupply",
      "outputs": [
        {
          "internalType": "uint256",
          "name": "",
          "type": "uint256"
        }
      ],
      "stateMutability": "view",
      "type": "function",
      "constant": true
    },
    {
      "inputs": [
        {
          "internalType": "address",
          "name": "dst",
          "type": "address"
        },
        {
          "internalType": "uint256",
          "name": "amount",
          "type": "uint256"
        }
      ],
      "name": "transfer",
      "outputs": [
        {
          "internalType": "bool",
          "name": "",
          "type": "bool"
        }
      ],
      "stateMutability": "nonpayable",
      "type": "function"
    },
    {
      "inputs": [
        {
          "internalType": "address",
          "name": "src",
          "type": "address"
        },
        {
          "internalType": "address",
          "name": "dst",
          "type": "address"
        },
        {
          "internalType": "uint256",
          "name": "amount",
          "type": "uint256"
        }
      ],
      "name": "transferFrom",
      "outputs": [
        {
          "internalType": "bool",
          "name": "",
          "type": "bool"
        }
      ],
      "stateMutability": "nonpayable",
      "type": "function"
    },
    {
      "stateMutability": "payable",
      "type": "receive",
      "payable": true
    },
    {
      "inputs": [],
      "name": "mint",
      "outputs": [],
      "stateMutability": "payable",
      "type": "function",
      "payable": true
    },
    {
      "inputs": [
        {
          "internalType": "uint256",
          "name": "redeemTokens",
          "type": "uint256"
        }
      ],
      "name": "redeem",
      "outputs": [
        {
          "internalType": "uint256",
          "name": "",
          "type": "uint256"
        }
      ],
      "stateMutability": "payable",
      "type": "function",
      "payable": true
    },
    {
      "inputs": [
        {
          "internalType": "uint256",
          "name": "redeemAmount",
          "type": "uint256"
        }
      ],
      "name": "redeemUnderlying",
      "outputs": [
        {
          "internalType": "uint256",
          "name": "",
          "type": "uint256"
        }
      ],
      "stateMutability": "payable",
      "type": "function",
      "payable": true
    },
    {
      "inputs": [
        {
          "internalType": "uint256",
          "name": "borrowAmount",
          "type": "uint256"
        }
      ],
      "name": "borrow",
      "outputs": [
        {
          "internalType": "uint256",
          "name": "",
          "type": "uint256"
        }
      ],
      "stateMutability": "payable",
      "type": "function",
      "payable": true
    },
    {
      "inputs": [],
      "name": "repayBorrow",
      "outputs": [],
      "stateMutability": "payable",
      "type": "function",
      "payable": true
    },
    {
      "inputs": [
        {
          "internalType": "address",
          "name": "borrower",
          "type": "address"
        }
      ],
      "name": "repayBorrowBehalf",
      "outputs": [],
      "stateMutability": "payable",
      "type": "function",
      "payable": true
    },
    {
      "inputs": [
        {
          "internalType": "address",
          "name": "borrower",
          "type": "address"
        },
        {
          "internalType": "contract PToken",
          "name": "pTokenCollateral",
          "type": "address"
        }
      ],
      "name": "liquidateBorrow",
      "outputs": [],
      "stateMutability": "payable",
      "type": "function",
      "payable": true
    },
    {
      "inputs": [
        {
          "internalType": "uint256",
          "name": "addAmount",
          "type": "uint256"
        }
      ],
      "name": "_addReserves",
      "outputs": [
        {
          "internalType": "uint256",
          "name": "",
          "type": "uint256"
        }
      ],
      "stateMutability": "payable",
      "type": "function",
      "payable": true
    },
    {
      "inputs": [],
      "name": "isForETH",
      "outputs": [
        {
          "internalType": "bool",
          "name": "",
          "type": "bool"
        }
      ],
      "stateMutability": "view",
      "type": "function",
      "constant": true
    }
  ],
  "bytecode": "0x60806040526702c68af0bb1400006008553480156200001d57600080fd5b506040516200585338038062005853833981810160405260e08110156200004357600080fd5b8151602083015160408085015160608601805192519496939591949391820192846401000000008211156200007757600080fd5b9083019060208201858111156200008d57600080fd5b8251640100000000811182820188101715620000a857600080fd5b82525081516020918201929091019080838360005b83811015620000d7578181015183820152602001620000bd565b50505050905090810190601f168015620001055780820380516001836020036101000a031916815260200191505b50604052602001805160405193929190846401000000008211156200012957600080fd5b9083019060208201858111156200013f57600080fd5b82516401000000008111828201881017156200015a57600080fd5b82525081516020918201929091019080838360005b83811015620001895781810151838201526020016200016f565b50505050905090810190601f168015620001b75780820380516001836020036101000a031916815260200191505b506040908152602082015191015160038054610100600160a81b03191633610100021790559092509050620001f187878787878762000224565b600380546001600160a01b0390921661010002610100600160a81b03199092169190911790555062000861945050505050565b60035461010090046001600160a01b03163314620002745760405162461bcd60e51b8152600401808060200182810382526024815260200180620057ba6024913960400191505060405180910390fd5b600954158015620002855750600a54155b620002c25760405162461bcd60e51b8152600401808060200182810382526023815260200180620057de6023913960400191505060405180910390fd5b600784905583620003055760405162461bcd60e51b8152600401808060200182810382526030815260200180620058016030913960400191505060405180910390fd5b60006200031b876001600160e01b036200043a16565b9050801562000371576040805162461bcd60e51b815260206004820152601a60248201527f73657474696e67207269736b4d616e61676572206661696c6564000000000000604482015290519081900360640190fd5b620003846001600160e01b03620005a416565b600955670de0b6b3a7640000600a55620003a7866001600160e01b03620005a916565b90508015620003e85760405162461bcd60e51b8152600401808060200182810382526022815260200180620058316022913960400191505060405180910390fd5b8351620003fd906001906020870190620007bf565b50825162000413906002906020860190620007bf565b50506003805460ff90921660ff199283161790556000805490911660011790555050505050565b60035460009061010090046001600160a01b0316331462000474576200046c6001603f6001600160e01b036200074f16565b90506200059f565b600554604080516354cb73dd60e11b815290516001600160a01b039283169285169163a996e7ba916004808301926020929190829003018186803b158015620004bc57600080fd5b505afa158015620004d1573d6000803e3d6000fd5b505050506040513d6020811015620004e857600080fd5b50516200053c576040805162461bcd60e51b815260206004820152601c60248201527f6d61726b6572206d6574686f642072657475726e65642066616c736500000000604482015290519081900360640190fd5b600580546001600160a01b0319166001600160a01b03858116918217909255604080519284168352602083019190915280517f91249b936729aec99d65d412fab6e6488ab0eb306623fa400ad5397449ff362b9281900390910190a160005b9150505b919050565b435b90565b600354600090819061010090046001600160a01b03163314620005e657620005dd600160426001600160e01b036200074f16565b9150506200059f565b620005f96001600160e01b03620005a416565b600954146200061957620005dd600a60416001600160e01b036200074f16565b600660009054906101000a90046001600160a01b03169050826001600160a01b0316632191f92a6040518163ffffffff1660e01b815260040160206040518083038186803b1580156200066b57600080fd5b505afa15801562000680573d6000803e3d6000fd5b505050506040513d60208110156200069757600080fd5b5051620006eb576040805162461bcd60e51b815260206004820152601c60248201527f6d61726b6572206d6574686f642072657475726e65642066616c736500000000604482015290519081900360640190fd5b600680546001600160a01b0319166001600160a01b03858116918217909255604080519284168352602083019190915280517fedffc32e068c7c95dfd4bdfd5c4d939a084d6b11c4199eac8436ed234d72f9269281900390910190a160006200059b565b60007f45b96fe442630264581b197e84bbada861235052c5a1aadfff9ea4e40a969aa08360108111156200077f57fe5b8360508111156200078c57fe5b604080519283526020830191909152600082820152519081900360600190a1826010811115620007b857fe5b9392505050565b828054600181600116156101000203166002900490600052602060002090601f016020900481019282601f106200080257805160ff191683800117855562000832565b8280016001018555821562000832579182015b828111156200083257825182559160200191906001019062000815565b506200084092915062000844565b5090565b620005a691905b808211156200084057600081556001016200084b565b614f4980620008716000396000f3fe60806040526004361061028c5760003560e01c80638f840ddd1161015a578063bd6d894d116100c1578063e9c714f21161007a578063e9c714f214610a5a578063f2b3abbd14610a6f578063f3fdb15a14610aa2578063f851a44014610ab7578063f8f9da2814610acc578063fca7820b14610ae1576102d8565b8063bd6d894d14610951578063c37f68e214610966578063c5ebeaec146109bf578063db006a75146109dc578063dd62ed3e146109f9578063e597461914610a34576102d8565b8063a9059cbb11610113578063a9059cbb1461084a578063aa5af0fd14610883578063aae40a2a14610898578063ae9d70b0146108c6578063b2a02ff1146108db578063b71d1a0c1461091e576102d8565b80638f840ddd14610664578063913e60981461067957806395d89b411461068e57806395dd9193146106a357806399d8c1b4146106d6578063a6afed9514610835576102d8565b80633af9e669116101fe5780635a890c0e116101b75780635a890c0e146105ab578063601a0bf1146105c05780636c540baf146105ea57806370a08231146105ff57806373acee9814610632578063852a12e314610647576102d8565b80633af9e669146105145780633b1d21a2146105475780633e9410101461055c578063478426631461057957806347bd37181461058e5780634e4d9fea146105a3576102d8565b806317bfdfbc1161025057806317bfdfbc1461041857806318160ddd1461044b578063182df0f51461046057806323b872dd1461047557806326782247146104b8578063313ce567146104e9576102d8565b806306fdde03146102dd578063095ea7b3146103675780630dd16bed146103b45780631249c58b146103f9578063173b990414610403576102d8565b366102d85761029a34610b0b565b60006102a534610b10565b5090506102d5816040518060400160405280600b81526020016a1b5a5b9d0819985a5b195960aa1b815250610bb8565b50005b600080fd5b3480156102e957600080fd5b506102f2610dcf565b6040805160208082528351818301528351919283929083019185019080838360005b8381101561032c578181015183820152602001610314565b50505050905090810190601f1680156103595780820380516001836020036101000a031916815260200191505b509250505060405180910390f35b34801561037357600080fd5b506103a06004803603604081101561038a57600080fd5b506001600160a01b038135169060200135610e5c565b604080519115158252519081900360200190f35b3480156103c057600080fd5b506103e7600480360360208110156103d757600080fd5b50356001600160a01b0316610ec9565b60408051918252519081900360200190f35b610401611022565b005b34801561040f57600080fd5b506103e7611069565b34801561042457600080fd5b506103e76004803603602081101561043b57600080fd5b50356001600160a01b031661106f565b34801561045757600080fd5b506103e761112f565b34801561046c57600080fd5b506103e7611135565b34801561048157600080fd5b506103a06004803603606081101561049857600080fd5b506001600160a01b03813581169160208101359091169060400135611198565b3480156104c457600080fd5b506104cd61120a565b604080516001600160a01b039092168252519081900360200190f35b3480156104f557600080fd5b506104fe611219565b6040805160ff9092168252519081900360200190f35b34801561052057600080fd5b506103e76004803603602081101561053757600080fd5b50356001600160a01b0316611222565b34801561055357600080fd5b506103e76112d8565b6103e76004803603602081101561057257600080fd5b50356112e7565b34801561058557600080fd5b506104cd6112fb565b34801561059a57600080fd5b506103e761130a565b610401611310565b3480156105b757600080fd5b506103a061135b565b3480156105cc57600080fd5b506103e7600480360360208110156105e357600080fd5b5035611360565b3480156105f657600080fd5b506103e76113fb565b34801561060b57600080fd5b506103e76004803603602081101561062257600080fd5b50356001600160a01b0316611401565b34801561063e57600080fd5b506103e761141c565b6103e76004803603602081101561065d57600080fd5b50356114d2565b34801561067057600080fd5b506103e76114ef565b34801561068557600080fd5b506103a06114f5565b34801561069a57600080fd5b506102f26114fa565b3480156106af57600080fd5b506103e7600480360360208110156106c657600080fd5b50356001600160a01b0316611552565b3480156106e257600080fd5b50610401600480360360c08110156106f957600080fd5b6001600160a01b0382358116926020810135909116916040820135919081019060808101606082013564010000000081111561073457600080fd5b82018360208201111561074657600080fd5b8035906020019184600183028401116401000000008311171561076857600080fd5b91908080601f01602080910402602001604051908101604052809392919081815260200183838082843760009201919091525092959493602081019350359150506401000000008111156107bb57600080fd5b8201836020820111156107cd57600080fd5b803590602001918460018302840111640100000000831117156107ef57600080fd5b91908080601f0160208091040260200160405190810160405280939291908181526020018383808284376000920191909152509295505050903560ff1691506115af9050565b34801561084157600080fd5b506103e7611796565b34801561085657600080fd5b506103a06004803603604081101561086d57600080fd5b506001600160a01b038135169060200135611aee565b34801561088f57600080fd5b506103e7611b5f565b610401600480360360408110156108ae57600080fd5b506001600160a01b0381358116916020013516611b65565b3480156108d257600080fd5b506103e7611d38565b3480156108e757600080fd5b506103e7600480360360608110156108fe57600080fd5b506001600160a01b03813581169160208101359091169060400135611dd7565b34801561092a57600080fd5b506103e76004803603602081101561094157600080fd5b50356001600160a01b0316611e48565b34801561095d57600080fd5b506103e7611ed4565b34801561097257600080fd5b506109996004803603602081101561098957600080fd5b50356001600160a01b0316611f90565b604080519485526020850193909352838301919091526060830152519081900360800190f35b6103e7600480360360208110156109d557600080fd5b5035612025565b6103e7600480360360208110156109f257600080fd5b5035612042565b348015610a0557600080fd5b506103e760048036036040811015610a1c57600080fd5b506001600160a01b038135811691602001351661205f565b61040160048036036020811015610a4a57600080fd5b50356001600160a01b031661208a565b348015610a6657600080fd5b506103e76120e1565b348015610a7b57600080fd5b506103e760048036036020811015610a9257600080fd5b50356001600160a01b03166121e5565b348015610aae57600080fd5b506104cd61221f565b348015610ac357600080fd5b506104cd61222e565b348015610ad857600080fd5b506103e7612242565b348015610aed57600080fd5b506103e760048036036020811015610b0457600080fd5b50356122a6565b601155565b60008054819060ff16610b57576040805162461bcd60e51b815260206004820152600a6024820152691c994b595b9d195c995960b21b604482015290519081900360640190fd5b6000805460ff19168155610b69611796565b90508015610b9457610b87816010811115610b8057fe5b601e612324565b925060009150610ba49050565b610b9e3385612391565b92509250505b6000805460ff191660011790559092909150565b81610bc257610dcb565b6060815160050167ffffffffffffffff81118015610bdf57600080fd5b506040519080825280601f01601f191660200182016040528015610c0a576020820181803683370190505b50905060005b8251811015610c5b57828181518110610c2557fe5b602001015160f81c60f81b828281518110610c3c57fe5b60200101906001600160f81b031916908160001a905350600101610c10565b8151600160fd1b90839083908110610c6f57fe5b60200101906001600160f81b031916908160001a905350602860f81b828260010181518110610c9a57fe5b60200101906001600160f81b031916908160001a905350600a840460300160f81b828260020181518110610cca57fe5b60200101906001600160f81b031916908160001a905350600a840660300160f81b828260030181518110610cfa57fe5b60200101906001600160f81b031916908160001a905350602960f81b828260040181518110610d2557fe5b60200101906001600160f81b031916908160001a905350818415610dc75760405162461bcd60e51b81526004018080602001828103825283818151815260200191508051906020019080838360005b83811015610d8c578181015183820152602001610d74565b50505050905090810190601f168015610db95780820380516001836020036101000a031916815260200191505b509250505060405180910390fd5b5050505b5050565b60018054604080516020600284861615610100026000190190941693909304601f81018490048402820184019092528181529291830182828015610e545780601f10610e2957610100808354040283529160200191610e54565b820191906000526020600020905b815481529060010190602001808311610e3757829003601f168201915b505050505081565b336000818152600f602090815260408083206001600160a01b03871680855290835281842086905581518681529151939493909284927f8c5be1e5ebec7d5bd14f71427d1e84f3dd0314c0f7b2291e5b200ac8c7c3b925929081900390910190a360019150505b92915050565b60035460009061010090046001600160a01b03163314610ef657610eef6001603f612324565b905061101d565b600554604080516354cb73dd60e11b815290516001600160a01b039283169285169163a996e7ba916004808301926020929190829003018186803b158015610f3d57600080fd5b505afa158015610f51573d6000803e3d6000fd5b505050506040513d6020811015610f6757600080fd5b5051610fba576040805162461bcd60e51b815260206004820152601c60248201527f6d61726b6572206d6574686f642072657475726e65642066616c736500000000604482015290519081900360640190fd5b600580546001600160a01b0319166001600160a01b03858116918217909255604080519284168352602083019190915280517f91249b936729aec99d65d412fab6e6488ab0eb306623fa400ad5397449ff362b9281900390910190a160005b9150505b919050565b61102b34610b0b565b600061103634610b10565b509050611066816040518060400160405280600b81526020016a1b5a5b9d0819985a5b195960aa1b815250610bb8565b50565b60085481565b6000805460ff166110b4576040805162461bcd60e51b815260206004820152600a6024820152691c994b595b9d195c995960b21b604482015290519081900360640190fd5b6000805460ff191681556110c6611796565b14611111576040805162461bcd60e51b81526020600482015260166024820152751858d8dc9d59481a5b9d195c995cdd0819985a5b195960521b604482015290519081900360640190fd5b61111a82611552565b90505b6000805460ff19166001179055919050565b600d5481565b6000806000611142612763565b9092509050600082600381111561115557fe5b146111915760405162461bcd60e51b8152600401808060200182810382526035815260200180614e316035913960400191505060405180910390fd5b9150505b90565b6000805460ff166111dd576040805162461bcd60e51b815260206004820152600a6024820152691c994b595b9d195c995960b21b604482015290519081900360640190fd5b6000805460ff191681556111f333868686612812565b1490506000805460ff191660011790559392505050565b6004546001600160a01b031681565b60035460ff1681565b600061122c614afb565b604051806020016040528061123f611ed4565b90526001600160a01b0384166000908152600e602052604081205491925090819061126b908490612a9e565b9092509050600082600381111561127e57fe5b146112d0576040805162461bcd60e51b815260206004820152601f60248201527f62616c616e636520636f756c64206e6f742062652063616c63756c6174656400604482015290519081900360640190fd5b949350505050565b60006112e2612af1565b905090565b60006112f234610b0b565b610ec382612b29565b6005546001600160a01b031681565b600b5481565b61131934610b0b565b600061132434612bbd565b50905061106681604051806040016040528060128152602001711c995c185e509bdc9c9bddc819985a5b195960721b815250610bb8565b600181565b6000805460ff166113a5576040805162461bcd60e51b815260206004820152600a6024820152691c994b595b9d195c995960b21b604482015290519081900360640190fd5b6000805460ff191681556113b7611796565b905080156113dd576113d58160108111156113ce57fe5b6030612324565b91505061111d565b6113e683612c3f565b9150506000805460ff19166001179055919050565b60095481565b6001600160a01b03166000908152600e602052604090205490565b6000805460ff16611461576040805162461bcd60e51b815260206004820152600a6024820152691c994b595b9d195c995960b21b604482015290519081900360640190fd5b6000805460ff19168155611473611796565b146114be576040805162461bcd60e51b81526020600482015260166024820152751858d8dc9d59481a5b9d195c995cdd0819985a5b195960521b604482015290519081900360640190fd5b50600b546000805460ff1916600117905590565b60006114de6000610b0b565b6114e6612d72565b610ec382612ed3565b600c5481565b600190565b6002805460408051602060018416156101000260001901909316849004601f81018490048402820184019092528181529291830182828015610e545780601f10610e2957610100808354040283529160200191610e54565b600080600061156084612f54565b9092509050600082600381111561157357fe5b146110195760405162461bcd60e51b8152600401808060200182810382526037815260200180614d6f6037913960400191505060405180910390fd5b60035461010090046001600160a01b031633146115fd5760405162461bcd60e51b8152600401808060200182810382526024815260200180614c546024913960400191505060405180910390fd5b60095415801561160d5750600a54155b6116485760405162461bcd60e51b8152600401808060200182810382526023815260200180614c786023913960400191505060405180910390fd5b6007849055836116895760405162461bcd60e51b8152600401808060200182810382526030815260200180614cbf6030913960400191505060405180910390fd5b600061169487610ec9565b905080156116e9576040805162461bcd60e51b815260206004820152601a60248201527f73657474696e67207269736b4d616e61676572206661696c6564000000000000604482015290519081900360640190fd5b6116f1613008565b600955670de0b6b3a7640000600a556117098661300c565b905080156117485760405162461bcd60e51b8152600401808060200182810382526022815260200180614cef6022913960400191505060405180910390fd5b835161175b906001906020870190614b0e565b50825161176f906002906020860190614b0e565b50506003805460ff90921660ff199283161790556000805490911660011790555050505050565b6000806117a1613008565b600954909150808214156117ba57600092505050611195565b60006117c4612af1565b600b54600c54600a54600654604080516315f2405360e01b815260048101879052602481018690526044810185905290519596509394929391926000926001600160a01b03909216916315f24053916064808301926020929190829003018186803b15801561183257600080fd5b505afa158015611846573d6000803e3d6000fd5b505050506040513d602081101561185c57600080fd5b5051905065048c273950008111156118bb576040805162461bcd60e51b815260206004820152601c60248201527f626f72726f772072617465206973206162737572646c79206869676800000000604482015290519081900360640190fd5b6000806118c88989613181565b909250905060008260038111156118db57fe5b1461192d576040805162461bcd60e51b815260206004820152601f60248201527f636f756c64206e6f742063616c63756c61746520626c6f636b2064656c746100604482015290519081900360640190fd5b611935614afb565b60008060008061195360405180602001604052808a815250876131a4565b9097509450600087600381111561196657fe5b14611998576119836009600689600381111561197e57fe5b61320c565b9e505050505050505050505050505050611195565b6119a2858c612a9e565b909750935060008760038111156119b557fe5b146119cd576119836009600189600381111561197e57fe5b6119d7848c613272565b909750925060008760038111156119ea57fe5b14611a02576119836009600489600381111561197e57fe5b611a1d6040518060200160405280600854815250858c613298565b90975091506000876003811115611a3057fe5b14611a48576119836009600589600381111561197e57fe5b611a53858a8b613298565b90975090506000876003811115611a6657fe5b14611a7e576119836009600389600381111561197e57fe5b60098e9055600a819055600b839055600c829055604080518d8152602081018690528082018390526060810185905290517f4dec04e750ca11537cabcd8a9eab06494de08da3735bc8871cd41250e190bc049181900360800190a160009e50505050505050505050505050505090565b6000805460ff16611b33576040805162461bcd60e51b815260206004820152600a6024820152691c994b595b9d195c995960b21b604482015290519081900360640190fd5b6000805460ff19168155611b4933338686612812565b1490506000805460ff1916600117905592915050565b600a5481565b60055460408051637533ed9160e11b815233600482015290516000926001600160a01b03169163ea67db22916024808301926020929190829003018186803b158015611bb057600080fd5b505afa158015611bc4573d6000803e3d6000fd5b505050506040513d6020811015611bda57600080fd5b5051905034811115611c1d5760405162461bcd60e51b8152600401808060200182810382526024815260200180614c9b6024913960400191505060405180910390fd5b600080611c2a3484613181565b90925090506000826003811115611c3d57fe5b14611c795760405162461bcd60e51b815260040180806020018281038252602e815260200180614e8e602e913960400191505060405180910390fd5b60055460408051632174661560e01b815233600482015290516001600160a01b03909216916321746615918691602480830192600092919082900301818588803b158015611cc657600080fd5b505af1158015611cda573d6000803e3d6000fd5b5050505050611ce881610b0b565b6000611cf58683876132f4565b509050611d3081604051806040016040528060168152602001751b1a5c5d5a59185d19509bdc9c9bddc819985a5b195960521b815250610bb8565b505050505050565b6006546000906001600160a01b031663b8168816611d54612af1565b600b54600c546008546040518563ffffffff1660e01b81526004018085815260200184815260200183815260200182815260200194505050505060206040518083038186803b158015611da657600080fd5b505afa158015611dba573d6000803e3d6000fd5b505050506040513d6020811015611dd057600080fd5b5051905090565b6000805460ff16611e1c576040805162461bcd60e51b815260206004820152600a6024820152691c994b595b9d195c995960b21b604482015290519081900360640190fd5b6000805460ff19169055611e3233858585613426565b90506000805460ff191660011790559392505050565b60035460009061010090046001600160a01b03163314611e6e57610eef60016045612324565b600480546001600160a01b038481166001600160a01b0319831681179093556040805191909216808252602082019390935281517fca4f2f25d0898edd99413412fb94012f9e54ec8142f9b093e7720646a95b16a9929181900390910190a16000611019565b6000805460ff16611f19576040805162461bcd60e51b815260206004820152600a6024820152691c994b595b9d195c995960b21b604482015290519081900360640190fd5b6000805460ff19168155611f2b611796565b14611f76576040805162461bcd60e51b81526020600482015260166024820152751858d8dc9d59481a5b9d195c995cdd0819985a5b195960521b604482015290519081900360640190fd5b611f7e611135565b90506000805460ff1916600117905590565b6001600160a01b0381166000908152600e6020526040812054819081908190818080611fbb89612f54565b935090506000816003811115611fcd57fe5b14611feb5760095b97506000965086955085945061201e9350505050565b611ff3612763565b92509050600081600381111561200557fe5b14612011576009611fd5565b5060009650919450925090505b9193509193565b60006120316000610b0b565b612039612d72565b610ec382613602565b600061204e6000610b0b565b612056612d72565b610ec382613681565b6001600160a01b039182166000908152600f6020908152604080832093909416825291909152205490565b61209334610b0b565b600061209f82346136fb565b509050610dcb816040518060400160405280601881526020017f7265706179426f72726f77426568616c66206661696c65640000000000000000815250610bb8565b6004546000906001600160a01b0316331415806120fc575033155b156121145761210d60016000612324565b9050611195565b60038054600480546001600160a01b03818116610100818102610100600160a81b0319871617968790556001600160a01b031990931690935560408051948390048216808652929095041660208401528351909391927ff9ffabca9c8276e99321725bcb43fb076a6c66a54b7f21c4e8146d8519b417dc92908290030190a1600454604080516001600160a01b038085168252909216602083015280517fca4f2f25d0898edd99413412fb94012f9e54ec8142f9b093e7720646a95b16a99281900390910190a160005b9250505090565b6000806121f0611796565b905080156122165761220e81601081111561220757fe5b6040612324565b91505061101d565b6110198361300c565b6006546001600160a01b031681565b60035461010090046001600160a01b031681565b6006546000906001600160a01b03166315f2405361225e612af1565b600b54600c546040518463ffffffff1660e01b815260040180848152602001838152602001828152602001935050505060206040518083038186803b158015611da657600080fd5b6000805460ff166122eb576040805162461bcd60e51b815260206004820152600a6024820152691c994b595b9d195c995960b21b604482015290519081900360640190fd5b6000805460ff191681556122fd611796565b9050801561231b576113d581601081111561231457fe5b6046612324565b6113e6836137a6565b60007f45b96fe442630264581b197e84bbada861235052c5a1aadfff9ea4e40a969aa083601081111561235357fe5b83605081111561235f57fe5b604080519283526020830191909152600082820152519081900360600190a182601081111561238a57fe5b9392505050565b60055460408051634ef4c3e160e01b81523060048201526001600160a01b03858116602483015260448201859052915160009384938493911691634ef4c3e19160648082019260209290919082900301818787803b1580156123f257600080fd5b505af1158015612406573d6000803e3d6000fd5b505050506040513d602081101561241c57600080fd5b505190508015612440576124336003601f8361320c565b92506000915061275c9050565b612448613008565b6009541461245c57612433600a6022612324565b612464614b8c565b61246c612763565b604083018190526020830182600381111561248357fe5b600381111561248e57fe5b90525060009050816020015160038111156124a557fe5b146124cf576124c1600960218360200151600381111561197e57fe5b93506000925061275c915050565b6124d9868661384e565b60c08201819052604080516020810182529083015181526124fa91906138eb565b606083018190526020830182600381111561251157fe5b600381111561251c57fe5b905250600090508160200151600381111561253357fe5b14612585576040805162461bcd60e51b815260206004820181905260248201527f4d494e545f45584348414e47455f43414c43554c4154494f4e5f4641494c4544604482015290519081900360640190fd5b612595600d548260600151613272565b60808301819052602083018260038111156125ac57fe5b60038111156125b757fe5b90525060009050816020015160038111156125ce57fe5b1461260a5760405162461bcd60e51b8152600401808060200182810382526028815260200180614e666028913960400191505060405180910390fd5b6001600160a01b0386166000908152600e602052604090205460608201516126329190613272565b60a083018190526020830182600381111561264957fe5b600381111561265457fe5b905250600090508160200151600381111561266b57fe5b146126a75760405162461bcd60e51b815260040180806020018281038252602b815260200180614d44602b913960400191505060405180910390fd5b6080810151600d5560a08101516001600160a01b0387166000818152600e60209081526040918290209390935560c084015160608086015183519485529484019190915282820193909352517f4c209b5fc8ad50758f13e2e1088ba56a560dff690a1c6fef26394f4c03821c4f929181900390910190a1606081015160408051918252516001600160a01b038816913091600080516020614de08339815191529181900360200190a360c00151600093509150505b9250929050565b600d5460009081908061277e5750506007546000915061280e565b6000612788612af1565b90506000612794614afb565b60006127a584600b54600c54613902565b9350905060008160038111156127b757fe5b146127cc5795506000945061280e9350505050565b6127d68386613940565b9250905060008160038111156127e857fe5b146127fd5795506000945061280e9350505050565b505160009550935061280e92505050565b9091565b600554604080516317b9b84b60e31b81523060048201526001600160a01b03868116602483015285811660448301526064820185905291516000938493169163bdcdc25891608480830192602092919082900301818787803b15801561287757600080fd5b505af115801561288b573d6000803e3d6000fd5b505050506040513d60208110156128a157600080fd5b5051905080156128c0576128b86003604a8361320c565b9150506112d0565b836001600160a01b0316856001600160a01b031614156128e6576128b86002604b612324565b60006001600160a01b038781169087161415612905575060001961292d565b506001600160a01b038086166000908152600f60209081526040808320938a16835292905220545b60008060008061293d8589613181565b9094509250600084600381111561295057fe5b1461296e576129616009604b612324565b96505050505050506112d0565b6001600160a01b038a166000908152600e60205260409020546129919089613181565b909450915060008460038111156129a457fe5b146129b5576129616009604c612324565b6001600160a01b0389166000908152600e60205260409020546129d89089613272565b909450905060008460038111156129eb57fe5b146129fc576129616009604d612324565b6001600160a01b03808b166000908152600e6020526040808220859055918b168152208190556000198514612a54576001600160a01b03808b166000908152600f60209081526040808320938f168352929052208390555b886001600160a01b03168a6001600160a01b0316600080516020614de08339815191528a6040518082815260200191505060405180910390a35060009a9950505050505050505050565b6000806000612aab614afb565b612ab586866131a4565b90925090506000826003811115612ac857fe5b14612ad9575091506000905061275c565b6000612ae4826139f1565b9350935050509250929050565b6000803415612aff57506011545b600080612b0c4784613181565b90925090506000826003811115612b1f57fe5b146121de57600080fd5b6000805460ff16612b6e576040805162461bcd60e51b815260206004820152600a6024820152691c994b595b9d195c995960b21b604482015290519081900360640190fd5b6000805460ff19168155612b80611796565b90508015612b9e576113d5816010811115612b9757fe5b604e612324565b612ba783613a00565b509150506000805460ff19166001179055919050565b60008054819060ff16612c04576040805162461bcd60e51b815260206004820152600a6024820152691c994b595b9d195c995960b21b604482015290519081900360640190fd5b6000805460ff19168155612c16611796565b90508015612c3457610b87816010811115612c2d57fe5b6036612324565b610b9e333386613ae8565b600354600090819061010090046001600160a01b03163314612c675761220e60016031612324565b612c6f613008565b60095414612c835761220e600a6033612324565b82612c8c612af1565b1015612c9e5761220e600e6032612324565b600c54831115612cb45761220e60026034612324565b50600c5482810390811115612cfa5760405162461bcd60e51b8152600401808060200182810382526024815260200180614ef06024913960400191505060405180910390fd5b600c819055600354612d1a9061010090046001600160a01b031684613e36565b600354604080516101009092046001600160a01b0316825260208201859052818101839052517f3bad0c59cf2f06e7314077049f48a93578cd16f5ef92329f1dab1420a99c177e916060908290030190a16000611019565b60055460408051637533ed9160e11b815233600482015290516000926001600160a01b03169163ea67db22916024808301926020929190829003018186803b158015612dbd57600080fd5b505afa158015612dd1573d6000803e3d6000fd5b505050506040513d6020811015612de757600080fd5b5051905034811115612e2a5760405162461bcd60e51b8152600401808060200182810382526024815260200180614c9b6024913960400191505060405180910390fd5b80341115612e72576000612e3e3483613181565b60405190925033915082156108fc029083906000818181858888f19350505050158015612e6f573d6000803e3d6000fd5b50505b60055460408051632174661560e01b815233600482015290516001600160a01b03909216916321746615918491602480830192600092919082900301818588803b158015612ebf57600080fd5b505af1158015611d30573d6000803e3d6000fd5b6000805460ff16612f18576040805162461bcd60e51b815260206004820152600a6024820152691c994b595b9d195c995960b21b604482015290519081900360640190fd5b6000805460ff19168155612f2a611796565b90508015612f48576113d5816010811115612f4157fe5b6027612324565b6113e633600085613e71565b6001600160a01b038116600090815260106020526040812080548291829182918291612f8b57506000945084935061300392505050565b612f9b8160000154600a546142ac565b90945092506000846003811115612fae57fe5b14612fc3575091935060009250613003915050565b612fd18382600101546142eb565b90945091506000846003811115612fe457fe5b14612ff9575091935060009250613003915050565b5060009450925050505b915091565b4390565b600354600090819061010090046001600160a01b031633146130345761220e60016042612324565b61303c613008565b600954146130505761220e600a6041612324565b600660009054906101000a90046001600160a01b03169050826001600160a01b0316632191f92a6040518163ffffffff1660e01b815260040160206040518083038186803b1580156130a157600080fd5b505afa1580156130b5573d6000803e3d6000fd5b505050506040513d60208110156130cb57600080fd5b505161311e576040805162461bcd60e51b815260206004820152601c60248201527f6d61726b6572206d6574686f642072657475726e65642066616c736500000000604482015290519081900360640190fd5b600680546001600160a01b0319166001600160a01b03858116918217909255604080519284168352602083019190915280517fedffc32e068c7c95dfd4bdfd5c4d939a084d6b11c4199eac8436ed234d72f9269281900390910190a16000611019565b60008083831161319857506000905081830361275c565b5060039050600061275c565b60006131ae614afb565b6000806131bf8660000151866142ac565b909250905060008260038111156131d257fe5b146131f15750604080516020810190915260008152909250905061275c565b60408051602081019091529081526000969095509350505050565b60007f45b96fe442630264581b197e84bbada861235052c5a1aadfff9ea4e40a969aa084601081111561323b57fe5b84605081111561324757fe5b604080519283526020830191909152818101859052519081900360600190a18360108111156112d057fe5b60008083830184811061328a5760009250905061275c565b50600291506000905061275c565b60008060006132a5614afb565b6132af87876131a4565b909250905060008260038111156132c257fe5b146132d357509150600090506132ec565b6132e56132df826139f1565b86613272565b9350935050505b935093915050565b60008054819060ff1661333b576040805162461bcd60e51b815260206004820152600a6024820152691c994b595b9d195c995960b21b604482015290519081900360640190fd5b6000805460ff1916815561334d611796565b905080156133785761336b81601081111561336457fe5b600f612324565b92506000915061340f9050565b836001600160a01b031663a6afed956040518163ffffffff1660e01b8152600401602060405180830381600087803b1580156133b357600080fd5b505af11580156133c7573d6000803e3d6000fd5b505050506040513d60208110156133dd57600080fd5b5051905080156133fd5761336b8160108111156133f657fe5b6010612324565b61340933878787614316565b92509250505b6000805460ff191660011790559094909350915050565b6005546040805163d02f735160e01b81523060048201526001600160a01b038781166024830152868116604483015285811660648301526084820185905291516000938493169163d02f73519160a480830192602092919082900301818787803b15801561349357600080fd5b505af11580156134a7573d6000803e3d6000fd5b505050506040513d60208110156134bd57600080fd5b5051905080156134d4576128b86003601b8361320c565b846001600160a01b0316846001600160a01b031614156134fa576128b86006601c612324565b6001600160a01b0384166000908152600e6020526040812054819081906135219087613181565b9093509150600083600381111561353457fe5b146135575761354c6009601a85600381111561197e57fe5b9450505050506112d0565b6001600160a01b0388166000908152600e602052604090205461357a9087613272565b9093509050600083600381111561358d57fe5b146135a55761354c6009601985600381111561197e57fe5b6001600160a01b038088166000818152600e60209081526040808320879055938c168083529184902085905583518a815293519193600080516020614de0833981519152929081900390910190a360009998505050505050505050565b6000805460ff16613647576040805162461bcd60e51b815260206004820152600a6024820152691c994b595b9d195c995960b21b604482015290519081900360640190fd5b6000805460ff19168155613659611796565b90508015613677576113d581601081111561367057fe5b6008612324565b6113e63384614808565b6000805460ff166136c6576040805162461bcd60e51b815260206004820152600a6024820152691c994b595b9d195c995960b21b604482015290519081900360640190fd5b6000805460ff191681556136d8611796565b905080156136ef576113d5816010811115612f4157fe5b6113e633846000613e71565b60008054819060ff16613742576040805162461bcd60e51b815260206004820152600a6024820152691c994b595b9d195c995960b21b604482015290519081900360640190fd5b6000805460ff19168155613754611796565b9050801561377f5761377281601081111561376b57fe5b6035612324565b9250600091506137909050565b61378a338686613ae8565b92509250505b6000805460ff1916600117905590939092509050565b60035460009061010090046001600160a01b031633146137cc57610eef60016047612324565b6137d4613008565b600954146137e857610eef600a6048612324565b670de0b6b3a764000082111561380457610eef60026049612324565b6008805490839055604080518281526020810185905281517faaa68312e2ea9d50e16af5068410ab56e1a1fd06037b1a35664812c30f821460929181900390910190a16000611019565b6000336001600160a01b0384161461389f576040805162461bcd60e51b815260206004820152600f60248201526e0e6cadcc8cae440dad2e6dac2e8c6d608b1b604482015290519081900360640190fd5b813410156138e5576040805162461bcd60e51b815260206004820152600e60248201526d0ecc2d8eaca40dad2e6dac2e8c6d60931b604482015290519081900360640190fd5b50919050565b60008060006138f8614afb565b612ab58686614a9c565b6000806000806139128787613272565b9092509050600082600381111561392557fe5b1461393657509150600090506132ec565b6132e58186613181565b600061394a614afb565b60008061395f86670de0b6b3a76400006142ac565b9092509050600082600381111561397257fe5b146139915750604080516020810190915260008152909250905061275c565b60008061399e83886142eb565b909250905060008260038111156139b157fe5b146139d4578160405180602001604052806000815250955095505050505061275c565b604080516020810190915290815260009890975095505050505050565b51670de0b6b3a7640000900490565b600080600080613a0e613008565b60095414613a2d57613a22600a604f612324565b935091506130039050565b613a37338661384e565b905080600c54019150600c54821015613a97576040805162461bcd60e51b815260206004820181905260248201527f61646420726573657276657320756e6578706563746564206f766572666c6f77604482015290519081900360640190fd5b600c829055604080513381526020810183905280820184905290517fa91e67c5ea634cd43a12c5a482724b03de01e85ca68702a53d0c2f45cb7c1dc59181900360600190a160009350915050915091565b60055460408051631200453160e11b81523060048201526001600160a01b0386811660248301528581166044830152606482018590529151600093849384939116916324008a629160848082019260209290919082900301818787803b158015613b5157600080fd5b505af1158015613b65573d6000803e3d6000fd5b505050506040513d6020811015613b7b57600080fd5b505190508015613b9f57613b92600360388361320c565b9250600091506132ec9050565b613ba7613008565b60095414613bbb57613b92600a6039612324565b613bc3614bca565b6001600160a01b0386166000908152601060205260409020600101546060820152613bed86612f54565b6080830181905260208301826003811115613c0457fe5b6003811115613c0f57fe5b9052506000905081602001516003811115613c2657fe5b14613c5057613c42600960378360200151600381111561197e57fe5b9350600092506132ec915050565b600019851415613c695760808101516040820152613c71565b604081018590525b613c7f87826040015161384e565b60e082018190526080820151613c9491613181565b60a0830181905260208301826003811115613cab57fe5b6003811115613cb657fe5b9052506000905081602001516003811115613ccd57fe5b14613d095760405162461bcd60e51b815260040180806020018281038252603a815260200180614da6603a913960400191505060405180910390fd5b613d19600b548260e00151613181565b60c0830181905260208301826003811115613d3057fe5b6003811115613d3b57fe5b9052506000905081602001516003811115613d5257fe5b14613d8e5760405162461bcd60e51b8152600401808060200182810382526031815260200180614e006031913960400191505060405180910390fd5b60a080820180516001600160a01b03808a16600081815260106020908152604091829020948555600a5460019095019490945560c0870151600b81905560e088015195518251948f16855294840192909252828101949094526060820192909252608081019190915290517f1a2a22cb034d26d1854bdc6666a5b91fe25efbbb5dcad3b0355478d6f5c362a1929181900390910190a160e00151600097909650945050505050565b6040516001600160a01b0383169082156108fc029083906000818181858888f19350505050158015613e6c573d6000803e3d6000fd5b505050565b6000821580613e7e575081155b613eb95760405162461bcd60e51b8152600401808060200182810382526034815260200180614ebc6034913960400191505060405180910390fd5b613ec1614b8c565b613ec9612763565b6040830181905260208301826003811115613ee057fe5b6003811115613eeb57fe5b9052506000905081602001516003811115613f0257fe5b14613f2657613f1e6009602b8360200151600381111561197e57fe5b91505061238a565b8315613fa7576060810184905260408051602081018252908201518152613f4d9085612a9e565b6080830181905260208301826003811115613f6457fe5b6003811115613f6f57fe5b9052506000905081602001516003811115613f8657fe5b14613fa257613f1e600960298360200151600381111561197e57fe5b614020565b613fc383604051806020016040528084604001518152506138eb565b6060830181905260208301826003811115613fda57fe5b6003811115613fe557fe5b9052506000905081602001516003811115613ffc57fe5b1461401857613f1e6009602a8360200151600381111561197e57fe5b608081018390525b60055460608201516040805163eabe7d9160e01b81523060048201526001600160a01b03898116602483015260448201939093529051600093929092169163eabe7d919160648082019260209290919082900301818787803b15801561408557600080fd5b505af1158015614099573d6000803e3d6000fd5b505050506040513d60208110156140af57600080fd5b5051905080156140cf576140c6600360288361320c565b9250505061238a565b6140d7613008565b600954146140eb576140c6600a602c612324565b6140fb600d548360600151613181565b60a084018190526020840182600381111561411257fe5b600381111561411d57fe5b905250600090508260200151600381111561413457fe5b14614150576140c66009602e8460200151600381111561197e57fe5b6001600160a01b0386166000908152600e602052604090205460608301516141789190613181565b60c084018190526020840182600381111561418f57fe5b600381111561419a57fe5b90525060009050826020015160038111156141b157fe5b146141cd576140c66009602d8460200151600381111561197e57fe5b81608001516141da612af1565b10156141ec576140c6600e602f612324565b6141fa868360800151613e36565b60a0820151600d5560c08201516001600160a01b0387166000818152600e6020908152604091829020939093556060850151815190815290513093600080516020614de0833981519152928290030190a36080820151606080840151604080516001600160a01b038b168152602081019490945283810191909152517fe5b754fb1abb7f01b499791d0b820ae3b6af3424ac1c59768edb53f4ec31a9299281900390910190a160009695505050505050565b600080836142bf5750600090508061275c565b838302838582816142cc57fe5b04146142e05750600291506000905061275c565b60009250905061275c565b600080826142ff575060019050600061275c565b600083858161430a57fe5b04915091509250929050565b60055460408051632fe3f38f60e11b81523060048201526001600160a01b0384811660248301528781166044830152868116606483015260848201869052915160009384938493911691635fc7e71e9160a48082019260209290919082900301818787803b15801561438757600080fd5b505af115801561439b573d6000803e3d6000fd5b505050506040513d60208110156143b157600080fd5b5051905080156143d5576143c8600360128361320c565b9250600091506147ff9050565b6143dd613008565b600954146143f1576143c8600a6016612324565b6143f9613008565b846001600160a01b0316636c540baf6040518163ffffffff1660e01b815260040160206040518083038186803b15801561443257600080fd5b505afa158015614446573d6000803e3d6000fd5b505050506040513d602081101561445c57600080fd5b50511461446f576143c8600a6011612324565b866001600160a01b0316866001600160a01b03161415614495576143c860066017612324565b846144a6576143c860076015612324565b6000198514156144bc576143c860076014612324565b6000806144ca898989613ae8565b909250905081156144fa576144eb8260108111156144e457fe5b6018612324565b9450600093506147ff92505050565b6005546040805163c488847b60e01b81523060048201526001600160a01b038981166024830152604482018590528251600094859492169263c488847b926064808301939192829003018186803b15801561455457600080fd5b505afa158015614568573d6000803e3d6000fd5b505050506040513d604081101561457e57600080fd5b508051602090910151909250905081156145c95760405162461bcd60e51b8152600401808060200182810382526033815260200180614d116033913960400191505060405180910390fd5b80886001600160a01b03166370a082318c6040518263ffffffff1660e01b815260040180826001600160a01b03166001600160a01b0316815260200191505060206040518083038186803b15801561462057600080fd5b505afa158015614634573d6000803e3d6000fd5b505050506040513d602081101561464a57600080fd5b5051101561469f576040805162461bcd60e51b815260206004820152601860248201527f4c49515549444154455f5345495a455f544f4f5f4d5543480000000000000000604482015290519081900360640190fd5b60006001600160a01b0389163014156146c5576146be308d8d85613426565b905061474f565b6040805163b2a02ff160e01b81526001600160a01b038e811660048301528d81166024830152604482018590529151918b169163b2a02ff1916064808201926020929091908290030181600087803b15801561472057600080fd5b505af1158015614734573d6000803e3d6000fd5b505050506040513d602081101561474a57600080fd5b505190505b8015614799576040805162461bcd60e51b81526020600482015260146024820152731d1bdad95b881cd95a5e9d5c994819985a5b195960621b604482015290519081900360640190fd5b604080516001600160a01b03808f168252808e1660208301528183018790528b1660608201526080810184905290517f298637f684da70674f26509b10f07ec2fbc77a335ab1e7d6215a4b2484d8bb529181900360a00190a16000975092955050505050505b94509492505050565b6005546040805163368f515360e21b81523060048201526001600160a01b0385811660248301526044820185905291516000938493169163da3d454c91606480830192602092919082900301818787803b15801561486557600080fd5b505af1158015614879573d6000803e3d6000fd5b505050506040513d602081101561488f57600080fd5b5051905080156148ae576148a66003600e8361320c565b915050610ec3565b6148b6613008565b600954146148c9576148a6600a80612324565b826148d2612af1565b10156148e4576148a6600e6009612324565b6148ec614c10565b6148f585612f54565b602083018190528282600381111561490957fe5b600381111561491457fe5b905250600090508151600381111561492857fe5b1461494d57614944600960078360000151600381111561197e57fe5b92505050610ec3565b61495b816020015185613272565b604083018190528282600381111561496f57fe5b600381111561497a57fe5b905250600090508151600381111561498e57fe5b146149aa576149446009600c8360000151600381111561197e57fe5b6149b6600b5485613272565b60608301819052828260038111156149ca57fe5b60038111156149d557fe5b90525060009050815160038111156149e957fe5b14614a05576149446009600b8360000151600381111561197e57fe5b614a0f8585613e36565b604080820180516001600160a01b03881660008181526010602090815290859020928355600a54600190930192909255606080860151600b81905593518551928352928201899052818501929092529081019190915290517f13ed6866d4e1ee6da46f845c46d7e54120883d75c5ea9a2dacc1c4ca8984ab809181900360800190a1600095945050505050565b6000614aa6614afb565b600080614abb670de0b6b3a7640000876142ac565b90925090506000826003811115614ace57fe5b14614aed5750604080516020810190915260008152909250905061275c565b612ae4818660000151613940565b6040518060200160405280600081525090565b828054600181600116156101000203166002900490600052602060002090601f016020900481019282601f10614b4f57805160ff1916838001178555614b7c565b82800160010185558215614b7c579182015b82811115614b7c578251825591602001919060010190614b61565b50614b88929150614c39565b5090565b6040805160e0810190915280600081526020016000815260200160008152602001600081526020016000815260200160008152602001600081525090565b6040805161010081019091528060008152602001600081526020016000815260200160008152602001600081526020016000815260200160008152602001600081525090565b604080516080810190915280600081526020016000815260200160008152602001600081525090565b61119591905b80821115614b885760008155600101614c3f56fe6f6e6c792061646d696e206d617920696e697469616c697a6520746865206d61726b65746d61726b6574206d6179206f6e6c7920626520696e697469616c697a6564206f6e63654e6f20656e6f7567682076616c756520746f20706179207072696365206f7261636c652e696e697469616c2065786368616e67652072617465206d7573742062652067726561746572207468616e207a65726f2e73657474696e6720696e7465726573742072617465206d6f64656c206661696c65644c49515549444154455f5249534b4d414e414745525f43414c43554c4154455f414d4f554e545f5345495a455f4641494c45444d494e545f4e45575f4143434f554e545f42414c414e43455f43414c43554c4154494f4e5f4641494c4544626f72726f7742616c616e636553746f7265643a20626f72726f7742616c616e636553746f726564496e7465726e616c206661696c656452455041595f424f52524f575f4e45575f4143434f554e545f424f52524f575f42414c414e43455f43414c43554c4154494f4e5f4641494c4544ddf252ad1be2c89b69c2b068fc378daa952ba7f163c4a11628f55a4df523b3ef52455041595f424f52524f575f4e45575f544f54414c5f42414c414e43455f43414c43554c4154494f4e5f4641494c454465786368616e67655261746553746f7265643a2065786368616e67655261746553746f726564496e7465726e616c206661696c65644d494e545f4e45575f544f54414c5f535550504c595f43414c43554c4154494f4e5f4641494c45446c6971756964617465426f72726f77206661696c656420746f20737562747261637420707269636520636f73742e6f6e65206f662072656465656d546f6b656e73496e206f722072656465656d416d6f756e74496e206d757374206265207a65726f72656475636520726573657276657320756e657870656374656420756e646572666c6f77a264697066735822122084bb2c3b5dd9da870ac6ef37582dab448a9de821b3c9672664edf66917b91e9a64736f6c634300060900336f6e6c792061646d696e206d617920696e697469616c697a6520746865206d61726b65746d61726b6574206d6179206f6e6c7920626520696e697469616c697a6564206f6e6365696e697469616c2065786368616e67652072617465206d7573742062652067726561746572207468616e207a65726f2e73657474696e6720696e7465726573742072617465206d6f64656c206661696c6564",
  "immutableReferences": {},
  "source": "// SPDX-License-Identifier: UNLICENSED\npragma solidity ^0.6.9;\n\nimport \"../tokenization/PToken.sol\";\n\ncontract PEther is PToken {\n    uint private msgValue;\n    /**\n     * @notice Construct a new PEther money market\n     * @param riskManager_ The address of the RiskManager\n     * @param interestRateModel_ The address of the interest rate model\n     * @param initialExchangeRateMantissa_ The initial exchange rate, scaled by 1e18\n     * @param name_ ERC-20 name of this token\n     * @param symbol_ ERC-20 symbol of this token\n     * @param decimals_ ERC-20 decimal precision of this token\n     * @param admin_ Address of the administrator of this token\n     */\n    constructor(IRiskManager riskManager_,\n                InterestRateModel interestRateModel_,\n                uint initialExchangeRateMantissa_,\n                string memory name_,\n                string memory symbol_,\n                uint8 decimals_,\n                address payable admin_) public {\n        // Creator of the contract is admin during initialization\n        admin = msg.sender;\n\n        initialize(riskManager_, interestRateModel_, initialExchangeRateMantissa_, name_, symbol_, decimals_);\n\n        // Set the proper admin now that initialization is done\n        admin = admin_;\n    }\n\n\n    /*** User Interface ***/\n\n    /**\n     * @notice Sender supplies assets into the market and receives PTokens in exchange\n     * @dev Reverts upon any failure\n     */\n    function mint() external payable {\n        updateMsgValue(msg.value);\n        (uint err,) = mintInternal(msg.value);\n        requireNoError(err, \"mint failed\");\n    }\n\n    /**\n     * @notice Sender redeems PTokens in exchange for the underlying asset\n     * @dev Accrues interest whether or not the operation succeeds, unless reverted\n     * @param redeemTokens The number of PTokens to redeem into underlying\n     * @return uint 0=success, otherwise a failure (see ErrorReporter.sol for details)\n     */\n    function redeem(uint redeemTokens) external payable returns (uint) {\n        updateMsgValue(0);\n        updateTokenPrice();\n        return redeemInternal(redeemTokens);\n    }\n\n    /**\n     * @notice Sender redeems PTokens in exchange for a specified amount of underlying asset\n     * @dev Accrues interest whether or not the operation succeeds, unless reverted\n     * @param redeemAmount The amount of underlying to redeem\n     * @return uint 0=success, otherwise a failure (see ErrorReporter.sol for details)\n     */\n    function redeemUnderlying(uint redeemAmount) external payable returns (uint) {\n        updateMsgValue(0);\n        updateTokenPrice();\n        return redeemUnderlyingInternal(redeemAmount);\n    }\n\n    /**\n      * @notice Sender borrows assets from the protocol to their own address\n      * @param borrowAmount The amount of the underlying asset to borrow\n      * @return uint 0=success, otherwise a failure (see ErrorReporter.sol for details)\n      */\n    function borrow(uint borrowAmount) external payable returns (uint) {\n        updateMsgValue(0);\n        updateTokenPrice();\n        return borrowInternal(borrowAmount);\n    }\n\n    /**\n     * @notice Sender repays their own borrow\n     * @dev Reverts upon any failure\n     */\n    function repayBorrow() external payable {\n        updateMsgValue(msg.value);\n        (uint err,) = repayBorrowInternal(msg.value);\n        requireNoError(err, \"repayBorrow failed\");\n    }\n\n    /**\n     * @notice Sender repays a borrow belonging to borrower\n     * @dev Reverts upon any failure\n     * @param borrower the account with the debt being payed off\n     */\n    function repayBorrowBehalf(address borrower) external payable {\n        updateMsgValue(msg.value);\n        (uint err,) = repayBorrowBehalfInternal(borrower, msg.value);\n        requireNoError(err, \"repayBorrowBehalf failed\");\n    }\n\n    /**\n     * @notice The sender liquidates the borrowers collateral.\n     *  The collateral seized is transferred to the liquidator.\n     * @dev Reverts upon any failure\n     * @param borrower The borrower of this PToken to be liquidated\n     * @param pTokenCollateral The market in which to seize collateral from the borrower\n     */\n    function liquidateBorrow(address borrower, PToken pTokenCollateral) external payable {\n        uint256 priceCost = riskManager.getPriceCost(msg.sender);\n        require(msg.value >= priceCost, \"No enough value to pay price oracle.\");\n        (MathError mathErr, uint256 repayAmount) = subUInt(msg.value, priceCost);\n        require(mathErr == MathError.NO_ERROR, \"liquidateBorrow failed to subtract price cost.\");\n        riskManager.updateTokenPrice{value: priceCost}(msg.sender);\n        updateMsgValue(repayAmount);\n        (uint err,) = liquidateBorrowInternal(borrower, repayAmount, pTokenCollateral);\n        requireNoError(err, \"liquidateBorrow failed\");\n    }\n\n    /**\n     * @notice Send Ether to PEther to mint\n     */\n    receive() external payable {\n        updateMsgValue(msg.value);\n        (uint err,) = mintInternal(msg.value);\n        requireNoError(err, \"mint failed\");\n    }\n\n    /*** Safe Token ***/\n\n    /**\n     * @notice Gets balance of this contract in terms of Ether, before this message\n     * @dev This excludes the value of the current message, if any\n     * @return The quantity of Ether owned by this contract\n     */\n    function getCashPrior() internal override view returns (uint) {\n        uint localMsgValue = 0;\n        if (msg.value > 0) localMsgValue = msgValue;\n        (MathError err, uint startingBalance) = subUInt(address(this).balance, localMsgValue);\n        require(err == MathError.NO_ERROR);\n        return startingBalance;\n    }\n\n    function _addReserves(uint addAmount) external payable returns (uint) {\n        updateMsgValue(msg.value);\n        return _addReservesInternal(addAmount);\n    }\n\n    function isForETH() public view override returns (bool) {\n        return true;\n    }\n\n    /**\n     * @notice Perform the actual transfer in, which is a no-op\n     * @param from Address sending the Ether\n     * @param amount Amount of Ether being sent\n     * @return The actual amount of Ether transferred\n     */\n    function doTransferIn(address from, uint amount) internal override returns (uint) {\n        // Sanity checks\n        require(msg.sender == from, \"sender mismatch\");\n        require(msg.value >= amount, \"value mismatch\");\n        return amount;\n    }\n\n    function doTransferOut(address payable to, uint amount) internal override {\n        /* Send the Ether, with minimal gas and revert on failure */\n        to.transfer(amount);\n    }\n\n    function requireNoError(uint errCode, string memory message) internal pure {\n        if (errCode == uint(Error.NO_ERROR)) {\n            return;\n        }\n\n        bytes memory fullMessage = new bytes(bytes(message).length + 5);\n        uint i;\n\n        for (i = 0; i < bytes(message).length; i++) {\n            fullMessage[i] = bytes(message)[i];\n        }\n\n        fullMessage[i+0] = byte(uint8(32));\n        fullMessage[i+1] = byte(uint8(40));\n        fullMessage[i+2] = byte(uint8(48 + ( errCode / 10 )));\n        fullMessage[i+3] = byte(uint8(48 + ( errCode % 10 )));\n        fullMessage[i+4] = byte(uint8(41));\n\n        require(errCode == uint(Error.NO_ERROR), string(fullMessage));\n    }\n\n    function updateMsgValue(uint value) internal {\n        msgValue = value;\n    }\n}\n",
  "sourcePath": "/Users/ashton/repo/blockchain/eth/smartcontracts/PoolX/contracts/tokenization/PEther.sol",
  "compiler": {
    "name": "solc",
    "version": "0.6.9+commit.3e3065ac.Emscripten.clang"
  },
  "schemaVersion": "3.2.0",
  "updatedAt": "2020-11-23T07:20:46.416Z",
  "networkType": "ethereum",
  "devdoc": {
    "methods": {
      "_acceptAdmin()": {
        "details": "Admin function for pending admin to accept role and update admin",
        "returns": {
          "_0": "uint 0=success, otherwise a failure (see ErrorReporter.sol for details)"
        }
      },
      "_reduceReserves(uint256)": {
        "params": {
          "reduceAmount": "Amount of reduction to reserves"
        },
        "returns": {
          "_0": "uint 0=success, otherwise a failure (see ErrorReporter.sol for details)"
        }
      },
      "_setInterestRateModel(address)": {
        "details": "Admin function to accrue interest and update the interest rate model",
        "params": {
          "newInterestRateModel": "the new interest rate model to use"
        },
        "returns": {
          "_0": "uint 0=success, otherwise a failure (see ErrorReporter.sol for details)"
        }
      },
      "_setPendingAdmin(address)": {
        "details": "Admin function to begin change of admin. The newPendingAdmin must call `_acceptAdmin` to finalize the transfer.",
        "params": {
          "newPendingAdmin": "New pending admin."
        },
        "returns": {
          "_0": "uint 0=success, otherwise a failure (see ErrorReporter.sol for details)"
        }
      },
      "_setReserveFactor(uint256)": {
        "details": "Admin function to accrue interest and set a new reserve factor",
        "returns": {
          "_0": "uint 0=success, otherwise a failure (see ErrorReporter.sol for details)"
        }
      },
      "_setRiskManager(address)": {
        "details": "Admin function to set a new riskManager",
        "returns": {
          "_0": "uint 0=success, otherwise a failure (see ErrorReporter.sol for details)"
        }
      },
      "accrueInterest()": {
        "details": "This calculates interest accrued from the last checkpointed block   up to the current block and writes new checkpoint to storage."
      },
      "allowance(address,address)": {
        "params": {
          "owner": "The address of the account which owns the tokens to be spent",
          "spender": "The address of the account which may transfer tokens"
        },
        "returns": {
          "_0": "The number of tokens allowed to be spent (-1 means infinite)"
        }
      },
      "approve(address,uint256)": {
        "details": "This will overwrite the approval amount for `spender`  and is subject to issues noted [here](https://eips.ethereum.org/EIPS/eip-20#approve)",
        "params": {
          "amount": "The number of tokens that are approved (-1 means infinite)",
          "spender": "The address of the account which may transfer tokens"
        },
        "returns": {
          "_0": "Whether or not the approval succeeded"
        }
      },
      "balanceOf(address)": {
        "params": {
          "owner": "The address of the account to query"
        },
        "returns": {
          "_0": "The number of tokens owned by `owner`"
        }
      },
      "balanceOfUnderlying(address)": {
        "details": "This also accrues interest in a transaction",
        "params": {
          "owner": "The address of the account to query"
        },
        "returns": {
          "_0": "The amount of underlying owned by `owner`"
        }
      },
      "borrow(uint256)": {
        "params": {
          "borrowAmount": "The amount of the underlying asset to borrow"
        },
        "returns": {
          "_0": "uint 0=success, otherwise a failure (see ErrorReporter.sol for details)"
        }
      },
      "borrowBalanceCurrent(address)": {
        "params": {
          "account": "The address whose balance should be calculated after updating borrowIndex"
        },
        "returns": {
          "_0": "The calculated balance"
        }
      },
      "borrowBalanceStored(address)": {
        "params": {
          "account": "The address whose balance should be calculated"
        },
        "returns": {
          "_0": "The calculated balance"
        }
      },
      "borrowRatePerBlock()": {
        "returns": {
          "_0": "The borrow interest rate per block, scaled by 1e18"
        }
      },
      "constructor": {
        "params": {
          "admin_": "Address of the administrator of this token",
          "decimals_": "ERC-20 decimal precision of this token",
          "initialExchangeRateMantissa_": "The initial exchange rate, scaled by 1e18",
          "interestRateModel_": "The address of the interest rate model",
          "name_": "ERC-20 name of this token",
          "riskManager_": "The address of the RiskManager",
          "symbol_": "ERC-20 symbol of this token"
        }
      },
      "exchangeRateCurrent()": {
        "returns": {
          "_0": "Calculated exchange rate scaled by 1e18"
        }
      },
      "exchangeRateStored()": {
        "details": "This function does not accrue interest before calculating the exchange rate",
        "returns": {
          "_0": "Calculated exchange rate scaled by 1e18"
        }
      },
      "getAccountSnapshot(address)": {
        "details": "This is used by riskManager to more efficiently perform liquidity checks.",
        "params": {
          "account": "Address of the account to snapshot"
        },
        "returns": {
          "_0": "(possible error, token balance, borrow balance, exchange rate mantissa)"
        }
      },
      "getCash()": {
        "returns": {
          "_0": "The quantity of underlying asset owned by this contract"
        }
      },
      "initialize(address,address,uint256,string,string,uint8)": {
        "params": {
          "decimals_": "EIP-20 decimal precision of this token",
          "initialExchangeRateMantissa_": "The initial exchange rate, scaled by 1e18",
          "interestRateModel_": "",
          "name_": "EIP-20 name of this token",
          "riskManager_": "controller ",
          "symbol_": "EIP-20 symbol of this token"
        }
      },
      "liquidateBorrow(address,address)": {
        "details": "Reverts upon any failure",
        "params": {
          "borrower": "The borrower of this PToken to be liquidated",
          "pTokenCollateral": "The market in which to seize collateral from the borrower"
        }
      },
      "mint()": {
        "details": "Reverts upon any failure"
      },
      "redeem(uint256)": {
        "details": "Accrues interest whether or not the operation succeeds, unless reverted",
        "params": {
          "redeemTokens": "The number of PTokens to redeem into underlying"
        },
        "returns": {
          "_0": "uint 0=success, otherwise a failure (see ErrorReporter.sol for details)"
        }
      },
      "redeemUnderlying(uint256)": {
        "details": "Accrues interest whether or not the operation succeeds, unless reverted",
        "params": {
          "redeemAmount": "The amount of underlying to redeem"
        },
        "returns": {
          "_0": "uint 0=success, otherwise a failure (see ErrorReporter.sol for details)"
        }
      },
      "repayBorrow()": {
        "details": "Reverts upon any failure"
      },
      "repayBorrowBehalf(address)": {
        "details": "Reverts upon any failure",
        "params": {
          "borrower": "the account with the debt being payed off"
        }
      },
      "seize(address,address,uint256)": {
        "details": "Will fail unless called by another pToken during the process of liquidation.  Its absolutely critical to use msg.sender as the borrowed pToken and not a parameter.",
        "params": {
          "borrower": "The account having collateral seized",
          "liquidator": "The account receiving seized collateral",
          "seizeTokens": "The number of pTokens to seize"
        },
        "returns": {
          "_0": "uint 0=success, otherwise a failure (see ErrorReporter.sol for details)"
        }
      },
      "supplyRatePerBlock()": {
        "returns": {
          "_0": "The supply interest rate per block, scaled by 1e18"
        }
      },
      "totalBorrowsCurrent()": {
        "returns": {
          "_0": "The total borrows with interest"
        }
      },
      "transfer(address,uint256)": {
        "params": {
          "amount": "The number of tokens to transfer",
          "dst": "The address of the destination account"
        },
        "returns": {
          "_0": "Whether or not the transfer succeeded"
        }
      },
      "transferFrom(address,address,uint256)": {
        "params": {
          "amount": "The number of tokens to transfer",
          "dst": "The address of the destination account",
          "src": "The address of the source account"
        },
        "returns": {
          "_0": "Whether or not the transfer succeeded"
        }
      }
    }
  },
  "userdoc": {
    "methods": {
      "_acceptAdmin()": {
        "notice": "Accepts transfer of admin rights. msg.sender must be pendingAdmin"
      },
      "_reduceReserves(uint256)": {
        "notice": "Accrues interest and reduces reserves by transferring to admin"
      },
      "_setInterestRateModel(address)": {
        "notice": "accrues interest and updates the interest rate model using _setInterestRateModelFresh"
      },
      "_setPendingAdmin(address)": {
        "notice": "Begins transfer of admin rights. The newPendingAdmin must call `_acceptAdmin` to finalize the transfer."
      },
      "_setReserveFactor(uint256)": {
        "notice": "accrues interest and sets a new reserve factor for the protocol using _setReserveFactorFresh"
      },
      "_setRiskManager(address)": {
        "notice": "Sets a new riskManager for the market"
      },
      "accrualBlockNumber()": {
        "notice": "Block number that interest was last accrued at"
      },
      "accrueInterest()": {
        "notice": "Applies accrued interest to total borrows and reserves"
      },
      "admin()": {
        "notice": "Administrator for this contract"
      },
      "allowance(address,address)": {
        "notice": "Get the current allowance from `owner` for `spender`"
      },
      "approve(address,uint256)": {
        "notice": "Approve `spender` to transfer up to `amount` from `src`"
      },
      "balanceOf(address)": {
        "notice": "Get the token balance of the `owner`"
      },
      "balanceOfUnderlying(address)": {
        "notice": "Get the underlying balance of the `owner`"
      },
      "borrow(uint256)": {
        "notice": "Sender borrows assets from the protocol to their own address"
      },
      "borrowBalanceCurrent(address)": {
        "notice": "Accrue interest to updated borrowIndex and then calculate account's borrow balance using the updated borrowIndex"
      },
      "borrowBalanceStored(address)": {
        "notice": "Return the borrow balance of account based on stored data"
      },
      "borrowIndex()": {
        "notice": "Accumulator of the total earned interest rate since the opening of the market"
      },
      "borrowRatePerBlock()": {
        "notice": "Returns the current per-block borrow interest rate for this pToken"
      },
      "constructor": "Construct a new PEther money market",
      "decimals()": {
        "notice": "EIP-20 token decimals for this token"
      },
      "exchangeRateCurrent()": {
        "notice": "Accrue interest then return the up-to-date exchange rate"
      },
      "exchangeRateStored()": {
        "notice": "Calculates the exchange rate from the underlying to the pToken"
      },
      "getAccountSnapshot(address)": {
        "notice": "Get a snapshot of the account's balances, and the cached exchange rate"
      },
      "getCash()": {
        "notice": "Get cash balance of this pToken in the underlying asset"
      },
      "initialize(address,address,uint256,string,string,uint8)": {
        "notice": ""
      },
      "interestRateModel()": {
        "notice": "Model which tells what the current interest rate should be"
      },
      "isPToken()": {
        "notice": "Indicator that this is a PToken contract (for inspection)"
      },
      "liquidateBorrow(address,address)": {
        "notice": "The sender liquidates the borrowers collateral.  The collateral seized is transferred to the liquidator."
      },
      "mint()": {
        "notice": "Sender supplies assets into the market and receives PTokens in exchange"
      },
      "name()": {
        "notice": "EIP-20 token name for this token"
      },
      "pendingAdmin()": {
        "notice": "Pending administrator for this contract"
      },
      "redeem(uint256)": {
        "notice": "Sender redeems PTokens in exchange for the underlying asset"
      },
      "redeemUnderlying(uint256)": {
        "notice": "Sender redeems PTokens in exchange for a specified amount of underlying asset"
      },
      "repayBorrow()": {
        "notice": "Sender repays their own borrow"
      },
      "repayBorrowBehalf(address)": {
        "notice": "Sender repays a borrow belonging to borrower"
      },
      "reserveFactorMantissa()": {
        "notice": "Fraction of interest currently set aside for reserves"
      },
      "riskManager()": {
        "notice": "Contract which oversees inter-pToken operations"
      },
      "seize(address,address,uint256)": {
        "notice": "Transfers collateral tokens (this market) to the liquidator."
      },
      "supplyRatePerBlock()": {
        "notice": "Returns the current per-block supply interest rate for this pToken"
      },
      "symbol()": {
        "notice": "EIP-20 token symbol for this token"
      },
      "totalBorrows()": {
        "notice": "Total amount of outstanding borrows of the underlying in this market"
      },
      "totalBorrowsCurrent()": {
        "notice": "Returns the current total borrows plus accrued interest"
      },
      "totalReserves()": {
        "notice": "Total amount of reserves of the underlying held in this market"
      },
      "totalSupply()": {
        "notice": "Total number of tokens in circulation"
      },
      "transfer(address,uint256)": {
        "notice": "Transfer `amount` tokens from `msg.sender` to `dst`"
      },
      "transferFrom(address,address,uint256)": {
        "notice": "Transfer `amount` tokens from `src` to `dst`"
      }
    }
  }
}