{
  "contractName": "PlutoLens",
  "abi": [
    {
      "inputs": [
        {
          "internalType": "contract PToken",
          "name": "pToken",
          "type": "address"
        }
      ],
      "name": "pTokenMetadata",
      "outputs": [
        {
          "components": [
            {
              "internalType": "address",
              "name": "pToken",
              "type": "address"
            },
            {
              "internalType": "uint256",
              "name": "exchangeRateCurrent",
              "type": "uint256"
            },
            {
              "internalType": "uint256",
              "name": "supplyRatePerBlock",
              "type": "uint256"
            },
            {
              "internalType": "uint256",
              "name": "borrowRatePerBlock",
              "type": "uint256"
            },
            {
              "internalType": "uint256",
              "name": "reserveFactorMantissa",
              "type": "uint256"
            },
            {
              "internalType": "uint256",
              "name": "totalBorrows",
              "type": "uint256"
            },
            {
              "internalType": "uint256",
              "name": "totalReserves",
              "type": "uint256"
            },
            {
              "internalType": "uint256",
              "name": "totalSupply",
              "type": "uint256"
            },
            {
              "internalType": "uint256",
              "name": "totalCash",
              "type": "uint256"
            },
            {
              "internalType": "bool",
              "name": "isListed",
              "type": "bool"
            },
            {
              "internalType": "uint256",
              "name": "collateralFactorMantissa",
              "type": "uint256"
            },
            {
              "internalType": "address",
              "name": "underlyingAssetAddress",
              "type": "address"
            },
            {
              "internalType": "uint256",
              "name": "pTokenDecimals",
              "type": "uint256"
            },
            {
              "internalType": "uint256",
              "name": "underlyingDecimals",
              "type": "uint256"
            }
          ],
          "internalType": "struct PlutoLens.PTokenMetadata",
          "name": "",
          "type": "tuple"
        }
      ],
      "stateMutability": "nonpayable",
      "type": "function"
    },
    {
      "inputs": [
        {
          "internalType": "contract PToken[]",
          "name": "pTokens",
          "type": "address[]"
        }
      ],
      "name": "pTokenMetadataAll",
      "outputs": [
        {
          "components": [
            {
              "internalType": "address",
              "name": "pToken",
              "type": "address"
            },
            {
              "internalType": "uint256",
              "name": "exchangeRateCurrent",
              "type": "uint256"
            },
            {
              "internalType": "uint256",
              "name": "supplyRatePerBlock",
              "type": "uint256"
            },
            {
              "internalType": "uint256",
              "name": "borrowRatePerBlock",
              "type": "uint256"
            },
            {
              "internalType": "uint256",
              "name": "reserveFactorMantissa",
              "type": "uint256"
            },
            {
              "internalType": "uint256",
              "name": "totalBorrows",
              "type": "uint256"
            },
            {
              "internalType": "uint256",
              "name": "totalReserves",
              "type": "uint256"
            },
            {
              "internalType": "uint256",
              "name": "totalSupply",
              "type": "uint256"
            },
            {
              "internalType": "uint256",
              "name": "totalCash",
              "type": "uint256"
            },
            {
              "internalType": "bool",
              "name": "isListed",
              "type": "bool"
            },
            {
              "internalType": "uint256",
              "name": "collateralFactorMantissa",
              "type": "uint256"
            },
            {
              "internalType": "address",
              "name": "underlyingAssetAddress",
              "type": "address"
            },
            {
              "internalType": "uint256",
              "name": "pTokenDecimals",
              "type": "uint256"
            },
            {
              "internalType": "uint256",
              "name": "underlyingDecimals",
              "type": "uint256"
            }
          ],
          "internalType": "struct PlutoLens.PTokenMetadata[]",
          "name": "",
          "type": "tuple[]"
        }
      ],
      "stateMutability": "nonpayable",
      "type": "function"
    },
    {
      "inputs": [
        {
          "internalType": "contract PToken",
          "name": "pToken",
          "type": "address"
        },
        {
          "internalType": "address payable",
          "name": "account",
          "type": "address"
        }
      ],
      "name": "pTokenBalances",
      "outputs": [
        {
          "components": [
            {
              "internalType": "address",
              "name": "pToken",
              "type": "address"
            },
            {
              "internalType": "uint256",
              "name": "balanceOf",
              "type": "uint256"
            },
            {
              "internalType": "uint256",
              "name": "borrowBalanceCurrent",
              "type": "uint256"
            },
            {
              "internalType": "uint256",
              "name": "balanceOfUnderlying",
              "type": "uint256"
            },
            {
              "internalType": "uint256",
              "name": "tokenBalance",
              "type": "uint256"
            },
            {
              "internalType": "uint256",
              "name": "tokenAllowance",
              "type": "uint256"
            }
          ],
          "internalType": "struct PlutoLens.PTokenBalances",
          "name": "",
          "type": "tuple"
        }
      ],
      "stateMutability": "nonpayable",
      "type": "function"
    },
    {
      "inputs": [
        {
          "internalType": "contract PToken[]",
          "name": "pTokens",
          "type": "address[]"
        },
        {
          "internalType": "address payable",
          "name": "account",
          "type": "address"
        }
      ],
      "name": "pTokenBalancesAll",
      "outputs": [
        {
          "components": [
            {
              "internalType": "address",
              "name": "pToken",
              "type": "address"
            },
            {
              "internalType": "uint256",
              "name": "balanceOf",
              "type": "uint256"
            },
            {
              "internalType": "uint256",
              "name": "borrowBalanceCurrent",
              "type": "uint256"
            },
            {
              "internalType": "uint256",
              "name": "balanceOfUnderlying",
              "type": "uint256"
            },
            {
              "internalType": "uint256",
              "name": "tokenBalance",
              "type": "uint256"
            },
            {
              "internalType": "uint256",
              "name": "tokenAllowance",
              "type": "uint256"
            }
          ],
          "internalType": "struct PlutoLens.PTokenBalances[]",
          "name": "",
          "type": "tuple[]"
        }
      ],
      "stateMutability": "nonpayable",
      "type": "function"
    },
    {
      "inputs": [
        {
          "internalType": "contract PToken",
          "name": "pToken",
          "type": "address"
        }
      ],
      "name": "pTokenUnderlyingPrice",
      "outputs": [
        {
          "components": [
            {
              "internalType": "address",
              "name": "pToken",
              "type": "address"
            },
            {
              "internalType": "uint256",
              "name": "underlyingPrice",
              "type": "uint256"
            }
          ],
          "internalType": "struct PlutoLens.PTokenUnderlyingPrice",
          "name": "",
          "type": "tuple"
        }
      ],
      "stateMutability": "view",
      "type": "function",
      "constant": true
    },
    {
      "inputs": [
        {
          "internalType": "contract PToken[]",
          "name": "pTokens",
          "type": "address[]"
        }
      ],
      "name": "pTokenUnderlyingPriceAll",
      "outputs": [
        {
          "components": [
            {
              "internalType": "address",
              "name": "pToken",
              "type": "address"
            },
            {
              "internalType": "uint256",
              "name": "underlyingPrice",
              "type": "uint256"
            }
          ],
          "internalType": "struct PlutoLens.PTokenUnderlyingPrice[]",
          "name": "",
          "type": "tuple[]"
        }
      ],
      "stateMutability": "view",
      "type": "function",
      "constant": true
    },
    {
      "inputs": [
        {
          "internalType": "contract PlutoLensInterface",
          "name": "plutoLens",
          "type": "address"
        },
        {
          "internalType": "address",
          "name": "account",
          "type": "address"
        }
      ],
      "name": "getAccountLimits",
      "outputs": [
        {
          "components": [
            {
              "internalType": "contract PToken[]",
              "name": "markets",
              "type": "address[]"
            },
            {
              "internalType": "uint256",
              "name": "liquidity",
              "type": "uint256"
            },
            {
              "internalType": "uint256",
              "name": "shortfall",
              "type": "uint256"
            }
          ],
          "internalType": "struct PlutoLens.AccountLimits",
          "name": "",
          "type": "tuple"
        }
      ],
      "stateMutability": "view",
      "type": "function",
      "constant": true
    }
  ],
  "bytecode": "0x608060405234801561001057600080fd5b5061198c806100206000396000f3fe608060405234801561001057600080fd5b506004361061007d5760003560e01c80637dd8f6d91161005b5780637dd8f6d9146100eb578063bb8fb2d21461010b578063d88213961461012b578063def0ab0c1461014b5761007d565b80630632c18a1461008257806357e9ccaf146100ab5780636c7109fc146100cb575b600080fd5b6100956100903660046114cd565b61016b565b6040516100a291906118bc565b60405180910390f35b6100be6100b93660046114b1565b61056b565b6040516100a291906118ca565b6100de6100d9366004611340565b610c91565b6040516100a291906117bd565b6100fe6100f93660046114cd565b610d40565b6040516100a2919061184d565b61011e610119366004611380565b610e7c565b6040516100a2919061176f565b61013e610139366004611340565b610f32565b6040516100a29190611800565b61015e6101593660046114b1565b610fd8565b6040516100a291906118d9565b6101736111cf565b6040516370a0823160e01b81526000906001600160a01b038516906370a08231906101a2908690600401611741565b60206040518083038186803b1580156101ba57600080fd5b505afa1580156101ce573d6000803e3d6000fd5b505050506040513d601f19601f820116820180604052508101906101f29190611588565b90506000846001600160a01b03166317bfdfbc856040518263ffffffff1660e01b81526004016102229190611741565b602060405180830381600087803b15801561023c57600080fd5b505af1158015610250573d6000803e3d6000fd5b505050506040513d601f19601f820116820180604052508101906102749190611588565b90506000856001600160a01b0316633af9e669866040518263ffffffff1660e01b81526004016102a49190611741565b602060405180830381600087803b1580156102be57600080fd5b505af11580156102d2573d6000803e3d6000fd5b505050506040513d601f19601f820116820180604052508101906102f69190611588565b9050600080610395886001600160a01b03166395d89b416040518163ffffffff1660e01b815260040160006040518083038186803b15801561033757600080fd5b505afa15801561034b573d6000803e3d6000fd5b505050506040513d6000823e601f3d908101601f191682016040526103739190810190611505565b604051806040016040528060048152602001630c68aa8960e31b8152506110f8565b156103af5750506001600160a01b0385168031903161052c565b60008890506000816001600160a01b0316636f307dc36040518163ffffffff1660e01b815260040160206040518083038186803b1580156103ef57600080fd5b505afa158015610403573d6000803e3d6000fd5b505050506040513d601f19601f82011682018060405250810190610427919061131d565b6040516370a0823160e01b81529091506001600160a01b038216906370a0823190610456908c90600401611741565b60206040518083038186803b15801561046e57600080fd5b505afa158015610482573d6000803e3d6000fd5b505050506040513d601f19601f820116820180604052508101906104a69190611588565b604051636eb1769f60e11b81529094506001600160a01b0382169063dd62ed3e906104d7908c908e90600401611755565b60206040518083038186803b1580156104ef57600080fd5b505afa158015610503573d6000803e3d6000fd5b505050506040513d601f19601f820116820180604052508101906105279190611588565b925050505b6040805160c0810182526001600160a01b038a16815260208101969096528501939093526060840191909152608083015260a082015290505b92915050565b61057361120e565b6000826001600160a01b031663bd6d894d6040518163ffffffff1660e01b8152600401602060405180830381600087803b1580156105b057600080fd5b505af11580156105c4573d6000803e3d6000fd5b505050506040513d601f19601f820116820180604052508101906105e89190611588565b90506000836001600160a01b031663478426636040518163ffffffff1660e01b815260040160206040518083038186803b15801561062557600080fd5b505afa158015610639573d6000803e3d6000fd5b505050506040513d601f19601f8201168201806040525081019061065d919061131d565b9050600080826001600160a01b0316638e8f294b876040518263ffffffff1660e01b815260040161068e9190611741565b604080518083038186803b1580156106a557600080fd5b505afa1580156106b9573d6000803e3d6000fd5b505050506040513d601f19601f820116820180604052508101906106dd9190611480565b91509150600080610720886001600160a01b03166395d89b416040518163ffffffff1660e01b815260040160006040518083038186803b15801561033757600080fd5b156107315750600090506012610891565b6000889050806001600160a01b0316636f307dc36040518163ffffffff1660e01b815260040160206040518083038186803b15801561076f57600080fd5b505afa158015610783573d6000803e3d6000fd5b505050506040513d601f19601f820116820180604052508101906107a7919061131d565b9250806001600160a01b0316636f307dc36040518163ffffffff1660e01b815260040160206040518083038186803b1580156107e257600080fd5b505afa1580156107f6573d6000803e3d6000fd5b505050506040513d601f19601f8201168201806040525081019061081a919061131d565b6001600160a01b031663313ce5676040518163ffffffff1660e01b815260040160206040518083038186803b15801561085257600080fd5b505afa158015610866573d6000803e3d6000fd5b505050506040513d601f19601f8201168201806040525081019061088a91906115f0565b60ff169150505b604051806101c00160405280896001600160a01b03168152602001878152602001896001600160a01b031663ae9d70b06040518163ffffffff1660e01b815260040160206040518083038186803b1580156108eb57600080fd5b505afa1580156108ff573d6000803e3d6000fd5b505050506040513d601f19601f820116820180604052508101906109239190611588565b8152602001896001600160a01b031663f8f9da286040518163ffffffff1660e01b815260040160206040518083038186803b15801561096157600080fd5b505afa158015610975573d6000803e3d6000fd5b505050506040513d601f19601f820116820180604052508101906109999190611588565b8152602001896001600160a01b031663173b99046040518163ffffffff1660e01b815260040160206040518083038186803b1580156109d757600080fd5b505afa1580156109eb573d6000803e3d6000fd5b505050506040513d601f19601f82011682018060405250810190610a0f9190611588565b8152602001896001600160a01b03166347bd37186040518163ffffffff1660e01b815260040160206040518083038186803b158015610a4d57600080fd5b505afa158015610a61573d6000803e3d6000fd5b505050506040513d601f19601f82011682018060405250810190610a859190611588565b8152602001896001600160a01b0316638f840ddd6040518163ffffffff1660e01b815260040160206040518083038186803b158015610ac357600080fd5b505afa158015610ad7573d6000803e3d6000fd5b505050506040513d601f19601f82011682018060405250810190610afb9190611588565b8152602001896001600160a01b03166318160ddd6040518163ffffffff1660e01b815260040160206040518083038186803b158015610b3957600080fd5b505afa158015610b4d573d6000803e3d6000fd5b505050506040513d601f19601f82011682018060405250810190610b719190611588565b8152602001896001600160a01b0316633b1d21a26040518163ffffffff1660e01b815260040160206040518083038186803b158015610baf57600080fd5b505afa158015610bc3573d6000803e3d6000fd5b505050506040513d601f19601f82011682018060405250810190610be79190611588565b81526020018515158152602001848152602001836001600160a01b03168152602001896001600160a01b031663313ce5676040518163ffffffff1660e01b815260040160206040518083038186803b158015610c4257600080fd5b505afa158015610c56573d6000803e3d6000fd5b505050506040513d601f19601f82011682018060405250810190610c7a91906115f0565b60ff16815260200191909152979650505050505050565b606081818167ffffffffffffffff81118015610cac57600080fd5b50604051908082528060200260200182016040528015610ce657816020015b610cd361120e565b815260200190600190039081610ccb5790505b50905060005b82811015610d3757610d18868683818110610d0357fe5b90506020020160208101906100b991906114b1565b828281518110610d2457fe5b6020908102919091010152600101610cec565b50949350505050565b610d48611291565b6000806000856001600160a01b0316635ec88c79866040518263ffffffff1660e01b8152600401610d799190611741565b60606040518083038186803b158015610d9157600080fd5b505afa158015610da5573d6000803e3d6000fd5b505050506040513d601f19601f82011682018060405250810190610dc991906115c3565b92509250925082600014610ddc57600080fd5b604080516060810191829052632aff3bff60e21b909152806001600160a01b03881663abfceffc610e108960648501611741565b60006040518083038186803b158015610e2857600080fd5b505afa158015610e3c573d6000803e3d6000fd5b505050506040513d6000823e601f3d908101601f19168201604052610e6491908101906113d5565b81526020810193909352604090920152949350505050565b606082818167ffffffffffffffff81118015610e9757600080fd5b50604051908082528060200260200182016040528015610ed157816020015b610ebe6111cf565b815260200190600190039081610eb65790505b50905060005b82811015610f2857610f09878783818110610eee57fe5b9050602002016020810190610f0391906114b1565b8661016b565b828281518110610f1557fe5b6020908102919091010152600101610ed7565b5095945050505050565b606081818167ffffffffffffffff81118015610f4d57600080fd5b50604051908082528060200260200182016040528015610f8757816020015b610f746112b2565b815260200190600190039081610f6c5790505b50905060005b82811015610d3757610fb9868683818110610fa457fe5b905060200201602081019061015991906114b1565b828281518110610fc557fe5b6020908102919091010152600101610f8d565b610fe06112b2565b6000826001600160a01b031663478426636040518163ffffffff1660e01b815260040160206040518083038186803b15801561101b57600080fd5b505afa15801561102f573d6000803e3d6000fd5b505050506040513d601f19601f82011682018060405250810190611053919061131d565b90506000816001600160a01b0316637dc0d1d06040518163ffffffff1660e01b815260040160206040518083038186803b15801561109057600080fd5b505afa1580156110a4573d6000803e3d6000fd5b505050506040513d601f19601f820116820180604052508101906110c8919061131d565b90506040518060400160405280856001600160a01b031681526020016110ee8387611151565b9052949350505050565b60008160405160200161110b9190611725565b60405160208183030381529060405280519060200120836040516020016111329190611725565b6040516020818303038152906040528051906020012014905092915050565b600080836001600160a01b031663fc57d4df846040518263ffffffff1660e01b81526004016111809190611741565b604080518083038186803b15801561119757600080fd5b505afa1580156111ab573d6000803e3d6000fd5b505050506040513d601f19601f82011682018060405250810190610d3791906115a0565b6040518060c0016040528060006001600160a01b0316815260200160008152602001600081526020016000815260200160008152602001600081525090565b604051806101c0016040528060006001600160a01b0316815260200160008152602001600081526020016000815260200160008152602001600081526020016000815260200160008152602001600081526020016000151581526020016000815260200160006001600160a01b0316815260200160008152602001600081525090565b60405180606001604052806060815260200160008152602001600081525090565b604080518082019091526000808252602082015290565b60008083601f8401126112da578182fd5b50813567ffffffffffffffff8111156112f1578182fd5b602083019150836020808302850101111561130b57600080fd5b9250929050565b80516105658161193e565b60006020828403121561132e578081fd5b81516113398161193e565b9392505050565b60008060208385031215611352578081fd5b823567ffffffffffffffff811115611368578182fd5b611374858286016112c9565b90969095509350505050565b600080600060408486031215611394578081fd5b833567ffffffffffffffff8111156113aa578182fd5b6113b6868287016112c9565b90945092505060208401356113ca8161193e565b809150509250925092565b600060208083850312156113e7578182fd5b825167ffffffffffffffff808211156113fe578384fd5b81850186601f82011261140f578485fd5b805192508183111561141f578485fd5b838302915061142f8483016118e7565b8381528481019082860184840187018a1015611449578788fd5b8794505b858510156114735761145f8a82611312565b83526001949094019391860191860161144d565b5098975050505050505050565b60008060408385031215611492578182fd5b825180151581146114a1578283fd5b6020939093015192949293505050565b6000602082840312156114c2578081fd5b81356113398161193e565b600080604083850312156114df578182fd5b82356114ea8161193e565b915060208301356114fa8161193e565b809150509250929050565b600060208284031215611516578081fd5b815167ffffffffffffffff8082111561152d578283fd5b81840185601f82011261153e578384fd5b805192508183111561154e578384fd5b611561601f8401601f19166020016118e7565b9150828252856020848301011115611577578384fd5b610d3783602084016020840161190e565b600060208284031215611599578081fd5b5051919050565b600080604083850312156115b2578182fd5b505080516020909101519092909150565b6000806000606084860312156115d7578081fd5b8351925060208401519150604084015190509250925092565b600060208284031215611601578081fd5b815160ff81168114611339578182fd5b6001600160a01b03169052565b15159052565b80516001600160a01b031682526020808201519083015260408082015190830152606080820151908301526080808201519083015260a090810151910152565b61166f828251611611565b6020810151602083015260408101516040830152606081015160608301526080810151608083015260a081015160a083015260c081015160c083015260e081015160e0830152610100808201518184015250610120808201516116d48285018261161e565b50506101408181015190830152610160808201516116f482850182611611565b505061018081810151908301526101a090810151910152565b80516001600160a01b03168252602090810151910152565b6000825161173781846020870161190e565b9190910192915050565b6001600160a01b0391909116815260200190565b6001600160a01b0392831681529116602082015260400190565b6020808252825182820181905260009190848201906040850190845b818110156117b15761179e838551611624565b9284019260c0929092019160010161178b565b50909695505050505050565b6020808252825182820181905260009190848201906040850190845b818110156117b1576117ec838551611664565b928401926101c092909201916001016117d9565b602080825282518282018190526000919060409081850190868401855b828110156118405761183084835161170d565b928401929085019060010161181d565b5091979650505050505050565b6020808252825160608383015280516080840181905260009291820190839060a08601905b8083101561189b5783516001600160a01b03168252928401926001929092019190840190611872565b50838701516040870152604087015160608701528094505050505092915050565b60c081016105658284611624565b6101c081016105658284611664565b60408101610565828461170d565b60405181810167ffffffffffffffff8111828210171561190657600080fd5b604052919050565b60005b83811015611929578181015183820152602001611911565b83811115611938576000848401525b50505050565b6001600160a01b038116811461195357600080fd5b5056fea2646970667358221220ba8aa0156d7962a7fd9eeef8244b7581072b8a013755f4bd92529ac1bdc4b80664736f6c63430006090033",
  "immutableReferences": {},
  "source": "// SPDX-License-Identifier: UNLICENSED\npragma solidity ^0.6.9;\npragma experimental ABIEncoderV2;\n\nimport \"../tokenization/PErc20.sol\";\nimport \"../tokenization/PToken.sol\";\nimport \"../oracle/PriceOracle.sol\";\nimport \"@openzeppelin/contracts/token/ERC20/ERC20.sol\";\n\ninterface PlutoLensInterface {\n    function markets(address) external view returns (bool, uint);\n    function oracle() external view returns (PriceOracle);\n    function getAccountLiquidity(address) external view returns (uint, uint, uint);\n    function getAssetsIn(address) external view returns (PToken[] memory);\n}\n\ncontract PlutoLens {\n    struct PTokenMetadata {\n        address pToken;\n        uint exchangeRateCurrent;\n        uint supplyRatePerBlock;\n        uint borrowRatePerBlock;\n        uint reserveFactorMantissa;\n        uint totalBorrows;\n        uint totalReserves;\n        uint totalSupply;\n        uint totalCash;\n        bool isListed;\n        uint collateralFactorMantissa;\n        address underlyingAssetAddress;\n        uint pTokenDecimals;\n        uint underlyingDecimals;\n    }\n\n    function pTokenMetadata(PToken pToken) public returns (PTokenMetadata memory) {\n        uint exchangeRateCurrent = pToken.exchangeRateCurrent();\n        PlutoLensInterface plutoLens = PlutoLensInterface(address(pToken.riskManager()));\n        (bool isListed, uint collateralFactorMantissa) = plutoLens.markets(address(pToken));\n        address underlyingAssetAddress;\n        uint underlyingDecimals;\n\n        if (compareStrings(pToken.symbol(), \"cETH\")) {\n            underlyingAssetAddress = address(0);\n            underlyingDecimals = 18;\n        } else {\n            PErc20 pErc20 = PErc20(address(pToken));\n            underlyingAssetAddress = pErc20.underlying();\n            underlyingDecimals = ERC20(pErc20.underlying()).decimals();\n        }\n\n        return PTokenMetadata({\n        pToken: address(pToken),\n        exchangeRateCurrent: exchangeRateCurrent,\n        supplyRatePerBlock: pToken.supplyRatePerBlock(),\n        borrowRatePerBlock: pToken.borrowRatePerBlock(),\n        reserveFactorMantissa: pToken.reserveFactorMantissa(),\n        totalBorrows: pToken.totalBorrows(),\n        totalReserves: pToken.totalReserves(),\n        totalSupply: pToken.totalSupply(),\n        totalCash: pToken.getCash(),\n        isListed: isListed,\n        collateralFactorMantissa: collateralFactorMantissa,\n        underlyingAssetAddress: underlyingAssetAddress,\n        pTokenDecimals: pToken.decimals(),\n        underlyingDecimals: underlyingDecimals\n        });\n    }\n\n    function pTokenMetadataAll(PToken[] calldata pTokens) external returns (PTokenMetadata[] memory) {\n        uint pTokenCount = pTokens.length;\n        PTokenMetadata[] memory res = new PTokenMetadata[](pTokenCount);\n        for (uint i = 0; i < pTokenCount; i++) {\n            res[i] = pTokenMetadata(pTokens[i]);\n        }\n        return res;\n    }\n\n    struct PTokenBalances {\n        address pToken;\n        uint balanceOf;\n        uint borrowBalanceCurrent;\n        uint balanceOfUnderlying;\n        uint tokenBalance;\n        uint tokenAllowance;\n    }\n\n    function pTokenBalances(PToken pToken, address payable account) public returns (PTokenBalances memory) {\n        uint balanceOf = pToken.balanceOf(account);\n        uint borrowBalanceCurrent = pToken.borrowBalanceCurrent(account);\n        uint balanceOfUnderlying = pToken.balanceOfUnderlying(account);\n        uint tokenBalance;\n        uint tokenAllowance;\n\n        if (compareStrings(pToken.symbol(), \"cETH\")) {\n            tokenBalance = account.balance;\n            tokenAllowance = account.balance;\n        } else {\n            PErc20 pErc20 = PErc20(address(pToken));\n            IERC20 underlying = IERC20(pErc20.underlying());\n            tokenBalance = underlying.balanceOf(account);\n            tokenAllowance = underlying.allowance(account, address(pToken));\n        }\n\n        return PTokenBalances({\n        pToken: address(pToken),\n        balanceOf: balanceOf,\n        borrowBalanceCurrent: borrowBalanceCurrent,\n        balanceOfUnderlying: balanceOfUnderlying,\n        tokenBalance: tokenBalance,\n        tokenAllowance: tokenAllowance\n        });\n    }\n\n    function pTokenBalancesAll(PToken[] calldata pTokens, address payable account) external returns (PTokenBalances[] memory) {\n        uint pTokenCount = pTokens.length;\n        PTokenBalances[] memory res = new PTokenBalances[](pTokenCount);\n        for (uint i = 0; i < pTokenCount; i++) {\n            res[i] = pTokenBalances(pTokens[i], account);\n        }\n        return res;\n    }\n\n    struct PTokenUnderlyingPrice {\n        address pToken;\n        uint underlyingPrice;\n    }\n\n    function pTokenUnderlyingPrice(PToken pToken) public view returns (PTokenUnderlyingPrice memory) {\n        PlutoLensInterface plutoLens = PlutoLensInterface(address(pToken.riskManager()));\n        PriceOracle priceOracle = plutoLens.oracle();\n\n        return PTokenUnderlyingPrice({\n        pToken: address(pToken),\n        underlyingPrice: getUnderlyingPrice(priceOracle, pToken)\n        });\n    }\n\n    function getUnderlyingPrice(PriceOracle priceOracle, PToken pToken) private view returns (uint256) {\n        (uint256 price, ) = priceOracle.getUnderlyingPrice(pToken);\n        return price;\n    }\n\n    function pTokenUnderlyingPriceAll(PToken[] calldata pTokens) external view returns (PTokenUnderlyingPrice[] memory) {\n        uint pTokenCount = pTokens.length;\n        PTokenUnderlyingPrice[] memory res = new PTokenUnderlyingPrice[](pTokenCount);\n        for (uint i = 0; i < pTokenCount; i++) {\n            res[i] = pTokenUnderlyingPrice(pTokens[i]);\n        }\n        return res;\n    }\n\n    struct AccountLimits {\n        PToken[] markets;\n        uint liquidity;\n        uint shortfall;\n    }\n\n    function getAccountLimits(PlutoLensInterface plutoLens, address account) public view returns (AccountLimits memory) {\n        (uint errorCode, uint liquidity, uint shortfall) = plutoLens.getAccountLiquidity(account);\n        require(errorCode == 0);\n\n        return AccountLimits({\n        markets: plutoLens.getAssetsIn(account),\n        liquidity: liquidity,\n        shortfall: shortfall\n        });\n    }\n\n    function compareStrings(string memory a, string memory b) internal pure returns (bool) {\n        return (keccak256(abi.encodePacked((a))) == keccak256(abi.encodePacked((b))));\n    }\n\n    function add(uint a, uint b, string memory errorMessage) internal pure returns (uint) {\n        uint c = a + b;\n        require(c >= a, errorMessage);\n        return c;\n    }\n\n    function sub(uint a, uint b, string memory errorMessage) internal pure returns (uint) {\n        require(b <= a, errorMessage);\n        uint c = a - b;\n        return c;\n    }\n}\n",
  "sourcePath": "/Users/ashton/repo/blockchain/eth/smartcontracts/PoolX/contracts/lens/PlutoLens.sol",
  "compiler": {
    "name": "solc",
    "version": "0.6.9+commit.3e3065ac.Emscripten.clang"
  },
  "schemaVersion": "3.2.0",
  "updatedAt": "2020-09-16T09:50:55.357Z",
  "networkType": "ethereum",
  "devdoc": {
    "methods": {}
  },
  "userdoc": {
    "methods": {}
  }
}