{
  "contractName": "PoolXController",
  "abi": [
    {
      "inputs": [],
      "stateMutability": "nonpayable",
      "type": "constructor"
    },
    {
      "anonymous": false,
      "inputs": [
        {
          "indexed": false,
          "internalType": "string",
          "name": "action",
          "type": "string"
        },
        {
          "indexed": false,
          "internalType": "bool",
          "name": "pauseState",
          "type": "bool"
        }
      ],
      "name": "ActionPaused",
      "type": "event"
    },
    {
      "anonymous": false,
      "inputs": [
        {
          "indexed": false,
          "internalType": "contract PToken",
          "name": "pToken",
          "type": "address"
        },
        {
          "indexed": false,
          "internalType": "string",
          "name": "action",
          "type": "string"
        },
        {
          "indexed": false,
          "internalType": "bool",
          "name": "pauseState",
          "type": "bool"
        }
      ],
      "name": "ActionPaused",
      "type": "event"
    },
    {
      "anonymous": false,
      "inputs": [
        {
          "indexed": false,
          "internalType": "uint256",
          "name": "error",
          "type": "uint256"
        },
        {
          "indexed": false,
          "internalType": "uint256",
          "name": "info",
          "type": "uint256"
        },
        {
          "indexed": false,
          "internalType": "uint256",
          "name": "detail",
          "type": "uint256"
        }
      ],
      "name": "Failure",
      "type": "event"
    },
    {
      "anonymous": false,
      "inputs": [
        {
          "indexed": false,
          "internalType": "contract PToken",
          "name": "pToken",
          "type": "address"
        },
        {
          "indexed": false,
          "internalType": "address",
          "name": "account",
          "type": "address"
        }
      ],
      "name": "MarketEntered",
      "type": "event"
    },
    {
      "anonymous": false,
      "inputs": [
        {
          "indexed": false,
          "internalType": "contract PToken",
          "name": "pToken",
          "type": "address"
        },
        {
          "indexed": false,
          "internalType": "address",
          "name": "account",
          "type": "address"
        }
      ],
      "name": "MarketExited",
      "type": "event"
    },
    {
      "anonymous": false,
      "inputs": [
        {
          "indexed": false,
          "internalType": "contract PToken",
          "name": "pToken",
          "type": "address"
        }
      ],
      "name": "MarketListed",
      "type": "event"
    },
    {
      "anonymous": false,
      "inputs": [
        {
          "indexed": false,
          "internalType": "uint256",
          "name": "oldCloseFactorMantissa",
          "type": "uint256"
        },
        {
          "indexed": false,
          "internalType": "uint256",
          "name": "newCloseFactorMantissa",
          "type": "uint256"
        }
      ],
      "name": "NewCloseFactor",
      "type": "event"
    },
    {
      "anonymous": false,
      "inputs": [
        {
          "indexed": false,
          "internalType": "contract PToken",
          "name": "pToken",
          "type": "address"
        },
        {
          "indexed": false,
          "internalType": "uint256",
          "name": "oldCollateralFactorMantissa",
          "type": "uint256"
        },
        {
          "indexed": false,
          "internalType": "uint256",
          "name": "newCollateralFactorMantissa",
          "type": "uint256"
        }
      ],
      "name": "NewCollateralFactor",
      "type": "event"
    },
    {
      "anonymous": false,
      "inputs": [
        {
          "indexed": false,
          "internalType": "uint256",
          "name": "oldLiquidationIncentiveMantissa",
          "type": "uint256"
        },
        {
          "indexed": false,
          "internalType": "uint256",
          "name": "newLiquidationIncentiveMantissa",
          "type": "uint256"
        }
      ],
      "name": "NewLiquidationIncentive",
      "type": "event"
    },
    {
      "anonymous": false,
      "inputs": [
        {
          "indexed": false,
          "internalType": "uint256",
          "name": "oldMaxAssets",
          "type": "uint256"
        },
        {
          "indexed": false,
          "internalType": "uint256",
          "name": "newMaxAssets",
          "type": "uint256"
        }
      ],
      "name": "NewMaxAssets",
      "type": "event"
    },
    {
      "anonymous": false,
      "inputs": [
        {
          "indexed": false,
          "internalType": "address",
          "name": "oldPauseGuardian",
          "type": "address"
        },
        {
          "indexed": false,
          "internalType": "address",
          "name": "newPauseGuardian",
          "type": "address"
        }
      ],
      "name": "NewPauseGuardian",
      "type": "event"
    },
    {
      "anonymous": false,
      "inputs": [
        {
          "indexed": false,
          "internalType": "contract PriceOracle",
          "name": "oldPriceOracle",
          "type": "address"
        },
        {
          "indexed": false,
          "internalType": "contract PriceOracle",
          "name": "newPriceOracle",
          "type": "address"
        }
      ],
      "name": "NewPriceOracle",
      "type": "event"
    },
    {
      "inputs": [],
      "name": "_borrowGuardianPaused",
      "outputs": [
        {
          "internalType": "bool",
          "name": "",
          "type": "bool"
        }
      ],
      "stateMutability": "view",
      "type": "function"
    },
    {
      "inputs": [],
      "name": "_mintGuardianPaused",
      "outputs": [
        {
          "internalType": "bool",
          "name": "",
          "type": "bool"
        }
      ],
      "stateMutability": "view",
      "type": "function"
    },
    {
      "inputs": [
        {
          "internalType": "address",
          "name": "",
          "type": "address"
        },
        {
          "internalType": "uint256",
          "name": "",
          "type": "uint256"
        }
      ],
      "name": "accountAssets",
      "outputs": [
        {
          "internalType": "contract PToken",
          "name": "",
          "type": "address"
        }
      ],
      "stateMutability": "view",
      "type": "function"
    },
    {
      "inputs": [],
      "name": "admin",
      "outputs": [
        {
          "internalType": "address",
          "name": "",
          "type": "address"
        }
      ],
      "stateMutability": "view",
      "type": "function"
    },
    {
      "inputs": [
        {
          "internalType": "address",
          "name": "",
          "type": "address"
        }
      ],
      "name": "borrowGuardianPaused",
      "outputs": [
        {
          "internalType": "bool",
          "name": "",
          "type": "bool"
        }
      ],
      "stateMutability": "view",
      "type": "function"
    },
    {
      "inputs": [],
      "name": "closeFactorMantissa",
      "outputs": [
        {
          "internalType": "uint256",
          "name": "",
          "type": "uint256"
        }
      ],
      "stateMutability": "view",
      "type": "function"
    },
    {
      "inputs": [],
      "name": "isPoolXController",
      "outputs": [
        {
          "internalType": "bool",
          "name": "",
          "type": "bool"
        }
      ],
      "stateMutability": "view",
      "type": "function"
    },
    {
      "inputs": [],
      "name": "liquidationIncentiveMantissa",
      "outputs": [
        {
          "internalType": "uint256",
          "name": "",
          "type": "uint256"
        }
      ],
      "stateMutability": "view",
      "type": "function"
    },
    {
      "inputs": [
        {
          "internalType": "address",
          "name": "",
          "type": "address"
        }
      ],
      "name": "markets",
      "outputs": [
        {
          "internalType": "bool",
          "name": "isListed",
          "type": "bool"
        },
        {
          "internalType": "uint256",
          "name": "collateralFactorMantissa",
          "type": "uint256"
        }
      ],
      "stateMutability": "view",
      "type": "function"
    },
    {
      "inputs": [],
      "name": "maxAssets",
      "outputs": [
        {
          "internalType": "uint256",
          "name": "",
          "type": "uint256"
        }
      ],
      "stateMutability": "view",
      "type": "function"
    },
    {
      "inputs": [
        {
          "internalType": "address",
          "name": "",
          "type": "address"
        }
      ],
      "name": "mintGuardianPaused",
      "outputs": [
        {
          "internalType": "bool",
          "name": "",
          "type": "bool"
        }
      ],
      "stateMutability": "view",
      "type": "function"
    },
    {
      "inputs": [],
      "name": "oracle",
      "outputs": [
        {
          "internalType": "contract PriceOracle",
          "name": "",
          "type": "address"
        }
      ],
      "stateMutability": "view",
      "type": "function"
    },
    {
      "inputs": [],
      "name": "pauseGuardian",
      "outputs": [
        {
          "internalType": "address",
          "name": "",
          "type": "address"
        }
      ],
      "stateMutability": "view",
      "type": "function"
    },
    {
      "inputs": [],
      "name": "pendingAdmin",
      "outputs": [
        {
          "internalType": "address",
          "name": "",
          "type": "address"
        }
      ],
      "stateMutability": "view",
      "type": "function"
    },
    {
      "inputs": [],
      "name": "seizeGuardianPaused",
      "outputs": [
        {
          "internalType": "bool",
          "name": "",
          "type": "bool"
        }
      ],
      "stateMutability": "view",
      "type": "function"
    },
    {
      "inputs": [],
      "name": "transferGuardianPaused",
      "outputs": [
        {
          "internalType": "bool",
          "name": "",
          "type": "bool"
        }
      ],
      "stateMutability": "view",
      "type": "function"
    },
    {
      "inputs": [
        {
          "internalType": "address",
          "name": "account",
          "type": "address"
        }
      ],
      "name": "getAssetsIn",
      "outputs": [
        {
          "internalType": "contract PToken[]",
          "name": "",
          "type": "address[]"
        }
      ],
      "stateMutability": "view",
      "type": "function"
    },
    {
      "inputs": [
        {
          "internalType": "address",
          "name": "account",
          "type": "address"
        },
        {
          "internalType": "contract PToken",
          "name": "pToken",
          "type": "address"
        }
      ],
      "name": "checkMembership",
      "outputs": [
        {
          "internalType": "bool",
          "name": "",
          "type": "bool"
        }
      ],
      "stateMutability": "view",
      "type": "function"
    },
    {
      "inputs": [
        {
          "internalType": "address[]",
          "name": "pTokens",
          "type": "address[]"
        }
      ],
      "name": "enterMarkets",
      "outputs": [
        {
          "internalType": "uint256[]",
          "name": "",
          "type": "uint256[]"
        }
      ],
      "stateMutability": "nonpayable",
      "type": "function"
    },
    {
      "inputs": [
        {
          "internalType": "address",
          "name": "pTokenAddress",
          "type": "address"
        }
      ],
      "name": "exitMarket",
      "outputs": [
        {
          "internalType": "uint256",
          "name": "",
          "type": "uint256"
        }
      ],
      "stateMutability": "nonpayable",
      "type": "function"
    },
    {
      "inputs": [
        {
          "internalType": "address",
          "name": "pToken",
          "type": "address"
        },
        {
          "internalType": "address",
          "name": "minter",
          "type": "address"
        },
        {
          "internalType": "uint256",
          "name": "mintAmount",
          "type": "uint256"
        }
      ],
      "name": "mintAllowed",
      "outputs": [
        {
          "internalType": "uint256",
          "name": "",
          "type": "uint256"
        }
      ],
      "stateMutability": "nonpayable",
      "type": "function"
    },
    {
      "inputs": [
        {
          "internalType": "address",
          "name": "pToken",
          "type": "address"
        },
        {
          "internalType": "address",
          "name": "redeemer",
          "type": "address"
        },
        {
          "internalType": "uint256",
          "name": "redeemTokens",
          "type": "uint256"
        }
      ],
      "name": "redeemAllowed",
      "outputs": [
        {
          "internalType": "uint256",
          "name": "",
          "type": "uint256"
        }
      ],
      "stateMutability": "nonpayable",
      "type": "function"
    },
    {
      "inputs": [
        {
          "internalType": "address",
          "name": "pToken",
          "type": "address"
        },
        {
          "internalType": "address",
          "name": "borrower",
          "type": "address"
        },
        {
          "internalType": "uint256",
          "name": "borrowAmount",
          "type": "uint256"
        }
      ],
      "name": "borrowAllowed",
      "outputs": [
        {
          "internalType": "uint256",
          "name": "",
          "type": "uint256"
        }
      ],
      "stateMutability": "nonpayable",
      "type": "function"
    },
    {
      "inputs": [
        {
          "internalType": "address",
          "name": "pToken",
          "type": "address"
        },
        {
          "internalType": "address",
          "name": "payer",
          "type": "address"
        },
        {
          "internalType": "address",
          "name": "borrower",
          "type": "address"
        },
        {
          "internalType": "uint256",
          "name": "repayAmount",
          "type": "uint256"
        }
      ],
      "name": "repayBorrowAllowed",
      "outputs": [
        {
          "internalType": "uint256",
          "name": "",
          "type": "uint256"
        }
      ],
      "stateMutability": "nonpayable",
      "type": "function"
    },
    {
      "inputs": [
        {
          "internalType": "address",
          "name": "pTokenBorrowed",
          "type": "address"
        },
        {
          "internalType": "address",
          "name": "pTokenCollateral",
          "type": "address"
        },
        {
          "internalType": "address",
          "name": "liquidator",
          "type": "address"
        },
        {
          "internalType": "address",
          "name": "borrower",
          "type": "address"
        },
        {
          "internalType": "uint256",
          "name": "repayAmount",
          "type": "uint256"
        }
      ],
      "name": "liquidateBorrowAllowed",
      "outputs": [
        {
          "internalType": "uint256",
          "name": "",
          "type": "uint256"
        }
      ],
      "stateMutability": "nonpayable",
      "type": "function"
    },
    {
      "inputs": [
        {
          "internalType": "address",
          "name": "pTokenCollateral",
          "type": "address"
        },
        {
          "internalType": "address",
          "name": "pTokenBorrowed",
          "type": "address"
        },
        {
          "internalType": "address",
          "name": "liquidator",
          "type": "address"
        },
        {
          "internalType": "address",
          "name": "borrower",
          "type": "address"
        },
        {
          "internalType": "uint256",
          "name": "seizeTokens",
          "type": "uint256"
        }
      ],
      "name": "seizeAllowed",
      "outputs": [
        {
          "internalType": "uint256",
          "name": "",
          "type": "uint256"
        }
      ],
      "stateMutability": "nonpayable",
      "type": "function"
    },
    {
      "inputs": [
        {
          "internalType": "address",
          "name": "pToken",
          "type": "address"
        },
        {
          "internalType": "address",
          "name": "src",
          "type": "address"
        },
        {
          "internalType": "address",
          "name": "dst",
          "type": "address"
        },
        {
          "internalType": "uint256",
          "name": "transferTokens",
          "type": "uint256"
        }
      ],
      "name": "transferAllowed",
      "outputs": [
        {
          "internalType": "uint256",
          "name": "",
          "type": "uint256"
        }
      ],
      "stateMutability": "nonpayable",
      "type": "function"
    },
    {
      "inputs": [
        {
          "internalType": "address",
          "name": "account",
          "type": "address"
        }
      ],
      "name": "getAccountLiquidity",
      "outputs": [
        {
          "internalType": "uint256",
          "name": "",
          "type": "uint256"
        },
        {
          "internalType": "uint256",
          "name": "",
          "type": "uint256"
        },
        {
          "internalType": "uint256",
          "name": "",
          "type": "uint256"
        }
      ],
      "stateMutability": "view",
      "type": "function"
    },
    {
      "inputs": [
        {
          "internalType": "address",
          "name": "account",
          "type": "address"
        },
        {
          "internalType": "address",
          "name": "pTokenModify",
          "type": "address"
        },
        {
          "internalType": "uint256",
          "name": "redeemTokens",
          "type": "uint256"
        },
        {
          "internalType": "uint256",
          "name": "borrowAmount",
          "type": "uint256"
        }
      ],
      "name": "getHypotheticalAccountLiquidity",
      "outputs": [
        {
          "internalType": "uint256",
          "name": "",
          "type": "uint256"
        },
        {
          "internalType": "uint256",
          "name": "",
          "type": "uint256"
        },
        {
          "internalType": "uint256",
          "name": "",
          "type": "uint256"
        }
      ],
      "stateMutability": "view",
      "type": "function"
    },
    {
      "inputs": [
        {
          "internalType": "address",
          "name": "asset",
          "type": "address"
        }
      ],
      "name": "updateAndGetTokenPrice",
      "outputs": [
        {
          "internalType": "uint256",
          "name": "",
          "type": "uint256"
        }
      ],
      "stateMutability": "payable",
      "type": "function"
    },
    {
      "inputs": [
        {
          "internalType": "address",
          "name": "pTokenBorrowed",
          "type": "address"
        },
        {
          "internalType": "address",
          "name": "pTokenCollateral",
          "type": "address"
        },
        {
          "internalType": "uint256",
          "name": "actualRepayAmount",
          "type": "uint256"
        }
      ],
      "name": "liquidateCalculateSeizeTokens",
      "outputs": [
        {
          "internalType": "uint256",
          "name": "",
          "type": "uint256"
        },
        {
          "internalType": "uint256",
          "name": "",
          "type": "uint256"
        }
      ],
      "stateMutability": "view",
      "type": "function"
    },
    {
      "inputs": [
        {
          "internalType": "contract PriceOracle",
          "name": "newOracle",
          "type": "address"
        }
      ],
      "name": "_setPriceOracle",
      "outputs": [
        {
          "internalType": "uint256",
          "name": "",
          "type": "uint256"
        }
      ],
      "stateMutability": "nonpayable",
      "type": "function"
    },
    {
      "inputs": [
        {
          "internalType": "uint256",
          "name": "newCloseFactorMantissa",
          "type": "uint256"
        }
      ],
      "name": "_setCloseFactor",
      "outputs": [
        {
          "internalType": "uint256",
          "name": "",
          "type": "uint256"
        }
      ],
      "stateMutability": "nonpayable",
      "type": "function"
    },
    {
      "inputs": [
        {
          "internalType": "contract PToken",
          "name": "pToken",
          "type": "address"
        },
        {
          "internalType": "uint256",
          "name": "newCollateralFactorMantissa",
          "type": "uint256"
        }
      ],
      "name": "_setCollateralFactor",
      "outputs": [
        {
          "internalType": "uint256",
          "name": "",
          "type": "uint256"
        }
      ],
      "stateMutability": "nonpayable",
      "type": "function"
    },
    {
      "inputs": [
        {
          "internalType": "uint256",
          "name": "newMaxAssets",
          "type": "uint256"
        }
      ],
      "name": "_setMaxAssets",
      "outputs": [
        {
          "internalType": "uint256",
          "name": "",
          "type": "uint256"
        }
      ],
      "stateMutability": "nonpayable",
      "type": "function"
    },
    {
      "inputs": [
        {
          "internalType": "uint256",
          "name": "newLiquidationIncentiveMantissa",
          "type": "uint256"
        }
      ],
      "name": "_setLiquidationIncentive",
      "outputs": [
        {
          "internalType": "uint256",
          "name": "",
          "type": "uint256"
        }
      ],
      "stateMutability": "nonpayable",
      "type": "function"
    },
    {
      "inputs": [
        {
          "internalType": "contract PToken",
          "name": "pToken",
          "type": "address"
        }
      ],
      "name": "_supportMarket",
      "outputs": [
        {
          "internalType": "uint256",
          "name": "",
          "type": "uint256"
        }
      ],
      "stateMutability": "nonpayable",
      "type": "function"
    },
    {
      "inputs": [
        {
          "internalType": "address",
          "name": "newPauseGuardian",
          "type": "address"
        }
      ],
      "name": "_setPauseGuardian",
      "outputs": [
        {
          "internalType": "uint256",
          "name": "",
          "type": "uint256"
        }
      ],
      "stateMutability": "nonpayable",
      "type": "function"
    },
    {
      "inputs": [
        {
          "internalType": "contract PToken",
          "name": "pToken",
          "type": "address"
        },
        {
          "internalType": "bool",
          "name": "state",
          "type": "bool"
        }
      ],
      "name": "_setMintPaused",
      "outputs": [
        {
          "internalType": "bool",
          "name": "",
          "type": "bool"
        }
      ],
      "stateMutability": "nonpayable",
      "type": "function"
    },
    {
      "inputs": [
        {
          "internalType": "contract PToken",
          "name": "pToken",
          "type": "address"
        },
        {
          "internalType": "bool",
          "name": "state",
          "type": "bool"
        }
      ],
      "name": "_setBorrowPaused",
      "outputs": [
        {
          "internalType": "bool",
          "name": "",
          "type": "bool"
        }
      ],
      "stateMutability": "nonpayable",
      "type": "function"
    },
    {
      "inputs": [
        {
          "internalType": "bool",
          "name": "state",
          "type": "bool"
        }
      ],
      "name": "_setTransferPaused",
      "outputs": [
        {
          "internalType": "bool",
          "name": "",
          "type": "bool"
        }
      ],
      "stateMutability": "nonpayable",
      "type": "function"
    },
    {
      "inputs": [
        {
          "internalType": "bool",
          "name": "state",
          "type": "bool"
        }
      ],
      "name": "_setSeizePaused",
      "outputs": [
        {
          "internalType": "bool",
          "name": "",
          "type": "bool"
        }
      ],
      "stateMutability": "nonpayable",
      "type": "function"
    }
  ],
  "bytecode": "0x608060405234801561001057600080fd5b50600080546001600160a01b03191633179055613358806100326000396000f3fe6080604052600436106102515760003560e01c80638ebf636411610139578063d02f7351116100b6578063e6653f3d1161007a578063e6653f3d14610a93578063e875544614610aa8578063e939955d14610abd578063eabe7d9114610ad2578063ede4edd014610b15578063f851a44014610b4857610251565b8063d02f735114610961578063d9226ced146109b4578063da3d454c146109de578063dce1544914610a21578063e4028eee14610a5a57610251565b8063ac0b0bb7116100fd578063ac0b0bb7146107d1578063bdcdc258146107e6578063c29982381461082f578063c488847b146108df578063ca7789e21461093b57610251565b80638ebf63641461069f578063929fe9a1146106cb57806394b2294b14610706578063a76b3fda1461071b578063abfceffc1461074e57610251565b80634ef4c3e1116101d25780635fc7e71e116101965780635fc7e71e1461056e5780636d154ea5146105c1578063731f0c2b146105f45780637dc0d1d01461062757806387f763031461063c5780638e8f294b1461065157610251565b80634ef4c3e1146104685780634fd42e17146104ab57806355ee1fe1146104d55780635ec88c79146105085780635f5af1aa1461053b57610251565b8063317b0b7711610219578063317b0b77146103725780633bcf7ec11461039c5780633c94786f146103d75780634ada90af146103ec5780634e79238f1461040157610251565b806318c882a51461025657806324008a62146102a557806324a3d6221461030057806326782247146103315780632d70db7814610346575b600080fd5b34801561026257600080fd5b506102916004803603604081101561027957600080fd5b506001600160a01b0381351690602001351515610b5d565b604080519115158252519081900360200190f35b3480156102b157600080fd5b506102ee600480360360808110156102c857600080fd5b506001600160a01b03813581169160208101358216916040820135169060600135610cfd565b60408051918252519081900360200190f35b34801561030c57600080fd5b50610315610d33565b604080516001600160a01b039092168252519081900360200190f35b34801561033d57600080fd5b50610315610d42565b34801561035257600080fd5b506102916004803603602081101561036957600080fd5b50351515610d51565b34801561037e57600080fd5b506102ee6004803603602081101561039557600080fd5b5035610e8b565b3480156103a857600080fd5b50610291600480360360408110156103bf57600080fd5b506001600160a01b0381351690602001351515610f9c565b3480156103e357600080fd5b50610291611137565b3480156103f857600080fd5b506102ee611147565b34801561040d57600080fd5b5061044a6004803603608081101561042457600080fd5b506001600160a01b0381358116916020810135909116906040810135906060013561114d565b60408051938452602084019290925282820152519081900360600190f35b34801561047457600080fd5b506102ee6004803603606081101561048b57600080fd5b506001600160a01b03813581169160208101359091169060400135611187565b3480156104b757600080fd5b506102ee600480360360208110156104ce57600080fd5b503561121d565b3480156104e157600080fd5b506102ee600480360360208110156104f857600080fd5b50356001600160a01b0316611311565b34801561051457600080fd5b5061044a6004803603602081101561052b57600080fd5b50356001600160a01b0316611398565b34801561054757600080fd5b506102ee6004803603602081101561055e57600080fd5b50356001600160a01b03166113cd565b34801561057a57600080fd5b506102ee600480360360a081101561059157600080fd5b506001600160a01b0381358116916020810135821691604082013581169160608101359091169060800135611451565b3480156105cd57600080fd5b50610291600480360360208110156105e457600080fd5b50356001600160a01b03166115d8565b34801561060057600080fd5b506102916004803603602081101561061757600080fd5b50356001600160a01b03166115ed565b34801561063357600080fd5b50610315611602565b34801561064857600080fd5b50610291611611565b34801561065d57600080fd5b506106846004803603602081101561067457600080fd5b50356001600160a01b0316611621565b60408051921515835260208301919091528051918290030190f35b3480156106ab57600080fd5b50610291600480360360208110156106c257600080fd5b50351515611640565b3480156106d757600080fd5b50610291600480360360408110156106ee57600080fd5b506001600160a01b038135811691602001351661177a565b34801561071257600080fd5b506102ee6117ad565b34801561072757600080fd5b506102ee6004803603602081101561073e57600080fd5b50356001600160a01b03166117b3565b34801561075a57600080fd5b506107816004803603602081101561077157600080fd5b50356001600160a01b03166118e2565b60408051602080825283518183015283519192839290830191858101910280838360005b838110156107bd5781810151838201526020016107a5565b505050509050019250505060405180910390f35b3480156107dd57600080fd5b5061029161196b565b3480156107f257600080fd5b506102ee6004803603608081101561080957600080fd5b506001600160a01b0381358116916020810135821691604082013516906060013561197b565b34801561083b57600080fd5b506107816004803603602081101561085257600080fd5b81019060208101813564010000000081111561086d57600080fd5b82018360208201111561087f57600080fd5b803590602001918460208302840111640100000000831117156108a157600080fd5b9190808060200260200160405190810160405280939291908181526020018383602002808284376000920191909152509295506119dd945050505050565b3480156108eb57600080fd5b506109226004803603606081101561090257600080fd5b506001600160a01b03813581169160208101359091169060400135611a87565b6040805192835260208301919091528051918290030190f35b6102ee6004803603602081101561095157600080fd5b50356001600160a01b0316611c12565b34801561096d57600080fd5b506102ee600480360360a081101561098457600080fd5b506001600160a01b0381358116916020810135821691604082013581169160608101359091169060800135611e06565b3480156109c057600080fd5b506102ee600480360360208110156109d757600080fd5b5035611f9d565b3480156109ea57600080fd5b506102ee60048036036060811015610a0157600080fd5b506001600160a01b03813581169160208101359091169060400135612006565b348015610a2d57600080fd5b5061031560048036036040811015610a4457600080fd5b506001600160a01b03813516906020013561225f565b348015610a6657600080fd5b506102ee60048036036040811015610a7d57600080fd5b506001600160a01b038135169060200135612294565b348015610a9f57600080fd5b506102916123d0565b348015610ab457600080fd5b506102ee6123e0565b348015610ac957600080fd5b506102916123e6565b348015610ade57600080fd5b506102ee60048036036060811015610af557600080fd5b506001600160a01b038135811691602081013590911690604001356123eb565b348015610b2157600080fd5b506102ee60048036036020811015610b3857600080fd5b50356001600160a01b03166123f8565b348015610b5457600080fd5b50610315612731565b6001600160a01b03821660009081526007602052604081205460ff16610bb45760405162461bcd60e51b81526004018080602001828103825260288152602001806132af6028913960400191505060405180910390fd5b6008546001600160a01b0316331480610bd757506000546001600160a01b031633145b610c125760405162461bcd60e51b81526004018080602001828103825260278152602001806132d76027913960400191505060405180910390fd5b6000546001600160a01b0316331480610c2d57506001821515145b610c77576040805162461bcd60e51b81526020600482015260166024820152756f6e6c792061646d696e2063616e20756e706175736560501b604482015290519081900360640190fd5b6001600160a01b0383166000818152600a6020908152604091829020805486151560ff199091168117909155825193845283830152606090830181905260069083015265426f72726f7760d01b6080830152517f71aec636243f9709bb0007ae15e9afb8150ab01716d75fd7573be5cc096e03b09181900360a00190a150805b92915050565b6001600160a01b03841660009081526007602052604081205460ff16610d2557506009610d2b565b60005b90505b949350505050565b6008546001600160a01b031681565b6001546001600160a01b031681565b6008546000906001600160a01b0316331480610d7757506000546001600160a01b031633145b610db25760405162461bcd60e51b81526004018080602001828103825260278152602001806132d76027913960400191505060405180910390fd5b6000546001600160a01b0316331480610dcd57506001821515145b610e17576040805162461bcd60e51b81526020600482015260166024820152756f6e6c792061646d696e2063616e20756e706175736560501b604482015290519081900360640190fd5b60088054831515600160b81b810260ff60b81b1990921691909117909155604080516020810192909252808252600582820152645365697a6560d81b6060830152517fef159d9a32b2472e32b098f954f3ce62d232939f1c207070b584df1814de2de09181900360800190a150805b919050565b600080546001600160a01b03163314610eb157610eaa60016004612740565b9050610e86565b610eb9613231565b506040805160208101909152828152610ed0613231565b50604080516020810190915266b1a2bc2ec500008152610ef082826127a6565b15610f0957610f00600580612740565b92505050610e86565b610f11613231565b506040805160208101909152670c7d713b49da00008152610f3281846127ae565b15610f4c57610f42600580612740565b9350505050610e86565b6003805490869055604080518281526020810188905281517f3b9670cf975d26958e754b57098eaa2ac914d8d2a31b83257997b9f346110fd9929181900390910190a160005b9695505050505050565b6001600160a01b03821660009081526007602052604081205460ff16610ff35760405162461bcd60e51b81526004018080602001828103825260288152602001806132af6028913960400191505060405180910390fd5b6008546001600160a01b031633148061101657506000546001600160a01b031633145b6110515760405162461bcd60e51b81526004018080602001828103825260278152602001806132d76027913960400191505060405180910390fd5b6000546001600160a01b031633148061106c57506001821515145b6110b6576040805162461bcd60e51b81526020600482015260166024820152756f6e6c792061646d696e2063616e20756e706175736560501b604482015290519081900360640190fd5b6001600160a01b038316600081815260096020908152604091829020805486151560ff199091168117909155825193845283830152606090830181905260049083015263135a5b9d60e21b6080830152517f71aec636243f9709bb0007ae15e9afb8150ab01716d75fd7573be5cc096e03b09181900360a00190a150919050565b600854600160a01b900460ff1681565b60045481565b6000806000806000806111628a8a8a8a6127b5565b92509250925082601181111561117457fe5b95509093509150505b9450945094915050565b6001600160a01b03831660009081526009602052604081205460ff16156111e6576040805162461bcd60e51b815260206004820152600e60248201526d1b5a5b9d081a5cc81c185d5cd95960921b604482015290519081900360640190fd5b6001600160a01b03841660009081526007602052604090205460ff166112105760095b9050611216565b60005b90505b9392505050565b600080546001600160a01b0316331461123c57610eaa6001600b612740565b611244613231565b50604080516020810190915282815261125b613231565b506040805160208101909152670de0b6b3a7640000815261127c82826127ae565b1561128d57610f006007600c612740565b611295613231565b5060408051602081019091526714d1120d7b16000081526112b681846127ae565b156112c757610f426007600c612740565b6004805490869055604080518281526020810188905281517faeba5a6c40a8ac138134bff1aaa65debf25971188a58804bad717f82f0ec1316929181900390910190a16000610f92565b600080546001600160a01b0316331461133057610eaa60016010612740565b600280546001600160a01b038481166001600160a01b0319831681179093556040805191909216808252602082019390935281517fd52b2b9b7e9ee655fcb95d2e5b9e0c9f69e7ef2b8e9d2d0ea78402d576d22e22929181900390910190a160009392505050565b6000806000806000806113af8760008060006127b5565b9250925092508260118111156113c157fe5b97919650945092505050565b600080546001600160a01b031633146113ec57610eaa60016013612740565b600880546001600160a01b038481166001600160a01b0319831617928390556040805192821680845293909116602083015280517f0613b6ee6a04f0d09f390e4d9318894b9f6ac7fd83897cd8d18896ba579c401e9281900390910190a16000611216565b6001600160a01b03851660009081526007602052604081205460ff16158061149257506001600160a01b03851660009081526007602052604090205460ff16155b156114a15760095b90506115cf565b6000806114ad85612b70565b919350909150600090508260118111156114c357fe5b146114dd578160118111156114d457fe5b925050506115cf565b806114e95760036114d4565b6000886001600160a01b03166395dd9193876040518263ffffffff1660e01b815260040180826001600160a01b03166001600160a01b0316815260200191505060206040518083038186803b15801561154157600080fd5b505afa158015611555573d6000803e3d6000fd5b505050506040513d602081101561156b57600080fd5b505160408051602081019091526003548152909150600090819061158f9084612b90565b909250905060008260038111156115a257fe5b146115b657600b5b955050505050506115cf565b808711156115c55760116115aa565b6000955050505050505b95945050505050565b600a6020526000908152604090205460ff1681565b60096020526000908152604090205460ff1681565b6002546001600160a01b031681565b600854600160b01b900460ff1681565b6007602052600090815260409020805460019091015460ff9091169082565b6008546000906001600160a01b031633148061166657506000546001600160a01b031633145b6116a15760405162461bcd60e51b81526004018080602001828103825260278152602001806132d76027913960400191505060405180910390fd5b6000546001600160a01b03163314806116bc57506001821515145b611706576040805162461bcd60e51b81526020600482015260166024820152756f6e6c792061646d696e2063616e20756e706175736560501b604482015290519081900360640190fd5b60088054831515600160b01b810260ff60b01b1990921691909117825560408051602081019290925280825281810192909252672a3930b739b332b960c11b606082015290517fef159d9a32b2472e32b098f954f3ce62d232939f1c207070b584df1814de2de09181900360800190a15090565b6001600160a01b038082166000908152600760209081526040808320938616835260029093019052205460ff1692915050565b60055481565b600080546001600160a01b031633146117d257610eaa60016012612740565b6001600160a01b03821660009081526007602052604090205460ff16156117ff57610eaa600a6011612740565b816001600160a01b0316635a890c0e6040518163ffffffff1660e01b815260040160206040518083038186803b15801561183857600080fd5b505afa15801561184c573d6000803e3d6000fd5b505050506040513d602081101561186257600080fd5b50506040805180820182526001808252600060208084018281526001600160a01b03881680845260078352928690209451855460ff1916901515178555519390920192909255825191825291517fcf583bb0c569eb967f806b11601c4cb93c10310485c67add5f8362c2f212321f929181900390910190a1600092915050565b60608060066000846001600160a01b03166001600160a01b0316815260200190815260200160002080548060200260200160405190810160405280929190818152602001828054801561195e57602002820191906000526020600020905b81546001600160a01b03168152600190910190602001808311611940575b5093979650505050505050565b600854600160b81b900460ff1681565b600854600090600160b01b900460ff16156119d2576040805162461bcd60e51b81526020600482015260126024820152711d1c985b9cd9995c881a5cc81c185d5cd95960721b604482015290519081900360640190fd5b610d28858584612be4565b8051606090818167ffffffffffffffff811180156119fa57600080fd5b50604051908082528060200260200182016040528015611a24578160200160208202803683370190505b50905060005b82811015611a7f576000858281518110611a4057fe5b60200260200101519050611a548133612c90565b6011811115611a5f57fe5b838381518110611a6b57fe5b602090810291909101015250600101611a2a565b509392505050565b6000806000611a9586612db1565b90506000611aa286612db1565b9050811580611aaf575080155b15611ac457600d935060009250611c0a915050565b6000866001600160a01b031663182df0f56040518163ffffffff1660e01b815260040160206040518083038186803b158015611aff57600080fd5b505afa158015611b13573d6000803e3d6000fd5b505050506040513d6020811015611b2957600080fd5b505190506000611b37613231565b611b3f613231565b611b47613231565b6000611b5560045489612e31565b945090506000816003811115611b6757fe5b14611b8357600b5b995060009850611c0a975050505050505050565b611b8d8787612e31565b935090506000816003811115611b9f57fe5b14611bab57600b611b6f565b611bb58484612e6c565b925090506000816003811115611bc757fe5b14611bd357600b611b6f565b611bdd828c612b90565b955090506000816003811115611bef57fe5b14611bfb57600b611b6f565b60009950939750505050505050505b935093915050565b6002546040805163fc57d4df60e01b81526001600160a01b038481166004830152825160009485948594939091169263fc57d4df9260248083019392829003018186803b158015611c6257600080fd5b505afa158015611c76573d6000803e3d6000fd5b505050506040513d6040811015611c8c57600080fd5b50805160209091015190925090508115801590611ca857504381145b15611cb557509050610e86565b60025460408051637533ed9160e11b81526001600160a01b0387811660048301529151600093929092169163ea67db229160248082019260209290919082900301818787803b158015611d0757600080fd5b505af1158015611d1b573d6000803e3d6000fd5b505050506040513d6020811015611d3157600080fd5b5051905034811115611d7f576040805162461bcd60e51b815260206004820152601260248201527127379032b737bab3b4103130b630b731b29760711b604482015290519081900360640190fd5b600254604080516334f6ad3160e11b81526001600160a01b038881166004830152915191909216916369ed5a6291849160248082019260209290919082900301818588803b158015611dd057600080fd5b505af1158015611de4573d6000803e3d6000fd5b50505050506040513d6020811015611dfb57600080fd5b505195945050505050565b600854600090600160b81b900460ff1615611e5a576040805162461bcd60e51b815260206004820152600f60248201526e1cd95a5e99481a5cc81c185d5cd959608a1b604482015290519081900360640190fd5b6001600160a01b03861660009081526007602052604090205460ff161580611e9b57506001600160a01b03851660009081526007602052604090205460ff16155b15611ea757600961149a565b846001600160a01b031663678c1ab16040518163ffffffff1660e01b815260040160206040518083038186803b158015611ee057600080fd5b505afa158015611ef4573d6000803e3d6000fd5b505050506040513d6020811015611f0a57600080fd5b50516040805163678c1ab160e01b815290516001600160a01b039283169289169163678c1ab1916004808301926020929190829003018186803b158015611f5057600080fd5b505afa158015611f64573d6000803e3d6000fd5b505050506040513d6020811015611f7a57600080fd5b50516001600160a01b031614611f9157600261149a565b60009695505050505050565b600080546001600160a01b03163314611fbc57610eaa6001600d612740565b6005805490839055604080518281526020810185905281517f7093cf1eb653f749c3ff531d6df7f92764536a7fa0d13530cd26e070780c32ea929181900390910190a16000611216565b6001600160a01b0383166000908152600a602052604081205460ff1615612067576040805162461bcd60e51b815260206004820152601060248201526f189bdc9c9bddc81a5cc81c185d5cd95960821b604482015290519081900360640190fd5b6001600160a01b03841660009081526007602052604090205460ff1661208e576009611209565b6001600160a01b038085166000908152600760209081526040808320938716835260029093019052205460ff1661217e57336001600160a01b03851614612114576040805162461bcd60e51b815260206004820152601560248201527439b2b73232b91036bab9ba10313290382a37b5b2b760591b604482015290519081900360640190fd5b60006121203385612c90565b9050600081601181111561213057fe5b146121495780601181111561214157fe5b915050611216565b6001600160a01b038086166000908152600760209081526040808320938816835260029093019052205460ff1661217c57fe5b505b6002546040805163fc57d4df60e01b81526001600160a01b0387811660048301528251600094919091169263fc57d4df9260248082019391829003018186803b1580156121ca57600080fd5b505afa1580156121de573d6000803e3d6000fd5b505050506040513d60408110156121f457600080fd5b505190508061220457600d612141565b60008061221486886000886127b5565b9193509091506000905082601181111561222a57fe5b146122455781601181111561223b57fe5b9350505050611216565b801561225257600461223b565b6000979650505050505050565b6006602052816000526040600020818154811061227857fe5b6000918252602090912001546001600160a01b03169150829050565b600080546001600160a01b031633146122ba576122b360016006612740565b9050610cf7565b6001600160a01b0383166000908152600760205260409020805460ff166122ef576122e760096007612740565b915050610cf7565b6122f7613231565b50604080516020810190915283815261230e613231565b506040805160208101909152670c7d713b49da0000815261232f81836127ae565b1561234a5761234060066008612740565b9350505050610cf7565b841580159061235f575061235d86612db1565b155b1561237057612340600d6009612740565b60018301805490869055604080516001600160a01b03891681526020810183905280820188905290517f70483e6592cd5182d45ac970e05bc62cdcc90e9d8ef2c2dbe686cf383bcd7fc59181900360600190a16000979650505050505050565b600854600160a81b900460ff1681565b60035481565b600181565b6000611213848484612be4565b6000808290506000806000836001600160a01b031663c37f68e2336040518263ffffffff1660e01b815260040180826001600160a01b03166001600160a01b0316815260200191505060806040518083038186803b15801561245957600080fd5b505afa15801561246d573d6000803e3d6000fd5b505050506040513d608081101561248357600080fd5b5080516020820151604090920151909450909250905082156124d65760405162461bcd60e51b81526004018080602001828103825260258152602001806132fe6025913960400191505060405180910390fd5b80156124f3576124e8600c6002612740565b945050505050610e86565b6000612500873385612be4565b9050801561252157612515600e600383612e84565b95505050505050610e86565b6001600160a01b0385166000908152600760209081526040808320338452600281019092529091205460ff166125605760009650505050505050610e86565b3360009081526002820160209081526040808320805460ff1916905560068252918290208054835181840281018401909452808452606093928301828280156125d257602002820191906000526020600020905b81546001600160a01b031681526001909101906020018083116125b4575b5050835193945083925060009150505b8281101561262757896001600160a01b031684828151811061260057fe5b60200260200101516001600160a01b0316141561261f57809150612627565b6001016125e2565b5081811061263157fe5b33600090815260066020526040902080548190600019810190811061265257fe5b9060005260206000200160009054906101000a90046001600160a01b031681838154811061267c57fe5b9060005260206000200160006101000a8154816001600160a01b0302191690836001600160a01b03160217905550808054806126b457fe5b6000828152602090819020820160001990810180546001600160a01b0319169055909101909155604080516001600160a01b038d168152339281019290925280517fe699a64c18b07ac5b7301aa273f36a2287239eb9501d81950672794afba29a0d9281900390910190a160009c9b505050505050505050505050565b6000546001600160a01b031681565b60007f45b96fe442630264581b197e84bbada861235052c5a1aadfff9ea4e40a969aa083601181111561276f57fe5b83601381111561277b57fe5b604080519283526020830191909152600082820152519081900360600190a182601181111561121657fe5b519051111590565b5190511090565b60008060006127c2613244565b6001600160a01b03881660009081526006602090815260408083208054825181850281018501909352808352849360609392919083018282801561282f57602002820191906000526020600020905b81546001600160a01b03168152600190910190602001808311612811575b50939450600093505050505b8151811015612b2b57600082828151811061285257fe5b60200260200101519050806001600160a01b031663c37f68e28e6040518263ffffffff1660e01b815260040180826001600160a01b03166001600160a01b0316815260200191505060806040518083038186803b1580156128b257600080fd5b505afa1580156128c6573d6000803e3d6000fd5b505050506040513d60808110156128dc57600080fd5b508051602082015160408084015160609485015160808c0152938a019390935291880191909152945084156129225750600f97506000965086955061117d945050505050565b60408051602080820183526001600160a01b03841660009081526007825283902060010154825260c089019190915281519081019091526080870151815260e087015261296e81612db1565b60a087018190526129905750600d97506000965086955061117d945050505050565b604080516020810190915260a08701518152610100870181905260c087015160e08801516129bd92612eea565b610120880152935060008460038111156129d357fe5b146129ef5750600b97506000965086955061117d945050505050565b612a0786610120015187604001518860000151612f42565b875293506000846003811115612a1957fe5b14612a355750600b97506000965086955061117d945050505050565b612a4d86610100015187606001518860200151612f42565b602088015293506000846003811115612a6257fe5b14612a7e5750600b97506000965086955061117d945050505050565b8b6001600160a01b0316816001600160a01b03161415612b2257612aac8661012001518c8860200151612f42565b602088015293506000846003811115612ac157fe5b14612add5750600b97506000965086955061117d945050505050565b612af18661010001518b8860200151612f42565b602088015293506000846003811115612b0657fe5b14612b225750600b97506000965086955061117d945050505050565b5060010161283b565b50602084015184511115612b5257505050602081015190516000945003915082905061117d565b505081516020909201516000955085945091909103915061117d9050565b6000806000612b838460008060006127b5565b9250925092509193909250565b6000806000612b9d613231565b612ba78686612f8f565b90925090506000826003811115612bba57fe5b14612bcb5750915060009050612bdd565b6000612bd682612ff7565b9350935050505b9250929050565b6001600160a01b03831660009081526007602052604081205460ff16612c0b576009611209565b6001600160a01b038085166000908152600760209081526040808320938716835260029093019052205460ff16612c43576000611209565b600080612c5385878660006127b5565b91935090915060009050826011811115612c6957fe5b14612c8357816011811115612c7a57fe5b92505050611216565b8015611f91576004612c7a565b6001600160a01b0382166000908152600760205260408120805460ff16612cbb576009915050610cf7565b6001600160a01b038316600090815260028201602052604090205460ff16151560011415612ced576000915050610cf7565b6005546001600160a01b03841660009081526006602052604090205410612d18576010915050610cf7565b6001600160a01b0380841660008181526002840160209081526040808320805460ff19166001908117909155600683528184208054918201815584529282902090920180549489166001600160a01b031990951685179055815193845283019190915280517f3ab23ab0d51cccc0c3085aec51f99228625aa1a922b3a8ca89a26b0f2027a1a59281900390910190a15060009392505050565b6002546040805163fc57d4df60e01b81526001600160a01b0384811660048301528251600094859492169263fc57d4df926024808301939192829003018186803b158015612dfe57600080fd5b505afa158015612e12573d6000803e3d6000fd5b505050506040513d6040811015612e2857600080fd5b50519392505050565b6000612e3b613231565b612e61604051806020016040528086815250604051806020016040528086815250613006565b915091509250929050565b6000612e76613231565b83518351612e6191906130f0565b60007f45b96fe442630264581b197e84bbada861235052c5a1aadfff9ea4e40a969aa0846011811115612eb357fe5b846013811115612ebf57fe5b604080519283526020830191909152818101859052519081900360600190a183601181111561121357fe5b6000612ef4613231565b6000612efe613231565b612f088787613006565b90925090506000826003811115612f1b57fe5b14612f2a579092509050611c0a565b612f348186613006565b935093505050935093915050565b6000806000612f4f613231565b612f598787612f8f565b90925090506000826003811115612f6c57fe5b14612f7d5750915060009050611c0a565b612f34612f8982612ff7565b866131a1565b6000612f99613231565b600080612faa8660000151866131c7565b90925090506000826003811115612fbd57fe5b14612fdc57506040805160208101909152600081529092509050612bdd565b60408051602081019091529081526000969095509350505050565b51670de0b6b3a7640000900490565b6000613010613231565b600080613025866000015186600001516131c7565b9092509050600082600381111561303857fe5b1461305757506040805160208101909152600081529092509050612bdd565b60008061306c6706f05b59d3b20000846131a1565b9092509050600082600381111561307f57fe5b146130a25781604051806020016040528060008152509550955050505050612bdd565b6000806130b783670de0b6b3a7640000613206565b909250905060008260038111156130ca57fe5b146130d157fe5b604080516020810190915290815260009a909950975050505050505050565b60006130fa613231565b60008061310f86670de0b6b3a76400006131c7565b9092509050600082600381111561312257fe5b1461314157506040805160208101909152600081529092509050612bdd565b60008061314e8388613206565b9092509050600082600381111561316157fe5b146131845781604051806020016040528060008152509550955050505050612bdd565b604080516020810190915290815260009890975095505050505050565b6000808383018481106131b957600092509050612bdd565b506002915060009050612bdd565b600080836131da57506000905080612bdd565b838302838582816131e757fe5b04146131fb57506002915060009050612bdd565b600092509050612bdd565b6000808261321a5750600190506000612bdd565b600083858161322557fe5b04915091509250929050565b6040518060200160405280600081525090565b604051806101400160405280600081526020016000815260200160008152602001600081526020016000815260200160008152602001613282613231565b815260200161328f613231565b815260200161329c613231565b81526020016132a9613231565b90529056fe63616e6e6f742070617573652061206d61726b65742074686174206973206e6f74206c69737465646f6e6c7920706175736520677561726469616e20616e642061646d696e2063616e207061757365657869744d61726b65743a206765744163636f756e74536e617073686f74206661696c6564a264697066735822122074e925ad38519996b08bf8ca3f8bf12559423b702fa3fce2d9416d850b827ed764736f6c63430006090033",
  "immutableReferences": {},
  "source": "// SPDX-License-Identifier: UNLICENSED\npragma solidity ^0.6.9;\n\nimport \"../tokenization/PToken.sol\";\nimport \"../utils/ErrorReporter.sol\";\nimport \"../utils/Exponential.sol\";\nimport \"../oracle/PriceOracle.sol\";\nimport \"./PoolXControllerInterface.sol\";\nimport \"./PoolXControllerStorage.sol\";\n\n/**\n * @title \n */\ncontract PoolXController is PoolXControllerStorage, PoolXControllerInterface, PoolXControllerErrorReporter, Exponential {\n    /**\n     * @notice  pToken \n     */\n    event MarketListed(PToken pToken);\n\n    /**\n     * @notice \n     */\n    event MarketEntered(PToken pToken, address account);\n\n    /**\n     * @notice \n     */\n    event MarketExited(PToken pToken, address account);\n\n    /**\n     * @notice  admin \n     */\n    event NewCloseFactor(uint oldCloseFactorMantissa, uint newCloseFactorMantissa);\n\n    /**\n     * @notice  pToken  admin \n     */\n    event NewCollateralFactor(PToken pToken, uint oldCollateralFactorMantissa, uint newCollateralFactorMantissa);\n\n    /**\n     * @notice  admin \n     */\n    event NewLiquidationIncentive(uint oldLiquidationIncentiveMantissa, uint newLiquidationIncentiveMantissa);\n\n    /**\n     * @notice  admin \n     */\n    event NewMaxAssets(uint oldMaxAssets, uint newMaxAssets);\n\n    /**\n     * @notice \n     */\n    event NewPriceOracle(PriceOracle oldPriceOracle, PriceOracle newPriceOracle);\n\n    /**\n     * @notice \n     */\n    event NewPauseGuardian(address oldPauseGuardian, address newPauseGuardian);\n\n    /**\n     * @notice \n     */\n    event ActionPaused(string action, bool pauseState);\n\n    /**\n     * @notice \n     */\n    event ActionPaused(PToken pToken, string action, bool pauseState);\n\n    // \n    uint internal constant closeFactorMinMantissa = 0.05e18; // 0.05\n\n    // \n    uint internal constant closeFactorMaxMantissa = 0.9e18; // 0.9\n\n    // \n    uint internal constant collateralFactorMaxMantissa = 0.9e18; // 0.9\n\n    // \n    uint internal constant liquidationIncentiveMinMantissa = 1.0e18; // 1.0\n\n    // \n    uint internal constant liquidationIncentiveMaxMantissa = 1.5e18; // 1.5\n\n    constructor() public {\n        admin = msg.sender;\n    }\n\n    /***  ***/\n\n    /**\n     * @notice \n     * @param account \n     * @return \n     */\n    function getAssetsIn(address account) external view returns (PToken[] memory) {\n        PToken[] memory assetsIn = accountAssets[account];\n\n        return assetsIn;\n    }\n\n    /**\n     * @notice Returns whether the given account is entered in the given asset\n     * @param account The address of the account to check\n     * @param pToken The pToken to check\n     * @return True if the account is in the asset, otherwise false.\n     */\n    function checkMembership(address account, PToken pToken) external view returns (bool) {\n        return markets[address(pToken)].accountMembership[account];\n    }\n\n    /**\n     * @notice Add assets to be included in account liquidity calculation\n     * @param pTokens The list of addresses of the pToken markets to be enabled\n     * @return Success indicator for whether each corresponding market was entered\n     */\n    function enterMarkets(address[] memory pTokens) public override returns (uint[] memory) {\n        uint len = pTokens.length;\n\n        uint[] memory results = new uint[](len);\n        for (uint i = 0; i < len; i++) {\n            PToken pToken = PToken(pTokens[i]);\n\n            results[i] = uint(addToMarketInternal(pToken, msg.sender));\n        }\n\n        return results;\n    }\n\n    /**\n     * @notice Add the market to the borrower's \"assets in\" for liquidity calculations\n     * @param pToken The market to enter\n     * @param borrower The address of the account to modify\n     * @return Success indicator for whether the market was entered\n     */\n    function addToMarketInternal(PToken pToken, address borrower) internal returns (Error) {\n        Market storage marketToJoin = markets[address(pToken)];\n\n        if (!marketToJoin.isListed) {\n            // market is not listed, cannot join\n            return Error.MARKET_NOT_LISTED;\n        }\n\n        if (marketToJoin.accountMembership[borrower] == true) {\n            // already joined\n            return Error.NO_ERROR;\n        }\n\n        if (accountAssets[borrower].length >= maxAssets)  {\n            // no space, cannot join\n            return Error.TOO_MANY_ASSETS;\n        }\n\n        // survived the gauntlet, add to list\n        // NOTE: we store these somewhat redundantly as a significant optimization\n        //  this avoids having to iterate through the list for the most common use cases\n        //  that is, only when we need to perform liquidity checks\n        //  and not whenever we want to check if an account is in a particular market\n        marketToJoin.accountMembership[borrower] = true;\n        accountAssets[borrower].push(pToken);\n\n        emit MarketEntered(pToken, borrower);\n\n        return Error.NO_ERROR;\n    }\n\n    /**\n     * @notice Removes asset from sender's account liquidity calculation\n     * @dev Sender must not have an outstanding borrow balance in the asset,\n     *  or be providing neccessary collateral for an outstanding borrow.\n     * @param pTokenAddress The address of the asset to be removed\n     * @return Whether or not the account successfully exited the market\n     */\n    function exitMarket(address pTokenAddress) external override returns (uint) {\n        PToken pToken = PToken(pTokenAddress);\n        /* Get sender tokensHeld and amountOwed underlying from the pToken */\n        (uint oErr, uint tokensHeld, uint amountOwed, ) = pToken.getAccountSnapshot(msg.sender);\n        require(oErr == 0, \"exitMarket: getAccountSnapshot failed\"); // semi-opaque error code\n\n        /* Fail if the sender has a borrow balance */\n        if (amountOwed != 0) {\n            return fail(Error.NONZERO_BORROW_BALANCE, FailureInfo.EXIT_MARKET_BALANCE_OWED);\n        }\n\n        /* Fail if the sender is not permitted to redeem all of their tokens */\n        uint allowed = redeemAllowedInternal(pTokenAddress, msg.sender, tokensHeld);\n        if (allowed != 0) {\n            return failOpaque(Error.REJECTION, FailureInfo.EXIT_MARKET_REJECTION, allowed);\n        }\n\n        Market storage marketToExit = markets[address(pToken)];\n\n        /* Return true if the sender is not already in the market */\n        if (!marketToExit.accountMembership[msg.sender]) {\n            return uint(Error.NO_ERROR);\n        }\n\n        /* Set pToken account membership to false */\n        delete marketToExit.accountMembership[msg.sender];\n\n        /* Delete pToken from the accounts list of assets */\n        // load into memory for faster iteration\n        PToken[] memory userAssetList = accountAssets[msg.sender];\n        uint len = userAssetList.length;\n        uint assetIndex = len;\n        for (uint i = 0; i < len; i++) {\n            if (userAssetList[i] == pToken) {\n                assetIndex = i;\n                break;\n            }\n        }\n\n        // We *must* have found the asset in the list or our redundant data structure is broken\n        assert(assetIndex < len);\n\n        // copy last item in list to location of item to be removed, reduce length by 1\n        PToken[] storage storedList = accountAssets[msg.sender];\n        storedList[assetIndex] = storedList[storedList.length - 1];\n        storedList.pop();\n\n        emit MarketExited(pToken, msg.sender);\n\n        return uint(Error.NO_ERROR);\n    }\n\n    /*** Policy Hooks ***/\n\n    /**\n     * @notice Checks if the account should be allowed to mint tokens in the given market\n     * @param pToken The market to verify the mint against\n     * @param minter The account which would get the minted tokens\n     * @param mintAmount The amount of underlying being supplied to the market in exchange for tokens\n     * @return 0 if the mint is allowed, otherwise a semi-opaque error code (See ErrorReporter.sol)\n     */\n    function mintAllowed(address pToken, address minter, uint mintAmount) external override returns (uint) {\n        // Pausing is a very serious situation - we revert to sound the alarms\n        require(!mintGuardianPaused[pToken], \"mint is paused\");\n\n        // Shh - currently unused\n        minter;\n        mintAmount;\n\n        if (!markets[pToken].isListed) {\n            return uint(Error.MARKET_NOT_LISTED);\n        }\n\n        // *may include Policy Hook-type checks\n\n        return uint(Error.NO_ERROR);\n    }\n\n    /**\n     * @notice Checks if the account should be allowed to redeem tokens in the given market\n     * @param pToken The market to verify the redeem against\n     * @param redeemer The account which would redeem the tokens\n     * @param redeemTokens The number of pTokens to exchange for the underlying asset in the market\n     * @return 0 if the redeem is allowed, otherwise a semi-opaque error code (See ErrorReporter.sol)\n     */\n    function redeemAllowed(address pToken, address redeemer, uint redeemTokens) external override returns (uint) {\n        return redeemAllowedInternal(pToken, redeemer, redeemTokens);\n    }\n\n    function redeemAllowedInternal(address pToken, address redeemer, uint redeemTokens) internal view returns (uint) {\n        if (!markets[pToken].isListed) {\n            return uint(Error.MARKET_NOT_LISTED);\n        }\n\n        // *may include Policy Hook-type checks\n\n        /* If the redeemer is not 'in' the market, then we can bypass the liquidity check */\n        if (!markets[pToken].accountMembership[redeemer]) {\n            return uint(Error.NO_ERROR);\n        }\n\n        /* Otherwise, perform a hypothetical liquidity check to guard against shortfall */\n        (Error err, , uint shortfall) = getHypotheticalAccountLiquidityInternal(redeemer, PToken(pToken), redeemTokens, 0);\n        if (err != Error.NO_ERROR) {\n            return uint(err);\n        }\n        if (shortfall > 0) {\n            return uint(Error.INSUFFICIENT_LIQUIDITY);\n        }\n\n        return uint(Error.NO_ERROR);\n    }\n\n    /**\n     * @notice Checks if the account should be allowed to borrow the underlying asset of the given market\n     * @param pToken The market to verify the borrow against\n     * @param borrower The account which would borrow the asset\n     * @param borrowAmount The amount of underlying the account would borrow\n     * @return 0 if the borrow is allowed, otherwise a semi-opaque error code (See ErrorReporter.sol)\n     */\n    function borrowAllowed(address pToken, address borrower, uint borrowAmount) external override returns (uint) {\n        // Pausing is a very serious situation - we revert to sound the alarms\n        require(!borrowGuardianPaused[pToken], \"borrow is paused\");\n\n        if (!markets[pToken].isListed) {\n            return uint(Error.MARKET_NOT_LISTED);\n        }\n\n        if (!markets[pToken].accountMembership[borrower]) {\n            // only pTokens may call borrowAllowed if borrower not in market\n            require(msg.sender == pToken, \"sender must be pToken\");\n\n            // attempt to add borrower to the market\n            Error err = addToMarketInternal(PToken(msg.sender), borrower);\n            if (err != Error.NO_ERROR) {\n                return uint(err);\n            }\n\n            // it should be impossible to break the important invariant\n            assert(markets[pToken].accountMembership[borrower]);\n        }\n\n        (uint256 tokenPrice, ) = oracle.getUnderlyingPrice(PToken(pToken));\n        if (tokenPrice == 0) {\n            return uint(Error.PRICE_ERROR);\n        }\n\n        (Error err, , uint shortfall) = getHypotheticalAccountLiquidityInternal(borrower, PToken(pToken), 0, borrowAmount);\n        if (err != Error.NO_ERROR) {\n            return uint(err);\n        }\n        if (shortfall > 0) {\n            return uint(Error.INSUFFICIENT_LIQUIDITY);\n        }\n\n        return uint(Error.NO_ERROR);\n    }\n\n    /**\n     * @notice Checks if the account should be allowed to repay a borrow in the given market\n     * @param pToken The market to verify the repay against\n     * @param payer The account which would repay the asset\n     * @param borrower The account which would borrowed the asset\n     * @param repayAmount The amount of the underlying asset the account would repay\n     * @return 0 if the repay is allowed, otherwise a semi-opaque error code (See ErrorReporter.sol)\n     */\n    function repayBorrowAllowed(\n        address pToken,\n        address payer,\n        address borrower,\n        uint repayAmount) external override returns (uint) {\n        // Shh - currently unused\n        payer;\n        borrower;\n        repayAmount;\n\n        if (!markets[pToken].isListed) {\n            return uint(Error.MARKET_NOT_LISTED);\n        }\n\n        return uint(Error.NO_ERROR);\n    }\n\n    /**\n     * @notice Checks if the liquidation should be allowed to occur\n     * @param pTokenBorrowed Asset which was borrowed by the borrower\n     * @param pTokenCollateral Asset which was used as collateral and will be seized\n     * @param liquidator The address repaying the borrow and seizing the collateral\n     * @param borrower The address of the borrower\n     * @param repayAmount The amount of underlying being repaid\n     */\n    function liquidateBorrowAllowed(\n        address pTokenBorrowed,\n        address pTokenCollateral,\n        address liquidator,\n        address borrower,\n        uint repayAmount) external override returns (uint) {\n        // Shh - currently unused\n        liquidator;\n\n        if (!markets[pTokenBorrowed].isListed || !markets[pTokenCollateral].isListed) {\n            return uint(Error.MARKET_NOT_LISTED);\n        }\n\n        /* The borrower must have shortfall in order to be liquidatable */\n        (Error err, , uint shortfall) = getAccountLiquidityInternal(borrower);\n        if (err != Error.NO_ERROR) {\n            return uint(err);\n        }\n        if (shortfall == 0) {\n            return uint(Error.INSUFFICIENT_SHORTFALL);\n        }\n\n        /* The liquidator may not repay more than what is allowed by the closeFactor */\n        uint borrowBalance = PToken(pTokenBorrowed).borrowBalanceStored(borrower);\n        (MathError mathErr, uint maxClose) = mulScalarTruncate(Exp({mantissa: closeFactorMantissa}), borrowBalance);\n        if (mathErr != MathError.NO_ERROR) {\n            return uint(Error.MATH_ERROR);\n        }\n        if (repayAmount > maxClose) {\n            return uint(Error.TOO_MUCH_REPAY);\n        }\n\n        return uint(Error.NO_ERROR);\n    }\n\n    /**\n     * @notice Checks if the seizing of assets should be allowed to occur\n     * @param pTokenCollateral Asset which was used as collateral and will be seized\n     * @param pTokenBorrowed Asset which was borrowed by the borrower\n     * @param liquidator The address repaying the borrow and seizing the collateral\n     * @param borrower The address of the borrower\n     * @param seizeTokens The number of collateral tokens to seize\n     */\n    function seizeAllowed(\n        address pTokenCollateral,\n        address pTokenBorrowed,\n        address liquidator,\n        address borrower,\n        uint seizeTokens) external override returns (uint) {\n        // Pausing is a very serious situation - we revert to sound the alarms\n        require(!seizeGuardianPaused, \"seize is paused\");\n\n        // Shh - currently unused\n        liquidator;\n        borrower;\n        seizeTokens;\n\n        if (!markets[pTokenCollateral].isListed || !markets[pTokenBorrowed].isListed) {\n            return uint(Error.MARKET_NOT_LISTED);\n        }\n\n        if (PToken(pTokenCollateral).ptroller() != PToken(pTokenBorrowed).ptroller()) {\n            return uint(Error.POOLXCONTROLLER_MISMATCH);\n        }\n\n        return uint(Error.NO_ERROR);\n    }\n\n    /**\n     * @notice Checks if the account should be allowed to transfer tokens in the given market\n     * @param pToken The market to verify the transfer against\n     * @param src The account which sources the tokens\n     * @param dst The account which receives the tokens\n     * @param transferTokens The number of pTokens to transfer\n     * @return 0 if the transfer is allowed, otherwise a semi-opaque error code (See ErrorReporter.sol)\n     */\n    function transferAllowed(address pToken, address src, address dst, uint transferTokens) external override returns (uint) {\n        // Pausing is a very serious situation - we revert to sound the alarms\n        require(!transferGuardianPaused, \"transfer is paused\");\n\n        // Shh - currently unused\n        dst;\n\n        // *may include Policy Hook-type checks\n\n        // Currently the only consideration is whether or not\n        //  the src is allowed to redeem this many tokens\n        return redeemAllowedInternal(pToken, src, transferTokens);\n    }\n\n    /*** Liquidity/Liquidation Calculations ***/\n\n    /**\n     * @dev Local vars for avoiding stack-depth limits in calculating account liquidity.\n     *  Note that `pTokenBalance` is the number of pTokens the account owns in the market,\n     *  whereas `borrowBalance` is the amount of underlying that the account has borrowed.\n     */\n    struct AccountLiquidityLocalVars {\n        uint sumCollateral;\n        uint sumBorrowPlusEffects;\n        uint pTokenBalance;\n        uint borrowBalance;\n        uint exchangeRateMantissa;\n        uint oraclePriceMantissa;\n        Exp collateralFactor;\n        Exp exchangeRate;\n        Exp oraclePrice;\n        Exp tokensToEther;\n    }\n\n    /**\n     * @notice Determine the current account liquidity wrt collateral requirements\n     * @return (possible error code (semi-opaque),\n                account liquidity in excess of collateral requirements,\n     *          account shortfall below collateral requirements)\n     */\n    function getAccountLiquidity(address account) public view returns (uint, uint, uint) {\n        (Error err, uint liquidity, uint shortfall) = getHypotheticalAccountLiquidityInternal(account, PToken(0), 0, 0);\n\n        return (uint(err), liquidity, shortfall);\n    }\n\n    /**\n     * @notice Determine the current account liquidity wrt collateral requirements\n     * @return (possible error code,\n                account liquidity in excess of collateral requirements,\n     *          account shortfall below collateral requirements)\n     */\n    function getAccountLiquidityInternal(address account) internal view returns (Error, uint, uint) {\n        return getHypotheticalAccountLiquidityInternal(account, PToken(0), 0, 0);\n    }\n\n    /**\n     * @notice Determine what the account liquidity would be if the given amounts were redeemed/borrowed\n     * @param pTokenModify The market to hypothetically redeem/borrow in\n     * @param account The account to determine liquidity for\n     * @param redeemTokens The number of tokens to hypothetically redeem\n     * @param borrowAmount The amount of underlying to hypothetically borrow\n     * @return (possible error code (semi-opaque),\n                hypothetical account liquidity in excess of collateral requirements,\n     *          hypothetical account shortfall below collateral requirements)\n     */\n    function getHypotheticalAccountLiquidity(\n        address account,\n        address pTokenModify,\n        uint redeemTokens,\n        uint borrowAmount) public view returns (uint, uint, uint) {\n        (Error err, uint liquidity, uint shortfall) = getHypotheticalAccountLiquidityInternal(account, PToken(pTokenModify), redeemTokens, borrowAmount);\n        return (uint(err), liquidity, shortfall);\n    }\n\n    function getTokenPrice(address asset) internal view returns (uint256) {\n        (uint256 oraclePriceMantissa,) = oracle.getUnderlyingPrice(PToken(asset));\n        return oraclePriceMantissa;\n    }\n\n    function updateAndGetTokenPrice(address asset) external override payable returns (uint256) {\n        (uint256 oraclePriceMantissa, uint256 blockNum) = oracle.getUnderlyingPrice(PToken(asset));\n        if (oraclePriceMantissa != 0 && blockNum == block.number) return oraclePriceMantissa;\n\n        uint256 priceCost = oracle.getPriceCost(PToken(asset));\n        require(msg.value >= priceCost, \"No enough balance.\");\n        oraclePriceMantissa = oracle.UpdateAndGetUnderlyingPrice{value: priceCost}(PToken(asset));\n        return oraclePriceMantissa;\n    }\n\n    /**\n     * TODO: \n     * @notice Determine what the account liquidity would be if the given amounts were redeemed/borrowed\n     * @param pTokenModify The market to hypothetically redeem/borrow in\n     * @param account The account to determine liquidity for\n     * @param redeemTokens The number of tokens to hypothetically redeem\n     * @param borrowAmount The amount of underlying to hypothetically borrow\n     * @dev Note that we calculate the exchangeRateStored for each collateral pToken using stored data,\n     *  without calculating accumulated interest.\n     * @return (possible error code,\n                hypothetical account liquidity in excess of collateral requirements,\n     *          hypothetical account shortfall below collateral requirements)\n     */\n    function getHypotheticalAccountLiquidityInternal(\n        address account,\n        PToken pTokenModify,\n        uint redeemTokens,\n        uint borrowAmount) internal view returns (Error, uint, uint) {\n\n        AccountLiquidityLocalVars memory vars; // Holds all our calculation results\n        uint oErr;\n        MathError mErr;\n\n        // For each asset the account is in\n        PToken[] memory assets = accountAssets[account];\n        for (uint i = 0; i < assets.length; i++) {\n            PToken asset = assets[i];\n\n            // Read the balances and exchange rate from the pToken\n            (oErr, vars.pTokenBalance, vars.borrowBalance, vars.exchangeRateMantissa) = asset.getAccountSnapshot(account);\n            if (oErr != 0) { // semi-opaque error code, we assume NO_ERROR == 0 is invariant between upgrades\n                return (Error.SNAPSHOT_ERROR, 0, 0);\n            }\n            vars.collateralFactor = Exp({mantissa: markets[address(asset)].collateralFactorMantissa});\n            vars.exchangeRate = Exp({mantissa: vars.exchangeRateMantissa});\n\n            // Get the normalized price of the asset\n            vars.oraclePriceMantissa = getTokenPrice(address(asset));\n            if (vars.oraclePriceMantissa == 0) {\n                return (Error.PRICE_ERROR, 0, 0);\n            }\n            vars.oraclePrice = Exp({mantissa: vars.oraclePriceMantissa});\n\n            // Pre-compute a conversion factor from tokens -> ether (normalized price value)\n            (mErr, vars.tokensToEther) = mulExp3(vars.collateralFactor, vars.exchangeRate, vars.oraclePrice);\n            if (mErr != MathError.NO_ERROR) {\n                return (Error.MATH_ERROR, 0, 0);\n            }\n\n            // sumCollateral += tokensToEther * pTokenBalance\n            (mErr, vars.sumCollateral) = mulScalarTruncateAddUInt(vars.tokensToEther, vars.pTokenBalance, vars.sumCollateral);\n            if (mErr != MathError.NO_ERROR) {\n                return (Error.MATH_ERROR, 0, 0);\n            }\n\n            // sumBorrowPlusEffects += oraclePrice * borrowBalance\n            (mErr, vars.sumBorrowPlusEffects) = mulScalarTruncateAddUInt(vars.oraclePrice, vars.borrowBalance, vars.sumBorrowPlusEffects);\n            if (mErr != MathError.NO_ERROR) {\n                return (Error.MATH_ERROR, 0, 0);\n            }\n\n            // Calculate effects of interacting with pTokenModify\n            if (asset == pTokenModify) {\n                // redeem effect\n                // sumBorrowPlusEffects += tokensToEther * redeemTokens\n                (mErr, vars.sumBorrowPlusEffects) = mulScalarTruncateAddUInt(vars.tokensToEther, redeemTokens, vars.sumBorrowPlusEffects);\n                if (mErr != MathError.NO_ERROR) {\n                    return (Error.MATH_ERROR, 0, 0);\n                }\n\n                // borrow effect\n                // sumBorrowPlusEffects += oraclePrice * borrowAmount\n                (mErr, vars.sumBorrowPlusEffects) = mulScalarTruncateAddUInt(vars.oraclePrice, borrowAmount, vars.sumBorrowPlusEffects);\n                if (mErr != MathError.NO_ERROR) {\n                    return (Error.MATH_ERROR, 0, 0);\n                }\n            }\n        }\n\n        // These are safe, as the underflow condition is checked first\n        if (vars.sumCollateral > vars.sumBorrowPlusEffects) {\n            return (Error.NO_ERROR, vars.sumCollateral - vars.sumBorrowPlusEffects, 0);\n        } else {\n            return (Error.NO_ERROR, 0, vars.sumBorrowPlusEffects - vars.sumCollateral);\n        }\n    }\n\n    /**\n     * @notice Calculate number of tokens of collateral asset to seize given an underlying amount\n     * @dev Used in liquidation (called in pToken.liquidateBorrowFresh)\n     * @param pTokenBorrowed The address of the borrowed pToken\n     * @param pTokenCollateral The address of the collateral pToken\n     * @param actualRepayAmount The amount of pTokenBorrowed underlying to convert into pTokenCollateral tokens\n     * @return (errorCode, number of pTokenCollateral tokens to be seized in a liquidation)\n     */\n    function liquidateCalculateSeizeTokens(address pTokenBorrowed, address pTokenCollateral, uint actualRepayAmount) external view override returns (uint, uint) {\n        /* Read oracle prices for borrowed and collateral markets */\n        uint priceBorrowedMantissa = getTokenPrice(pTokenBorrowed);\n        uint priceCollateralMantissa = getTokenPrice(pTokenCollateral);\n        if (priceBorrowedMantissa == 0 || priceCollateralMantissa == 0) {\n            return (uint(Error.PRICE_ERROR), 0);\n        }\n\n        /*\n         * Get the exchange rate and calculate the number of collateral tokens to seize:\n         *  seizeAmount = actualRepayAmount * liquidationIncentive * priceBorrowed / priceCollateral\n         *  seizeTokens = seizeAmount / exchangeRate\n         *   = actualRepayAmount * (liquidationIncentive * priceBorrowed) / (priceCollateral * exchangeRate)\n         */\n        uint exchangeRateMantissa = PToken(pTokenCollateral).exchangeRateStored(); // Note: reverts on error\n        uint seizeTokens;\n        Exp memory numerator;\n        Exp memory denominator;\n        Exp memory ratio;\n        MathError mathErr;\n\n        (mathErr, numerator) = mulExp(liquidationIncentiveMantissa, priceBorrowedMantissa);\n        if (mathErr != MathError.NO_ERROR) {\n            return (uint(Error.MATH_ERROR), 0);\n        }\n\n        (mathErr, denominator) = mulExp(priceCollateralMantissa, exchangeRateMantissa);\n        if (mathErr != MathError.NO_ERROR) {\n            return (uint(Error.MATH_ERROR), 0);\n        }\n\n        (mathErr, ratio) = divExp(numerator, denominator);\n        if (mathErr != MathError.NO_ERROR) {\n            return (uint(Error.MATH_ERROR), 0);\n        }\n\n        (mathErr, seizeTokens) = mulScalarTruncate(ratio, actualRepayAmount);\n        if (mathErr != MathError.NO_ERROR) {\n            return (uint(Error.MATH_ERROR), 0);\n        }\n\n        return (uint(Error.NO_ERROR), seizeTokens);\n    }\n\n    /*** Admin Functions ***/\n\n    /**\n      * @notice Sets a new price oracle for the riskManager\n      * @dev Admin function to set a new price oracle\n      * @return uint 0=success, otherwise a failure (see ErrorReporter.sol for details)\n      */\n    function _setPriceOracle(PriceOracle newOracle) public returns (uint) {\n        // Check caller is admin\n        if (msg.sender != admin) {\n            return fail(Error.UNAUTHORIZED, FailureInfo.SET_PRICE_ORACLE_OWNER_CHECK);\n        }\n\n        // Track the old oracle for the riskManager\n        PriceOracle oldOracle = oracle;\n\n        // Set riskManager's oracle to newOracle\n        oracle = newOracle;\n\n        // Emit NewPriceOracle(oldOracle, newOracle)\n        emit NewPriceOracle(oldOracle, newOracle);\n\n        return uint(Error.NO_ERROR);\n    }\n\n    /**\n      * @notice Sets the closeFactor used when liquidating borrows\n      * @dev Admin function to set closeFactor\n      * @param newCloseFactorMantissa New close factor, scaled by 1e18\n      * @return uint 0=success, otherwise a failure. (See ErrorReporter for details)\n      */\n    function _setCloseFactor(uint newCloseFactorMantissa) external returns (uint256) {\n        // Check caller is admin\n        if (msg.sender != admin) {\n            return fail(Error.UNAUTHORIZED, FailureInfo.SET_CLOSE_FACTOR_OWNER_CHECK);\n        }\n\n        Exp memory newCloseFactorExp = Exp({mantissa: newCloseFactorMantissa});\n        Exp memory lowLimit = Exp({mantissa: closeFactorMinMantissa});\n        if (lessThanOrEqualExp(newCloseFactorExp, lowLimit)) {\n            return fail(Error.INVALID_CLOSE_FACTOR, FailureInfo.SET_CLOSE_FACTOR_VALIDATION);\n        }\n\n        Exp memory highLimit = Exp({mantissa: closeFactorMaxMantissa});\n        if (lessThanExp(highLimit, newCloseFactorExp)) {\n            return fail(Error.INVALID_CLOSE_FACTOR, FailureInfo.SET_CLOSE_FACTOR_VALIDATION);\n        }\n\n        uint oldCloseFactorMantissa = closeFactorMantissa;\n        closeFactorMantissa = newCloseFactorMantissa;\n        emit NewCloseFactor(oldCloseFactorMantissa, closeFactorMantissa);\n\n        return uint(Error.NO_ERROR);\n    }\n\n    /**\n      * @notice Sets the collateralFactor for a market\n      * @dev Admin function to set per-market collateralFactor\n      * @param pToken The market to set the factor on\n      * @param newCollateralFactorMantissa The new collateral factor, scaled by 1e18\n      * @return uint 0=success, otherwise a failure. (See ErrorReporter for details)\n      */\n    function _setCollateralFactor(PToken pToken, uint newCollateralFactorMantissa) external returns (uint256) {\n        // Check caller is admin\n        if (msg.sender != admin) {\n            return fail(Error.UNAUTHORIZED, FailureInfo.SET_COLLATERAL_FACTOR_OWNER_CHECK);\n        }\n\n        // Verify market is listed\n        Market storage market = markets[address(pToken)];\n        if (!market.isListed) {\n            return fail(Error.MARKET_NOT_LISTED, FailureInfo.SET_COLLATERAL_FACTOR_NO_EXISTS);\n        }\n\n        Exp memory newCollateralFactorExp = Exp({mantissa: newCollateralFactorMantissa});\n\n        // Check collateral factor <= 0.9\n        Exp memory highLimit = Exp({mantissa: collateralFactorMaxMantissa});\n        if (lessThanExp(highLimit, newCollateralFactorExp)) {\n            return fail(Error.INVALID_COLLATERAL_FACTOR, FailureInfo.SET_COLLATERAL_FACTOR_VALIDATION);\n        }\n\n        // If collateral factor != 0, fail if price == 0\n        if (newCollateralFactorMantissa != 0 && getTokenPrice(address(pToken)) == 0) {\n            return fail(Error.PRICE_ERROR, FailureInfo.SET_COLLATERAL_FACTOR_WITHOUT_PRICE);\n        }\n\n        // Set market's collateral factor to new collateral factor, remember old value\n        uint oldCollateralFactorMantissa = market.collateralFactorMantissa;\n        market.collateralFactorMantissa = newCollateralFactorMantissa;\n\n        // Emit event with asset, old collateral factor, and new collateral factor\n        emit NewCollateralFactor(pToken, oldCollateralFactorMantissa, newCollateralFactorMantissa);\n\n        return uint(Error.NO_ERROR);\n    }\n\n    /**\n      * @notice Sets maxAssets which controls how many markets can be entered\n      * @dev Admin function to set maxAssets\n      * @param newMaxAssets New max assets\n      * @return uint 0=success, otherwise a failure. (See ErrorReporter for details)\n      */\n    function _setMaxAssets(uint newMaxAssets) external returns (uint) {\n        // Check caller is admin\n        if (msg.sender != admin) {\n            return fail(Error.UNAUTHORIZED, FailureInfo.SET_MAX_ASSETS_OWNER_CHECK);\n        }\n\n        uint oldMaxAssets = maxAssets;\n        maxAssets = newMaxAssets;\n        emit NewMaxAssets(oldMaxAssets, newMaxAssets);\n\n        return uint(Error.NO_ERROR);\n    }\n\n    /**\n      * @notice Sets liquidationIncentive\n      * @dev Admin function to set liquidationIncentive\n      * @param newLiquidationIncentiveMantissa New liquidationIncentive scaled by 1e18\n      * @return uint 0=success, otherwise a failure. (See ErrorReporter for details)\n      */\n    function _setLiquidationIncentive(uint newLiquidationIncentiveMantissa) external returns (uint) {\n        // Check caller is admin\n        if (msg.sender != admin) {\n            return fail(Error.UNAUTHORIZED, FailureInfo.SET_LIQUIDATION_INCENTIVE_OWNER_CHECK);\n        }\n\n        // Check de-scaled min <= newLiquidationIncentive <= max\n        Exp memory newLiquidationIncentive = Exp({mantissa: newLiquidationIncentiveMantissa});\n        Exp memory minLiquidationIncentive = Exp({mantissa: liquidationIncentiveMinMantissa});\n        if (lessThanExp(newLiquidationIncentive, minLiquidationIncentive)) {\n            return fail(Error.INVALID_LIQUIDATION_INCENTIVE, FailureInfo.SET_LIQUIDATION_INCENTIVE_VALIDATION);\n        }\n\n        Exp memory maxLiquidationIncentive = Exp({mantissa: liquidationIncentiveMaxMantissa});\n        if (lessThanExp(maxLiquidationIncentive, newLiquidationIncentive)) {\n            return fail(Error.INVALID_LIQUIDATION_INCENTIVE, FailureInfo.SET_LIQUIDATION_INCENTIVE_VALIDATION);\n        }\n\n        // Save current value for use in log\n        uint oldLiquidationIncentiveMantissa = liquidationIncentiveMantissa;\n\n        // Set liquidation incentive to new incentive\n        liquidationIncentiveMantissa = newLiquidationIncentiveMantissa;\n\n        // Emit event with old incentive, new incentive\n        emit NewLiquidationIncentive(oldLiquidationIncentiveMantissa, newLiquidationIncentiveMantissa);\n\n        return uint(Error.NO_ERROR);\n    }\n\n    /**\n      * @notice Add the market to the markets mapping and set it as listed\n      * @dev Admin function to set isListed and add support for the market\n      * @param pToken The address of the market (token) to list\n      * @return uint 0=success, otherwise a failure. (See enum Error for details)\n      */\n    function _supportMarket(PToken pToken) external returns (uint) {\n        if (msg.sender != admin) {\n            return fail(Error.UNAUTHORIZED, FailureInfo.SUPPORT_MARKET_OWNER_CHECK);\n        }\n\n        if (markets[address(pToken)].isListed) {\n            return fail(Error.MARKET_ALREADY_LISTED, FailureInfo.SUPPORT_MARKET_EXISTS);\n        }\n\n        pToken.isPToken(); // Sanity check to make sure its really a PToken\n\n        markets[address(pToken)] = Market({isListed: true, collateralFactorMantissa: 0});\n        emit MarketListed(pToken);\n\n        return uint(Error.NO_ERROR);\n    }\n\n    /**\n     * @notice Admin function to change the Pause Guardian\n     * @param newPauseGuardian The address of the new Pause Guardian\n     * @return uint 0=success, otherwise a failure. (See enum Error for details)\n     */\n    function _setPauseGuardian(address newPauseGuardian) public returns (uint) {\n        if (msg.sender != admin) {\n            return fail(Error.UNAUTHORIZED, FailureInfo.SET_PAUSE_GUARDIAN_OWNER_CHECK);\n        }\n\n        // Save current value for inclusion in log\n        address oldPauseGuardian = pauseGuardian;\n\n        // Store pauseGuardian with value newPauseGuardian\n        pauseGuardian = newPauseGuardian;\n\n        // Emit NewPauseGuardian(OldPauseGuardian, NewPauseGuardian)\n        emit NewPauseGuardian(oldPauseGuardian, pauseGuardian);\n\n        return uint(Error.NO_ERROR);\n    }\n\n    function _setMintPaused(PToken pToken, bool state) public returns (bool) {\n        require(markets[address(pToken)].isListed, \"cannot pause a market that is not listed\");\n        require(msg.sender == pauseGuardian || msg.sender == admin, \"only pause guardian and admin can pause\");\n        require(msg.sender == admin || state == true, \"only admin can unpause\");\n\n        mintGuardianPaused[address(pToken)] = state;\n        emit ActionPaused(pToken, \"Mint\", state);\n        return state;\n    }\n\n    function _setBorrowPaused(PToken pToken, bool state) public returns (bool) {\n        require(markets[address(pToken)].isListed, \"cannot pause a market that is not listed\");\n        require(msg.sender == pauseGuardian || msg.sender == admin, \"only pause guardian and admin can pause\");\n        require(msg.sender == admin || state == true, \"only admin can unpause\");\n\n        borrowGuardianPaused[address(pToken)] = state;\n        emit ActionPaused(pToken, \"Borrow\", state);\n        return state;\n    }\n\n    function _setTransferPaused(bool state) public returns (bool) {\n        require(msg.sender == pauseGuardian || msg.sender == admin, \"only pause guardian and admin can pause\");\n        require(msg.sender == admin || state == true, \"only admin can unpause\");\n\n        transferGuardianPaused = state;\n        emit ActionPaused(\"Transfer\", state);\n        return state;\n    }\n\n    function _setSeizePaused(bool state) public returns (bool) {\n        require(msg.sender == pauseGuardian || msg.sender == admin, \"only pause guardian and admin can pause\");\n        require(msg.sender == admin || state == true, \"only admin can unpause\");\n\n        seizeGuardianPaused = state;\n        emit ActionPaused(\"Seize\", state);\n        return state;\n    }\n}\n",
  "sourcePath": "/Users/ashton/repo/blockchain/eth/smartcontracts/PoolX/contracts/core/PoolXController.sol",
  "compiler": {
    "name": "solc",
    "version": "0.6.9+commit.3e3065ac.Emscripten.clang"
  },
  "schemaVersion": "3.2.0",
  "updatedAt": "2020-08-06T02:44:01.115Z",
  "devdoc": {
    "methods": {
      "_setCloseFactor(uint256)": {
        "details": "Admin function to set closeFactor",
        "params": {
          "newCloseFactorMantissa": "New close factor, scaled by 1e18"
        },
        "returns": {
          "_0": "uint 0=success, otherwise a failure. (See ErrorReporter for details)"
        }
      },
      "_setCollateralFactor(address,uint256)": {
        "details": "Admin function to set per-market collateralFactor",
        "params": {
          "newCollateralFactorMantissa": "The new collateral factor, scaled by 1e18",
          "pToken": "The market to set the factor on"
        },
        "returns": {
          "_0": "uint 0=success, otherwise a failure. (See ErrorReporter for details)"
        }
      },
      "_setLiquidationIncentive(uint256)": {
        "details": "Admin function to set liquidationIncentive",
        "params": {
          "newLiquidationIncentiveMantissa": "New liquidationIncentive scaled by 1e18"
        },
        "returns": {
          "_0": "uint 0=success, otherwise a failure. (See ErrorReporter for details)"
        }
      },
      "_setMaxAssets(uint256)": {
        "details": "Admin function to set maxAssets",
        "params": {
          "newMaxAssets": "New max assets"
        },
        "returns": {
          "_0": "uint 0=success, otherwise a failure. (See ErrorReporter for details)"
        }
      },
      "_setPauseGuardian(address)": {
        "params": {
          "newPauseGuardian": "The address of the new Pause Guardian"
        },
        "returns": {
          "_0": "uint 0=success, otherwise a failure. (See enum Error for details)"
        }
      },
      "_setPriceOracle(address)": {
        "details": "Admin function to set a new price oracle",
        "returns": {
          "_0": "uint 0=success, otherwise a failure (see ErrorReporter.sol for details)"
        }
      },
      "_supportMarket(address)": {
        "details": "Admin function to set isListed and add support for the market",
        "params": {
          "pToken": "The address of the market (token) to list"
        },
        "returns": {
          "_0": "uint 0=success, otherwise a failure. (See enum Error for details)"
        }
      },
      "borrowAllowed(address,address,uint256)": {
        "params": {
          "borrowAmount": "The amount of underlying the account would borrow",
          "borrower": "The account which would borrow the asset",
          "pToken": "The market to verify the borrow against"
        },
        "returns": {
          "_0": "0 if the borrow is allowed, otherwise a semi-opaque error code (See ErrorReporter.sol)"
        }
      },
      "checkMembership(address,address)": {
        "params": {
          "account": "The address of the account to check",
          "pToken": "The pToken to check"
        },
        "returns": {
          "_0": "True if the account is in the asset, otherwise false."
        }
      },
      "enterMarkets(address[])": {
        "params": {
          "pTokens": "The list of addresses of the pToken markets to be enabled"
        },
        "returns": {
          "_0": "Success indicator for whether each corresponding market was entered"
        }
      },
      "exitMarket(address)": {
        "details": "Sender must not have an outstanding borrow balance in the asset,  or be providing neccessary collateral for an outstanding borrow.",
        "params": {
          "pTokenAddress": "The address of the asset to be removed"
        },
        "returns": {
          "_0": "Whether or not the account successfully exited the market"
        }
      },
      "getAccountLiquidity(address)": {
        "returns": {
          "_0": "(possible error code (semi-opaque), account liquidity in excess of collateral requirements,          account shortfall below collateral requirements)"
        }
      },
      "getAssetsIn(address)": {
        "params": {
          "account": ""
        },
        "returns": {
          "_0": ""
        }
      },
      "getHypotheticalAccountLiquidity(address,address,uint256,uint256)": {
        "params": {
          "account": "The account to determine liquidity for",
          "borrowAmount": "The amount of underlying to hypothetically borrow",
          "pTokenModify": "The market to hypothetically redeem/borrow in",
          "redeemTokens": "The number of tokens to hypothetically redeem"
        },
        "returns": {
          "_0": "(possible error code (semi-opaque), hypothetical account liquidity in excess of collateral requirements,          hypothetical account shortfall below collateral requirements)"
        }
      },
      "liquidateBorrowAllowed(address,address,address,address,uint256)": {
        "params": {
          "borrower": "The address of the borrower",
          "liquidator": "The address repaying the borrow and seizing the collateral",
          "pTokenBorrowed": "Asset which was borrowed by the borrower",
          "pTokenCollateral": "Asset which was used as collateral and will be seized",
          "repayAmount": "The amount of underlying being repaid"
        }
      },
      "liquidateCalculateSeizeTokens(address,address,uint256)": {
        "details": "Used in liquidation (called in pToken.liquidateBorrowFresh)",
        "params": {
          "actualRepayAmount": "The amount of pTokenBorrowed underlying to convert into pTokenCollateral tokens",
          "pTokenBorrowed": "The address of the borrowed pToken",
          "pTokenCollateral": "The address of the collateral pToken"
        },
        "returns": {
          "_0": "(errorCode, number of pTokenCollateral tokens to be seized in a liquidation)"
        }
      },
      "mintAllowed(address,address,uint256)": {
        "params": {
          "mintAmount": "The amount of underlying being supplied to the market in exchange for tokens",
          "minter": "The account which would get the minted tokens",
          "pToken": "The market to verify the mint against"
        },
        "returns": {
          "_0": "0 if the mint is allowed, otherwise a semi-opaque error code (See ErrorReporter.sol)"
        }
      },
      "redeemAllowed(address,address,uint256)": {
        "params": {
          "pToken": "The market to verify the redeem against",
          "redeemTokens": "The number of pTokens to exchange for the underlying asset in the market",
          "redeemer": "The account which would redeem the tokens"
        },
        "returns": {
          "_0": "0 if the redeem is allowed, otherwise a semi-opaque error code (See ErrorReporter.sol)"
        }
      },
      "repayBorrowAllowed(address,address,address,uint256)": {
        "params": {
          "borrower": "The account which would borrowed the asset",
          "pToken": "The market to verify the repay against",
          "payer": "The account which would repay the asset",
          "repayAmount": "The amount of the underlying asset the account would repay"
        },
        "returns": {
          "_0": "0 if the repay is allowed, otherwise a semi-opaque error code (See ErrorReporter.sol)"
        }
      },
      "seizeAllowed(address,address,address,address,uint256)": {
        "params": {
          "borrower": "The address of the borrower",
          "liquidator": "The address repaying the borrow and seizing the collateral",
          "pTokenBorrowed": "Asset which was borrowed by the borrower",
          "pTokenCollateral": "Asset which was used as collateral and will be seized",
          "seizeTokens": "The number of collateral tokens to seize"
        }
      },
      "transferAllowed(address,address,address,uint256)": {
        "params": {
          "dst": "The account which receives the tokens",
          "pToken": "The market to verify the transfer against",
          "src": "The account which sources the tokens",
          "transferTokens": "The number of pTokens to transfer"
        },
        "returns": {
          "_0": "0 if the transfer is allowed, otherwise a semi-opaque error code (See ErrorReporter.sol)"
        }
      }
    },
    "title": ""
  },
  "userdoc": {
    "methods": {
      "_setCloseFactor(uint256)": {
        "notice": "Sets the closeFactor used when liquidating borrows"
      },
      "_setCollateralFactor(address,uint256)": {
        "notice": "Sets the collateralFactor for a market"
      },
      "_setLiquidationIncentive(uint256)": {
        "notice": "Sets liquidationIncentive"
      },
      "_setMaxAssets(uint256)": {
        "notice": "Sets maxAssets which controls how many markets can be entered"
      },
      "_setPauseGuardian(address)": {
        "notice": "Admin function to change the Pause Guardian"
      },
      "_setPriceOracle(address)": {
        "notice": "Sets a new price oracle for the riskManager"
      },
      "_supportMarket(address)": {
        "notice": "Add the market to the markets mapping and set it as listed"
      },
      "accountAssets(address,uint256)": {
        "notice": "Per-account mapping of \"assets you are in\", capped by maxAssets"
      },
      "admin()": {
        "notice": "Administrator for this contract"
      },
      "borrowAllowed(address,address,uint256)": {
        "notice": "Checks if the account should be allowed to borrow the underlying asset of the given market"
      },
      "checkMembership(address,address)": {
        "notice": "Returns whether the given account is entered in the given asset"
      },
      "closeFactorMantissa()": {
        "notice": "Multiplier used to calculate the maximum repayAmount when liquidating a borrow"
      },
      "enterMarkets(address[])": {
        "notice": "Add assets to be included in account liquidity calculation"
      },
      "exitMarket(address)": {
        "notice": "Removes asset from sender's account liquidity calculation"
      },
      "getAccountLiquidity(address)": {
        "notice": "Determine the current account liquidity wrt collateral requirements"
      },
      "getAssetsIn(address)": {
        "notice": ""
      },
      "getHypotheticalAccountLiquidity(address,address,uint256,uint256)": {
        "notice": "Determine what the account liquidity would be if the given amounts were redeemed/borrowed"
      },
      "liquidateBorrowAllowed(address,address,address,address,uint256)": {
        "notice": "Checks if the liquidation should be allowed to occur"
      },
      "liquidateCalculateSeizeTokens(address,address,uint256)": {
        "notice": "Calculate number of tokens of collateral asset to seize given an underlying amount"
      },
      "liquidationIncentiveMantissa()": {
        "notice": "Multiplier representing the discount on collateral that a liquidator receives"
      },
      "markets(address)": {
        "notice": "Official mapping of PTokens -> Market metadata"
      },
      "maxAssets()": {
        "notice": "Max number of assets a single account can participate in (borrow or use as collateral)"
      },
      "mintAllowed(address,address,uint256)": {
        "notice": "Checks if the account should be allowed to mint tokens in the given market"
      },
      "oracle()": {
        "notice": "Oracle which gives the price of any given asset"
      },
      "pauseGuardian()": {
        "notice": "The Pause Guardian can pause certain actions as a safety mechanism.  Actions which allow users to remove their own assets cannot be paused.  Liquidation / seizing / transfer can only be paused globally, not by market."
      },
      "pendingAdmin()": {
        "notice": "Pending administrator for this contract"
      },
      "redeemAllowed(address,address,uint256)": {
        "notice": "Checks if the account should be allowed to redeem tokens in the given market"
      },
      "repayBorrowAllowed(address,address,address,uint256)": {
        "notice": "Checks if the account should be allowed to repay a borrow in the given market"
      },
      "seizeAllowed(address,address,address,address,uint256)": {
        "notice": "Checks if the seizing of assets should be allowed to occur"
      },
      "transferAllowed(address,address,address,uint256)": {
        "notice": "Checks if the account should be allowed to transfer tokens in the given market"
      }
    }
  }
}