{
  "contractName": "PTokenStorage",
  "abi": [
    {
      "inputs": [],
      "name": "accrualBlockNumber",
      "outputs": [
        {
          "internalType": "uint256",
          "name": "",
          "type": "uint256"
        }
      ],
      "stateMutability": "view",
      "type": "function"
    },
    {
      "inputs": [],
      "name": "admin",
      "outputs": [
        {
          "internalType": "address payable",
          "name": "",
          "type": "address"
        }
      ],
      "stateMutability": "view",
      "type": "function"
    },
    {
      "inputs": [],
      "name": "borrowIndex",
      "outputs": [
        {
          "internalType": "uint256",
          "name": "",
          "type": "uint256"
        }
      ],
      "stateMutability": "view",
      "type": "function"
    },
    {
      "inputs": [],
      "name": "decimals",
      "outputs": [
        {
          "internalType": "uint8",
          "name": "",
          "type": "uint8"
        }
      ],
      "stateMutability": "view",
      "type": "function"
    },
    {
      "inputs": [],
      "name": "interestRateModel",
      "outputs": [
        {
          "internalType": "contract InterestRateModel",
          "name": "",
          "type": "address"
        }
      ],
      "stateMutability": "view",
      "type": "function"
    },
    {
      "inputs": [],
      "name": "name",
      "outputs": [
        {
          "internalType": "string",
          "name": "",
          "type": "string"
        }
      ],
      "stateMutability": "view",
      "type": "function"
    },
    {
      "inputs": [],
      "name": "pendingAdmin",
      "outputs": [
        {
          "internalType": "address payable",
          "name": "",
          "type": "address"
        }
      ],
      "stateMutability": "view",
      "type": "function"
    },
    {
      "inputs": [],
      "name": "reserveFactorMantissa",
      "outputs": [
        {
          "internalType": "uint256",
          "name": "",
          "type": "uint256"
        }
      ],
      "stateMutability": "view",
      "type": "function"
    },
    {
      "inputs": [],
      "name": "riskManager",
      "outputs": [
        {
          "internalType": "contract IRiskManager",
          "name": "",
          "type": "address"
        }
      ],
      "stateMutability": "view",
      "type": "function"
    },
    {
      "inputs": [],
      "name": "symbol",
      "outputs": [
        {
          "internalType": "string",
          "name": "",
          "type": "string"
        }
      ],
      "stateMutability": "view",
      "type": "function"
    },
    {
      "inputs": [],
      "name": "totalBorrows",
      "outputs": [
        {
          "internalType": "uint256",
          "name": "",
          "type": "uint256"
        }
      ],
      "stateMutability": "view",
      "type": "function"
    },
    {
      "inputs": [],
      "name": "totalReserves",
      "outputs": [
        {
          "internalType": "uint256",
          "name": "",
          "type": "uint256"
        }
      ],
      "stateMutability": "view",
      "type": "function"
    },
    {
      "inputs": [],
      "name": "totalSupply",
      "outputs": [
        {
          "internalType": "uint256",
          "name": "",
          "type": "uint256"
        }
      ],
      "stateMutability": "view",
      "type": "function"
    }
  ],
  "bytecode": "0x60806040526702c68af0bb14000060085534801561001c57600080fd5b5061037e8061002c6000396000f3fe608060405234801561001057600080fd5b50600436106100cf5760003560e01c806347bd37181161008c57806395d89b411161006657806395d89b41146101d5578063aa5af0fd146101dd578063f3fdb15a146101e5578063f851a440146101ed576100cf565b806347bd3718146101bd5780636c540baf146101c55780638f840ddd146101cd576100cf565b806306fdde03146100d4578063173b99041461015157806318160ddd1461016b5780632678224714610173578063313ce5671461019757806347842663146101b5575b600080fd5b6100dc6101f5565b6040805160208082528351818301528351919283929083019185019080838360005b838110156101165781810151838201526020016100fe565b50505050905090810190601f1680156101435780820380516001836020036101000a031916815260200191505b509250505060405180910390f35b610159610282565b60408051918252519081900360200190f35b610159610288565b61017b61028e565b604080516001600160a01b039092168252519081900360200190f35b61019f61029d565b6040805160ff9092168252519081900360200190f35b61017b6102a6565b6101596102b5565b6101596102bb565b6101596102c1565b6100dc6102c7565b61015961031f565b61017b610325565b61017b610334565b60018054604080516020600284861615610100026000190190941693909304601f8101849004840282018401909252818152929183018282801561027a5780601f1061024f5761010080835404028352916020019161027a565b820191906000526020600020905b81548152906001019060200180831161025d57829003601f168201915b505050505081565b60085481565b600d5481565b6004546001600160a01b031681565b60035460ff1681565b6005546001600160a01b031681565b600b5481565b60095481565b600c5481565b6002805460408051602060018416156101000260001901909316849004601f8101849004840282018401909252818152929183018282801561027a5780601f1061024f5761010080835404028352916020019161027a565b600a5481565b6006546001600160a01b031681565b60035461010090046001600160a01b03168156fea2646970667358221220f509ccb494a57f3c90a9de8a0f439e2a5b9bd7240ad158cc4e729bf3c839c26f64736f6c63430006090033",
  "immutableReferences": {},
  "source": "// SPDX-License-Identifier: UNLICENSED\npragma solidity ^0.6.9;\n\nimport \"../core/IRiskManager.sol\";\nimport \"../core/InterestRateModel.sol\";\n\ncontract PTokenStorage {\n    /**\n     * @dev Guard variable for re-entrancy checks\n     */\n    bool internal _notEntered;\n\n    /**\n     * @notice EIP-20 token name for this token\n     */\n    string public name;\n\n    /**\n     * @notice EIP-20 token symbol for this token\n     */\n    string public symbol;\n\n    /**\n     * @notice EIP-20 token decimals for this token\n     */\n    uint8 public decimals;\n\n    /**\n     * @dev\n     * @notice Maximum borrow rate that can ever be applied (.0005% / block)\n     */\n    uint internal constant borrowRateMaxMantissa = 0.0005e16;\n\n    /**\n     * @dev\n     * @notice Maximum fraction of interest that can be set aside for reserves\n     */\n    uint internal constant reserveFactorMaxMantissa = 1e18;\n\n    /**\n     * @notice Administrator for this contract\n     */\n    address payable public admin;\n\n    /**\n     * @notice Pending administrator for this contract\n     */\n    address payable public pendingAdmin;\n\n    /**\n     * @notice Contract which oversees inter-pToken operations\n     */\n    IRiskManager public riskManager;\n\n    /**\n     * @notice Model which tells what the current interest rate should be\n     */\n    InterestRateModel public interestRateModel;\n\n    /**\n     * @dev\n     * @notice Initial exchange rate used when minting the first PTokens (used when totalSupply = 0)\n     */\n    uint internal initialExchangeRateMantissa;\n\n    /**\n     * @notice Fraction of interest currently set aside for reserves\n     */\n    uint public reserveFactorMantissa = 0.2e18;\n\n    /**\n     * @notice Block number that interest was last accrued at\n     */\n    uint public accrualBlockNumber;\n\n    /**\n     * @notice Accumulator of the total earned interest rate since the opening of the market\n     */\n    uint public borrowIndex;\n\n    /**\n     * @notice Total amount of outstanding borrows of the underlying in this market\n     */\n    uint public totalBorrows;\n\n    /**\n     * @notice Total amount of reserves of the underlying held in this market\n     */\n    uint public totalReserves;\n\n    /**\n     * @notice Total number of tokens in circulation\n     */\n    uint public totalSupply;\n\n    /**\n     * @dev\n     * @notice Official record of token balances for each account\n     */\n    mapping (address => uint) internal accountTokens;\n\n    /**\n     * @dev\n     * @notice Approved token transfer amounts on behalf of others\n     */\n    mapping (address => mapping (address => uint)) internal transferAllowances;\n\n    /**\n     * @dev\n     * @notice Container for borrow balance information\n     * @member principal Total balance (with accrued interest), after applying the most recent balance-changing action\n     * @member interestIndex Global borrowIndex as of the most recent balance-changing action\n     */\n    struct BorrowSnapshot {\n        uint principal;\n        uint interestIndex;\n    }\n\n    /**\n     * @dev\n     * @notice Mapping of account addresses to outstanding borrow balances\n     */\n    mapping(address => BorrowSnapshot) internal accountBorrows;\n}\n\nabstract contract IPToken is PTokenStorage {\n    /**\n     * @notice Indicator that this is a PToken contract (for inspection)\n     */\n    bool public constant isPToken = true;\n\n\n    /*** Market Events ***/\n\n    /**\n     * @notice Event emitted when interest is accrued\n     */\n    event AccrueInterest(uint cashPrior, uint interestAccumulated, uint borrowIndex, uint totalBorrows);\n\n    /**\n     * @notice Event emitted when tokens are minted\n     */\n    event Mint(address minter, uint mintAmount, uint mintTokens);\n\n    /**\n     * @notice Event emitted when tokens are redeemed\n     */\n    event Redeem(address redeemer, uint redeemAmount, uint redeemTokens);\n\n    /**\n     * @notice Event emitted when underlying is borrowed\n     */\n    event Borrow(address borrower, uint borrowAmount, uint accountBorrows, uint totalBorrows);\n\n    /**\n     * @notice Event emitted when a borrow is repaid\n     */\n    event RepayBorrow(address payer, address borrower, uint repayAmount, uint accountBorrows, uint totalBorrows);\n\n    /**\n     * @notice Event emitted when a borrow is liquidated\n     */\n    event LiquidateBorrow(address liquidator, address borrower, uint repayAmount, address pTokenCollateral, uint seizeTokens);\n\n\n    /*** Admin Events ***/\n\n    /**\n     * @notice Event emitted when pendingAdmin is changed\n     */\n    event NewPendingAdmin(address oldPendingAdmin, address newPendingAdmin);\n\n    /**\n     * @notice Event emitted when pendingAdmin is accepted, which means admin is updated\n     */\n    event NewAdmin(address oldAdmin, address newAdmin);\n\n    /**\n     * @notice Event emitted when RiskManager is changed\n     */\n    event NewRiskManager(IRiskManager oldRiskManager, IRiskManager newRiskManager);\n\n    /**\n     * @notice Event emitted when interestRateModel is changed\n     */\n    event NewMarketInterestRateModel(InterestRateModel oldInterestRateModel, InterestRateModel newInterestRateModel);\n\n    /**\n     * @notice Event emitted when the reserve factor is changed\n     */\n    event NewReserveFactor(uint oldReserveFactorMantissa, uint newReserveFactorMantissa);\n\n    /**\n     * @notice Event emitted when the reserves are added\n     */\n    event ReservesAdded(address benefactor, uint addAmount, uint newTotalReserves);\n\n    /**\n     * @notice Event emitted when the reserves are reduced\n     */\n    event ReservesReduced(address admin, uint reduceAmount, uint newTotalReserves);\n\n    /**\n     * @notice EIP20 Transfer event\n     */\n    event Transfer(address indexed from, address indexed to, uint amount);\n\n    /**\n     * @notice EIP20 Approval event\n     */\n    event Approval(address indexed owner, address indexed spender, uint amount);\n\n    /**\n     * @notice Failure event\n     */\n    event Failure(uint error, uint info, uint detail);\n\n\n    /*** User Interface ***/\n\n    function transfer(address dst, uint amount) external virtual returns (bool);\n    function transferFrom(address src, address dst, uint amount) external virtual returns (bool);\n    function approve(address spender, uint amount) external virtual returns (bool);\n    function allowance(address owner, address spender) external view virtual returns (uint);\n    function balanceOf(address owner) external view virtual returns (uint);\n    function balanceOfUnderlying(address owner) external virtual returns (uint);\n    function getAccountSnapshot(address account) external view virtual returns (uint, uint, uint, uint);\n    function borrowRatePerBlock() external view virtual returns (uint);\n    function supplyRatePerBlock() external view virtual returns (uint);\n    function totalBorrowsCurrent() external virtual returns (uint);\n    function borrowBalanceCurrent(address account) external virtual returns (uint);\n    function borrowBalanceStored(address account) public view virtual returns (uint);\n    function exchangeRateCurrent() public virtual returns (uint);\n    function exchangeRateStored() public view virtual returns (uint);\n    function getCash() external view virtual returns (uint);\n    function accrueInterest() public virtual returns (uint);\n    function seize(address liquidator, address borrower, uint seizeTokens) external virtual returns (uint);\n    function isForETH() public view virtual returns (bool);\n\n    /*** Admin Functions ***/\n\n    function _setPendingAdmin(address payable newPendingAdmin) external virtual returns (uint);\n    function _acceptAdmin() external virtual returns (uint);\n    function _setRiskManager(IRiskManager newRiskManager) public virtual returns (uint);\n    function _setReserveFactor(uint newReserveFactorMantissa) external virtual returns (uint);\n    function _reduceReserves(uint reduceAmount) external virtual returns (uint);\n    function _setInterestRateModel(InterestRateModel newInterestRateModel) public virtual returns (uint);\n}\n\ncontract PErc20Storage {\n    /**\n     * @notice Underlying asset for this PToken\n     */\n    address public underlying;\n}\n\nabstract contract IPErc20 is PErc20Storage {\n\n    /*** User Interface ***/\n\n    function mint(uint mintAmount) external virtual returns (uint);\n    function redeem(uint redeemTokens) external virtual payable returns (uint);\n    function redeemUnderlying(uint redeemAmount) external virtual payable returns (uint);\n    function borrow(uint borrowAmount) external payable virtual returns (uint);\n    function repayBorrow(uint repayAmount) external virtual returns (uint);\n    function repayBorrowBehalf(address borrower, uint repayAmount) external virtual returns (uint);\n    function liquidateBorrow(address borrower, uint repayAmount, IPToken pTokenCollateral) payable external virtual returns (uint);\n\n\n    /*** Admin Functions ***/\n\n    function _addReserves(uint addAmount) external virtual returns (uint);\n}",
  "sourcePath": "/home/plutoadmin/stamen-contracts/contracts/tokenization/IPToken.sol",
  "compiler": {
    "name": "solc",
    "version": "0.6.9+commit.3e3065ac.Emscripten.clang"
  },
  "schemaVersion": "3.3.1",
  "updatedAt": "2020-11-13T08:58:20.850Z",
  "devdoc": {
    "methods": {},
    "stateVariables": {
      "_notEntered": {
        "details": "Guard variable for re-entrancy checks"
      },
      "accountBorrows": {
        "details": "@notice Mapping of account addresses to outstanding borrow balances"
      },
      "accountTokens": {
        "details": "@notice Official record of token balances for each account"
      },
      "borrowRateMaxMantissa": {
        "details": "@notice Maximum borrow rate that can ever be applied (.0005% / block)"
      },
      "initialExchangeRateMantissa": {
        "details": "@notice Initial exchange rate used when minting the first PTokens (used when totalSupply = 0)"
      },
      "reserveFactorMaxMantissa": {
        "details": "@notice Maximum fraction of interest that can be set aside for reserves"
      },
      "transferAllowances": {
        "details": "@notice Approved token transfer amounts on behalf of others"
      }
    }
  },
  "userdoc": {
    "methods": {
      "accrualBlockNumber()": {
        "notice": "Block number that interest was last accrued at"
      },
      "admin()": {
        "notice": "Administrator for this contract"
      },
      "borrowIndex()": {
        "notice": "Accumulator of the total earned interest rate since the opening of the market"
      },
      "decimals()": {
        "notice": "EIP-20 token decimals for this token"
      },
      "interestRateModel()": {
        "notice": "Model which tells what the current interest rate should be"
      },
      "name()": {
        "notice": "EIP-20 token name for this token"
      },
      "pendingAdmin()": {
        "notice": "Pending administrator for this contract"
      },
      "reserveFactorMantissa()": {
        "notice": "Fraction of interest currently set aside for reserves"
      },
      "riskManager()": {
        "notice": "Contract which oversees inter-pToken operations"
      },
      "symbol()": {
        "notice": "EIP-20 token symbol for this token"
      },
      "totalBorrows()": {
        "notice": "Total amount of outstanding borrows of the underlying in this market"
      },
      "totalReserves()": {
        "notice": "Total amount of reserves of the underlying held in this market"
      },
      "totalSupply()": {
        "notice": "Total number of tokens in circulation"
      }
    }
  }
}