{
  "contractName": "RiskManager",
  "abi": [
    {
      "inputs": [],
      "stateMutability": "nonpayable",
      "type": "constructor"
    },
    {
      "anonymous": false,
      "inputs": [
        {
          "indexed": false,
          "internalType": "string",
          "name": "action",
          "type": "string"
        },
        {
          "indexed": false,
          "internalType": "bool",
          "name": "pauseState",
          "type": "bool"
        }
      ],
      "name": "ActionPaused",
      "type": "event"
    },
    {
      "anonymous": false,
      "inputs": [
        {
          "indexed": false,
          "internalType": "contract PToken",
          "name": "pToken",
          "type": "address"
        },
        {
          "indexed": false,
          "internalType": "string",
          "name": "action",
          "type": "string"
        },
        {
          "indexed": false,
          "internalType": "bool",
          "name": "pauseState",
          "type": "bool"
        }
      ],
      "name": "ActionPaused",
      "type": "event"
    },
    {
      "anonymous": false,
      "inputs": [
        {
          "indexed": false,
          "internalType": "uint256",
          "name": "error",
          "type": "uint256"
        },
        {
          "indexed": false,
          "internalType": "uint256",
          "name": "info",
          "type": "uint256"
        },
        {
          "indexed": false,
          "internalType": "uint256",
          "name": "detail",
          "type": "uint256"
        }
      ],
      "name": "Failure",
      "type": "event"
    },
    {
      "anonymous": false,
      "inputs": [
        {
          "indexed": false,
          "internalType": "contract PToken",
          "name": "pToken",
          "type": "address"
        },
        {
          "indexed": false,
          "internalType": "address",
          "name": "account",
          "type": "address"
        }
      ],
      "name": "MarketEntered",
      "type": "event"
    },
    {
      "anonymous": false,
      "inputs": [
        {
          "indexed": false,
          "internalType": "contract PToken",
          "name": "pToken",
          "type": "address"
        },
        {
          "indexed": false,
          "internalType": "address",
          "name": "account",
          "type": "address"
        }
      ],
      "name": "MarketExited",
      "type": "event"
    },
    {
      "anonymous": false,
      "inputs": [
        {
          "indexed": false,
          "internalType": "contract PToken",
          "name": "pToken",
          "type": "address"
        }
      ],
      "name": "MarketListed",
      "type": "event"
    },
    {
      "anonymous": false,
      "inputs": [
        {
          "indexed": false,
          "internalType": "uint256",
          "name": "oldCloseFactorMantissa",
          "type": "uint256"
        },
        {
          "indexed": false,
          "internalType": "uint256",
          "name": "newCloseFactorMantissa",
          "type": "uint256"
        }
      ],
      "name": "NewCloseFactor",
      "type": "event"
    },
    {
      "anonymous": false,
      "inputs": [
        {
          "indexed": false,
          "internalType": "contract PToken",
          "name": "pToken",
          "type": "address"
        },
        {
          "indexed": false,
          "internalType": "uint256",
          "name": "oldCollateralFactorMantissa",
          "type": "uint256"
        },
        {
          "indexed": false,
          "internalType": "uint256",
          "name": "newCollateralFactorMantissa",
          "type": "uint256"
        }
      ],
      "name": "NewCollateralFactor",
      "type": "event"
    },
    {
      "anonymous": false,
      "inputs": [
        {
          "indexed": false,
          "internalType": "uint256",
          "name": "oldLiquidationIncentiveMantissa",
          "type": "uint256"
        },
        {
          "indexed": false,
          "internalType": "uint256",
          "name": "newLiquidationIncentiveMantissa",
          "type": "uint256"
        }
      ],
      "name": "NewLiquidationIncentive",
      "type": "event"
    },
    {
      "anonymous": false,
      "inputs": [
        {
          "indexed": false,
          "internalType": "uint256",
          "name": "oldMaxAssets",
          "type": "uint256"
        },
        {
          "indexed": false,
          "internalType": "uint256",
          "name": "newMaxAssets",
          "type": "uint256"
        }
      ],
      "name": "NewMaxAssets",
      "type": "event"
    },
    {
      "anonymous": false,
      "inputs": [
        {
          "indexed": false,
          "internalType": "address",
          "name": "oldPauseGuardian",
          "type": "address"
        },
        {
          "indexed": false,
          "internalType": "address",
          "name": "newPauseGuardian",
          "type": "address"
        }
      ],
      "name": "NewPauseGuardian",
      "type": "event"
    },
    {
      "anonymous": false,
      "inputs": [
        {
          "indexed": false,
          "internalType": "contract PriceOracle",
          "name": "oldPriceOracle",
          "type": "address"
        },
        {
          "indexed": false,
          "internalType": "contract PriceOracle",
          "name": "newPriceOracle",
          "type": "address"
        }
      ],
      "name": "NewPriceOracle",
      "type": "event"
    },
    {
      "inputs": [],
      "name": "_borrowGuardianPaused",
      "outputs": [
        {
          "internalType": "bool",
          "name": "",
          "type": "bool"
        }
      ],
      "stateMutability": "view",
      "type": "function"
    },
    {
      "inputs": [],
      "name": "_mintGuardianPaused",
      "outputs": [
        {
          "internalType": "bool",
          "name": "",
          "type": "bool"
        }
      ],
      "stateMutability": "view",
      "type": "function"
    },
    {
      "inputs": [
        {
          "internalType": "address",
          "name": "",
          "type": "address"
        },
        {
          "internalType": "uint256",
          "name": "",
          "type": "uint256"
        }
      ],
      "name": "accountAssets",
      "outputs": [
        {
          "internalType": "contract PToken",
          "name": "",
          "type": "address"
        }
      ],
      "stateMutability": "view",
      "type": "function"
    },
    {
      "inputs": [],
      "name": "admin",
      "outputs": [
        {
          "internalType": "address",
          "name": "",
          "type": "address"
        }
      ],
      "stateMutability": "view",
      "type": "function"
    },
    {
      "inputs": [
        {
          "internalType": "uint256",
          "name": "",
          "type": "uint256"
        }
      ],
      "name": "allMarkets",
      "outputs": [
        {
          "internalType": "contract PToken",
          "name": "",
          "type": "address"
        }
      ],
      "stateMutability": "view",
      "type": "function"
    },
    {
      "inputs": [
        {
          "internalType": "address",
          "name": "",
          "type": "address"
        }
      ],
      "name": "borrowGuardianPaused",
      "outputs": [
        {
          "internalType": "bool",
          "name": "",
          "type": "bool"
        }
      ],
      "stateMutability": "view",
      "type": "function"
    },
    {
      "inputs": [],
      "name": "closeFactorMantissa",
      "outputs": [
        {
          "internalType": "uint256",
          "name": "",
          "type": "uint256"
        }
      ],
      "stateMutability": "view",
      "type": "function"
    },
    {
      "inputs": [],
      "name": "isRiskManager",
      "outputs": [
        {
          "internalType": "bool",
          "name": "",
          "type": "bool"
        }
      ],
      "stateMutability": "view",
      "type": "function"
    },
    {
      "inputs": [],
      "name": "liquidationIncentiveMantissa",
      "outputs": [
        {
          "internalType": "uint256",
          "name": "",
          "type": "uint256"
        }
      ],
      "stateMutability": "view",
      "type": "function"
    },
    {
      "inputs": [
        {
          "internalType": "address",
          "name": "",
          "type": "address"
        }
      ],
      "name": "markets",
      "outputs": [
        {
          "internalType": "bool",
          "name": "isListed",
          "type": "bool"
        },
        {
          "internalType": "uint256",
          "name": "collateralFactorMantissa",
          "type": "uint256"
        }
      ],
      "stateMutability": "view",
      "type": "function"
    },
    {
      "inputs": [],
      "name": "maxAssets",
      "outputs": [
        {
          "internalType": "uint256",
          "name": "",
          "type": "uint256"
        }
      ],
      "stateMutability": "view",
      "type": "function"
    },
    {
      "inputs": [
        {
          "internalType": "address",
          "name": "",
          "type": "address"
        }
      ],
      "name": "mintGuardianPaused",
      "outputs": [
        {
          "internalType": "bool",
          "name": "",
          "type": "bool"
        }
      ],
      "stateMutability": "view",
      "type": "function"
    },
    {
      "inputs": [],
      "name": "oracle",
      "outputs": [
        {
          "internalType": "contract PriceOracle",
          "name": "",
          "type": "address"
        }
      ],
      "stateMutability": "view",
      "type": "function"
    },
    {
      "inputs": [],
      "name": "pauseGuardian",
      "outputs": [
        {
          "internalType": "address",
          "name": "",
          "type": "address"
        }
      ],
      "stateMutability": "view",
      "type": "function"
    },
    {
      "inputs": [],
      "name": "pendingAdmin",
      "outputs": [
        {
          "internalType": "address",
          "name": "",
          "type": "address"
        }
      ],
      "stateMutability": "view",
      "type": "function"
    },
    {
      "inputs": [],
      "name": "seizeGuardianPaused",
      "outputs": [
        {
          "internalType": "bool",
          "name": "",
          "type": "bool"
        }
      ],
      "stateMutability": "view",
      "type": "function"
    },
    {
      "inputs": [],
      "name": "transferGuardianPaused",
      "outputs": [
        {
          "internalType": "bool",
          "name": "",
          "type": "bool"
        }
      ],
      "stateMutability": "view",
      "type": "function"
    },
    {
      "inputs": [
        {
          "internalType": "address",
          "name": "account",
          "type": "address"
        }
      ],
      "name": "getAssetsIn",
      "outputs": [
        {
          "internalType": "contract PToken[]",
          "name": "",
          "type": "address[]"
        }
      ],
      "stateMutability": "view",
      "type": "function"
    },
    {
      "inputs": [
        {
          "internalType": "address",
          "name": "account",
          "type": "address"
        },
        {
          "internalType": "contract PToken",
          "name": "pToken",
          "type": "address"
        }
      ],
      "name": "checkMembership",
      "outputs": [
        {
          "internalType": "bool",
          "name": "",
          "type": "bool"
        }
      ],
      "stateMutability": "view",
      "type": "function"
    },
    {
      "inputs": [
        {
          "internalType": "address[]",
          "name": "pTokens",
          "type": "address[]"
        }
      ],
      "name": "enterMarkets",
      "outputs": [
        {
          "internalType": "uint256[]",
          "name": "",
          "type": "uint256[]"
        }
      ],
      "stateMutability": "nonpayable",
      "type": "function"
    },
    {
      "inputs": [
        {
          "internalType": "address",
          "name": "pTokenAddress",
          "type": "address"
        }
      ],
      "name": "exitMarket",
      "outputs": [
        {
          "internalType": "uint256",
          "name": "",
          "type": "uint256"
        }
      ],
      "stateMutability": "nonpayable",
      "type": "function"
    },
    {
      "inputs": [
        {
          "internalType": "address",
          "name": "pToken",
          "type": "address"
        },
        {
          "internalType": "address",
          "name": "minter",
          "type": "address"
        },
        {
          "internalType": "uint256",
          "name": "mintAmount",
          "type": "uint256"
        }
      ],
      "name": "mintAllowed",
      "outputs": [
        {
          "internalType": "uint256",
          "name": "",
          "type": "uint256"
        }
      ],
      "stateMutability": "nonpayable",
      "type": "function"
    },
    {
      "inputs": [
        {
          "internalType": "address",
          "name": "pToken",
          "type": "address"
        },
        {
          "internalType": "address",
          "name": "redeemer",
          "type": "address"
        },
        {
          "internalType": "uint256",
          "name": "redeemTokens",
          "type": "uint256"
        }
      ],
      "name": "redeemAllowed",
      "outputs": [
        {
          "internalType": "uint256",
          "name": "",
          "type": "uint256"
        }
      ],
      "stateMutability": "nonpayable",
      "type": "function"
    },
    {
      "inputs": [
        {
          "internalType": "address",
          "name": "pToken",
          "type": "address"
        },
        {
          "internalType": "address",
          "name": "borrower",
          "type": "address"
        },
        {
          "internalType": "uint256",
          "name": "borrowAmount",
          "type": "uint256"
        }
      ],
      "name": "borrowAllowed",
      "outputs": [
        {
          "internalType": "uint256",
          "name": "",
          "type": "uint256"
        }
      ],
      "stateMutability": "nonpayable",
      "type": "function"
    },
    {
      "inputs": [
        {
          "internalType": "address",
          "name": "pToken",
          "type": "address"
        },
        {
          "internalType": "address",
          "name": "payer",
          "type": "address"
        },
        {
          "internalType": "address",
          "name": "borrower",
          "type": "address"
        },
        {
          "internalType": "uint256",
          "name": "repayAmount",
          "type": "uint256"
        }
      ],
      "name": "repayBorrowAllowed",
      "outputs": [
        {
          "internalType": "uint256",
          "name": "",
          "type": "uint256"
        }
      ],
      "stateMutability": "nonpayable",
      "type": "function"
    },
    {
      "inputs": [
        {
          "internalType": "address",
          "name": "pTokenBorrowed",
          "type": "address"
        },
        {
          "internalType": "address",
          "name": "pTokenCollateral",
          "type": "address"
        },
        {
          "internalType": "address",
          "name": "liquidator",
          "type": "address"
        },
        {
          "internalType": "address",
          "name": "borrower",
          "type": "address"
        },
        {
          "internalType": "uint256",
          "name": "repayAmount",
          "type": "uint256"
        }
      ],
      "name": "liquidateBorrowAllowed",
      "outputs": [
        {
          "internalType": "uint256",
          "name": "",
          "type": "uint256"
        }
      ],
      "stateMutability": "nonpayable",
      "type": "function"
    },
    {
      "inputs": [
        {
          "internalType": "address",
          "name": "pTokenCollateral",
          "type": "address"
        },
        {
          "internalType": "address",
          "name": "pTokenBorrowed",
          "type": "address"
        },
        {
          "internalType": "address",
          "name": "liquidator",
          "type": "address"
        },
        {
          "internalType": "address",
          "name": "borrower",
          "type": "address"
        },
        {
          "internalType": "uint256",
          "name": "seizeTokens",
          "type": "uint256"
        }
      ],
      "name": "seizeAllowed",
      "outputs": [
        {
          "internalType": "uint256",
          "name": "",
          "type": "uint256"
        }
      ],
      "stateMutability": "nonpayable",
      "type": "function"
    },
    {
      "inputs": [
        {
          "internalType": "address",
          "name": "pToken",
          "type": "address"
        },
        {
          "internalType": "address",
          "name": "src",
          "type": "address"
        },
        {
          "internalType": "address",
          "name": "dst",
          "type": "address"
        },
        {
          "internalType": "uint256",
          "name": "transferTokens",
          "type": "uint256"
        }
      ],
      "name": "transferAllowed",
      "outputs": [
        {
          "internalType": "uint256",
          "name": "",
          "type": "uint256"
        }
      ],
      "stateMutability": "nonpayable",
      "type": "function"
    },
    {
      "inputs": [
        {
          "internalType": "address",
          "name": "account",
          "type": "address"
        }
      ],
      "name": "getAccountLiquidity",
      "outputs": [
        {
          "internalType": "uint256",
          "name": "",
          "type": "uint256"
        },
        {
          "internalType": "uint256",
          "name": "",
          "type": "uint256"
        },
        {
          "internalType": "uint256",
          "name": "",
          "type": "uint256"
        }
      ],
      "stateMutability": "view",
      "type": "function"
    },
    {
      "inputs": [
        {
          "internalType": "address",
          "name": "account",
          "type": "address"
        },
        {
          "internalType": "address",
          "name": "pTokenModify",
          "type": "address"
        },
        {
          "internalType": "uint256",
          "name": "redeemTokens",
          "type": "uint256"
        },
        {
          "internalType": "uint256",
          "name": "borrowAmount",
          "type": "uint256"
        }
      ],
      "name": "getHypotheticalAccountLiquidity",
      "outputs": [
        {
          "internalType": "uint256",
          "name": "",
          "type": "uint256"
        },
        {
          "internalType": "uint256",
          "name": "",
          "type": "uint256"
        },
        {
          "internalType": "uint256",
          "name": "",
          "type": "uint256"
        }
      ],
      "stateMutability": "view",
      "type": "function"
    },
    {
      "inputs": [
        {
          "internalType": "address",
          "name": "asset",
          "type": "address"
        }
      ],
      "name": "getPriceCost",
      "outputs": [
        {
          "internalType": "uint256",
          "name": "",
          "type": "uint256"
        }
      ],
      "stateMutability": "view",
      "type": "function"
    },
    {
      "inputs": [
        {
          "internalType": "address",
          "name": "asset",
          "type": "address"
        }
      ],
      "name": "updateAndGetTokenPrice",
      "outputs": [
        {
          "internalType": "uint256",
          "name": "",
          "type": "uint256"
        }
      ],
      "stateMutability": "payable",
      "type": "function"
    },
    {
      "inputs": [
        {
          "internalType": "address",
          "name": "pTokenBorrowed",
          "type": "address"
        },
        {
          "internalType": "address",
          "name": "pTokenCollateral",
          "type": "address"
        },
        {
          "internalType": "uint256",
          "name": "actualRepayAmount",
          "type": "uint256"
        }
      ],
      "name": "liquidateCalculateSeizeTokens",
      "outputs": [
        {
          "internalType": "uint256",
          "name": "",
          "type": "uint256"
        },
        {
          "internalType": "uint256",
          "name": "",
          "type": "uint256"
        }
      ],
      "stateMutability": "view",
      "type": "function"
    },
    {
      "inputs": [
        {
          "internalType": "contract PriceOracle",
          "name": "newOracle",
          "type": "address"
        }
      ],
      "name": "_setPriceOracle",
      "outputs": [
        {
          "internalType": "uint256",
          "name": "",
          "type": "uint256"
        }
      ],
      "stateMutability": "nonpayable",
      "type": "function"
    },
    {
      "inputs": [
        {
          "internalType": "uint256",
          "name": "newCloseFactorMantissa",
          "type": "uint256"
        }
      ],
      "name": "_setCloseFactor",
      "outputs": [
        {
          "internalType": "uint256",
          "name": "",
          "type": "uint256"
        }
      ],
      "stateMutability": "nonpayable",
      "type": "function"
    },
    {
      "inputs": [
        {
          "internalType": "contract PToken",
          "name": "pToken",
          "type": "address"
        },
        {
          "internalType": "uint256",
          "name": "newCollateralFactorMantissa",
          "type": "uint256"
        }
      ],
      "name": "_setCollateralFactor",
      "outputs": [
        {
          "internalType": "uint256",
          "name": "",
          "type": "uint256"
        }
      ],
      "stateMutability": "nonpayable",
      "type": "function"
    },
    {
      "inputs": [
        {
          "internalType": "uint256",
          "name": "newMaxAssets",
          "type": "uint256"
        }
      ],
      "name": "_setMaxAssets",
      "outputs": [
        {
          "internalType": "uint256",
          "name": "",
          "type": "uint256"
        }
      ],
      "stateMutability": "nonpayable",
      "type": "function"
    },
    {
      "inputs": [
        {
          "internalType": "uint256",
          "name": "newLiquidationIncentiveMantissa",
          "type": "uint256"
        }
      ],
      "name": "_setLiquidationIncentive",
      "outputs": [
        {
          "internalType": "uint256",
          "name": "",
          "type": "uint256"
        }
      ],
      "stateMutability": "nonpayable",
      "type": "function"
    },
    {
      "inputs": [
        {
          "internalType": "contract PToken",
          "name": "pToken",
          "type": "address"
        }
      ],
      "name": "_supportMarket",
      "outputs": [
        {
          "internalType": "uint256",
          "name": "",
          "type": "uint256"
        }
      ],
      "stateMutability": "nonpayable",
      "type": "function"
    },
    {
      "inputs": [],
      "name": "getAllMarkets",
      "outputs": [
        {
          "internalType": "contract PToken[]",
          "name": "",
          "type": "address[]"
        }
      ],
      "stateMutability": "view",
      "type": "function"
    },
    {
      "inputs": [
        {
          "internalType": "address",
          "name": "newPauseGuardian",
          "type": "address"
        }
      ],
      "name": "_setPauseGuardian",
      "outputs": [
        {
          "internalType": "uint256",
          "name": "",
          "type": "uint256"
        }
      ],
      "stateMutability": "nonpayable",
      "type": "function"
    },
    {
      "inputs": [
        {
          "internalType": "contract PToken",
          "name": "pToken",
          "type": "address"
        },
        {
          "internalType": "bool",
          "name": "state",
          "type": "bool"
        }
      ],
      "name": "_setMintPaused",
      "outputs": [
        {
          "internalType": "bool",
          "name": "",
          "type": "bool"
        }
      ],
      "stateMutability": "nonpayable",
      "type": "function"
    },
    {
      "inputs": [
        {
          "internalType": "contract PToken",
          "name": "pToken",
          "type": "address"
        },
        {
          "internalType": "bool",
          "name": "state",
          "type": "bool"
        }
      ],
      "name": "_setBorrowPaused",
      "outputs": [
        {
          "internalType": "bool",
          "name": "",
          "type": "bool"
        }
      ],
      "stateMutability": "nonpayable",
      "type": "function"
    },
    {
      "inputs": [
        {
          "internalType": "bool",
          "name": "state",
          "type": "bool"
        }
      ],
      "name": "_setTransferPaused",
      "outputs": [
        {
          "internalType": "bool",
          "name": "",
          "type": "bool"
        }
      ],
      "stateMutability": "nonpayable",
      "type": "function"
    },
    {
      "inputs": [
        {
          "internalType": "bool",
          "name": "state",
          "type": "bool"
        }
      ],
      "name": "_setSeizePaused",
      "outputs": [
        {
          "internalType": "bool",
          "name": "",
          "type": "bool"
        }
      ],
      "stateMutability": "nonpayable",
      "type": "function"
    }
  ],
  "bytecode": "0x6080604052600a60055534801561001557600080fd5b50600080546001600160a01b031916331790556135e1806100376000396000f3fe6080604052600436106102725760003560e01c80638ebf63641161014f578063ca7789e2116100c1578063e6653f3d1161007a578063e6653f3d14610b08578063e875544614610b1d578063ea67db2214610b32578063eabe7d9114610b65578063ede4edd014610ba8578063f851a44014610bdb57610272565b8063ca7789e2146109b0578063d02f7351146109d6578063d9226ced14610a29578063da3d454c14610a53578063dce1544914610a96578063e4028eee14610acf57610272565b8063abfceffc11610113578063abfceffc146107ae578063ac0b0bb714610831578063b0772d0b14610846578063bdcdc2581461085b578063c2998238146108a4578063c488847b1461095457610272565b80638ebf6364146106ea578063929fe9a11461071657806394b2294b14610751578063a76b3fda14610766578063a996e7ba1461079957610272565b80634fd42e17116101e85780635fc7e71e116101ac5780635fc7e71e146105b95780636d154ea51461060c578063731f0c2b1461063f5780637dc0d1d01461067257806387f76303146106875780638e8f294b1461069c57610272565b80634fd42e17146104cc57806352d84d1e146104f657806355ee1fe1146105205780635ec88c79146105535780635f5af1aa1461058657610272565b8063317b0b771161023a578063317b0b77146103935780633bcf7ec1146103bd5780633c94786f146103f85780634ada90af1461040d5780634e79238f146104225780634ef4c3e11461048957610272565b806318c882a51461027757806324008a62146102c657806324a3d6221461032157806326782247146103525780632d70db7814610367575b600080fd5b34801561028357600080fd5b506102b26004803603604081101561029a57600080fd5b506001600160a01b0381351690602001351515610bf0565b604080519115158252519081900360200190f35b3480156102d257600080fd5b5061030f600480360360808110156102e957600080fd5b506001600160a01b03813581169160208101358216916040820135169060600135610d90565b60408051918252519081900360200190f35b34801561032d57600080fd5b50610336610dc6565b604080516001600160a01b039092168252519081900360200190f35b34801561035e57600080fd5b50610336610dd5565b34801561037357600080fd5b506102b26004803603602081101561038a57600080fd5b50351515610de4565b34801561039f57600080fd5b5061030f600480360360208110156103b657600080fd5b5035610f1e565b3480156103c957600080fd5b506102b2600480360360408110156103e057600080fd5b506001600160a01b038135169060200135151561102f565b34801561040457600080fd5b506102b26111ca565b34801561041957600080fd5b5061030f6111da565b34801561042e57600080fd5b5061046b6004803603608081101561044557600080fd5b506001600160a01b038135811691602081013590911690604081013590606001356111e0565b60408051938452602084019290925282820152519081900360600190f35b34801561049557600080fd5b5061030f600480360360608110156104ac57600080fd5b506001600160a01b0381358116916020810135909116906040013561121a565b3480156104d857600080fd5b5061030f600480360360208110156104ef57600080fd5b50356112b0565b34801561050257600080fd5b506103366004803603602081101561051957600080fd5b50356113a4565b34801561052c57600080fd5b5061030f6004803603602081101561054357600080fd5b50356001600160a01b03166113cb565b34801561055f57600080fd5b5061046b6004803603602081101561057657600080fd5b50356001600160a01b0316611452565b34801561059257600080fd5b5061030f600480360360208110156105a957600080fd5b50356001600160a01b0316611487565b3480156105c557600080fd5b5061030f600480360360a08110156105dc57600080fd5b506001600160a01b038135811691602081013582169160408201358116916060810135909116906080013561150b565b34801561061857600080fd5b506102b26004803603602081101561062f57600080fd5b50356001600160a01b0316611692565b34801561064b57600080fd5b506102b26004803603602081101561066257600080fd5b50356001600160a01b03166116a7565b34801561067e57600080fd5b506103366116bc565b34801561069357600080fd5b506102b26116cb565b3480156106a857600080fd5b506106cf600480360360208110156106bf57600080fd5b50356001600160a01b03166116db565b60408051921515835260208301919091528051918290030190f35b3480156106f657600080fd5b506102b26004803603602081101561070d57600080fd5b503515156116fa565b34801561072257600080fd5b506102b26004803603604081101561073957600080fd5b506001600160a01b0381358116916020013516611833565b34801561075d57600080fd5b5061030f611866565b34801561077257600080fd5b5061030f6004803603602081101561078957600080fd5b50356001600160a01b031661186c565b3480156107a557600080fd5b506102b26119a9565b3480156107ba57600080fd5b506107e1600480360360208110156107d157600080fd5b50356001600160a01b03166119ae565b60408051602080825283518183015283519192839290830191858101910280838360005b8381101561081d578181015183820152602001610805565b505050509050019250505060405180910390f35b34801561083d57600080fd5b506102b2611a37565b34801561085257600080fd5b506107e1611a47565b34801561086757600080fd5b5061030f6004803603608081101561087e57600080fd5b506001600160a01b03813581169160208101358216916040820135169060600135611aa9565b3480156108b057600080fd5b506107e1600480360360208110156108c757600080fd5b8101906020810181356401000000008111156108e257600080fd5b8201836020820111156108f457600080fd5b8035906020019184602083028401116401000000008311171561091657600080fd5b919080806020026020016040519081016040528093929190818152602001838360200280828437600092019190915250929550611b0b945050505050565b34801561096057600080fd5b506109976004803603606081101561097757600080fd5b506001600160a01b03813581169160208101359091169060400135611bb5565b6040805192835260208301919091528051918290030190f35b61030f600480360360208110156109c657600080fd5b50356001600160a01b0316611d40565b3480156109e257600080fd5b5061030f600480360360a08110156109f957600080fd5b506001600160a01b0381358116916020810135821691604082013581169160608101359091169060800135611f33565b348015610a3557600080fd5b5061030f60048036036020811015610a4c57600080fd5b50356120ca565b348015610a5f57600080fd5b5061030f60048036036060811015610a7657600080fd5b506001600160a01b03813581169160208101359091169060400135612133565b348015610aa257600080fd5b5061033660048036036040811015610ab957600080fd5b506001600160a01b03813516906020013561238c565b348015610adb57600080fd5b5061030f60048036036040811015610af257600080fd5b506001600160a01b0381351690602001356123c1565b348015610b1457600080fd5b506102b26124fd565b348015610b2957600080fd5b5061030f61250d565b348015610b3e57600080fd5b5061030f60048036036020811015610b5557600080fd5b50356001600160a01b0316612513565b348015610b7157600080fd5b5061030f60048036036060811015610b8857600080fd5b506001600160a01b03813581169160208101359091169060400135612596565b348015610bb457600080fd5b5061030f60048036036020811015610bcb57600080fd5b50356001600160a01b03166125a3565b348015610be757600080fd5b506103366128dc565b6001600160a01b03821660009081526007602052604081205460ff16610c475760405162461bcd60e51b81526004018080602001828103825260288152602001806135386028913960400191505060405180910390fd5b6009546001600160a01b0316331480610c6a57506000546001600160a01b031633145b610ca55760405162461bcd60e51b81526004018080602001828103825260278152602001806135606027913960400191505060405180910390fd5b6000546001600160a01b0316331480610cc057506001821515145b610d0a576040805162461bcd60e51b81526020600482015260166024820152756f6e6c792061646d696e2063616e20756e706175736560501b604482015290519081900360640190fd5b6001600160a01b0383166000818152600b6020908152604091829020805486151560ff199091168117909155825193845283830152606090830181905260069083015265426f72726f7760d01b6080830152517f71aec636243f9709bb0007ae15e9afb8150ab01716d75fd7573be5cc096e03b09181900360a00190a150805b92915050565b6001600160a01b03841660009081526007602052604081205460ff16610db857506008610dbe565b60005b90505b949350505050565b6009546001600160a01b031681565b6001546001600160a01b031681565b6009546000906001600160a01b0316331480610e0a57506000546001600160a01b031633145b610e455760405162461bcd60e51b81526004018080602001828103825260278152602001806135606027913960400191505060405180910390fd5b6000546001600160a01b0316331480610e6057506001821515145b610eaa576040805162461bcd60e51b81526020600482015260166024820152756f6e6c792061646d696e2063616e20756e706175736560501b604482015290519081900360640190fd5b60098054831515600160b81b810260ff60b81b1990921691909117909155604080516020810192909252808252600582820152645365697a6560d81b6060830152517fef159d9a32b2472e32b098f954f3ce62d232939f1c207070b584df1814de2de09181900360800190a150805b919050565b600080546001600160a01b03163314610f4457610f3d600160046128eb565b9050610f19565b610f4c6134ba565b506040805160208101909152828152610f636134ba565b50604080516020810190915266b1a2bc2ec500008152610f838282612951565b15610f9c57610f936005806128eb565b92505050610f19565b610fa46134ba565b506040805160208101909152670c7d713b49da00008152610fc58184612959565b15610fdf57610fd56005806128eb565b9350505050610f19565b6003805490869055604080518281526020810188905281517f3b9670cf975d26958e754b57098eaa2ac914d8d2a31b83257997b9f346110fd9929181900390910190a160005b9695505050505050565b6001600160a01b03821660009081526007602052604081205460ff166110865760405162461bcd60e51b81526004018080602001828103825260288152602001806135386028913960400191505060405180910390fd5b6009546001600160a01b03163314806110a957506000546001600160a01b031633145b6110e45760405162461bcd60e51b81526004018080602001828103825260278152602001806135606027913960400191505060405180910390fd5b6000546001600160a01b03163314806110ff57506001821515145b611149576040805162461bcd60e51b81526020600482015260166024820152756f6e6c792061646d696e2063616e20756e706175736560501b604482015290519081900360640190fd5b6001600160a01b0383166000818152600a6020908152604091829020805486151560ff199091168117909155825193845283830152606090830181905260049083015263135a5b9d60e21b6080830152517f71aec636243f9709bb0007ae15e9afb8150ab01716d75fd7573be5cc096e03b09181900360a00190a150919050565b600954600160a01b900460ff1681565b60045481565b6000806000806000806111f58a8a8a8a612960565b92509250925082601081111561120757fe5b95509093509150505b9450945094915050565b6001600160a01b0383166000908152600a602052604081205460ff1615611279576040805162461bcd60e51b815260206004820152600e60248201526d1b5a5b9d081a5cc81c185d5cd95960921b604482015290519081900360640190fd5b6001600160a01b03841660009081526007602052604090205460ff166112a35760085b90506112a9565b60005b90505b9392505050565b600080546001600160a01b031633146112cf57610f3d6001600b6128eb565b6112d76134ba565b5060408051602081019091528281526112ee6134ba565b506040805160208101909152670de0b6b3a7640000815261130f8282612959565b1561132057610f936007600c6128eb565b6113286134ba565b5060408051602081019091526714d1120d7b16000081526113498184612959565b1561135a57610fd56007600c6128eb565b6004805490869055604080518281526020810188905281517faeba5a6c40a8ac138134bff1aaa65debf25971188a58804bad717f82f0ec1316929181900390910190a16000611025565b600881815481106113b157fe5b6000918252602090912001546001600160a01b0316905081565b600080546001600160a01b031633146113ea57610f3d600160106128eb565b600280546001600160a01b038481166001600160a01b0319831681179093556040805191909216808252602082019390935281517fd52b2b9b7e9ee655fcb95d2e5b9e0c9f69e7ef2b8e9d2d0ea78402d576d22e22929181900390910190a160009392505050565b600080600080600080611469876000806000612960565b92509250925082601081111561147b57fe5b97919650945092505050565b600080546001600160a01b031633146114a657610f3d600160136128eb565b600980546001600160a01b038481166001600160a01b0319831617928390556040805192821680845293909116602083015280517f0613b6ee6a04f0d09f390e4d9318894b9f6ac7fd83897cd8d18896ba579c401e9281900390910190a160006112a9565b6001600160a01b03851660009081526007602052604081205460ff16158061154c57506001600160a01b03851660009081526007602052604090205460ff16155b1561155b5760085b9050611689565b60008061156785612d1b565b9193509091506000905082601081111561157d57fe5b146115975781601081111561158e57fe5b92505050611689565b806115a357600361158e565b6000886001600160a01b03166395dd9193876040518263ffffffff1660e01b815260040180826001600160a01b03166001600160a01b0316815260200191505060206040518083038186803b1580156115fb57600080fd5b505afa15801561160f573d6000803e3d6000fd5b505050506040513d602081101561162557600080fd5b50516040805160208101909152600354815290915060009081906116499084612d3b565b9092509050600082600381111561165c57fe5b1461167057600a5b95505050505050611689565b8087111561167f576010611664565b6000955050505050505b95945050505050565b600b6020526000908152604090205460ff1681565b600a6020526000908152604090205460ff1681565b6002546001600160a01b031681565b600954600160b01b900460ff1681565b6007602052600090815260409020805460019091015460ff9091169082565b6009546000906001600160a01b031633148061172057506000546001600160a01b031633145b61175b5760405162461bcd60e51b81526004018080602001828103825260278152602001806135606027913960400191505060405180910390fd5b6000546001600160a01b031633148061177657506001821515145b6117c0576040805162461bcd60e51b81526020600482015260166024820152756f6e6c792061646d696e2063616e20756e706175736560501b604482015290519081900360640190fd5b60098054831515600160b01b810260ff60b01b1990921691909117909155604080516020810192909252808252600882820152672a3930b739b332b960c11b6060830152517fef159d9a32b2472e32b098f954f3ce62d232939f1c207070b584df1814de2de09181900360800190a15090565b6001600160a01b038082166000908152600760209081526040808320938616835260029093019052205460ff1692915050565b60055481565b600080546001600160a01b0316331461188b57610f3d600160126128eb565b6001600160a01b03821660009081526007602052604090205460ff16156118b857610f3d600960116128eb565b816001600160a01b0316635a890c0e6040518163ffffffff1660e01b815260040160206040518083038186803b1580156118f157600080fd5b505afa158015611905573d6000803e3d6000fd5b505050506040513d602081101561191b57600080fd5b50506040805180820182526001808252600060208084018281526001600160a01b038816835260079091529390209151825460ff1916901515178255915191015561196582612d8f565b604080516001600160a01b038416815290517fcf583bb0c569eb967f806b11601c4cb93c10310485c67add5f8362c2f212321f9181900360200190a1600092915050565b600181565b60608060066000846001600160a01b03166001600160a01b03168152602001908152602001600020805480602002602001604051908101604052809291908181526020018280548015611a2a57602002820191906000526020600020905b81546001600160a01b03168152600190910190602001808311611a0c575b5093979650505050505050565b600954600160b81b900460ff1681565b60606008805480602002602001604051908101604052809291908181526020018280548015611a9f57602002820191906000526020600020905b81546001600160a01b03168152600190910190602001808311611a81575b5050505050905090565b600954600090600160b01b900460ff1615611b00576040805162461bcd60e51b81526020600482015260126024820152711d1c985b9cd9995c881a5cc81c185d5cd95960721b604482015290519081900360640190fd5b610dbb858584612e6d565b8051606090818167ffffffffffffffff81118015611b2857600080fd5b50604051908082528060200260200182016040528015611b52578160200160208202803683370190505b50905060005b82811015611bad576000858281518110611b6e57fe5b60200260200101519050611b828133612f19565b6010811115611b8d57fe5b838381518110611b9957fe5b602090810291909101015250600101611b58565b509392505050565b6000806000611bc38661303a565b90506000611bd08661303a565b9050811580611bdd575080155b15611bf257600c935060009250611d38915050565b6000866001600160a01b031663182df0f56040518163ffffffff1660e01b815260040160206040518083038186803b158015611c2d57600080fd5b505afa158015611c41573d6000803e3d6000fd5b505050506040513d6020811015611c5757600080fd5b505190506000611c656134ba565b611c6d6134ba565b611c756134ba565b6000611c83600454896130ba565b945090506000816003811115611c9557fe5b14611cb157600a5b995060009850611d38975050505050505050565b611cbb87876130ba565b935090506000816003811115611ccd57fe5b14611cd957600a611c9d565b611ce384846130f5565b925090506000816003811115611cf557fe5b14611d0157600a611c9d565b611d0b828c612d3b565b955090506000816003811115611d1d57fe5b14611d2957600a611c9d565b60009950939750505050505050505b935093915050565b6002546040805163fc57d4df60e01b81526001600160a01b038481166004830152825160009485948594939091169263fc57d4df9260248083019392829003018186803b158015611d9057600080fd5b505afa158015611da4573d6000803e3d6000fd5b505050506040513d6040811015611dba57600080fd5b50805160209091015190925090508115801590611dd657504381145b15611de357509050610f19565b60025460408051637533ed9160e11b81526001600160a01b0387811660048301529151600093929092169163ea67db2291602480820192602092909190829003018186803b158015611e3457600080fd5b505afa158015611e48573d6000803e3d6000fd5b505050506040513d6020811015611e5e57600080fd5b5051905034811115611eac576040805162461bcd60e51b815260206004820152601260248201527127379032b737bab3b4103130b630b731b29760711b604482015290519081900360640190fd5b60025460408051630880c0b760e21b81526001600160a01b0388811660048301529151919092169163220302dc91849160248082019260209290919082900301818588803b158015611efd57600080fd5b505af1158015611f11573d6000803e3d6000fd5b50505050506040513d6020811015611f2857600080fd5b505195945050505050565b600954600090600160b81b900460ff1615611f87576040805162461bcd60e51b815260206004820152600f60248201526e1cd95a5e99481a5cc81c185d5cd959608a1b604482015290519081900360640190fd5b6001600160a01b03861660009081526007602052604090205460ff161580611fc857506001600160a01b03851660009081526007602052604090205460ff16155b15611fd4576008611554565b846001600160a01b031663478426636040518163ffffffff1660e01b815260040160206040518083038186803b15801561200d57600080fd5b505afa158015612021573d6000803e3d6000fd5b505050506040513d602081101561203757600080fd5b505160408051634784266360e01b815290516001600160a01b03928316928916916347842663916004808301926020929190829003018186803b15801561207d57600080fd5b505afa158015612091573d6000803e3d6000fd5b505050506040513d60208110156120a757600080fd5b50516001600160a01b0316146120be576002611554565b60009695505050505050565b600080546001600160a01b031633146120e957610f3d6001600d6128eb565b6005805490839055604080518281526020810185905281517f7093cf1eb653f749c3ff531d6df7f92764536a7fa0d13530cd26e070780c32ea929181900390910190a160006112a9565b6001600160a01b0383166000908152600b602052604081205460ff1615612194576040805162461bcd60e51b815260206004820152601060248201526f189bdc9c9bddc81a5cc81c185d5cd95960821b604482015290519081900360640190fd5b6001600160a01b03841660009081526007602052604090205460ff166121bb57600861129c565b6001600160a01b038085166000908152600760209081526040808320938716835260029093019052205460ff166122ab57336001600160a01b03851614612241576040805162461bcd60e51b815260206004820152601560248201527439b2b73232b91036bab9ba10313290382a37b5b2b760591b604482015290519081900360640190fd5b600061224d3385612f19565b9050600081601081111561225d57fe5b146122765780601081111561226e57fe5b9150506112a9565b6001600160a01b038086166000908152600760209081526040808320938816835260029093019052205460ff166122a957fe5b505b6002546040805163fc57d4df60e01b81526001600160a01b0387811660048301528251600094919091169263fc57d4df9260248082019391829003018186803b1580156122f757600080fd5b505afa15801561230b573d6000803e3d6000fd5b505050506040513d604081101561232157600080fd5b505190508061233157600c61226e565b6000806123418688600088612960565b9193509091506000905082601081111561235757fe5b146123725781601081111561236857fe5b93505050506112a9565b801561237f576004612368565b6000979650505050505050565b600660205281600052604060002081815481106123a557fe5b6000918252602090912001546001600160a01b03169150829050565b600080546001600160a01b031633146123e7576123e0600160066128eb565b9050610d8a565b6001600160a01b0383166000908152600760205260409020805460ff1661241c57612414600860076128eb565b915050610d8a565b6124246134ba565b50604080516020810190915283815261243b6134ba565b506040805160208101909152670c7d713b49da0000815261245c8183612959565b156124775761246d600660086128eb565b9350505050610d8a565b841580159061248c575061248a8661303a565b155b1561249d5761246d600c60096128eb565b60018301805490869055604080516001600160a01b03891681526020810183905280820188905290517f70483e6592cd5182d45ac970e05bc62cdcc90e9d8ef2c2dbe686cf383bcd7fc59181900360600190a16000979650505050505050565b600954600160a81b900460ff1681565b60035481565b60025460408051637533ed9160e11b81526001600160a01b0384811660048301529151600093929092169163ea67db2291602480820192602092909190829003018186803b15801561256457600080fd5b505afa158015612578573d6000803e3d6000fd5b505050506040513d602081101561258e57600080fd5b505192915050565b60006112a6848484612e6d565b6000808290506000806000836001600160a01b031663c37f68e2336040518263ffffffff1660e01b815260040180826001600160a01b03166001600160a01b0316815260200191505060806040518083038186803b15801561260457600080fd5b505afa158015612618573d6000803e3d6000fd5b505050506040513d608081101561262e57600080fd5b5080516020820151604090920151909450909250905082156126815760405162461bcd60e51b81526004018080602001828103825260258152602001806135876025913960400191505060405180910390fd5b801561269e57612693600b60026128eb565b945050505050610f19565b60006126ab873385612e6d565b905080156126cc576126c0600d60038361310d565b95505050505050610f19565b6001600160a01b0385166000908152600760209081526040808320338452600281019092529091205460ff1661270b5760009650505050505050610f19565b3360009081526002820160209081526040808320805460ff19169055600682529182902080548351818402810184019094528084526060939283018282801561277d57602002820191906000526020600020905b81546001600160a01b0316815260019091019060200180831161275f575b5050835193945083925060009150505b828110156127d257896001600160a01b03168482815181106127ab57fe5b60200260200101516001600160a01b031614156127ca578091506127d2565b60010161278d565b508181106127dc57fe5b3360009081526006602052604090208054819060001981019081106127fd57fe5b9060005260206000200160009054906101000a90046001600160a01b031681838154811061282757fe5b9060005260206000200160006101000a8154816001600160a01b0302191690836001600160a01b031602179055508080548061285f57fe5b6000828152602090819020820160001990810180546001600160a01b0319169055909101909155604080516001600160a01b038d168152339281019290925280517fe699a64c18b07ac5b7301aa273f36a2287239eb9501d81950672794afba29a0d9281900390910190a160009c9b505050505050505050505050565b6000546001600160a01b031681565b60007f45b96fe442630264581b197e84bbada861235052c5a1aadfff9ea4e40a969aa083601081111561291a57fe5b83601381111561292657fe5b604080519283526020830191909152600082820152519081900360600190a18260108111156112a957fe5b519051111590565b5190511090565b600080600061296d6134cd565b6001600160a01b0388166000908152600660209081526040808320805482518185028101850190935280835284936060939291908301828280156129da57602002820191906000526020600020905b81546001600160a01b031681526001909101906020018083116129bc575b50939450600093505050505b8151811015612cd65760008282815181106129fd57fe5b60200260200101519050806001600160a01b031663c37f68e28e6040518263ffffffff1660e01b815260040180826001600160a01b03166001600160a01b0316815260200191505060806040518083038186803b158015612a5d57600080fd5b505afa158015612a71573d6000803e3d6000fd5b505050506040513d6080811015612a8757600080fd5b508051602082015160408084015160609485015160808c0152938a01939093529188019190915294508415612acd5750600e975060009650869550611210945050505050565b60408051602080820183526001600160a01b03841660009081526007825283902060010154825260c089019190915281519081019091526080870151815260e0870152612b198161303a565b60a08701819052612b3b5750600c975060009650869550611210945050505050565b604080516020810190915260a08701518152610100870181905260c087015160e0880151612b6892613173565b61012088015293506000846003811115612b7e57fe5b14612b9a5750600a975060009650869550611210945050505050565b612bb2866101200151876040015188600001516131cb565b875293506000846003811115612bc457fe5b14612be05750600a975060009650869550611210945050505050565b612bf8866101000151876060015188602001516131cb565b602088015293506000846003811115612c0d57fe5b14612c295750600a975060009650869550611210945050505050565b8b6001600160a01b0316816001600160a01b03161415612ccd57612c578661012001518c88602001516131cb565b602088015293506000846003811115612c6c57fe5b14612c885750600a975060009650869550611210945050505050565b612c9c8661010001518b88602001516131cb565b602088015293506000846003811115612cb157fe5b14612ccd5750600a975060009650869550611210945050505050565b506001016129e6565b50602084015184511115612cfd575050506020810151905160009450039150829050611210565b50508151602090920151600095508594509190910391506112109050565b6000806000612d2e846000806000612960565b9250925092509193909250565b6000806000612d486134ba565b612d528686613218565b90925090506000826003811115612d6557fe5b14612d765750915060009050612d88565b6000612d8182613280565b9350935050505b9250929050565b60005b600854811015612e1a57816001600160a01b031660088281548110612db357fe5b6000918252602090912001546001600160a01b03161415612e12576040805162461bcd60e51b81526020600482015260146024820152731b585c9ad95d08185b1c9958591e48185919195960621b604482015290519081900360640190fd5b600101612d92565b50600880546001810182556000919091527ff3f7a9fe364faab93b216da50a3214154f22a0a2b415b23a84c8169e8b636ee30180546001600160a01b0319166001600160a01b0392909216919091179055565b6001600160a01b03831660009081526007602052604081205460ff16612e9457600861129c565b6001600160a01b038085166000908152600760209081526040808320938716835260029093019052205460ff16612ecc57600061129c565b600080612edc8587866000612960565b91935090915060009050826010811115612ef257fe5b14612f0c57816010811115612f0357fe5b925050506112a9565b80156120be576004612f03565b6001600160a01b0382166000908152600760205260408120805460ff16612f44576008915050610d8a565b6001600160a01b038316600090815260028201602052604090205460ff16151560011415612f76576000915050610d8a565b6005546001600160a01b03841660009081526006602052604090205410612fa157600f915050610d8a565b6001600160a01b0380841660008181526002840160209081526040808320805460ff19166001908117909155600683528184208054918201815584529282902090920180549489166001600160a01b031990951685179055815193845283019190915280517f3ab23ab0d51cccc0c3085aec51f99228625aa1a922b3a8ca89a26b0f2027a1a59281900390910190a15060009392505050565b6002546040805163fc57d4df60e01b81526001600160a01b0384811660048301528251600094859492169263fc57d4df926024808301939192829003018186803b15801561308757600080fd5b505afa15801561309b573d6000803e3d6000fd5b505050506040513d60408110156130b157600080fd5b50519392505050565b60006130c46134ba565b6130ea60405180602001604052808681525060405180602001604052808681525061328f565b915091509250929050565b60006130ff6134ba565b835183516130ea9190613379565b60007f45b96fe442630264581b197e84bbada861235052c5a1aadfff9ea4e40a969aa084601081111561313c57fe5b84601381111561314857fe5b604080519283526020830191909152818101859052519081900360600190a18360108111156112a657fe5b600061317d6134ba565b60006131876134ba565b613191878761328f565b909250905060008260038111156131a457fe5b146131b3579092509050611d38565b6131bd818661328f565b935093505050935093915050565b60008060006131d86134ba565b6131e28787613218565b909250905060008260038111156131f557fe5b146132065750915060009050611d38565b6131bd61321282613280565b8661342a565b60006132226134ba565b600080613233866000015186613450565b9092509050600082600381111561324657fe5b1461326557506040805160208101909152600081529092509050612d88565b60408051602081019091529081526000969095509350505050565b51670de0b6b3a7640000900490565b60006132996134ba565b6000806132ae86600001518660000151613450565b909250905060008260038111156132c157fe5b146132e057506040805160208101909152600081529092509050612d88565b6000806132f56706f05b59d3b200008461342a565b9092509050600082600381111561330857fe5b1461332b5781604051806020016040528060008152509550955050505050612d88565b60008061334083670de0b6b3a764000061348f565b9092509050600082600381111561335357fe5b1461335a57fe5b604080516020810190915290815260009a909950975050505050505050565b60006133836134ba565b60008061339886670de0b6b3a7640000613450565b909250905060008260038111156133ab57fe5b146133ca57506040805160208101909152600081529092509050612d88565b6000806133d7838861348f565b909250905060008260038111156133ea57fe5b1461340d5781604051806020016040528060008152509550955050505050612d88565b604080516020810190915290815260009890975095505050505050565b60008083830184811061344257600092509050612d88565b506002915060009050612d88565b6000808361346357506000905080612d88565b8383028385828161347057fe5b041461348457506002915060009050612d88565b600092509050612d88565b600080826134a35750600190506000612d88565b60008385816134ae57fe5b04915091509250929050565b6040518060200160405280600081525090565b60405180610140016040528060008152602001600081526020016000815260200160008152602001600081526020016000815260200161350b6134ba565b81526020016135186134ba565b81526020016135256134ba565b81526020016135326134ba565b90529056fe63616e6e6f742070617573652061206d61726b65742074686174206973206e6f74206c69737465646f6e6c7920706175736520677561726469616e20616e642061646d696e2063616e207061757365657869744d61726b65743a206765744163636f756e74536e617073686f74206661696c6564a2646970667358221220a496b095d68ea0f097c77e52054cf2e5cab15ec17814cd4052b338e6a48b151a64736f6c63430006090033",
  "immutableReferences": {},
  "source": "// SPDX-License-Identifier: UNLICENSED\npragma solidity ^0.6.9;\n\nimport \"../tokenization/PToken.sol\";\nimport \"../utils/ErrorReporter.sol\";\nimport \"../utils/Exponential.sol\";\nimport \"../oracle/PriceOracle.sol\";\nimport \"./IRiskManager.sol\";\nimport \"./RiskManagerStorage.sol\";\n\n/**\n * @title \n */\ncontract RiskManager is RiskManagerStorage, IRiskManager, RiskManagerErrorReporter, Exponential {\n    /**\n     * @notice  pToken \n     */\n    event MarketListed(PToken pToken);\n\n    /**\n     * @notice \n     */\n    event MarketEntered(PToken pToken, address account);\n\n    /**\n     * @notice \n     */\n    event MarketExited(PToken pToken, address account);\n\n    /**\n     * @notice  admin \n     */\n    event NewCloseFactor(uint oldCloseFactorMantissa, uint newCloseFactorMantissa);\n\n    /**\n     * @notice  pToken  admin \n     */\n    event NewCollateralFactor(PToken pToken, uint oldCollateralFactorMantissa, uint newCollateralFactorMantissa);\n\n    /**\n     * @notice  admin \n     */\n    event NewLiquidationIncentive(uint oldLiquidationIncentiveMantissa, uint newLiquidationIncentiveMantissa);\n\n    /**\n     * @notice  admin \n     */\n    event NewMaxAssets(uint oldMaxAssets, uint newMaxAssets);\n\n    /**\n     * @notice \n     */\n    event NewPriceOracle(PriceOracle oldPriceOracle, PriceOracle newPriceOracle);\n\n    /**\n     * @notice \n     */\n    event NewPauseGuardian(address oldPauseGuardian, address newPauseGuardian);\n\n    /**\n     * @notice \n     */\n    event ActionPaused(string action, bool pauseState);\n\n    /**\n     * @notice \n     */\n    event ActionPaused(PToken pToken, string action, bool pauseState);\n\n    // \n    uint internal constant closeFactorMinMantissa = 0.05e18; // 0.05\n\n    // \n    uint internal constant closeFactorMaxMantissa = 0.9e18; // 0.9\n\n    // \n    uint internal constant collateralFactorMaxMantissa = 0.9e18; // 0.9\n\n    // \n    uint internal constant liquidationIncentiveMinMantissa = 1.0e18; // 1.0\n\n    // \n    uint internal constant liquidationIncentiveMaxMantissa = 1.5e18; // 1.5\n\n    constructor() public {\n        admin = msg.sender;\n    }\n\n    /***  ***/\n\n    /**\n     * @notice \n     * @param account \n     * @return \n     */\n    function getAssetsIn(address account) external view returns (PToken[] memory) {\n        PToken[] memory assetsIn = accountAssets[account];\n\n        return assetsIn;\n    }\n\n    /**\n     * @notice \n     * @param account \n     * @param pToken pToken \n     * @return  true false\n     */\n    function checkMembership(address account, PToken pToken) external view returns (bool) {\n        return markets[address(pToken)].accountMembership[account];\n    }\n\n    /**\n     * @notice \n     * @param pTokens  pToken \n     * @return \n     */\n    function enterMarkets(address[] memory pTokens) public override returns (uint[] memory) {\n        uint len = pTokens.length;\n\n        uint[] memory results = new uint[](len);\n        for (uint i = 0; i < len; i++) {\n            PToken pToken = PToken(pTokens[i]);\n\n            results[i] = uint(addToMarketInternal(pToken, msg.sender));\n        }\n\n        return results;\n    }\n\n    /**\n     * @notice \n     * @param pToken \n     * @param borrower \n     * @return 0 \n     */\n    function addToMarketInternal(PToken pToken, address borrower) internal returns (Error) {\n        Market storage marketToJoin = markets[address(pToken)];\n\n        if (!marketToJoin.isListed) {\n            // \n            return Error.MARKET_NOT_LISTED;\n        }\n\n        if (marketToJoin.accountMembership[borrower] == true) {\n            // \n            return Error.NO_ERROR;\n        }\n\n        if (accountAssets[borrower].length >= maxAssets)  {\n            // \n            return Error.TOO_MANY_ASSETS;\n        }\n\n        marketToJoin.accountMembership[borrower] = true;\n        accountAssets[borrower].push(pToken);\n\n        emit MarketEntered(pToken, borrower);\n\n        return Error.NO_ERROR;\n    }\n\n    /**\n     * @notice  pToken \n     * @param pTokenAddress  pToken \n     * @return \n     */\n    function exitMarket(address pTokenAddress) external override returns (uint) {\n        PToken pToken = PToken(pTokenAddress);\n        /* Get sender tokensHeld and amountOwed underlying from the pToken */\n        (uint oErr, uint tokensHeld, uint amountOwed, ) = pToken.getAccountSnapshot(msg.sender);\n        require(oErr == 0, \"exitMarket: getAccountSnapshot failed\"); // semi-opaque error code\n\n        /*  */\n        if (amountOwed != 0) {\n            return fail(Error.NONZERO_BORROW_BALANCE, FailureInfo.EXIT_MARKET_BALANCE_OWED);\n        }\n\n        /*  */\n        uint allowed = redeemAllowedInternal(pTokenAddress, msg.sender, tokensHeld);\n        if (allowed != 0) {\n            return failOpaque(Error.REJECTION, FailureInfo.EXIT_MARKET_REJECTION, allowed);\n        }\n\n        Market storage marketToExit = markets[address(pToken)];\n\n        if (!marketToExit.accountMembership[msg.sender]) {\n            return uint(Error.NO_ERROR);\n        }\n\n        /* Set pToken account membership to false */\n        delete marketToExit.accountMembership[msg.sender];\n\n        /* Delete pToken from the accounts list of assets */\n        // load into memory for faster iteration\n        PToken[] memory userAssetList = accountAssets[msg.sender];\n        uint len = userAssetList.length;\n        uint assetIndex = len;\n        for (uint i = 0; i < len; i++) {\n            if (userAssetList[i] == pToken) {\n                assetIndex = i;\n                break;\n            }\n        }\n\n        // We *must* have found the asset in the list or our redundant data structure is broken\n        assert(assetIndex < len);\n\n        // copy last item in list to location of item to be removed, reduce length by 1\n        PToken[] storage storedList = accountAssets[msg.sender];\n        storedList[assetIndex] = storedList[storedList.length - 1];\n        storedList.pop();\n\n        emit MarketExited(pToken, msg.sender);\n\n        return uint(Error.NO_ERROR);\n    }\n\n    /*** Policy Hooks ***/\n\n    /**\n     * @notice Checks if the account should be allowed to mint tokens in the given market\n     * @param pToken The market to verify the mint against\n     * @param minter The account which would get the minted tokens\n     * @param mintAmount The amount of underlying being supplied to the market in exchange for tokens\n     * @return 0 if the mint is allowed, otherwise a semi-opaque error code (See ErrorReporter.sol)\n     */\n    function mintAllowed(address pToken, address minter, uint mintAmount) external override returns (uint) {\n        // Pausing is a very serious situation - we revert to sound the alarms\n        require(!mintGuardianPaused[pToken], \"mint is paused\");\n\n        // Shh - currently unused\n        minter;\n        mintAmount;\n\n        if (!markets[pToken].isListed) {\n            return uint(Error.MARKET_NOT_LISTED);\n        }\n\n        // *may include Policy Hook-type checks\n\n        return uint(Error.NO_ERROR);\n    }\n\n    /**\n     * @notice \n     * @param pToken pToken \n     * @param redeemer \n     * @param redeemTokens  pToken \n     * @return 0 if the redeem is allowed, otherwise a semi-opaque error code (See ErrorReporter.sol)\n     */\n    function redeemAllowed(address pToken, address redeemer, uint redeemTokens) external override returns (uint) {\n        return redeemAllowedInternal(pToken, redeemer, redeemTokens);\n    }\n\n    function redeemAllowedInternal(address pToken, address redeemer, uint redeemTokens) internal view returns (uint) {\n        if (!markets[pToken].isListed) {\n            return uint(Error.MARKET_NOT_LISTED);\n        }\n\n        // *may include Policy Hook-type checks\n\n        /* If the redeemer is not 'in' the market, then we can bypass the liquidity check */\n        if (!markets[pToken].accountMembership[redeemer]) {\n            return uint(Error.NO_ERROR);\n        }\n\n        /* Otherwise, perform a hypothetical liquidity check to guard against shortfall */\n        (Error err, , uint shortfall) = getHypotheticalAccountLiquidityInternal(redeemer, PToken(pToken), redeemTokens, 0);\n        if (err != Error.NO_ERROR) {\n            return uint(err);\n        }\n        if (shortfall > 0) {\n            return uint(Error.INSUFFICIENT_LIQUIDITY);\n        }\n\n        return uint(Error.NO_ERROR);\n    }\n\n    /**\n     * @notice Checks if the account should be allowed to borrow the underlying asset of the given market\n     * @param pToken The market to verify the borrow against\n     * @param borrower The account which would borrow the asset\n     * @param borrowAmount The amount of underlying the account would borrow\n     * @return 0 if the borrow is allowed, otherwise a semi-opaque error code (See ErrorReporter.sol)\n     */\n    function borrowAllowed(address pToken, address borrower, uint borrowAmount) external override returns (uint) {\n        // Pausing is a very serious situation - we revert to sound the alarms\n        require(!borrowGuardianPaused[pToken], \"borrow is paused\");\n\n        if (!markets[pToken].isListed) {\n            return uint(Error.MARKET_NOT_LISTED);\n        }\n\n        if (!markets[pToken].accountMembership[borrower]) {\n            // only pTokens may call borrowAllowed if borrower not in market\n            require(msg.sender == pToken, \"sender must be pToken\");\n\n            // attempt to add borrower to the market\n            Error err = addToMarketInternal(PToken(msg.sender), borrower);\n            if (err != Error.NO_ERROR) {\n                return uint(err);\n            }\n\n            // it should be impossible to break the important invariant\n            assert(markets[pToken].accountMembership[borrower]);\n        }\n\n        (uint256 tokenPrice, ) = oracle.getUnderlyingPrice(PToken(pToken));\n        if (tokenPrice == 0) {\n            return uint(Error.PRICE_ERROR);\n        }\n\n        (Error err, , uint shortfall) = getHypotheticalAccountLiquidityInternal(borrower, PToken(pToken), 0, borrowAmount);\n        if (err != Error.NO_ERROR) {\n            return uint(err);\n        }\n        if (shortfall > 0) {\n            return uint(Error.INSUFFICIENT_LIQUIDITY);\n        }\n\n        return uint(Error.NO_ERROR);\n    }\n\n    /**\n     * @notice Checks if the account should be allowed to repay a borrow in the given market\n     * @param pToken The market to verify the repay against\n     * @param payer The account which would repay the asset\n     * @param borrower The account which would borrowed the asset\n     * @param repayAmount The amount of the underlying asset the account would repay\n     * @return 0 if the repay is allowed, otherwise a semi-opaque error code (See ErrorReporter.sol)\n     */\n    function repayBorrowAllowed(\n        address pToken,\n        address payer,\n        address borrower,\n        uint repayAmount) external override returns (uint) {\n        // Shh - currently unused\n        payer;\n        borrower;\n        repayAmount;\n\n        if (!markets[pToken].isListed) {\n            return uint(Error.MARKET_NOT_LISTED);\n        }\n\n        return uint(Error.NO_ERROR);\n    }\n\n    /**\n     * @notice Checks if the liquidation should be allowed to occur\n     * @param pTokenBorrowed Asset which was borrowed by the borrower\n     * @param pTokenCollateral Asset which was used as collateral and will be seized\n     * @param liquidator The address repaying the borrow and seizing the collateral\n     * @param borrower The address of the borrower\n     * @param repayAmount The amount of underlying being repaid\n     */\n    function liquidateBorrowAllowed(\n        address pTokenBorrowed,\n        address pTokenCollateral,\n        address liquidator,\n        address borrower,\n        uint repayAmount) external override returns (uint) {\n        // Shh - currently unused\n        liquidator;\n\n        if (!markets[pTokenBorrowed].isListed || !markets[pTokenCollateral].isListed) {\n            return uint(Error.MARKET_NOT_LISTED);\n        }\n\n        /* The borrower must have shortfall in order to be liquidatable */\n        (Error err, , uint shortfall) = getAccountLiquidityInternal(borrower);\n        if (err != Error.NO_ERROR) {\n            return uint(err);\n        }\n        if (shortfall == 0) {\n            return uint(Error.INSUFFICIENT_SHORTFALL);\n        }\n\n        /* The liquidator may not repay more than what is allowed by the closeFactor */\n        uint borrowBalance = PToken(pTokenBorrowed).borrowBalanceStored(borrower);\n        (MathError mathErr, uint maxClose) = mulScalarTruncate(Exp({mantissa: closeFactorMantissa}), borrowBalance);\n        if (mathErr != MathError.NO_ERROR) {\n            return uint(Error.MATH_ERROR);\n        }\n        if (repayAmount > maxClose) {\n            return uint(Error.TOO_MUCH_REPAY);\n        }\n\n        return uint(Error.NO_ERROR);\n    }\n\n    /**\n     * @notice Checks if the seizing of assets should be allowed to occur\n     * @param pTokenCollateral Asset which was used as collateral and will be seized\n     * @param pTokenBorrowed Asset which was borrowed by the borrower\n     * @param liquidator The address repaying the borrow and seizing the collateral\n     * @param borrower The address of the borrower\n     * @param seizeTokens The number of collateral tokens to seize\n     */\n    function seizeAllowed(\n        address pTokenCollateral,\n        address pTokenBorrowed,\n        address liquidator,\n        address borrower,\n        uint seizeTokens) external override returns (uint) {\n        // Pausing is a very serious situation - we revert to sound the alarms\n        require(!seizeGuardianPaused, \"seize is paused\");\n\n        // Shh - currently unused\n        liquidator;\n        borrower;\n        seizeTokens;\n\n        if (!markets[pTokenCollateral].isListed || !markets[pTokenBorrowed].isListed) {\n            return uint(Error.MARKET_NOT_LISTED);\n        }\n\n        if (PToken(pTokenCollateral).riskManager() != PToken(pTokenBorrowed).riskManager()) {\n            return uint(Error.RISKMANAGER_MISMATCH);\n        }\n\n        return uint(Error.NO_ERROR);\n    }\n\n    /**\n     * @notice Checks if the account should be allowed to transfer tokens in the given market\n     * @param pToken The market to verify the transfer against\n     * @param src The account which sources the tokens\n     * @param dst The account which receives the tokens\n     * @param transferTokens The number of pTokens to transfer\n     * @return 0 if the transfer is allowed, otherwise a semi-opaque error code (See ErrorReporter.sol)\n     */\n    function transferAllowed(address pToken, address src, address dst, uint transferTokens) external override returns (uint) {\n        // Pausing is a very serious situation - we revert to sound the alarms\n        require(!transferGuardianPaused, \"transfer is paused\");\n\n        // Shh - currently unused\n        dst;\n\n        // *may include Policy Hook-type checks\n\n        // Currently the only consideration is whether or not\n        //  the src is allowed to redeem this many tokens\n        return redeemAllowedInternal(pToken, src, transferTokens);\n    }\n\n    /*** Liquidity/Liquidation Calculations ***/\n\n    /**\n     * @dev Local vars for avoiding stack-depth limits in calculating account liquidity.\n     *  Note that `pTokenBalance` is the number of pTokens the account owns in the market,\n     *  whereas `borrowBalance` is the amount of underlying that the account has borrowed.\n     */\n    struct AccountLiquidityLocalVars {\n        uint sumCollateral;\n        uint sumBorrowPlusEffects;\n        uint pTokenBalance;\n        uint borrowBalance;\n        uint exchangeRateMantissa;\n        uint oraclePriceMantissa;\n        Exp collateralFactor;\n        Exp exchangeRate;\n        Exp oraclePrice;\n        Exp tokensToEther;\n    }\n\n    /**\n     * @notice Determine the current account liquidity wrt collateral requirements\n     * @return (possible error code (semi-opaque),\n                account liquidity in excess of collateral requirements,\n     *          account shortfall below collateral requirements)\n     */\n    function getAccountLiquidity(address account) public view returns (uint, uint, uint) {\n        (Error err, uint liquidity, uint shortfall) = getHypotheticalAccountLiquidityInternal(account, PToken(0), 0, 0);\n\n        return (uint(err), liquidity, shortfall);\n    }\n\n    /**\n     * @notice Determine the current account liquidity wrt collateral requirements\n     * @return (possible error code,\n                account liquidity in excess of collateral requirements,\n     *          account shortfall below collateral requirements)\n     */\n    function getAccountLiquidityInternal(address account) internal view returns (Error, uint, uint) {\n        return getHypotheticalAccountLiquidityInternal(account, PToken(0), 0, 0);\n    }\n\n    /**\n     * @notice Determine what the account liquidity would be if the given amounts were redeemed/borrowed\n     * @param pTokenModify The market to hypothetically redeem/borrow in\n     * @param account The account to determine liquidity for\n     * @param redeemTokens The number of tokens to hypothetically redeem\n     * @param borrowAmount The amount of underlying to hypothetically borrow\n     * @return (possible error code (semi-opaque),\n                hypothetical account liquidity in excess of collateral requirements,\n     *          hypothetical account shortfall below collateral requirements)\n     */\n    function getHypotheticalAccountLiquidity(\n        address account,\n        address pTokenModify,\n        uint redeemTokens,\n        uint borrowAmount) public view returns (uint, uint, uint) {\n        (Error err, uint liquidity, uint shortfall) = getHypotheticalAccountLiquidityInternal(account, PToken(pTokenModify), redeemTokens, borrowAmount);\n        return (uint(err), liquidity, shortfall);\n    }\n\n    function getPriceCost(address asset) external view override returns (uint256) {\n        return oracle.getPriceCost(PToken(asset));\n    }\n\n    function getTokenPrice(address asset) private view returns (uint256) {\n        (uint256 oraclePriceMantissa,) = oracle.getUnderlyingPrice(PToken(asset));\n        return oraclePriceMantissa;\n    }\n\n    function updateAndGetTokenPrice(address asset) external override payable returns (uint256) {\n        (uint256 oraclePriceMantissa, uint256 blockNum) = oracle.getUnderlyingPrice(PToken(asset));\n        if (oraclePriceMantissa != 0 && blockNum == block.number) return oraclePriceMantissa;\n\n        uint256 priceCost = oracle.getPriceCost(PToken(asset));\n        require(msg.value >= priceCost, \"No enough balance.\");\n        oraclePriceMantissa = oracle.updateAndGetUnderlyingPrice{value: priceCost}(PToken(asset));\n        return oraclePriceMantissa;\n    }\n\n    /**\n     * @notice \n     * @param pTokenModify  pToken \n     * @param account The account to determine liquidity for\n     * @param redeemTokens The number of tokens to hypothetically redeem\n     * @param borrowAmount The amount of underlying to hypothetically borrow\n     * @dev Note that we calculate the exchangeRateStored for each collateral pToken using stored data,\n     *  without calculating accumulated interest.\n     * @return (possible error code,\n                hypothetical account liquidity in excess of collateral requirements,\n     *          hypothetical account shortfall below collateral requirements)\n     */\n    function getHypotheticalAccountLiquidityInternal(\n        address account,\n        PToken pTokenModify,\n        uint redeemTokens,\n        uint borrowAmount) internal view returns (Error, uint, uint) {\n\n        AccountLiquidityLocalVars memory vars;\n        uint oErr;\n        MathError mErr;\n\n        PToken[] memory assets = accountAssets[account];\n        for (uint i = 0; i < assets.length; i++) {\n            PToken asset = assets[i];\n\n            // Read the balances and exchange rate from the pToken\n            (oErr, vars.pTokenBalance, vars.borrowBalance, vars.exchangeRateMantissa) = asset.getAccountSnapshot(account);\n            if (oErr != 0) {\n                return (Error.SNAPSHOT_ERROR, 0, 0);\n            }\n            vars.collateralFactor = Exp({mantissa: markets[address(asset)].collateralFactorMantissa});\n            vars.exchangeRate = Exp({mantissa: vars.exchangeRateMantissa});\n\n            // Get the normalized price of the asset\n            vars.oraclePriceMantissa = getTokenPrice(address(asset));\n            if (vars.oraclePriceMantissa == 0) {\n                return (Error.PRICE_ERROR, 0, 0);\n            }\n            vars.oraclePrice = Exp({mantissa: vars.oraclePriceMantissa});\n\n            // Pre-compute a conversion factor from tokens -> ether (normalized price value)\n            (mErr, vars.tokensToEther) = mulExp3(vars.collateralFactor, vars.exchangeRate, vars.oraclePrice);\n            if (mErr != MathError.NO_ERROR) {\n                return (Error.MATH_ERROR, 0, 0);\n            }\n\n            // sumCollateral += tokensToEther * pTokenBalance\n            (mErr, vars.sumCollateral) = mulScalarTruncateAddUInt(vars.tokensToEther, vars.pTokenBalance, vars.sumCollateral);\n            if (mErr != MathError.NO_ERROR) {\n                return (Error.MATH_ERROR, 0, 0);\n            }\n\n            // sumBorrowPlusEffects += oraclePrice * borrowBalance\n            (mErr, vars.sumBorrowPlusEffects) = mulScalarTruncateAddUInt(vars.oraclePrice, vars.borrowBalance, vars.sumBorrowPlusEffects);\n            if (mErr != MathError.NO_ERROR) {\n                return (Error.MATH_ERROR, 0, 0);\n            }\n\n            // Calculate effects of interacting with pTokenModify\n            if (asset == pTokenModify) {\n                // redeem effect\n                // sumBorrowPlusEffects += tokensToEther * redeemTokens\n                (mErr, vars.sumBorrowPlusEffects) = mulScalarTruncateAddUInt(vars.tokensToEther, redeemTokens, vars.sumBorrowPlusEffects);\n                if (mErr != MathError.NO_ERROR) {\n                    return (Error.MATH_ERROR, 0, 0);\n                }\n\n                // borrow effect\n                // sumBorrowPlusEffects += oraclePrice * borrowAmount\n                (mErr, vars.sumBorrowPlusEffects) = mulScalarTruncateAddUInt(vars.oraclePrice, borrowAmount, vars.sumBorrowPlusEffects);\n                if (mErr != MathError.NO_ERROR) {\n                    return (Error.MATH_ERROR, 0, 0);\n                }\n            }\n        }\n\n        // These are safe, as the underflow condition is checked first\n        if (vars.sumCollateral > vars.sumBorrowPlusEffects) {\n            return (Error.NO_ERROR, vars.sumCollateral - vars.sumBorrowPlusEffects, 0);\n        } else {\n            return (Error.NO_ERROR, 0, vars.sumBorrowPlusEffects - vars.sumCollateral);\n        }\n    }\n\n    /**\n     * @notice Calculate number of tokens of collateral asset to seize given an underlying amount\n     * @dev Used in liquidation (called in pToken.liquidateBorrowFresh)\n     * @param pTokenBorrowed The address of the borrowed pToken\n     * @param pTokenCollateral The address of the collateral pToken\n     * @param actualRepayAmount The amount of pTokenBorrowed underlying to convert into pTokenCollateral tokens\n     * @return (errorCode, number of pTokenCollateral tokens to be seized in a liquidation)\n     */\n    function liquidateCalculateSeizeTokens(address pTokenBorrowed, address pTokenCollateral, uint actualRepayAmount) external view override returns (uint, uint) {\n        /* Read oracle prices for borrowed and collateral markets */\n        uint priceBorrowedMantissa = getTokenPrice(pTokenBorrowed);\n        uint priceCollateralMantissa = getTokenPrice(pTokenCollateral);\n        if (priceBorrowedMantissa == 0 || priceCollateralMantissa == 0) {\n            return (uint(Error.PRICE_ERROR), 0);\n        }\n\n        /*\n         * Get the exchange rate and calculate the number of collateral tokens to seize:\n         *  seizeAmount = actualRepayAmount * liquidationIncentive * priceBorrowed / priceCollateral\n         *  seizeTokens = seizeAmount / exchangeRate\n         *   = actualRepayAmount * (liquidationIncentive * priceBorrowed) / (priceCollateral * exchangeRate)\n         */\n        uint exchangeRateMantissa = PToken(pTokenCollateral).exchangeRateStored(); // Note: reverts on error\n        uint seizeTokens;\n        Exp memory numerator;\n        Exp memory denominator;\n        Exp memory ratio;\n        MathError mathErr;\n\n        (mathErr, numerator) = mulExp(liquidationIncentiveMantissa, priceBorrowedMantissa);\n        if (mathErr != MathError.NO_ERROR) {\n            return (uint(Error.MATH_ERROR), 0);\n        }\n\n        (mathErr, denominator) = mulExp(priceCollateralMantissa, exchangeRateMantissa);\n        if (mathErr != MathError.NO_ERROR) {\n            return (uint(Error.MATH_ERROR), 0);\n        }\n\n        (mathErr, ratio) = divExp(numerator, denominator);\n        if (mathErr != MathError.NO_ERROR) {\n            return (uint(Error.MATH_ERROR), 0);\n        }\n\n        (mathErr, seizeTokens) = mulScalarTruncate(ratio, actualRepayAmount);\n        if (mathErr != MathError.NO_ERROR) {\n            return (uint(Error.MATH_ERROR), 0);\n        }\n\n        return (uint(Error.NO_ERROR), seizeTokens);\n    }\n\n    /*** Admin Functions ***/\n\n    /**\n      * @notice Sets a new price oracle for the riskManager\n      * @dev Admin function to set a new price oracle\n      * @return uint 0=success, otherwise a failure (see ErrorReporter.sol for details)\n      */\n    function _setPriceOracle(PriceOracle newOracle) public returns (uint) {\n        // Check caller is admin\n        if (msg.sender != admin) {\n            return fail(Error.UNAUTHORIZED, FailureInfo.SET_PRICE_ORACLE_OWNER_CHECK);\n        }\n\n        // Track the old oracle for the riskManager\n        PriceOracle oldOracle = oracle;\n\n        // Set riskManager's oracle to newOracle\n        oracle = newOracle;\n\n        // Emit NewPriceOracle(oldOracle, newOracle)\n        emit NewPriceOracle(oldOracle, newOracle);\n\n        return uint(Error.NO_ERROR);\n    }\n\n    /**\n      * @notice Sets the closeFactor used when liquidating borrows\n      * @dev Admin function to set closeFactor\n      * @param newCloseFactorMantissa New close factor, scaled by 1e18\n      * @return uint 0=success, otherwise a failure. (See ErrorReporter for details)\n      */\n    function _setCloseFactor(uint newCloseFactorMantissa) external returns (uint256) {\n        // Check caller is admin\n        if (msg.sender != admin) {\n            return fail(Error.UNAUTHORIZED, FailureInfo.SET_CLOSE_FACTOR_OWNER_CHECK);\n        }\n\n        Exp memory newCloseFactorExp = Exp({mantissa: newCloseFactorMantissa});\n        Exp memory lowLimit = Exp({mantissa: closeFactorMinMantissa});\n        if (lessThanOrEqualExp(newCloseFactorExp, lowLimit)) {\n            return fail(Error.INVALID_CLOSE_FACTOR, FailureInfo.SET_CLOSE_FACTOR_VALIDATION);\n        }\n\n        Exp memory highLimit = Exp({mantissa: closeFactorMaxMantissa});\n        if (lessThanExp(highLimit, newCloseFactorExp)) {\n            return fail(Error.INVALID_CLOSE_FACTOR, FailureInfo.SET_CLOSE_FACTOR_VALIDATION);\n        }\n\n        uint oldCloseFactorMantissa = closeFactorMantissa;\n        closeFactorMantissa = newCloseFactorMantissa;\n        emit NewCloseFactor(oldCloseFactorMantissa, closeFactorMantissa);\n\n        return uint(Error.NO_ERROR);\n    }\n\n    /**\n      * @notice Sets the collateralFactor for a market\n      * @dev Admin function to set per-market collateralFactor\n      * @param pToken The market to set the factor on\n      * @param newCollateralFactorMantissa The new collateral factor, scaled by 1e18\n      * @return uint 0=success, otherwise a failure. (See ErrorReporter for details)\n      */\n    function _setCollateralFactor(PToken pToken, uint newCollateralFactorMantissa) external returns (uint256) {\n        // Check caller is admin\n        if (msg.sender != admin) {\n            return fail(Error.UNAUTHORIZED, FailureInfo.SET_COLLATERAL_FACTOR_OWNER_CHECK);\n        }\n\n        // Verify market is listed\n        Market storage market = markets[address(pToken)];\n        if (!market.isListed) {\n            return fail(Error.MARKET_NOT_LISTED, FailureInfo.SET_COLLATERAL_FACTOR_NO_EXISTS);\n        }\n\n        Exp memory newCollateralFactorExp = Exp({mantissa: newCollateralFactorMantissa});\n\n        // Check collateral factor <= 0.9\n        Exp memory highLimit = Exp({mantissa: collateralFactorMaxMantissa});\n        if (lessThanExp(highLimit, newCollateralFactorExp)) {\n            return fail(Error.INVALID_COLLATERAL_FACTOR, FailureInfo.SET_COLLATERAL_FACTOR_VALIDATION);\n        }\n\n        // If collateral factor != 0, fail if price == 0\n        if (newCollateralFactorMantissa != 0 && getTokenPrice(address(pToken)) == 0) {\n            return fail(Error.PRICE_ERROR, FailureInfo.SET_COLLATERAL_FACTOR_WITHOUT_PRICE);\n        }\n\n        // Set market's collateral factor to new collateral factor, remember old value\n        uint oldCollateralFactorMantissa = market.collateralFactorMantissa;\n        market.collateralFactorMantissa = newCollateralFactorMantissa;\n\n        // Emit event with asset, old collateral factor, and new collateral factor\n        emit NewCollateralFactor(pToken, oldCollateralFactorMantissa, newCollateralFactorMantissa);\n\n        return uint(Error.NO_ERROR);\n    }\n\n    /**\n      * @notice Sets maxAssets which controls how many markets can be entered\n      * @dev Admin function to set maxAssets\n      * @param newMaxAssets New max assets\n      * @return uint 0=success, otherwise a failure. (See ErrorReporter for details)\n      */\n    function _setMaxAssets(uint newMaxAssets) external returns (uint) {\n        // Check caller is admin\n        if (msg.sender != admin) {\n            return fail(Error.UNAUTHORIZED, FailureInfo.SET_MAX_ASSETS_OWNER_CHECK);\n        }\n\n        uint oldMaxAssets = maxAssets;\n        maxAssets = newMaxAssets;\n        emit NewMaxAssets(oldMaxAssets, newMaxAssets);\n\n        return uint(Error.NO_ERROR);\n    }\n\n    /**\n      * @notice Sets liquidationIncentive\n      * @dev Admin function to set liquidationIncentive\n      * @param newLiquidationIncentiveMantissa New liquidationIncentive scaled by 1e18\n      * @return uint 0=success, otherwise a failure. (See ErrorReporter for details)\n      */\n    function _setLiquidationIncentive(uint newLiquidationIncentiveMantissa) external returns (uint) {\n        // Check caller is admin\n        if (msg.sender != admin) {\n            return fail(Error.UNAUTHORIZED, FailureInfo.SET_LIQUIDATION_INCENTIVE_OWNER_CHECK);\n        }\n\n        // Check de-scaled min <= newLiquidationIncentive <= max\n        Exp memory newLiquidationIncentive = Exp({mantissa: newLiquidationIncentiveMantissa});\n        Exp memory minLiquidationIncentive = Exp({mantissa: liquidationIncentiveMinMantissa});\n        if (lessThanExp(newLiquidationIncentive, minLiquidationIncentive)) {\n            return fail(Error.INVALID_LIQUIDATION_INCENTIVE, FailureInfo.SET_LIQUIDATION_INCENTIVE_VALIDATION);\n        }\n\n        Exp memory maxLiquidationIncentive = Exp({mantissa: liquidationIncentiveMaxMantissa});\n        if (lessThanExp(maxLiquidationIncentive, newLiquidationIncentive)) {\n            return fail(Error.INVALID_LIQUIDATION_INCENTIVE, FailureInfo.SET_LIQUIDATION_INCENTIVE_VALIDATION);\n        }\n\n        // Save current value for use in log\n        uint oldLiquidationIncentiveMantissa = liquidationIncentiveMantissa;\n\n        // Set liquidation incentive to new incentive\n        liquidationIncentiveMantissa = newLiquidationIncentiveMantissa;\n\n        // Emit event with old incentive, new incentive\n        emit NewLiquidationIncentive(oldLiquidationIncentiveMantissa, newLiquidationIncentiveMantissa);\n\n        return uint(Error.NO_ERROR);\n    }\n\n    /**\n      * @notice Add the market to the markets mapping and set it as listed\n      * @dev Admin function to set isListed and add support for the market\n      * @param pToken The address of the market (token) to list\n      * @return uint 0=success, otherwise a failure. (See enum Error for details)\n      */\n    function _supportMarket(PToken pToken) external returns (uint) {\n        if (msg.sender != admin) {\n            return fail(Error.UNAUTHORIZED, FailureInfo.SUPPORT_MARKET_OWNER_CHECK);\n        }\n\n        if (markets[address(pToken)].isListed) {\n            return fail(Error.MARKET_ALREADY_LISTED, FailureInfo.SUPPORT_MARKET_EXISTS);\n        }\n\n        pToken.isPToken(); // Sanity check to make sure its really a PToken\n\n        markets[address(pToken)] = Market({isListed: true, collateralFactorMantissa: 0});\n\n        _addMarketInternal(address(pToken));\n\n        emit MarketListed(pToken);\n\n        return uint(Error.NO_ERROR);\n    }\n\n    function _addMarketInternal(address pToken) internal {\n        for (uint i = 0; i < allMarkets.length; i ++) {\n            require(allMarkets[i] != PToken(pToken), \"market already added\");\n        }\n        allMarkets.push(PToken(pToken));\n    }\n\n    /**\n     * @notice Return all of the markets\n     * @dev The automatic getter may be used to access an individual market.\n     * @return The list of market addresses\n     */\n    function getAllMarkets() public view returns (PToken[] memory) {\n        return allMarkets;\n    }\n\n    /**\n     * @notice Admin function to change the Pause Guardian\n     * @param newPauseGuardian The address of the new Pause Guardian\n     * @return uint 0=success, otherwise a failure. (See enum Error for details)\n     */\n    function _setPauseGuardian(address newPauseGuardian) public returns (uint) {\n        if (msg.sender != admin) {\n            return fail(Error.UNAUTHORIZED, FailureInfo.SET_PAUSE_GUARDIAN_OWNER_CHECK);\n        }\n\n        // Save current value for inclusion in log\n        address oldPauseGuardian = pauseGuardian;\n\n        // Store pauseGuardian with value newPauseGuardian\n        pauseGuardian = newPauseGuardian;\n\n        // Emit NewPauseGuardian(OldPauseGuardian, NewPauseGuardian)\n        emit NewPauseGuardian(oldPauseGuardian, pauseGuardian);\n\n        return uint(Error.NO_ERROR);\n    }\n\n    function _setMintPaused(PToken pToken, bool state) public returns (bool) {\n        require(markets[address(pToken)].isListed, \"cannot pause a market that is not listed\");\n        require(msg.sender == pauseGuardian || msg.sender == admin, \"only pause guardian and admin can pause\");\n        require(msg.sender == admin || state == true, \"only admin can unpause\");\n\n        mintGuardianPaused[address(pToken)] = state;\n        emit ActionPaused(pToken, \"Mint\", state);\n        return state;\n    }\n\n    function _setBorrowPaused(PToken pToken, bool state) public returns (bool) {\n        require(markets[address(pToken)].isListed, \"cannot pause a market that is not listed\");\n        require(msg.sender == pauseGuardian || msg.sender == admin, \"only pause guardian and admin can pause\");\n        require(msg.sender == admin || state == true, \"only admin can unpause\");\n\n        borrowGuardianPaused[address(pToken)] = state;\n        emit ActionPaused(pToken, \"Borrow\", state);\n        return state;\n    }\n\n    function _setTransferPaused(bool state) public returns (bool) {\n        require(msg.sender == pauseGuardian || msg.sender == admin, \"only pause guardian and admin can pause\");\n        require(msg.sender == admin || state == true, \"only admin can unpause\");\n\n        transferGuardianPaused = state;\n        emit ActionPaused(\"Transfer\", state);\n        return state;\n    }\n\n    function _setSeizePaused(bool state) public returns (bool) {\n        require(msg.sender == pauseGuardian || msg.sender == admin, \"only pause guardian and admin can pause\");\n        require(msg.sender == admin || state == true, \"only admin can unpause\");\n\n        seizeGuardianPaused = state;\n        emit ActionPaused(\"Seize\", state);\n        return state;\n    }\n}\n",
  "sourcePath": "/Users/ashton/repo/blockchain/eth/smartcontracts/PoolX/contracts/core/RiskManager.sol",
  "compiler": {
    "name": "solc",
    "version": "0.6.9+commit.3e3065ac.Emscripten.clang"
  },
  "schemaVersion": "3.2.0",
  "updatedAt": "2020-08-27T07:37:24.808Z",
  "devdoc": {
    "methods": {
      "_setCloseFactor(uint256)": {
        "details": "Admin function to set closeFactor",
        "params": {
          "newCloseFactorMantissa": "New close factor, scaled by 1e18"
        },
        "returns": {
          "_0": "uint 0=success, otherwise a failure. (See ErrorReporter for details)"
        }
      },
      "_setCollateralFactor(address,uint256)": {
        "details": "Admin function to set per-market collateralFactor",
        "params": {
          "newCollateralFactorMantissa": "The new collateral factor, scaled by 1e18",
          "pToken": "The market to set the factor on"
        },
        "returns": {
          "_0": "uint 0=success, otherwise a failure. (See ErrorReporter for details)"
        }
      },
      "_setLiquidationIncentive(uint256)": {
        "details": "Admin function to set liquidationIncentive",
        "params": {
          "newLiquidationIncentiveMantissa": "New liquidationIncentive scaled by 1e18"
        },
        "returns": {
          "_0": "uint 0=success, otherwise a failure. (See ErrorReporter for details)"
        }
      },
      "_setMaxAssets(uint256)": {
        "details": "Admin function to set maxAssets",
        "params": {
          "newMaxAssets": "New max assets"
        },
        "returns": {
          "_0": "uint 0=success, otherwise a failure. (See ErrorReporter for details)"
        }
      },
      "_setPauseGuardian(address)": {
        "params": {
          "newPauseGuardian": "The address of the new Pause Guardian"
        },
        "returns": {
          "_0": "uint 0=success, otherwise a failure. (See enum Error for details)"
        }
      },
      "_setPriceOracle(address)": {
        "details": "Admin function to set a new price oracle",
        "returns": {
          "_0": "uint 0=success, otherwise a failure (see ErrorReporter.sol for details)"
        }
      },
      "_supportMarket(address)": {
        "details": "Admin function to set isListed and add support for the market",
        "params": {
          "pToken": "The address of the market (token) to list"
        },
        "returns": {
          "_0": "uint 0=success, otherwise a failure. (See enum Error for details)"
        }
      },
      "borrowAllowed(address,address,uint256)": {
        "params": {
          "borrowAmount": "The amount of underlying the account would borrow",
          "borrower": "The account which would borrow the asset",
          "pToken": "The market to verify the borrow against"
        },
        "returns": {
          "_0": "0 if the borrow is allowed, otherwise a semi-opaque error code (See ErrorReporter.sol)"
        }
      },
      "checkMembership(address,address)": {
        "params": {
          "account": "",
          "pToken": "pToken "
        },
        "returns": {
          "_0": " true false"
        }
      },
      "enterMarkets(address[])": {
        "params": {
          "pTokens": " pToken "
        },
        "returns": {
          "_0": ""
        }
      },
      "exitMarket(address)": {
        "params": {
          "pTokenAddress": " pToken "
        },
        "returns": {
          "_0": ""
        }
      },
      "getAccountLiquidity(address)": {
        "returns": {
          "_0": "(possible error code (semi-opaque), account liquidity in excess of collateral requirements,          account shortfall below collateral requirements)"
        }
      },
      "getAllMarkets()": {
        "details": "The automatic getter may be used to access an individual market.",
        "returns": {
          "_0": "The list of market addresses"
        }
      },
      "getAssetsIn(address)": {
        "params": {
          "account": ""
        },
        "returns": {
          "_0": ""
        }
      },
      "getHypotheticalAccountLiquidity(address,address,uint256,uint256)": {
        "params": {
          "account": "The account to determine liquidity for",
          "borrowAmount": "The amount of underlying to hypothetically borrow",
          "pTokenModify": "The market to hypothetically redeem/borrow in",
          "redeemTokens": "The number of tokens to hypothetically redeem"
        },
        "returns": {
          "_0": "(possible error code (semi-opaque), hypothetical account liquidity in excess of collateral requirements,          hypothetical account shortfall below collateral requirements)"
        }
      },
      "liquidateBorrowAllowed(address,address,address,address,uint256)": {
        "params": {
          "borrower": "The address of the borrower",
          "liquidator": "The address repaying the borrow and seizing the collateral",
          "pTokenBorrowed": "Asset which was borrowed by the borrower",
          "pTokenCollateral": "Asset which was used as collateral and will be seized",
          "repayAmount": "The amount of underlying being repaid"
        }
      },
      "liquidateCalculateSeizeTokens(address,address,uint256)": {
        "details": "Used in liquidation (called in pToken.liquidateBorrowFresh)",
        "params": {
          "actualRepayAmount": "The amount of pTokenBorrowed underlying to convert into pTokenCollateral tokens",
          "pTokenBorrowed": "The address of the borrowed pToken",
          "pTokenCollateral": "The address of the collateral pToken"
        },
        "returns": {
          "_0": "(errorCode, number of pTokenCollateral tokens to be seized in a liquidation)"
        }
      },
      "mintAllowed(address,address,uint256)": {
        "params": {
          "mintAmount": "The amount of underlying being supplied to the market in exchange for tokens",
          "minter": "The account which would get the minted tokens",
          "pToken": "The market to verify the mint against"
        },
        "returns": {
          "_0": "0 if the mint is allowed, otherwise a semi-opaque error code (See ErrorReporter.sol)"
        }
      },
      "redeemAllowed(address,address,uint256)": {
        "params": {
          "pToken": "pToken ",
          "redeemTokens": " pToken ",
          "redeemer": ""
        },
        "returns": {
          "_0": "0 if the redeem is allowed, otherwise a semi-opaque error code (See ErrorReporter.sol)"
        }
      },
      "repayBorrowAllowed(address,address,address,uint256)": {
        "params": {
          "borrower": "The account which would borrowed the asset",
          "pToken": "The market to verify the repay against",
          "payer": "The account which would repay the asset",
          "repayAmount": "The amount of the underlying asset the account would repay"
        },
        "returns": {
          "_0": "0 if the repay is allowed, otherwise a semi-opaque error code (See ErrorReporter.sol)"
        }
      },
      "seizeAllowed(address,address,address,address,uint256)": {
        "params": {
          "borrower": "The address of the borrower",
          "liquidator": "The address repaying the borrow and seizing the collateral",
          "pTokenBorrowed": "Asset which was borrowed by the borrower",
          "pTokenCollateral": "Asset which was used as collateral and will be seized",
          "seizeTokens": "The number of collateral tokens to seize"
        }
      },
      "transferAllowed(address,address,address,uint256)": {
        "params": {
          "dst": "The account which receives the tokens",
          "pToken": "The market to verify the transfer against",
          "src": "The account which sources the tokens",
          "transferTokens": "The number of pTokens to transfer"
        },
        "returns": {
          "_0": "0 if the transfer is allowed, otherwise a semi-opaque error code (See ErrorReporter.sol)"
        }
      }
    },
    "title": ""
  },
  "userdoc": {
    "methods": {
      "_setCloseFactor(uint256)": {
        "notice": "Sets the closeFactor used when liquidating borrows"
      },
      "_setCollateralFactor(address,uint256)": {
        "notice": "Sets the collateralFactor for a market"
      },
      "_setLiquidationIncentive(uint256)": {
        "notice": "Sets liquidationIncentive"
      },
      "_setMaxAssets(uint256)": {
        "notice": "Sets maxAssets which controls how many markets can be entered"
      },
      "_setPauseGuardian(address)": {
        "notice": "Admin function to change the Pause Guardian"
      },
      "_setPriceOracle(address)": {
        "notice": "Sets a new price oracle for the riskManager"
      },
      "_supportMarket(address)": {
        "notice": "Add the market to the markets mapping and set it as listed"
      },
      "accountAssets(address,uint256)": {
        "notice": "Per-account mapping of \"assets you are in\", capped by maxAssets"
      },
      "admin()": {
        "notice": "Administrator for this contract"
      },
      "allMarkets(uint256)": {
        "notice": "A list of all markets"
      },
      "borrowAllowed(address,address,uint256)": {
        "notice": "Checks if the account should be allowed to borrow the underlying asset of the given market"
      },
      "checkMembership(address,address)": {
        "notice": ""
      },
      "closeFactorMantissa()": {
        "notice": "Multiplier used to calculate the maximum repayAmount when liquidating a borrow"
      },
      "enterMarkets(address[])": {
        "notice": ""
      },
      "exitMarket(address)": {
        "notice": " pToken "
      },
      "getAccountLiquidity(address)": {
        "notice": "Determine the current account liquidity wrt collateral requirements"
      },
      "getAllMarkets()": {
        "notice": "Return all of the markets"
      },
      "getAssetsIn(address)": {
        "notice": ""
      },
      "getHypotheticalAccountLiquidity(address,address,uint256,uint256)": {
        "notice": "Determine what the account liquidity would be if the given amounts were redeemed/borrowed"
      },
      "liquidateBorrowAllowed(address,address,address,address,uint256)": {
        "notice": "Checks if the liquidation should be allowed to occur"
      },
      "liquidateCalculateSeizeTokens(address,address,uint256)": {
        "notice": "Calculate number of tokens of collateral asset to seize given an underlying amount"
      },
      "liquidationIncentiveMantissa()": {
        "notice": "Multiplier representing the discount on collateral that a liquidator receives"
      },
      "markets(address)": {
        "notice": "Official mapping of PTokens -> Market metadata"
      },
      "maxAssets()": {
        "notice": "Max number of assets a single account can participate in (borrow or use as collateral)"
      },
      "mintAllowed(address,address,uint256)": {
        "notice": "Checks if the account should be allowed to mint tokens in the given market"
      },
      "oracle()": {
        "notice": "Oracle which gives the price of any given asset"
      },
      "pauseGuardian()": {
        "notice": "The Pause Guardian can pause certain actions as a safety mechanism.  Actions which allow users to remove their own assets cannot be paused.  Liquidation / seizing / transfer can only be paused globally, not by market."
      },
      "pendingAdmin()": {
        "notice": "Pending administrator for this contract"
      },
      "redeemAllowed(address,address,uint256)": {
        "notice": ""
      },
      "repayBorrowAllowed(address,address,address,uint256)": {
        "notice": "Checks if the account should be allowed to repay a borrow in the given market"
      },
      "seizeAllowed(address,address,address,address,uint256)": {
        "notice": "Checks if the seizing of assets should be allowed to occur"
      },
      "transferAllowed(address,address,address,uint256)": {
        "notice": "Checks if the account should be allowed to transfer tokens in the given market"
      }
    }
  }
}