{
  "contractName": "RiskManager",
  "abi": [
    {
      "inputs": [],
      "stateMutability": "nonpayable",
      "type": "constructor"
    },
    {
      "anonymous": false,
      "inputs": [
        {
          "indexed": false,
          "internalType": "string",
          "name": "action",
          "type": "string"
        },
        {
          "indexed": false,
          "internalType": "bool",
          "name": "pauseState",
          "type": "bool"
        }
      ],
      "name": "ActionPaused",
      "type": "event"
    },
    {
      "anonymous": false,
      "inputs": [
        {
          "indexed": false,
          "internalType": "contract PToken",
          "name": "pToken",
          "type": "address"
        },
        {
          "indexed": false,
          "internalType": "string",
          "name": "action",
          "type": "string"
        },
        {
          "indexed": false,
          "internalType": "bool",
          "name": "pauseState",
          "type": "bool"
        }
      ],
      "name": "ActionPaused",
      "type": "event"
    },
    {
      "anonymous": false,
      "inputs": [
        {
          "indexed": false,
          "internalType": "uint256",
          "name": "error",
          "type": "uint256"
        },
        {
          "indexed": false,
          "internalType": "uint256",
          "name": "info",
          "type": "uint256"
        },
        {
          "indexed": false,
          "internalType": "uint256",
          "name": "detail",
          "type": "uint256"
        }
      ],
      "name": "Failure",
      "type": "event"
    },
    {
      "anonymous": false,
      "inputs": [
        {
          "indexed": false,
          "internalType": "contract PToken",
          "name": "pToken",
          "type": "address"
        },
        {
          "indexed": false,
          "internalType": "address",
          "name": "account",
          "type": "address"
        }
      ],
      "name": "MarketEntered",
      "type": "event"
    },
    {
      "anonymous": false,
      "inputs": [
        {
          "indexed": false,
          "internalType": "contract PToken",
          "name": "pToken",
          "type": "address"
        },
        {
          "indexed": false,
          "internalType": "address",
          "name": "account",
          "type": "address"
        }
      ],
      "name": "MarketExited",
      "type": "event"
    },
    {
      "anonymous": false,
      "inputs": [
        {
          "indexed": false,
          "internalType": "contract PToken",
          "name": "pToken",
          "type": "address"
        }
      ],
      "name": "MarketListed",
      "type": "event"
    },
    {
      "anonymous": false,
      "inputs": [
        {
          "indexed": false,
          "internalType": "address",
          "name": "oldAdmin",
          "type": "address"
        },
        {
          "indexed": false,
          "internalType": "address",
          "name": "newAdmin",
          "type": "address"
        }
      ],
      "name": "NewAdmin",
      "type": "event"
    },
    {
      "anonymous": false,
      "inputs": [
        {
          "indexed": false,
          "internalType": "uint256",
          "name": "oldCloseFactorMantissa",
          "type": "uint256"
        },
        {
          "indexed": false,
          "internalType": "uint256",
          "name": "newCloseFactorMantissa",
          "type": "uint256"
        }
      ],
      "name": "NewCloseFactor",
      "type": "event"
    },
    {
      "anonymous": false,
      "inputs": [
        {
          "indexed": false,
          "internalType": "contract PToken",
          "name": "pToken",
          "type": "address"
        },
        {
          "indexed": false,
          "internalType": "uint256",
          "name": "oldCollateralFactorMantissa",
          "type": "uint256"
        },
        {
          "indexed": false,
          "internalType": "uint256",
          "name": "newCollateralFactorMantissa",
          "type": "uint256"
        }
      ],
      "name": "NewCollateralFactor",
      "type": "event"
    },
    {
      "anonymous": false,
      "inputs": [
        {
          "indexed": false,
          "internalType": "uint256",
          "name": "oldLiquidationIncentiveMantissa",
          "type": "uint256"
        },
        {
          "indexed": false,
          "internalType": "uint256",
          "name": "newLiquidationIncentiveMantissa",
          "type": "uint256"
        }
      ],
      "name": "NewLiquidationIncentive",
      "type": "event"
    },
    {
      "anonymous": false,
      "inputs": [
        {
          "indexed": false,
          "internalType": "uint256",
          "name": "oldMaxAssets",
          "type": "uint256"
        },
        {
          "indexed": false,
          "internalType": "uint256",
          "name": "newMaxAssets",
          "type": "uint256"
        }
      ],
      "name": "NewMaxAssets",
      "type": "event"
    },
    {
      "anonymous": false,
      "inputs": [
        {
          "indexed": false,
          "internalType": "address",
          "name": "oldPauseGuardian",
          "type": "address"
        },
        {
          "indexed": false,
          "internalType": "address",
          "name": "newPauseGuardian",
          "type": "address"
        }
      ],
      "name": "NewPauseGuardian",
      "type": "event"
    },
    {
      "anonymous": false,
      "inputs": [
        {
          "indexed": false,
          "internalType": "address",
          "name": "oldPendingAdmin",
          "type": "address"
        },
        {
          "indexed": false,
          "internalType": "address",
          "name": "newPendingAdmin",
          "type": "address"
        }
      ],
      "name": "NewPendingAdmin",
      "type": "event"
    },
    {
      "anonymous": false,
      "inputs": [
        {
          "indexed": false,
          "internalType": "contract PriceOracle",
          "name": "oldPriceOracle",
          "type": "address"
        },
        {
          "indexed": false,
          "internalType": "contract PriceOracle",
          "name": "newPriceOracle",
          "type": "address"
        }
      ],
      "name": "NewPriceOracle",
      "type": "event"
    },
    {
      "inputs": [],
      "name": "_borrowGuardianPaused",
      "outputs": [
        {
          "internalType": "bool",
          "name": "",
          "type": "bool"
        }
      ],
      "stateMutability": "view",
      "type": "function",
      "constant": true
    },
    {
      "inputs": [],
      "name": "_mintGuardianPaused",
      "outputs": [
        {
          "internalType": "bool",
          "name": "",
          "type": "bool"
        }
      ],
      "stateMutability": "view",
      "type": "function",
      "constant": true
    },
    {
      "inputs": [
        {
          "internalType": "address",
          "name": "",
          "type": "address"
        },
        {
          "internalType": "uint256",
          "name": "",
          "type": "uint256"
        }
      ],
      "name": "accountAssets",
      "outputs": [
        {
          "internalType": "contract PToken",
          "name": "",
          "type": "address"
        }
      ],
      "stateMutability": "view",
      "type": "function",
      "constant": true
    },
    {
      "inputs": [],
      "name": "admin",
      "outputs": [
        {
          "internalType": "address",
          "name": "",
          "type": "address"
        }
      ],
      "stateMutability": "view",
      "type": "function",
      "constant": true
    },
    {
      "inputs": [
        {
          "internalType": "uint256",
          "name": "",
          "type": "uint256"
        }
      ],
      "name": "allMarkets",
      "outputs": [
        {
          "internalType": "contract PToken",
          "name": "",
          "type": "address"
        }
      ],
      "stateMutability": "view",
      "type": "function",
      "constant": true
    },
    {
      "inputs": [
        {
          "internalType": "address",
          "name": "",
          "type": "address"
        }
      ],
      "name": "borrowGuardianPaused",
      "outputs": [
        {
          "internalType": "bool",
          "name": "",
          "type": "bool"
        }
      ],
      "stateMutability": "view",
      "type": "function",
      "constant": true
    },
    {
      "inputs": [],
      "name": "closeFactorMantissa",
      "outputs": [
        {
          "internalType": "uint256",
          "name": "",
          "type": "uint256"
        }
      ],
      "stateMutability": "view",
      "type": "function",
      "constant": true
    },
    {
      "inputs": [],
      "name": "isRiskManager",
      "outputs": [
        {
          "internalType": "bool",
          "name": "",
          "type": "bool"
        }
      ],
      "stateMutability": "view",
      "type": "function",
      "constant": true
    },
    {
      "inputs": [],
      "name": "liquidationIncentiveMantissa",
      "outputs": [
        {
          "internalType": "uint256",
          "name": "",
          "type": "uint256"
        }
      ],
      "stateMutability": "view",
      "type": "function",
      "constant": true
    },
    {
      "inputs": [
        {
          "internalType": "address",
          "name": "",
          "type": "address"
        }
      ],
      "name": "markets",
      "outputs": [
        {
          "internalType": "bool",
          "name": "isListed",
          "type": "bool"
        },
        {
          "internalType": "uint256",
          "name": "collateralFactorMantissa",
          "type": "uint256"
        }
      ],
      "stateMutability": "view",
      "type": "function",
      "constant": true
    },
    {
      "inputs": [],
      "name": "maxAssets",
      "outputs": [
        {
          "internalType": "uint256",
          "name": "",
          "type": "uint256"
        }
      ],
      "stateMutability": "view",
      "type": "function",
      "constant": true
    },
    {
      "inputs": [
        {
          "internalType": "address",
          "name": "",
          "type": "address"
        }
      ],
      "name": "mintGuardianPaused",
      "outputs": [
        {
          "internalType": "bool",
          "name": "",
          "type": "bool"
        }
      ],
      "stateMutability": "view",
      "type": "function",
      "constant": true
    },
    {
      "inputs": [],
      "name": "oracle",
      "outputs": [
        {
          "internalType": "contract PriceOracle",
          "name": "",
          "type": "address"
        }
      ],
      "stateMutability": "view",
      "type": "function",
      "constant": true
    },
    {
      "inputs": [],
      "name": "pauseGuardian",
      "outputs": [
        {
          "internalType": "address",
          "name": "",
          "type": "address"
        }
      ],
      "stateMutability": "view",
      "type": "function",
      "constant": true
    },
    {
      "inputs": [],
      "name": "pendingAdmin",
      "outputs": [
        {
          "internalType": "address",
          "name": "",
          "type": "address"
        }
      ],
      "stateMutability": "view",
      "type": "function",
      "constant": true
    },
    {
      "inputs": [],
      "name": "seizeGuardianPaused",
      "outputs": [
        {
          "internalType": "bool",
          "name": "",
          "type": "bool"
        }
      ],
      "stateMutability": "view",
      "type": "function",
      "constant": true
    },
    {
      "inputs": [],
      "name": "transferGuardianPaused",
      "outputs": [
        {
          "internalType": "bool",
          "name": "",
          "type": "bool"
        }
      ],
      "stateMutability": "view",
      "type": "function",
      "constant": true
    },
    {
      "inputs": [
        {
          "internalType": "address",
          "name": "account",
          "type": "address"
        }
      ],
      "name": "getAssetsIn",
      "outputs": [
        {
          "internalType": "contract PToken[]",
          "name": "",
          "type": "address[]"
        }
      ],
      "stateMutability": "view",
      "type": "function",
      "constant": true
    },
    {
      "inputs": [
        {
          "internalType": "address",
          "name": "account",
          "type": "address"
        },
        {
          "internalType": "contract PToken",
          "name": "pToken",
          "type": "address"
        }
      ],
      "name": "checkMembership",
      "outputs": [
        {
          "internalType": "bool",
          "name": "",
          "type": "bool"
        }
      ],
      "stateMutability": "view",
      "type": "function",
      "constant": true
    },
    {
      "inputs": [
        {
          "internalType": "address[]",
          "name": "pTokens",
          "type": "address[]"
        }
      ],
      "name": "enterMarkets",
      "outputs": [
        {
          "internalType": "uint256[]",
          "name": "",
          "type": "uint256[]"
        }
      ],
      "stateMutability": "nonpayable",
      "type": "function"
    },
    {
      "inputs": [
        {
          "internalType": "address",
          "name": "pTokenAddress",
          "type": "address"
        }
      ],
      "name": "exitMarket",
      "outputs": [
        {
          "internalType": "uint256",
          "name": "",
          "type": "uint256"
        }
      ],
      "stateMutability": "nonpayable",
      "type": "function"
    },
    {
      "inputs": [
        {
          "internalType": "address",
          "name": "pToken",
          "type": "address"
        },
        {
          "internalType": "address",
          "name": "minter",
          "type": "address"
        },
        {
          "internalType": "uint256",
          "name": "mintAmount",
          "type": "uint256"
        }
      ],
      "name": "mintAllowed",
      "outputs": [
        {
          "internalType": "uint256",
          "name": "",
          "type": "uint256"
        }
      ],
      "stateMutability": "nonpayable",
      "type": "function"
    },
    {
      "inputs": [
        {
          "internalType": "address",
          "name": "pToken",
          "type": "address"
        },
        {
          "internalType": "address",
          "name": "redeemer",
          "type": "address"
        },
        {
          "internalType": "uint256",
          "name": "redeemTokens",
          "type": "uint256"
        }
      ],
      "name": "redeemAllowed",
      "outputs": [
        {
          "internalType": "uint256",
          "name": "",
          "type": "uint256"
        }
      ],
      "stateMutability": "nonpayable",
      "type": "function"
    },
    {
      "inputs": [
        {
          "internalType": "address",
          "name": "pToken",
          "type": "address"
        },
        {
          "internalType": "address",
          "name": "borrower",
          "type": "address"
        },
        {
          "internalType": "uint256",
          "name": "borrowAmount",
          "type": "uint256"
        }
      ],
      "name": "borrowAllowed",
      "outputs": [
        {
          "internalType": "uint256",
          "name": "",
          "type": "uint256"
        }
      ],
      "stateMutability": "nonpayable",
      "type": "function"
    },
    {
      "inputs": [
        {
          "internalType": "address",
          "name": "pToken",
          "type": "address"
        },
        {
          "internalType": "address",
          "name": "payer",
          "type": "address"
        },
        {
          "internalType": "address",
          "name": "borrower",
          "type": "address"
        },
        {
          "internalType": "uint256",
          "name": "repayAmount",
          "type": "uint256"
        }
      ],
      "name": "repayBorrowAllowed",
      "outputs": [
        {
          "internalType": "uint256",
          "name": "",
          "type": "uint256"
        }
      ],
      "stateMutability": "nonpayable",
      "type": "function"
    },
    {
      "inputs": [
        {
          "internalType": "address",
          "name": "pTokenBorrowed",
          "type": "address"
        },
        {
          "internalType": "address",
          "name": "pTokenCollateral",
          "type": "address"
        },
        {
          "internalType": "address",
          "name": "liquidator",
          "type": "address"
        },
        {
          "internalType": "address",
          "name": "borrower",
          "type": "address"
        },
        {
          "internalType": "uint256",
          "name": "repayAmount",
          "type": "uint256"
        }
      ],
      "name": "liquidateBorrowAllowed",
      "outputs": [
        {
          "internalType": "uint256",
          "name": "",
          "type": "uint256"
        }
      ],
      "stateMutability": "nonpayable",
      "type": "function"
    },
    {
      "inputs": [
        {
          "internalType": "address",
          "name": "pTokenCollateral",
          "type": "address"
        },
        {
          "internalType": "address",
          "name": "pTokenBorrowed",
          "type": "address"
        },
        {
          "internalType": "address",
          "name": "liquidator",
          "type": "address"
        },
        {
          "internalType": "address",
          "name": "borrower",
          "type": "address"
        },
        {
          "internalType": "uint256",
          "name": "seizeTokens",
          "type": "uint256"
        }
      ],
      "name": "seizeAllowed",
      "outputs": [
        {
          "internalType": "uint256",
          "name": "",
          "type": "uint256"
        }
      ],
      "stateMutability": "nonpayable",
      "type": "function"
    },
    {
      "inputs": [
        {
          "internalType": "address",
          "name": "pToken",
          "type": "address"
        },
        {
          "internalType": "address",
          "name": "src",
          "type": "address"
        },
        {
          "internalType": "address",
          "name": "dst",
          "type": "address"
        },
        {
          "internalType": "uint256",
          "name": "transferTokens",
          "type": "uint256"
        }
      ],
      "name": "transferAllowed",
      "outputs": [
        {
          "internalType": "uint256",
          "name": "",
          "type": "uint256"
        }
      ],
      "stateMutability": "nonpayable",
      "type": "function"
    },
    {
      "inputs": [
        {
          "internalType": "address",
          "name": "account",
          "type": "address"
        }
      ],
      "name": "getAccountLiquidity",
      "outputs": [
        {
          "internalType": "uint256",
          "name": "",
          "type": "uint256"
        },
        {
          "internalType": "uint256",
          "name": "",
          "type": "uint256"
        },
        {
          "internalType": "uint256",
          "name": "",
          "type": "uint256"
        }
      ],
      "stateMutability": "view",
      "type": "function",
      "constant": true
    },
    {
      "inputs": [
        {
          "internalType": "address",
          "name": "account",
          "type": "address"
        },
        {
          "internalType": "address",
          "name": "pTokenModify",
          "type": "address"
        },
        {
          "internalType": "uint256",
          "name": "redeemTokens",
          "type": "uint256"
        },
        {
          "internalType": "uint256",
          "name": "borrowAmount",
          "type": "uint256"
        }
      ],
      "name": "getHypotheticalAccountLiquidity",
      "outputs": [
        {
          "internalType": "uint256",
          "name": "",
          "type": "uint256"
        },
        {
          "internalType": "uint256",
          "name": "",
          "type": "uint256"
        },
        {
          "internalType": "uint256",
          "name": "",
          "type": "uint256"
        }
      ],
      "stateMutability": "view",
      "type": "function",
      "constant": true
    },
    {
      "inputs": [
        {
          "internalType": "address",
          "name": "asset",
          "type": "address"
        }
      ],
      "name": "getPriceCost",
      "outputs": [
        {
          "internalType": "uint256",
          "name": "",
          "type": "uint256"
        }
      ],
      "stateMutability": "view",
      "type": "function",
      "constant": true
    },
    {
      "inputs": [
        {
          "internalType": "address",
          "name": "asset",
          "type": "address"
        }
      ],
      "name": "getTokenPrice",
      "outputs": [
        {
          "internalType": "uint256",
          "name": "",
          "type": "uint256"
        }
      ],
      "stateMutability": "view",
      "type": "function",
      "constant": true
    },
    {
      "inputs": [
        {
          "internalType": "address",
          "name": "asset",
          "type": "address"
        }
      ],
      "name": "updateAndGetTokenPrice",
      "outputs": [
        {
          "internalType": "uint256",
          "name": "",
          "type": "uint256"
        }
      ],
      "stateMutability": "payable",
      "type": "function",
      "payable": true
    },
    {
      "inputs": [
        {
          "internalType": "address",
          "name": "pTokenBorrowed",
          "type": "address"
        },
        {
          "internalType": "address",
          "name": "pTokenCollateral",
          "type": "address"
        },
        {
          "internalType": "uint256",
          "name": "actualRepayAmount",
          "type": "uint256"
        }
      ],
      "name": "liquidateCalculateSeizeTokens",
      "outputs": [
        {
          "internalType": "uint256",
          "name": "",
          "type": "uint256"
        },
        {
          "internalType": "uint256",
          "name": "",
          "type": "uint256"
        }
      ],
      "stateMutability": "view",
      "type": "function",
      "constant": true
    },
    {
      "inputs": [
        {
          "internalType": "contract PriceOracle",
          "name": "newOracle",
          "type": "address"
        }
      ],
      "name": "_setPriceOracle",
      "outputs": [
        {
          "internalType": "uint256",
          "name": "",
          "type": "uint256"
        }
      ],
      "stateMutability": "nonpayable",
      "type": "function"
    },
    {
      "inputs": [
        {
          "internalType": "uint256",
          "name": "newCloseFactorMantissa",
          "type": "uint256"
        }
      ],
      "name": "_setCloseFactor",
      "outputs": [
        {
          "internalType": "uint256",
          "name": "",
          "type": "uint256"
        }
      ],
      "stateMutability": "nonpayable",
      "type": "function"
    },
    {
      "inputs": [
        {
          "internalType": "contract PToken",
          "name": "pToken",
          "type": "address"
        },
        {
          "internalType": "uint256",
          "name": "newCollateralFactorMantissa",
          "type": "uint256"
        }
      ],
      "name": "_setCollateralFactor",
      "outputs": [
        {
          "internalType": "uint256",
          "name": "",
          "type": "uint256"
        }
      ],
      "stateMutability": "payable",
      "type": "function",
      "payable": true
    },
    {
      "inputs": [
        {
          "internalType": "uint256",
          "name": "newMaxAssets",
          "type": "uint256"
        }
      ],
      "name": "_setMaxAssets",
      "outputs": [
        {
          "internalType": "uint256",
          "name": "",
          "type": "uint256"
        }
      ],
      "stateMutability": "nonpayable",
      "type": "function"
    },
    {
      "inputs": [
        {
          "internalType": "uint256",
          "name": "newLiquidationIncentiveMantissa",
          "type": "uint256"
        }
      ],
      "name": "_setLiquidationIncentive",
      "outputs": [
        {
          "internalType": "uint256",
          "name": "",
          "type": "uint256"
        }
      ],
      "stateMutability": "nonpayable",
      "type": "function"
    },
    {
      "inputs": [
        {
          "internalType": "contract PToken",
          "name": "pToken",
          "type": "address"
        }
      ],
      "name": "_supportMarket",
      "outputs": [
        {
          "internalType": "uint256",
          "name": "",
          "type": "uint256"
        }
      ],
      "stateMutability": "nonpayable",
      "type": "function"
    },
    {
      "inputs": [],
      "name": "getAllMarkets",
      "outputs": [
        {
          "internalType": "address[]",
          "name": "_allMarkets",
          "type": "address[]"
        }
      ],
      "stateMutability": "view",
      "type": "function",
      "constant": true
    },
    {
      "inputs": [
        {
          "internalType": "address",
          "name": "newPauseGuardian",
          "type": "address"
        }
      ],
      "name": "_setPauseGuardian",
      "outputs": [
        {
          "internalType": "uint256",
          "name": "",
          "type": "uint256"
        }
      ],
      "stateMutability": "nonpayable",
      "type": "function"
    },
    {
      "inputs": [
        {
          "internalType": "contract PToken",
          "name": "pToken",
          "type": "address"
        },
        {
          "internalType": "bool",
          "name": "state",
          "type": "bool"
        }
      ],
      "name": "_setMintPaused",
      "outputs": [
        {
          "internalType": "bool",
          "name": "",
          "type": "bool"
        }
      ],
      "stateMutability": "nonpayable",
      "type": "function"
    },
    {
      "inputs": [
        {
          "internalType": "contract PToken",
          "name": "pToken",
          "type": "address"
        },
        {
          "internalType": "bool",
          "name": "state",
          "type": "bool"
        }
      ],
      "name": "_setBorrowPaused",
      "outputs": [
        {
          "internalType": "bool",
          "name": "",
          "type": "bool"
        }
      ],
      "stateMutability": "nonpayable",
      "type": "function"
    },
    {
      "inputs": [
        {
          "internalType": "bool",
          "name": "state",
          "type": "bool"
        }
      ],
      "name": "_setTransferPaused",
      "outputs": [
        {
          "internalType": "bool",
          "name": "",
          "type": "bool"
        }
      ],
      "stateMutability": "nonpayable",
      "type": "function"
    },
    {
      "inputs": [
        {
          "internalType": "bool",
          "name": "state",
          "type": "bool"
        }
      ],
      "name": "_setSeizePaused",
      "outputs": [
        {
          "internalType": "bool",
          "name": "",
          "type": "bool"
        }
      ],
      "stateMutability": "nonpayable",
      "type": "function"
    },
    {
      "inputs": [
        {
          "internalType": "address",
          "name": "newPendingAdmin",
          "type": "address"
        }
      ],
      "name": "_setPendingAdmin",
      "outputs": [
        {
          "internalType": "uint256",
          "name": "",
          "type": "uint256"
        }
      ],
      "stateMutability": "nonpayable",
      "type": "function"
    },
    {
      "inputs": [],
      "name": "_acceptAdmin",
      "outputs": [
        {
          "internalType": "uint256",
          "name": "",
          "type": "uint256"
        }
      ],
      "stateMutability": "nonpayable",
      "type": "function"
    }
  ],
  "bytecode": "0x60806040526706f05b59d3b20000600355670e92596fd6290000600455600a60055534801561002d57600080fd5b50600080546001600160a01b031916331790556138b28061004f6000396000f3fe6080604052600436106102935760003560e01c806394b2294b1161015a578063d02f7351116100c1578063e87554461161007a578063e875544614610b97578063e9c714f214610bac578063ea67db2214610bc1578063eabe7d9114610bf4578063ede4edd014610c37578063f851a44014610c6a57610293565b8063d02f735114610a5d578063d9226ced14610ab0578063da3d454c14610ada578063dce1544914610b1d578063e4028eee14610b56578063e6653f3d14610b8257610293565b8063b71d1a0c11610113578063b71d1a0c1461087c578063bdcdc258146108af578063c2998238146108f8578063c488847b146109a8578063ca7789e214610a04578063d02641a014610a2a57610293565b806394b2294b14610772578063a76b3fda14610787578063a996e7ba146107ba578063abfceffc146107cf578063ac0b0bb714610852578063b0772d0b1461086757610293565b806352d84d1e116101fe578063731f0c2b116101b7578063731f0c2b146106605780637dc0d1d01461069357806387f76303146106a85780638e8f294b146106bd5780638ebf63641461070b578063929fe9a11461073757610293565b806352d84d1e1461051757806355ee1fe1146105415780635ec88c79146105745780635f5af1aa146105a75780635fc7e71e146105da5780636d154ea51461062d57610293565b80633bcf7ec1116102505780633bcf7ec1146103de5780633c94786f146104195780634ada90af1461042e5780634e79238f146104435780634ef4c3e1146104aa5780634fd42e17146104ed57610293565b806318c882a51461029857806324008a62146102e757806324a3d6221461034257806326782247146103735780632d70db7814610388578063317b0b77146103b4575b600080fd5b3480156102a457600080fd5b506102d3600480360360408110156102bb57600080fd5b506001600160a01b0381351690602001351515610c7f565b604080519115158252519081900360200190f35b3480156102f357600080fd5b506103306004803603608081101561030a57600080fd5b506001600160a01b03813581169160208101358216916040820135169060600135610e1f565b60408051918252519081900360200190f35b34801561034e57600080fd5b50610357610e55565b604080516001600160a01b039092168252519081900360200190f35b34801561037f57600080fd5b50610357610e64565b34801561039457600080fd5b506102d3600480360360208110156103ab57600080fd5b50351515610e73565b3480156103c057600080fd5b50610330600480360360208110156103d757600080fd5b5035610fad565b3480156103ea57600080fd5b506102d36004803603604081101561040157600080fd5b506001600160a01b03813516906020013515156110be565b34801561042557600080fd5b506102d3611259565b34801561043a57600080fd5b50610330611269565b34801561044f57600080fd5b5061048c6004803603608081101561046657600080fd5b506001600160a01b0381358116916020810135909116906040810135906060013561126f565b60408051938452602084019290925282820152519081900360600190f35b3480156104b657600080fd5b50610330600480360360608110156104cd57600080fd5b506001600160a01b038135811691602081013590911690604001356112a9565b3480156104f957600080fd5b506103306004803603602081101561051057600080fd5b503561133f565b34801561052357600080fd5b506103576004803603602081101561053a57600080fd5b5035611433565b34801561054d57600080fd5b506103306004803603602081101561056457600080fd5b50356001600160a01b031661145a565b34801561058057600080fd5b5061048c6004803603602081101561059757600080fd5b50356001600160a01b03166114e1565b3480156105b357600080fd5b50610330600480360360208110156105ca57600080fd5b50356001600160a01b0316611516565b3480156105e657600080fd5b50610330600480360360a08110156105fd57600080fd5b506001600160a01b038135811691602081013582169160408201358116916060810135909116906080013561159a565b34801561063957600080fd5b506102d36004803603602081101561065057600080fd5b50356001600160a01b0316611721565b34801561066c57600080fd5b506102d36004803603602081101561068357600080fd5b50356001600160a01b0316611736565b34801561069f57600080fd5b5061035761174b565b3480156106b457600080fd5b506102d361175a565b3480156106c957600080fd5b506106f0600480360360208110156106e057600080fd5b50356001600160a01b031661176a565b60408051921515835260208301919091528051918290030190f35b34801561071757600080fd5b506102d36004803603602081101561072e57600080fd5b50351515611789565b34801561074357600080fd5b506102d36004803603604081101561075a57600080fd5b506001600160a01b03813581169160200135166118c2565b34801561077e57600080fd5b506103306118f5565b34801561079357600080fd5b50610330600480360360208110156107aa57600080fd5b50356001600160a01b03166118fb565b3480156107c657600080fd5b506102d3611a38565b3480156107db57600080fd5b50610802600480360360208110156107f257600080fd5b50356001600160a01b0316611a3d565b60408051602080825283518183015283519192839290830191858101910280838360005b8381101561083e578181015183820152602001610826565b505050509050019250505060405180910390f35b34801561085e57600080fd5b506102d3611ac6565b34801561087357600080fd5b50610802611ad6565b34801561088857600080fd5b506103306004803603602081101561089f57600080fd5b50356001600160a01b0316611b87565b3480156108bb57600080fd5b50610330600480360360808110156108d257600080fd5b506001600160a01b03813581169160208101358216916040820135169060600135611c0c565b34801561090457600080fd5b506108026004803603602081101561091b57600080fd5b81019060208101813564010000000081111561093657600080fd5b82018360208201111561094857600080fd5b8035906020019184602083028401116401000000008311171561096a57600080fd5b919080806020026020016040519081016040528093929190818152602001838360200280828437600092019190915250929550611c6e945050505050565b3480156109b457600080fd5b506109eb600480360360608110156109cb57600080fd5b506001600160a01b03813581169160208101359091169060400135611d18565b6040805192835260208301919091528051918290030190f35b61033060048036036020811015610a1a57600080fd5b50356001600160a01b0316611ea3565b348015610a3657600080fd5b5061033060048036036020811015610a4d57600080fd5b50356001600160a01b0316612095565b348015610a6957600080fd5b50610330600480360360a0811015610a8057600080fd5b506001600160a01b0381358116916020810135821691604082013581169160608101359091169060800135612115565b348015610abc57600080fd5b5061033060048036036020811015610ad357600080fd5b50356122ac565b348015610ae657600080fd5b5061033060048036036060811015610afd57600080fd5b506001600160a01b03813581169160208101359091169060400135612315565b348015610b2957600080fd5b5061035760048036036040811015610b4057600080fd5b506001600160a01b03813516906020013561256e565b61033060048036036040811015610b6c57600080fd5b506001600160a01b0381351690602001356125a3565b348015610b8e57600080fd5b506102d361275e565b348015610ba357600080fd5b5061033061276e565b348015610bb857600080fd5b50610330612774565b348015610bcd57600080fd5b5061033060048036036020811015610be457600080fd5b50356001600160a01b0316612864565b348015610c0057600080fd5b5061033060048036036060811015610c1757600080fd5b506001600160a01b038135811691602081013590911690604001356128e7565b348015610c4357600080fd5b5061033060048036036020811015610c5a57600080fd5b50356001600160a01b03166128f4565b348015610c7657600080fd5b50610357612c2d565b6001600160a01b03821660009081526007602052604081205460ff16610cd65760405162461bcd60e51b81526004018080602001828103825260288152602001806138096028913960400191505060405180910390fd5b6009546001600160a01b0316331480610cf957506000546001600160a01b031633145b610d345760405162461bcd60e51b81526004018080602001828103825260278152602001806138316027913960400191505060405180910390fd5b6000546001600160a01b0316331480610d4f57506001821515145b610d99576040805162461bcd60e51b81526020600482015260166024820152756f6e6c792061646d696e2063616e20756e706175736560501b604482015290519081900360640190fd5b6001600160a01b0383166000818152600b6020908152604091829020805486151560ff199091168117909155825193845283830152606090830181905260069083015265426f72726f7760d01b6080830152517f71aec636243f9709bb0007ae15e9afb8150ab01716d75fd7573be5cc096e03b09181900360a00190a150805b92915050565b6001600160a01b03841660009081526007602052604081205460ff16610e4757506008610e4d565b60005b90505b949350505050565b6009546001600160a01b031681565b6001546001600160a01b031681565b6009546000906001600160a01b0316331480610e9957506000546001600160a01b031633145b610ed45760405162461bcd60e51b81526004018080602001828103825260278152602001806138316027913960400191505060405180910390fd5b6000546001600160a01b0316331480610eef57506001821515145b610f39576040805162461bcd60e51b81526020600482015260166024820152756f6e6c792061646d696e2063616e20756e706175736560501b604482015290519081900360640190fd5b60098054831515600160b81b810260ff60b81b1990921691909117909155604080516020810192909252808252600582820152645365697a6560d81b6060830152517fef159d9a32b2472e32b098f954f3ce62d232939f1c207070b584df1814de2de09181900360800190a150805b919050565b600080546001600160a01b03163314610fd357610fcc60016004612c3c565b9050610fa8565b610fdb61378b565b506040805160208101909152828152610ff261378b565b50604080516020810190915266b1a2bc2ec5000081526110128282612ca2565b1561102b57611022600580612c3c565b92505050610fa8565b61103361378b565b506040805160208101909152670c7d713b49da000081526110548184612caa565b1561106e57611064600580612c3c565b9350505050610fa8565b6003805490869055604080518281526020810188905281517f3b9670cf975d26958e754b57098eaa2ac914d8d2a31b83257997b9f346110fd9929181900390910190a160005b9695505050505050565b6001600160a01b03821660009081526007602052604081205460ff166111155760405162461bcd60e51b81526004018080602001828103825260288152602001806138096028913960400191505060405180910390fd5b6009546001600160a01b031633148061113857506000546001600160a01b031633145b6111735760405162461bcd60e51b81526004018080602001828103825260278152602001806138316027913960400191505060405180910390fd5b6000546001600160a01b031633148061118e57506001821515145b6111d8576040805162461bcd60e51b81526020600482015260166024820152756f6e6c792061646d696e2063616e20756e706175736560501b604482015290519081900360640190fd5b6001600160a01b0383166000818152600a6020908152604091829020805486151560ff199091168117909155825193845283830152606090830181905260049083015263135a5b9d60e21b6080830152517f71aec636243f9709bb0007ae15e9afb8150ab01716d75fd7573be5cc096e03b09181900360a00190a150919050565b600954600160a01b900460ff1681565b60045481565b6000806000806000806112848a8a8a8a612cb1565b92509250925082601081111561129657fe5b95509093509150505b9450945094915050565b6001600160a01b0383166000908152600a602052604081205460ff1615611308576040805162461bcd60e51b815260206004820152600e60248201526d1b5a5b9d081a5cc81c185d5cd95960921b604482015290519081900360640190fd5b6001600160a01b03841660009081526007602052604090205460ff166113325760085b9050611338565b60005b90505b9392505050565b600080546001600160a01b0316331461135e57610fcc6001600b612c3c565b61136661378b565b50604080516020810190915282815261137d61378b565b506040805160208101909152670de0b6b3a7640000815261139e8282612caa565b156113af576110226007600c612c3c565b6113b761378b565b5060408051602081019091526714d1120d7b16000081526113d88184612caa565b156113e9576110646007600c612c3c565b6004805490869055604080518281526020810188905281517faeba5a6c40a8ac138134bff1aaa65debf25971188a58804bad717f82f0ec1316929181900390910190a160006110b4565b6008818154811061144057fe5b6000918252602090912001546001600160a01b0316905081565b600080546001600160a01b0316331461147957610fcc60016010612c3c565b600280546001600160a01b038481166001600160a01b0319831681179093556040805191909216808252602082019390935281517fd52b2b9b7e9ee655fcb95d2e5b9e0c9f69e7ef2b8e9d2d0ea78402d576d22e22929181900390910190a160009392505050565b6000806000806000806114f8876000806000612cb1565b92509250925082601081111561150a57fe5b97919650945092505050565b600080546001600160a01b0316331461153557610fcc60016013612c3c565b600980546001600160a01b038481166001600160a01b0319831617928390556040805192821680845293909116602083015280517f0613b6ee6a04f0d09f390e4d9318894b9f6ac7fd83897cd8d18896ba579c401e9281900390910190a16000611338565b6001600160a01b03851660009081526007602052604081205460ff1615806115db57506001600160a01b03851660009081526007602052604090205460ff16155b156115ea5760085b9050611718565b6000806115f68561306c565b9193509091506000905082601081111561160c57fe5b146116265781601081111561161d57fe5b92505050611718565b8061163257600361161d565b6000886001600160a01b03166395dd9193876040518263ffffffff1660e01b815260040180826001600160a01b03166001600160a01b0316815260200191505060206040518083038186803b15801561168a57600080fd5b505afa15801561169e573d6000803e3d6000fd5b505050506040513d60208110156116b457600080fd5b50516040805160208101909152600354815290915060009081906116d8908461308c565b909250905060008260038111156116eb57fe5b146116ff57600a5b95505050505050611718565b8087111561170e5760106116f3565b6000955050505050505b95945050505050565b600b6020526000908152604090205460ff1681565b600a6020526000908152604090205460ff1681565b6002546001600160a01b031681565b600954600160b01b900460ff1681565b6007602052600090815260409020805460019091015460ff9091169082565b6009546000906001600160a01b03163314806117af57506000546001600160a01b031633145b6117ea5760405162461bcd60e51b81526004018080602001828103825260278152602001806138316027913960400191505060405180910390fd5b6000546001600160a01b031633148061180557506001821515145b61184f576040805162461bcd60e51b81526020600482015260166024820152756f6e6c792061646d696e2063616e20756e706175736560501b604482015290519081900360640190fd5b60098054831515600160b01b810260ff60b01b1990921691909117909155604080516020810192909252808252600882820152672a3930b739b332b960c11b6060830152517fef159d9a32b2472e32b098f954f3ce62d232939f1c207070b584df1814de2de09181900360800190a15090565b6001600160a01b038082166000908152600760209081526040808320938616835260029093019052205460ff1692915050565b60055481565b600080546001600160a01b0316331461191a57610fcc60016012612c3c565b6001600160a01b03821660009081526007602052604090205460ff161561194757610fcc60096011612c3c565b816001600160a01b0316635a890c0e6040518163ffffffff1660e01b815260040160206040518083038186803b15801561198057600080fd5b505afa158015611994573d6000803e3d6000fd5b505050506040513d60208110156119aa57600080fd5b50506040805180820182526001808252600060208084018281526001600160a01b038816835260079091529390209151825460ff191690151517825591519101556119f4826130e0565b604080516001600160a01b038416815290517fcf583bb0c569eb967f806b11601c4cb93c10310485c67add5f8362c2f212321f9181900360200190a1600092915050565b600181565b60608060066000846001600160a01b03166001600160a01b03168152602001908152602001600020805480602002602001604051908101604052809291908181526020018280548015611ab957602002820191906000526020600020905b81546001600160a01b03168152600190910190602001808311611a9b575b5093979650505050505050565b600954600160b81b900460ff1681565b60085460609067ffffffffffffffff81118015611af257600080fd5b50604051908082528060200260200182016040528015611b1c578160200160208202803683370190505b50905060005b600854811015611b835760088181548110611b3957fe5b9060005260206000200160009054906101000a90046001600160a01b0316828281518110611b6357fe5b6001600160a01b0390921660209283029190910190910152600101611b22565b5090565b600080546001600160a01b03163314611ba657610fcc6001600e612c3c565b600180546001600160a01b038481166001600160a01b0319831681179093556040805191909216808252602082019390935281517fca4f2f25d0898edd99413412fb94012f9e54ec8142f9b093e7720646a95b16a9929181900390910190a16000611338565b600954600090600160b01b900460ff1615611c63576040805162461bcd60e51b81526020600482015260126024820152711d1c985b9cd9995c881a5cc81c185d5cd95960721b604482015290519081900360640190fd5b610e4a8585846131be565b8051606090818167ffffffffffffffff81118015611c8b57600080fd5b50604051908082528060200260200182016040528015611cb5578160200160208202803683370190505b50905060005b82811015611d10576000858281518110611cd157fe5b60200260200101519050611ce5813361326a565b6010811115611cf057fe5b838381518110611cfc57fe5b602090810291909101015250600101611cbb565b509392505050565b6000806000611d2686612095565b90506000611d3386612095565b9050811580611d40575080155b15611d5557600c935060009250611e9b915050565b6000866001600160a01b031663182df0f56040518163ffffffff1660e01b815260040160206040518083038186803b158015611d9057600080fd5b505afa158015611da4573d6000803e3d6000fd5b505050506040513d6020811015611dba57600080fd5b505190506000611dc861378b565b611dd061378b565b611dd861378b565b6000611de66004548961338b565b945090506000816003811115611df857fe5b14611e1457600a5b995060009850611e9b975050505050505050565b611e1e878761338b565b935090506000816003811115611e3057fe5b14611e3c57600a611e00565b611e4684846133c6565b925090506000816003811115611e5857fe5b14611e6457600a611e00565b611e6e828c61308c565b955090506000816003811115611e8057fe5b14611e8c57600a611e00565b60009950939750505050505050505b935093915050565b6002546040805163fc57d4df60e01b81526001600160a01b038481166004830152825160009485948594939091169263fc57d4df9260248083019392829003018186803b158015611ef357600080fd5b505afa158015611f07573d6000803e3d6000fd5b505050506040513d6040811015611f1d57600080fd5b50805160209091015190925090508115801590611f3957504381145b15611f4657509050610fa8565b60025460408051637533ed9160e11b81526001600160a01b0387811660048301529151600093929092169163ea67db2291602480820192602092909190829003018186803b158015611f9757600080fd5b505afa158015611fab573d6000803e3d6000fd5b505050506040513d6020811015611fc157600080fd5b5051905034811461200e576040805162461bcd60e51b815260206004820152601260248201527127379032b737bab3b4103130b630b731b29760711b604482015290519081900360640190fd5b60025460408051630880c0b760e21b81526001600160a01b0388811660048301529151919092169163220302dc91349160248082019260209290919082900301818588803b15801561205f57600080fd5b505af1158015612073573d6000803e3d6000fd5b50505050506040513d602081101561208a57600080fd5b505195945050505050565b6002546040805163fc57d4df60e01b81526001600160a01b0384811660048301528251600094859492169263fc57d4df926024808301939192829003018186803b1580156120e257600080fd5b505afa1580156120f6573d6000803e3d6000fd5b505050506040513d604081101561210c57600080fd5b50519392505050565b600954600090600160b81b900460ff1615612169576040805162461bcd60e51b815260206004820152600f60248201526e1cd95a5e99481a5cc81c185d5cd959608a1b604482015290519081900360640190fd5b6001600160a01b03861660009081526007602052604090205460ff1615806121aa57506001600160a01b03851660009081526007602052604090205460ff16155b156121b65760086115e3565b846001600160a01b031663478426636040518163ffffffff1660e01b815260040160206040518083038186803b1580156121ef57600080fd5b505afa158015612203573d6000803e3d6000fd5b505050506040513d602081101561221957600080fd5b505160408051634784266360e01b815290516001600160a01b03928316928916916347842663916004808301926020929190829003018186803b15801561225f57600080fd5b505afa158015612273573d6000803e3d6000fd5b505050506040513d602081101561228957600080fd5b50516001600160a01b0316146122a05760026115e3565b60009695505050505050565b600080546001600160a01b031633146122cb57610fcc6001600d612c3c565b6005805490839055604080518281526020810185905281517f7093cf1eb653f749c3ff531d6df7f92764536a7fa0d13530cd26e070780c32ea929181900390910190a16000611338565b6001600160a01b0383166000908152600b602052604081205460ff1615612376576040805162461bcd60e51b815260206004820152601060248201526f189bdc9c9bddc81a5cc81c185d5cd95960821b604482015290519081900360640190fd5b6001600160a01b03841660009081526007602052604090205460ff1661239d57600861132b565b6001600160a01b038085166000908152600760209081526040808320938716835260029093019052205460ff1661248d57336001600160a01b03851614612423576040805162461bcd60e51b815260206004820152601560248201527439b2b73232b91036bab9ba10313290382a37b5b2b760591b604482015290519081900360640190fd5b600061242f338561326a565b9050600081601081111561243f57fe5b146124585780601081111561245057fe5b915050611338565b6001600160a01b038086166000908152600760209081526040808320938816835260029093019052205460ff1661248b57fe5b505b6002546040805163fc57d4df60e01b81526001600160a01b0387811660048301528251600094919091169263fc57d4df9260248082019391829003018186803b1580156124d957600080fd5b505afa1580156124ed573d6000803e3d6000fd5b505050506040513d604081101561250357600080fd5b505190508061251357600c612450565b6000806125238688600088612cb1565b9193509091506000905082601081111561253957fe5b146125545781601081111561254a57fe5b9350505050611338565b801561256157600461254a565b6000979650505050505050565b6006602052816000526040600020818154811061258757fe5b6000918252602090912001546001600160a01b03169150829050565b60025460408051630880c0b760e21b81526001600160a01b0385811660048301529151600093929092169163220302dc913491602480830192602092919082900301818588803b1580156125f657600080fd5b505af115801561260a573d6000803e3d6000fd5b50505050506040513d602081101561262157600080fd5b50506000546001600160a01b031633146126485761264160016006612c3c565b9050610e19565b6001600160a01b0383166000908152600760205260409020805460ff1661267d5761267560086007612c3c565b915050610e19565b61268561378b565b50604080516020810190915283815261269c61378b565b506040805160208101909152670c7d713b49da000081526126bd8183612caa565b156126d8576126ce60066008612c3c565b9350505050610e19565b84158015906126ed57506126eb86612095565b155b156126fe576126ce600c6009612c3c565b60018301805490869055604080516001600160a01b03891681526020810183905280820188905290517f70483e6592cd5182d45ac970e05bc62cdcc90e9d8ef2c2dbe686cf383bcd7fc59181900360600190a16000979650505050505050565b600954600160a81b900460ff1681565b60035481565b6001546000906001600160a01b03163314158061278f575033155b156127a7576127a060016000612c3c565b9050612861565b60008054600180546001600160a01b038082166001600160a01b031980861682179687905590921690925560408051938316808552949092166020840152815190927ff9ffabca9c8276e99321725bcb43fb076a6c66a54b7f21c4e8146d8519b417dc92908290030190a1600154604080516001600160a01b038085168252909216602083015280517fca4f2f25d0898edd99413412fb94012f9e54ec8142f9b093e7720646a95b16a99281900390910190a16000925050505b90565b60025460408051637533ed9160e11b81526001600160a01b0384811660048301529151600093929092169163ea67db2291602480820192602092909190829003018186803b1580156128b557600080fd5b505afa1580156128c9573d6000803e3d6000fd5b505050506040513d60208110156128df57600080fd5b505192915050565b60006113358484846131be565b6000808290506000806000836001600160a01b031663c37f68e2336040518263ffffffff1660e01b815260040180826001600160a01b03166001600160a01b0316815260200191505060806040518083038186803b15801561295557600080fd5b505afa158015612969573d6000803e3d6000fd5b505050506040513d608081101561297f57600080fd5b5080516020820151604090920151909450909250905082156129d25760405162461bcd60e51b81526004018080602001828103825260258152602001806138586025913960400191505060405180910390fd5b80156129ef576129e4600b6002612c3c565b945050505050610fa8565b60006129fc8733856131be565b90508015612a1d57612a11600d6003836133de565b95505050505050610fa8565b6001600160a01b0385166000908152600760209081526040808320338452600281019092529091205460ff16612a5c5760009650505050505050610fa8565b3360009081526002820160209081526040808320805460ff191690556006825291829020805483518184028101840190945280845260609392830182828015612ace57602002820191906000526020600020905b81546001600160a01b03168152600190910190602001808311612ab0575b5050835193945083925060009150505b82811015612b2357896001600160a01b0316848281518110612afc57fe5b60200260200101516001600160a01b03161415612b1b57809150612b23565b600101612ade565b50818110612b2d57fe5b336000908152600660205260409020805481906000198101908110612b4e57fe5b9060005260206000200160009054906101000a90046001600160a01b0316818381548110612b7857fe5b9060005260206000200160006101000a8154816001600160a01b0302191690836001600160a01b0316021790555080805480612bb057fe5b6000828152602090819020820160001990810180546001600160a01b0319169055909101909155604080516001600160a01b038d168152339281019290925280517fe699a64c18b07ac5b7301aa273f36a2287239eb9501d81950672794afba29a0d9281900390910190a160009c9b505050505050505050505050565b6000546001600160a01b031681565b60007f45b96fe442630264581b197e84bbada861235052c5a1aadfff9ea4e40a969aa0836010811115612c6b57fe5b836013811115612c7757fe5b604080519283526020830191909152600082820152519081900360600190a182601081111561133857fe5b519051111590565b5190511090565b6000806000612cbe61379e565b6001600160a01b038816600090815260066020908152604080832080548251818502810185019093528083528493606093929190830182828015612d2b57602002820191906000526020600020905b81546001600160a01b03168152600190910190602001808311612d0d575b50939450600093505050505b8151811015613027576000828281518110612d4e57fe5b60200260200101519050806001600160a01b031663c37f68e28e6040518263ffffffff1660e01b815260040180826001600160a01b03166001600160a01b0316815260200191505060806040518083038186803b158015612dae57600080fd5b505afa158015612dc2573d6000803e3d6000fd5b505050506040513d6080811015612dd857600080fd5b508051602082015160408084015160609485015160808c0152938a01939093529188019190915294508415612e1e5750600e97506000965086955061129f945050505050565b60408051602080820183526001600160a01b03841660009081526007825283902060010154825260c089019190915281519081019091526080870151815260e0870152612e6a81612095565b60a08701819052612e8c5750600c97506000965086955061129f945050505050565b604080516020810190915260a08701518152610100870181905260c087015160e0880151612eb992613444565b61012088015293506000846003811115612ecf57fe5b14612eeb5750600a97506000965086955061129f945050505050565b612f038661012001518760400151886000015161349c565b875293506000846003811115612f1557fe5b14612f315750600a97506000965086955061129f945050505050565b612f498661010001518760600151886020015161349c565b602088015293506000846003811115612f5e57fe5b14612f7a5750600a97506000965086955061129f945050505050565b8b6001600160a01b0316816001600160a01b0316141561301e57612fa88661012001518c886020015161349c565b602088015293506000846003811115612fbd57fe5b14612fd95750600a97506000965086955061129f945050505050565b612fed8661010001518b886020015161349c565b60208801529350600084600381111561300257fe5b1461301e5750600a97506000965086955061129f945050505050565b50600101612d37565b5060208401518451111561304e57505050602081015190516000945003915082905061129f565b505081516020909201516000955085945091909103915061129f9050565b600080600061307f846000806000612cb1565b9250925092509193909250565b600080600061309961378b565b6130a386866134e9565b909250905060008260038111156130b657fe5b146130c757509150600090506130d9565b60006130d282613551565b9350935050505b9250929050565b60005b60085481101561316b57816001600160a01b03166008828154811061310457fe5b6000918252602090912001546001600160a01b03161415613163576040805162461bcd60e51b81526020600482015260146024820152731b585c9ad95d08185b1c9958591e48185919195960621b604482015290519081900360640190fd5b6001016130e3565b50600880546001810182556000919091527ff3f7a9fe364faab93b216da50a3214154f22a0a2b415b23a84c8169e8b636ee30180546001600160a01b0319166001600160a01b0392909216919091179055565b6001600160a01b03831660009081526007602052604081205460ff166131e557600861132b565b6001600160a01b038085166000908152600760209081526040808320938716835260029093019052205460ff1661321d57600061132b565b60008061322d8587866000612cb1565b9193509091506000905082601081111561324357fe5b1461325d5781601081111561325457fe5b92505050611338565b80156122a0576004613254565b6001600160a01b0382166000908152600760205260408120805460ff16613295576008915050610e19565b6001600160a01b038316600090815260028201602052604090205460ff161515600114156132c7576000915050610e19565b6005546001600160a01b038416600090815260066020526040902054106132f257600f915050610e19565b6001600160a01b0380841660008181526002840160209081526040808320805460ff19166001908117909155600683528184208054918201815584529282902090920180549489166001600160a01b031990951685179055815193845283019190915280517f3ab23ab0d51cccc0c3085aec51f99228625aa1a922b3a8ca89a26b0f2027a1a59281900390910190a15060009392505050565b600061339561378b565b6133bb604051806020016040528086815250604051806020016040528086815250613560565b915091509250929050565b60006133d061378b565b835183516133bb919061364a565b60007f45b96fe442630264581b197e84bbada861235052c5a1aadfff9ea4e40a969aa084601081111561340d57fe5b84601381111561341957fe5b604080519283526020830191909152818101859052519081900360600190a183601081111561133557fe5b600061344e61378b565b600061345861378b565b6134628787613560565b9092509050600082600381111561347557fe5b14613484579092509050611e9b565b61348e8186613560565b935093505050935093915050565b60008060006134a961378b565b6134b387876134e9565b909250905060008260038111156134c657fe5b146134d75750915060009050611e9b565b61348e6134e382613551565b866136fb565b60006134f361378b565b600080613504866000015186613721565b9092509050600082600381111561351757fe5b14613536575060408051602081019091526000815290925090506130d9565b60408051602081019091529081526000969095509350505050565b51670de0b6b3a7640000900490565b600061356a61378b565b60008061357f86600001518660000151613721565b9092509050600082600381111561359257fe5b146135b1575060408051602081019091526000815290925090506130d9565b6000806135c66706f05b59d3b20000846136fb565b909250905060008260038111156135d957fe5b146135fc57816040518060200160405280600081525095509550505050506130d9565b60008061361183670de0b6b3a7640000613760565b9092509050600082600381111561362457fe5b1461362b57fe5b604080516020810190915290815260009a909950975050505050505050565b600061365461378b565b60008061366986670de0b6b3a7640000613721565b9092509050600082600381111561367c57fe5b1461369b575060408051602081019091526000815290925090506130d9565b6000806136a88388613760565b909250905060008260038111156136bb57fe5b146136de57816040518060200160405280600081525095509550505050506130d9565b604080516020810190915290815260009890975095505050505050565b600080838301848110613713576000925090506130d9565b5060029150600090506130d9565b60008083613734575060009050806130d9565b8383028385828161374157fe5b0414613755575060029150600090506130d9565b6000925090506130d9565b6000808261377457506001905060006130d9565b600083858161377f57fe5b04915091509250929050565b6040518060200160405280600081525090565b6040518061014001604052806000815260200160008152602001600081526020016000815260200160008152602001600081526020016137dc61378b565b81526020016137e961378b565b81526020016137f661378b565b815260200161380361378b565b90529056fe63616e6e6f742070617573652061206d61726b65742074686174206973206e6f74206c69737465646f6e6c7920706175736520677561726469616e20616e642061646d696e2063616e207061757365657869744d61726b65743a206765744163636f756e74536e617073686f74206661696c6564a264697066735822122080c0b49de22dfc4e02d8265e9159c97221f87e86c690d0fb7ca0f1a840a2317764736f6c63430006090033",
  "immutableReferences": {},
  "source": "// SPDX-License-Identifier: UNLICENSED\npragma solidity ^0.6.9;\n\nimport \"../tokenization/PToken.sol\";\nimport \"../utils/ErrorReporter.sol\";\nimport \"../utils/Exponential.sol\";\nimport \"../oracle/PriceOracle.sol\";\nimport \"./IRiskManager.sol\";\nimport \"./RiskManagerStorage.sol\";\n\n/**\n * @title Contracts for administration and risk control\n */\ncontract RiskManager is RiskManagerStorage, IRiskManager, RiskManagerErrorReporter, Exponential {\n    /**\n     * @notice Emitted when an admin supports a market\n     */\n    event MarketListed(PToken pToken);\n\n    /**\n     * @notice Emitted when an account enters a market\n     */\n    event MarketEntered(PToken pToken, address account);\n\n    /**\n     * @notice Emitted when an account exits a market\n     */\n    event MarketExited(PToken pToken, address account);\n\n    /**\n     * @notice Emitted when close factor is changed by admin\n     */\n    event NewCloseFactor(uint oldCloseFactorMantissa, uint newCloseFactorMantissa);\n\n    /**\n     * @notice Emitted when a collateral factor is changed by admin\n     */\n    event NewCollateralFactor(PToken pToken, uint oldCollateralFactorMantissa, uint newCollateralFactorMantissa);\n\n    /**\n     * @notice Emitted when liquidation incentive is changed by admin\n     */\n    event NewLiquidationIncentive(uint oldLiquidationIncentiveMantissa, uint newLiquidationIncentiveMantissa);\n\n    /**\n     * @notice Emitted when maxAssets is changed by admin\n     */\n    event NewMaxAssets(uint oldMaxAssets, uint newMaxAssets);\n\n    /**\n     * @notice Emitted when price oracle is changed\n     */\n    event NewPriceOracle(PriceOracle oldPriceOracle, PriceOracle newPriceOracle);\n\n    /**\n     * @notice Emitted when pause guardian is changed\n     */\n    event NewPauseGuardian(address oldPauseGuardian, address newPauseGuardian);\n\n    /**\n     * @notice Emitted when an action is paused globally\n     */\n    event ActionPaused(string action, bool pauseState);\n\n    /**\n     * @notice Emitted when an action is paused on a market\n     */\n    event ActionPaused(PToken pToken, string action, bool pauseState);\n\n    /**\n     * @notice Emitted when pendingAdmin is changed\n     */\n    event NewPendingAdmin(address oldPendingAdmin, address newPendingAdmin);\n\n    /**\n     * @notice Emitted when pendingAdmin is accepted, which means admin is updated\n     */\n    event NewAdmin(address oldAdmin, address newAdmin);\n\n\n    // closeFactorMantissa must be strictly greater than this value\n    uint internal constant closeFactorMinMantissa = 0.05e18; // 0.05\n\n    // closeFactorMantissa must not exceed this value\n    uint internal constant closeFactorMaxMantissa = 0.9e18; // 0.9\n\n    // No collateralFactorMantissa may exceed this value\n    uint internal constant collateralFactorMaxMantissa = 0.9e18; // 0.9\n\n    // liquidationIncentiveMantissa must be no less than this value\n    uint internal constant liquidationIncentiveMinMantissa = 1.0e18; // 1.0\n\n    // liquidationIncentiveMantissa must be no greater than this value\n    uint internal constant liquidationIncentiveMaxMantissa = 1.5e18; // 1.5\n\n    constructor() public {\n        admin = msg.sender;\n    }\n\n    /*** Assets You Are In ***/\n\n    /**\n      * @notice Returns the assets an account has entered\n      * @param account The address of the account to pull assets for\n      * @return A dynamic list with the assets the account has entered\n      */\n    function getAssetsIn(address account) external view returns (PToken[] memory) {\n        PToken[] memory assetsIn = accountAssets[account];\n\n        return assetsIn;\n    }\n\n    /**\n      * @notice Returns whether the given account is entered in the given asset\n      * @param account The address of the account to check\n      * @param pToken The pToken to check\n      * @return True if the account is in the asset, otherwise false.\n      */\n    function checkMembership(address account, PToken pToken) external view returns (bool) {\n        return markets[address(pToken)].accountMembership[account];\n    }\n\n    /**\n     * @notice Add assets to be included in account liquidity calculation\n     * @param pTokens The list of addresses of the pToken markets to be enabled\n     * @return Success indicator for whether each corresponding market was entered\n     */\n    function enterMarkets(address[] memory pTokens) public override returns (uint[] memory) {\n        uint len = pTokens.length;\n\n        uint[] memory results = new uint[](len);\n        for (uint i = 0; i < len; i++) {\n            PToken pToken = PToken(pTokens[i]);\n\n            results[i] = uint(addToMarketInternal(pToken, msg.sender));\n        }\n\n        return results;\n    }\n\n    /**\n     * @notice Add the market to the borrower's \"assets in\" for liquidity calculations\n     * @param pToken The market to enter\n     * @param borrower The address of the account to modify\n     * @return Success indicator for whether the market was entered\n     */\n    function addToMarketInternal(PToken pToken, address borrower) internal returns (Error) {\n        Market storage marketToJoin = markets[address(pToken)];\n\n        if (!marketToJoin.isListed) {\n            // market is not listed, cannot join\n            return Error.MARKET_NOT_LISTED;\n        }\n\n        if (marketToJoin.accountMembership[borrower] == true) {\n            // already joined\n            return Error.NO_ERROR;\n        }\n\n        if (accountAssets[borrower].length >= maxAssets)  {\n            // no space, cannot join\n            return Error.TOO_MANY_ASSETS;\n        }\n\n        marketToJoin.accountMembership[borrower] = true;\n        accountAssets[borrower].push(pToken);\n\n        emit MarketEntered(pToken, borrower);\n\n        return Error.NO_ERROR;\n    }\n\n    /**\n    * @notice Removes asset from sender's account liquidity calculation\n    * @dev Sender must not have an outstanding borrow balance in the asset,\n    *  or be providing necessary collateral for an outstanding borrow.\n    * @param pTokenAddress The address of the asset to be removed\n    * @return Whether or not the account successfully exited the market\n    */\n    function exitMarket(address pTokenAddress) external override returns (uint) {\n        PToken pToken = PToken(pTokenAddress);\n        /* Get sender tokensHeld and amountOwed underlying from the pToken */\n        (uint oErr, uint tokensHeld, uint amountOwed, ) = pToken.getAccountSnapshot(msg.sender);\n        require(oErr == 0, \"exitMarket: getAccountSnapshot failed\"); // semi-opaque error code\n\n        /* Fail if the sender has a borrow balance */\n        if (amountOwed != 0) {\n            return fail(Error.NONZERO_BORROW_BALANCE, FailureInfo.EXIT_MARKET_BALANCE_OWED);\n        }\n\n        /* Fail if the sender is not permitted to redeem all of their tokens */\n        uint allowed = redeemAllowedInternal(pTokenAddress, msg.sender, tokensHeld);\n        if (allowed != 0) {\n            return failOpaque(Error.REJECTION, FailureInfo.EXIT_MARKET_REJECTION, allowed);\n        }\n\n        Market storage marketToExit = markets[address(pToken)];\n\n        if (!marketToExit.accountMembership[msg.sender]) {\n            return uint(Error.NO_ERROR);\n        }\n\n        /* Set pToken account membership to false */\n        delete marketToExit.accountMembership[msg.sender];\n\n        /* Delete pToken from the accounts list of assets */\n        // load into memory for faster iteration\n        PToken[] memory userAssetList = accountAssets[msg.sender];\n        uint len = userAssetList.length;\n        uint assetIndex = len;\n        for (uint i = 0; i < len; i++) {\n            if (userAssetList[i] == pToken) {\n                assetIndex = i;\n                break;\n            }\n        }\n\n        // We *must* have found the asset in the list or our redundant data structure is broken\n        assert(assetIndex < len);\n\n        // copy last item in list to location of item to be removed, reduce length by 1\n        PToken[] storage storedList = accountAssets[msg.sender];\n        storedList[assetIndex] = storedList[storedList.length - 1];\n        storedList.pop();\n\n        emit MarketExited(pToken, msg.sender);\n\n        return uint(Error.NO_ERROR);\n    }\n\n    /*** Policy Hooks ***/\n\n    /**\n     * @notice Checks if the account should be allowed to mint tokens in the given market\n     * @param pToken The market to verify the mint against\n     * @param minter The account which would get the minted tokens\n     * @param mintAmount The amount of underlying being supplied to the market in exchange for tokens\n     * @return 0 if the mint is allowed, otherwise a semi-opaque error code (See ErrorReporter.sol)\n     */\n    function mintAllowed(address pToken, address minter, uint mintAmount) external override returns (uint) {\n        // Pausing is a very serious situation - we revert to sound the alarms\n        require(!mintGuardianPaused[pToken], \"mint is paused\");\n\n        // Shh - currently unused\n        minter;\n        mintAmount;\n\n        if (!markets[pToken].isListed) {\n            return uint(Error.MARKET_NOT_LISTED);\n        }\n\n        // *may include Policy Hook-type checks\n\n        return uint(Error.NO_ERROR);\n    }\n\n    /**\n     * @notice Checks if the account should be allowed to redeem tokens in the given market\n     * @param pToken The market to verify the redeem against\n     * @param redeemer The account which would redeem the tokens\n     * @param redeemTokens The number of pTokens to exchange for the underlying asset in the market\n     * @return 0 if the redeem is allowed, otherwise a semi-opaque error code (See ErrorReporter.sol)\n     */\n    function redeemAllowed(address pToken, address redeemer, uint redeemTokens) external override returns (uint) {\n        return redeemAllowedInternal(pToken, redeemer, redeemTokens);\n    }\n\n    function redeemAllowedInternal(address pToken, address redeemer, uint redeemTokens) internal view returns (uint) {\n        if (!markets[pToken].isListed) {\n            return uint(Error.MARKET_NOT_LISTED);\n        }\n\n        // *may include Policy Hook-type checks\n\n        /* If the redeemer is not 'in' the market, then we can bypass the liquidity check */\n        if (!markets[pToken].accountMembership[redeemer]) {\n            return uint(Error.NO_ERROR);\n        }\n\n        /* Otherwise, perform a hypothetical liquidity check to guard against shortfall */\n        (Error err, , uint shortfall) = getHypotheticalAccountLiquidityInternal(redeemer, PToken(pToken), redeemTokens, 0);\n        if (err != Error.NO_ERROR) {\n            return uint(err);\n        }\n        if (shortfall > 0) {\n            return uint(Error.INSUFFICIENT_LIQUIDITY);\n        }\n\n        return uint(Error.NO_ERROR);\n    }\n\n    /**\n     * @notice Checks if the account should be allowed to borrow the underlying asset of the given market\n     * @param pToken The market to verify the borrow against\n     * @param borrower The account which would borrow the asset\n     * @param borrowAmount The amount of underlying the account would borrow\n     * @return 0 if the borrow is allowed, otherwise a semi-opaque error code (See ErrorReporter.sol)\n     */\n    function borrowAllowed(address pToken, address borrower, uint borrowAmount) external override returns (uint) {\n        // Pausing is a very serious situation - we revert to sound the alarms\n        require(!borrowGuardianPaused[pToken], \"borrow is paused\");\n\n        if (!markets[pToken].isListed) {\n            return uint(Error.MARKET_NOT_LISTED);\n        }\n\n        if (!markets[pToken].accountMembership[borrower]) {\n            // only pTokens may call borrowAllowed if borrower not in market\n            require(msg.sender == pToken, \"sender must be pToken\");\n\n            // attempt to add borrower to the market\n            Error err = addToMarketInternal(PToken(msg.sender), borrower);\n            if (err != Error.NO_ERROR) {\n                return uint(err);\n            }\n\n            // it should be impossible to break the important invariant\n            assert(markets[pToken].accountMembership[borrower]);\n        }\n\n        (uint256 tokenPrice, ) = oracle.getUnderlyingPrice(PToken(pToken));\n        if (tokenPrice == 0) {\n            return uint(Error.PRICE_ERROR);\n        }\n\n        (Error err, , uint shortfall) = getHypotheticalAccountLiquidityInternal(borrower, PToken(pToken), 0, borrowAmount);\n        if (err != Error.NO_ERROR) {\n            return uint(err);\n        }\n        if (shortfall > 0) {\n            return uint(Error.INSUFFICIENT_LIQUIDITY);\n        }\n\n        return uint(Error.NO_ERROR);\n    }\n\n    /**\n     * @notice Checks if the account should be allowed to repay a borrow in the given market\n     * @param pToken The market to verify the repay against\n     * @param payer The account which would repay the asset\n     * @param borrower The account which would borrowed the asset\n     * @param repayAmount The amount of the underlying asset the account would repay\n     * @return 0 if the repay is allowed, otherwise a semi-opaque error code (See ErrorReporter.sol)\n     */\n    function repayBorrowAllowed(\n        address pToken,\n        address payer,\n        address borrower,\n        uint repayAmount) external override returns (uint) {\n        // Shh - currently unused\n        payer;\n        borrower;\n        repayAmount;\n\n        if (!markets[pToken].isListed) {\n            return uint(Error.MARKET_NOT_LISTED);\n        }\n\n        return uint(Error.NO_ERROR);\n    }\n\n    /**\n     * @notice Checks if the liquidation should be allowed to occur\n     * @param pTokenBorrowed Asset which was borrowed by the borrower\n     * @param pTokenCollateral Asset which was used as collateral and will be seized\n     * @param liquidator The address repaying the borrow and seizing the collateral\n     * @param borrower The address of the borrower\n     * @param repayAmount The amount of underlying being repaid\n     */\n    function liquidateBorrowAllowed(\n        address pTokenBorrowed,\n        address pTokenCollateral,\n        address liquidator,\n        address borrower,\n        uint repayAmount) external override returns (uint) {\n        // Shh - currently unused\n        liquidator;\n\n        if (!markets[pTokenBorrowed].isListed || !markets[pTokenCollateral].isListed) {\n            return uint(Error.MARKET_NOT_LISTED);\n        }\n\n        /* The borrower must have shortfall in order to be liquidatable */\n        (Error err, , uint shortfall) = getAccountLiquidityInternal(borrower);\n        if (err != Error.NO_ERROR) {\n            return uint(err);\n        }\n        if (shortfall == 0) {\n            return uint(Error.INSUFFICIENT_SHORTFALL);\n        }\n\n        /* The liquidator may not repay more than what is allowed by the closeFactor */\n        uint borrowBalance = PToken(pTokenBorrowed).borrowBalanceStored(borrower);\n        (MathError mathErr, uint maxClose) = mulScalarTruncate(Exp({mantissa: closeFactorMantissa}), borrowBalance);\n        if (mathErr != MathError.NO_ERROR) {\n            return uint(Error.MATH_ERROR);\n        }\n        if (repayAmount > maxClose) {\n            return uint(Error.TOO_MUCH_REPAY);\n        }\n\n        return uint(Error.NO_ERROR);\n    }\n\n    /**\n     * @notice Checks if the seizing of assets should be allowed to occur\n     * @param pTokenCollateral Asset which was used as collateral and will be seized\n     * @param pTokenBorrowed Asset which was borrowed by the borrower\n     * @param liquidator The address repaying the borrow and seizing the collateral\n     * @param borrower The address of the borrower\n     * @param seizeTokens The number of collateral tokens to seize\n     */\n    function seizeAllowed(\n        address pTokenCollateral,\n        address pTokenBorrowed,\n        address liquidator,\n        address borrower,\n        uint seizeTokens) external override returns (uint) {\n        // Pausing is a very serious situation - we revert to sound the alarms\n        require(!seizeGuardianPaused, \"seize is paused\");\n\n        // Shh - currently unused\n        liquidator;\n        borrower;\n        seizeTokens;\n\n        if (!markets[pTokenCollateral].isListed || !markets[pTokenBorrowed].isListed) {\n            return uint(Error.MARKET_NOT_LISTED);\n        }\n\n        if (PToken(pTokenCollateral).riskManager() != PToken(pTokenBorrowed).riskManager()) {\n            return uint(Error.RISKMANAGER_MISMATCH);\n        }\n\n        return uint(Error.NO_ERROR);\n    }\n\n    /**\n     * @notice Checks if the account should be allowed to transfer tokens in the given market\n     * @param pToken The market to verify the transfer against\n     * @param src The account which sources the tokens\n     * @param dst The account which receives the tokens\n     * @param transferTokens The number of pTokens to transfer\n     * @return 0 if the transfer is allowed, otherwise a semi-opaque error code (See ErrorReporter.sol)\n     */\n    function transferAllowed(address pToken, address src, address dst, uint transferTokens) external override returns (uint) {\n        // Pausing is a very serious situation - we revert to sound the alarms\n        require(!transferGuardianPaused, \"transfer is paused\");\n\n        // Shh - currently unused\n        dst;\n\n        // *may include Policy Hook-type checks\n\n        // Currently the only consideration is whether or not\n        //  the src is allowed to redeem this many tokens\n        return redeemAllowedInternal(pToken, src, transferTokens);\n    }\n\n    /*** Liquidity/Liquidation Calculations ***/\n\n    /**\n     * @dev Local vars for avoiding stack-depth limits in calculating account liquidity.\n     *  Note that `pTokenBalance` is the number of pTokens the account owns in the market,\n     *  whereas `borrowBalance` is the amount of underlying that the account has borrowed.\n     */\n    struct AccountLiquidityLocalVars {\n        uint sumCollateral;\n        uint sumBorrowPlusEffects;\n        uint pTokenBalance;\n        uint borrowBalance;\n        uint exchangeRateMantissa;\n        uint oraclePriceMantissa;\n        Exp collateralFactor;\n        Exp exchangeRate;\n        Exp oraclePrice;\n        Exp tokensToEther;\n    }\n\n    /**\n     * @notice Determine the current account liquidity wrt collateral requirements\n     * @return (possible error code (semi-opaque),\n                account liquidity in excess of collateral requirements,\n     *          account shortfall below collateral requirements)\n     */\n    function getAccountLiquidity(address account) public view returns (uint, uint, uint) {\n        (Error err, uint liquidity, uint shortfall) = getHypotheticalAccountLiquidityInternal(account, PToken(0), 0, 0);\n\n        return (uint(err), liquidity, shortfall);\n    }\n\n    /**\n     * @notice Determine the current account liquidity wrt collateral requirements\n     * @return (possible error code,\n                account liquidity in excess of collateral requirements,\n     *          account shortfall below collateral requirements)\n     */\n    function getAccountLiquidityInternal(address account) internal view returns (Error, uint, uint) {\n        return getHypotheticalAccountLiquidityInternal(account, PToken(0), 0, 0);\n    }\n\n    /**\n     * @notice Determine what the account liquidity would be if the given amounts were redeemed/borrowed\n     * @param pTokenModify The market to hypothetically redeem/borrow in\n     * @param account The account to determine liquidity for\n     * @param redeemTokens The number of tokens to hypothetically redeem\n     * @param borrowAmount The amount of underlying to hypothetically borrow\n     * @return (possible error code (semi-opaque),\n                hypothetical account liquidity in excess of collateral requirements,\n     *          hypothetical account shortfall below collateral requirements)\n     */\n    function getHypotheticalAccountLiquidity(\n        address account,\n        address pTokenModify,\n        uint redeemTokens,\n        uint borrowAmount) public view returns (uint, uint, uint) {\n        (Error err, uint liquidity, uint shortfall) = getHypotheticalAccountLiquidityInternal(account, PToken(pTokenModify), redeemTokens, borrowAmount);\n        return (uint(err), liquidity, shortfall);\n    }\n\n    function getPriceCost(address asset) external view override returns (uint256) {\n        return oracle.getPriceCost(PToken(asset));\n    }\n\n    function getTokenPrice(address asset) public view returns (uint256) {\n        (uint256 oraclePriceMantissa,) = oracle.getUnderlyingPrice(PToken(asset));\n        return oraclePriceMantissa;\n    }\n\n    function updateAndGetTokenPrice(address asset) external override payable returns (uint256) {\n        (uint256 oraclePriceMantissa, uint256 blockNum) = oracle.getUnderlyingPrice(PToken(asset));\n        if (oraclePriceMantissa != 0 && blockNum == block.number) return oraclePriceMantissa;\n\n        uint256 priceCost = oracle.getPriceCost(PToken(asset));\n        require(msg.value == priceCost, \"No enough balance.\");\n        oraclePriceMantissa = oracle.updateAndGetUnderlyingPrice{value: msg.value}(PToken(asset));\n        return oraclePriceMantissa;\n    }\n\n     /**\n      * @notice Determine what the account liquidity would be if the given amounts were redeemed/borrowed\n      * @param pTokenModify The market to hypothetically redeem/borrow in\n      * @param account The account to determine liquidity for\n      * @param redeemTokens The number of tokens to hypothetically redeem\n      * @param borrowAmount The amount of underlying to hypothetically borrow\n      * @dev Note that we calculate the exchangeRateStored for each collateral pToken using stored data,\n      *  without calculating accumulated interest.\n      * @return (possible error code,\n                 hypothetical account liquidity in excess of collateral requirements,\n      *          hypothetical account shortfall below collateral requirements)\n      */\n    function getHypotheticalAccountLiquidityInternal(\n        address account,\n        PToken pTokenModify,\n        uint redeemTokens,\n        uint borrowAmount) internal view returns (Error, uint, uint) {\n\n        AccountLiquidityLocalVars memory vars;\n        uint oErr;\n        MathError mErr;\n\n        PToken[] memory assets = accountAssets[account];\n        for (uint i = 0; i < assets.length; i++) {\n            PToken asset = assets[i];\n\n            // Read the balances and exchange rate from the pToken\n            (oErr, vars.pTokenBalance, vars.borrowBalance, vars.exchangeRateMantissa) = asset.getAccountSnapshot(account);\n            if (oErr != 0) {\n                return (Error.SNAPSHOT_ERROR, 0, 0);\n            }\n            vars.collateralFactor = Exp({mantissa: markets[address(asset)].collateralFactorMantissa});\n            vars.exchangeRate = Exp({mantissa: vars.exchangeRateMantissa});\n\n            // Get the normalized price of the asset\n            vars.oraclePriceMantissa = getTokenPrice(address(asset));\n            if (vars.oraclePriceMantissa == 0) {\n                return (Error.PRICE_ERROR, 0, 0);\n            }\n            vars.oraclePrice = Exp({mantissa: vars.oraclePriceMantissa});\n\n            // Pre-compute a conversion factor from tokens -> ether (normalized price value)\n            (mErr, vars.tokensToEther) = mulExp3(vars.collateralFactor, vars.exchangeRate, vars.oraclePrice);\n            if (mErr != MathError.NO_ERROR) {\n                return (Error.MATH_ERROR, 0, 0);\n            }\n\n            // sumCollateral += tokensToEther * pTokenBalance\n            (mErr, vars.sumCollateral) = mulScalarTruncateAddUInt(vars.tokensToEther, vars.pTokenBalance, vars.sumCollateral);\n            if (mErr != MathError.NO_ERROR) {\n                return (Error.MATH_ERROR, 0, 0);\n            }\n\n            // sumBorrowPlusEffects += oraclePrice * borrowBalance\n            (mErr, vars.sumBorrowPlusEffects) = mulScalarTruncateAddUInt(vars.oraclePrice, vars.borrowBalance, vars.sumBorrowPlusEffects);\n            if (mErr != MathError.NO_ERROR) {\n                return (Error.MATH_ERROR, 0, 0);\n            }\n\n            // Calculate effects of interacting with pTokenModify\n            if (asset == pTokenModify) {\n                // redeem effect\n                // sumBorrowPlusEffects += tokensToEther * redeemTokens\n                (mErr, vars.sumBorrowPlusEffects) = mulScalarTruncateAddUInt(vars.tokensToEther, redeemTokens, vars.sumBorrowPlusEffects);\n                if (mErr != MathError.NO_ERROR) {\n                    return (Error.MATH_ERROR, 0, 0);\n                }\n\n                // borrow effect\n                // sumBorrowPlusEffects += oraclePrice * borrowAmount\n                (mErr, vars.sumBorrowPlusEffects) = mulScalarTruncateAddUInt(vars.oraclePrice, borrowAmount, vars.sumBorrowPlusEffects);\n                if (mErr != MathError.NO_ERROR) {\n                    return (Error.MATH_ERROR, 0, 0);\n                }\n            }\n        }\n\n        // These are safe, as the underflow condition is checked first\n        if (vars.sumCollateral > vars.sumBorrowPlusEffects) {\n            return (Error.NO_ERROR, vars.sumCollateral - vars.sumBorrowPlusEffects, 0);\n        } else {\n            return (Error.NO_ERROR, 0, vars.sumBorrowPlusEffects - vars.sumCollateral);\n        }\n    }\n\n    /**\n     * @notice Calculate number of tokens of collateral asset to seize given an underlying amount\n     * @dev Used in liquidation (called in pToken.liquidateBorrowFresh)\n     * @param pTokenBorrowed The address of the borrowed pToken\n     * @param pTokenCollateral The address of the collateral pToken\n     * @param actualRepayAmount The amount of pTokenBorrowed underlying to convert into pTokenCollateral tokens\n     * @return (errorCode, number of pTokenCollateral tokens to be seized in a liquidation)\n     */\n    function liquidateCalculateSeizeTokens(address pTokenBorrowed, address pTokenCollateral, uint actualRepayAmount) external view override returns (uint, uint) {\n        /* Read oracle prices for borrowed and collateral markets */\n        uint priceBorrowedMantissa = getTokenPrice(pTokenBorrowed);\n        uint priceCollateralMantissa = getTokenPrice(pTokenCollateral);\n        if (priceBorrowedMantissa == 0 || priceCollateralMantissa == 0) {\n            return (uint(Error.PRICE_ERROR), 0);\n        }\n\n        /*\n         * Get the exchange rate and calculate the number of collateral tokens to seize:\n         *  seizeAmount = actualRepayAmount * liquidationIncentive * priceBorrowed / priceCollateral\n         *  seizeTokens = seizeAmount / exchangeRate\n         *   = actualRepayAmount * (liquidationIncentive * priceBorrowed) / (priceCollateral * exchangeRate)\n         */\n        uint exchangeRateMantissa = PToken(pTokenCollateral).exchangeRateStored(); // Note: reverts on error\n        uint seizeTokens;\n        Exp memory numerator;\n        Exp memory denominator;\n        Exp memory ratio;\n        MathError mathErr;\n\n        (mathErr, numerator) = mulExp(liquidationIncentiveMantissa, priceBorrowedMantissa);\n        if (mathErr != MathError.NO_ERROR) {\n            return (uint(Error.MATH_ERROR), 0);\n        }\n\n        (mathErr, denominator) = mulExp(priceCollateralMantissa, exchangeRateMantissa);\n        if (mathErr != MathError.NO_ERROR) {\n            return (uint(Error.MATH_ERROR), 0);\n        }\n\n        (mathErr, ratio) = divExp(numerator, denominator);\n        if (mathErr != MathError.NO_ERROR) {\n            return (uint(Error.MATH_ERROR), 0);\n        }\n\n        (mathErr, seizeTokens) = mulScalarTruncate(ratio, actualRepayAmount);\n        if (mathErr != MathError.NO_ERROR) {\n            return (uint(Error.MATH_ERROR), 0);\n        }\n\n        return (uint(Error.NO_ERROR), seizeTokens);\n    }\n\n    /*** Admin Functions ***/\n\n    /**\n      * @notice Sets a new price oracle for the riskManager\n      * @dev Admin function to set a new price oracle\n      * @return uint 0=success, otherwise a failure (see ErrorReporter.sol for details)\n      */\n    function _setPriceOracle(PriceOracle newOracle) public returns (uint) {\n        // Check caller is admin\n        if (msg.sender != admin) {\n            return fail(Error.UNAUTHORIZED, FailureInfo.SET_PRICE_ORACLE_OWNER_CHECK);\n        }\n\n        // Track the old oracle for the riskManager\n        PriceOracle oldOracle = oracle;\n\n        // Set riskManager's oracle to newOracle\n        oracle = newOracle;\n\n        // Emit NewPriceOracle(oldOracle, newOracle)\n        emit NewPriceOracle(oldOracle, newOracle);\n\n        return uint(Error.NO_ERROR);\n    }\n\n    /**\n      * @notice Sets the closeFactor used when liquidating borrows\n      * @dev Admin function to set closeFactor\n      * @param newCloseFactorMantissa New close factor, scaled by 1e18\n      * @return uint 0=success, otherwise a failure. (See ErrorReporter for details)\n      */\n    function _setCloseFactor(uint newCloseFactorMantissa) external returns (uint256) {\n        // Check caller is admin\n        if (msg.sender != admin) {\n            return fail(Error.UNAUTHORIZED, FailureInfo.SET_CLOSE_FACTOR_OWNER_CHECK);\n        }\n\n        Exp memory newCloseFactorExp = Exp({mantissa: newCloseFactorMantissa});\n        Exp memory lowLimit = Exp({mantissa: closeFactorMinMantissa});\n        if (lessThanOrEqualExp(newCloseFactorExp, lowLimit)) {\n            return fail(Error.INVALID_CLOSE_FACTOR, FailureInfo.SET_CLOSE_FACTOR_VALIDATION);\n        }\n\n        Exp memory highLimit = Exp({mantissa: closeFactorMaxMantissa});\n        if (lessThanExp(highLimit, newCloseFactorExp)) {\n            return fail(Error.INVALID_CLOSE_FACTOR, FailureInfo.SET_CLOSE_FACTOR_VALIDATION);\n        }\n\n        uint oldCloseFactorMantissa = closeFactorMantissa;\n        closeFactorMantissa = newCloseFactorMantissa;\n        emit NewCloseFactor(oldCloseFactorMantissa, closeFactorMantissa);\n\n        return uint(Error.NO_ERROR);\n    }\n\n    /**\n      * @notice Sets the collateralFactor for a market\n      * @dev Admin function to set per-market collateralFactor\n      * @param pToken The market to set the factor on\n      * @param newCollateralFactorMantissa The new collateral factor, scaled by 1e18\n      * @return uint 0=success, otherwise a failure. (See ErrorReporter for details)\n      */\n    function _setCollateralFactor(PToken pToken, uint newCollateralFactorMantissa) external payable returns (uint256) {\n        oracle.updateAndGetUnderlyingPrice{value: msg.value}(pToken);\n\n        // Check caller is admin\n        if (msg.sender != admin) {\n            return fail(Error.UNAUTHORIZED, FailureInfo.SET_COLLATERAL_FACTOR_OWNER_CHECK);\n        }\n\n        // Verify market is listed\n        Market storage market = markets[address(pToken)];\n        if (!market.isListed) {\n            return fail(Error.MARKET_NOT_LISTED, FailureInfo.SET_COLLATERAL_FACTOR_NO_EXISTS);\n        }\n\n        Exp memory newCollateralFactorExp = Exp({mantissa: newCollateralFactorMantissa});\n\n        // Check collateral factor <= 0.9\n        Exp memory highLimit = Exp({mantissa: collateralFactorMaxMantissa});\n        if (lessThanExp(highLimit, newCollateralFactorExp)) {\n            return fail(Error.INVALID_COLLATERAL_FACTOR, FailureInfo.SET_COLLATERAL_FACTOR_VALIDATION);\n        }\n\n        // If collateral factor != 0, fail if price == 0\n        if (newCollateralFactorMantissa != 0 && getTokenPrice(address(pToken)) == 0) {\n            return fail(Error.PRICE_ERROR, FailureInfo.SET_COLLATERAL_FACTOR_WITHOUT_PRICE);\n        }\n\n        // Set market's collateral factor to new collateral factor, remember old value\n        uint oldCollateralFactorMantissa = market.collateralFactorMantissa;\n        market.collateralFactorMantissa = newCollateralFactorMantissa;\n\n        // Emit event with asset, old collateral factor, and new collateral factor\n        emit NewCollateralFactor(pToken, oldCollateralFactorMantissa, newCollateralFactorMantissa);\n\n        return uint(Error.NO_ERROR);\n    }\n\n    /**\n      * @notice Sets maxAssets which controls how many markets can be entered\n      * @dev Admin function to set maxAssets\n      * @param newMaxAssets New max assets\n      * @return uint 0=success, otherwise a failure. (See ErrorReporter for details)\n      */\n    function _setMaxAssets(uint newMaxAssets) external returns (uint) {\n        // Check caller is admin\n        if (msg.sender != admin) {\n            return fail(Error.UNAUTHORIZED, FailureInfo.SET_MAX_ASSETS_OWNER_CHECK);\n        }\n\n        uint oldMaxAssets = maxAssets;\n        maxAssets = newMaxAssets;\n        emit NewMaxAssets(oldMaxAssets, newMaxAssets);\n\n        return uint(Error.NO_ERROR);\n    }\n\n    /**\n      * @notice Sets liquidationIncentive\n      * @dev Admin function to set liquidationIncentive\n      * @param newLiquidationIncentiveMantissa New liquidationIncentive scaled by 1e18\n      * @return uint 0=success, otherwise a failure. (See ErrorReporter for details)\n      */\n    function _setLiquidationIncentive(uint newLiquidationIncentiveMantissa) external returns (uint) {\n        // Check caller is admin\n        if (msg.sender != admin) {\n            return fail(Error.UNAUTHORIZED, FailureInfo.SET_LIQUIDATION_INCENTIVE_OWNER_CHECK);\n        }\n\n        // Check de-scaled min <= newLiquidationIncentive <= max\n        Exp memory newLiquidationIncentive = Exp({mantissa: newLiquidationIncentiveMantissa});\n        Exp memory minLiquidationIncentive = Exp({mantissa: liquidationIncentiveMinMantissa});\n        if (lessThanExp(newLiquidationIncentive, minLiquidationIncentive)) {\n            return fail(Error.INVALID_LIQUIDATION_INCENTIVE, FailureInfo.SET_LIQUIDATION_INCENTIVE_VALIDATION);\n        }\n\n        Exp memory maxLiquidationIncentive = Exp({mantissa: liquidationIncentiveMaxMantissa});\n        if (lessThanExp(maxLiquidationIncentive, newLiquidationIncentive)) {\n            return fail(Error.INVALID_LIQUIDATION_INCENTIVE, FailureInfo.SET_LIQUIDATION_INCENTIVE_VALIDATION);\n        }\n\n        // Save current value for use in log\n        uint oldLiquidationIncentiveMantissa = liquidationIncentiveMantissa;\n\n        // Set liquidation incentive to new incentive\n        liquidationIncentiveMantissa = newLiquidationIncentiveMantissa;\n\n        // Emit event with old incentive, new incentive\n        emit NewLiquidationIncentive(oldLiquidationIncentiveMantissa, newLiquidationIncentiveMantissa);\n\n        return uint(Error.NO_ERROR);\n    }\n\n    /**\n      * @notice Add the market to the markets mapping and set it as listed\n      * @dev Admin function to set isListed and add support for the market\n      * @param pToken The address of the market (token) to list\n      * @return uint 0=success, otherwise a failure. (See enum Error for details)\n      */\n    function _supportMarket(PToken pToken) external returns (uint) {\n        if (msg.sender != admin) {\n            return fail(Error.UNAUTHORIZED, FailureInfo.SUPPORT_MARKET_OWNER_CHECK);\n        }\n\n        if (markets[address(pToken)].isListed) {\n            return fail(Error.MARKET_ALREADY_LISTED, FailureInfo.SUPPORT_MARKET_EXISTS);\n        }\n\n        pToken.isPToken(); // Sanity check to make sure its really a PToken\n\n        markets[address(pToken)] = Market({isListed: true, collateralFactorMantissa: 0});\n\n        _addMarketInternal(address(pToken));\n\n        emit MarketListed(pToken);\n\n        return uint(Error.NO_ERROR);\n    }\n\n    function _addMarketInternal(address pToken) internal {\n        for (uint i = 0; i < allMarkets.length; i ++) {\n            require(allMarkets[i] != PToken(pToken), \"market already added\");\n        }\n        allMarkets.push(PToken(pToken));\n    }\n\n    /**\n     * @notice Return all of the markets\n     * @dev The automatic getter may be used to access an individual market.\n     * @return _allMarkets The list of market addresses\n     */\n    function getAllMarkets() external view override returns (address[] memory _allMarkets) {\n        _allMarkets = new address[](allMarkets.length);\n        for (uint i = 0; i < allMarkets.length; i++) {\n            _allMarkets[i] = address(allMarkets[i]);\n        }\n    }\n\n    /**\n     * @notice Admin function to change the Pause Guardian\n     * @param newPauseGuardian The address of the new Pause Guardian\n     * @return uint 0=success, otherwise a failure. (See enum Error for details)\n     */\n    function _setPauseGuardian(address newPauseGuardian) public returns (uint) {\n        if (msg.sender != admin) {\n            return fail(Error.UNAUTHORIZED, FailureInfo.SET_PAUSE_GUARDIAN_OWNER_CHECK);\n        }\n\n        // Save current value for inclusion in log\n        address oldPauseGuardian = pauseGuardian;\n\n        // Store pauseGuardian with value newPauseGuardian\n        pauseGuardian = newPauseGuardian;\n\n        // Emit NewPauseGuardian(OldPauseGuardian, NewPauseGuardian)\n        emit NewPauseGuardian(oldPauseGuardian, pauseGuardian);\n\n        return uint(Error.NO_ERROR);\n    }\n\n    function _setMintPaused(PToken pToken, bool state) public returns (bool) {\n        require(markets[address(pToken)].isListed, \"cannot pause a market that is not listed\");\n        require(msg.sender == pauseGuardian || msg.sender == admin, \"only pause guardian and admin can pause\");\n        require(msg.sender == admin || state == true, \"only admin can unpause\");\n\n        mintGuardianPaused[address(pToken)] = state;\n        emit ActionPaused(pToken, \"Mint\", state);\n        return state;\n    }\n\n    function _setBorrowPaused(PToken pToken, bool state) public returns (bool) {\n        require(markets[address(pToken)].isListed, \"cannot pause a market that is not listed\");\n        require(msg.sender == pauseGuardian || msg.sender == admin, \"only pause guardian and admin can pause\");\n        require(msg.sender == admin || state == true, \"only admin can unpause\");\n\n        borrowGuardianPaused[address(pToken)] = state;\n        emit ActionPaused(pToken, \"Borrow\", state);\n        return state;\n    }\n\n    function _setTransferPaused(bool state) public returns (bool) {\n        require(msg.sender == pauseGuardian || msg.sender == admin, \"only pause guardian and admin can pause\");\n        require(msg.sender == admin || state == true, \"only admin can unpause\");\n\n        transferGuardianPaused = state;\n        emit ActionPaused(\"Transfer\", state);\n        return state;\n    }\n\n    function _setSeizePaused(bool state) public returns (bool) {\n        require(msg.sender == pauseGuardian || msg.sender == admin, \"only pause guardian and admin can pause\");\n        require(msg.sender == admin || state == true, \"only admin can unpause\");\n\n        seizeGuardianPaused = state;\n        emit ActionPaused(\"Seize\", state);\n        return state;\n    }\n\n    /**\n      * @notice Begins transfer of admin rights. The newPendingAdmin must call `_acceptAdmin` to finalize the transfer.\n      * @dev Admin function to begin change of admin. The newPendingAdmin must call `_acceptAdmin` to finalize the transfer.\n      * @param newPendingAdmin New pending admin.\n      * @return uint 0=success, otherwise a failure (see ErrorReporter.sol for details)\n      */\n    function _setPendingAdmin(address newPendingAdmin) public returns (uint) {\n        // Check caller = admin\n        if (msg.sender != admin) {\n            return fail(Error.UNAUTHORIZED, FailureInfo.SET_PENDING_ADMIN_OWNER_CHECK);\n        }\n\n        // Save current value, if any, for inclusion in log\n        address oldPendingAdmin = pendingAdmin;\n\n        // Store pendingAdmin with value newPendingAdmin\n        pendingAdmin = newPendingAdmin;\n\n        // Emit NewPendingAdmin(oldPendingAdmin, newPendingAdmin)\n        emit NewPendingAdmin(oldPendingAdmin, newPendingAdmin);\n\n        return uint(Error.NO_ERROR);\n    }\n\n    /**\n      * @notice Accepts transfer of admin rights. msg.sender must be pendingAdmin\n      * @dev Admin function for pending admin to accept role and update admin\n      * @return uint 0=success, otherwise a failure (see ErrorReporter.sol for details)\n      */\n    function _acceptAdmin() public returns (uint) {\n        // Check caller is pendingAdmin and pendingAdmin  address(0)\n        if (msg.sender != pendingAdmin || msg.sender == address(0)) {\n            return fail(Error.UNAUTHORIZED, FailureInfo.ACCEPT_ADMIN_PENDING_ADMIN_CHECK);\n        }\n\n        // Save current values for inclusion in log\n        address oldAdmin = admin;\n        address oldPendingAdmin = pendingAdmin;\n\n        // Store admin with value pendingAdmin\n        admin = pendingAdmin;\n\n        // Clear the pending value\n        pendingAdmin = address(0);\n\n        emit NewAdmin(oldAdmin, admin);\n        emit NewPendingAdmin(oldPendingAdmin, pendingAdmin);\n\n        return uint(Error.NO_ERROR);\n    }\n}\n",
  "sourcePath": "/Users/ashton/repo/blockchain/eth/smartcontracts/PoolX/contracts/core/RiskManager.sol",
  "compiler": {
    "name": "solc",
    "version": "0.6.9+commit.3e3065ac.Emscripten.clang"
  },
  "schemaVersion": "3.2.0",
  "updatedAt": "2020-11-06T11:40:22.887Z",
  "networkType": "ethereum",
  "devdoc": {
    "methods": {
      "_acceptAdmin()": {
        "details": "Admin function for pending admin to accept role and update admin",
        "returns": {
          "_0": "uint 0=success, otherwise a failure (see ErrorReporter.sol for details)"
        }
      },
      "_setCloseFactor(uint256)": {
        "details": "Admin function to set closeFactor",
        "params": {
          "newCloseFactorMantissa": "New close factor, scaled by 1e18"
        },
        "returns": {
          "_0": "uint 0=success, otherwise a failure. (See ErrorReporter for details)"
        }
      },
      "_setCollateralFactor(address,uint256)": {
        "details": "Admin function to set per-market collateralFactor",
        "params": {
          "newCollateralFactorMantissa": "The new collateral factor, scaled by 1e18",
          "pToken": "The market to set the factor on"
        },
        "returns": {
          "_0": "uint 0=success, otherwise a failure. (See ErrorReporter for details)"
        }
      },
      "_setLiquidationIncentive(uint256)": {
        "details": "Admin function to set liquidationIncentive",
        "params": {
          "newLiquidationIncentiveMantissa": "New liquidationIncentive scaled by 1e18"
        },
        "returns": {
          "_0": "uint 0=success, otherwise a failure. (See ErrorReporter for details)"
        }
      },
      "_setMaxAssets(uint256)": {
        "details": "Admin function to set maxAssets",
        "params": {
          "newMaxAssets": "New max assets"
        },
        "returns": {
          "_0": "uint 0=success, otherwise a failure. (See ErrorReporter for details)"
        }
      },
      "_setPauseGuardian(address)": {
        "params": {
          "newPauseGuardian": "The address of the new Pause Guardian"
        },
        "returns": {
          "_0": "uint 0=success, otherwise a failure. (See enum Error for details)"
        }
      },
      "_setPendingAdmin(address)": {
        "details": "Admin function to begin change of admin. The newPendingAdmin must call `_acceptAdmin` to finalize the transfer.",
        "params": {
          "newPendingAdmin": "New pending admin."
        },
        "returns": {
          "_0": "uint 0=success, otherwise a failure (see ErrorReporter.sol for details)"
        }
      },
      "_setPriceOracle(address)": {
        "details": "Admin function to set a new price oracle",
        "returns": {
          "_0": "uint 0=success, otherwise a failure (see ErrorReporter.sol for details)"
        }
      },
      "_supportMarket(address)": {
        "details": "Admin function to set isListed and add support for the market",
        "params": {
          "pToken": "The address of the market (token) to list"
        },
        "returns": {
          "_0": "uint 0=success, otherwise a failure. (See enum Error for details)"
        }
      },
      "borrowAllowed(address,address,uint256)": {
        "params": {
          "borrowAmount": "The amount of underlying the account would borrow",
          "borrower": "The account which would borrow the asset",
          "pToken": "The market to verify the borrow against"
        },
        "returns": {
          "_0": "0 if the borrow is allowed, otherwise a semi-opaque error code (See ErrorReporter.sol)"
        }
      },
      "checkMembership(address,address)": {
        "params": {
          "account": "The address of the account to check",
          "pToken": "The pToken to check"
        },
        "returns": {
          "_0": "True if the account is in the asset, otherwise false."
        }
      },
      "enterMarkets(address[])": {
        "params": {
          "pTokens": "The list of addresses of the pToken markets to be enabled"
        },
        "returns": {
          "_0": "Success indicator for whether each corresponding market was entered"
        }
      },
      "exitMarket(address)": {
        "details": "Sender must not have an outstanding borrow balance in the asset,  or be providing necessary collateral for an outstanding borrow.",
        "params": {
          "pTokenAddress": "The address of the asset to be removed"
        },
        "returns": {
          "_0": "Whether or not the account successfully exited the market"
        }
      },
      "getAccountLiquidity(address)": {
        "returns": {
          "_0": "(possible error code (semi-opaque), account liquidity in excess of collateral requirements,          account shortfall below collateral requirements)"
        }
      },
      "getAllMarkets()": {
        "details": "The automatic getter may be used to access an individual market.",
        "returns": {
          "_allMarkets": "The list of market addresses"
        }
      },
      "getAssetsIn(address)": {
        "params": {
          "account": "The address of the account to pull assets for"
        },
        "returns": {
          "_0": "A dynamic list with the assets the account has entered"
        }
      },
      "getHypotheticalAccountLiquidity(address,address,uint256,uint256)": {
        "params": {
          "account": "The account to determine liquidity for",
          "borrowAmount": "The amount of underlying to hypothetically borrow",
          "pTokenModify": "The market to hypothetically redeem/borrow in",
          "redeemTokens": "The number of tokens to hypothetically redeem"
        },
        "returns": {
          "_0": "(possible error code (semi-opaque), hypothetical account liquidity in excess of collateral requirements,          hypothetical account shortfall below collateral requirements)"
        }
      },
      "liquidateBorrowAllowed(address,address,address,address,uint256)": {
        "params": {
          "borrower": "The address of the borrower",
          "liquidator": "The address repaying the borrow and seizing the collateral",
          "pTokenBorrowed": "Asset which was borrowed by the borrower",
          "pTokenCollateral": "Asset which was used as collateral and will be seized",
          "repayAmount": "The amount of underlying being repaid"
        }
      },
      "liquidateCalculateSeizeTokens(address,address,uint256)": {
        "details": "Used in liquidation (called in pToken.liquidateBorrowFresh)",
        "params": {
          "actualRepayAmount": "The amount of pTokenBorrowed underlying to convert into pTokenCollateral tokens",
          "pTokenBorrowed": "The address of the borrowed pToken",
          "pTokenCollateral": "The address of the collateral pToken"
        },
        "returns": {
          "_0": "(errorCode, number of pTokenCollateral tokens to be seized in a liquidation)"
        }
      },
      "mintAllowed(address,address,uint256)": {
        "params": {
          "mintAmount": "The amount of underlying being supplied to the market in exchange for tokens",
          "minter": "The account which would get the minted tokens",
          "pToken": "The market to verify the mint against"
        },
        "returns": {
          "_0": "0 if the mint is allowed, otherwise a semi-opaque error code (See ErrorReporter.sol)"
        }
      },
      "redeemAllowed(address,address,uint256)": {
        "params": {
          "pToken": "The market to verify the redeem against",
          "redeemTokens": "The number of pTokens to exchange for the underlying asset in the market",
          "redeemer": "The account which would redeem the tokens"
        },
        "returns": {
          "_0": "0 if the redeem is allowed, otherwise a semi-opaque error code (See ErrorReporter.sol)"
        }
      },
      "repayBorrowAllowed(address,address,address,uint256)": {
        "params": {
          "borrower": "The account which would borrowed the asset",
          "pToken": "The market to verify the repay against",
          "payer": "The account which would repay the asset",
          "repayAmount": "The amount of the underlying asset the account would repay"
        },
        "returns": {
          "_0": "0 if the repay is allowed, otherwise a semi-opaque error code (See ErrorReporter.sol)"
        }
      },
      "seizeAllowed(address,address,address,address,uint256)": {
        "params": {
          "borrower": "The address of the borrower",
          "liquidator": "The address repaying the borrow and seizing the collateral",
          "pTokenBorrowed": "Asset which was borrowed by the borrower",
          "pTokenCollateral": "Asset which was used as collateral and will be seized",
          "seizeTokens": "The number of collateral tokens to seize"
        }
      },
      "transferAllowed(address,address,address,uint256)": {
        "params": {
          "dst": "The account which receives the tokens",
          "pToken": "The market to verify the transfer against",
          "src": "The account which sources the tokens",
          "transferTokens": "The number of pTokens to transfer"
        },
        "returns": {
          "_0": "0 if the transfer is allowed, otherwise a semi-opaque error code (See ErrorReporter.sol)"
        }
      }
    },
    "title": "Contracts for administration and risk control"
  },
  "userdoc": {
    "methods": {
      "_acceptAdmin()": {
        "notice": "Accepts transfer of admin rights. msg.sender must be pendingAdmin"
      },
      "_setCloseFactor(uint256)": {
        "notice": "Sets the closeFactor used when liquidating borrows"
      },
      "_setCollateralFactor(address,uint256)": {
        "notice": "Sets the collateralFactor for a market"
      },
      "_setLiquidationIncentive(uint256)": {
        "notice": "Sets liquidationIncentive"
      },
      "_setMaxAssets(uint256)": {
        "notice": "Sets maxAssets which controls how many markets can be entered"
      },
      "_setPauseGuardian(address)": {
        "notice": "Admin function to change the Pause Guardian"
      },
      "_setPendingAdmin(address)": {
        "notice": "Begins transfer of admin rights. The newPendingAdmin must call `_acceptAdmin` to finalize the transfer."
      },
      "_setPriceOracle(address)": {
        "notice": "Sets a new price oracle for the riskManager"
      },
      "_supportMarket(address)": {
        "notice": "Add the market to the markets mapping and set it as listed"
      },
      "accountAssets(address,uint256)": {
        "notice": "Per-account mapping of \"assets you are in\", capped by maxAssets"
      },
      "admin()": {
        "notice": "Administrator for this contract"
      },
      "allMarkets(uint256)": {
        "notice": "A list of all markets"
      },
      "borrowAllowed(address,address,uint256)": {
        "notice": "Checks if the account should be allowed to borrow the underlying asset of the given market"
      },
      "checkMembership(address,address)": {
        "notice": "Returns whether the given account is entered in the given asset"
      },
      "closeFactorMantissa()": {
        "notice": "Multiplier used to calculate the maximum repayAmount when liquidating a borrow"
      },
      "enterMarkets(address[])": {
        "notice": "Add assets to be included in account liquidity calculation"
      },
      "exitMarket(address)": {
        "notice": "Removes asset from sender's account liquidity calculation"
      },
      "getAccountLiquidity(address)": {
        "notice": "Determine the current account liquidity wrt collateral requirements"
      },
      "getAllMarkets()": {
        "notice": "Return all of the markets"
      },
      "getAssetsIn(address)": {
        "notice": "Returns the assets an account has entered"
      },
      "getHypotheticalAccountLiquidity(address,address,uint256,uint256)": {
        "notice": "Determine what the account liquidity would be if the given amounts were redeemed/borrowed"
      },
      "liquidateBorrowAllowed(address,address,address,address,uint256)": {
        "notice": "Checks if the liquidation should be allowed to occur"
      },
      "liquidateCalculateSeizeTokens(address,address,uint256)": {
        "notice": "Calculate number of tokens of collateral asset to seize given an underlying amount"
      },
      "liquidationIncentiveMantissa()": {
        "notice": "Multiplier representing the discount on collateral that a liquidator receives"
      },
      "markets(address)": {
        "notice": "Official mapping of PTokens -> Market metadata"
      },
      "maxAssets()": {
        "notice": "Max number of assets a single account can participate in (borrow or use as collateral)"
      },
      "mintAllowed(address,address,uint256)": {
        "notice": "Checks if the account should be allowed to mint tokens in the given market"
      },
      "oracle()": {
        "notice": "Oracle which gives the price of any given asset"
      },
      "pauseGuardian()": {
        "notice": "The Pause Guardian can pause certain actions as a safety mechanism.  Actions which allow users to remove their own assets cannot be paused.  Liquidation / seizing / transfer can only be paused globally, not by market."
      },
      "pendingAdmin()": {
        "notice": "Pending administrator for this contract"
      },
      "redeemAllowed(address,address,uint256)": {
        "notice": "Checks if the account should be allowed to redeem tokens in the given market"
      },
      "repayBorrowAllowed(address,address,address,uint256)": {
        "notice": "Checks if the account should be allowed to repay a borrow in the given market"
      },
      "seizeAllowed(address,address,address,address,uint256)": {
        "notice": "Checks if the seizing of assets should be allowed to occur"
      },
      "transferAllowed(address,address,address,uint256)": {
        "notice": "Checks if the account should be allowed to transfer tokens in the given market"
      }
    }
  }
}