{
  "contractName": "SimplePriceOracle",
  "abi": [
    {
      "anonymous": false,
      "inputs": [
        {
          "indexed": false,
          "internalType": "address",
          "name": "asset",
          "type": "address"
        },
        {
          "indexed": false,
          "internalType": "uint256",
          "name": "previousPriceMantissa",
          "type": "uint256"
        },
        {
          "indexed": false,
          "internalType": "uint256",
          "name": "requestedPriceMantissa",
          "type": "uint256"
        },
        {
          "indexed": false,
          "internalType": "uint256",
          "name": "newPriceMantissa",
          "type": "uint256"
        }
      ],
      "name": "PricePosted",
      "type": "event"
    },
    {
      "inputs": [
        {
          "internalType": "contract PToken",
          "name": "pToken",
          "type": "address"
        }
      ],
      "name": "getUnderlyingPrice",
      "outputs": [
        {
          "internalType": "uint256",
          "name": "",
          "type": "uint256"
        }
      ],
      "stateMutability": "view",
      "type": "function"
    },
    {
      "inputs": [
        {
          "internalType": "contract PToken",
          "name": "pToken",
          "type": "address"
        },
        {
          "internalType": "uint256",
          "name": "underlyingPriceMantissa",
          "type": "uint256"
        }
      ],
      "name": "setUnderlyingPrice",
      "outputs": [],
      "stateMutability": "nonpayable",
      "type": "function"
    },
    {
      "inputs": [
        {
          "internalType": "address",
          "name": "asset",
          "type": "address"
        },
        {
          "internalType": "uint256",
          "name": "price",
          "type": "uint256"
        }
      ],
      "name": "setDirectPrice",
      "outputs": [],
      "stateMutability": "nonpayable",
      "type": "function"
    },
    {
      "inputs": [
        {
          "internalType": "address",
          "name": "asset",
          "type": "address"
        }
      ],
      "name": "assetPrices",
      "outputs": [
        {
          "internalType": "uint256",
          "name": "",
          "type": "uint256"
        }
      ],
      "stateMutability": "view",
      "type": "function"
    }
  ],
  "bytecode": "0x608060405234801561001057600080fd5b506103bc806100206000396000f3fe608060405234801561001057600080fd5b506004361061004c5760003560e01c806309a8acb014610051578063127ffda01461007f5780635e9a523c146100ab578063fc57d4df146100e3575b600080fd5b61007d6004803603604081101561006757600080fd5b506001600160a01b038135169060200135610109565b005b61007d6004803603604081101561009557600080fd5b506001600160a01b038135169060200135610181565b6100d1600480360360208110156100c157600080fd5b50356001600160a01b0316610263565b60408051918252519081900360200190f35b6100d1600480360360208110156100f957600080fd5b50356001600160a01b0316610282565b6001600160a01b038216600081815260208181526040918290205482519384529083015281810183905260608201839052517fdd71a1d19fcba687442a1d5c58578f1e409af71a79d10fd95a4d66efd8fa9ae79181900360800190a16001600160a01b03909116600090815260208190526040902055565b6000826001600160a01b0316636f307dc36040518163ffffffff1660e01b815260040160206040518083038186803b1580156101bc57600080fd5b505afa1580156101d0573d6000803e3d6000fd5b505050506040513d60208110156101e657600080fd5b50516001600160a01b038116600081815260208181526040918290205482519384529083015281810185905260608201859052519192507fdd71a1d19fcba687442a1d5c58578f1e409af71a79d10fd95a4d66efd8fa9ae7919081900360800190a16001600160a01b031660009081526020819052604090205550565b6001600160a01b0381166000908152602081905260409020545b919050565b6000816001600160a01b0316639af4ee7e6040518163ffffffff1660e01b815260040160206040518083038186803b1580156102bd57600080fd5b505afa1580156102d1573d6000803e3d6000fd5b505050506040513d60208110156102e757600080fd5b5051156102fd5750670de0b6b3a764000061027d565b600080836001600160a01b0316636f307dc36040518163ffffffff1660e01b815260040160206040518083038186803b15801561033957600080fd5b505afa15801561034d573d6000803e3d6000fd5b505050506040513d602081101561036357600080fd5b50516001600160a01b03168152602081019190915260400160002054905061027d56fea2646970667358221220cc9a305435ed6544c312de9763099901438ed0ab94f202da972cc2377b5fff5e64736f6c63430006090033",
  "immutableReferences": {},
  "source": "// SPDX-License-Identifier: UNLICENSED\npragma solidity ^0.6.9;\n\nimport \"./PriceOracle.sol\";\nimport \"../tokenization/PErc20.sol\";\n\ncontract SimplePriceOracle {\n    mapping(address => uint) prices;\n    event PricePosted(address asset, uint previousPriceMantissa, uint requestedPriceMantissa, uint newPriceMantissa);\n\n    function getUnderlyingPrice(PToken pToken) public view returns (uint) {\n        if (pToken.isNativeToken()) {\n            return 1e18;\n        } else {\n            return prices[address(PErc20(address(pToken)).underlying())];\n        }\n    }\n\n    function setUnderlyingPrice(PToken pToken, uint underlyingPriceMantissa) public {\n        address asset = address(PErc20(address(pToken)).underlying());\n        emit PricePosted(asset, prices[asset], underlyingPriceMantissa, underlyingPriceMantissa);\n        prices[asset] = underlyingPriceMantissa;\n    }\n\n    function setDirectPrice(address asset, uint price) public {\n        emit PricePosted(asset, prices[asset], price, price);\n        prices[asset] = price;\n    }\n\n    // v1 price oracle interface for use as backing of proxy\n    function assetPrices(address asset) external view returns (uint) {\n        return prices[asset];\n    }\n\n    function compareStrings(string memory a, string memory b) internal pure returns (bool) {\n        return (keccak256(abi.encodePacked((a))) == keccak256(abi.encodePacked((b))));\n    }\n}\n",
  "sourcePath": "/Users/ashton/repo/blockchain/eth/smartcontracts/PoolX/contracts/oracle/SimplePriceOracle.sol",
  "compiler": {
    "name": "solc",
    "version": "0.6.9+commit.3e3065ac.Emscripten.clang"
  },
  "schemaVersion": "3.2.0",
  "updatedAt": "2021-01-11T13:43:10.247Z",
  "devdoc": {
    "methods": {}
  },
  "userdoc": {
    "methods": {}
  }
}