{
  "contractName": "TetherToken",
  "abi": [
    {
      "inputs": [
        {
          "internalType": "uint256",
          "name": "_initialSupply",
          "type": "uint256"
        },
        {
          "internalType": "string",
          "name": "_name",
          "type": "string"
        },
        {
          "internalType": "string",
          "name": "_symbol",
          "type": "string"
        },
        {
          "internalType": "uint256",
          "name": "_decimals",
          "type": "uint256"
        }
      ],
      "stateMutability": "nonpayable",
      "type": "constructor"
    },
    {
      "anonymous": false,
      "inputs": [
        {
          "indexed": false,
          "internalType": "address",
          "name": "_user",
          "type": "address"
        }
      ],
      "name": "AddedBlackList",
      "type": "event"
    },
    {
      "anonymous": false,
      "inputs": [
        {
          "indexed": true,
          "internalType": "address",
          "name": "owner",
          "type": "address"
        },
        {
          "indexed": true,
          "internalType": "address",
          "name": "spender",
          "type": "address"
        },
        {
          "indexed": false,
          "internalType": "uint256",
          "name": "value",
          "type": "uint256"
        }
      ],
      "name": "Approval",
      "type": "event"
    },
    {
      "anonymous": false,
      "inputs": [
        {
          "indexed": false,
          "internalType": "address",
          "name": "newAddress",
          "type": "address"
        }
      ],
      "name": "Deprecate",
      "type": "event"
    },
    {
      "anonymous": false,
      "inputs": [
        {
          "indexed": false,
          "internalType": "address",
          "name": "_blackListedUser",
          "type": "address"
        },
        {
          "indexed": false,
          "internalType": "uint256",
          "name": "_balance",
          "type": "uint256"
        }
      ],
      "name": "DestroyedBlackFunds",
      "type": "event"
    },
    {
      "anonymous": false,
      "inputs": [
        {
          "indexed": false,
          "internalType": "uint256",
          "name": "amount",
          "type": "uint256"
        }
      ],
      "name": "Issue",
      "type": "event"
    },
    {
      "anonymous": false,
      "inputs": [
        {
          "indexed": false,
          "internalType": "uint256",
          "name": "feeBasisPoints",
          "type": "uint256"
        },
        {
          "indexed": false,
          "internalType": "uint256",
          "name": "maxFee",
          "type": "uint256"
        }
      ],
      "name": "Params",
      "type": "event"
    },
    {
      "anonymous": false,
      "inputs": [],
      "name": "Pause",
      "type": "event"
    },
    {
      "anonymous": false,
      "inputs": [
        {
          "indexed": false,
          "internalType": "uint256",
          "name": "amount",
          "type": "uint256"
        }
      ],
      "name": "Redeem",
      "type": "event"
    },
    {
      "anonymous": false,
      "inputs": [
        {
          "indexed": false,
          "internalType": "address",
          "name": "_user",
          "type": "address"
        }
      ],
      "name": "RemovedBlackList",
      "type": "event"
    },
    {
      "anonymous": false,
      "inputs": [
        {
          "indexed": true,
          "internalType": "address",
          "name": "from",
          "type": "address"
        },
        {
          "indexed": true,
          "internalType": "address",
          "name": "to",
          "type": "address"
        },
        {
          "indexed": false,
          "internalType": "uint256",
          "name": "value",
          "type": "uint256"
        }
      ],
      "name": "Transfer",
      "type": "event"
    },
    {
      "anonymous": false,
      "inputs": [],
      "name": "Unpause",
      "type": "event"
    },
    {
      "inputs": [],
      "name": "MAX_UINT",
      "outputs": [
        {
          "internalType": "uint256",
          "name": "",
          "type": "uint256"
        }
      ],
      "stateMutability": "view",
      "type": "function",
      "constant": true
    },
    {
      "inputs": [],
      "name": "_totalSupply",
      "outputs": [
        {
          "internalType": "uint256",
          "name": "",
          "type": "uint256"
        }
      ],
      "stateMutability": "view",
      "type": "function",
      "constant": true
    },
    {
      "inputs": [
        {
          "internalType": "address",
          "name": "_evilUser",
          "type": "address"
        }
      ],
      "name": "addBlackList",
      "outputs": [],
      "stateMutability": "nonpayable",
      "type": "function"
    },
    {
      "inputs": [
        {
          "internalType": "address",
          "name": "",
          "type": "address"
        },
        {
          "internalType": "address",
          "name": "",
          "type": "address"
        }
      ],
      "name": "allowed",
      "outputs": [
        {
          "internalType": "uint256",
          "name": "",
          "type": "uint256"
        }
      ],
      "stateMutability": "view",
      "type": "function",
      "constant": true
    },
    {
      "inputs": [
        {
          "internalType": "address",
          "name": "",
          "type": "address"
        }
      ],
      "name": "balances",
      "outputs": [
        {
          "internalType": "uint256",
          "name": "",
          "type": "uint256"
        }
      ],
      "stateMutability": "view",
      "type": "function",
      "constant": true
    },
    {
      "inputs": [],
      "name": "basisPointsRate",
      "outputs": [
        {
          "internalType": "uint256",
          "name": "",
          "type": "uint256"
        }
      ],
      "stateMutability": "view",
      "type": "function",
      "constant": true
    },
    {
      "inputs": [],
      "name": "decimals",
      "outputs": [
        {
          "internalType": "uint256",
          "name": "",
          "type": "uint256"
        }
      ],
      "stateMutability": "view",
      "type": "function",
      "constant": true
    },
    {
      "inputs": [],
      "name": "deprecated",
      "outputs": [
        {
          "internalType": "bool",
          "name": "",
          "type": "bool"
        }
      ],
      "stateMutability": "view",
      "type": "function",
      "constant": true
    },
    {
      "inputs": [
        {
          "internalType": "address",
          "name": "_blackListedUser",
          "type": "address"
        }
      ],
      "name": "destroyBlackFunds",
      "outputs": [],
      "stateMutability": "nonpayable",
      "type": "function"
    },
    {
      "inputs": [
        {
          "internalType": "address",
          "name": "_maker",
          "type": "address"
        }
      ],
      "name": "getBlackListStatus",
      "outputs": [
        {
          "internalType": "bool",
          "name": "",
          "type": "bool"
        }
      ],
      "stateMutability": "view",
      "type": "function",
      "constant": true
    },
    {
      "inputs": [],
      "name": "getOwner",
      "outputs": [
        {
          "internalType": "address",
          "name": "",
          "type": "address"
        }
      ],
      "stateMutability": "view",
      "type": "function",
      "constant": true
    },
    {
      "inputs": [
        {
          "internalType": "address",
          "name": "",
          "type": "address"
        }
      ],
      "name": "isBlackListed",
      "outputs": [
        {
          "internalType": "bool",
          "name": "",
          "type": "bool"
        }
      ],
      "stateMutability": "view",
      "type": "function",
      "constant": true
    },
    {
      "inputs": [],
      "name": "maximumFee",
      "outputs": [
        {
          "internalType": "uint256",
          "name": "",
          "type": "uint256"
        }
      ],
      "stateMutability": "view",
      "type": "function",
      "constant": true
    },
    {
      "inputs": [],
      "name": "name",
      "outputs": [
        {
          "internalType": "string",
          "name": "",
          "type": "string"
        }
      ],
      "stateMutability": "view",
      "type": "function",
      "constant": true
    },
    {
      "inputs": [],
      "name": "owner",
      "outputs": [
        {
          "internalType": "address",
          "name": "",
          "type": "address"
        }
      ],
      "stateMutability": "view",
      "type": "function",
      "constant": true
    },
    {
      "inputs": [],
      "name": "pause",
      "outputs": [],
      "stateMutability": "nonpayable",
      "type": "function"
    },
    {
      "inputs": [],
      "name": "paused",
      "outputs": [
        {
          "internalType": "bool",
          "name": "",
          "type": "bool"
        }
      ],
      "stateMutability": "view",
      "type": "function",
      "constant": true
    },
    {
      "inputs": [
        {
          "internalType": "address",
          "name": "_clearedUser",
          "type": "address"
        }
      ],
      "name": "removeBlackList",
      "outputs": [],
      "stateMutability": "nonpayable",
      "type": "function"
    },
    {
      "inputs": [],
      "name": "symbol",
      "outputs": [
        {
          "internalType": "string",
          "name": "",
          "type": "string"
        }
      ],
      "stateMutability": "view",
      "type": "function",
      "constant": true
    },
    {
      "inputs": [
        {
          "internalType": "address",
          "name": "newOwner",
          "type": "address"
        }
      ],
      "name": "transferOwnership",
      "outputs": [],
      "stateMutability": "nonpayable",
      "type": "function"
    },
    {
      "inputs": [],
      "name": "unpause",
      "outputs": [],
      "stateMutability": "nonpayable",
      "type": "function"
    },
    {
      "inputs": [],
      "name": "upgradedAddress",
      "outputs": [
        {
          "internalType": "address",
          "name": "",
          "type": "address"
        }
      ],
      "stateMutability": "view",
      "type": "function",
      "constant": true
    },
    {
      "inputs": [
        {
          "internalType": "address",
          "name": "_to",
          "type": "address"
        },
        {
          "internalType": "uint256",
          "name": "_value",
          "type": "uint256"
        }
      ],
      "name": "transfer",
      "outputs": [],
      "stateMutability": "nonpayable",
      "type": "function"
    },
    {
      "inputs": [
        {
          "internalType": "address",
          "name": "_from",
          "type": "address"
        },
        {
          "internalType": "address",
          "name": "_to",
          "type": "address"
        },
        {
          "internalType": "uint256",
          "name": "_value",
          "type": "uint256"
        }
      ],
      "name": "transferFrom",
      "outputs": [],
      "stateMutability": "nonpayable",
      "type": "function"
    },
    {
      "inputs": [
        {
          "internalType": "address",
          "name": "who",
          "type": "address"
        }
      ],
      "name": "balanceOf",
      "outputs": [
        {
          "internalType": "uint256",
          "name": "",
          "type": "uint256"
        }
      ],
      "stateMutability": "view",
      "type": "function",
      "constant": true
    },
    {
      "inputs": [
        {
          "internalType": "address",
          "name": "_spender",
          "type": "address"
        },
        {
          "internalType": "uint256",
          "name": "_value",
          "type": "uint256"
        }
      ],
      "name": "approve",
      "outputs": [],
      "stateMutability": "nonpayable",
      "type": "function"
    },
    {
      "inputs": [
        {
          "internalType": "address",
          "name": "_owner",
          "type": "address"
        },
        {
          "internalType": "address",
          "name": "_spender",
          "type": "address"
        }
      ],
      "name": "allowance",
      "outputs": [
        {
          "internalType": "uint256",
          "name": "remaining",
          "type": "uint256"
        }
      ],
      "stateMutability": "view",
      "type": "function",
      "constant": true
    },
    {
      "inputs": [
        {
          "internalType": "address",
          "name": "_upgradedAddress",
          "type": "address"
        }
      ],
      "name": "deprecate",
      "outputs": [],
      "stateMutability": "nonpayable",
      "type": "function"
    },
    {
      "inputs": [],
      "name": "totalSupply",
      "outputs": [
        {
          "internalType": "uint256",
          "name": "",
          "type": "uint256"
        }
      ],
      "stateMutability": "view",
      "type": "function",
      "constant": true
    },
    {
      "inputs": [
        {
          "internalType": "uint256",
          "name": "amount",
          "type": "uint256"
        }
      ],
      "name": "issue",
      "outputs": [],
      "stateMutability": "nonpayable",
      "type": "function"
    },
    {
      "inputs": [
        {
          "internalType": "uint256",
          "name": "amount",
          "type": "uint256"
        }
      ],
      "name": "redeem",
      "outputs": [],
      "stateMutability": "nonpayable",
      "type": "function"
    },
    {
      "inputs": [
        {
          "internalType": "uint256",
          "name": "newBasisPoints",
          "type": "uint256"
        },
        {
          "internalType": "uint256",
          "name": "newMaxFee",
          "type": "uint256"
        }
      ],
      "name": "setParams",
      "outputs": [],
      "stateMutability": "nonpayable",
      "type": "function"
    }
  ],
  "bytecode": "0x60806040526000805460ff60a01b1916815560038190556004553480156200002657600080fd5b506040516200189038038062001890833981810160405260808110156200004c57600080fd5b8151602083018051604051929492938301929190846401000000008211156200007457600080fd5b9083019060208201858111156200008a57600080fd5b8251640100000000811182820188101715620000a557600080fd5b82525081516020918201929091019080838360005b83811015620000d4578181015183820152602001620000ba565b50505050905090810190601f168015620001025780820380516001836020036101000a031916815260200191505b50604052602001805160405193929190846401000000008211156200012657600080fd5b9083019060208201858111156200013c57600080fd5b82516401000000008111828201881017156200015757600080fd5b82525081516020918201929091019080838360005b83811015620001865781810151838201526020016200016c565b50505050905090810190601f168015620001b45780820380516001836020036101000a031916815260200191505b50604052602090810151600080546001600160a01b0319163317905560018790558551909350620001ec925060079186019062000234565b5081516200020290600890602085019062000234565b506009555050600080546001600160a01b0316815260026020526040902055600a805460ff60a01b19169055620002d9565b828054600181600116156101000203166002900490600052602060002090601f016020900481019282601f106200027757805160ff1916838001178555620002a7565b82800160010185558215620002a7579182015b82811115620002a75782518255916020019190600101906200028a565b50620002b5929150620002b9565b5090565b620002d691905b80821115620002b55760008155600101620002c0565b90565b6115a780620002e96000396000f3fe608060405234801561001057600080fd5b50600436106101f05760003560e01c806370a082311161010f578063db006a75116100a2578063e4997dc511610071578063e4997dc514610549578063e5b5019a1461056f578063f2fde38b14610577578063f3bdc2281461059d576101f0565b8063db006a75146104d0578063dd62ed3e146104ed578063dd644f721461051b578063e47d606014610523576101f0565b806395d89b41116100de57806395d89b411461045c578063a9059cbb14610464578063c0324c7714610490578063cc872b66146104b3576101f0565b806370a082311461041e5780638456cb5914610444578063893d20e81461044c5780638da5cb5b14610454576101f0565b806327e235e3116101875780633f4ba83a116101565780633f4ba83a146103ba57806359bf1abe146103c25780635c658165146103e85780635c975abb14610416576101f0565b806327e235e31461037c578063313ce567146103a257806335390714146103aa5780633eaaf86b146103b2576101f0565b80630ecb93c0116101c35780630ecb93c0146102e257806318160ddd1461030857806323b872dd1461032257806326976e3f14610358576101f0565b806306fdde03146101f55780630753c30c14610272578063095ea7b31461029a5780630e136b19146102c6575b600080fd5b6101fd6105c3565b6040805160208082528351818301528351919283929083019185019080838360005b8381101561023757818101518382015260200161021f565b50505050905090810190601f1680156102645780820380516001836020036101000a031916815260200191505b509250505060405180910390f35b6102986004803603602081101561028857600080fd5b50356001600160a01b0316610651565b005b610298600480360360408110156102b057600080fd5b506001600160a01b0381351690602001356106cb565b6102ce610774565b604080519115158252519081900360200190f35b610298600480360360208110156102f857600080fd5b50356001600160a01b0316610784565b6103106107f6565b60408051918252519081900360200190f35b6102986004803603606081101561033857600080fd5b506001600160a01b03813581169160208101359091169060400135610894565b610360610951565b604080516001600160a01b039092168252519081900360200190f35b6103106004803603602081101561039257600080fd5b50356001600160a01b0316610960565b610310610972565b610310610978565b61031061097e565b610298610984565b6102ce600480360360208110156103d857600080fd5b50356001600160a01b03166109e7565b610310600480360360408110156103fe57600080fd5b506001600160a01b0381358116916020013516610a09565b6102ce610a26565b6103106004803603602081101561043457600080fd5b50356001600160a01b0316610a36565b610298610adb565b610360610b45565b610360610b54565b6101fd610b63565b6102986004803603604081101561047a57600080fd5b506001600160a01b038135169060200135610bbe565b610298600480360360408110156104a657600080fd5b5080359060200135610c8a565b610298600480360360208110156104c957600080fd5b5035610d1f565b610298600480360360208110156104e657600080fd5b5035610dca565b6103106004803603604081101561050357600080fd5b506001600160a01b0381358116916020013516610e75565b610310610f25565b6102ce6004803603602081101561053957600080fd5b50356001600160a01b0316610f2b565b6102986004803603602081101561055f57600080fd5b50356001600160a01b0316610f40565b610310610faf565b6102986004803603602081101561058d57600080fd5b50356001600160a01b0316610fb5565b610298600480360360208110156105b357600080fd5b50356001600160a01b0316610ffa565b6007805460408051602060026001851615610100026000190190941693909304601f810184900484028201840190925281815292918301828280156106495780601f1061061e57610100808354040283529160200191610649565b820191906000526020600020905b81548152906001019060200180831161062c57829003601f168201915b505050505081565b6000546001600160a01b0316331461066857600080fd5b600a8054600160a01b60ff60a01b19909116176001600160a01b0319166001600160a01b03831690811790915560408051918252517fcc358699805e9a8b7f77b522628c7cb9abd07d9efb86b6fb616af1609036a99e916020908290030190a150565b604060443610156106db57600080fd5b600a54600160a01b900460ff161561076557600a546040805163aee92d3360e01b81523360048201526001600160a01b038681166024830152604482018690529151919092169163aee92d3391606480830192600092919082900301818387803b15801561074857600080fd5b505af115801561075c573d6000803e3d6000fd5b5050505061076f565b61076f83836110a5565b505050565b600a54600160a01b900460ff1681565b6000546001600160a01b0316331461079b57600080fd5b6001600160a01b038116600081815260066020908152604091829020805460ff19166001179055815192835290517f42e160154868087d6bfdc0ca23d96a1c1cfa32f1b72ba9ba27b69b98a0d819dc9281900390910190a150565b600a54600090600160a01b900460ff161561088c57600a60009054906101000a90046001600160a01b03166001600160a01b03166318160ddd6040518163ffffffff1660e01b815260040160206040518083038186803b15801561085957600080fd5b505afa15801561086d573d6000803e3d6000fd5b505050506040513d602081101561088357600080fd5b50519050610891565b506001545b90565b600054600160a01b900460ff16156108ab57600080fd5b6001600160a01b03831660009081526006602052604090205460ff16156108d157600080fd5b600a54600160a01b900460ff161561094657600a5460408051638b477adb60e01b81523360048201526001600160a01b03868116602483015285811660448301526064820185905291519190921691638b477adb91608480830192600092919082900301818387803b15801561074857600080fd5b61076f838383611153565b600a546001600160a01b031681565b60026020526000908152604090205481565b60095481565b60045481565b60015481565b6000546001600160a01b0316331461099b57600080fd5b600054600160a01b900460ff166109b157600080fd5b6000805460ff60a01b191681556040517f7805862f689e2f13df9f062ff482ad3ad112aca9e0847911ed832e158c525b339190a1565b6001600160a01b03811660009081526006602052604090205460ff165b919050565b600560209081526000928352604080842090915290825290205481565b600054600160a01b900460ff1681565b600a54600090600160a01b900460ff1615610acb57600a54604080516370a0823160e01b81526001600160a01b038581166004830152915191909216916370a08231916024808301926020929190829003018186803b158015610a9857600080fd5b505afa158015610aac573d6000803e3d6000fd5b505050506040513d6020811015610ac257600080fd5b50519050610a04565b610ad482611348565b9050610a04565b6000546001600160a01b03163314610af257600080fd5b600054600160a01b900460ff1615610b0957600080fd5b6000805460ff60a01b1916600160a01b1781556040517f6985a02210a168e66602d3235cb6db0e70f92b3ba4d376a33c0f3d9434bff6259190a1565b6000546001600160a01b031690565b6000546001600160a01b031681565b6008805460408051602060026001851615610100026000190190941693909304601f810184900484028201840190925281815292918301828280156106495780601f1061061e57610100808354040283529160200191610649565b600054600160a01b900460ff1615610bd557600080fd5b3360009081526006602052604090205460ff1615610bf257600080fd5b600a54600160a01b900460ff1615610c7c57600a546040805163370c4c0560e11b81523360048201526001600160a01b0385811660248301526044820185905291519190921691636e18980a91606480830192600092919082900301818387803b158015610c5f57600080fd5b505af1158015610c73573d6000803e3d6000fd5b50505050610c86565b610c868282611363565b5050565b6000546001600160a01b03163314610ca157600080fd5b60148210610cae57600080fd5b60328110610cbb57600080fd5b6003829055600954610cd7908290600a0a63ffffffff6114cc16565b600481905560035460408051918252602082019290925281517fb044a1e409eac5c48e5af22d4af52670dd1a99059537a78b31b48c6500a6354e929181900390910190a15050565b6000546001600160a01b03163314610d3657600080fd5b60015481810111610d4657600080fd5b600080546001600160a01b031681526002602052604090205481810111610d6c57600080fd5b600080546001600160a01b03168152600260209081526040918290208054840190556001805484019055815183815291517fcb8241adb0c3fdb35b70c24ce35c5eb0c17af7431c99f827d44a445ca624176a9281900390910190a150565b6000546001600160a01b03163314610de157600080fd5b806001541015610df057600080fd5b600080546001600160a01b0316815260026020526040902054811115610e1557600080fd5b600180548290039055600080546001600160a01b031681526002602090815260409182902080548490039055815183815291517f702d5967f45f6513a38ffc42d6ba9bf230bd40e8f53b16363c7eb4fd2deb9a449281900390910190a150565b600a54600090600160a01b900460ff1615610f1257600a5460408051636eb1769f60e11b81526001600160a01b03868116600483015285811660248301529151919092169163dd62ed3e916044808301926020929190829003018186803b158015610edf57600080fd5b505afa158015610ef3573d6000803e3d6000fd5b505050506040513d6020811015610f0957600080fd5b50519050610f1f565b610f1c83836114f0565b90505b92915050565b60035481565b60066020526000908152604090205460ff1681565b6000546001600160a01b03163314610f5757600080fd5b6001600160a01b038116600081815260066020908152604091829020805460ff19169055815192835290517fd7e9ec6e6ecd65492dce6bf513cd6867560d49544421d0783ddf06e76c24470c9281900390910190a150565b60001981565b6000546001600160a01b03163314610fcc57600080fd5b6001600160a01b03811615610ff757600080546001600160a01b0319166001600160a01b0383161790555b50565b6000546001600160a01b0316331461101157600080fd5b6001600160a01b03811660009081526006602052604090205460ff1661103657600080fd5b600061104182610a36565b6001600160a01b0383166000818152600260209081526040808320929092556001805485900390558151928352820183905280519293507f61e6e66b0d6339b2980aecc6ccc0039736791f0ccde9ed512e789a7fbdd698c692918290030190a15050565b604060443610156110b557600080fd5b81158015906110e657503360009081526005602090815260408083206001600160a01b038716845290915290205415155b156110f057600080fd5b3360008181526005602090815260408083206001600160a01b03881680855290835292819020869055805186815290519293927f8c5be1e5ebec7d5bd14f71427d1e84f3dd0314c0f7b2291e5b200ac8c7c3b925929181900390910190a3505050565b6060606436101561116357600080fd5b6001600160a01b03841660009081526005602090815260408083203384529091528120546003549091906111b290612710906111a690879063ffffffff6114cc16565b9063ffffffff61151b16565b90506004548111156111c357506004545b600019821015611202576111dd828563ffffffff61153016565b6001600160a01b03871660009081526005602090815260408083203384529091529020555b6000611214858363ffffffff61153016565b6001600160a01b038816600090815260026020526040902054909150611240908663ffffffff61153016565b6001600160a01b038089166000908152600260205260408082209390935590881681522054611275908263ffffffff61154216565b6001600160a01b038716600090815260026020526040902055811561130657600080546001600160a01b03168152600260205260409020546112bd908363ffffffff61154216565b600080546001600160a01b0390811682526002602090815260408084209490945591548351868152935190821693918b1692600080516020611552833981519152928290030190a35b856001600160a01b0316876001600160a01b0316600080516020611552833981519152836040518082815260200191505060405180910390a350505050505050565b6001600160a01b031660009081526002602052604090205490565b6040604436101561137357600080fd5b60006113906127106111a6600354866114cc90919063ffffffff16565b90506004548111156113a157506004545b60006113b3848363ffffffff61153016565b336000908152600260205260409020549091506113d6908563ffffffff61153016565b33600090815260026020526040808220929092556001600160a01b03871681522054611408908263ffffffff61154216565b6001600160a01b038616600090815260026020526040902055811561149757600080546001600160a01b0316815260026020526040902054611450908363ffffffff61154216565b600080546001600160a01b03908116825260026020908152604080842094909455915483518681529351911692339260008051602061155283398151915292918290030190a35b6040805182815290516001600160a01b0387169133916000805160206115528339815191529181900360200190a35050505050565b6000826114db57506000610f1f565b828202828482816114e857fe5b0414610f1c57fe5b6001600160a01b03918216600090815260056020908152604080832093909416825291909152205490565b60008082848161152757fe5b04949350505050565b60008282111561153c57fe5b50900390565b600082820183811015610f1c57fefeddf252ad1be2c89b69c2b068fc378daa952ba7f163c4a11628f55a4df523b3efa26469706673582212200c1036e73709da56dafde86911f2164054cd958d6f927578cd645fabed50e0ef64736f6c63430006090033",
  "immutableReferences": {},
  "source": "// SPDX-License-Identifier: UNLICENSED\n\n/**\n *Submitted for verification at Etherscan.io on 2017-11-28\n*/\n\npragma solidity ^0.6.9;\n\n/**\n * @title SafeMath\n * @dev Math operations with safety checks that throw on error\n */\nlibrary SafeMath {\n    function mul(uint256 a, uint256 b) internal pure returns (uint256) {\n        if (a == 0) {\n            return 0;\n        }\n        uint256 c = a * b;\n        assert(c / a == b);\n        return c;\n    }\n\n    function div(uint256 a, uint256 b) internal pure returns (uint256) {\n        // assert(b > 0); // Solidity automatically throws when dividing by 0\n        uint256 c = a / b;\n        // assert(a == b * c + a % b); // There is no case in which this doesn't hold\n        return c;\n    }\n\n    function sub(uint256 a, uint256 b) internal pure returns (uint256) {\n        assert(b <= a);\n        return a - b;\n    }\n\n    function add(uint256 a, uint256 b) internal pure returns (uint256) {\n        uint256 c = a + b;\n        assert(c >= a);\n        return c;\n    }\n}\n\n/**\n * @title Ownable\n * @dev The Ownable contract has an owner address, and provides basic authorization control\n * functions, this simplifies the implementation of \"user permissions\".\n */\ncontract Ownable {\n    address public owner;\n\n    /**\n      * @dev The Ownable constructor sets the original `owner` of the contract to the sender\n      * account.\n      */\n    constructor() public {\n        owner = msg.sender;\n    }\n\n    /**\n      * @dev Throws if called by any account other than the owner.\n      */\n    modifier onlyOwner() {\n        require(msg.sender == owner);\n        _;\n    }\n\n    /**\n    * @dev Allows the current owner to transfer control of the contract to a newOwner.\n    * @param newOwner The address to transfer ownership to.\n    */\n    function transferOwnership(address newOwner) public onlyOwner {\n        if (newOwner != address(0)) {\n            owner = newOwner;\n        }\n    }\n\n}\n\n/**\n * @title ERC20Basic\n * @dev Simpler version of ERC20 interface\n * @dev see https://github.com/ethereum/EIPs/issues/20\n */\nabstract contract ERC20Basic {\n    uint public _totalSupply;\n    function totalSupply() public view virtual returns (uint);\n    function balanceOf(address who) public view virtual returns (uint);\n    function transfer(address to, uint value) public virtual;\n    event Transfer(address indexed from, address indexed to, uint value);\n}\n\n/**\n * @title ERC20 interface\n * @dev see https://github.com/ethereum/EIPs/issues/20\n */\nabstract contract ERC20 is ERC20Basic {\n    function allowance(address owner, address spender) public view virtual returns (uint);\n    function transferFrom(address from, address to, uint value) public virtual;\n    function approve(address spender, uint value) public virtual;\n    event Approval(address indexed owner, address indexed spender, uint value);\n}\n\n/**\n * @title Basic token\n * @dev Basic version of StandardToken, with no allowances.\n */\nabstract contract BasicToken is Ownable, ERC20Basic {\n    using SafeMath for uint;\n\n    mapping(address => uint) public balances;\n\n    // additional variables for use if transaction fees ever became necessary\n    uint public basisPointsRate = 0;\n    uint public maximumFee = 0;\n\n    /**\n    * @dev Fix for the ERC20 short address attack.\n    */\n    modifier onlyPayloadSize(uint size) {\n        require(!(msg.data.length < size + 4));\n        _;\n    }\n\n    /**\n    * @dev transfer token for a specified address\n    * @param _to The address to transfer to.\n    * @param _value The amount to be transferred.\n    */\n    function transfer(address _to, uint _value) public virtual override onlyPayloadSize(2 * 32) {\n        uint fee = (_value.mul(basisPointsRate)).div(10000);\n        if (fee > maximumFee) {\n            fee = maximumFee;\n        }\n        uint sendAmount = _value.sub(fee);\n        balances[msg.sender] = balances[msg.sender].sub(_value);\n        balances[_to] = balances[_to].add(sendAmount);\n        if (fee > 0) {\n            balances[owner] = balances[owner].add(fee);\n            emit Transfer(msg.sender, owner, fee);\n        }\n        emit Transfer(msg.sender, _to, sendAmount);\n    }\n\n    /**\n    * @dev Gets the balance of the specified address.\n    * @param _owner The address to query the the balance of.\n    * @return balance An uint representing the amount owned by the passed address.\n    */\n    function balanceOf(address _owner) public virtual override view returns (uint balance) {\n        return balances[_owner];\n    }\n\n}\n\n/**\n * @title Standard ERC20 token\n *\n * @dev Implementation of the basic standard token.\n * @dev https://github.com/ethereum/EIPs/issues/20\n * @dev Based oncode by FirstBlood: https://github.com/Firstbloodio/token/blob/master/smart_contract/FirstBloodToken.sol\n */\nabstract contract StandardToken is BasicToken, ERC20 {\n\n    mapping (address => mapping (address => uint)) public allowed;\n\n    uint public constant MAX_UINT = 2**256 - 1;\n\n    /**\n    * @dev Transfer tokens from one address to another\n    * @param _from address The address which you want to send tokens from\n    * @param _to address The address which you want to transfer to\n    * @param _value uint the amount of tokens to be transferred\n    */\n    function transferFrom(address _from, address _to, uint _value) public virtual override onlyPayloadSize(3 * 32) {\n        uint256 _allowance = allowed[_from][msg.sender];\n\n        // Check is not needed because sub(_allowance, _value) will already throw if this condition is not met\n        // if (_value > _allowance) throw;\n\n        uint fee = (_value.mul(basisPointsRate)).div(10000);\n        if (fee > maximumFee) {\n            fee = maximumFee;\n        }\n        if (_allowance < MAX_UINT) {\n            allowed[_from][msg.sender] = _allowance.sub(_value);\n        }\n        uint sendAmount = _value.sub(fee);\n        balances[_from] = balances[_from].sub(_value);\n        balances[_to] = balances[_to].add(sendAmount);\n        if (fee > 0) {\n            balances[owner] = balances[owner].add(fee);\n            emit Transfer(_from, owner, fee);\n        }\n        emit Transfer(_from, _to, sendAmount);\n    }\n\n    /**\n    * @dev Approve the passed address to spend the specified amount of tokens on behalf of msg.sender.\n    * @param _spender The address which will spend the funds.\n    * @param _value The amount of tokens to be spent.\n    */\n    function approve(address _spender, uint _value) public virtual override onlyPayloadSize(2 * 32) {\n\n        // To change the approve amount you first have to reduce the addresses`\n        //  allowance to zero by calling `approve(_spender, 0)` if it is not\n        //  already 0 to mitigate the race condition described here:\n        //  https://github.com/ethereum/EIPs/issues/20#issuecomment-263524729\n        require(!((_value != 0) && (allowed[msg.sender][_spender] != 0)));\n\n        allowed[msg.sender][_spender] = _value;\n        emit Approval(msg.sender, _spender, _value);\n    }\n\n    /**\n    * @dev Function to check the amount of tokens than an owner allowed to a spender.\n    * @param _owner address The address which owns the funds.\n    * @param _spender address The address which will spend the funds.\n    * @return remaining A uint specifying the amount of tokens still available for the spender.\n    */\n    function allowance(address _owner, address _spender) public virtual override view returns (uint remaining) {\n        return allowed[_owner][_spender];\n    }\n\n}\n\n\n/**\n * @title Pausable\n * @dev Base contract which allows children to implement an emergency stop mechanism.\n */\ncontract Pausable is Ownable {\n    event Pause();\n    event Unpause();\n\n    bool public paused = false;\n\n\n    /**\n     * @dev Modifier to make a function callable only when the contract is not paused.\n     */\n    modifier whenNotPaused() {\n        require(!paused);\n        _;\n    }\n\n    /**\n     * @dev Modifier to make a function callable only when the contract is paused.\n     */\n    modifier whenPaused() {\n        require(paused);\n        _;\n    }\n\n    /**\n     * @dev called by the owner to pause, triggers stopped state\n     */\n    function pause() onlyOwner whenNotPaused public {\n        paused = true;\n        emit Pause();\n    }\n\n    /**\n     * @dev called by the owner to unpause, returns to normal state\n     */\n    function unpause() onlyOwner whenPaused public {\n        paused = false;\n        emit Unpause();\n    }\n}\n\nabstract contract BlackList is Ownable, BasicToken {\n\n    /////// Getters to allow the same blacklist to be used also by other contracts (including upgraded Tether) ///////\n    function getBlackListStatus(address _maker) external view returns (bool) {\n        return isBlackListed[_maker];\n    }\n\n    function getOwner() external view returns (address) {\n        return owner;\n    }\n\n    mapping (address => bool) public isBlackListed;\n\n    function addBlackList (address _evilUser) public onlyOwner {\n        isBlackListed[_evilUser] = true;\n        emit AddedBlackList(_evilUser);\n    }\n\n    function removeBlackList (address _clearedUser) public onlyOwner {\n        isBlackListed[_clearedUser] = false;\n        emit RemovedBlackList(_clearedUser);\n    }\n\n    function destroyBlackFunds (address _blackListedUser) public onlyOwner {\n        require(isBlackListed[_blackListedUser]);\n        uint dirtyFunds = balanceOf(_blackListedUser);\n        balances[_blackListedUser] = 0;\n        _totalSupply -= dirtyFunds;\n        emit DestroyedBlackFunds(_blackListedUser, dirtyFunds);\n    }\n\n    event DestroyedBlackFunds(address _blackListedUser, uint _balance);\n\n    event AddedBlackList(address _user);\n\n    event RemovedBlackList(address _user);\n\n}\n\nabstract contract UpgradedStandardToken is StandardToken{\n    // those methods are called by the legacy contract\n    // and they must ensure msg.sender to be the contract address\n    function transferByLegacy(address from, address to, uint value) public virtual;\n    function transferFromByLegacy(address sender, address from, address spender, uint value) public virtual;\n    function approveByLegacy(address from, address spender, uint value) public virtual;\n}\n\ncontract TetherToken is Pausable, StandardToken, BlackList {\n\n    string public name;\n    string public symbol;\n    uint public decimals;\n    address public upgradedAddress;\n    bool public deprecated;\n\n    //  The contract can be initialized with a number of tokens\n    //  All the tokens are deposited to the owner address\n    //\n    // @param _balance Initial supply of the contract\n    // @param _name Token Name\n    // @param _symbol Token symbol\n    // @param _decimals Token decimals\n    constructor(uint _initialSupply, string memory _name, string memory _symbol, uint _decimals) public {\n        _totalSupply = _initialSupply;\n        name = _name;\n        symbol = _symbol;\n        decimals = _decimals;\n        balances[owner] = _initialSupply;\n        deprecated = false;\n    }\n\n    // Forward ERC20 methods to upgraded contract if this one is deprecated\n    function transfer(address _to, uint _value) public override whenNotPaused {\n        require(!isBlackListed[msg.sender]);\n        if (deprecated) {\n            return UpgradedStandardToken(upgradedAddress).transferByLegacy(msg.sender, _to, _value);\n        } else {\n            return super.transfer(_to, _value);\n        }\n    }\n\n    // Forward ERC20 methods to upgraded contract if this one is deprecated\n    function transferFrom(address _from, address _to, uint _value) public override whenNotPaused {\n        require(!isBlackListed[_from]);\n        if (deprecated) {\n            return UpgradedStandardToken(upgradedAddress).transferFromByLegacy(msg.sender, _from, _to, _value);\n        } else {\n            return super.transferFrom(_from, _to, _value);\n        }\n    }\n\n    // Forward ERC20 methods to upgraded contract if this one is deprecated\n    function balanceOf(address who) public view override returns (uint) {\n        if (deprecated) {\n            return UpgradedStandardToken(upgradedAddress).balanceOf(who);\n        } else {\n            return super.balanceOf(who);\n        }\n    }\n\n    // Forward ERC20 methods to upgraded contract if this one is deprecated\n    function approve(address _spender, uint _value) public  override onlyPayloadSize(2 * 32) {\n        if (deprecated) {\n            return UpgradedStandardToken(upgradedAddress).approveByLegacy(msg.sender, _spender, _value);\n        } else {\n            return super.approve(_spender, _value);\n        }\n    }\n\n    // Forward ERC20 methods to upgraded contract if this one is deprecated\n    function allowance(address _owner, address _spender) public view override returns (uint remaining) {\n        if (deprecated) {\n            return StandardToken(upgradedAddress).allowance(_owner, _spender);\n        } else {\n            return super.allowance(_owner, _spender);\n        }\n    }\n\n    // deprecate current contract in favour of a new one\n    function deprecate(address _upgradedAddress) public onlyOwner {\n        deprecated = true;\n        upgradedAddress = _upgradedAddress;\n        emit Deprecate(_upgradedAddress);\n    }\n\n    // deprecate current contract if favour of a new one\n    function totalSupply() public view override returns (uint) {\n        if (deprecated) {\n            return StandardToken(upgradedAddress).totalSupply();\n        } else {\n            return _totalSupply;\n        }\n    }\n\n    // Issue a new amount of tokens\n    // these tokens are deposited into the owner address\n    //\n    // @param _amount Number of tokens to be issued\n    function issue(uint amount) public onlyOwner {\n        require(_totalSupply + amount > _totalSupply);\n        require(balances[owner] + amount > balances[owner]);\n\n        balances[owner] += amount;\n        _totalSupply += amount;\n        emit Issue(amount);\n    }\n\n    // Redeem tokens.\n    // These tokens are withdrawn from the owner address\n    // if the balance must be enough to cover the redeem\n    // or the call will fail.\n    // @param _amount Number of tokens to be issued\n    function redeem(uint amount) public onlyOwner {\n        require(_totalSupply >= amount);\n        require(balances[owner] >= amount);\n\n        _totalSupply -= amount;\n        balances[owner] -= amount;\n        emit Redeem(amount);\n    }\n\n    function setParams(uint newBasisPoints, uint newMaxFee) public onlyOwner {\n        // Ensure transparency by hardcoding limit beyond which fees can never be added\n        require(newBasisPoints < 20);\n        require(newMaxFee < 50);\n\n        basisPointsRate = newBasisPoints;\n        maximumFee = newMaxFee.mul(10**decimals);\n\n        emit Params(basisPointsRate, maximumFee);\n    }\n\n    // Called when new token are issued\n    event Issue(uint amount);\n\n    // Called when tokens are redeemed\n    event Redeem(uint amount);\n\n    // Called when contract is deprecated\n    event Deprecate(address newAddress);\n\n    // Called if contract ever adds fees\n    event Params(uint feeBasisPoints, uint maxFee);\n}",
  "sourcePath": "/Users/ashton/repo/blockchain/eth/smartcontracts/PoolX/contracts/mock/TetherToken.sol",
  "compiler": {
    "name": "solc",
    "version": "0.6.9+commit.3e3065ac.Emscripten.clang"
  },
  "schemaVersion": "3.2.0",
  "updatedAt": "2020-11-21T00:14:21.231Z",
  "networkType": "ethereum",
  "devdoc": {
    "methods": {
      "pause()": {
        "details": "called by the owner to pause, triggers stopped state"
      },
      "transferOwnership(address)": {
        "details": "Allows the current owner to transfer control of the contract to a newOwner.",
        "params": {
          "newOwner": "The address to transfer ownership to."
        }
      },
      "unpause()": {
        "details": "called by the owner to unpause, returns to normal state"
      }
    }
  },
  "userdoc": {
    "methods": {
      "getBlackListStatus(address)": {
        "notice": "//// Getters to allow the same blacklist to be used also by other contracts (including upgraded Tether) ///////"
      }
    }
  }
}